{
	"data": {
		"bytecode": {
			"linkReferences": {},
			"object": "6080604052348015600e575f80fd5b5061016a8061001c5f395ff3fe608060405234801561000f575f80fd5b5060043610610029575f3560e01c80633ff8ef351461002d575b5f80fd5b610047600480360381019061004291906100bc565b61005d565b604051610054919061011b565b60405180910390f35b5f808490508084131561006e578390505b8083131561007a578290505b809150509392505050565b5f80fd5b5f819050919050565b61009b81610089565b81146100a5575f80fd5b50565b5f813590506100b681610092565b92915050565b5f805f606084860312156100d3576100d2610085565b5b5f6100e0868287016100a8565b93505060206100f1868287016100a8565b9250506040610102868287016100a8565b9150509250925092565b61011581610089565b82525050565b5f60208201905061012e5f83018461010c565b9291505056fea2646970667358221220231147bd52cdc96b545df81343c962544937f69c3636a9b86cc268085fc5eca064736f6c634300081a0033",
			"opcodes": "PUSH1 0x80 PUSH1 0x40 MSTORE CALLVALUE DUP1 ISZERO PUSH1 0xE JUMPI PUSH0 DUP1 REVERT JUMPDEST POP PUSH2 0x16A DUP1 PUSH2 0x1C PUSH0 CODECOPY PUSH0 RETURN INVALID PUSH1 0x80 PUSH1 0x40 MSTORE CALLVALUE DUP1 ISZERO PUSH2 0xF JUMPI PUSH0 DUP1 REVERT JUMPDEST POP PUSH1 0x4 CALLDATASIZE LT PUSH2 0x29 JUMPI PUSH0 CALLDATALOAD PUSH1 0xE0 SHR DUP1 PUSH4 0x3FF8EF35 EQ PUSH2 0x2D JUMPI JUMPDEST PUSH0 DUP1 REVERT JUMPDEST PUSH2 0x47 PUSH1 0x4 DUP1 CALLDATASIZE SUB DUP2 ADD SWAP1 PUSH2 0x42 SWAP2 SWAP1 PUSH2 0xBC JUMP JUMPDEST PUSH2 0x5D JUMP JUMPDEST PUSH1 0x40 MLOAD PUSH2 0x54 SWAP2 SWAP1 PUSH2 0x11B JUMP JUMPDEST PUSH1 0x40 MLOAD DUP1 SWAP2 SUB SWAP1 RETURN JUMPDEST PUSH0 DUP1 DUP5 SWAP1 POP DUP1 DUP5 SGT ISZERO PUSH2 0x6E JUMPI DUP4 SWAP1 POP JUMPDEST DUP1 DUP4 SGT ISZERO PUSH2 0x7A JUMPI DUP3 SWAP1 POP JUMPDEST DUP1 SWAP2 POP POP SWAP4 SWAP3 POP POP POP JUMP JUMPDEST PUSH0 DUP1 REVERT JUMPDEST PUSH0 DUP2 SWAP1 POP SWAP2 SWAP1 POP JUMP JUMPDEST PUSH2 0x9B DUP2 PUSH2 0x89 JUMP JUMPDEST DUP2 EQ PUSH2 0xA5 JUMPI PUSH0 DUP1 REVERT JUMPDEST POP JUMP JUMPDEST PUSH0 DUP2 CALLDATALOAD SWAP1 POP PUSH2 0xB6 DUP2 PUSH2 0x92 JUMP JUMPDEST SWAP3 SWAP2 POP POP JUMP JUMPDEST PUSH0 DUP1 PUSH0 PUSH1 0x60 DUP5 DUP7 SUB SLT ISZERO PUSH2 0xD3 JUMPI PUSH2 0xD2 PUSH2 0x85 JUMP JUMPDEST JUMPDEST PUSH0 PUSH2 0xE0 DUP7 DUP3 DUP8 ADD PUSH2 0xA8 JUMP JUMPDEST SWAP4 POP POP PUSH1 0x20 PUSH2 0xF1 DUP7 DUP3 DUP8 ADD PUSH2 0xA8 JUMP JUMPDEST SWAP3 POP POP PUSH1 0x40 PUSH2 0x102 DUP7 DUP3 DUP8 ADD PUSH2 0xA8 JUMP JUMPDEST SWAP2 POP POP SWAP3 POP SWAP3 POP SWAP3 JUMP JUMPDEST PUSH2 0x115 DUP2 PUSH2 0x89 JUMP JUMPDEST DUP3 MSTORE POP POP JUMP JUMPDEST PUSH0 PUSH1 0x20 DUP3 ADD SWAP1 POP PUSH2 0x12E PUSH0 DUP4 ADD DUP5 PUSH2 0x10C JUMP JUMPDEST SWAP3 SWAP2 POP POP JUMP INVALID LOG2 PUSH5 0x6970667358 0x22 SLT KECCAK256 0x23 GT SELFBALANCE 0xBD MSTORE 0xCD 0xC9 PUSH12 0x545DF81343C962544937F69C CALLDATASIZE CALLDATASIZE 0xA9 0xB8 PUSH13 0xC268085FC5ECA064736F6C6343 STOP ADDMOD BYTE STOP CALLER "
		},
		"gasEstimates": {
			"creation": {
				"codeDepositCost": "72400",
				"executionCost": "121",
				"totalCost": "72521"
			},
			"external": {
				"MaximumOFAll(int256,int256,int256)": "infinite"
			}
		},
		"methodIdentifiers": {
			"MaximumOFAll(int256,int256,int256)": "3ff8ef35"
		}
	},
	"abi": [
		{
			"inputs": [
				{
					"internalType": "int256",
					"name": "a",
					"type": "int256"
				},
				{
					"internalType": "int256",
					"name": "b",
					"type": "int256"
				},
				{
					"internalType": "int256",
					"name": "c",
					"type": "int256"
				}
			],
			"name": "MaximumOFAll",
			"outputs": [
				{
					"internalType": "int256",
					"name": "",
					"type": "int256"
				}
			],
			"stateMutability": "pure",
			"type": "function"
		}
	]
}