{
	"data": {
		"bytecode": {
			"linkReferences": {},
			"object": "6104cc61004d600b8282823980515f1a6073146041577f4e487b71000000000000000000000000000000000000000000000000000000005f525f60045260245ffd5b305f52607381538281f3fe7300000000000000000000000000000000000000003014608060405260043610610060575f3560e01c80631b5ac4b514610064578063677342ce146100945780636d5433e6146100c45780637ae2b5c7146100f45780637b29290914610124575b5f80fd5b61007e60048036038101906100799190610263565b610154565b60405161008b91906102a6565b60405180910390f35b6100ae60048036038101906100a991906102e9565b610175565b6040516100bb91906102a6565b60405180910390f35b6100de60048036038101906100d99190610314565b6101e6565b6040516100eb91906102a6565b60405180910390f35b61010e60048036038101906101099190610314565b6101ff565b60405161011b91906102a6565b60405180910390f35b61013e600480360381019061013991906102e9565b610218565b60405161014b91906102a6565b60405180910390f35b5f8082121561016c57816101679061037f565b61016e565b815b9050919050565b5f808203610185575f90506101e1565b5f600260018461019591906103c5565b61019f9190610425565b90505f8390505b808210156101db5781905060028283866101c09190610425565b6101ca91906103c5565b6101d49190610425565b91506101a6565b80925050505b919050565b5f818310156101f557816101f7565b825b905092915050565b5f8183111561020e5781610210565b825b905092915050565b5f81826102259190610455565b9050919050565b5f80fd5b5f819050919050565b61024281610230565b811461024c575f80fd5b50565b5f8135905061025d81610239565b92915050565b5f602082840312156102785761027761022c565b5b5f6102858482850161024f565b91505092915050565b5f819050919050565b6102a08161028e565b82525050565b5f6020820190506102b95f830184610297565b92915050565b6102c88161028e565b81146102d2575f80fd5b50565b5f813590506102e3816102bf565b92915050565b5f602082840312156102fe576102fd61022c565b5b5f61030b848285016102d5565b91505092915050565b5f806040838503121561032a5761032961022c565b5b5f610337858286016102d5565b9250506020610348858286016102d5565b9150509250929050565b7f4e487b71000000000000000000000000000000000000000000000000000000005f52601160045260245ffd5b5f61038982610230565b91507f800000000000000000000000000000000000000000000000000000000000000082036103bb576103ba610352565b5b815f039050919050565b5f6103cf8261028e565b91506103da8361028e565b92508282019050808211156103f2576103f1610352565b5b92915050565b7f4e487b71000000000000000000000000000000000000000000000000000000005f52601260045260245ffd5b5f61042f8261028e565b915061043a8361028e565b92508261044a576104496103f8565b5b828204905092915050565b5f61045f8261028e565b915061046a8361028e565b92508282026104788161028e565b9150828204841483151761048f5761048e610352565b5b509291505056fea2646970667358221220be952ca1d802cabb6c10536a90fb7a2c10e50c022325dce853566640cbab009964736f6c634300081a0033",
			"opcodes": "PUSH2 0x4CC PUSH2 0x4D PUSH1 0xB DUP3 DUP3 DUP3 CODECOPY DUP1 MLOAD PUSH0 BYTE PUSH1 0x73 EQ PUSH1 0x41 JUMPI PUSH32 0x4E487B7100000000000000000000000000000000000000000000000000000000 PUSH0 MSTORE PUSH0 PUSH1 0x4 MSTORE PUSH1 0x24 PUSH0 REVERT JUMPDEST ADDRESS PUSH0 MSTORE PUSH1 0x73 DUP2 MSTORE8 DUP3 DUP2 RETURN INVALID PUSH20 0x0 ADDRESS EQ PUSH1 0x80 PUSH1 0x40 MSTORE PUSH1 0x4 CALLDATASIZE LT PUSH2 0x60 JUMPI PUSH0 CALLDATALOAD PUSH1 0xE0 SHR DUP1 PUSH4 0x1B5AC4B5 EQ PUSH2 0x64 JUMPI DUP1 PUSH4 0x677342CE EQ PUSH2 0x94 JUMPI DUP1 PUSH4 0x6D5433E6 EQ PUSH2 0xC4 JUMPI DUP1 PUSH4 0x7AE2B5C7 EQ PUSH2 0xF4 JUMPI DUP1 PUSH4 0x7B292909 EQ PUSH2 0x124 JUMPI JUMPDEST PUSH0 DUP1 REVERT JUMPDEST PUSH2 0x7E PUSH1 0x4 DUP1 CALLDATASIZE SUB DUP2 ADD SWAP1 PUSH2 0x79 SWAP2 SWAP1 PUSH2 0x263 JUMP JUMPDEST PUSH2 0x154 JUMP JUMPDEST PUSH1 0x40 MLOAD PUSH2 0x8B SWAP2 SWAP1 PUSH2 0x2A6 JUMP JUMPDEST PUSH1 0x40 MLOAD DUP1 SWAP2 SUB SWAP1 RETURN JUMPDEST PUSH2 0xAE PUSH1 0x4 DUP1 CALLDATASIZE SUB DUP2 ADD SWAP1 PUSH2 0xA9 SWAP2 SWAP1 PUSH2 0x2E9 JUMP JUMPDEST PUSH2 0x175 JUMP JUMPDEST PUSH1 0x40 MLOAD PUSH2 0xBB SWAP2 SWAP1 PUSH2 0x2A6 JUMP JUMPDEST PUSH1 0x40 MLOAD DUP1 SWAP2 SUB SWAP1 RETURN JUMPDEST PUSH2 0xDE PUSH1 0x4 DUP1 CALLDATASIZE SUB DUP2 ADD SWAP1 PUSH2 0xD9 SWAP2 SWAP1 PUSH2 0x314 JUMP JUMPDEST PUSH2 0x1E6 JUMP JUMPDEST PUSH1 0x40 MLOAD PUSH2 0xEB SWAP2 SWAP1 PUSH2 0x2A6 JUMP JUMPDEST PUSH1 0x40 MLOAD DUP1 SWAP2 SUB SWAP1 RETURN JUMPDEST PUSH2 0x10E PUSH1 0x4 DUP1 CALLDATASIZE SUB DUP2 ADD SWAP1 PUSH2 0x109 SWAP2 SWAP1 PUSH2 0x314 JUMP JUMPDEST PUSH2 0x1FF JUMP JUMPDEST PUSH1 0x40 MLOAD PUSH2 0x11B SWAP2 SWAP1 PUSH2 0x2A6 JUMP JUMPDEST PUSH1 0x40 MLOAD DUP1 SWAP2 SUB SWAP1 RETURN JUMPDEST PUSH2 0x13E PUSH1 0x4 DUP1 CALLDATASIZE SUB DUP2 ADD SWAP1 PUSH2 0x139 SWAP2 SWAP1 PUSH2 0x2E9 JUMP JUMPDEST PUSH2 0x218 JUMP JUMPDEST PUSH1 0x40 MLOAD PUSH2 0x14B SWAP2 SWAP1 PUSH2 0x2A6 JUMP JUMPDEST PUSH1 0x40 MLOAD DUP1 SWAP2 SUB SWAP1 RETURN JUMPDEST PUSH0 DUP1 DUP3 SLT ISZERO PUSH2 0x16C JUMPI DUP2 PUSH2 0x167 SWAP1 PUSH2 0x37F JUMP JUMPDEST PUSH2 0x16E JUMP JUMPDEST DUP2 JUMPDEST SWAP1 POP SWAP2 SWAP1 POP JUMP JUMPDEST PUSH0 DUP1 DUP3 SUB PUSH2 0x185 JUMPI PUSH0 SWAP1 POP PUSH2 0x1E1 JUMP JUMPDEST PUSH0 PUSH1 0x2 PUSH1 0x1 DUP5 PUSH2 0x195 SWAP2 SWAP1 PUSH2 0x3C5 JUMP JUMPDEST PUSH2 0x19F SWAP2 SWAP1 PUSH2 0x425 JUMP JUMPDEST SWAP1 POP PUSH0 DUP4 SWAP1 POP JUMPDEST DUP1 DUP3 LT ISZERO PUSH2 0x1DB JUMPI DUP2 SWAP1 POP PUSH1 0x2 DUP3 DUP4 DUP7 PUSH2 0x1C0 SWAP2 SWAP1 PUSH2 0x425 JUMP JUMPDEST PUSH2 0x1CA SWAP2 SWAP1 PUSH2 0x3C5 JUMP JUMPDEST PUSH2 0x1D4 SWAP2 SWAP1 PUSH2 0x425 JUMP JUMPDEST SWAP2 POP PUSH2 0x1A6 JUMP JUMPDEST DUP1 SWAP3 POP POP POP JUMPDEST SWAP2 SWAP1 POP JUMP JUMPDEST PUSH0 DUP2 DUP4 LT ISZERO PUSH2 0x1F5 JUMPI DUP2 PUSH2 0x1F7 JUMP JUMPDEST DUP3 JUMPDEST SWAP1 POP SWAP3 SWAP2 POP POP JUMP JUMPDEST PUSH0 DUP2 DUP4 GT ISZERO PUSH2 0x20E JUMPI DUP2 PUSH2 0x210 JUMP JUMPDEST DUP3 JUMPDEST SWAP1 POP SWAP3 SWAP2 POP POP JUMP JUMPDEST PUSH0 DUP2 DUP3 PUSH2 0x225 SWAP2 SWAP1 PUSH2 0x455 JUMP JUMPDEST SWAP1 POP SWAP2 SWAP1 POP JUMP JUMPDEST PUSH0 DUP1 REVERT JUMPDEST PUSH0 DUP2 SWAP1 POP SWAP2 SWAP1 POP JUMP JUMPDEST PUSH2 0x242 DUP2 PUSH2 0x230 JUMP JUMPDEST DUP2 EQ PUSH2 0x24C JUMPI PUSH0 DUP1 REVERT JUMPDEST POP JUMP JUMPDEST PUSH0 DUP2 CALLDATALOAD SWAP1 POP PUSH2 0x25D DUP2 PUSH2 0x239 JUMP JUMPDEST SWAP3 SWAP2 POP POP JUMP JUMPDEST PUSH0 PUSH1 0x20 DUP3 DUP5 SUB SLT ISZERO PUSH2 0x278 JUMPI PUSH2 0x277 PUSH2 0x22C JUMP JUMPDEST JUMPDEST PUSH0 PUSH2 0x285 DUP5 DUP3 DUP6 ADD PUSH2 0x24F JUMP JUMPDEST SWAP2 POP POP SWAP3 SWAP2 POP POP JUMP JUMPDEST PUSH0 DUP2 SWAP1 POP SWAP2 SWAP1 POP JUMP JUMPDEST PUSH2 0x2A0 DUP2 PUSH2 0x28E JUMP JUMPDEST DUP3 MSTORE POP POP JUMP JUMPDEST PUSH0 PUSH1 0x20 DUP3 ADD SWAP1 POP PUSH2 0x2B9 PUSH0 DUP4 ADD DUP5 PUSH2 0x297 JUMP JUMPDEST SWAP3 SWAP2 POP POP JUMP JUMPDEST PUSH2 0x2C8 DUP2 PUSH2 0x28E JUMP JUMPDEST DUP2 EQ PUSH2 0x2D2 JUMPI PUSH0 DUP1 REVERT JUMPDEST POP JUMP JUMPDEST PUSH0 DUP2 CALLDATALOAD SWAP1 POP PUSH2 0x2E3 DUP2 PUSH2 0x2BF JUMP JUMPDEST SWAP3 SWAP2 POP POP JUMP JUMPDEST PUSH0 PUSH1 0x20 DUP3 DUP5 SUB SLT ISZERO PUSH2 0x2FE JUMPI PUSH2 0x2FD PUSH2 0x22C JUMP JUMPDEST JUMPDEST PUSH0 PUSH2 0x30B DUP5 DUP3 DUP6 ADD PUSH2 0x2D5 JUMP JUMPDEST SWAP2 POP POP SWAP3 SWAP2 POP POP JUMP JUMPDEST PUSH0 DUP1 PUSH1 0x40 DUP4 DUP6 SUB SLT ISZERO PUSH2 0x32A JUMPI PUSH2 0x329 PUSH2 0x22C JUMP JUMPDEST JUMPDEST PUSH0 PUSH2 0x337 DUP6 DUP3 DUP7 ADD PUSH2 0x2D5 JUMP JUMPDEST SWAP3 POP POP PUSH1 0x20 PUSH2 0x348 DUP6 DUP3 DUP7 ADD PUSH2 0x2D5 JUMP JUMPDEST SWAP2 POP POP SWAP3 POP SWAP3 SWAP1 POP JUMP JUMPDEST PUSH32 0x4E487B7100000000000000000000000000000000000000000000000000000000 PUSH0 MSTORE PUSH1 0x11 PUSH1 0x4 MSTORE PUSH1 0x24 PUSH0 REVERT JUMPDEST PUSH0 PUSH2 0x389 DUP3 PUSH2 0x230 JUMP JUMPDEST SWAP2 POP PUSH32 0x8000000000000000000000000000000000000000000000000000000000000000 DUP3 SUB PUSH2 0x3BB JUMPI PUSH2 0x3BA PUSH2 0x352 JUMP JUMPDEST JUMPDEST DUP2 PUSH0 SUB SWAP1 POP SWAP2 SWAP1 POP JUMP JUMPDEST PUSH0 PUSH2 0x3CF DUP3 PUSH2 0x28E JUMP JUMPDEST SWAP2 POP PUSH2 0x3DA DUP4 PUSH2 0x28E JUMP JUMPDEST SWAP3 POP DUP3 DUP3 ADD SWAP1 POP DUP1 DUP3 GT ISZERO PUSH2 0x3F2 JUMPI PUSH2 0x3F1 PUSH2 0x352 JUMP JUMPDEST JUMPDEST SWAP3 SWAP2 POP POP JUMP JUMPDEST PUSH32 0x4E487B7100000000000000000000000000000000000000000000000000000000 PUSH0 MSTORE PUSH1 0x12 PUSH1 0x4 MSTORE PUSH1 0x24 PUSH0 REVERT JUMPDEST PUSH0 PUSH2 0x42F DUP3 PUSH2 0x28E JUMP JUMPDEST SWAP2 POP PUSH2 0x43A DUP4 PUSH2 0x28E JUMP JUMPDEST SWAP3 POP DUP3 PUSH2 0x44A JUMPI PUSH2 0x449 PUSH2 0x3F8 JUMP JUMPDEST JUMPDEST DUP3 DUP3 DIV SWAP1 POP SWAP3 SWAP2 POP POP JUMP JUMPDEST PUSH0 PUSH2 0x45F DUP3 PUSH2 0x28E JUMP JUMPDEST SWAP2 POP PUSH2 0x46A DUP4 PUSH2 0x28E JUMP JUMPDEST SWAP3 POP DUP3 DUP3 MUL PUSH2 0x478 DUP2 PUSH2 0x28E JUMP JUMPDEST SWAP2 POP DUP3 DUP3 DIV DUP5 EQ DUP4 ISZERO OR PUSH2 0x48F JUMPI PUSH2 0x48E PUSH2 0x352 JUMP JUMPDEST JUMPDEST POP SWAP3 SWAP2 POP POP JUMP INVALID LOG2 PUSH5 0x6970667358 0x22 SLT KECCAK256 0xBE SWAP6 0x2C LOG1 0xD8 MUL 0xCA 0xBB PUSH13 0x10536A90FB7A2C10E50C022325 0xDC 0xE8 MSTORE8 JUMP PUSH7 0x40CBAB00996473 PUSH16 0x6C634300081A00330000000000000000 "
		},
		"gasEstimates": {
			"creation": {
				"codeDepositCost": "245600",
				"executionCost": "310",
				"totalCost": "245910"
			},
			"external": {
				"abs(int256)": "infinite",
				"max(uint256,uint256)": "infinite",
				"min(uint256,uint256)": "infinite",
				"sqrt(uint256)": "infinite",
				"square(uint256)": "infinite"
			}
		},
		"methodIdentifiers": {
			"abs(int256)": "1b5ac4b5",
			"max(uint256,uint256)": "6d5433e6",
			"min(uint256,uint256)": "7ae2b5c7",
			"sqrt(uint256)": "677342ce",
			"square(uint256)": "7b292909"
		}
	},
	"abi": [
		{
			"inputs": [
				{
					"internalType": "int256",
					"name": "x",
					"type": "int256"
				}
			],
			"name": "abs",
			"outputs": [
				{
					"internalType": "uint256",
					"name": "",
					"type": "uint256"
				}
			],
			"stateMutability": "pure",
			"type": "function"
		},
		{
			"inputs": [
				{
					"internalType": "uint256",
					"name": "a",
					"type": "uint256"
				},
				{
					"internalType": "uint256",
					"name": "b",
					"type": "uint256"
				}
			],
			"name": "max",
			"outputs": [
				{
					"internalType": "uint256",
					"name": "",
					"type": "uint256"
				}
			],
			"stateMutability": "pure",
			"type": "function"
		},
		{
			"inputs": [
				{
					"internalType": "uint256",
					"name": "a",
					"type": "uint256"
				},
				{
					"internalType": "uint256",
					"name": "b",
					"type": "uint256"
				}
			],
			"name": "min",
			"outputs": [
				{
					"internalType": "uint256",
					"name": "",
					"type": "uint256"
				}
			],
			"stateMutability": "pure",
			"type": "function"
		},
		{
			"inputs": [
				{
					"internalType": "uint256",
					"name": "x",
					"type": "uint256"
				}
			],
			"name": "sqrt",
			"outputs": [
				{
					"internalType": "uint256",
					"name": "",
					"type": "uint256"
				}
			],
			"stateMutability": "pure",
			"type": "function"
		},
		{
			"inputs": [
				{
					"internalType": "uint256",
					"name": "x",
					"type": "uint256"
				}
			],
			"name": "square",
			"outputs": [
				{
					"internalType": "uint256",
					"name": "",
					"type": "uint256"
				}
			],
			"stateMutability": "pure",
			"type": "function"
		}
	]
}