{
	"data": {
		"bytecode": {
			"linkReferences": {},
			"object": "6080604052348015600e575f80fd5b5061081b8061001c5f395ff3fe608060405234801561000f575f80fd5b506004361061004a575f3560e01c80630718aa191461004e57806332c2a9661461006a5780635210f4f2146100895780635ad3a0a8146100a7575b5f80fd5b610068600480360381019061006391906104bc565b6100c7565b005b610072610168565b604051610080929190610537565b60405180910390f35b610091610178565b60405161009e919061055e565b60405180910390f35b6100af610256565b6040516100be9392919061062e565b60405180910390f35b805182846100d59190610697565b14610115576040517f08c379a000000000000000000000000000000000000000000000000000000000815260040161010c90610732565b60405180910390fd5b6040518060600160405280848152602001838152602001828152505f80820151815f015560208201518160010155604082015181600201908051906020019061015f9291906102c2565b50905050505050565b5f805f0154908060010154905082565b5f805f60020180549050116101c2576040517f08c379a00000000000000000000000000000000000000000000000000000000081526004016101b99061079a565b60405180910390fd5b5f806002015f815481106101d9576101d86107b8565b5b905f5260205f20015490505f600190505b5f6002018054905081101561024e57815f60020182815481106102105761020f6107b8565b5b905f5260205f2001541115610241575f6002018181548110610235576102346107b8565b5b905f5260205f20015491505b80806001019150506101ea565b508091505090565b5f8060605f8001545f600101545f600201808054806020026020016040519081016040528092919081815260200182805480156102b057602002820191905f5260205f20905b81548152602001906001019080831161029c575b50505050509050925092509250909192565b828054828255905f5260205f209081019282156102fc579160200282015b828111156102fb5782518255916020019190600101906102e0565b5b509050610309919061030d565b5090565b5b80821115610324575f815f90555060010161030e565b5090565b5f604051905090565b5f80fd5b5f80fd5b5f819050919050565b61034b81610339565b8114610355575f80fd5b50565b5f8135905061036681610342565b92915050565b5f80fd5b5f601f19601f8301169050919050565b7f4e487b71000000000000000000000000000000000000000000000000000000005f52604160045260245ffd5b6103b682610370565b810181811067ffffffffffffffff821117156103d5576103d4610380565b5b80604052505050565b5f6103e7610328565b90506103f382826103ad565b919050565b5f67ffffffffffffffff82111561041257610411610380565b5b602082029050602081019050919050565b5f80fd5b5f610439610434846103f8565b6103de565b9050808382526020820190506020840283018581111561045c5761045b610423565b5b835b8181101561048557806104718882610358565b84526020840193505060208101905061045e565b5050509392505050565b5f82601f8301126104a3576104a261036c565b5b81356104b3848260208601610427565b91505092915050565b5f805f606084860312156104d3576104d2610331565b5b5f6104e086828701610358565b93505060206104f186828701610358565b925050604084013567ffffffffffffffff81111561051257610511610335565b5b61051e8682870161048f565b9150509250925092565b61053181610339565b82525050565b5f60408201905061054a5f830185610528565b6105576020830184610528565b9392505050565b5f6020820190506105715f830184610528565b92915050565b5f81519050919050565b5f82825260208201905092915050565b5f819050602082019050919050565b6105a981610339565b82525050565b5f6105ba83836105a0565b60208301905092915050565b5f602082019050919050565b5f6105dc82610577565b6105e68185610581565b93506105f183610591565b805f5b8381101561062157815161060888826105af565b9750610613836105c6565b9250506001810190506105f4565b5085935050505092915050565b5f6060820190506106415f830186610528565b61064e6020830185610528565b818103604083015261066081846105d2565b9050949350505050565b7f4e487b71000000000000000000000000000000000000000000000000000000005f52601160045260245ffd5b5f6106a182610339565b91506106ac83610339565b92508282026106ba81610339565b915082820484148315176106d1576106d061066a565b5b5092915050565b5f82825260208201905092915050565b7f496e76616c6964206d61747269782064696d656e73696f6e73000000000000005f82015250565b5f61071c6019836106d8565b9150610727826106e8565b602082019050919050565b5f6020820190508181035f83015261074981610710565b9050919050565b7f4d617472697820697320656d70747900000000000000000000000000000000005f82015250565b5f610784600f836106d8565b915061078f82610750565b602082019050919050565b5f6020820190508181035f8301526107b181610778565b9050919050565b7f4e487b71000000000000000000000000000000000000000000000000000000005f52603260045260245ffdfea264697066735822122009e2ce7adb85644ca8d751cf4f39ebfb6a2d64fa11ec8dd08356eef5db931a9764736f6c634300081a0033",
			"opcodes": "PUSH1 0x80 PUSH1 0x40 MSTORE CALLVALUE DUP1 ISZERO PUSH1 0xE JUMPI PUSH0 DUP1 REVERT JUMPDEST POP PUSH2 0x81B DUP1 PUSH2 0x1C PUSH0 CODECOPY PUSH0 RETURN INVALID PUSH1 0x80 PUSH1 0x40 MSTORE CALLVALUE DUP1 ISZERO PUSH2 0xF JUMPI PUSH0 DUP1 REVERT JUMPDEST POP PUSH1 0x4 CALLDATASIZE LT PUSH2 0x4A JUMPI PUSH0 CALLDATALOAD PUSH1 0xE0 SHR DUP1 PUSH4 0x718AA19 EQ PUSH2 0x4E JUMPI DUP1 PUSH4 0x32C2A966 EQ PUSH2 0x6A JUMPI DUP1 PUSH4 0x5210F4F2 EQ PUSH2 0x89 JUMPI DUP1 PUSH4 0x5AD3A0A8 EQ PUSH2 0xA7 JUMPI JUMPDEST PUSH0 DUP1 REVERT JUMPDEST PUSH2 0x68 PUSH1 0x4 DUP1 CALLDATASIZE SUB DUP2 ADD SWAP1 PUSH2 0x63 SWAP2 SWAP1 PUSH2 0x4BC JUMP JUMPDEST PUSH2 0xC7 JUMP JUMPDEST STOP JUMPDEST PUSH2 0x72 PUSH2 0x168 JUMP JUMPDEST PUSH1 0x40 MLOAD PUSH2 0x80 SWAP3 SWAP2 SWAP1 PUSH2 0x537 JUMP JUMPDEST PUSH1 0x40 MLOAD DUP1 SWAP2 SUB SWAP1 RETURN JUMPDEST PUSH2 0x91 PUSH2 0x178 JUMP JUMPDEST PUSH1 0x40 MLOAD PUSH2 0x9E SWAP2 SWAP1 PUSH2 0x55E JUMP JUMPDEST PUSH1 0x40 MLOAD DUP1 SWAP2 SUB SWAP1 RETURN JUMPDEST PUSH2 0xAF PUSH2 0x256 JUMP JUMPDEST PUSH1 0x40 MLOAD PUSH2 0xBE SWAP4 SWAP3 SWAP2 SWAP1 PUSH2 0x62E JUMP JUMPDEST PUSH1 0x40 MLOAD DUP1 SWAP2 SUB SWAP1 RETURN JUMPDEST DUP1 MLOAD DUP3 DUP5 PUSH2 0xD5 SWAP2 SWAP1 PUSH2 0x697 JUMP JUMPDEST EQ PUSH2 0x115 JUMPI PUSH1 0x40 MLOAD PUSH32 0x8C379A000000000000000000000000000000000000000000000000000000000 DUP2 MSTORE PUSH1 0x4 ADD PUSH2 0x10C SWAP1 PUSH2 0x732 JUMP JUMPDEST PUSH1 0x40 MLOAD DUP1 SWAP2 SUB SWAP1 REVERT JUMPDEST PUSH1 0x40 MLOAD DUP1 PUSH1 0x60 ADD PUSH1 0x40 MSTORE DUP1 DUP5 DUP2 MSTORE PUSH1 0x20 ADD DUP4 DUP2 MSTORE PUSH1 0x20 ADD DUP3 DUP2 MSTORE POP PUSH0 DUP1 DUP3 ADD MLOAD DUP2 PUSH0 ADD SSTORE PUSH1 0x20 DUP3 ADD MLOAD DUP2 PUSH1 0x1 ADD SSTORE PUSH1 0x40 DUP3 ADD MLOAD DUP2 PUSH1 0x2 ADD SWAP1 DUP1 MLOAD SWAP1 PUSH1 0x20 ADD SWAP1 PUSH2 0x15F SWAP3 SWAP2 SWAP1 PUSH2 0x2C2 JUMP JUMPDEST POP SWAP1 POP POP POP POP POP JUMP JUMPDEST PUSH0 DUP1 PUSH0 ADD SLOAD SWAP1 DUP1 PUSH1 0x1 ADD SLOAD SWAP1 POP DUP3 JUMP JUMPDEST PUSH0 DUP1 PUSH0 PUSH1 0x2 ADD DUP1 SLOAD SWAP1 POP GT PUSH2 0x1C2 JUMPI PUSH1 0x40 MLOAD PUSH32 0x8C379A000000000000000000000000000000000000000000000000000000000 DUP2 MSTORE PUSH1 0x4 ADD PUSH2 0x1B9 SWAP1 PUSH2 0x79A JUMP JUMPDEST PUSH1 0x40 MLOAD DUP1 SWAP2 SUB SWAP1 REVERT JUMPDEST PUSH0 DUP1 PUSH1 0x2 ADD PUSH0 DUP2 SLOAD DUP2 LT PUSH2 0x1D9 JUMPI PUSH2 0x1D8 PUSH2 0x7B8 JUMP JUMPDEST JUMPDEST SWAP1 PUSH0 MSTORE PUSH1 0x20 PUSH0 KECCAK256 ADD SLOAD SWAP1 POP PUSH0 PUSH1 0x1 SWAP1 POP JUMPDEST PUSH0 PUSH1 0x2 ADD DUP1 SLOAD SWAP1 POP DUP2 LT ISZERO PUSH2 0x24E JUMPI DUP2 PUSH0 PUSH1 0x2 ADD DUP3 DUP2 SLOAD DUP2 LT PUSH2 0x210 JUMPI PUSH2 0x20F PUSH2 0x7B8 JUMP JUMPDEST JUMPDEST SWAP1 PUSH0 MSTORE PUSH1 0x20 PUSH0 KECCAK256 ADD SLOAD GT ISZERO PUSH2 0x241 JUMPI PUSH0 PUSH1 0x2 ADD DUP2 DUP2 SLOAD DUP2 LT PUSH2 0x235 JUMPI PUSH2 0x234 PUSH2 0x7B8 JUMP JUMPDEST JUMPDEST SWAP1 PUSH0 MSTORE PUSH1 0x20 PUSH0 KECCAK256 ADD SLOAD SWAP2 POP JUMPDEST DUP1 DUP1 PUSH1 0x1 ADD SWAP2 POP POP PUSH2 0x1EA JUMP JUMPDEST POP DUP1 SWAP2 POP POP SWAP1 JUMP JUMPDEST PUSH0 DUP1 PUSH1 0x60 PUSH0 DUP1 ADD SLOAD PUSH0 PUSH1 0x1 ADD SLOAD PUSH0 PUSH1 0x2 ADD DUP1 DUP1 SLOAD DUP1 PUSH1 0x20 MUL PUSH1 0x20 ADD PUSH1 0x40 MLOAD SWAP1 DUP2 ADD PUSH1 0x40 MSTORE DUP1 SWAP3 SWAP2 SWAP1 DUP2 DUP2 MSTORE PUSH1 0x20 ADD DUP3 DUP1 SLOAD DUP1 ISZERO PUSH2 0x2B0 JUMPI PUSH1 0x20 MUL DUP3 ADD SWAP2 SWAP1 PUSH0 MSTORE PUSH1 0x20 PUSH0 KECCAK256 SWAP1 JUMPDEST DUP2 SLOAD DUP2 MSTORE PUSH1 0x20 ADD SWAP1 PUSH1 0x1 ADD SWAP1 DUP1 DUP4 GT PUSH2 0x29C JUMPI JUMPDEST POP POP POP POP POP SWAP1 POP SWAP3 POP SWAP3 POP SWAP3 POP SWAP1 SWAP2 SWAP3 JUMP JUMPDEST DUP3 DUP1 SLOAD DUP3 DUP3 SSTORE SWAP1 PUSH0 MSTORE PUSH1 0x20 PUSH0 KECCAK256 SWAP1 DUP2 ADD SWAP3 DUP3 ISZERO PUSH2 0x2FC JUMPI SWAP2 PUSH1 0x20 MUL DUP3 ADD JUMPDEST DUP3 DUP2 GT ISZERO PUSH2 0x2FB JUMPI DUP3 MLOAD DUP3 SSTORE SWAP2 PUSH1 0x20 ADD SWAP2 SWAP1 PUSH1 0x1 ADD SWAP1 PUSH2 0x2E0 JUMP JUMPDEST JUMPDEST POP SWAP1 POP PUSH2 0x309 SWAP2 SWAP1 PUSH2 0x30D JUMP JUMPDEST POP SWAP1 JUMP JUMPDEST JUMPDEST DUP1 DUP3 GT ISZERO PUSH2 0x324 JUMPI PUSH0 DUP2 PUSH0 SWAP1 SSTORE POP PUSH1 0x1 ADD PUSH2 0x30E JUMP JUMPDEST POP SWAP1 JUMP JUMPDEST PUSH0 PUSH1 0x40 MLOAD SWAP1 POP SWAP1 JUMP JUMPDEST PUSH0 DUP1 REVERT JUMPDEST PUSH0 DUP1 REVERT JUMPDEST PUSH0 DUP2 SWAP1 POP SWAP2 SWAP1 POP JUMP JUMPDEST PUSH2 0x34B DUP2 PUSH2 0x339 JUMP JUMPDEST DUP2 EQ PUSH2 0x355 JUMPI PUSH0 DUP1 REVERT JUMPDEST POP JUMP JUMPDEST PUSH0 DUP2 CALLDATALOAD SWAP1 POP PUSH2 0x366 DUP2 PUSH2 0x342 JUMP JUMPDEST SWAP3 SWAP2 POP POP JUMP JUMPDEST PUSH0 DUP1 REVERT JUMPDEST PUSH0 PUSH1 0x1F NOT PUSH1 0x1F DUP4 ADD AND SWAP1 POP SWAP2 SWAP1 POP JUMP JUMPDEST PUSH32 0x4E487B7100000000000000000000000000000000000000000000000000000000 PUSH0 MSTORE PUSH1 0x41 PUSH1 0x4 MSTORE PUSH1 0x24 PUSH0 REVERT JUMPDEST PUSH2 0x3B6 DUP3 PUSH2 0x370 JUMP JUMPDEST DUP2 ADD DUP2 DUP2 LT PUSH8 0xFFFFFFFFFFFFFFFF DUP3 GT OR ISZERO PUSH2 0x3D5 JUMPI PUSH2 0x3D4 PUSH2 0x380 JUMP JUMPDEST JUMPDEST DUP1 PUSH1 0x40 MSTORE POP POP POP JUMP JUMPDEST PUSH0 PUSH2 0x3E7 PUSH2 0x328 JUMP JUMPDEST SWAP1 POP PUSH2 0x3F3 DUP3 DUP3 PUSH2 0x3AD JUMP JUMPDEST SWAP2 SWAP1 POP JUMP JUMPDEST PUSH0 PUSH8 0xFFFFFFFFFFFFFFFF DUP3 GT ISZERO PUSH2 0x412 JUMPI PUSH2 0x411 PUSH2 0x380 JUMP JUMPDEST JUMPDEST PUSH1 0x20 DUP3 MUL SWAP1 POP PUSH1 0x20 DUP2 ADD SWAP1 POP SWAP2 SWAP1 POP JUMP JUMPDEST PUSH0 DUP1 REVERT JUMPDEST PUSH0 PUSH2 0x439 PUSH2 0x434 DUP5 PUSH2 0x3F8 JUMP JUMPDEST PUSH2 0x3DE JUMP JUMPDEST SWAP1 POP DUP1 DUP4 DUP3 MSTORE PUSH1 0x20 DUP3 ADD SWAP1 POP PUSH1 0x20 DUP5 MUL DUP4 ADD DUP6 DUP2 GT ISZERO PUSH2 0x45C JUMPI PUSH2 0x45B PUSH2 0x423 JUMP JUMPDEST JUMPDEST DUP4 JUMPDEST DUP2 DUP2 LT ISZERO PUSH2 0x485 JUMPI DUP1 PUSH2 0x471 DUP9 DUP3 PUSH2 0x358 JUMP JUMPDEST DUP5 MSTORE PUSH1 0x20 DUP5 ADD SWAP4 POP POP PUSH1 0x20 DUP2 ADD SWAP1 POP PUSH2 0x45E JUMP JUMPDEST POP POP POP SWAP4 SWAP3 POP POP POP JUMP JUMPDEST PUSH0 DUP3 PUSH1 0x1F DUP4 ADD SLT PUSH2 0x4A3 JUMPI PUSH2 0x4A2 PUSH2 0x36C JUMP JUMPDEST JUMPDEST DUP2 CALLDATALOAD PUSH2 0x4B3 DUP5 DUP3 PUSH1 0x20 DUP7 ADD PUSH2 0x427 JUMP JUMPDEST SWAP2 POP POP SWAP3 SWAP2 POP POP JUMP JUMPDEST PUSH0 DUP1 PUSH0 PUSH1 0x60 DUP5 DUP7 SUB SLT ISZERO PUSH2 0x4D3 JUMPI PUSH2 0x4D2 PUSH2 0x331 JUMP JUMPDEST JUMPDEST PUSH0 PUSH2 0x4E0 DUP7 DUP3 DUP8 ADD PUSH2 0x358 JUMP JUMPDEST SWAP4 POP POP PUSH1 0x20 PUSH2 0x4F1 DUP7 DUP3 DUP8 ADD PUSH2 0x358 JUMP JUMPDEST SWAP3 POP POP PUSH1 0x40 DUP5 ADD CALLDATALOAD PUSH8 0xFFFFFFFFFFFFFFFF DUP2 GT ISZERO PUSH2 0x512 JUMPI PUSH2 0x511 PUSH2 0x335 JUMP JUMPDEST JUMPDEST PUSH2 0x51E DUP7 DUP3 DUP8 ADD PUSH2 0x48F JUMP JUMPDEST SWAP2 POP POP SWAP3 POP SWAP3 POP SWAP3 JUMP JUMPDEST PUSH2 0x531 DUP2 PUSH2 0x339 JUMP JUMPDEST DUP3 MSTORE POP POP JUMP JUMPDEST PUSH0 PUSH1 0x40 DUP3 ADD SWAP1 POP PUSH2 0x54A PUSH0 DUP4 ADD DUP6 PUSH2 0x528 JUMP JUMPDEST PUSH2 0x557 PUSH1 0x20 DUP4 ADD DUP5 PUSH2 0x528 JUMP JUMPDEST SWAP4 SWAP3 POP POP POP JUMP JUMPDEST PUSH0 PUSH1 0x20 DUP3 ADD SWAP1 POP PUSH2 0x571 PUSH0 DUP4 ADD DUP5 PUSH2 0x528 JUMP JUMPDEST SWAP3 SWAP2 POP POP JUMP JUMPDEST PUSH0 DUP2 MLOAD SWAP1 POP SWAP2 SWAP1 POP JUMP JUMPDEST PUSH0 DUP3 DUP3 MSTORE PUSH1 0x20 DUP3 ADD SWAP1 POP SWAP3 SWAP2 POP POP JUMP JUMPDEST PUSH0 DUP2 SWAP1 POP PUSH1 0x20 DUP3 ADD SWAP1 POP SWAP2 SWAP1 POP JUMP JUMPDEST PUSH2 0x5A9 DUP2 PUSH2 0x339 JUMP JUMPDEST DUP3 MSTORE POP POP JUMP JUMPDEST PUSH0 PUSH2 0x5BA DUP4 DUP4 PUSH2 0x5A0 JUMP JUMPDEST PUSH1 0x20 DUP4 ADD SWAP1 POP SWAP3 SWAP2 POP POP JUMP JUMPDEST PUSH0 PUSH1 0x20 DUP3 ADD SWAP1 POP SWAP2 SWAP1 POP JUMP JUMPDEST PUSH0 PUSH2 0x5DC DUP3 PUSH2 0x577 JUMP JUMPDEST PUSH2 0x5E6 DUP2 DUP6 PUSH2 0x581 JUMP JUMPDEST SWAP4 POP PUSH2 0x5F1 DUP4 PUSH2 0x591 JUMP JUMPDEST DUP1 PUSH0 JUMPDEST DUP4 DUP2 LT ISZERO PUSH2 0x621 JUMPI DUP2 MLOAD PUSH2 0x608 DUP9 DUP3 PUSH2 0x5AF JUMP JUMPDEST SWAP8 POP PUSH2 0x613 DUP4 PUSH2 0x5C6 JUMP JUMPDEST SWAP3 POP POP PUSH1 0x1 DUP2 ADD SWAP1 POP PUSH2 0x5F4 JUMP JUMPDEST POP DUP6 SWAP4 POP POP POP POP SWAP3 SWAP2 POP POP JUMP JUMPDEST PUSH0 PUSH1 0x60 DUP3 ADD SWAP1 POP PUSH2 0x641 PUSH0 DUP4 ADD DUP7 PUSH2 0x528 JUMP JUMPDEST PUSH2 0x64E PUSH1 0x20 DUP4 ADD DUP6 PUSH2 0x528 JUMP JUMPDEST DUP2 DUP2 SUB PUSH1 0x40 DUP4 ADD MSTORE PUSH2 0x660 DUP2 DUP5 PUSH2 0x5D2 JUMP JUMPDEST SWAP1 POP SWAP5 SWAP4 POP POP POP POP JUMP JUMPDEST PUSH32 0x4E487B7100000000000000000000000000000000000000000000000000000000 PUSH0 MSTORE PUSH1 0x11 PUSH1 0x4 MSTORE PUSH1 0x24 PUSH0 REVERT JUMPDEST PUSH0 PUSH2 0x6A1 DUP3 PUSH2 0x339 JUMP JUMPDEST SWAP2 POP PUSH2 0x6AC DUP4 PUSH2 0x339 JUMP JUMPDEST SWAP3 POP DUP3 DUP3 MUL PUSH2 0x6BA DUP2 PUSH2 0x339 JUMP JUMPDEST SWAP2 POP DUP3 DUP3 DIV DUP5 EQ DUP4 ISZERO OR PUSH2 0x6D1 JUMPI PUSH2 0x6D0 PUSH2 0x66A JUMP JUMPDEST JUMPDEST POP SWAP3 SWAP2 POP POP JUMP JUMPDEST PUSH0 DUP3 DUP3 MSTORE PUSH1 0x20 DUP3 ADD SWAP1 POP SWAP3 SWAP2 POP POP JUMP JUMPDEST PUSH32 0x496E76616C6964206D61747269782064696D656E73696F6E7300000000000000 PUSH0 DUP3 ADD MSTORE POP JUMP JUMPDEST PUSH0 PUSH2 0x71C PUSH1 0x19 DUP4 PUSH2 0x6D8 JUMP JUMPDEST SWAP2 POP PUSH2 0x727 DUP3 PUSH2 0x6E8 JUMP JUMPDEST PUSH1 0x20 DUP3 ADD SWAP1 POP SWAP2 SWAP1 POP JUMP JUMPDEST PUSH0 PUSH1 0x20 DUP3 ADD SWAP1 POP DUP2 DUP2 SUB PUSH0 DUP4 ADD MSTORE PUSH2 0x749 DUP2 PUSH2 0x710 JUMP JUMPDEST SWAP1 POP SWAP2 SWAP1 POP JUMP JUMPDEST PUSH32 0x4D617472697820697320656D7074790000000000000000000000000000000000 PUSH0 DUP3 ADD MSTORE POP JUMP JUMPDEST PUSH0 PUSH2 0x784 PUSH1 0xF DUP4 PUSH2 0x6D8 JUMP JUMPDEST SWAP2 POP PUSH2 0x78F DUP3 PUSH2 0x750 JUMP JUMPDEST PUSH1 0x20 DUP3 ADD SWAP1 POP SWAP2 SWAP1 POP JUMP JUMPDEST PUSH0 PUSH1 0x20 DUP3 ADD SWAP1 POP DUP2 DUP2 SUB PUSH0 DUP4 ADD MSTORE PUSH2 0x7B1 DUP2 PUSH2 0x778 JUMP JUMPDEST SWAP1 POP SWAP2 SWAP1 POP JUMP JUMPDEST PUSH32 0x4E487B7100000000000000000000000000000000000000000000000000000000 PUSH0 MSTORE PUSH1 0x32 PUSH1 0x4 MSTORE PUSH1 0x24 PUSH0 REVERT INVALID LOG2 PUSH5 0x6970667358 0x22 SLT KECCAK256 MULMOD 0xE2 0xCE PUSH27 0xDB85644CA8D751CF4F39EBFB6A2D64FA11EC8DD08356EEF5DB931A SWAP8 PUSH5 0x736F6C6343 STOP ADDMOD BYTE STOP CALLER "
		},
		"gasEstimates": {
			"creation": {
				"codeDepositCost": "415000",
				"executionCost": "447",
				"totalCost": "415447"
			},
			"external": {
				"findLargestElement()": "infinite",
				"getMatrix()": "infinite",
				"matrix()": "infinite",
				"setMatrix(uint256,uint256,uint256[])": "infinite"
			}
		},
		"methodIdentifiers": {
			"findLargestElement()": "5210f4f2",
			"getMatrix()": "5ad3a0a8",
			"matrix()": "32c2a966",
			"setMatrix(uint256,uint256,uint256[])": "0718aa19"
		}
	},
	"abi": [
		{
			"inputs": [],
			"name": "findLargestElement",
			"outputs": [
				{
					"internalType": "uint256",
					"name": "",
					"type": "uint256"
				}
			],
			"stateMutability": "view",
			"type": "function"
		},
		{
			"inputs": [],
			"name": "getMatrix",
			"outputs": [
				{
					"internalType": "uint256",
					"name": "rows",
					"type": "uint256"
				},
				{
					"internalType": "uint256",
					"name": "cols",
					"type": "uint256"
				},
				{
					"internalType": "uint256[]",
					"name": "data",
					"type": "uint256[]"
				}
			],
			"stateMutability": "view",
			"type": "function"
		},
		{
			"inputs": [],
			"name": "matrix",
			"outputs": [
				{
					"internalType": "uint256",
					"name": "rows",
					"type": "uint256"
				},
				{
					"internalType": "uint256",
					"name": "cols",
					"type": "uint256"
				}
			],
			"stateMutability": "view",
			"type": "function"
		},
		{
			"inputs": [
				{
					"internalType": "uint256",
					"name": "_rows",
					"type": "uint256"
				},
				{
					"internalType": "uint256",
					"name": "_cols",
					"type": "uint256"
				},
				{
					"internalType": "uint256[]",
					"name": "_data",
					"type": "uint256[]"
				}
			],
			"name": "setMatrix",
			"outputs": [],
			"stateMutability": "nonpayable",
			"type": "function"
		}
	]
}