{
	"data": {
		"bytecode": {
			"linkReferences": {},
			"object": "608060405234801561000f575f80fd5b506040516115b53803806115b583398181016040528101906100319190610215565b8484815f90816100419190610526565b5080600190816100519190610526565b50505086600290816100639190610526565b5085600381905550826004908161007a9190610526565b508160058190555080600681905550505050505050506105f5565b5f604051905090565b5f80fd5b5f80fd5b5f80fd5b5f80fd5b5f601f19601f8301169050919050565b7f4e487b71000000000000000000000000000000000000000000000000000000005f52604160045260245ffd5b6100f4826100ae565b810181811067ffffffffffffffff82111715610113576101126100be565b5b80604052505050565b5f610125610095565b905061013182826100eb565b919050565b5f67ffffffffffffffff8211156101505761014f6100be565b5b610159826100ae565b9050602081019050919050565b8281835e5f83830152505050565b5f61018661018184610136565b61011c565b9050828152602081018484840111156101a2576101a16100aa565b5b6101ad848285610166565b509392505050565b5f82601f8301126101c9576101c86100a6565b5b81516101d9848260208601610174565b91505092915050565b5f819050919050565b6101f4816101e2565b81146101fe575f80fd5b50565b5f8151905061020f816101eb565b92915050565b5f805f805f805f60e0888a0312156102305761022f61009e565b5b5f88015167ffffffffffffffff81111561024d5761024c6100a2565b5b6102598a828b016101b5565b975050602061026a8a828b01610201565b965050604088015167ffffffffffffffff81111561028b5761028a6100a2565b5b6102978a828b016101b5565b955050606088015167ffffffffffffffff8111156102b8576102b76100a2565b5b6102c48a828b016101b5565b945050608088015167ffffffffffffffff8111156102e5576102e46100a2565b5b6102f18a828b016101b5565b93505060a06103028a828b01610201565b92505060c06103138a828b01610201565b91505092959891949750929550565b5f81519050919050565b7f4e487b71000000000000000000000000000000000000000000000000000000005f52602260045260245ffd5b5f600282049050600182168061037057607f821691505b6020821081036103835761038261032c565b5b50919050565b5f819050815f5260205f209050919050565b5f6020601f8301049050919050565b5f82821b905092915050565b5f600883026103e57fffffffffffffffffffffffffffffffffffffffffffffffffffffffffffffffff826103aa565b6103ef86836103aa565b95508019841693508086168417925050509392505050565b5f819050919050565b5f61042a610425610420846101e2565b610407565b6101e2565b9050919050565b5f819050919050565b61044383610410565b61045761044f82610431565b8484546103b6565b825550505050565b5f90565b61046b61045f565b61047681848461043a565b505050565b5b818110156104995761048e5f82610463565b60018101905061047c565b5050565b601f8211156104de576104af81610389565b6104b88461039b565b810160208510156104c7578190505b6104db6104d38561039b565b83018261047b565b50505b505050565b5f82821c905092915050565b5f6104fe5f19846008026104e3565b1980831691505092915050565b5f61051683836104ef565b9150826002028217905092915050565b61052f82610322565b67ffffffffffffffff811115610548576105476100be565b5b6105528254610359565b61055d82828561049d565b5f60209050601f83116001811461058e575f841561057c578287015190505b610586858261050b565b8655506105ed565b601f19841661059c86610389565b5f5b828110156105c35784890151825560018201915060208501945060208101905061059e565b868310156105e057848901516105dc601f8916826104ef565b8355505b6001600288020188555050505b505050505050565b610fb3806106025f395ff3fe608060405234801561000f575f80fd5b50600436106100b2575f3560e01c806375d880321161006f57806375d880321461016f578063766ccbc71461018d578063b508ba31146101ac578063b975abb3146101ca578063eb96548f146101e8578063f1548ad214610206576100b2565b8063051f855e146100b65780630c1b7c1e146100da5780634ed5a232146100f95780636ef9a27814610117578063735f5aec1461013557806375cda91514610151575b5f80fd5b6100be610222565b6040516100d19796959493929190610946565b60405180910390f35b6100e261047b565b6040516100f09291906109cf565b60405180910390f35b610101610515565b60405161010e91906109fd565b60405180910390f35b61011f61051b565b60405161012c91906109fd565b60405180910390f35b61014f600480360381019061014a9190610b53565b610521565b005b610159610544565b6040516101669190610bc9565b60405180910390f35b6101776105d0565b60405161018491906109fd565b60405180910390f35b6101956105d6565b6040516101a3929190610be9565b60405180910390f35b6101b46106f8565b6040516101c19190610bc9565b60405180910390f35b6101d2610784565b6040516101df9190610bc9565b60405180910390f35b6101f061080f565b6040516101fd9190610bc9565b60405180910390f35b610220600480360381019061021b9190610c48565b61089b565b005b60605f60608060605f8060026003545f6001600460055460065486805461024890610ce1565b80601f016020809104026020016040519081016040528092919081815260200182805461027490610ce1565b80156102bf5780601f10610296576101008083540402835291602001916102bf565b820191905f5260205f20905b8154815290600101906020018083116102a257829003601f168201915b505050505096508480546102d290610ce1565b80601f01602080910402602001604051908101604052809291908181526020018280546102fe90610ce1565b80156103495780601f1061032057610100808354040283529160200191610349565b820191905f5260205f20905b81548152906001019060200180831161032c57829003601f168201915b5050505050945083805461035c90610ce1565b80601f016020809104026020016040519081016040528092919081815260200182805461038890610ce1565b80156103d35780601f106103aa576101008083540402835291602001916103d3565b820191905f5260205f20905b8154815290600101906020018083116103b657829003601f168201915b505050505093508280546103e690610ce1565b80601f016020809104026020016040519081016040528092919081815260200182805461041290610ce1565b801561045d5780601f106104345761010080835404028352916020019161045d565b820191905f5260205f20905b81548152906001019060200180831161044057829003601f168201915b50505050509250965096509650965096509650965090919293949596565b60605f600260035481805461048f90610ce1565b80601f01602080910402602001604051908101604052809291908181526020018280546104bb90610ce1565b80156105065780601f106104dd57610100808354040283529160200191610506565b820191905f5260205f20905b8154815290600101906020018083116104e957829003601f168201915b50505050509150915091509091565b60065481565b60055481565b815f908161052f9190610eae565b50806001908161053f9190610eae565b505050565b6002805461055190610ce1565b80601f016020809104026020016040519081016040528092919081815260200182805461057d90610ce1565b80156105c85780601f1061059f576101008083540402835291602001916105c8565b820191905f5260205f20905b8154815290600101906020018083116105ab57829003601f168201915b505050505081565b60035481565b6060805f60018180546105e890610ce1565b80601f016020809104026020016040519081016040528092919081815260200182805461061490610ce1565b801561065f5780601f106106365761010080835404028352916020019161065f565b820191905f5260205f20905b81548152906001019060200180831161064257829003601f168201915b5050505050915080805461067290610ce1565b80601f016020809104026020016040519081016040528092919081815260200182805461069e90610ce1565b80156106e95780601f106106c0576101008083540402835291602001916106e9565b820191905f5260205f20905b8154815290600101906020018083116106cc57829003601f168201915b50505050509050915091509091565b6004805461070590610ce1565b80601f016020809104026020016040519081016040528092919081815260200182805461073190610ce1565b801561077c5780601f106107535761010080835404028352916020019161077c565b820191905f5260205f20905b81548152906001019060200180831161075f57829003601f168201915b505050505081565b5f805461079090610ce1565b80601f01602080910402602001604051908101604052809291908181526020018280546107bc90610ce1565b80156108075780601f106107de57610100808354040283529160200191610807565b820191905f5260205f20905b8154815290600101906020018083116107ea57829003601f168201915b505050505081565b6001805461081c90610ce1565b80601f016020809104026020016040519081016040528092919081815260200182805461084890610ce1565b80156108935780601f1061086a57610100808354040283529160200191610893565b820191905f5260205f20905b81548152906001019060200180831161087657829003601f168201915b505050505081565b82600490816108aa9190610eae565b508160058190555080600681905550505050565b5f81519050919050565b5f82825260208201905092915050565b8281835e5f83830152505050565b5f601f19601f8301169050919050565b5f610900826108be565b61090a81856108c8565b935061091a8185602086016108d8565b610923816108e6565b840191505092915050565b5f819050919050565b6109408161092e565b82525050565b5f60e0820190508181035f83015261095e818a6108f6565b905061096d6020830189610937565b818103604083015261097f81886108f6565b9050818103606083015261099381876108f6565b905081810360808301526109a781866108f6565b90506109b660a0830185610937565b6109c360c0830184610937565b98975050505050505050565b5f6040820190508181035f8301526109e781856108f6565b90506109f66020830184610937565b9392505050565b5f602082019050610a105f830184610937565b92915050565b5f604051905090565b5f80fd5b5f80fd5b5f80fd5b5f80fd5b7f4e487b71000000000000000000000000000000000000000000000000000000005f52604160045260245ffd5b610a65826108e6565b810181811067ffffffffffffffff82111715610a8457610a83610a2f565b5b80604052505050565b5f610a96610a16565b9050610aa28282610a5c565b919050565b5f67ffffffffffffffff821115610ac157610ac0610a2f565b5b610aca826108e6565b9050602081019050919050565b828183375f83830152505050565b5f610af7610af284610aa7565b610a8d565b905082815260208101848484011115610b1357610b12610a2b565b5b610b1e848285610ad7565b509392505050565b5f82601f830112610b3a57610b39610a27565b5b8135610b4a848260208601610ae5565b91505092915050565b5f8060408385031215610b6957610b68610a1f565b5b5f83013567ffffffffffffffff811115610b8657610b85610a23565b5b610b9285828601610b26565b925050602083013567ffffffffffffffff811115610bb357610bb2610a23565b5b610bbf85828601610b26565b9150509250929050565b5f6020820190508181035f830152610be181846108f6565b905092915050565b5f6040820190508181035f830152610c0181856108f6565b90508181036020830152610c1581846108f6565b90509392505050565b610c278161092e565b8114610c31575f80fd5b50565b5f81359050610c4281610c1e565b92915050565b5f805f60608486031215610c5f57610c5e610a1f565b5b5f84013567ffffffffffffffff811115610c7c57610c7b610a23565b5b610c8886828701610b26565b9350506020610c9986828701610c34565b9250506040610caa86828701610c34565b9150509250925092565b7f4e487b71000000000000000000000000000000000000000000000000000000005f52602260045260245ffd5b5f6002820490506001821680610cf857607f821691505b602082108103610d0b57610d0a610cb4565b5b50919050565b5f819050815f5260205f209050919050565b5f6020601f8301049050919050565b5f82821b905092915050565b5f60088302610d6d7fffffffffffffffffffffffffffffffffffffffffffffffffffffffffffffffff82610d32565b610d778683610d32565b95508019841693508086168417925050509392505050565b5f819050919050565b5f610db2610dad610da88461092e565b610d8f565b61092e565b9050919050565b5f819050919050565b610dcb83610d98565b610ddf610dd782610db9565b848454610d3e565b825550505050565b5f90565b610df3610de7565b610dfe818484610dc2565b505050565b5b81811015610e2157610e165f82610deb565b600181019050610e04565b5050565b601f821115610e6657610e3781610d11565b610e4084610d23565b81016020851015610e4f578190505b610e63610e5b85610d23565b830182610e03565b50505b505050565b5f82821c905092915050565b5f610e865f1984600802610e6b565b1980831691505092915050565b5f610e9e8383610e77565b9150826002028217905092915050565b610eb7826108be565b67ffffffffffffffff811115610ed057610ecf610a2f565b5b610eda8254610ce1565b610ee5828285610e25565b5f60209050601f831160018114610f16575f8415610f04578287015190505b610f0e8582610e93565b865550610f75565b601f198416610f2486610d11565b5f5b82811015610f4b57848901518255600182019150602085019450602081019050610f26565b86831015610f685784890151610f64601f891682610e77565b8355505b6001600288020188555050505b50505050505056fea2646970667358221220d34e94286b3f8f8958c9fee320395b7dd00e38470036d79edfa21f3b235eef8564736f6c634300081a0033",
			"opcodes": "PUSH1 0x80 PUSH1 0x40 MSTORE CALLVALUE DUP1 ISZERO PUSH2 0xF JUMPI PUSH0 DUP1 REVERT JUMPDEST POP PUSH1 0x40 MLOAD PUSH2 0x15B5 CODESIZE SUB DUP1 PUSH2 0x15B5 DUP4 CODECOPY DUP2 DUP2 ADD PUSH1 0x40 MSTORE DUP2 ADD SWAP1 PUSH2 0x31 SWAP2 SWAP1 PUSH2 0x215 JUMP JUMPDEST DUP5 DUP5 DUP2 PUSH0 SWAP1 DUP2 PUSH2 0x41 SWAP2 SWAP1 PUSH2 0x526 JUMP JUMPDEST POP DUP1 PUSH1 0x1 SWAP1 DUP2 PUSH2 0x51 SWAP2 SWAP1 PUSH2 0x526 JUMP JUMPDEST POP POP POP DUP7 PUSH1 0x2 SWAP1 DUP2 PUSH2 0x63 SWAP2 SWAP1 PUSH2 0x526 JUMP JUMPDEST POP DUP6 PUSH1 0x3 DUP2 SWAP1 SSTORE POP DUP3 PUSH1 0x4 SWAP1 DUP2 PUSH2 0x7A SWAP2 SWAP1 PUSH2 0x526 JUMP JUMPDEST POP DUP2 PUSH1 0x5 DUP2 SWAP1 SSTORE POP DUP1 PUSH1 0x6 DUP2 SWAP1 SSTORE POP POP POP POP POP POP POP POP PUSH2 0x5F5 JUMP JUMPDEST PUSH0 PUSH1 0x40 MLOAD SWAP1 POP SWAP1 JUMP JUMPDEST PUSH0 DUP1 REVERT JUMPDEST PUSH0 DUP1 REVERT JUMPDEST PUSH0 DUP1 REVERT JUMPDEST PUSH0 DUP1 REVERT JUMPDEST PUSH0 PUSH1 0x1F NOT PUSH1 0x1F DUP4 ADD AND SWAP1 POP SWAP2 SWAP1 POP JUMP JUMPDEST PUSH32 0x4E487B7100000000000000000000000000000000000000000000000000000000 PUSH0 MSTORE PUSH1 0x41 PUSH1 0x4 MSTORE PUSH1 0x24 PUSH0 REVERT JUMPDEST PUSH2 0xF4 DUP3 PUSH2 0xAE JUMP JUMPDEST DUP2 ADD DUP2 DUP2 LT PUSH8 0xFFFFFFFFFFFFFFFF DUP3 GT OR ISZERO PUSH2 0x113 JUMPI PUSH2 0x112 PUSH2 0xBE JUMP JUMPDEST JUMPDEST DUP1 PUSH1 0x40 MSTORE POP POP POP JUMP JUMPDEST PUSH0 PUSH2 0x125 PUSH2 0x95 JUMP JUMPDEST SWAP1 POP PUSH2 0x131 DUP3 DUP3 PUSH2 0xEB JUMP JUMPDEST SWAP2 SWAP1 POP JUMP JUMPDEST PUSH0 PUSH8 0xFFFFFFFFFFFFFFFF DUP3 GT ISZERO PUSH2 0x150 JUMPI PUSH2 0x14F PUSH2 0xBE JUMP JUMPDEST JUMPDEST PUSH2 0x159 DUP3 PUSH2 0xAE JUMP JUMPDEST SWAP1 POP PUSH1 0x20 DUP2 ADD SWAP1 POP SWAP2 SWAP1 POP JUMP JUMPDEST DUP3 DUP2 DUP4 MCOPY PUSH0 DUP4 DUP4 ADD MSTORE POP POP POP JUMP JUMPDEST PUSH0 PUSH2 0x186 PUSH2 0x181 DUP5 PUSH2 0x136 JUMP JUMPDEST PUSH2 0x11C JUMP JUMPDEST SWAP1 POP DUP3 DUP2 MSTORE PUSH1 0x20 DUP2 ADD DUP5 DUP5 DUP5 ADD GT ISZERO PUSH2 0x1A2 JUMPI PUSH2 0x1A1 PUSH2 0xAA JUMP JUMPDEST JUMPDEST PUSH2 0x1AD DUP5 DUP3 DUP6 PUSH2 0x166 JUMP JUMPDEST POP SWAP4 SWAP3 POP POP POP JUMP JUMPDEST PUSH0 DUP3 PUSH1 0x1F DUP4 ADD SLT PUSH2 0x1C9 JUMPI PUSH2 0x1C8 PUSH2 0xA6 JUMP JUMPDEST JUMPDEST DUP2 MLOAD PUSH2 0x1D9 DUP5 DUP3 PUSH1 0x20 DUP7 ADD PUSH2 0x174 JUMP JUMPDEST SWAP2 POP POP SWAP3 SWAP2 POP POP JUMP JUMPDEST PUSH0 DUP2 SWAP1 POP SWAP2 SWAP1 POP JUMP JUMPDEST PUSH2 0x1F4 DUP2 PUSH2 0x1E2 JUMP JUMPDEST DUP2 EQ PUSH2 0x1FE JUMPI PUSH0 DUP1 REVERT JUMPDEST POP JUMP JUMPDEST PUSH0 DUP2 MLOAD SWAP1 POP PUSH2 0x20F DUP2 PUSH2 0x1EB JUMP JUMPDEST SWAP3 SWAP2 POP POP JUMP JUMPDEST PUSH0 DUP1 PUSH0 DUP1 PUSH0 DUP1 PUSH0 PUSH1 0xE0 DUP9 DUP11 SUB SLT ISZERO PUSH2 0x230 JUMPI PUSH2 0x22F PUSH2 0x9E JUMP JUMPDEST JUMPDEST PUSH0 DUP9 ADD MLOAD PUSH8 0xFFFFFFFFFFFFFFFF DUP2 GT ISZERO PUSH2 0x24D JUMPI PUSH2 0x24C PUSH2 0xA2 JUMP JUMPDEST JUMPDEST PUSH2 0x259 DUP11 DUP3 DUP12 ADD PUSH2 0x1B5 JUMP JUMPDEST SWAP8 POP POP PUSH1 0x20 PUSH2 0x26A DUP11 DUP3 DUP12 ADD PUSH2 0x201 JUMP JUMPDEST SWAP7 POP POP PUSH1 0x40 DUP9 ADD MLOAD PUSH8 0xFFFFFFFFFFFFFFFF DUP2 GT ISZERO PUSH2 0x28B JUMPI PUSH2 0x28A PUSH2 0xA2 JUMP JUMPDEST JUMPDEST PUSH2 0x297 DUP11 DUP3 DUP12 ADD PUSH2 0x1B5 JUMP JUMPDEST SWAP6 POP POP PUSH1 0x60 DUP9 ADD MLOAD PUSH8 0xFFFFFFFFFFFFFFFF DUP2 GT ISZERO PUSH2 0x2B8 JUMPI PUSH2 0x2B7 PUSH2 0xA2 JUMP JUMPDEST JUMPDEST PUSH2 0x2C4 DUP11 DUP3 DUP12 ADD PUSH2 0x1B5 JUMP JUMPDEST SWAP5 POP POP PUSH1 0x80 DUP9 ADD MLOAD PUSH8 0xFFFFFFFFFFFFFFFF DUP2 GT ISZERO PUSH2 0x2E5 JUMPI PUSH2 0x2E4 PUSH2 0xA2 JUMP JUMPDEST JUMPDEST PUSH2 0x2F1 DUP11 DUP3 DUP12 ADD PUSH2 0x1B5 JUMP JUMPDEST SWAP4 POP POP PUSH1 0xA0 PUSH2 0x302 DUP11 DUP3 DUP12 ADD PUSH2 0x201 JUMP JUMPDEST SWAP3 POP POP PUSH1 0xC0 PUSH2 0x313 DUP11 DUP3 DUP12 ADD PUSH2 0x201 JUMP JUMPDEST SWAP2 POP POP SWAP3 SWAP6 SWAP9 SWAP2 SWAP5 SWAP8 POP SWAP3 SWAP6 POP JUMP JUMPDEST PUSH0 DUP2 MLOAD SWAP1 POP SWAP2 SWAP1 POP JUMP JUMPDEST PUSH32 0x4E487B7100000000000000000000000000000000000000000000000000000000 PUSH0 MSTORE PUSH1 0x22 PUSH1 0x4 MSTORE PUSH1 0x24 PUSH0 REVERT JUMPDEST PUSH0 PUSH1 0x2 DUP3 DIV SWAP1 POP PUSH1 0x1 DUP3 AND DUP1 PUSH2 0x370 JUMPI PUSH1 0x7F DUP3 AND SWAP2 POP JUMPDEST PUSH1 0x20 DUP3 LT DUP2 SUB PUSH2 0x383 JUMPI PUSH2 0x382 PUSH2 0x32C JUMP JUMPDEST JUMPDEST POP SWAP2 SWAP1 POP JUMP JUMPDEST PUSH0 DUP2 SWAP1 POP DUP2 PUSH0 MSTORE PUSH1 0x20 PUSH0 KECCAK256 SWAP1 POP SWAP2 SWAP1 POP JUMP JUMPDEST PUSH0 PUSH1 0x20 PUSH1 0x1F DUP4 ADD DIV SWAP1 POP SWAP2 SWAP1 POP JUMP JUMPDEST PUSH0 DUP3 DUP3 SHL SWAP1 POP SWAP3 SWAP2 POP POP JUMP JUMPDEST PUSH0 PUSH1 0x8 DUP4 MUL PUSH2 0x3E5 PUSH32 0xFFFFFFFFFFFFFFFFFFFFFFFFFFFFFFFFFFFFFFFFFFFFFFFFFFFFFFFFFFFFFFFF DUP3 PUSH2 0x3AA JUMP JUMPDEST PUSH2 0x3EF DUP7 DUP4 PUSH2 0x3AA JUMP JUMPDEST SWAP6 POP DUP1 NOT DUP5 AND SWAP4 POP DUP1 DUP7 AND DUP5 OR SWAP3 POP POP POP SWAP4 SWAP3 POP POP POP JUMP JUMPDEST PUSH0 DUP2 SWAP1 POP SWAP2 SWAP1 POP JUMP JUMPDEST PUSH0 PUSH2 0x42A PUSH2 0x425 PUSH2 0x420 DUP5 PUSH2 0x1E2 JUMP JUMPDEST PUSH2 0x407 JUMP JUMPDEST PUSH2 0x1E2 JUMP JUMPDEST SWAP1 POP SWAP2 SWAP1 POP JUMP JUMPDEST PUSH0 DUP2 SWAP1 POP SWAP2 SWAP1 POP JUMP JUMPDEST PUSH2 0x443 DUP4 PUSH2 0x410 JUMP JUMPDEST PUSH2 0x457 PUSH2 0x44F DUP3 PUSH2 0x431 JUMP JUMPDEST DUP5 DUP5 SLOAD PUSH2 0x3B6 JUMP JUMPDEST DUP3 SSTORE POP POP POP POP JUMP JUMPDEST PUSH0 SWAP1 JUMP JUMPDEST PUSH2 0x46B PUSH2 0x45F JUMP JUMPDEST PUSH2 0x476 DUP2 DUP5 DUP5 PUSH2 0x43A JUMP JUMPDEST POP POP POP JUMP JUMPDEST JUMPDEST DUP2 DUP2 LT ISZERO PUSH2 0x499 JUMPI PUSH2 0x48E PUSH0 DUP3 PUSH2 0x463 JUMP JUMPDEST PUSH1 0x1 DUP2 ADD SWAP1 POP PUSH2 0x47C JUMP JUMPDEST POP POP JUMP JUMPDEST PUSH1 0x1F DUP3 GT ISZERO PUSH2 0x4DE JUMPI PUSH2 0x4AF DUP2 PUSH2 0x389 JUMP JUMPDEST PUSH2 0x4B8 DUP5 PUSH2 0x39B JUMP JUMPDEST DUP2 ADD PUSH1 0x20 DUP6 LT ISZERO PUSH2 0x4C7 JUMPI DUP2 SWAP1 POP JUMPDEST PUSH2 0x4DB PUSH2 0x4D3 DUP6 PUSH2 0x39B JUMP JUMPDEST DUP4 ADD DUP3 PUSH2 0x47B JUMP JUMPDEST POP POP JUMPDEST POP POP POP JUMP JUMPDEST PUSH0 DUP3 DUP3 SHR SWAP1 POP SWAP3 SWAP2 POP POP JUMP JUMPDEST PUSH0 PUSH2 0x4FE PUSH0 NOT DUP5 PUSH1 0x8 MUL PUSH2 0x4E3 JUMP JUMPDEST NOT DUP1 DUP4 AND SWAP2 POP POP SWAP3 SWAP2 POP POP JUMP JUMPDEST PUSH0 PUSH2 0x516 DUP4 DUP4 PUSH2 0x4EF JUMP JUMPDEST SWAP2 POP DUP3 PUSH1 0x2 MUL DUP3 OR SWAP1 POP SWAP3 SWAP2 POP POP JUMP JUMPDEST PUSH2 0x52F DUP3 PUSH2 0x322 JUMP JUMPDEST PUSH8 0xFFFFFFFFFFFFFFFF DUP2 GT ISZERO PUSH2 0x548 JUMPI PUSH2 0x547 PUSH2 0xBE JUMP JUMPDEST JUMPDEST PUSH2 0x552 DUP3 SLOAD PUSH2 0x359 JUMP JUMPDEST PUSH2 0x55D DUP3 DUP3 DUP6 PUSH2 0x49D JUMP JUMPDEST PUSH0 PUSH1 0x20 SWAP1 POP PUSH1 0x1F DUP4 GT PUSH1 0x1 DUP2 EQ PUSH2 0x58E JUMPI PUSH0 DUP5 ISZERO PUSH2 0x57C JUMPI DUP3 DUP8 ADD MLOAD SWAP1 POP JUMPDEST PUSH2 0x586 DUP6 DUP3 PUSH2 0x50B JUMP JUMPDEST DUP7 SSTORE POP PUSH2 0x5ED JUMP JUMPDEST PUSH1 0x1F NOT DUP5 AND PUSH2 0x59C DUP7 PUSH2 0x389 JUMP JUMPDEST PUSH0 JUMPDEST DUP3 DUP2 LT ISZERO PUSH2 0x5C3 JUMPI DUP5 DUP10 ADD MLOAD DUP3 SSTORE PUSH1 0x1 DUP3 ADD SWAP2 POP PUSH1 0x20 DUP6 ADD SWAP5 POP PUSH1 0x20 DUP2 ADD SWAP1 POP PUSH2 0x59E JUMP JUMPDEST DUP7 DUP4 LT ISZERO PUSH2 0x5E0 JUMPI DUP5 DUP10 ADD MLOAD PUSH2 0x5DC PUSH1 0x1F DUP10 AND DUP3 PUSH2 0x4EF JUMP JUMPDEST DUP4 SSTORE POP JUMPDEST PUSH1 0x1 PUSH1 0x2 DUP9 MUL ADD DUP9 SSTORE POP POP POP JUMPDEST POP POP POP POP POP POP JUMP JUMPDEST PUSH2 0xFB3 DUP1 PUSH2 0x602 PUSH0 CODECOPY PUSH0 RETURN INVALID PUSH1 0x80 PUSH1 0x40 MSTORE CALLVALUE DUP1 ISZERO PUSH2 0xF JUMPI PUSH0 DUP1 REVERT JUMPDEST POP PUSH1 0x4 CALLDATASIZE LT PUSH2 0xB2 JUMPI PUSH0 CALLDATALOAD PUSH1 0xE0 SHR DUP1 PUSH4 0x75D88032 GT PUSH2 0x6F JUMPI DUP1 PUSH4 0x75D88032 EQ PUSH2 0x16F JUMPI DUP1 PUSH4 0x766CCBC7 EQ PUSH2 0x18D JUMPI DUP1 PUSH4 0xB508BA31 EQ PUSH2 0x1AC JUMPI DUP1 PUSH4 0xB975ABB3 EQ PUSH2 0x1CA JUMPI DUP1 PUSH4 0xEB96548F EQ PUSH2 0x1E8 JUMPI DUP1 PUSH4 0xF1548AD2 EQ PUSH2 0x206 JUMPI PUSH2 0xB2 JUMP JUMPDEST DUP1 PUSH4 0x51F855E EQ PUSH2 0xB6 JUMPI DUP1 PUSH4 0xC1B7C1E EQ PUSH2 0xDA JUMPI DUP1 PUSH4 0x4ED5A232 EQ PUSH2 0xF9 JUMPI DUP1 PUSH4 0x6EF9A278 EQ PUSH2 0x117 JUMPI DUP1 PUSH4 0x735F5AEC EQ PUSH2 0x135 JUMPI DUP1 PUSH4 0x75CDA915 EQ PUSH2 0x151 JUMPI JUMPDEST PUSH0 DUP1 REVERT JUMPDEST PUSH2 0xBE PUSH2 0x222 JUMP JUMPDEST PUSH1 0x40 MLOAD PUSH2 0xD1 SWAP8 SWAP7 SWAP6 SWAP5 SWAP4 SWAP3 SWAP2 SWAP1 PUSH2 0x946 JUMP JUMPDEST PUSH1 0x40 MLOAD DUP1 SWAP2 SUB SWAP1 RETURN JUMPDEST PUSH2 0xE2 PUSH2 0x47B JUMP JUMPDEST PUSH1 0x40 MLOAD PUSH2 0xF0 SWAP3 SWAP2 SWAP1 PUSH2 0x9CF JUMP JUMPDEST PUSH1 0x40 MLOAD DUP1 SWAP2 SUB SWAP1 RETURN JUMPDEST PUSH2 0x101 PUSH2 0x515 JUMP JUMPDEST PUSH1 0x40 MLOAD PUSH2 0x10E SWAP2 SWAP1 PUSH2 0x9FD JUMP JUMPDEST PUSH1 0x40 MLOAD DUP1 SWAP2 SUB SWAP1 RETURN JUMPDEST PUSH2 0x11F PUSH2 0x51B JUMP JUMPDEST PUSH1 0x40 MLOAD PUSH2 0x12C SWAP2 SWAP1 PUSH2 0x9FD JUMP JUMPDEST PUSH1 0x40 MLOAD DUP1 SWAP2 SUB SWAP1 RETURN JUMPDEST PUSH2 0x14F PUSH1 0x4 DUP1 CALLDATASIZE SUB DUP2 ADD SWAP1 PUSH2 0x14A SWAP2 SWAP1 PUSH2 0xB53 JUMP JUMPDEST PUSH2 0x521 JUMP JUMPDEST STOP JUMPDEST PUSH2 0x159 PUSH2 0x544 JUMP JUMPDEST PUSH1 0x40 MLOAD PUSH2 0x166 SWAP2 SWAP1 PUSH2 0xBC9 JUMP JUMPDEST PUSH1 0x40 MLOAD DUP1 SWAP2 SUB SWAP1 RETURN JUMPDEST PUSH2 0x177 PUSH2 0x5D0 JUMP JUMPDEST PUSH1 0x40 MLOAD PUSH2 0x184 SWAP2 SWAP1 PUSH2 0x9FD JUMP JUMPDEST PUSH1 0x40 MLOAD DUP1 SWAP2 SUB SWAP1 RETURN JUMPDEST PUSH2 0x195 PUSH2 0x5D6 JUMP JUMPDEST PUSH1 0x40 MLOAD PUSH2 0x1A3 SWAP3 SWAP2 SWAP1 PUSH2 0xBE9 JUMP JUMPDEST PUSH1 0x40 MLOAD DUP1 SWAP2 SUB SWAP1 RETURN JUMPDEST PUSH2 0x1B4 PUSH2 0x6F8 JUMP JUMPDEST PUSH1 0x40 MLOAD PUSH2 0x1C1 SWAP2 SWAP1 PUSH2 0xBC9 JUMP JUMPDEST PUSH1 0x40 MLOAD DUP1 SWAP2 SUB SWAP1 RETURN JUMPDEST PUSH2 0x1D2 PUSH2 0x784 JUMP JUMPDEST PUSH1 0x40 MLOAD PUSH2 0x1DF SWAP2 SWAP1 PUSH2 0xBC9 JUMP JUMPDEST PUSH1 0x40 MLOAD DUP1 SWAP2 SUB SWAP1 RETURN JUMPDEST PUSH2 0x1F0 PUSH2 0x80F JUMP JUMPDEST PUSH1 0x40 MLOAD PUSH2 0x1FD SWAP2 SWAP1 PUSH2 0xBC9 JUMP JUMPDEST PUSH1 0x40 MLOAD DUP1 SWAP2 SUB SWAP1 RETURN JUMPDEST PUSH2 0x220 PUSH1 0x4 DUP1 CALLDATASIZE SUB DUP2 ADD SWAP1 PUSH2 0x21B SWAP2 SWAP1 PUSH2 0xC48 JUMP JUMPDEST PUSH2 0x89B JUMP JUMPDEST STOP JUMPDEST PUSH1 0x60 PUSH0 PUSH1 0x60 DUP1 PUSH1 0x60 PUSH0 DUP1 PUSH1 0x2 PUSH1 0x3 SLOAD PUSH0 PUSH1 0x1 PUSH1 0x4 PUSH1 0x5 SLOAD PUSH1 0x6 SLOAD DUP7 DUP1 SLOAD PUSH2 0x248 SWAP1 PUSH2 0xCE1 JUMP JUMPDEST DUP1 PUSH1 0x1F ADD PUSH1 0x20 DUP1 SWAP2 DIV MUL PUSH1 0x20 ADD PUSH1 0x40 MLOAD SWAP1 DUP2 ADD PUSH1 0x40 MSTORE DUP1 SWAP3 SWAP2 SWAP1 DUP2 DUP2 MSTORE PUSH1 0x20 ADD DUP3 DUP1 SLOAD PUSH2 0x274 SWAP1 PUSH2 0xCE1 JUMP JUMPDEST DUP1 ISZERO PUSH2 0x2BF JUMPI DUP1 PUSH1 0x1F LT PUSH2 0x296 JUMPI PUSH2 0x100 DUP1 DUP4 SLOAD DIV MUL DUP4 MSTORE SWAP2 PUSH1 0x20 ADD SWAP2 PUSH2 0x2BF JUMP JUMPDEST DUP3 ADD SWAP2 SWAP1 PUSH0 MSTORE PUSH1 0x20 PUSH0 KECCAK256 SWAP1 JUMPDEST DUP2 SLOAD DUP2 MSTORE SWAP1 PUSH1 0x1 ADD SWAP1 PUSH1 0x20 ADD DUP1 DUP4 GT PUSH2 0x2A2 JUMPI DUP3 SWAP1 SUB PUSH1 0x1F AND DUP3 ADD SWAP2 JUMPDEST POP POP POP POP POP SWAP7 POP DUP5 DUP1 SLOAD PUSH2 0x2D2 SWAP1 PUSH2 0xCE1 JUMP JUMPDEST DUP1 PUSH1 0x1F ADD PUSH1 0x20 DUP1 SWAP2 DIV MUL PUSH1 0x20 ADD PUSH1 0x40 MLOAD SWAP1 DUP2 ADD PUSH1 0x40 MSTORE DUP1 SWAP3 SWAP2 SWAP1 DUP2 DUP2 MSTORE PUSH1 0x20 ADD DUP3 DUP1 SLOAD PUSH2 0x2FE SWAP1 PUSH2 0xCE1 JUMP JUMPDEST DUP1 ISZERO PUSH2 0x349 JUMPI DUP1 PUSH1 0x1F LT PUSH2 0x320 JUMPI PUSH2 0x100 DUP1 DUP4 SLOAD DIV MUL DUP4 MSTORE SWAP2 PUSH1 0x20 ADD SWAP2 PUSH2 0x349 JUMP JUMPDEST DUP3 ADD SWAP2 SWAP1 PUSH0 MSTORE PUSH1 0x20 PUSH0 KECCAK256 SWAP1 JUMPDEST DUP2 SLOAD DUP2 MSTORE SWAP1 PUSH1 0x1 ADD SWAP1 PUSH1 0x20 ADD DUP1 DUP4 GT PUSH2 0x32C JUMPI DUP3 SWAP1 SUB PUSH1 0x1F AND DUP3 ADD SWAP2 JUMPDEST POP POP POP POP POP SWAP5 POP DUP4 DUP1 SLOAD PUSH2 0x35C SWAP1 PUSH2 0xCE1 JUMP JUMPDEST DUP1 PUSH1 0x1F ADD PUSH1 0x20 DUP1 SWAP2 DIV MUL PUSH1 0x20 ADD PUSH1 0x40 MLOAD SWAP1 DUP2 ADD PUSH1 0x40 MSTORE DUP1 SWAP3 SWAP2 SWAP1 DUP2 DUP2 MSTORE PUSH1 0x20 ADD DUP3 DUP1 SLOAD PUSH2 0x388 SWAP1 PUSH2 0xCE1 JUMP JUMPDEST DUP1 ISZERO PUSH2 0x3D3 JUMPI DUP1 PUSH1 0x1F LT PUSH2 0x3AA JUMPI PUSH2 0x100 DUP1 DUP4 SLOAD DIV MUL DUP4 MSTORE SWAP2 PUSH1 0x20 ADD SWAP2 PUSH2 0x3D3 JUMP JUMPDEST DUP3 ADD SWAP2 SWAP1 PUSH0 MSTORE PUSH1 0x20 PUSH0 KECCAK256 SWAP1 JUMPDEST DUP2 SLOAD DUP2 MSTORE SWAP1 PUSH1 0x1 ADD SWAP1 PUSH1 0x20 ADD DUP1 DUP4 GT PUSH2 0x3B6 JUMPI DUP3 SWAP1 SUB PUSH1 0x1F AND DUP3 ADD SWAP2 JUMPDEST POP POP POP POP POP SWAP4 POP DUP3 DUP1 SLOAD PUSH2 0x3E6 SWAP1 PUSH2 0xCE1 JUMP JUMPDEST DUP1 PUSH1 0x1F ADD PUSH1 0x20 DUP1 SWAP2 DIV MUL PUSH1 0x20 ADD PUSH1 0x40 MLOAD SWAP1 DUP2 ADD PUSH1 0x40 MSTORE DUP1 SWAP3 SWAP2 SWAP1 DUP2 DUP2 MSTORE PUSH1 0x20 ADD DUP3 DUP1 SLOAD PUSH2 0x412 SWAP1 PUSH2 0xCE1 JUMP JUMPDEST DUP1 ISZERO PUSH2 0x45D JUMPI DUP1 PUSH1 0x1F LT PUSH2 0x434 JUMPI PUSH2 0x100 DUP1 DUP4 SLOAD DIV MUL DUP4 MSTORE SWAP2 PUSH1 0x20 ADD SWAP2 PUSH2 0x45D JUMP JUMPDEST DUP3 ADD SWAP2 SWAP1 PUSH0 MSTORE PUSH1 0x20 PUSH0 KECCAK256 SWAP1 JUMPDEST DUP2 SLOAD DUP2 MSTORE SWAP1 PUSH1 0x1 ADD SWAP1 PUSH1 0x20 ADD DUP1 DUP4 GT PUSH2 0x440 JUMPI DUP3 SWAP1 SUB PUSH1 0x1F AND DUP3 ADD SWAP2 JUMPDEST POP POP POP POP POP SWAP3 POP SWAP7 POP SWAP7 POP SWAP7 POP SWAP7 POP SWAP7 POP SWAP7 POP SWAP7 POP SWAP1 SWAP2 SWAP3 SWAP4 SWAP5 SWAP6 SWAP7 JUMP JUMPDEST PUSH1 0x60 PUSH0 PUSH1 0x2 PUSH1 0x3 SLOAD DUP2 DUP1 SLOAD PUSH2 0x48F SWAP1 PUSH2 0xCE1 JUMP JUMPDEST DUP1 PUSH1 0x1F ADD PUSH1 0x20 DUP1 SWAP2 DIV MUL PUSH1 0x20 ADD PUSH1 0x40 MLOAD SWAP1 DUP2 ADD PUSH1 0x40 MSTORE DUP1 SWAP3 SWAP2 SWAP1 DUP2 DUP2 MSTORE PUSH1 0x20 ADD DUP3 DUP1 SLOAD PUSH2 0x4BB SWAP1 PUSH2 0xCE1 JUMP JUMPDEST DUP1 ISZERO PUSH2 0x506 JUMPI DUP1 PUSH1 0x1F LT PUSH2 0x4DD JUMPI PUSH2 0x100 DUP1 DUP4 SLOAD DIV MUL DUP4 MSTORE SWAP2 PUSH1 0x20 ADD SWAP2 PUSH2 0x506 JUMP JUMPDEST DUP3 ADD SWAP2 SWAP1 PUSH0 MSTORE PUSH1 0x20 PUSH0 KECCAK256 SWAP1 JUMPDEST DUP2 SLOAD DUP2 MSTORE SWAP1 PUSH1 0x1 ADD SWAP1 PUSH1 0x20 ADD DUP1 DUP4 GT PUSH2 0x4E9 JUMPI DUP3 SWAP1 SUB PUSH1 0x1F AND DUP3 ADD SWAP2 JUMPDEST POP POP POP POP POP SWAP2 POP SWAP2 POP SWAP2 POP SWAP1 SWAP2 JUMP JUMPDEST PUSH1 0x6 SLOAD DUP2 JUMP JUMPDEST PUSH1 0x5 SLOAD DUP2 JUMP JUMPDEST DUP2 PUSH0 SWAP1 DUP2 PUSH2 0x52F SWAP2 SWAP1 PUSH2 0xEAE JUMP JUMPDEST POP DUP1 PUSH1 0x1 SWAP1 DUP2 PUSH2 0x53F SWAP2 SWAP1 PUSH2 0xEAE JUMP JUMPDEST POP POP POP JUMP JUMPDEST PUSH1 0x2 DUP1 SLOAD PUSH2 0x551 SWAP1 PUSH2 0xCE1 JUMP JUMPDEST DUP1 PUSH1 0x1F ADD PUSH1 0x20 DUP1 SWAP2 DIV MUL PUSH1 0x20 ADD PUSH1 0x40 MLOAD SWAP1 DUP2 ADD PUSH1 0x40 MSTORE DUP1 SWAP3 SWAP2 SWAP1 DUP2 DUP2 MSTORE PUSH1 0x20 ADD DUP3 DUP1 SLOAD PUSH2 0x57D SWAP1 PUSH2 0xCE1 JUMP JUMPDEST DUP1 ISZERO PUSH2 0x5C8 JUMPI DUP1 PUSH1 0x1F LT PUSH2 0x59F JUMPI PUSH2 0x100 DUP1 DUP4 SLOAD DIV MUL DUP4 MSTORE SWAP2 PUSH1 0x20 ADD SWAP2 PUSH2 0x5C8 JUMP JUMPDEST DUP3 ADD SWAP2 SWAP1 PUSH0 MSTORE PUSH1 0x20 PUSH0 KECCAK256 SWAP1 JUMPDEST DUP2 SLOAD DUP2 MSTORE SWAP1 PUSH1 0x1 ADD SWAP1 PUSH1 0x20 ADD DUP1 DUP4 GT PUSH2 0x5AB JUMPI DUP3 SWAP1 SUB PUSH1 0x1F AND DUP3 ADD SWAP2 JUMPDEST POP POP POP POP POP DUP2 JUMP JUMPDEST PUSH1 0x3 SLOAD DUP2 JUMP JUMPDEST PUSH1 0x60 DUP1 PUSH0 PUSH1 0x1 DUP2 DUP1 SLOAD PUSH2 0x5E8 SWAP1 PUSH2 0xCE1 JUMP JUMPDEST DUP1 PUSH1 0x1F ADD PUSH1 0x20 DUP1 SWAP2 DIV MUL PUSH1 0x20 ADD PUSH1 0x40 MLOAD SWAP1 DUP2 ADD PUSH1 0x40 MSTORE DUP1 SWAP3 SWAP2 SWAP1 DUP2 DUP2 MSTORE PUSH1 0x20 ADD DUP3 DUP1 SLOAD PUSH2 0x614 SWAP1 PUSH2 0xCE1 JUMP JUMPDEST DUP1 ISZERO PUSH2 0x65F JUMPI DUP1 PUSH1 0x1F LT PUSH2 0x636 JUMPI PUSH2 0x100 DUP1 DUP4 SLOAD DIV MUL DUP4 MSTORE SWAP2 PUSH1 0x20 ADD SWAP2 PUSH2 0x65F JUMP JUMPDEST DUP3 ADD SWAP2 SWAP1 PUSH0 MSTORE PUSH1 0x20 PUSH0 KECCAK256 SWAP1 JUMPDEST DUP2 SLOAD DUP2 MSTORE SWAP1 PUSH1 0x1 ADD SWAP1 PUSH1 0x20 ADD DUP1 DUP4 GT PUSH2 0x642 JUMPI DUP3 SWAP1 SUB PUSH1 0x1F AND DUP3 ADD SWAP2 JUMPDEST POP POP POP POP POP SWAP2 POP DUP1 DUP1 SLOAD PUSH2 0x672 SWAP1 PUSH2 0xCE1 JUMP JUMPDEST DUP1 PUSH1 0x1F ADD PUSH1 0x20 DUP1 SWAP2 DIV MUL PUSH1 0x20 ADD PUSH1 0x40 MLOAD SWAP1 DUP2 ADD PUSH1 0x40 MSTORE DUP1 SWAP3 SWAP2 SWAP1 DUP2 DUP2 MSTORE PUSH1 0x20 ADD DUP3 DUP1 SLOAD PUSH2 0x69E SWAP1 PUSH2 0xCE1 JUMP JUMPDEST DUP1 ISZERO PUSH2 0x6E9 JUMPI DUP1 PUSH1 0x1F LT PUSH2 0x6C0 JUMPI PUSH2 0x100 DUP1 DUP4 SLOAD DIV MUL DUP4 MSTORE SWAP2 PUSH1 0x20 ADD SWAP2 PUSH2 0x6E9 JUMP JUMPDEST DUP3 ADD SWAP2 SWAP1 PUSH0 MSTORE PUSH1 0x20 PUSH0 KECCAK256 SWAP1 JUMPDEST DUP2 SLOAD DUP2 MSTORE SWAP1 PUSH1 0x1 ADD SWAP1 PUSH1 0x20 ADD DUP1 DUP4 GT PUSH2 0x6CC JUMPI DUP3 SWAP1 SUB PUSH1 0x1F AND DUP3 ADD SWAP2 JUMPDEST POP POP POP POP POP SWAP1 POP SWAP2 POP SWAP2 POP SWAP1 SWAP2 JUMP JUMPDEST PUSH1 0x4 DUP1 SLOAD PUSH2 0x705 SWAP1 PUSH2 0xCE1 JUMP JUMPDEST DUP1 PUSH1 0x1F ADD PUSH1 0x20 DUP1 SWAP2 DIV MUL PUSH1 0x20 ADD PUSH1 0x40 MLOAD SWAP1 DUP2 ADD PUSH1 0x40 MSTORE DUP1 SWAP3 SWAP2 SWAP1 DUP2 DUP2 MSTORE PUSH1 0x20 ADD DUP3 DUP1 SLOAD PUSH2 0x731 SWAP1 PUSH2 0xCE1 JUMP JUMPDEST DUP1 ISZERO PUSH2 0x77C JUMPI DUP1 PUSH1 0x1F LT PUSH2 0x753 JUMPI PUSH2 0x100 DUP1 DUP4 SLOAD DIV MUL DUP4 MSTORE SWAP2 PUSH1 0x20 ADD SWAP2 PUSH2 0x77C JUMP JUMPDEST DUP3 ADD SWAP2 SWAP1 PUSH0 MSTORE PUSH1 0x20 PUSH0 KECCAK256 SWAP1 JUMPDEST DUP2 SLOAD DUP2 MSTORE SWAP1 PUSH1 0x1 ADD SWAP1 PUSH1 0x20 ADD DUP1 DUP4 GT PUSH2 0x75F JUMPI DUP3 SWAP1 SUB PUSH1 0x1F AND DUP3 ADD SWAP2 JUMPDEST POP POP POP POP POP DUP2 JUMP JUMPDEST PUSH0 DUP1 SLOAD PUSH2 0x790 SWAP1 PUSH2 0xCE1 JUMP JUMPDEST DUP1 PUSH1 0x1F ADD PUSH1 0x20 DUP1 SWAP2 DIV MUL PUSH1 0x20 ADD PUSH1 0x40 MLOAD SWAP1 DUP2 ADD PUSH1 0x40 MSTORE DUP1 SWAP3 SWAP2 SWAP1 DUP2 DUP2 MSTORE PUSH1 0x20 ADD DUP3 DUP1 SLOAD PUSH2 0x7BC SWAP1 PUSH2 0xCE1 JUMP JUMPDEST DUP1 ISZERO PUSH2 0x807 JUMPI DUP1 PUSH1 0x1F LT PUSH2 0x7DE JUMPI PUSH2 0x100 DUP1 DUP4 SLOAD DIV MUL DUP4 MSTORE SWAP2 PUSH1 0x20 ADD SWAP2 PUSH2 0x807 JUMP JUMPDEST DUP3 ADD SWAP2 SWAP1 PUSH0 MSTORE PUSH1 0x20 PUSH0 KECCAK256 SWAP1 JUMPDEST DUP2 SLOAD DUP2 MSTORE SWAP1 PUSH1 0x1 ADD SWAP1 PUSH1 0x20 ADD DUP1 DUP4 GT PUSH2 0x7EA JUMPI DUP3 SWAP1 SUB PUSH1 0x1F AND DUP3 ADD SWAP2 JUMPDEST POP POP POP POP POP DUP2 JUMP JUMPDEST PUSH1 0x1 DUP1 SLOAD PUSH2 0x81C SWAP1 PUSH2 0xCE1 JUMP JUMPDEST DUP1 PUSH1 0x1F ADD PUSH1 0x20 DUP1 SWAP2 DIV MUL PUSH1 0x20 ADD PUSH1 0x40 MLOAD SWAP1 DUP2 ADD PUSH1 0x40 MSTORE DUP1 SWAP3 SWAP2 SWAP1 DUP2 DUP2 MSTORE PUSH1 0x20 ADD DUP3 DUP1 SLOAD PUSH2 0x848 SWAP1 PUSH2 0xCE1 JUMP JUMPDEST DUP1 ISZERO PUSH2 0x893 JUMPI DUP1 PUSH1 0x1F LT PUSH2 0x86A JUMPI PUSH2 0x100 DUP1 DUP4 SLOAD DIV MUL DUP4 MSTORE SWAP2 PUSH1 0x20 ADD SWAP2 PUSH2 0x893 JUMP JUMPDEST DUP3 ADD SWAP2 SWAP1 PUSH0 MSTORE PUSH1 0x20 PUSH0 KECCAK256 SWAP1 JUMPDEST DUP2 SLOAD DUP2 MSTORE SWAP1 PUSH1 0x1 ADD SWAP1 PUSH1 0x20 ADD DUP1 DUP4 GT PUSH2 0x876 JUMPI DUP3 SWAP1 SUB PUSH1 0x1F AND DUP3 ADD SWAP2 JUMPDEST POP POP POP POP POP DUP2 JUMP JUMPDEST DUP3 PUSH1 0x4 SWAP1 DUP2 PUSH2 0x8AA SWAP2 SWAP1 PUSH2 0xEAE JUMP JUMPDEST POP DUP2 PUSH1 0x5 DUP2 SWAP1 SSTORE POP DUP1 PUSH1 0x6 DUP2 SWAP1 SSTORE POP POP POP POP JUMP JUMPDEST PUSH0 DUP2 MLOAD SWAP1 POP SWAP2 SWAP1 POP JUMP JUMPDEST PUSH0 DUP3 DUP3 MSTORE PUSH1 0x20 DUP3 ADD SWAP1 POP SWAP3 SWAP2 POP POP JUMP JUMPDEST DUP3 DUP2 DUP4 MCOPY PUSH0 DUP4 DUP4 ADD MSTORE POP POP POP JUMP JUMPDEST PUSH0 PUSH1 0x1F NOT PUSH1 0x1F DUP4 ADD AND SWAP1 POP SWAP2 SWAP1 POP JUMP JUMPDEST PUSH0 PUSH2 0x900 DUP3 PUSH2 0x8BE JUMP JUMPDEST PUSH2 0x90A DUP2 DUP6 PUSH2 0x8C8 JUMP JUMPDEST SWAP4 POP PUSH2 0x91A DUP2 DUP6 PUSH1 0x20 DUP7 ADD PUSH2 0x8D8 JUMP JUMPDEST PUSH2 0x923 DUP2 PUSH2 0x8E6 JUMP JUMPDEST DUP5 ADD SWAP2 POP POP SWAP3 SWAP2 POP POP JUMP JUMPDEST PUSH0 DUP2 SWAP1 POP SWAP2 SWAP1 POP JUMP JUMPDEST PUSH2 0x940 DUP2 PUSH2 0x92E JUMP JUMPDEST DUP3 MSTORE POP POP JUMP JUMPDEST PUSH0 PUSH1 0xE0 DUP3 ADD SWAP1 POP DUP2 DUP2 SUB PUSH0 DUP4 ADD MSTORE PUSH2 0x95E DUP2 DUP11 PUSH2 0x8F6 JUMP JUMPDEST SWAP1 POP PUSH2 0x96D PUSH1 0x20 DUP4 ADD DUP10 PUSH2 0x937 JUMP JUMPDEST DUP2 DUP2 SUB PUSH1 0x40 DUP4 ADD MSTORE PUSH2 0x97F DUP2 DUP9 PUSH2 0x8F6 JUMP JUMPDEST SWAP1 POP DUP2 DUP2 SUB PUSH1 0x60 DUP4 ADD MSTORE PUSH2 0x993 DUP2 DUP8 PUSH2 0x8F6 JUMP JUMPDEST SWAP1 POP DUP2 DUP2 SUB PUSH1 0x80 DUP4 ADD MSTORE PUSH2 0x9A7 DUP2 DUP7 PUSH2 0x8F6 JUMP JUMPDEST SWAP1 POP PUSH2 0x9B6 PUSH1 0xA0 DUP4 ADD DUP6 PUSH2 0x937 JUMP JUMPDEST PUSH2 0x9C3 PUSH1 0xC0 DUP4 ADD DUP5 PUSH2 0x937 JUMP JUMPDEST SWAP9 SWAP8 POP POP POP POP POP POP POP POP JUMP JUMPDEST PUSH0 PUSH1 0x40 DUP3 ADD SWAP1 POP DUP2 DUP2 SUB PUSH0 DUP4 ADD MSTORE PUSH2 0x9E7 DUP2 DUP6 PUSH2 0x8F6 JUMP JUMPDEST SWAP1 POP PUSH2 0x9F6 PUSH1 0x20 DUP4 ADD DUP5 PUSH2 0x937 JUMP JUMPDEST SWAP4 SWAP3 POP POP POP JUMP JUMPDEST PUSH0 PUSH1 0x20 DUP3 ADD SWAP1 POP PUSH2 0xA10 PUSH0 DUP4 ADD DUP5 PUSH2 0x937 JUMP JUMPDEST SWAP3 SWAP2 POP POP JUMP JUMPDEST PUSH0 PUSH1 0x40 MLOAD SWAP1 POP SWAP1 JUMP JUMPDEST PUSH0 DUP1 REVERT JUMPDEST PUSH0 DUP1 REVERT JUMPDEST PUSH0 DUP1 REVERT JUMPDEST PUSH0 DUP1 REVERT JUMPDEST PUSH32 0x4E487B7100000000000000000000000000000000000000000000000000000000 PUSH0 MSTORE PUSH1 0x41 PUSH1 0x4 MSTORE PUSH1 0x24 PUSH0 REVERT JUMPDEST PUSH2 0xA65 DUP3 PUSH2 0x8E6 JUMP JUMPDEST DUP2 ADD DUP2 DUP2 LT PUSH8 0xFFFFFFFFFFFFFFFF DUP3 GT OR ISZERO PUSH2 0xA84 JUMPI PUSH2 0xA83 PUSH2 0xA2F JUMP JUMPDEST JUMPDEST DUP1 PUSH1 0x40 MSTORE POP POP POP JUMP JUMPDEST PUSH0 PUSH2 0xA96 PUSH2 0xA16 JUMP JUMPDEST SWAP1 POP PUSH2 0xAA2 DUP3 DUP3 PUSH2 0xA5C JUMP JUMPDEST SWAP2 SWAP1 POP JUMP JUMPDEST PUSH0 PUSH8 0xFFFFFFFFFFFFFFFF DUP3 GT ISZERO PUSH2 0xAC1 JUMPI PUSH2 0xAC0 PUSH2 0xA2F JUMP JUMPDEST JUMPDEST PUSH2 0xACA DUP3 PUSH2 0x8E6 JUMP JUMPDEST SWAP1 POP PUSH1 0x20 DUP2 ADD SWAP1 POP SWAP2 SWAP1 POP JUMP JUMPDEST DUP3 DUP2 DUP4 CALLDATACOPY PUSH0 DUP4 DUP4 ADD MSTORE POP POP POP JUMP JUMPDEST PUSH0 PUSH2 0xAF7 PUSH2 0xAF2 DUP5 PUSH2 0xAA7 JUMP JUMPDEST PUSH2 0xA8D JUMP JUMPDEST SWAP1 POP DUP3 DUP2 MSTORE PUSH1 0x20 DUP2 ADD DUP5 DUP5 DUP5 ADD GT ISZERO PUSH2 0xB13 JUMPI PUSH2 0xB12 PUSH2 0xA2B JUMP JUMPDEST JUMPDEST PUSH2 0xB1E DUP5 DUP3 DUP6 PUSH2 0xAD7 JUMP JUMPDEST POP SWAP4 SWAP3 POP POP POP JUMP JUMPDEST PUSH0 DUP3 PUSH1 0x1F DUP4 ADD SLT PUSH2 0xB3A JUMPI PUSH2 0xB39 PUSH2 0xA27 JUMP JUMPDEST JUMPDEST DUP2 CALLDATALOAD PUSH2 0xB4A DUP5 DUP3 PUSH1 0x20 DUP7 ADD PUSH2 0xAE5 JUMP JUMPDEST SWAP2 POP POP SWAP3 SWAP2 POP POP JUMP JUMPDEST PUSH0 DUP1 PUSH1 0x40 DUP4 DUP6 SUB SLT ISZERO PUSH2 0xB69 JUMPI PUSH2 0xB68 PUSH2 0xA1F JUMP JUMPDEST JUMPDEST PUSH0 DUP4 ADD CALLDATALOAD PUSH8 0xFFFFFFFFFFFFFFFF DUP2 GT ISZERO PUSH2 0xB86 JUMPI PUSH2 0xB85 PUSH2 0xA23 JUMP JUMPDEST JUMPDEST PUSH2 0xB92 DUP6 DUP3 DUP7 ADD PUSH2 0xB26 JUMP JUMPDEST SWAP3 POP POP PUSH1 0x20 DUP4 ADD CALLDATALOAD PUSH8 0xFFFFFFFFFFFFFFFF DUP2 GT ISZERO PUSH2 0xBB3 JUMPI PUSH2 0xBB2 PUSH2 0xA23 JUMP JUMPDEST JUMPDEST PUSH2 0xBBF DUP6 DUP3 DUP7 ADD PUSH2 0xB26 JUMP JUMPDEST SWAP2 POP POP SWAP3 POP SWAP3 SWAP1 POP JUMP JUMPDEST PUSH0 PUSH1 0x20 DUP3 ADD SWAP1 POP DUP2 DUP2 SUB PUSH0 DUP4 ADD MSTORE PUSH2 0xBE1 DUP2 DUP5 PUSH2 0x8F6 JUMP JUMPDEST SWAP1 POP SWAP3 SWAP2 POP POP JUMP JUMPDEST PUSH0 PUSH1 0x40 DUP3 ADD SWAP1 POP DUP2 DUP2 SUB PUSH0 DUP4 ADD MSTORE PUSH2 0xC01 DUP2 DUP6 PUSH2 0x8F6 JUMP JUMPDEST SWAP1 POP DUP2 DUP2 SUB PUSH1 0x20 DUP4 ADD MSTORE PUSH2 0xC15 DUP2 DUP5 PUSH2 0x8F6 JUMP JUMPDEST SWAP1 POP SWAP4 SWAP3 POP POP POP JUMP JUMPDEST PUSH2 0xC27 DUP2 PUSH2 0x92E JUMP JUMPDEST DUP2 EQ PUSH2 0xC31 JUMPI PUSH0 DUP1 REVERT JUMPDEST POP JUMP JUMPDEST PUSH0 DUP2 CALLDATALOAD SWAP1 POP PUSH2 0xC42 DUP2 PUSH2 0xC1E JUMP JUMPDEST SWAP3 SWAP2 POP POP JUMP JUMPDEST PUSH0 DUP1 PUSH0 PUSH1 0x60 DUP5 DUP7 SUB SLT ISZERO PUSH2 0xC5F JUMPI PUSH2 0xC5E PUSH2 0xA1F JUMP JUMPDEST JUMPDEST PUSH0 DUP5 ADD CALLDATALOAD PUSH8 0xFFFFFFFFFFFFFFFF DUP2 GT ISZERO PUSH2 0xC7C JUMPI PUSH2 0xC7B PUSH2 0xA23 JUMP JUMPDEST JUMPDEST PUSH2 0xC88 DUP7 DUP3 DUP8 ADD PUSH2 0xB26 JUMP JUMPDEST SWAP4 POP POP PUSH1 0x20 PUSH2 0xC99 DUP7 DUP3 DUP8 ADD PUSH2 0xC34 JUMP JUMPDEST SWAP3 POP POP PUSH1 0x40 PUSH2 0xCAA DUP7 DUP3 DUP8 ADD PUSH2 0xC34 JUMP JUMPDEST SWAP2 POP POP SWAP3 POP SWAP3 POP SWAP3 JUMP JUMPDEST PUSH32 0x4E487B7100000000000000000000000000000000000000000000000000000000 PUSH0 MSTORE PUSH1 0x22 PUSH1 0x4 MSTORE PUSH1 0x24 PUSH0 REVERT JUMPDEST PUSH0 PUSH1 0x2 DUP3 DIV SWAP1 POP PUSH1 0x1 DUP3 AND DUP1 PUSH2 0xCF8 JUMPI PUSH1 0x7F DUP3 AND SWAP2 POP JUMPDEST PUSH1 0x20 DUP3 LT DUP2 SUB PUSH2 0xD0B JUMPI PUSH2 0xD0A PUSH2 0xCB4 JUMP JUMPDEST JUMPDEST POP SWAP2 SWAP1 POP JUMP JUMPDEST PUSH0 DUP2 SWAP1 POP DUP2 PUSH0 MSTORE PUSH1 0x20 PUSH0 KECCAK256 SWAP1 POP SWAP2 SWAP1 POP JUMP JUMPDEST PUSH0 PUSH1 0x20 PUSH1 0x1F DUP4 ADD DIV SWAP1 POP SWAP2 SWAP1 POP JUMP JUMPDEST PUSH0 DUP3 DUP3 SHL SWAP1 POP SWAP3 SWAP2 POP POP JUMP JUMPDEST PUSH0 PUSH1 0x8 DUP4 MUL PUSH2 0xD6D PUSH32 0xFFFFFFFFFFFFFFFFFFFFFFFFFFFFFFFFFFFFFFFFFFFFFFFFFFFFFFFFFFFFFFFF DUP3 PUSH2 0xD32 JUMP JUMPDEST PUSH2 0xD77 DUP7 DUP4 PUSH2 0xD32 JUMP JUMPDEST SWAP6 POP DUP1 NOT DUP5 AND SWAP4 POP DUP1 DUP7 AND DUP5 OR SWAP3 POP POP POP SWAP4 SWAP3 POP POP POP JUMP JUMPDEST PUSH0 DUP2 SWAP1 POP SWAP2 SWAP1 POP JUMP JUMPDEST PUSH0 PUSH2 0xDB2 PUSH2 0xDAD PUSH2 0xDA8 DUP5 PUSH2 0x92E JUMP JUMPDEST PUSH2 0xD8F JUMP JUMPDEST PUSH2 0x92E JUMP JUMPDEST SWAP1 POP SWAP2 SWAP1 POP JUMP JUMPDEST PUSH0 DUP2 SWAP1 POP SWAP2 SWAP1 POP JUMP JUMPDEST PUSH2 0xDCB DUP4 PUSH2 0xD98 JUMP JUMPDEST PUSH2 0xDDF PUSH2 0xDD7 DUP3 PUSH2 0xDB9 JUMP JUMPDEST DUP5 DUP5 SLOAD PUSH2 0xD3E JUMP JUMPDEST DUP3 SSTORE POP POP POP POP JUMP JUMPDEST PUSH0 SWAP1 JUMP JUMPDEST PUSH2 0xDF3 PUSH2 0xDE7 JUMP JUMPDEST PUSH2 0xDFE DUP2 DUP5 DUP5 PUSH2 0xDC2 JUMP JUMPDEST POP POP POP JUMP JUMPDEST JUMPDEST DUP2 DUP2 LT ISZERO PUSH2 0xE21 JUMPI PUSH2 0xE16 PUSH0 DUP3 PUSH2 0xDEB JUMP JUMPDEST PUSH1 0x1 DUP2 ADD SWAP1 POP PUSH2 0xE04 JUMP JUMPDEST POP POP JUMP JUMPDEST PUSH1 0x1F DUP3 GT ISZERO PUSH2 0xE66 JUMPI PUSH2 0xE37 DUP2 PUSH2 0xD11 JUMP JUMPDEST PUSH2 0xE40 DUP5 PUSH2 0xD23 JUMP JUMPDEST DUP2 ADD PUSH1 0x20 DUP6 LT ISZERO PUSH2 0xE4F JUMPI DUP2 SWAP1 POP JUMPDEST PUSH2 0xE63 PUSH2 0xE5B DUP6 PUSH2 0xD23 JUMP JUMPDEST DUP4 ADD DUP3 PUSH2 0xE03 JUMP JUMPDEST POP POP JUMPDEST POP POP POP JUMP JUMPDEST PUSH0 DUP3 DUP3 SHR SWAP1 POP SWAP3 SWAP2 POP POP JUMP JUMPDEST PUSH0 PUSH2 0xE86 PUSH0 NOT DUP5 PUSH1 0x8 MUL PUSH2 0xE6B JUMP JUMPDEST NOT DUP1 DUP4 AND SWAP2 POP POP SWAP3 SWAP2 POP POP JUMP JUMPDEST PUSH0 PUSH2 0xE9E DUP4 DUP4 PUSH2 0xE77 JUMP JUMPDEST SWAP2 POP DUP3 PUSH1 0x2 MUL DUP3 OR SWAP1 POP SWAP3 SWAP2 POP POP JUMP JUMPDEST PUSH2 0xEB7 DUP3 PUSH2 0x8BE JUMP JUMPDEST PUSH8 0xFFFFFFFFFFFFFFFF DUP2 GT ISZERO PUSH2 0xED0 JUMPI PUSH2 0xECF PUSH2 0xA2F JUMP JUMPDEST JUMPDEST PUSH2 0xEDA DUP3 SLOAD PUSH2 0xCE1 JUMP JUMPDEST PUSH2 0xEE5 DUP3 DUP3 DUP6 PUSH2 0xE25 JUMP JUMPDEST PUSH0 PUSH1 0x20 SWAP1 POP PUSH1 0x1F DUP4 GT PUSH1 0x1 DUP2 EQ PUSH2 0xF16 JUMPI PUSH0 DUP5 ISZERO PUSH2 0xF04 JUMPI DUP3 DUP8 ADD MLOAD SWAP1 POP JUMPDEST PUSH2 0xF0E DUP6 DUP3 PUSH2 0xE93 JUMP JUMPDEST DUP7 SSTORE POP PUSH2 0xF75 JUMP JUMPDEST PUSH1 0x1F NOT DUP5 AND PUSH2 0xF24 DUP7 PUSH2 0xD11 JUMP JUMPDEST PUSH0 JUMPDEST DUP3 DUP2 LT ISZERO PUSH2 0xF4B JUMPI DUP5 DUP10 ADD MLOAD DUP3 SSTORE PUSH1 0x1 DUP3 ADD SWAP2 POP PUSH1 0x20 DUP6 ADD SWAP5 POP PUSH1 0x20 DUP2 ADD SWAP1 POP PUSH2 0xF26 JUMP JUMPDEST DUP7 DUP4 LT ISZERO PUSH2 0xF68 JUMPI DUP5 DUP10 ADD MLOAD PUSH2 0xF64 PUSH1 0x1F DUP10 AND DUP3 PUSH2 0xE77 JUMP JUMPDEST DUP4 SSTORE POP JUMPDEST PUSH1 0x1 PUSH1 0x2 DUP9 MUL ADD DUP9 SSTORE POP POP POP JUMPDEST POP POP POP POP POP POP JUMP INVALID LOG2 PUSH5 0x6970667358 0x22 SLT KECCAK256 0xD3 0x4E SWAP5 0x28 PUSH12 0x3F8F8958C9FEE320395B7DD0 0xE CODESIZE SELFBALANCE STOP CALLDATASIZE 0xD7 SWAP15 0xDF LOG2 0x1F EXTCODESIZE 0x23 MCOPY 0xEF DUP6 PUSH5 0x736F6C6343 STOP ADDMOD BYTE STOP CALLER "
		},
		"gasEstimates": {
			"creation": {
				"codeDepositCost": "803800",
				"executionCost": "infinite",
				"totalCost": "infinite"
			},
			"external": {
				"CollegeCode()": "2425",
				"CollegeName()": "infinite",
				"Marks()": "2470",
				"deptHead()": "infinite",
				"deptName()": "infinite",
				"display()": "infinite",
				"displayDepartment()": "infinite",
				"getReportCard()": "infinite",
				"regNo()": "2492",
				"setDepartmentDetails(string,string)": "infinite",
				"setStudentDetails(string,uint256,uint256)": "infinite",
				"studentName()": "infinite"
			}
		},
		"methodIdentifiers": {
			"CollegeCode()": "75d88032",
			"CollegeName()": "75cda915",
			"Marks()": "4ed5a232",
			"deptHead()": "eb96548f",
			"deptName()": "b975abb3",
			"display()": "0c1b7c1e",
			"displayDepartment()": "766ccbc7",
			"getReportCard()": "051f855e",
			"regNo()": "6ef9a278",
			"setDepartmentDetails(string,string)": "735f5aec",
			"setStudentDetails(string,uint256,uint256)": "f1548ad2",
			"studentName()": "b508ba31"
		}
	},
	"abi": [
		{
			"inputs": [
				{
					"internalType": "string",
					"name": "_collegeName",
					"type": "string"
				},
				{
					"internalType": "uint256",
					"name": "_collegeCode",
					"type": "uint256"
				},
				{
					"internalType": "string",
					"name": "_deptName",
					"type": "string"
				},
				{
					"internalType": "string",
					"name": "_deptHead",
					"type": "string"
				},
				{
					"internalType": "string",
					"name": "_studentName",
					"type": "string"
				},
				{
					"internalType": "uint256",
					"name": "_regNo",
					"type": "uint256"
				},
				{
					"internalType": "uint256",
					"name": "_marks",
					"type": "uint256"
				}
			],
			"stateMutability": "nonpayable",
			"type": "constructor"
		},
		{
			"inputs": [],
			"name": "CollegeCode",
			"outputs": [
				{
					"internalType": "uint256",
					"name": "",
					"type": "uint256"
				}
			],
			"stateMutability": "view",
			"type": "function"
		},
		{
			"inputs": [],
			"name": "CollegeName",
			"outputs": [
				{
					"internalType": "string",
					"name": "",
					"type": "string"
				}
			],
			"stateMutability": "view",
			"type": "function"
		},
		{
			"inputs": [],
			"name": "Marks",
			"outputs": [
				{
					"internalType": "uint256",
					"name": "",
					"type": "uint256"
				}
			],
			"stateMutability": "view",
			"type": "function"
		},
		{
			"inputs": [],
			"name": "deptHead",
			"outputs": [
				{
					"internalType": "string",
					"name": "",
					"type": "string"
				}
			],
			"stateMutability": "view",
			"type": "function"
		},
		{
			"inputs": [],
			"name": "deptName",
			"outputs": [
				{
					"internalType": "string",
					"name": "",
					"type": "string"
				}
			],
			"stateMutability": "view",
			"type": "function"
		},
		{
			"inputs": [],
			"name": "display",
			"outputs": [
				{
					"internalType": "string",
					"name": "",
					"type": "string"
				},
				{
					"internalType": "uint256",
					"name": "",
					"type": "uint256"
				}
			],
			"stateMutability": "view",
			"type": "function"
		},
		{
			"inputs": [],
			"name": "displayDepartment",
			"outputs": [
				{
					"internalType": "string",
					"name": "",
					"type": "string"
				},
				{
					"internalType": "string",
					"name": "",
					"type": "string"
				}
			],
			"stateMutability": "view",
			"type": "function"
		},
		{
			"inputs": [],
			"name": "getReportCard",
			"outputs": [
				{
					"internalType": "string",
					"name": "collegeName",
					"type": "string"
				},
				{
					"internalType": "uint256",
					"name": "collegeCode",
					"type": "uint256"
				},
				{
					"internalType": "string",
					"name": "departmentName",
					"type": "string"
				},
				{
					"internalType": "string",
					"name": "departmentHead",
					"type": "string"
				},
				{
					"internalType": "string",
					"name": "sName",
					"type": "string"
				},
				{
					"internalType": "uint256",
					"name": "registrationNo",
					"type": "uint256"
				},
				{
					"internalType": "uint256",
					"name": "marks",
					"type": "uint256"
				}
			],
			"stateMutability": "view",
			"type": "function"
		},
		{
			"inputs": [],
			"name": "regNo",
			"outputs": [
				{
					"internalType": "uint256",
					"name": "",
					"type": "uint256"
				}
			],
			"stateMutability": "view",
			"type": "function"
		},
		{
			"inputs": [
				{
					"internalType": "string",
					"name": "_deptName",
					"type": "string"
				},
				{
					"internalType": "string",
					"name": "_deptHead",
					"type": "string"
				}
			],
			"name": "setDepartmentDetails",
			"outputs": [],
			"stateMutability": "nonpayable",
			"type": "function"
		},
		{
			"inputs": [
				{
					"internalType": "string",
					"name": "_studentName",
					"type": "string"
				},
				{
					"internalType": "uint256",
					"name": "_regNo",
					"type": "uint256"
				},
				{
					"internalType": "uint256",
					"name": "_marks",
					"type": "uint256"
				}
			],
			"name": "setStudentDetails",
			"outputs": [],
			"stateMutability": "nonpayable",
			"type": "function"
		},
		{
			"inputs": [],
			"name": "studentName",
			"outputs": [
				{
					"internalType": "string",
					"name": "",
					"type": "string"
				}
			],
			"stateMutability": "view",
			"type": "function"
		}
	]
}