{
	"Day03/d3p3.sol": {
		"Triangle": {
			"abi": [
				{
					"inputs": [
						{
							"internalType": "int256",
							"name": "a",
							"type": "int256"
						},
						{
							"internalType": "int256",
							"name": "b",
							"type": "int256"
						},
						{
							"internalType": "int256",
							"name": "c",
							"type": "int256"
						}
					],
					"name": "calculateArea",
					"outputs": [
						{
							"internalType": "string",
							"name": "",
							"type": "string"
						}
					],
					"stateMutability": "pure",
					"type": "function"
				},
				{
					"inputs": [
						{
							"internalType": "int256",
							"name": "a",
							"type": "int256"
						},
						{
							"internalType": "int256",
							"name": "b",
							"type": "int256"
						},
						{
							"internalType": "int256",
							"name": "c",
							"type": "int256"
						}
					],
					"name": "findType",
					"outputs": [
						{
							"internalType": "string",
							"name": "",
							"type": "string"
						}
					],
					"stateMutability": "pure",
					"type": "function"
				},
				{
					"inputs": [
						{
							"internalType": "int256",
							"name": "a",
							"type": "int256"
						},
						{
							"internalType": "int256",
							"name": "b",
							"type": "int256"
						},
						{
							"internalType": "int256",
							"name": "c",
							"type": "int256"
						}
					],
					"name": "isValidTriangle",
					"outputs": [
						{
							"internalType": "bool",
							"name": "",
							"type": "bool"
						}
					],
					"stateMutability": "pure",
					"type": "function"
				}
			],
			"devdoc": {
				"kind": "dev",
				"methods": {},
				"version": 1
			},
			"evm": {
				"assembly": "    /* \"Day03/d3p3.sol\":70:1983  contract Triangle {... */\n  mstore(0x40, 0x80)\n  callvalue\n  dup1\n  iszero\n  tag_1\n  jumpi\n  0x00\n  dup1\n  revert\ntag_1:\n  pop\n  dataSize(sub_0)\n  dup1\n  dataOffset(sub_0)\n  0x00\n  codecopy\n  0x00\n  return\nstop\n\nsub_0: assembly {\n        /* \"Day03/d3p3.sol\":70:1983  contract Triangle {... */\n      mstore(0x40, 0x80)\n      callvalue\n      dup1\n      iszero\n      tag_1\n      jumpi\n      0x00\n      dup1\n      revert\n    tag_1:\n      pop\n      jumpi(tag_2, lt(calldatasize, 0x04))\n      shr(0xe0, calldataload(0x00))\n      dup1\n      0x31df7cc8\n      eq\n      tag_3\n      jumpi\n      dup1\n      0x951723aa\n      eq\n      tag_4\n      jumpi\n      dup1\n      0xbea88988\n      eq\n      tag_5\n      jumpi\n    tag_2:\n      0x00\n      dup1\n      revert\n        /* \"Day03/d3p3.sol\":158:294  function isValidTriangle(int a, int b, int c) public pure returns (bool) {... */\n    tag_3:\n      tag_6\n      0x04\n      dup1\n      calldatasize\n      sub\n      dup2\n      add\n      swap1\n      tag_7\n      swap2\n      swap1\n      tag_8\n      jump\t// in\n    tag_7:\n      tag_9\n      jump\t// in\n    tag_6:\n      mload(0x40)\n      tag_10\n      swap2\n      swap1\n      tag_11\n      jump\t// in\n    tag_10:\n      mload(0x40)\n      dup1\n      swap2\n      sub\n      swap1\n      return\n        /* \"Day03/d3p3.sol\":1218:1980  function calculateArea(int a, int b, int c) public pure returns (string memory) {... */\n    tag_4:\n      tag_12\n      0x04\n      dup1\n      calldatasize\n      sub\n      dup2\n      add\n      swap1\n      tag_13\n      swap2\n      swap1\n      tag_8\n      jump\t// in\n    tag_13:\n      tag_14\n      jump\t// in\n    tag_12:\n      mload(0x40)\n      tag_15\n      swap2\n      swap1\n      tag_16\n      jump\t// in\n    tag_15:\n      mload(0x40)\n      dup1\n      swap2\n      sub\n      swap1\n      return\n        /* \"Day03/d3p3.sol\":352:1133  function findType(int a, int b, int c) public pure returns (string memory) {... */\n    tag_5:\n      tag_17\n      0x04\n      dup1\n      calldatasize\n      sub\n      dup2\n      add\n      swap1\n      tag_18\n      swap2\n      swap1\n      tag_8\n      jump\t// in\n    tag_18:\n      tag_19\n      jump\t// in\n    tag_17:\n      mload(0x40)\n      tag_20\n      swap2\n      swap1\n      tag_16\n      jump\t// in\n    tag_20:\n      mload(0x40)\n      dup1\n      swap2\n      sub\n      swap1\n      return\n        /* \"Day03/d3p3.sol\":158:294  function isValidTriangle(int a, int b, int c) public pure returns (bool) {... */\n    tag_9:\n        /* \"Day03/d3p3.sol\":225:229  bool */\n      0x00\n        /* \"Day03/d3p3.sol\":258:259  c */\n      dup2\n        /* \"Day03/d3p3.sol\":254:255  b */\n      dup4\n        /* \"Day03/d3p3.sol\":250:251  a */\n      dup6\n        /* \"Day03/d3p3.sol\":250:255  a + b */\n      tag_22\n      swap2\n      swap1\n      tag_23\n      jump\t// in\n    tag_22:\n        /* \"Day03/d3p3.sol\":250:259  a + b > c */\n      sgt\n        /* \"Day03/d3p3.sol\":250:272  a + b > c && a + c > b */\n      dup1\n      iszero\n      tag_24\n      jumpi\n      pop\n        /* \"Day03/d3p3.sol\":271:272  b */\n      dup3\n        /* \"Day03/d3p3.sol\":267:268  c */\n      dup3\n        /* \"Day03/d3p3.sol\":263:264  a */\n      dup6\n        /* \"Day03/d3p3.sol\":263:268  a + c */\n      tag_25\n      swap2\n      swap1\n      tag_23\n      jump\t// in\n    tag_25:\n        /* \"Day03/d3p3.sol\":263:272  a + c > b */\n      sgt\n        /* \"Day03/d3p3.sol\":250:272  a + b > c && a + c > b */\n    tag_24:\n        /* \"Day03/d3p3.sol\":250:285  a + b > c && a + c > b && b + c > a */\n      dup1\n      iszero\n      tag_26\n      jumpi\n      pop\n        /* \"Day03/d3p3.sol\":284:285  a */\n      dup4\n        /* \"Day03/d3p3.sol\":280:281  c */\n      dup3\n        /* \"Day03/d3p3.sol\":276:277  b */\n      dup5\n        /* \"Day03/d3p3.sol\":276:281  b + c */\n      tag_27\n      swap2\n      swap1\n      tag_23\n      jump\t// in\n    tag_27:\n        /* \"Day03/d3p3.sol\":276:285  b + c > a */\n      sgt\n        /* \"Day03/d3p3.sol\":250:285  a + b > c && a + c > b && b + c > a */\n    tag_26:\n        /* \"Day03/d3p3.sol\":242:286  return (a + b > c && a + c > b && b + c > a) */\n      swap1\n      pop\n        /* \"Day03/d3p3.sol\":158:294  function isValidTriangle(int a, int b, int c) public pure returns (bool) {... */\n      swap4\n      swap3\n      pop\n      pop\n      pop\n      jump\t// out\n        /* \"Day03/d3p3.sol\":1218:1980  function calculateArea(int a, int b, int c) public pure returns (string memory) {... */\n    tag_14:\n        /* \"Day03/d3p3.sol\":1283:1296  string memory */\n      0x60\n        /* \"Day03/d3p3.sol\":1314:1338  isValidTriangle(a, b, c) */\n      tag_29\n        /* \"Day03/d3p3.sol\":1330:1331  a */\n      dup5\n        /* \"Day03/d3p3.sol\":1333:1334  b */\n      dup5\n        /* \"Day03/d3p3.sol\":1336:1337  c */\n      dup5\n        /* \"Day03/d3p3.sol\":1314:1329  isValidTriangle */\n      tag_9\n        /* \"Day03/d3p3.sol\":1314:1338  isValidTriangle(a, b, c) */\n      jump\t// in\n    tag_29:\n        /* \"Day03/d3p3.sol\":1309:1396  if (!isValidTriangle(a, b, c)) {... */\n      tag_30\n      jumpi\n        /* \"Day03/d3p3.sol\":1355:1384  return \"Not a valid triangle\" */\n      mload(0x40)\n      dup1\n      0x40\n      add\n      0x40\n      mstore\n      dup1\n      0x14\n      dup2\n      mstore\n      0x20\n      add\n      0x4e6f7420612076616c696420747269616e676c65000000000000000000000000\n      dup2\n      mstore\n      pop\n      swap1\n      pop\n      jump(tag_28)\n        /* \"Day03/d3p3.sol\":1309:1396  if (!isValidTriangle(a, b, c)) {... */\n    tag_30:\n        /* \"Day03/d3p3.sol\":1449:1454  int s */\n      0x00\n        /* \"Day03/d3p3.sol\":1471:1472  2 */\n      0x02\n        /* \"Day03/d3p3.sol\":1466:1467  c */\n      dup4\n        /* \"Day03/d3p3.sol\":1462:1463  b */\n      dup6\n        /* \"Day03/d3p3.sol\":1458:1459  a */\n      dup8\n        /* \"Day03/d3p3.sol\":1458:1463  a + b */\n      tag_31\n      swap2\n      swap1\n      tag_23\n      jump\t// in\n    tag_31:\n        /* \"Day03/d3p3.sol\":1458:1467  a + b + c */\n      tag_32\n      swap2\n      swap1\n      tag_23\n      jump\t// in\n    tag_32:\n        /* \"Day03/d3p3.sol\":1457:1472  (a + b + c) / 2 */\n      tag_33\n      swap2\n      swap1\n      tag_34\n      jump\t// in\n    tag_33:\n        /* \"Day03/d3p3.sol\":1449:1472  int s = (a + b + c) / 2 */\n      swap1\n      pop\n        /* \"Day03/d3p3.sol\":1665:1680  int areaSquared */\n      0x00\n        /* \"Day03/d3p3.sol\":1712:1713  c */\n      dup4\n        /* \"Day03/d3p3.sol\":1708:1709  s */\n      dup3\n        /* \"Day03/d3p3.sol\":1708:1713  s - c */\n      tag_35\n      swap2\n      swap1\n      tag_36\n      jump\t// in\n    tag_35:\n        /* \"Day03/d3p3.sol\":1702:1703  b */\n      dup6\n        /* \"Day03/d3p3.sol\":1698:1699  s */\n      dup4\n        /* \"Day03/d3p3.sol\":1698:1703  s - b */\n      tag_37\n      swap2\n      swap1\n      tag_36\n      jump\t// in\n    tag_37:\n        /* \"Day03/d3p3.sol\":1692:1693  a */\n      dup8\n        /* \"Day03/d3p3.sol\":1688:1689  s */\n      dup5\n        /* \"Day03/d3p3.sol\":1688:1693  s - a */\n      tag_38\n      swap2\n      swap1\n      tag_36\n      jump\t// in\n    tag_38:\n        /* \"Day03/d3p3.sol\":1683:1684  s */\n      dup5\n        /* \"Day03/d3p3.sol\":1683:1694  s * (s - a) */\n      tag_39\n      swap2\n      swap1\n      tag_40\n      jump\t// in\n    tag_39:\n        /* \"Day03/d3p3.sol\":1683:1704  s * (s - a) * (s - b) */\n      tag_41\n      swap2\n      swap1\n      tag_40\n      jump\t// in\n    tag_41:\n        /* \"Day03/d3p3.sol\":1683:1714  s * (s - a) * (s - b) * (s - c) */\n      tag_42\n      swap2\n      swap1\n      tag_40\n      jump\t// in\n    tag_42:\n        /* \"Day03/d3p3.sol\":1665:1714  int areaSquared = s * (s - a) * (s - b) * (s - c) */\n      swap1\n      pop\n        /* \"Day03/d3p3.sol\":1816:1817  0 */\n      0x00\n        /* \"Day03/d3p3.sol\":1802:1813  areaSquared */\n      dup2\n        /* \"Day03/d3p3.sol\":1802:1817  areaSquared < 0 */\n      slt\n        /* \"Day03/d3p3.sol\":1798:1867  if (areaSquared < 0) {... */\n      iszero\n      tag_43\n      jumpi\n        /* \"Day03/d3p3.sol\":1834:1855  return \"Invalid area\" */\n      mload(0x40)\n      dup1\n      0x40\n      add\n      0x40\n      mstore\n      dup1\n      0x0c\n      dup2\n      mstore\n      0x20\n      add\n      0x496e76616c696420617265610000000000000000000000000000000000000000\n      dup2\n      mstore\n      pop\n      swap3\n      pop\n      pop\n      pop\n      jump(tag_28)\n        /* \"Day03/d3p3.sol\":1798:1867  if (areaSquared < 0) {... */\n    tag_43:\n        /* \"Day03/d3p3.sol\":1893:1971  abi.encodePacked(\"Area can't be exactly calculated in Solidity with integers\") */\n      add(0x20, mload(0x40))\n      tag_44\n      swap1\n      tag_45\n      jump\t// in\n    tag_44:\n      mload(0x40)\n      0x20\n      dup2\n      dup4\n      sub\n      sub\n      dup2\n      mstore\n      swap1\n      0x40\n      mstore\n        /* \"Day03/d3p3.sol\":1879:1972  return string(abi.encodePacked(\"Area can't be exactly calculated in Solidity with integers\")) */\n      swap3\n      pop\n      pop\n      pop\n        /* \"Day03/d3p3.sol\":1218:1980  function calculateArea(int a, int b, int c) public pure returns (string memory) {... */\n    tag_28:\n      swap4\n      swap3\n      pop\n      pop\n      pop\n      jump\t// out\n        /* \"Day03/d3p3.sol\":352:1133  function findType(int a, int b, int c) public pure returns (string memory) {... */\n    tag_19:\n        /* \"Day03/d3p3.sol\":412:425  string memory */\n      0x60\n        /* \"Day03/d3p3.sol\":443:467  isValidTriangle(a, b, c) */\n      tag_47\n        /* \"Day03/d3p3.sol\":459:460  a */\n      dup5\n        /* \"Day03/d3p3.sol\":462:463  b */\n      dup5\n        /* \"Day03/d3p3.sol\":465:466  c */\n      dup5\n        /* \"Day03/d3p3.sol\":443:458  isValidTriangle */\n      tag_9\n        /* \"Day03/d3p3.sol\":443:467  isValidTriangle(a, b, c) */\n      jump\t// in\n    tag_47:\n        /* \"Day03/d3p3.sol\":438:525  if (!isValidTriangle(a, b, c)) {... */\n      tag_48\n      jumpi\n        /* \"Day03/d3p3.sol\":484:513  return \"Not a valid triangle\" */\n      mload(0x40)\n      dup1\n      0x40\n      add\n      0x40\n      mstore\n      dup1\n      0x14\n      dup2\n      mstore\n      0x20\n      add\n      0x4e6f7420612076616c696420747269616e676c65000000000000000000000000\n      dup2\n      mstore\n      pop\n      swap1\n      pop\n      jump(tag_46)\n        /* \"Day03/d3p3.sol\":438:525  if (!isValidTriangle(a, b, c)) {... */\n    tag_48:\n        /* \"Day03/d3p3.sol\":580:581  b */\n      dup3\n        /* \"Day03/d3p3.sol\":575:576  a */\n      dup5\n        /* \"Day03/d3p3.sol\":575:581  a == b */\n      eq\n        /* \"Day03/d3p3.sol\":575:591  a == b && b == c */\n      dup1\n      iszero\n      tag_49\n      jumpi\n      pop\n        /* \"Day03/d3p3.sol\":590:591  c */\n      dup2\n        /* \"Day03/d3p3.sol\":585:586  b */\n      dup4\n        /* \"Day03/d3p3.sol\":585:591  b == c */\n      eq\n        /* \"Day03/d3p3.sol\":575:591  a == b && b == c */\n    tag_49:\n        /* \"Day03/d3p3.sol\":571:884  if (a == b && b == c) {... */\n      iszero\n      tag_50\n      jumpi\n        /* \"Day03/d3p3.sol\":608:628  return \"Equilateral\" */\n      mload(0x40)\n      dup1\n      0x40\n      add\n      0x40\n      mstore\n      dup1\n      0x0b\n      dup2\n      mstore\n      0x20\n      add\n      0x457175696c61746572616c000000000000000000000000000000000000000000\n      dup2\n      mstore\n      pop\n      swap1\n      pop\n      jump(tag_46)\n        /* \"Day03/d3p3.sol\":571:884  if (a == b && b == c) {... */\n    tag_50:\n        /* \"Day03/d3p3.sol\":696:697  b */\n      dup3\n        /* \"Day03/d3p3.sol\":691:692  a */\n      dup5\n        /* \"Day03/d3p3.sol\":691:697  a == b */\n      eq\n        /* \"Day03/d3p3.sol\":691:707  a == b || b == c */\n      dup1\n      tag_52\n      jumpi\n      pop\n        /* \"Day03/d3p3.sol\":706:707  c */\n      dup2\n        /* \"Day03/d3p3.sol\":701:702  b */\n      dup4\n        /* \"Day03/d3p3.sol\":701:707  b == c */\n      eq\n        /* \"Day03/d3p3.sol\":691:707  a == b || b == c */\n    tag_52:\n        /* \"Day03/d3p3.sol\":691:717  a == b || b == c || a == c */\n      dup1\n      tag_53\n      jumpi\n      pop\n        /* \"Day03/d3p3.sol\":716:717  c */\n      dup2\n        /* \"Day03/d3p3.sol\":711:712  a */\n      dup5\n        /* \"Day03/d3p3.sol\":711:717  a == c */\n      eq\n        /* \"Day03/d3p3.sol\":691:717  a == b || b == c || a == c */\n    tag_53:\n        /* \"Day03/d3p3.sol\":687:884  if (a == b || b == c || a == c) {... */\n      iszero\n      tag_54\n      jumpi\n        /* \"Day03/d3p3.sol\":734:752  return \"Isosceles\" */\n      mload(0x40)\n      dup1\n      0x40\n      add\n      0x40\n      mstore\n      dup1\n      0x09\n      dup2\n      mstore\n      0x20\n      add\n      0x49736f7363656c65730000000000000000000000000000000000000000000000\n      dup2\n      mstore\n      pop\n      swap1\n      pop\n      jump(tag_46)\n        /* \"Day03/d3p3.sol\":687:884  if (a == b || b == c || a == c) {... */\n    tag_54:\n        /* \"Day03/d3p3.sol\":818:819  b */\n      dup3\n        /* \"Day03/d3p3.sol\":813:814  a */\n      dup5\n        /* \"Day03/d3p3.sol\":813:819  a != b */\n      eq\n      iszero\n        /* \"Day03/d3p3.sol\":813:829  a != b && b != c */\n      dup1\n      iszero\n      tag_56\n      jumpi\n      pop\n        /* \"Day03/d3p3.sol\":828:829  c */\n      dup2\n        /* \"Day03/d3p3.sol\":823:824  b */\n      dup4\n        /* \"Day03/d3p3.sol\":823:829  b != c */\n      eq\n      iszero\n        /* \"Day03/d3p3.sol\":813:829  a != b && b != c */\n    tag_56:\n        /* \"Day03/d3p3.sol\":813:839  a != b && b != c && a != c */\n      dup1\n      iszero\n      tag_57\n      jumpi\n      pop\n        /* \"Day03/d3p3.sol\":838:839  c */\n      dup2\n        /* \"Day03/d3p3.sol\":833:834  a */\n      dup5\n        /* \"Day03/d3p3.sol\":833:839  a != c */\n      eq\n      iszero\n        /* \"Day03/d3p3.sol\":813:839  a != b && b != c && a != c */\n    tag_57:\n        /* \"Day03/d3p3.sol\":809:884  if (a != b && b != c && a != c) {... */\n      iszero\n      tag_58\n      jumpi\n        /* \"Day03/d3p3.sol\":856:872  return \"Scalene\" */\n      mload(0x40)\n      dup1\n      0x40\n      add\n      0x40\n      mstore\n      dup1\n      0x07\n      dup2\n      mstore\n      0x20\n      add\n      0x5363616c656e6500000000000000000000000000000000000000000000000000\n      dup2\n      mstore\n      pop\n      swap1\n      pop\n      jump(tag_46)\n        /* \"Day03/d3p3.sol\":809:884  if (a != b && b != c && a != c) {... */\n    tag_58:\n        /* \"Day03/d3p3.sol\":987:988  c */\n      dup2\n        /* \"Day03/d3p3.sol\":983:984  c */\n      dup3\n        /* \"Day03/d3p3.sol\":983:988  c * c */\n      tag_59\n      swap2\n      swap1\n      tag_40\n      jump\t// in\n    tag_59:\n        /* \"Day03/d3p3.sol\":978:979  b */\n      dup4\n        /* \"Day03/d3p3.sol\":974:975  b */\n      dup5\n        /* \"Day03/d3p3.sol\":974:979  b * b */\n      tag_60\n      swap2\n      swap1\n      tag_40\n      jump\t// in\n    tag_60:\n        /* \"Day03/d3p3.sol\":970:971  a */\n      dup6\n        /* \"Day03/d3p3.sol\":966:967  a */\n      dup7\n        /* \"Day03/d3p3.sol\":966:971  a * a */\n      tag_61\n      swap2\n      swap1\n      tag_40\n      jump\t// in\n    tag_61:\n        /* \"Day03/d3p3.sol\":966:979  a * a + b * b */\n      tag_62\n      swap2\n      swap1\n      tag_23\n      jump\t// in\n    tag_62:\n        /* \"Day03/d3p3.sol\":966:988  a * a + b * b == c * c */\n      eq\n        /* \"Day03/d3p3.sol\":966:1014  a * a + b * b == c * c || a * a + c * c == b * b */\n      dup1\n      tag_63\n      jumpi\n      pop\n        /* \"Day03/d3p3.sol\":1013:1014  b */\n      dup3\n        /* \"Day03/d3p3.sol\":1009:1010  b */\n      dup4\n        /* \"Day03/d3p3.sol\":1009:1014  b * b */\n      tag_64\n      swap2\n      swap1\n      tag_40\n      jump\t// in\n    tag_64:\n        /* \"Day03/d3p3.sol\":1004:1005  c */\n      dup3\n        /* \"Day03/d3p3.sol\":1000:1001  c */\n      dup4\n        /* \"Day03/d3p3.sol\":1000:1005  c * c */\n      tag_65\n      swap2\n      swap1\n      tag_40\n      jump\t// in\n    tag_65:\n        /* \"Day03/d3p3.sol\":996:997  a */\n      dup6\n        /* \"Day03/d3p3.sol\":992:993  a */\n      dup7\n        /* \"Day03/d3p3.sol\":992:997  a * a */\n      tag_66\n      swap2\n      swap1\n      tag_40\n      jump\t// in\n    tag_66:\n        /* \"Day03/d3p3.sol\":992:1005  a * a + c * c */\n      tag_67\n      swap2\n      swap1\n      tag_23\n      jump\t// in\n    tag_67:\n        /* \"Day03/d3p3.sol\":992:1014  a * a + c * c == b * b */\n      eq\n        /* \"Day03/d3p3.sol\":966:1014  a * a + b * b == c * c || a * a + c * c == b * b */\n    tag_63:\n        /* \"Day03/d3p3.sol\":966:1040  a * a + b * b == c * c || a * a + c * c == b * b || b * b + c * c == a * a */\n      dup1\n      tag_68\n      jumpi\n      pop\n        /* \"Day03/d3p3.sol\":1039:1040  a */\n      dup4\n        /* \"Day03/d3p3.sol\":1035:1036  a */\n      dup5\n        /* \"Day03/d3p3.sol\":1035:1040  a * a */\n      tag_69\n      swap2\n      swap1\n      tag_40\n      jump\t// in\n    tag_69:\n        /* \"Day03/d3p3.sol\":1030:1031  c */\n      dup3\n        /* \"Day03/d3p3.sol\":1026:1027  c */\n      dup4\n        /* \"Day03/d3p3.sol\":1026:1031  c * c */\n      tag_70\n      swap2\n      swap1\n      tag_40\n      jump\t// in\n    tag_70:\n        /* \"Day03/d3p3.sol\":1022:1023  b */\n      dup5\n        /* \"Day03/d3p3.sol\":1018:1019  b */\n      dup6\n        /* \"Day03/d3p3.sol\":1018:1023  b * b */\n      tag_71\n      swap2\n      swap1\n      tag_40\n      jump\t// in\n    tag_71:\n        /* \"Day03/d3p3.sol\":1018:1031  b * b + c * c */\n      tag_72\n      swap2\n      swap1\n      tag_23\n      jump\t// in\n    tag_72:\n        /* \"Day03/d3p3.sol\":1018:1040  b * b + c * c == a * a */\n      eq\n        /* \"Day03/d3p3.sol\":966:1040  a * a + b * b == c * c || a * a + c * c == b * b || b * b + c * c == a * a */\n    tag_68:\n        /* \"Day03/d3p3.sol\":962:1092  if (a * a + b * b == c * c || a * a + c * c == b * b || b * b + c * c == a * a) {... */\n      iszero\n      tag_73\n      jumpi\n        /* \"Day03/d3p3.sol\":1057:1080  return \"Right Triangle\" */\n      mload(0x40)\n      dup1\n      0x40\n      add\n      0x40\n      mstore\n      dup1\n      0x0e\n      dup2\n      mstore\n      0x20\n      add\n      0x526967687420547269616e676c65000000000000000000000000000000000000\n      dup2\n      mstore\n      pop\n      swap1\n      pop\n      jump(tag_46)\n        /* \"Day03/d3p3.sol\":962:1092  if (a * a + b * b == c * c || a * a + c * c == b * b || b * b + c * c == a * a) {... */\n    tag_73:\n        /* \"Day03/d3p3.sol\":1104:1125  return \"Unknown type\" */\n      mload(0x40)\n      dup1\n      0x40\n      add\n      0x40\n      mstore\n      dup1\n      0x0c\n      dup2\n      mstore\n      0x20\n      add\n      0x556e6b6e6f776e20747970650000000000000000000000000000000000000000\n      dup2\n      mstore\n      pop\n      swap1\n      pop\n        /* \"Day03/d3p3.sol\":352:1133  function findType(int a, int b, int c) public pure returns (string memory) {... */\n    tag_46:\n      swap4\n      swap3\n      pop\n      pop\n      pop\n      jump\t// out\n        /* \"#utility.yul\":88:205   */\n    tag_75:\n        /* \"#utility.yul\":197:198   */\n      0x00\n        /* \"#utility.yul\":194:195   */\n      dup1\n        /* \"#utility.yul\":187:199   */\n      revert\n        /* \"#utility.yul\":334:410   */\n    tag_77:\n        /* \"#utility.yul\":370:377   */\n      0x00\n        /* \"#utility.yul\":399:404   */\n      dup2\n        /* \"#utility.yul\":388:404   */\n      swap1\n      pop\n        /* \"#utility.yul\":334:410   */\n      swap2\n      swap1\n      pop\n      jump\t// out\n        /* \"#utility.yul\":416:536   */\n    tag_78:\n        /* \"#utility.yul\":488:511   */\n      tag_98\n        /* \"#utility.yul\":505:510   */\n      dup2\n        /* \"#utility.yul\":488:511   */\n      tag_77\n      jump\t// in\n    tag_98:\n        /* \"#utility.yul\":481:486   */\n      dup2\n        /* \"#utility.yul\":478:512   */\n      eq\n        /* \"#utility.yul\":468:530   */\n      tag_99\n      jumpi\n        /* \"#utility.yul\":526:527   */\n      0x00\n        /* \"#utility.yul\":523:524   */\n      dup1\n        /* \"#utility.yul\":516:528   */\n      revert\n        /* \"#utility.yul\":468:530   */\n    tag_99:\n        /* \"#utility.yul\":416:536   */\n      pop\n      jump\t// out\n        /* \"#utility.yul\":542:679   */\n    tag_79:\n        /* \"#utility.yul\":587:592   */\n      0x00\n        /* \"#utility.yul\":625:631   */\n      dup2\n        /* \"#utility.yul\":612:632   */\n      calldataload\n        /* \"#utility.yul\":603:632   */\n      swap1\n      pop\n        /* \"#utility.yul\":641:673   */\n      tag_101\n        /* \"#utility.yul\":667:672   */\n      dup2\n        /* \"#utility.yul\":641:673   */\n      tag_78\n      jump\t// in\n    tag_101:\n        /* \"#utility.yul\":542:679   */\n      swap3\n      swap2\n      pop\n      pop\n      jump\t// out\n        /* \"#utility.yul\":685:1298   */\n    tag_8:\n        /* \"#utility.yul\":759:765   */\n      0x00\n        /* \"#utility.yul\":767:773   */\n      dup1\n        /* \"#utility.yul\":775:781   */\n      0x00\n        /* \"#utility.yul\":824:826   */\n      0x60\n        /* \"#utility.yul\":812:821   */\n      dup5\n        /* \"#utility.yul\":803:810   */\n      dup7\n        /* \"#utility.yul\":799:822   */\n      sub\n        /* \"#utility.yul\":795:827   */\n      slt\n        /* \"#utility.yul\":792:911   */\n      iszero\n      tag_103\n      jumpi\n        /* \"#utility.yul\":830:909   */\n      tag_104\n      tag_75\n      jump\t// in\n    tag_104:\n        /* \"#utility.yul\":792:911   */\n    tag_103:\n        /* \"#utility.yul\":950:951   */\n      0x00\n        /* \"#utility.yul\":975:1027   */\n      tag_105\n        /* \"#utility.yul\":1019:1026   */\n      dup7\n        /* \"#utility.yul\":1010:1016   */\n      dup3\n        /* \"#utility.yul\":999:1008   */\n      dup8\n        /* \"#utility.yul\":995:1017   */\n      add\n        /* \"#utility.yul\":975:1027   */\n      tag_79\n      jump\t// in\n    tag_105:\n        /* \"#utility.yul\":965:1027   */\n      swap4\n      pop\n        /* \"#utility.yul\":921:1037   */\n      pop\n        /* \"#utility.yul\":1076:1078   */\n      0x20\n        /* \"#utility.yul\":1102:1154   */\n      tag_106\n        /* \"#utility.yul\":1146:1153   */\n      dup7\n        /* \"#utility.yul\":1137:1143   */\n      dup3\n        /* \"#utility.yul\":1126:1135   */\n      dup8\n        /* \"#utility.yul\":1122:1144   */\n      add\n        /* \"#utility.yul\":1102:1154   */\n      tag_79\n      jump\t// in\n    tag_106:\n        /* \"#utility.yul\":1092:1154   */\n      swap3\n      pop\n        /* \"#utility.yul\":1047:1164   */\n      pop\n        /* \"#utility.yul\":1203:1205   */\n      0x40\n        /* \"#utility.yul\":1229:1281   */\n      tag_107\n        /* \"#utility.yul\":1273:1280   */\n      dup7\n        /* \"#utility.yul\":1264:1270   */\n      dup3\n        /* \"#utility.yul\":1253:1262   */\n      dup8\n        /* \"#utility.yul\":1249:1271   */\n      add\n        /* \"#utility.yul\":1229:1281   */\n      tag_79\n      jump\t// in\n    tag_107:\n        /* \"#utility.yul\":1219:1281   */\n      swap2\n      pop\n        /* \"#utility.yul\":1174:1291   */\n      pop\n        /* \"#utility.yul\":685:1298   */\n      swap3\n      pop\n      swap3\n      pop\n      swap3\n      jump\t// out\n        /* \"#utility.yul\":1304:1394   */\n    tag_80:\n        /* \"#utility.yul\":1338:1345   */\n      0x00\n        /* \"#utility.yul\":1381:1386   */\n      dup2\n        /* \"#utility.yul\":1374:1387   */\n      iszero\n        /* \"#utility.yul\":1367:1388   */\n      iszero\n        /* \"#utility.yul\":1356:1388   */\n      swap1\n      pop\n        /* \"#utility.yul\":1304:1394   */\n      swap2\n      swap1\n      pop\n      jump\t// out\n        /* \"#utility.yul\":1400:1509   */\n    tag_81:\n        /* \"#utility.yul\":1481:1502   */\n      tag_110\n        /* \"#utility.yul\":1496:1501   */\n      dup2\n        /* \"#utility.yul\":1481:1502   */\n      tag_80\n      jump\t// in\n    tag_110:\n        /* \"#utility.yul\":1476:1479   */\n      dup3\n        /* \"#utility.yul\":1469:1503   */\n      mstore\n        /* \"#utility.yul\":1400:1509   */\n      pop\n      pop\n      jump\t// out\n        /* \"#utility.yul\":1515:1725   */\n    tag_11:\n        /* \"#utility.yul\":1602:1606   */\n      0x00\n        /* \"#utility.yul\":1640:1642   */\n      0x20\n        /* \"#utility.yul\":1629:1638   */\n      dup3\n        /* \"#utility.yul\":1625:1643   */\n      add\n        /* \"#utility.yul\":1617:1643   */\n      swap1\n      pop\n        /* \"#utility.yul\":1653:1718   */\n      tag_112\n        /* \"#utility.yul\":1715:1716   */\n      0x00\n        /* \"#utility.yul\":1704:1713   */\n      dup4\n        /* \"#utility.yul\":1700:1717   */\n      add\n        /* \"#utility.yul\":1691:1697   */\n      dup5\n        /* \"#utility.yul\":1653:1718   */\n      tag_81\n      jump\t// in\n    tag_112:\n        /* \"#utility.yul\":1515:1725   */\n      swap3\n      swap2\n      pop\n      pop\n      jump\t// out\n        /* \"#utility.yul\":1731:1830   */\n    tag_82:\n        /* \"#utility.yul\":1783:1789   */\n      0x00\n        /* \"#utility.yul\":1817:1822   */\n      dup2\n        /* \"#utility.yul\":1811:1823   */\n      mload\n        /* \"#utility.yul\":1801:1823   */\n      swap1\n      pop\n        /* \"#utility.yul\":1731:1830   */\n      swap2\n      swap1\n      pop\n      jump\t// out\n        /* \"#utility.yul\":1836:2005   */\n    tag_83:\n        /* \"#utility.yul\":1920:1931   */\n      0x00\n        /* \"#utility.yul\":1954:1960   */\n      dup3\n        /* \"#utility.yul\":1949:1952   */\n      dup3\n        /* \"#utility.yul\":1942:1961   */\n      mstore\n        /* \"#utility.yul\":1994:1998   */\n      0x20\n        /* \"#utility.yul\":1989:1992   */\n      dup3\n        /* \"#utility.yul\":1985:1999   */\n      add\n        /* \"#utility.yul\":1970:1999   */\n      swap1\n      pop\n        /* \"#utility.yul\":1836:2005   */\n      swap3\n      swap2\n      pop\n      pop\n      jump\t// out\n        /* \"#utility.yul\":2011:2150   */\n    tag_84:\n        /* \"#utility.yul\":2100:2106   */\n      dup3\n        /* \"#utility.yul\":2095:2098   */\n      dup2\n        /* \"#utility.yul\":2090:2093   */\n      dup4\n        /* \"#utility.yul\":2084:2107   */\n      mcopy\n        /* \"#utility.yul\":2141:2142   */\n      0x00\n        /* \"#utility.yul\":2132:2138   */\n      dup4\n        /* \"#utility.yul\":2127:2130   */\n      dup4\n        /* \"#utility.yul\":2123:2139   */\n      add\n        /* \"#utility.yul\":2116:2143   */\n      mstore\n        /* \"#utility.yul\":2011:2150   */\n      pop\n      pop\n      pop\n      jump\t// out\n        /* \"#utility.yul\":2156:2258   */\n    tag_85:\n        /* \"#utility.yul\":2197:2203   */\n      0x00\n        /* \"#utility.yul\":2248:2250   */\n      0x1f\n        /* \"#utility.yul\":2244:2251   */\n      not\n        /* \"#utility.yul\":2239:2241   */\n      0x1f\n        /* \"#utility.yul\":2232:2237   */\n      dup4\n        /* \"#utility.yul\":2228:2242   */\n      add\n        /* \"#utility.yul\":2224:2252   */\n      and\n        /* \"#utility.yul\":2214:2252   */\n      swap1\n      pop\n        /* \"#utility.yul\":2156:2258   */\n      swap2\n      swap1\n      pop\n      jump\t// out\n        /* \"#utility.yul\":2264:2641   */\n    tag_86:\n        /* \"#utility.yul\":2352:2355   */\n      0x00\n        /* \"#utility.yul\":2380:2419   */\n      tag_118\n        /* \"#utility.yul\":2413:2418   */\n      dup3\n        /* \"#utility.yul\":2380:2419   */\n      tag_82\n      jump\t// in\n    tag_118:\n        /* \"#utility.yul\":2435:2506   */\n      tag_119\n        /* \"#utility.yul\":2499:2505   */\n      dup2\n        /* \"#utility.yul\":2494:2497   */\n      dup6\n        /* \"#utility.yul\":2435:2506   */\n      tag_83\n      jump\t// in\n    tag_119:\n        /* \"#utility.yul\":2428:2506   */\n      swap4\n      pop\n        /* \"#utility.yul\":2515:2580   */\n      tag_120\n        /* \"#utility.yul\":2573:2579   */\n      dup2\n        /* \"#utility.yul\":2568:2571   */\n      dup6\n        /* \"#utility.yul\":2561:2565   */\n      0x20\n        /* \"#utility.yul\":2554:2559   */\n      dup7\n        /* \"#utility.yul\":2550:2566   */\n      add\n        /* \"#utility.yul\":2515:2580   */\n      tag_84\n      jump\t// in\n    tag_120:\n        /* \"#utility.yul\":2605:2634   */\n      tag_121\n        /* \"#utility.yul\":2627:2633   */\n      dup2\n        /* \"#utility.yul\":2605:2634   */\n      tag_85\n      jump\t// in\n    tag_121:\n        /* \"#utility.yul\":2600:2603   */\n      dup5\n        /* \"#utility.yul\":2596:2635   */\n      add\n        /* \"#utility.yul\":2589:2635   */\n      swap2\n      pop\n        /* \"#utility.yul\":2356:2641   */\n      pop\n        /* \"#utility.yul\":2264:2641   */\n      swap3\n      swap2\n      pop\n      pop\n      jump\t// out\n        /* \"#utility.yul\":2647:2960   */\n    tag_16:\n        /* \"#utility.yul\":2760:2764   */\n      0x00\n        /* \"#utility.yul\":2798:2800   */\n      0x20\n        /* \"#utility.yul\":2787:2796   */\n      dup3\n        /* \"#utility.yul\":2783:2801   */\n      add\n        /* \"#utility.yul\":2775:2801   */\n      swap1\n      pop\n        /* \"#utility.yul\":2847:2856   */\n      dup2\n        /* \"#utility.yul\":2841:2845   */\n      dup2\n        /* \"#utility.yul\":2837:2857   */\n      sub\n        /* \"#utility.yul\":2833:2834   */\n      0x00\n        /* \"#utility.yul\":2822:2831   */\n      dup4\n        /* \"#utility.yul\":2818:2835   */\n      add\n        /* \"#utility.yul\":2811:2858   */\n      mstore\n        /* \"#utility.yul\":2875:2953   */\n      tag_123\n        /* \"#utility.yul\":2948:2952   */\n      dup2\n        /* \"#utility.yul\":2939:2945   */\n      dup5\n        /* \"#utility.yul\":2875:2953   */\n      tag_86\n      jump\t// in\n    tag_123:\n        /* \"#utility.yul\":2867:2953   */\n      swap1\n      pop\n        /* \"#utility.yul\":2647:2960   */\n      swap3\n      swap2\n      pop\n      pop\n      jump\t// out\n        /* \"#utility.yul\":2966:3146   */\n    tag_87:\n        /* \"#utility.yul\":3014:3091   */\n      0x4e487b7100000000000000000000000000000000000000000000000000000000\n        /* \"#utility.yul\":3011:3012   */\n      0x00\n        /* \"#utility.yul\":3004:3092   */\n      mstore\n        /* \"#utility.yul\":3111:3115   */\n      0x11\n        /* \"#utility.yul\":3108:3109   */\n      0x04\n        /* \"#utility.yul\":3101:3116   */\n      mstore\n        /* \"#utility.yul\":3135:3139   */\n      0x24\n        /* \"#utility.yul\":3132:3133   */\n      0x00\n        /* \"#utility.yul\":3125:3140   */\n      revert\n        /* \"#utility.yul\":3152:3527   */\n    tag_23:\n        /* \"#utility.yul\":3191:3194   */\n      0x00\n        /* \"#utility.yul\":3210:3229   */\n      tag_126\n        /* \"#utility.yul\":3227:3228   */\n      dup3\n        /* \"#utility.yul\":3210:3229   */\n      tag_77\n      jump\t// in\n    tag_126:\n        /* \"#utility.yul\":3205:3229   */\n      swap2\n      pop\n        /* \"#utility.yul\":3243:3262   */\n      tag_127\n        /* \"#utility.yul\":3260:3261   */\n      dup4\n        /* \"#utility.yul\":3243:3262   */\n      tag_77\n      jump\t// in\n    tag_127:\n        /* \"#utility.yul\":3238:3262   */\n      swap3\n      pop\n        /* \"#utility.yul\":3285:3286   */\n      dup3\n        /* \"#utility.yul\":3282:3283   */\n      dup3\n        /* \"#utility.yul\":3278:3287   */\n      add\n        /* \"#utility.yul\":3271:3287   */\n      swap1\n      pop\n        /* \"#utility.yul\":3483:3484   */\n      dup3\n        /* \"#utility.yul\":3478:3481   */\n      dup2\n        /* \"#utility.yul\":3474:3485   */\n      slt\n        /* \"#utility.yul\":3467:3486   */\n      iszero\n        /* \"#utility.yul\":3463:3464   */\n      0x00\n        /* \"#utility.yul\":3460:3461   */\n      dup4\n        /* \"#utility.yul\":3456:3465   */\n      slt\n        /* \"#utility.yul\":3452:3487   */\n      and\n        /* \"#utility.yul\":3435:3436   */\n      dup4\n        /* \"#utility.yul\":3430:3433   */\n      dup3\n        /* \"#utility.yul\":3426:3437   */\n      slt\n        /* \"#utility.yul\":3421:3422   */\n      0x00\n        /* \"#utility.yul\":3418:3419   */\n      dup5\n        /* \"#utility.yul\":3414:3423   */\n      slt\n        /* \"#utility.yul\":3407:3424   */\n      iszero\n        /* \"#utility.yul\":3403:3438   */\n      and\n        /* \"#utility.yul\":3387:3497   */\n      or\n        /* \"#utility.yul\":3384:3520   */\n      iszero\n      tag_128\n      jumpi\n        /* \"#utility.yul\":3500:3518   */\n      tag_129\n      tag_87\n      jump\t// in\n    tag_129:\n        /* \"#utility.yul\":3384:3520   */\n    tag_128:\n        /* \"#utility.yul\":3152:3527   */\n      swap3\n      swap2\n      pop\n      pop\n      jump\t// out\n        /* \"#utility.yul\":3533:3713   */\n    tag_88:\n        /* \"#utility.yul\":3581:3658   */\n      0x4e487b7100000000000000000000000000000000000000000000000000000000\n        /* \"#utility.yul\":3578:3579   */\n      0x00\n        /* \"#utility.yul\":3571:3659   */\n      mstore\n        /* \"#utility.yul\":3678:3682   */\n      0x12\n        /* \"#utility.yul\":3675:3676   */\n      0x04\n        /* \"#utility.yul\":3668:3683   */\n      mstore\n        /* \"#utility.yul\":3702:3706   */\n      0x24\n        /* \"#utility.yul\":3699:3700   */\n      0x00\n        /* \"#utility.yul\":3692:3707   */\n      revert\n        /* \"#utility.yul\":3719:4104   */\n    tag_34:\n        /* \"#utility.yul\":3758:3759   */\n      0x00\n        /* \"#utility.yul\":3775:3794   */\n      tag_132\n        /* \"#utility.yul\":3792:3793   */\n      dup3\n        /* \"#utility.yul\":3775:3794   */\n      tag_77\n      jump\t// in\n    tag_132:\n        /* \"#utility.yul\":3770:3794   */\n      swap2\n      pop\n        /* \"#utility.yul\":3808:3827   */\n      tag_133\n        /* \"#utility.yul\":3825:3826   */\n      dup4\n        /* \"#utility.yul\":3808:3827   */\n      tag_77\n      jump\t// in\n    tag_133:\n        /* \"#utility.yul\":3803:3827   */\n      swap3\n      pop\n        /* \"#utility.yul\":3846:3847   */\n      dup3\n        /* \"#utility.yul\":3836:3871   */\n      tag_134\n      jumpi\n        /* \"#utility.yul\":3851:3869   */\n      tag_135\n      tag_88\n      jump\t// in\n    tag_135:\n        /* \"#utility.yul\":3836:3871   */\n    tag_134:\n        /* \"#utility.yul\":4037:4038   */\n      0x01\n        /* \"#utility.yul\":4034:4035   */\n      0x00\n        /* \"#utility.yul\":4030:4039   */\n      sub\n        /* \"#utility.yul\":4027:4028   */\n      dup4\n        /* \"#utility.yul\":4024:4040   */\n      eq\n        /* \"#utility.yul\":3943:4009   */\n      0x8000000000000000000000000000000000000000000000000000000000000000\n        /* \"#utility.yul\":3940:3941   */\n      dup4\n        /* \"#utility.yul\":3937:4010   */\n      eq\n        /* \"#utility.yul\":3920:4050   */\n      and\n        /* \"#utility.yul\":3917:4073   */\n      iszero\n      tag_136\n      jumpi\n        /* \"#utility.yul\":4053:4071   */\n      tag_137\n      tag_87\n      jump\t// in\n    tag_137:\n        /* \"#utility.yul\":3917:4073   */\n    tag_136:\n        /* \"#utility.yul\":4096:4097   */\n      dup3\n        /* \"#utility.yul\":4093:4094   */\n      dup3\n        /* \"#utility.yul\":4088:4098   */\n      sdiv\n        /* \"#utility.yul\":4083:4098   */\n      swap1\n      pop\n        /* \"#utility.yul\":3719:4104   */\n      swap3\n      swap2\n      pop\n      pop\n      jump\t// out\n        /* \"#utility.yul\":4110:4482   */\n    tag_36:\n        /* \"#utility.yul\":4149:4153   */\n      0x00\n        /* \"#utility.yul\":4169:4188   */\n      tag_139\n        /* \"#utility.yul\":4186:4187   */\n      dup3\n        /* \"#utility.yul\":4169:4188   */\n      tag_77\n      jump\t// in\n    tag_139:\n        /* \"#utility.yul\":4164:4188   */\n      swap2\n      pop\n        /* \"#utility.yul\":4202:4221   */\n      tag_140\n        /* \"#utility.yul\":4219:4220   */\n      dup4\n        /* \"#utility.yul\":4202:4221   */\n      tag_77\n      jump\t// in\n    tag_140:\n        /* \"#utility.yul\":4197:4221   */\n      swap3\n      pop\n        /* \"#utility.yul\":4245:4246   */\n      dup3\n        /* \"#utility.yul\":4242:4243   */\n      dup3\n        /* \"#utility.yul\":4238:4247   */\n      sub\n        /* \"#utility.yul\":4230:4247   */\n      swap1\n      pop\n        /* \"#utility.yul\":4439:4440   */\n      dup2\n        /* \"#utility.yul\":4433:4437   */\n      dup2\n        /* \"#utility.yul\":4429:4441   */\n      slt\n        /* \"#utility.yul\":4425:4426   */\n      0x00\n        /* \"#utility.yul\":4422:4423   */\n      dup5\n        /* \"#utility.yul\":4418:4427   */\n      slt\n        /* \"#utility.yul\":4414:4442   */\n      and\n        /* \"#utility.yul\":4397:4398   */\n      dup3\n        /* \"#utility.yul\":4391:4395   */\n      dup3\n        /* \"#utility.yul\":4387:4399   */\n      sgt\n        /* \"#utility.yul\":4382:4383   */\n      0x00\n        /* \"#utility.yul\":4379:4380   */\n      dup6\n        /* \"#utility.yul\":4375:4384   */\n      slt\n        /* \"#utility.yul\":4368:4385   */\n      iszero\n        /* \"#utility.yul\":4364:4400   */\n      and\n        /* \"#utility.yul\":4348:4452   */\n      or\n        /* \"#utility.yul\":4345:4475   */\n      iszero\n      tag_141\n      jumpi\n        /* \"#utility.yul\":4455:4473   */\n      tag_142\n      tag_87\n      jump\t// in\n    tag_142:\n        /* \"#utility.yul\":4345:4475   */\n    tag_141:\n        /* \"#utility.yul\":4110:4482   */\n      swap3\n      swap2\n      pop\n      pop\n      jump\t// out\n        /* \"#utility.yul\":4488:5044   */\n    tag_40:\n        /* \"#utility.yul\":4527:4534   */\n      0x00\n        /* \"#utility.yul\":4550:4569   */\n      tag_144\n        /* \"#utility.yul\":4567:4568   */\n      dup3\n        /* \"#utility.yul\":4550:4569   */\n      tag_77\n      jump\t// in\n    tag_144:\n        /* \"#utility.yul\":4545:4569   */\n      swap2\n      pop\n        /* \"#utility.yul\":4583:4602   */\n      tag_145\n        /* \"#utility.yul\":4600:4601   */\n      dup4\n        /* \"#utility.yul\":4583:4602   */\n      tag_77\n      jump\t// in\n    tag_145:\n        /* \"#utility.yul\":4578:4602   */\n      swap3\n      pop\n        /* \"#utility.yul\":4637:4638   */\n      dup3\n        /* \"#utility.yul\":4634:4635   */\n      dup3\n        /* \"#utility.yul\":4630:4639   */\n      mul\n        /* \"#utility.yul\":4659:4688   */\n      tag_146\n        /* \"#utility.yul\":4676:4687   */\n      dup2\n        /* \"#utility.yul\":4659:4688   */\n      tag_77\n      jump\t// in\n    tag_146:\n        /* \"#utility.yul\":4648:4688   */\n      swap2\n      pop\n        /* \"#utility.yul\":4746:4812   */\n      0x8000000000000000000000000000000000000000000000000000000000000000\n        /* \"#utility.yul\":4743:4744   */\n      dup5\n        /* \"#utility.yul\":4740:4813   */\n      eq\n        /* \"#utility.yul\":4736:4737   */\n      0x00\n        /* \"#utility.yul\":4733:4734   */\n      dup5\n        /* \"#utility.yul\":4729:4738   */\n      slt\n        /* \"#utility.yul\":4725:4814   */\n      and\n        /* \"#utility.yul\":4722:4837   */\n      iszero\n      tag_147\n      jumpi\n        /* \"#utility.yul\":4817:4835   */\n      tag_148\n      tag_87\n      jump\t// in\n    tag_148:\n        /* \"#utility.yul\":4722:4837   */\n    tag_147:\n        /* \"#utility.yul\":4987:4988   */\n      dup3\n        /* \"#utility.yul\":4978:4985   */\n      dup3\n        /* \"#utility.yul\":4973:4989   */\n      sdiv\n        /* \"#utility.yul\":4970:4971   */\n      dup5\n        /* \"#utility.yul\":4967:4990   */\n      eq\n        /* \"#utility.yul\":4947:4948   */\n      dup4\n        /* \"#utility.yul\":4940:4949   */\n      iszero\n        /* \"#utility.yul\":4920:5004   */\n      or\n        /* \"#utility.yul\":4897:5037   */\n      tag_149\n      jumpi\n        /* \"#utility.yul\":5017:5035   */\n      tag_150\n      tag_87\n      jump\t// in\n    tag_150:\n        /* \"#utility.yul\":4897:5037   */\n    tag_149:\n        /* \"#utility.yul\":4535:5044   */\n      pop\n        /* \"#utility.yul\":4488:5044   */\n      swap3\n      swap2\n      pop\n      pop\n      jump\t// out\n        /* \"#utility.yul\":5050:5198   */\n    tag_89:\n        /* \"#utility.yul\":5152:5163   */\n      0x00\n        /* \"#utility.yul\":5189:5192   */\n      dup2\n        /* \"#utility.yul\":5174:5192   */\n      swap1\n      pop\n        /* \"#utility.yul\":5050:5198   */\n      swap3\n      swap2\n      pop\n      pop\n      jump\t// out\n        /* \"#utility.yul\":5204:5449   */\n    tag_90:\n        /* \"#utility.yul\":5344:5378   */\n      0x417265612063616e27742062652065786163746c792063616c63756c61746564\n        /* \"#utility.yul\":5340:5341   */\n      0x00\n        /* \"#utility.yul\":5332:5338   */\n      dup3\n        /* \"#utility.yul\":5328:5342   */\n      add\n        /* \"#utility.yul\":5321:5379   */\n      mstore\n        /* \"#utility.yul\":5413:5441   */\n      0x20696e20536f6c6964697479207769746820696e746567657273000000000000\n        /* \"#utility.yul\":5408:5410   */\n      0x20\n        /* \"#utility.yul\":5400:5406   */\n      dup3\n        /* \"#utility.yul\":5396:5411   */\n      add\n        /* \"#utility.yul\":5389:5442   */\n      mstore\n        /* \"#utility.yul\":5204:5449   */\n      pop\n      jump\t// out\n        /* \"#utility.yul\":5455:5857   */\n    tag_91:\n        /* \"#utility.yul\":5615:5618   */\n      0x00\n        /* \"#utility.yul\":5636:5721   */\n      tag_154\n        /* \"#utility.yul\":5718:5720   */\n      0x3a\n        /* \"#utility.yul\":5713:5716   */\n      dup4\n        /* \"#utility.yul\":5636:5721   */\n      tag_89\n      jump\t// in\n    tag_154:\n        /* \"#utility.yul\":5629:5721   */\n      swap2\n      pop\n        /* \"#utility.yul\":5730:5823   */\n      tag_155\n        /* \"#utility.yul\":5819:5822   */\n      dup3\n        /* \"#utility.yul\":5730:5823   */\n      tag_90\n      jump\t// in\n    tag_155:\n        /* \"#utility.yul\":5848:5850   */\n      0x3a\n        /* \"#utility.yul\":5843:5846   */\n      dup3\n        /* \"#utility.yul\":5839:5851   */\n      add\n        /* \"#utility.yul\":5832:5851   */\n      swap1\n      pop\n        /* \"#utility.yul\":5455:5857   */\n      swap2\n      swap1\n      pop\n      jump\t// out\n        /* \"#utility.yul\":5863:6244   */\n    tag_45:\n        /* \"#utility.yul\":6048:6051   */\n      0x00\n        /* \"#utility.yul\":6070:6218   */\n      tag_157\n        /* \"#utility.yul\":6214:6217   */\n      dup3\n        /* \"#utility.yul\":6070:6218   */\n      tag_91\n      jump\t// in\n    tag_157:\n        /* \"#utility.yul\":6063:6218   */\n      swap2\n      pop\n        /* \"#utility.yul\":6235:6238   */\n      dup2\n        /* \"#utility.yul\":6228:6238   */\n      swap1\n      pop\n        /* \"#utility.yul\":5863:6244   */\n      swap2\n      swap1\n      pop\n      jump\t// out\n\n    auxdata: 0xa26469706673582212209b4cba40eb5915e1a7e126c5365572ccf369eaf0423bd3b477e38d5b9709e85c64736f6c634300081a0033\n}\n",
				"bytecode": {
					"linkReferences": {},
					"object": "6080604052348015600e575f80fd5b5061087b8061001c5f395ff3fe608060405234801561000f575f80fd5b506004361061003f575f3560e01c806331df7cc814610043578063951723aa14610073578063bea88988146100a3575b5f80fd5b61005d600480360381019061005891906104eb565b6100d3565b60405161006a9190610555565b60405180910390f35b61008d600480360381019061008891906104eb565b610117565b60405161009a91906105de565b60405180910390f35b6100bd60048036038101906100b891906104eb565b610242565b6040516100ca91906105de565b60405180910390f35b5f8183856100e1919061062b565b1380156100f857508282856100f6919061062b565b135b801561010e575083828461010c919061062b565b135b90509392505050565b60606101248484846100d3565b610165576040518060400160405280601481526020017f4e6f7420612076616c696420747269616e676c65000000000000000000000000815250905061023b565b5f6002838587610175919061062b565b61017f919061062b565b6101899190610699565b90505f83826101989190610701565b85836101a49190610701565b87846101b09190610701565b846101bb9190610741565b6101c59190610741565b6101cf9190610741565b90505f811215610218576040518060400160405280600c81526020017f496e76616c6964206172656100000000000000000000000000000000000000008152509250505061023b565b60405160200161022790610831565b604051602081830303815290604052925050505b9392505050565b606061024f8484846100d3565b610290576040518060400160405280601481526020017f4e6f7420612076616c696420747269616e676c6500000000000000000000000081525090506104ad565b828414801561029e57508183145b156102e0576040518060400160405280600b81526020017f457175696c61746572616c00000000000000000000000000000000000000000081525090506104ad565b828414806102ed57508183145b806102f757508184145b15610339576040518060400160405280600981526020017f49736f7363656c6573000000000000000000000000000000000000000000000081525090506104ad565b8284141580156103495750818314155b80156103555750818414155b15610397576040518060400160405280600781526020017f5363616c656e650000000000000000000000000000000000000000000000000081525090506104ad565b81826103a39190610741565b83846103af9190610741565b85866103bb9190610741565b6103c5919061062b565b14806103fc575082836103d89190610741565b82836103e49190610741565b85866103f09190610741565b6103fa919061062b565b145b806104325750838461040e9190610741565b828361041a9190610741565b84856104269190610741565b610430919061062b565b145b15610474576040518060400160405280600e81526020017f526967687420547269616e676c6500000000000000000000000000000000000081525090506104ad565b6040518060400160405280600c81526020017f556e6b6e6f776e2074797065000000000000000000000000000000000000000081525090505b9392505050565b5f80fd5b5f819050919050565b6104ca816104b8565b81146104d4575f80fd5b50565b5f813590506104e5816104c1565b92915050565b5f805f60608486031215610502576105016104b4565b5b5f61050f868287016104d7565b9350506020610520868287016104d7565b9250506040610531868287016104d7565b9150509250925092565b5f8115159050919050565b61054f8161053b565b82525050565b5f6020820190506105685f830184610546565b92915050565b5f81519050919050565b5f82825260208201905092915050565b8281835e5f83830152505050565b5f601f19601f8301169050919050565b5f6105b08261056e565b6105ba8185610578565b93506105ca818560208601610588565b6105d381610596565b840191505092915050565b5f6020820190508181035f8301526105f681846105a6565b905092915050565b7f4e487b71000000000000000000000000000000000000000000000000000000005f52601160045260245ffd5b5f610635826104b8565b9150610640836104b8565b92508282019050828112155f8312168382125f841215161715610666576106656105fe565b5b92915050565b7f4e487b71000000000000000000000000000000000000000000000000000000005f52601260045260245ffd5b5f6106a3826104b8565b91506106ae836104b8565b9250826106be576106bd61066c565b5b60015f0383147f8000000000000000000000000000000000000000000000000000000000000000831416156106f6576106f56105fe565b5b828205905092915050565b5f61070b826104b8565b9150610716836104b8565b925082820390508181125f8412168282135f85121516171561073b5761073a6105fe565b5b92915050565b5f61074b826104b8565b9150610756836104b8565b9250828202610764816104b8565b91507f800000000000000000000000000000000000000000000000000000000000000084145f8412161561079b5761079a6105fe565b5b82820584148315176107b0576107af6105fe565b5b5092915050565b5f81905092915050565b7f417265612063616e27742062652065786163746c792063616c63756c617465645f8201527f20696e20536f6c6964697479207769746820696e746567657273000000000000602082015250565b5f61081b603a836107b7565b9150610826826107c1565b603a82019050919050565b5f61083b8261080f565b915081905091905056fea26469706673582212209b4cba40eb5915e1a7e126c5365572ccf369eaf0423bd3b477e38d5b9709e85c64736f6c634300081a0033",
					"opcodes": "PUSH1 0x80 PUSH1 0x40 MSTORE CALLVALUE DUP1 ISZERO PUSH1 0xE JUMPI PUSH0 DUP1 REVERT JUMPDEST POP PUSH2 0x87B DUP1 PUSH2 0x1C PUSH0 CODECOPY PUSH0 RETURN INVALID PUSH1 0x80 PUSH1 0x40 MSTORE CALLVALUE DUP1 ISZERO PUSH2 0xF JUMPI PUSH0 DUP1 REVERT JUMPDEST POP PUSH1 0x4 CALLDATASIZE LT PUSH2 0x3F JUMPI PUSH0 CALLDATALOAD PUSH1 0xE0 SHR DUP1 PUSH4 0x31DF7CC8 EQ PUSH2 0x43 JUMPI DUP1 PUSH4 0x951723AA EQ PUSH2 0x73 JUMPI DUP1 PUSH4 0xBEA88988 EQ PUSH2 0xA3 JUMPI JUMPDEST PUSH0 DUP1 REVERT JUMPDEST PUSH2 0x5D PUSH1 0x4 DUP1 CALLDATASIZE SUB DUP2 ADD SWAP1 PUSH2 0x58 SWAP2 SWAP1 PUSH2 0x4EB JUMP JUMPDEST PUSH2 0xD3 JUMP JUMPDEST PUSH1 0x40 MLOAD PUSH2 0x6A SWAP2 SWAP1 PUSH2 0x555 JUMP JUMPDEST PUSH1 0x40 MLOAD DUP1 SWAP2 SUB SWAP1 RETURN JUMPDEST PUSH2 0x8D PUSH1 0x4 DUP1 CALLDATASIZE SUB DUP2 ADD SWAP1 PUSH2 0x88 SWAP2 SWAP1 PUSH2 0x4EB JUMP JUMPDEST PUSH2 0x117 JUMP JUMPDEST PUSH1 0x40 MLOAD PUSH2 0x9A SWAP2 SWAP1 PUSH2 0x5DE JUMP JUMPDEST PUSH1 0x40 MLOAD DUP1 SWAP2 SUB SWAP1 RETURN JUMPDEST PUSH2 0xBD PUSH1 0x4 DUP1 CALLDATASIZE SUB DUP2 ADD SWAP1 PUSH2 0xB8 SWAP2 SWAP1 PUSH2 0x4EB JUMP JUMPDEST PUSH2 0x242 JUMP JUMPDEST PUSH1 0x40 MLOAD PUSH2 0xCA SWAP2 SWAP1 PUSH2 0x5DE JUMP JUMPDEST PUSH1 0x40 MLOAD DUP1 SWAP2 SUB SWAP1 RETURN JUMPDEST PUSH0 DUP2 DUP4 DUP6 PUSH2 0xE1 SWAP2 SWAP1 PUSH2 0x62B JUMP JUMPDEST SGT DUP1 ISZERO PUSH2 0xF8 JUMPI POP DUP3 DUP3 DUP6 PUSH2 0xF6 SWAP2 SWAP1 PUSH2 0x62B JUMP JUMPDEST SGT JUMPDEST DUP1 ISZERO PUSH2 0x10E JUMPI POP DUP4 DUP3 DUP5 PUSH2 0x10C SWAP2 SWAP1 PUSH2 0x62B JUMP JUMPDEST SGT JUMPDEST SWAP1 POP SWAP4 SWAP3 POP POP POP JUMP JUMPDEST PUSH1 0x60 PUSH2 0x124 DUP5 DUP5 DUP5 PUSH2 0xD3 JUMP JUMPDEST PUSH2 0x165 JUMPI PUSH1 0x40 MLOAD DUP1 PUSH1 0x40 ADD PUSH1 0x40 MSTORE DUP1 PUSH1 0x14 DUP2 MSTORE PUSH1 0x20 ADD PUSH32 0x4E6F7420612076616C696420747269616E676C65000000000000000000000000 DUP2 MSTORE POP SWAP1 POP PUSH2 0x23B JUMP JUMPDEST PUSH0 PUSH1 0x2 DUP4 DUP6 DUP8 PUSH2 0x175 SWAP2 SWAP1 PUSH2 0x62B JUMP JUMPDEST PUSH2 0x17F SWAP2 SWAP1 PUSH2 0x62B JUMP JUMPDEST PUSH2 0x189 SWAP2 SWAP1 PUSH2 0x699 JUMP JUMPDEST SWAP1 POP PUSH0 DUP4 DUP3 PUSH2 0x198 SWAP2 SWAP1 PUSH2 0x701 JUMP JUMPDEST DUP6 DUP4 PUSH2 0x1A4 SWAP2 SWAP1 PUSH2 0x701 JUMP JUMPDEST DUP8 DUP5 PUSH2 0x1B0 SWAP2 SWAP1 PUSH2 0x701 JUMP JUMPDEST DUP5 PUSH2 0x1BB SWAP2 SWAP1 PUSH2 0x741 JUMP JUMPDEST PUSH2 0x1C5 SWAP2 SWAP1 PUSH2 0x741 JUMP JUMPDEST PUSH2 0x1CF SWAP2 SWAP1 PUSH2 0x741 JUMP JUMPDEST SWAP1 POP PUSH0 DUP2 SLT ISZERO PUSH2 0x218 JUMPI PUSH1 0x40 MLOAD DUP1 PUSH1 0x40 ADD PUSH1 0x40 MSTORE DUP1 PUSH1 0xC DUP2 MSTORE PUSH1 0x20 ADD PUSH32 0x496E76616C696420617265610000000000000000000000000000000000000000 DUP2 MSTORE POP SWAP3 POP POP POP PUSH2 0x23B JUMP JUMPDEST PUSH1 0x40 MLOAD PUSH1 0x20 ADD PUSH2 0x227 SWAP1 PUSH2 0x831 JUMP JUMPDEST PUSH1 0x40 MLOAD PUSH1 0x20 DUP2 DUP4 SUB SUB DUP2 MSTORE SWAP1 PUSH1 0x40 MSTORE SWAP3 POP POP POP JUMPDEST SWAP4 SWAP3 POP POP POP JUMP JUMPDEST PUSH1 0x60 PUSH2 0x24F DUP5 DUP5 DUP5 PUSH2 0xD3 JUMP JUMPDEST PUSH2 0x290 JUMPI PUSH1 0x40 MLOAD DUP1 PUSH1 0x40 ADD PUSH1 0x40 MSTORE DUP1 PUSH1 0x14 DUP2 MSTORE PUSH1 0x20 ADD PUSH32 0x4E6F7420612076616C696420747269616E676C65000000000000000000000000 DUP2 MSTORE POP SWAP1 POP PUSH2 0x4AD JUMP JUMPDEST DUP3 DUP5 EQ DUP1 ISZERO PUSH2 0x29E JUMPI POP DUP2 DUP4 EQ JUMPDEST ISZERO PUSH2 0x2E0 JUMPI PUSH1 0x40 MLOAD DUP1 PUSH1 0x40 ADD PUSH1 0x40 MSTORE DUP1 PUSH1 0xB DUP2 MSTORE PUSH1 0x20 ADD PUSH32 0x457175696C61746572616C000000000000000000000000000000000000000000 DUP2 MSTORE POP SWAP1 POP PUSH2 0x4AD JUMP JUMPDEST DUP3 DUP5 EQ DUP1 PUSH2 0x2ED JUMPI POP DUP2 DUP4 EQ JUMPDEST DUP1 PUSH2 0x2F7 JUMPI POP DUP2 DUP5 EQ JUMPDEST ISZERO PUSH2 0x339 JUMPI PUSH1 0x40 MLOAD DUP1 PUSH1 0x40 ADD PUSH1 0x40 MSTORE DUP1 PUSH1 0x9 DUP2 MSTORE PUSH1 0x20 ADD PUSH32 0x49736F7363656C65730000000000000000000000000000000000000000000000 DUP2 MSTORE POP SWAP1 POP PUSH2 0x4AD JUMP JUMPDEST DUP3 DUP5 EQ ISZERO DUP1 ISZERO PUSH2 0x349 JUMPI POP DUP2 DUP4 EQ ISZERO JUMPDEST DUP1 ISZERO PUSH2 0x355 JUMPI POP DUP2 DUP5 EQ ISZERO JUMPDEST ISZERO PUSH2 0x397 JUMPI PUSH1 0x40 MLOAD DUP1 PUSH1 0x40 ADD PUSH1 0x40 MSTORE DUP1 PUSH1 0x7 DUP2 MSTORE PUSH1 0x20 ADD PUSH32 0x5363616C656E6500000000000000000000000000000000000000000000000000 DUP2 MSTORE POP SWAP1 POP PUSH2 0x4AD JUMP JUMPDEST DUP2 DUP3 PUSH2 0x3A3 SWAP2 SWAP1 PUSH2 0x741 JUMP JUMPDEST DUP4 DUP5 PUSH2 0x3AF SWAP2 SWAP1 PUSH2 0x741 JUMP JUMPDEST DUP6 DUP7 PUSH2 0x3BB SWAP2 SWAP1 PUSH2 0x741 JUMP JUMPDEST PUSH2 0x3C5 SWAP2 SWAP1 PUSH2 0x62B JUMP JUMPDEST EQ DUP1 PUSH2 0x3FC JUMPI POP DUP3 DUP4 PUSH2 0x3D8 SWAP2 SWAP1 PUSH2 0x741 JUMP JUMPDEST DUP3 DUP4 PUSH2 0x3E4 SWAP2 SWAP1 PUSH2 0x741 JUMP JUMPDEST DUP6 DUP7 PUSH2 0x3F0 SWAP2 SWAP1 PUSH2 0x741 JUMP JUMPDEST PUSH2 0x3FA SWAP2 SWAP1 PUSH2 0x62B JUMP JUMPDEST EQ JUMPDEST DUP1 PUSH2 0x432 JUMPI POP DUP4 DUP5 PUSH2 0x40E SWAP2 SWAP1 PUSH2 0x741 JUMP JUMPDEST DUP3 DUP4 PUSH2 0x41A SWAP2 SWAP1 PUSH2 0x741 JUMP JUMPDEST DUP5 DUP6 PUSH2 0x426 SWAP2 SWAP1 PUSH2 0x741 JUMP JUMPDEST PUSH2 0x430 SWAP2 SWAP1 PUSH2 0x62B JUMP JUMPDEST EQ JUMPDEST ISZERO PUSH2 0x474 JUMPI PUSH1 0x40 MLOAD DUP1 PUSH1 0x40 ADD PUSH1 0x40 MSTORE DUP1 PUSH1 0xE DUP2 MSTORE PUSH1 0x20 ADD PUSH32 0x526967687420547269616E676C65000000000000000000000000000000000000 DUP2 MSTORE POP SWAP1 POP PUSH2 0x4AD JUMP JUMPDEST PUSH1 0x40 MLOAD DUP1 PUSH1 0x40 ADD PUSH1 0x40 MSTORE DUP1 PUSH1 0xC DUP2 MSTORE PUSH1 0x20 ADD PUSH32 0x556E6B6E6F776E20747970650000000000000000000000000000000000000000 DUP2 MSTORE POP SWAP1 POP JUMPDEST SWAP4 SWAP3 POP POP POP JUMP JUMPDEST PUSH0 DUP1 REVERT JUMPDEST PUSH0 DUP2 SWAP1 POP SWAP2 SWAP1 POP JUMP JUMPDEST PUSH2 0x4CA DUP2 PUSH2 0x4B8 JUMP JUMPDEST DUP2 EQ PUSH2 0x4D4 JUMPI PUSH0 DUP1 REVERT JUMPDEST POP JUMP JUMPDEST PUSH0 DUP2 CALLDATALOAD SWAP1 POP PUSH2 0x4E5 DUP2 PUSH2 0x4C1 JUMP JUMPDEST SWAP3 SWAP2 POP POP JUMP JUMPDEST PUSH0 DUP1 PUSH0 PUSH1 0x60 DUP5 DUP7 SUB SLT ISZERO PUSH2 0x502 JUMPI PUSH2 0x501 PUSH2 0x4B4 JUMP JUMPDEST JUMPDEST PUSH0 PUSH2 0x50F DUP7 DUP3 DUP8 ADD PUSH2 0x4D7 JUMP JUMPDEST SWAP4 POP POP PUSH1 0x20 PUSH2 0x520 DUP7 DUP3 DUP8 ADD PUSH2 0x4D7 JUMP JUMPDEST SWAP3 POP POP PUSH1 0x40 PUSH2 0x531 DUP7 DUP3 DUP8 ADD PUSH2 0x4D7 JUMP JUMPDEST SWAP2 POP POP SWAP3 POP SWAP3 POP SWAP3 JUMP JUMPDEST PUSH0 DUP2 ISZERO ISZERO SWAP1 POP SWAP2 SWAP1 POP JUMP JUMPDEST PUSH2 0x54F DUP2 PUSH2 0x53B JUMP JUMPDEST DUP3 MSTORE POP POP JUMP JUMPDEST PUSH0 PUSH1 0x20 DUP3 ADD SWAP1 POP PUSH2 0x568 PUSH0 DUP4 ADD DUP5 PUSH2 0x546 JUMP JUMPDEST SWAP3 SWAP2 POP POP JUMP JUMPDEST PUSH0 DUP2 MLOAD SWAP1 POP SWAP2 SWAP1 POP JUMP JUMPDEST PUSH0 DUP3 DUP3 MSTORE PUSH1 0x20 DUP3 ADD SWAP1 POP SWAP3 SWAP2 POP POP JUMP JUMPDEST DUP3 DUP2 DUP4 MCOPY PUSH0 DUP4 DUP4 ADD MSTORE POP POP POP JUMP JUMPDEST PUSH0 PUSH1 0x1F NOT PUSH1 0x1F DUP4 ADD AND SWAP1 POP SWAP2 SWAP1 POP JUMP JUMPDEST PUSH0 PUSH2 0x5B0 DUP3 PUSH2 0x56E JUMP JUMPDEST PUSH2 0x5BA DUP2 DUP6 PUSH2 0x578 JUMP JUMPDEST SWAP4 POP PUSH2 0x5CA DUP2 DUP6 PUSH1 0x20 DUP7 ADD PUSH2 0x588 JUMP JUMPDEST PUSH2 0x5D3 DUP2 PUSH2 0x596 JUMP JUMPDEST DUP5 ADD SWAP2 POP POP SWAP3 SWAP2 POP POP JUMP JUMPDEST PUSH0 PUSH1 0x20 DUP3 ADD SWAP1 POP DUP2 DUP2 SUB PUSH0 DUP4 ADD MSTORE PUSH2 0x5F6 DUP2 DUP5 PUSH2 0x5A6 JUMP JUMPDEST SWAP1 POP SWAP3 SWAP2 POP POP JUMP JUMPDEST PUSH32 0x4E487B7100000000000000000000000000000000000000000000000000000000 PUSH0 MSTORE PUSH1 0x11 PUSH1 0x4 MSTORE PUSH1 0x24 PUSH0 REVERT JUMPDEST PUSH0 PUSH2 0x635 DUP3 PUSH2 0x4B8 JUMP JUMPDEST SWAP2 POP PUSH2 0x640 DUP4 PUSH2 0x4B8 JUMP JUMPDEST SWAP3 POP DUP3 DUP3 ADD SWAP1 POP DUP3 DUP2 SLT ISZERO PUSH0 DUP4 SLT AND DUP4 DUP3 SLT PUSH0 DUP5 SLT ISZERO AND OR ISZERO PUSH2 0x666 JUMPI PUSH2 0x665 PUSH2 0x5FE JUMP JUMPDEST JUMPDEST SWAP3 SWAP2 POP POP JUMP JUMPDEST PUSH32 0x4E487B7100000000000000000000000000000000000000000000000000000000 PUSH0 MSTORE PUSH1 0x12 PUSH1 0x4 MSTORE PUSH1 0x24 PUSH0 REVERT JUMPDEST PUSH0 PUSH2 0x6A3 DUP3 PUSH2 0x4B8 JUMP JUMPDEST SWAP2 POP PUSH2 0x6AE DUP4 PUSH2 0x4B8 JUMP JUMPDEST SWAP3 POP DUP3 PUSH2 0x6BE JUMPI PUSH2 0x6BD PUSH2 0x66C JUMP JUMPDEST JUMPDEST PUSH1 0x1 PUSH0 SUB DUP4 EQ PUSH32 0x8000000000000000000000000000000000000000000000000000000000000000 DUP4 EQ AND ISZERO PUSH2 0x6F6 JUMPI PUSH2 0x6F5 PUSH2 0x5FE JUMP JUMPDEST JUMPDEST DUP3 DUP3 SDIV SWAP1 POP SWAP3 SWAP2 POP POP JUMP JUMPDEST PUSH0 PUSH2 0x70B DUP3 PUSH2 0x4B8 JUMP JUMPDEST SWAP2 POP PUSH2 0x716 DUP4 PUSH2 0x4B8 JUMP JUMPDEST SWAP3 POP DUP3 DUP3 SUB SWAP1 POP DUP2 DUP2 SLT PUSH0 DUP5 SLT AND DUP3 DUP3 SGT PUSH0 DUP6 SLT ISZERO AND OR ISZERO PUSH2 0x73B JUMPI PUSH2 0x73A PUSH2 0x5FE JUMP JUMPDEST JUMPDEST SWAP3 SWAP2 POP POP JUMP JUMPDEST PUSH0 PUSH2 0x74B DUP3 PUSH2 0x4B8 JUMP JUMPDEST SWAP2 POP PUSH2 0x756 DUP4 PUSH2 0x4B8 JUMP JUMPDEST SWAP3 POP DUP3 DUP3 MUL PUSH2 0x764 DUP2 PUSH2 0x4B8 JUMP JUMPDEST SWAP2 POP PUSH32 0x8000000000000000000000000000000000000000000000000000000000000000 DUP5 EQ PUSH0 DUP5 SLT AND ISZERO PUSH2 0x79B JUMPI PUSH2 0x79A PUSH2 0x5FE JUMP JUMPDEST JUMPDEST DUP3 DUP3 SDIV DUP5 EQ DUP4 ISZERO OR PUSH2 0x7B0 JUMPI PUSH2 0x7AF PUSH2 0x5FE JUMP JUMPDEST JUMPDEST POP SWAP3 SWAP2 POP POP JUMP JUMPDEST PUSH0 DUP2 SWAP1 POP SWAP3 SWAP2 POP POP JUMP JUMPDEST PUSH32 0x417265612063616E27742062652065786163746C792063616C63756C61746564 PUSH0 DUP3 ADD MSTORE PUSH32 0x20696E20536F6C6964697479207769746820696E746567657273000000000000 PUSH1 0x20 DUP3 ADD MSTORE POP JUMP JUMPDEST PUSH0 PUSH2 0x81B PUSH1 0x3A DUP4 PUSH2 0x7B7 JUMP JUMPDEST SWAP2 POP PUSH2 0x826 DUP3 PUSH2 0x7C1 JUMP JUMPDEST PUSH1 0x3A DUP3 ADD SWAP1 POP SWAP2 SWAP1 POP JUMP JUMPDEST PUSH0 PUSH2 0x83B DUP3 PUSH2 0x80F JUMP JUMPDEST SWAP2 POP DUP2 SWAP1 POP SWAP2 SWAP1 POP JUMP INVALID LOG2 PUSH5 0x6970667358 0x22 SLT KECCAK256 SWAP12 0x4C 0xBA BLOCKHASH 0xEB MSIZE ISZERO 0xE1 0xA7 0xE1 0x26 0xC5 CALLDATASIZE SSTORE PUSH19 0xCCF369EAF0423BD3B477E38D5B9709E85C6473 PUSH16 0x6C634300081A00330000000000000000 "
				},
				"gasEstimates": {
					"creation": {
						"codeDepositCost": "434200",
						"executionCost": "466",
						"totalCost": "434666"
					},
					"external": {
						"calculateArea(int256,int256,int256)": "infinite",
						"findType(int256,int256,int256)": "infinite",
						"isValidTriangle(int256,int256,int256)": "infinite"
					}
				},
				"methodIdentifiers": {
					"calculateArea(int256,int256,int256)": "951723aa",
					"findType(int256,int256,int256)": "bea88988",
					"isValidTriangle(int256,int256,int256)": "31df7cc8"
				}
			},
			"storageLayout": {
				"storage": [],
				"types": null
			},
			"userdoc": {
				"kind": "user",
				"methods": {},
				"version": 1
			}
		}
	}
}