{
	"data": {
		"bytecode": {
			"linkReferences": {
				"Day07/Maths1.sol": {
					"Maths1": [
						{
							"length": 20,
							"start": 360
						},
						{
							"length": 20,
							"start": 486
						},
						{
							"length": 20,
							"start": 615
						},
						{
							"length": 20,
							"start": 744
						},
						{
							"length": 20,
							"start": 870
						}
					]
				}
			},
			"object": "6080604052348015600e575f80fd5b506105d98061001c5f395ff3fe608060405234801561000f575f80fd5b5060043610610055575f3560e01c806361047ff41461005957806365bc678e14610089578063794cd88f146100b957806383714834146100e9578063b6e1293614610119575b5f80fd5b610073600480360381019061006e91906103fc565b610149565b6040516100809190610436565b60405180910390f35b6100a3600480360381019061009e919061044f565b6101c7565b6040516100b09190610436565b60405180910390f35b6100d360048036038101906100ce919061044f565b610248565b6040516100e09190610436565b60405180910390f35b61010360048036038101906100fe91906103fc565b6102c9565b6040516101109190610436565b60405180910390f35b610133600480360381019061012e91906103fc565b610347565b60405161014091906104a7565b60405180910390f35b5f73__$2949501c65503b97dc311edf8f92252338$__6361047ff4836040518263ffffffff1660e01b815260040161018191906104cf565b602060405180830381865af415801561019c573d5f803e3d5ffd5b505050506040513d601f19601f820116820180604052508101906101c091906104fc565b9050919050565b5f73__$2949501c65503b97dc311edf8f92252338$__6365bc678e84846040518363ffffffff1660e01b8152600401610201929190610527565b602060405180830381865af415801561021c573d5f803e3d5ffd5b505050506040513d601f19601f8201168201806040525081019061024091906104fc565b905092915050565b5f73__$2949501c65503b97dc311edf8f92252338$__63794cd88f84846040518363ffffffff1660e01b8152600401610282929190610527565b602060405180830381865af415801561029d573d5f803e3d5ffd5b505050506040513d601f19601f820116820180604052508101906102c191906104fc565b905092915050565b5f73__$2949501c65503b97dc311edf8f92252338$__6383714834836040518263ffffffff1660e01b815260040161030191906104cf565b602060405180830381865af415801561031c573d5f803e3d5ffd5b505050506040513d601f19601f8201168201806040525081019061034091906104fc565b9050919050565b5f73__$2949501c65503b97dc311edf8f92252338$__63b6e12936836040518263ffffffff1660e01b815260040161037f91906104cf565b602060405180830381865af415801561039a573d5f803e3d5ffd5b505050506040513d601f19601f820116820180604052508101906103be9190610578565b9050919050565b5f80fd5b5f819050919050565b6103db816103c9565b81146103e5575f80fd5b50565b5f813590506103f6816103d2565b92915050565b5f60208284031215610411576104106103c5565b5b5f61041e848285016103e8565b91505092915050565b610430816103c9565b82525050565b5f6020820190506104495f830184610427565b92915050565b5f8060408385031215610465576104646103c5565b5b5f610472858286016103e8565b9250506020610483858286016103e8565b9150509250929050565b5f8115159050919050565b6104a18161048d565b82525050565b5f6020820190506104ba5f830184610498565b92915050565b6104c9816103c9565b82525050565b5f6020820190506104e25f8301846104c0565b92915050565b5f815190506104f6816103d2565b92915050565b5f60208284031215610511576105106103c5565b5b5f61051e848285016104e8565b91505092915050565b5f60408201905061053a5f8301856104c0565b61054760208301846104c0565b9392505050565b6105578161048d565b8114610561575f80fd5b50565b5f815190506105728161054e565b92915050565b5f6020828403121561058d5761058c6103c5565b5b5f61059a84828501610564565b9150509291505056fea26469706673582212205bb2701d99ff5179c6c5092a3000ad339da6f7563730222bbd6bf64ac91b8fa764736f6c634300081a0033",
			"opcodes": "PUSH1 0x80 PUSH1 0x40 MSTORE CALLVALUE DUP1 ISZERO PUSH1 0xE JUMPI PUSH0 DUP1 REVERT JUMPDEST POP PUSH2 0x5D9 DUP1 PUSH2 0x1C PUSH0 CODECOPY PUSH0 RETURN INVALID PUSH1 0x80 PUSH1 0x40 MSTORE CALLVALUE DUP1 ISZERO PUSH2 0xF JUMPI PUSH0 DUP1 REVERT JUMPDEST POP PUSH1 0x4 CALLDATASIZE LT PUSH2 0x55 JUMPI PUSH0 CALLDATALOAD PUSH1 0xE0 SHR DUP1 PUSH4 0x61047FF4 EQ PUSH2 0x59 JUMPI DUP1 PUSH4 0x65BC678E EQ PUSH2 0x89 JUMPI DUP1 PUSH4 0x794CD88F EQ PUSH2 0xB9 JUMPI DUP1 PUSH4 0x83714834 EQ PUSH2 0xE9 JUMPI DUP1 PUSH4 0xB6E12936 EQ PUSH2 0x119 JUMPI JUMPDEST PUSH0 DUP1 REVERT JUMPDEST PUSH2 0x73 PUSH1 0x4 DUP1 CALLDATASIZE SUB DUP2 ADD SWAP1 PUSH2 0x6E SWAP2 SWAP1 PUSH2 0x3FC JUMP JUMPDEST PUSH2 0x149 JUMP JUMPDEST PUSH1 0x40 MLOAD PUSH2 0x80 SWAP2 SWAP1 PUSH2 0x436 JUMP JUMPDEST PUSH1 0x40 MLOAD DUP1 SWAP2 SUB SWAP1 RETURN JUMPDEST PUSH2 0xA3 PUSH1 0x4 DUP1 CALLDATASIZE SUB DUP2 ADD SWAP1 PUSH2 0x9E SWAP2 SWAP1 PUSH2 0x44F JUMP JUMPDEST PUSH2 0x1C7 JUMP JUMPDEST PUSH1 0x40 MLOAD PUSH2 0xB0 SWAP2 SWAP1 PUSH2 0x436 JUMP JUMPDEST PUSH1 0x40 MLOAD DUP1 SWAP2 SUB SWAP1 RETURN JUMPDEST PUSH2 0xD3 PUSH1 0x4 DUP1 CALLDATASIZE SUB DUP2 ADD SWAP1 PUSH2 0xCE SWAP2 SWAP1 PUSH2 0x44F JUMP JUMPDEST PUSH2 0x248 JUMP JUMPDEST PUSH1 0x40 MLOAD PUSH2 0xE0 SWAP2 SWAP1 PUSH2 0x436 JUMP JUMPDEST PUSH1 0x40 MLOAD DUP1 SWAP2 SUB SWAP1 RETURN JUMPDEST PUSH2 0x103 PUSH1 0x4 DUP1 CALLDATASIZE SUB DUP2 ADD SWAP1 PUSH2 0xFE SWAP2 SWAP1 PUSH2 0x3FC JUMP JUMPDEST PUSH2 0x2C9 JUMP JUMPDEST PUSH1 0x40 MLOAD PUSH2 0x110 SWAP2 SWAP1 PUSH2 0x436 JUMP JUMPDEST PUSH1 0x40 MLOAD DUP1 SWAP2 SUB SWAP1 RETURN JUMPDEST PUSH2 0x133 PUSH1 0x4 DUP1 CALLDATASIZE SUB DUP2 ADD SWAP1 PUSH2 0x12E SWAP2 SWAP1 PUSH2 0x3FC JUMP JUMPDEST PUSH2 0x347 JUMP JUMPDEST PUSH1 0x40 MLOAD PUSH2 0x140 SWAP2 SWAP1 PUSH2 0x4A7 JUMP JUMPDEST PUSH1 0x40 MLOAD DUP1 SWAP2 SUB SWAP1 RETURN JUMPDEST PUSH0 PUSH20 0x0 PUSH4 0x61047FF4 DUP4 PUSH1 0x40 MLOAD DUP3 PUSH4 0xFFFFFFFF AND PUSH1 0xE0 SHL DUP2 MSTORE PUSH1 0x4 ADD PUSH2 0x181 SWAP2 SWAP1 PUSH2 0x4CF JUMP JUMPDEST PUSH1 0x20 PUSH1 0x40 MLOAD DUP1 DUP4 SUB DUP2 DUP7 GAS DELEGATECALL ISZERO DUP1 ISZERO PUSH2 0x19C JUMPI RETURNDATASIZE PUSH0 DUP1 RETURNDATACOPY RETURNDATASIZE PUSH0 REVERT JUMPDEST POP POP POP POP PUSH1 0x40 MLOAD RETURNDATASIZE PUSH1 0x1F NOT PUSH1 0x1F DUP3 ADD AND DUP3 ADD DUP1 PUSH1 0x40 MSTORE POP DUP2 ADD SWAP1 PUSH2 0x1C0 SWAP2 SWAP1 PUSH2 0x4FC JUMP JUMPDEST SWAP1 POP SWAP2 SWAP1 POP JUMP JUMPDEST PUSH0 PUSH20 0x0 PUSH4 0x65BC678E DUP5 DUP5 PUSH1 0x40 MLOAD DUP4 PUSH4 0xFFFFFFFF AND PUSH1 0xE0 SHL DUP2 MSTORE PUSH1 0x4 ADD PUSH2 0x201 SWAP3 SWAP2 SWAP1 PUSH2 0x527 JUMP JUMPDEST PUSH1 0x20 PUSH1 0x40 MLOAD DUP1 DUP4 SUB DUP2 DUP7 GAS DELEGATECALL ISZERO DUP1 ISZERO PUSH2 0x21C JUMPI RETURNDATASIZE PUSH0 DUP1 RETURNDATACOPY RETURNDATASIZE PUSH0 REVERT JUMPDEST POP POP POP POP PUSH1 0x40 MLOAD RETURNDATASIZE PUSH1 0x1F NOT PUSH1 0x1F DUP3 ADD AND DUP3 ADD DUP1 PUSH1 0x40 MSTORE POP DUP2 ADD SWAP1 PUSH2 0x240 SWAP2 SWAP1 PUSH2 0x4FC JUMP JUMPDEST SWAP1 POP SWAP3 SWAP2 POP POP JUMP JUMPDEST PUSH0 PUSH20 0x0 PUSH4 0x794CD88F DUP5 DUP5 PUSH1 0x40 MLOAD DUP4 PUSH4 0xFFFFFFFF AND PUSH1 0xE0 SHL DUP2 MSTORE PUSH1 0x4 ADD PUSH2 0x282 SWAP3 SWAP2 SWAP1 PUSH2 0x527 JUMP JUMPDEST PUSH1 0x20 PUSH1 0x40 MLOAD DUP1 DUP4 SUB DUP2 DUP7 GAS DELEGATECALL ISZERO DUP1 ISZERO PUSH2 0x29D JUMPI RETURNDATASIZE PUSH0 DUP1 RETURNDATACOPY RETURNDATASIZE PUSH0 REVERT JUMPDEST POP POP POP POP PUSH1 0x40 MLOAD RETURNDATASIZE PUSH1 0x1F NOT PUSH1 0x1F DUP3 ADD AND DUP3 ADD DUP1 PUSH1 0x40 MSTORE POP DUP2 ADD SWAP1 PUSH2 0x2C1 SWAP2 SWAP1 PUSH2 0x4FC JUMP JUMPDEST SWAP1 POP SWAP3 SWAP2 POP POP JUMP JUMPDEST PUSH0 PUSH20 0x0 PUSH4 0x83714834 DUP4 PUSH1 0x40 MLOAD DUP3 PUSH4 0xFFFFFFFF AND PUSH1 0xE0 SHL DUP2 MSTORE PUSH1 0x4 ADD PUSH2 0x301 SWAP2 SWAP1 PUSH2 0x4CF JUMP JUMPDEST PUSH1 0x20 PUSH1 0x40 MLOAD DUP1 DUP4 SUB DUP2 DUP7 GAS DELEGATECALL ISZERO DUP1 ISZERO PUSH2 0x31C JUMPI RETURNDATASIZE PUSH0 DUP1 RETURNDATACOPY RETURNDATASIZE PUSH0 REVERT JUMPDEST POP POP POP POP PUSH1 0x40 MLOAD RETURNDATASIZE PUSH1 0x1F NOT PUSH1 0x1F DUP3 ADD AND DUP3 ADD DUP1 PUSH1 0x40 MSTORE POP DUP2 ADD SWAP1 PUSH2 0x340 SWAP2 SWAP1 PUSH2 0x4FC JUMP JUMPDEST SWAP1 POP SWAP2 SWAP1 POP JUMP JUMPDEST PUSH0 PUSH20 0x0 PUSH4 0xB6E12936 DUP4 PUSH1 0x40 MLOAD DUP3 PUSH4 0xFFFFFFFF AND PUSH1 0xE0 SHL DUP2 MSTORE PUSH1 0x4 ADD PUSH2 0x37F SWAP2 SWAP1 PUSH2 0x4CF JUMP JUMPDEST PUSH1 0x20 PUSH1 0x40 MLOAD DUP1 DUP4 SUB DUP2 DUP7 GAS DELEGATECALL ISZERO DUP1 ISZERO PUSH2 0x39A JUMPI RETURNDATASIZE PUSH0 DUP1 RETURNDATACOPY RETURNDATASIZE PUSH0 REVERT JUMPDEST POP POP POP POP PUSH1 0x40 MLOAD RETURNDATASIZE PUSH1 0x1F NOT PUSH1 0x1F DUP3 ADD AND DUP3 ADD DUP1 PUSH1 0x40 MSTORE POP DUP2 ADD SWAP1 PUSH2 0x3BE SWAP2 SWAP1 PUSH2 0x578 JUMP JUMPDEST SWAP1 POP SWAP2 SWAP1 POP JUMP JUMPDEST PUSH0 DUP1 REVERT JUMPDEST PUSH0 DUP2 SWAP1 POP SWAP2 SWAP1 POP JUMP JUMPDEST PUSH2 0x3DB DUP2 PUSH2 0x3C9 JUMP JUMPDEST DUP2 EQ PUSH2 0x3E5 JUMPI PUSH0 DUP1 REVERT JUMPDEST POP JUMP JUMPDEST PUSH0 DUP2 CALLDATALOAD SWAP1 POP PUSH2 0x3F6 DUP2 PUSH2 0x3D2 JUMP JUMPDEST SWAP3 SWAP2 POP POP JUMP JUMPDEST PUSH0 PUSH1 0x20 DUP3 DUP5 SUB SLT ISZERO PUSH2 0x411 JUMPI PUSH2 0x410 PUSH2 0x3C5 JUMP JUMPDEST JUMPDEST PUSH0 PUSH2 0x41E DUP5 DUP3 DUP6 ADD PUSH2 0x3E8 JUMP JUMPDEST SWAP2 POP POP SWAP3 SWAP2 POP POP JUMP JUMPDEST PUSH2 0x430 DUP2 PUSH2 0x3C9 JUMP JUMPDEST DUP3 MSTORE POP POP JUMP JUMPDEST PUSH0 PUSH1 0x20 DUP3 ADD SWAP1 POP PUSH2 0x449 PUSH0 DUP4 ADD DUP5 PUSH2 0x427 JUMP JUMPDEST SWAP3 SWAP2 POP POP JUMP JUMPDEST PUSH0 DUP1 PUSH1 0x40 DUP4 DUP6 SUB SLT ISZERO PUSH2 0x465 JUMPI PUSH2 0x464 PUSH2 0x3C5 JUMP JUMPDEST JUMPDEST PUSH0 PUSH2 0x472 DUP6 DUP3 DUP7 ADD PUSH2 0x3E8 JUMP JUMPDEST SWAP3 POP POP PUSH1 0x20 PUSH2 0x483 DUP6 DUP3 DUP7 ADD PUSH2 0x3E8 JUMP JUMPDEST SWAP2 POP POP SWAP3 POP SWAP3 SWAP1 POP JUMP JUMPDEST PUSH0 DUP2 ISZERO ISZERO SWAP1 POP SWAP2 SWAP1 POP JUMP JUMPDEST PUSH2 0x4A1 DUP2 PUSH2 0x48D JUMP JUMPDEST DUP3 MSTORE POP POP JUMP JUMPDEST PUSH0 PUSH1 0x20 DUP3 ADD SWAP1 POP PUSH2 0x4BA PUSH0 DUP4 ADD DUP5 PUSH2 0x498 JUMP JUMPDEST SWAP3 SWAP2 POP POP JUMP JUMPDEST PUSH2 0x4C9 DUP2 PUSH2 0x3C9 JUMP JUMPDEST DUP3 MSTORE POP POP JUMP JUMPDEST PUSH0 PUSH1 0x20 DUP3 ADD SWAP1 POP PUSH2 0x4E2 PUSH0 DUP4 ADD DUP5 PUSH2 0x4C0 JUMP JUMPDEST SWAP3 SWAP2 POP POP JUMP JUMPDEST PUSH0 DUP2 MLOAD SWAP1 POP PUSH2 0x4F6 DUP2 PUSH2 0x3D2 JUMP JUMPDEST SWAP3 SWAP2 POP POP JUMP JUMPDEST PUSH0 PUSH1 0x20 DUP3 DUP5 SUB SLT ISZERO PUSH2 0x511 JUMPI PUSH2 0x510 PUSH2 0x3C5 JUMP JUMPDEST JUMPDEST PUSH0 PUSH2 0x51E DUP5 DUP3 DUP6 ADD PUSH2 0x4E8 JUMP JUMPDEST SWAP2 POP POP SWAP3 SWAP2 POP POP JUMP JUMPDEST PUSH0 PUSH1 0x40 DUP3 ADD SWAP1 POP PUSH2 0x53A PUSH0 DUP4 ADD DUP6 PUSH2 0x4C0 JUMP JUMPDEST PUSH2 0x547 PUSH1 0x20 DUP4 ADD DUP5 PUSH2 0x4C0 JUMP JUMPDEST SWAP4 SWAP3 POP POP POP JUMP JUMPDEST PUSH2 0x557 DUP2 PUSH2 0x48D JUMP JUMPDEST DUP2 EQ PUSH2 0x561 JUMPI PUSH0 DUP1 REVERT JUMPDEST POP JUMP JUMPDEST PUSH0 DUP2 MLOAD SWAP1 POP PUSH2 0x572 DUP2 PUSH2 0x54E JUMP JUMPDEST SWAP3 SWAP2 POP POP JUMP JUMPDEST PUSH0 PUSH1 0x20 DUP3 DUP5 SUB SLT ISZERO PUSH2 0x58D JUMPI PUSH2 0x58C PUSH2 0x3C5 JUMP JUMPDEST JUMPDEST PUSH0 PUSH2 0x59A DUP5 DUP3 DUP6 ADD PUSH2 0x564 JUMP JUMPDEST SWAP2 POP POP SWAP3 SWAP2 POP POP JUMP INVALID LOG2 PUSH5 0x6970667358 0x22 SLT KECCAK256 JUMPDEST 0xB2 PUSH17 0x1D99FF5179C6C5092A3000AD339DA6F756 CALLDATACOPY ADDRESS 0x22 0x2B 0xBD PUSH12 0xF64AC91B8FA764736F6C6343 STOP ADDMOD BYTE STOP CALLER "
		},
		"gasEstimates": {
			"creation": {
				"codeDepositCost": "299400",
				"executionCost": "335",
				"totalCost": "299735"
			},
			"external": {
				"checkArmstrong(uint256)": "infinite",
				"factorial(uint256)": "infinite",
				"fibonacci(uint256)": "infinite",
				"maximumOFTwo(uint256,uint256)": "infinite",
				"minimumOFTwo(uint256,uint256)": "infinite"
			}
		},
		"methodIdentifiers": {
			"checkArmstrong(uint256)": "b6e12936",
			"factorial(uint256)": "83714834",
			"fibonacci(uint256)": "61047ff4",
			"maximumOFTwo(uint256,uint256)": "794cd88f",
			"minimumOFTwo(uint256,uint256)": "65bc678e"
		}
	},
	"abi": [
		{
			"inputs": [
				{
					"internalType": "uint256",
					"name": "n",
					"type": "uint256"
				}
			],
			"name": "checkArmstrong",
			"outputs": [
				{
					"internalType": "bool",
					"name": "",
					"type": "bool"
				}
			],
			"stateMutability": "pure",
			"type": "function"
		},
		{
			"inputs": [
				{
					"internalType": "uint256",
					"name": "n",
					"type": "uint256"
				}
			],
			"name": "factorial",
			"outputs": [
				{
					"internalType": "uint256",
					"name": "",
					"type": "uint256"
				}
			],
			"stateMutability": "pure",
			"type": "function"
		},
		{
			"inputs": [
				{
					"internalType": "uint256",
					"name": "n",
					"type": "uint256"
				}
			],
			"name": "fibonacci",
			"outputs": [
				{
					"internalType": "uint256",
					"name": "",
					"type": "uint256"
				}
			],
			"stateMutability": "pure",
			"type": "function"
		},
		{
			"inputs": [
				{
					"internalType": "uint256",
					"name": "x",
					"type": "uint256"
				},
				{
					"internalType": "uint256",
					"name": "y",
					"type": "uint256"
				}
			],
			"name": "maximumOFTwo",
			"outputs": [
				{
					"internalType": "uint256",
					"name": "",
					"type": "uint256"
				}
			],
			"stateMutability": "pure",
			"type": "function"
		},
		{
			"inputs": [
				{
					"internalType": "uint256",
					"name": "x",
					"type": "uint256"
				},
				{
					"internalType": "uint256",
					"name": "y",
					"type": "uint256"
				}
			],
			"name": "minimumOFTwo",
			"outputs": [
				{
					"internalType": "uint256",
					"name": "",
					"type": "uint256"
				}
			],
			"stateMutability": "pure",
			"type": "function"
		}
	]
}