{
	"data": {
		"bytecode": {
			"linkReferences": {},
			"object": "6080604052348015600e575f80fd5b5061064a8061001c5f395ff3fe608060405234801561000f575f80fd5b506004361061003f575f3560e01c806303a66d511461004357806371e5ee5f1461005f578063d504ea1d1461008f575b5f80fd5b61005d60048036038101906100589190610296565b6100ad565b005b610079600480360381019061007491906102d4565b6101eb565b604051610086919061030e565b60405180910390f35b61009761020a565b6040516100a491906103de565b60405180910390f35b5f805490508211156100f4576040517f08c379a00000000000000000000000000000000000000000000000000000000081526004016100eb90610458565b60405180910390fd5b5f808060018154018082558091505060019003905f5260205f20015f90919091909150555f60015f8054905061012a91906104a3565b90505b8281111561018f575f60018261014391906104a3565b81548110610154576101536104d6565b5b905f5260205f2001545f82815481106101705761016f6104d6565b5b905f5260205f200181905550808061018790610503565b91505061012d565b50805f83815481106101a4576101a36104d6565b5b905f5260205f2001819055507fb3daaae65aa3d3afd88decdeaee568c8305d8e3d0141b9a8266e33081cbb7b4f5f6040516101df91906105f4565b60405180910390a15050565b5f81815481106101f9575f80fd5b905f5260205f20015f915090505481565b60605f80548060200260200160405190810160405280929190818152602001828054801561025557602002820191905f5260205f20905b815481526020019060010190808311610241575b5050505050905090565b5f80fd5b5f819050919050565b61027581610263565b811461027f575f80fd5b50565b5f813590506102908161026c565b92915050565b5f80604083850312156102ac576102ab61025f565b5b5f6102b985828601610282565b92505060206102ca85828601610282565b9150509250929050565b5f602082840312156102e9576102e861025f565b5b5f6102f684828501610282565b91505092915050565b61030881610263565b82525050565b5f6020820190506103215f8301846102ff565b92915050565b5f81519050919050565b5f82825260208201905092915050565b5f819050602082019050919050565b61035981610263565b82525050565b5f61036a8383610350565b60208301905092915050565b5f602082019050919050565b5f61038c82610327565b6103968185610331565b93506103a183610341565b805f5b838110156103d15781516103b8888261035f565b97506103c383610376565b9250506001810190506103a4565b5085935050505092915050565b5f6020820190508181035f8301526103f68184610382565b905092915050565b5f82825260208201905092915050565b7f506f736974696f6e206f7574206f6620626f756e6473000000000000000000005f82015250565b5f6104426016836103fe565b915061044d8261040e565b602082019050919050565b5f6020820190508181035f83015261046f81610436565b9050919050565b7f4e487b71000000000000000000000000000000000000000000000000000000005f52601160045260245ffd5b5f6104ad82610263565b91506104b883610263565b92508282039050818111156104d0576104cf610476565b5b92915050565b7f4e487b71000000000000000000000000000000000000000000000000000000005f52603260045260245ffd5b5f61050d82610263565b91505f820361051f5761051e610476565b5b600182039050919050565b5f81549050919050565b5f819050815f5260205f209050919050565b5f815f1c9050919050565b5f819050919050565b5f61056c61056783610546565b610551565b9050919050565b5f61057e825461055a565b9050919050565b5f600182019050919050565b5f61059b8261052a565b6105a58185610331565b93506105b083610534565b805f5b838110156105e7576105c482610573565b6105ce888261035f565b97506105d983610585565b9250506001810190506105b3565b5085935050505092915050565b5f6020820190508181035f83015261060c8184610591565b90509291505056fea26469706673582212209a149a36b06b8722da37555bedf9f2939c7c8f60b8fba648f59e878e17b7e55b64736f6c634300081a0033",
			"opcodes": "PUSH1 0x80 PUSH1 0x40 MSTORE CALLVALUE DUP1 ISZERO PUSH1 0xE JUMPI PUSH0 DUP1 REVERT JUMPDEST POP PUSH2 0x64A DUP1 PUSH2 0x1C PUSH0 CODECOPY PUSH0 RETURN INVALID PUSH1 0x80 PUSH1 0x40 MSTORE CALLVALUE DUP1 ISZERO PUSH2 0xF JUMPI PUSH0 DUP1 REVERT JUMPDEST POP PUSH1 0x4 CALLDATASIZE LT PUSH2 0x3F JUMPI PUSH0 CALLDATALOAD PUSH1 0xE0 SHR DUP1 PUSH4 0x3A66D51 EQ PUSH2 0x43 JUMPI DUP1 PUSH4 0x71E5EE5F EQ PUSH2 0x5F JUMPI DUP1 PUSH4 0xD504EA1D EQ PUSH2 0x8F JUMPI JUMPDEST PUSH0 DUP1 REVERT JUMPDEST PUSH2 0x5D PUSH1 0x4 DUP1 CALLDATASIZE SUB DUP2 ADD SWAP1 PUSH2 0x58 SWAP2 SWAP1 PUSH2 0x296 JUMP JUMPDEST PUSH2 0xAD JUMP JUMPDEST STOP JUMPDEST PUSH2 0x79 PUSH1 0x4 DUP1 CALLDATASIZE SUB DUP2 ADD SWAP1 PUSH2 0x74 SWAP2 SWAP1 PUSH2 0x2D4 JUMP JUMPDEST PUSH2 0x1EB JUMP JUMPDEST PUSH1 0x40 MLOAD PUSH2 0x86 SWAP2 SWAP1 PUSH2 0x30E JUMP JUMPDEST PUSH1 0x40 MLOAD DUP1 SWAP2 SUB SWAP1 RETURN JUMPDEST PUSH2 0x97 PUSH2 0x20A JUMP JUMPDEST PUSH1 0x40 MLOAD PUSH2 0xA4 SWAP2 SWAP1 PUSH2 0x3DE JUMP JUMPDEST PUSH1 0x40 MLOAD DUP1 SWAP2 SUB SWAP1 RETURN JUMPDEST PUSH0 DUP1 SLOAD SWAP1 POP DUP3 GT ISZERO PUSH2 0xF4 JUMPI PUSH1 0x40 MLOAD PUSH32 0x8C379A000000000000000000000000000000000000000000000000000000000 DUP2 MSTORE PUSH1 0x4 ADD PUSH2 0xEB SWAP1 PUSH2 0x458 JUMP JUMPDEST PUSH1 0x40 MLOAD DUP1 SWAP2 SUB SWAP1 REVERT JUMPDEST PUSH0 DUP1 DUP1 PUSH1 0x1 DUP2 SLOAD ADD DUP1 DUP3 SSTORE DUP1 SWAP2 POP POP PUSH1 0x1 SWAP1 SUB SWAP1 PUSH0 MSTORE PUSH1 0x20 PUSH0 KECCAK256 ADD PUSH0 SWAP1 SWAP2 SWAP1 SWAP2 SWAP1 SWAP2 POP SSTORE PUSH0 PUSH1 0x1 PUSH0 DUP1 SLOAD SWAP1 POP PUSH2 0x12A SWAP2 SWAP1 PUSH2 0x4A3 JUMP JUMPDEST SWAP1 POP JUMPDEST DUP3 DUP2 GT ISZERO PUSH2 0x18F JUMPI PUSH0 PUSH1 0x1 DUP3 PUSH2 0x143 SWAP2 SWAP1 PUSH2 0x4A3 JUMP JUMPDEST DUP2 SLOAD DUP2 LT PUSH2 0x154 JUMPI PUSH2 0x153 PUSH2 0x4D6 JUMP JUMPDEST JUMPDEST SWAP1 PUSH0 MSTORE PUSH1 0x20 PUSH0 KECCAK256 ADD SLOAD PUSH0 DUP3 DUP2 SLOAD DUP2 LT PUSH2 0x170 JUMPI PUSH2 0x16F PUSH2 0x4D6 JUMP JUMPDEST JUMPDEST SWAP1 PUSH0 MSTORE PUSH1 0x20 PUSH0 KECCAK256 ADD DUP2 SWAP1 SSTORE POP DUP1 DUP1 PUSH2 0x187 SWAP1 PUSH2 0x503 JUMP JUMPDEST SWAP2 POP POP PUSH2 0x12D JUMP JUMPDEST POP DUP1 PUSH0 DUP4 DUP2 SLOAD DUP2 LT PUSH2 0x1A4 JUMPI PUSH2 0x1A3 PUSH2 0x4D6 JUMP JUMPDEST JUMPDEST SWAP1 PUSH0 MSTORE PUSH1 0x20 PUSH0 KECCAK256 ADD DUP2 SWAP1 SSTORE POP PUSH32 0xB3DAAAE65AA3D3AFD88DECDEAEE568C8305D8E3D0141B9A8266E33081CBB7B4F PUSH0 PUSH1 0x40 MLOAD PUSH2 0x1DF SWAP2 SWAP1 PUSH2 0x5F4 JUMP JUMPDEST PUSH1 0x40 MLOAD DUP1 SWAP2 SUB SWAP1 LOG1 POP POP JUMP JUMPDEST PUSH0 DUP2 DUP2 SLOAD DUP2 LT PUSH2 0x1F9 JUMPI PUSH0 DUP1 REVERT JUMPDEST SWAP1 PUSH0 MSTORE PUSH1 0x20 PUSH0 KECCAK256 ADD PUSH0 SWAP2 POP SWAP1 POP SLOAD DUP2 JUMP JUMPDEST PUSH1 0x60 PUSH0 DUP1 SLOAD DUP1 PUSH1 0x20 MUL PUSH1 0x20 ADD PUSH1 0x40 MLOAD SWAP1 DUP2 ADD PUSH1 0x40 MSTORE DUP1 SWAP3 SWAP2 SWAP1 DUP2 DUP2 MSTORE PUSH1 0x20 ADD DUP3 DUP1 SLOAD DUP1 ISZERO PUSH2 0x255 JUMPI PUSH1 0x20 MUL DUP3 ADD SWAP2 SWAP1 PUSH0 MSTORE PUSH1 0x20 PUSH0 KECCAK256 SWAP1 JUMPDEST DUP2 SLOAD DUP2 MSTORE PUSH1 0x20 ADD SWAP1 PUSH1 0x1 ADD SWAP1 DUP1 DUP4 GT PUSH2 0x241 JUMPI JUMPDEST POP POP POP POP POP SWAP1 POP SWAP1 JUMP JUMPDEST PUSH0 DUP1 REVERT JUMPDEST PUSH0 DUP2 SWAP1 POP SWAP2 SWAP1 POP JUMP JUMPDEST PUSH2 0x275 DUP2 PUSH2 0x263 JUMP JUMPDEST DUP2 EQ PUSH2 0x27F JUMPI PUSH0 DUP1 REVERT JUMPDEST POP JUMP JUMPDEST PUSH0 DUP2 CALLDATALOAD SWAP1 POP PUSH2 0x290 DUP2 PUSH2 0x26C JUMP JUMPDEST SWAP3 SWAP2 POP POP JUMP JUMPDEST PUSH0 DUP1 PUSH1 0x40 DUP4 DUP6 SUB SLT ISZERO PUSH2 0x2AC JUMPI PUSH2 0x2AB PUSH2 0x25F JUMP JUMPDEST JUMPDEST PUSH0 PUSH2 0x2B9 DUP6 DUP3 DUP7 ADD PUSH2 0x282 JUMP JUMPDEST SWAP3 POP POP PUSH1 0x20 PUSH2 0x2CA DUP6 DUP3 DUP7 ADD PUSH2 0x282 JUMP JUMPDEST SWAP2 POP POP SWAP3 POP SWAP3 SWAP1 POP JUMP JUMPDEST PUSH0 PUSH1 0x20 DUP3 DUP5 SUB SLT ISZERO PUSH2 0x2E9 JUMPI PUSH2 0x2E8 PUSH2 0x25F JUMP JUMPDEST JUMPDEST PUSH0 PUSH2 0x2F6 DUP5 DUP3 DUP6 ADD PUSH2 0x282 JUMP JUMPDEST SWAP2 POP POP SWAP3 SWAP2 POP POP JUMP JUMPDEST PUSH2 0x308 DUP2 PUSH2 0x263 JUMP JUMPDEST DUP3 MSTORE POP POP JUMP JUMPDEST PUSH0 PUSH1 0x20 DUP3 ADD SWAP1 POP PUSH2 0x321 PUSH0 DUP4 ADD DUP5 PUSH2 0x2FF JUMP JUMPDEST SWAP3 SWAP2 POP POP JUMP JUMPDEST PUSH0 DUP2 MLOAD SWAP1 POP SWAP2 SWAP1 POP JUMP JUMPDEST PUSH0 DUP3 DUP3 MSTORE PUSH1 0x20 DUP3 ADD SWAP1 POP SWAP3 SWAP2 POP POP JUMP JUMPDEST PUSH0 DUP2 SWAP1 POP PUSH1 0x20 DUP3 ADD SWAP1 POP SWAP2 SWAP1 POP JUMP JUMPDEST PUSH2 0x359 DUP2 PUSH2 0x263 JUMP JUMPDEST DUP3 MSTORE POP POP JUMP JUMPDEST PUSH0 PUSH2 0x36A DUP4 DUP4 PUSH2 0x350 JUMP JUMPDEST PUSH1 0x20 DUP4 ADD SWAP1 POP SWAP3 SWAP2 POP POP JUMP JUMPDEST PUSH0 PUSH1 0x20 DUP3 ADD SWAP1 POP SWAP2 SWAP1 POP JUMP JUMPDEST PUSH0 PUSH2 0x38C DUP3 PUSH2 0x327 JUMP JUMPDEST PUSH2 0x396 DUP2 DUP6 PUSH2 0x331 JUMP JUMPDEST SWAP4 POP PUSH2 0x3A1 DUP4 PUSH2 0x341 JUMP JUMPDEST DUP1 PUSH0 JUMPDEST DUP4 DUP2 LT ISZERO PUSH2 0x3D1 JUMPI DUP2 MLOAD PUSH2 0x3B8 DUP9 DUP3 PUSH2 0x35F JUMP JUMPDEST SWAP8 POP PUSH2 0x3C3 DUP4 PUSH2 0x376 JUMP JUMPDEST SWAP3 POP POP PUSH1 0x1 DUP2 ADD SWAP1 POP PUSH2 0x3A4 JUMP JUMPDEST POP DUP6 SWAP4 POP POP POP POP SWAP3 SWAP2 POP POP JUMP JUMPDEST PUSH0 PUSH1 0x20 DUP3 ADD SWAP1 POP DUP2 DUP2 SUB PUSH0 DUP4 ADD MSTORE PUSH2 0x3F6 DUP2 DUP5 PUSH2 0x382 JUMP JUMPDEST SWAP1 POP SWAP3 SWAP2 POP POP JUMP JUMPDEST PUSH0 DUP3 DUP3 MSTORE PUSH1 0x20 DUP3 ADD SWAP1 POP SWAP3 SWAP2 POP POP JUMP JUMPDEST PUSH32 0x506F736974696F6E206F7574206F6620626F756E647300000000000000000000 PUSH0 DUP3 ADD MSTORE POP JUMP JUMPDEST PUSH0 PUSH2 0x442 PUSH1 0x16 DUP4 PUSH2 0x3FE JUMP JUMPDEST SWAP2 POP PUSH2 0x44D DUP3 PUSH2 0x40E JUMP JUMPDEST PUSH1 0x20 DUP3 ADD SWAP1 POP SWAP2 SWAP1 POP JUMP JUMPDEST PUSH0 PUSH1 0x20 DUP3 ADD SWAP1 POP DUP2 DUP2 SUB PUSH0 DUP4 ADD MSTORE PUSH2 0x46F DUP2 PUSH2 0x436 JUMP JUMPDEST SWAP1 POP SWAP2 SWAP1 POP JUMP JUMPDEST PUSH32 0x4E487B7100000000000000000000000000000000000000000000000000000000 PUSH0 MSTORE PUSH1 0x11 PUSH1 0x4 MSTORE PUSH1 0x24 PUSH0 REVERT JUMPDEST PUSH0 PUSH2 0x4AD DUP3 PUSH2 0x263 JUMP JUMPDEST SWAP2 POP PUSH2 0x4B8 DUP4 PUSH2 0x263 JUMP JUMPDEST SWAP3 POP DUP3 DUP3 SUB SWAP1 POP DUP2 DUP2 GT ISZERO PUSH2 0x4D0 JUMPI PUSH2 0x4CF PUSH2 0x476 JUMP JUMPDEST JUMPDEST SWAP3 SWAP2 POP POP JUMP JUMPDEST PUSH32 0x4E487B7100000000000000000000000000000000000000000000000000000000 PUSH0 MSTORE PUSH1 0x32 PUSH1 0x4 MSTORE PUSH1 0x24 PUSH0 REVERT JUMPDEST PUSH0 PUSH2 0x50D DUP3 PUSH2 0x263 JUMP JUMPDEST SWAP2 POP PUSH0 DUP3 SUB PUSH2 0x51F JUMPI PUSH2 0x51E PUSH2 0x476 JUMP JUMPDEST JUMPDEST PUSH1 0x1 DUP3 SUB SWAP1 POP SWAP2 SWAP1 POP JUMP JUMPDEST PUSH0 DUP2 SLOAD SWAP1 POP SWAP2 SWAP1 POP JUMP JUMPDEST PUSH0 DUP2 SWAP1 POP DUP2 PUSH0 MSTORE PUSH1 0x20 PUSH0 KECCAK256 SWAP1 POP SWAP2 SWAP1 POP JUMP JUMPDEST PUSH0 DUP2 PUSH0 SHR SWAP1 POP SWAP2 SWAP1 POP JUMP JUMPDEST PUSH0 DUP2 SWAP1 POP SWAP2 SWAP1 POP JUMP JUMPDEST PUSH0 PUSH2 0x56C PUSH2 0x567 DUP4 PUSH2 0x546 JUMP JUMPDEST PUSH2 0x551 JUMP JUMPDEST SWAP1 POP SWAP2 SWAP1 POP JUMP JUMPDEST PUSH0 PUSH2 0x57E DUP3 SLOAD PUSH2 0x55A JUMP JUMPDEST SWAP1 POP SWAP2 SWAP1 POP JUMP JUMPDEST PUSH0 PUSH1 0x1 DUP3 ADD SWAP1 POP SWAP2 SWAP1 POP JUMP JUMPDEST PUSH0 PUSH2 0x59B DUP3 PUSH2 0x52A JUMP JUMPDEST PUSH2 0x5A5 DUP2 DUP6 PUSH2 0x331 JUMP JUMPDEST SWAP4 POP PUSH2 0x5B0 DUP4 PUSH2 0x534 JUMP JUMPDEST DUP1 PUSH0 JUMPDEST DUP4 DUP2 LT ISZERO PUSH2 0x5E7 JUMPI PUSH2 0x5C4 DUP3 PUSH2 0x573 JUMP JUMPDEST PUSH2 0x5CE DUP9 DUP3 PUSH2 0x35F JUMP JUMPDEST SWAP8 POP PUSH2 0x5D9 DUP4 PUSH2 0x585 JUMP JUMPDEST SWAP3 POP POP PUSH1 0x1 DUP2 ADD SWAP1 POP PUSH2 0x5B3 JUMP JUMPDEST POP DUP6 SWAP4 POP POP POP POP SWAP3 SWAP2 POP POP JUMP JUMPDEST PUSH0 PUSH1 0x20 DUP3 ADD SWAP1 POP DUP2 DUP2 SUB PUSH0 DUP4 ADD MSTORE PUSH2 0x60C DUP2 DUP5 PUSH2 0x591 JUMP JUMPDEST SWAP1 POP SWAP3 SWAP2 POP POP JUMP INVALID LOG2 PUSH5 0x6970667358 0x22 SLT KECCAK256 SWAP11 EQ SWAP11 CALLDATASIZE 0xB0 PUSH12 0x8722DA37555BEDF9F2939C7C DUP16 PUSH1 0xB8 0xFB 0xA6 BASEFEE CREATE2 SWAP15 DUP8 DUP15 OR 0xB7 0xE5 JUMPDEST PUSH5 0x736F6C6343 STOP ADDMOD BYTE STOP CALLER "
		},
		"gasEstimates": {
			"creation": {
				"codeDepositCost": "322000",
				"executionCost": "360",
				"totalCost": "322360"
			},
			"external": {
				"arr(uint256)": "infinite",
				"getArray()": "infinite",
				"insertAt(uint256,uint256)": "infinite"
			}
		},
		"methodIdentifiers": {
			"arr(uint256)": "71e5ee5f",
			"getArray()": "d504ea1d",
			"insertAt(uint256,uint256)": "03a66d51"
		}
	},
	"abi": [
		{
			"anonymous": false,
			"inputs": [
				{
					"indexed": false,
					"internalType": "uint256[]",
					"name": "updatedArray",
					"type": "uint256[]"
				}
			],
			"name": "ArrayUpdated",
			"type": "event"
		},
		{
			"inputs": [
				{
					"internalType": "uint256",
					"name": "",
					"type": "uint256"
				}
			],
			"name": "arr",
			"outputs": [
				{
					"internalType": "uint256",
					"name": "",
					"type": "uint256"
				}
			],
			"stateMutability": "view",
			"type": "function"
		},
		{
			"inputs": [],
			"name": "getArray",
			"outputs": [
				{
					"internalType": "uint256[]",
					"name": "",
					"type": "uint256[]"
				}
			],
			"stateMutability": "view",
			"type": "function"
		},
		{
			"inputs": [
				{
					"internalType": "uint256",
					"name": "position",
					"type": "uint256"
				},
				{
					"internalType": "uint256",
					"name": "value",
					"type": "uint256"
				}
			],
			"name": "insertAt",
			"outputs": [],
			"stateMutability": "nonpayable",
			"type": "function"
		}
	]
}