{
	"data": {
		"bytecode": {
			"linkReferences": {},
			"object": "6080604052348015600e575f80fd5b506108b18061001c5f395ff3fe608060405234801561000f575f80fd5b5060043610610029575f3560e01c8063b8e040be1461002d575b5f80fd5b61004760048036038101906100429190610490565b61005d565b6040516100549190610537565b60405180910390f35b60605f6040518060400160405280601081526020017f436f2d7072696d652070616972733a200000000000000000000000000000000081525090505f5b835181101561015e575f6001826100b19190610584565b90505b8451811015610150575f8583815181106100d1576100d06105b7565b5b602002602001015190505f8683815181106100ef576100ee6105b7565b5b6020026020010151905060016101058383610168565b03610141578461011483610195565b61011d83610195565b60405160200161012f939291906106fc565b60405160208183030381529060405294505b505080806001019150506100b4565b50808060010191505061009a565b5080915050919050565b5f5b5f821461018c575f8290508284610181919061077a565b92508093505061016a565b82905092915050565b60605f82036101db576040518060400160405280600181526020017f300000000000000000000000000000000000000000000000000000000000000081525090506102f7565b5f8290505f5b5f821461020a5780806101f3906107aa565b915050600a8261020391906107f1565b91506101e1565b5f8167ffffffffffffffff81111561022557610224610321565b5b6040519080825280601f01601f1916602001820160405280156102575781602001600182028036833780820191505090505b5090505f6001836102689190610821565b90505b5f86146102ef57600a8661027f919061077a565b603061028b9190610584565b60f81b82828061029a90610854565b9350815181106102ad576102ac6105b7565b5b60200101907effffffffffffffffffffffffffffffffffffffffffffffffffffffffffffff191690815f1a905350600a866102e891906107f1565b955061026b565b819450505050505b919050565b5f604051905090565b5f80fd5b5f80fd5b5f80fd5b5f601f19601f8301169050919050565b7f4e487b71000000000000000000000000000000000000000000000000000000005f52604160045260245ffd5b61035782610311565b810181811067ffffffffffffffff8211171561037657610375610321565b5b80604052505050565b5f6103886102fc565b9050610394828261034e565b919050565b5f67ffffffffffffffff8211156103b3576103b2610321565b5b602082029050602081019050919050565b5f80fd5b5f819050919050565b6103da816103c8565b81146103e4575f80fd5b50565b5f813590506103f5816103d1565b92915050565b5f61040d61040884610399565b61037f565b905080838252602082019050602084028301858111156104305761042f6103c4565b5b835b81811015610459578061044588826103e7565b845260208401935050602081019050610432565b5050509392505050565b5f82601f8301126104775761047661030d565b5b81356104878482602086016103fb565b91505092915050565b5f602082840312156104a5576104a4610305565b5b5f82013567ffffffffffffffff8111156104c2576104c1610309565b5b6104ce84828501610463565b91505092915050565b5f81519050919050565b5f82825260208201905092915050565b8281835e5f83830152505050565b5f610509826104d7565b61051381856104e1565b93506105238185602086016104f1565b61052c81610311565b840191505092915050565b5f6020820190508181035f83015261054f81846104ff565b905092915050565b7f4e487b71000000000000000000000000000000000000000000000000000000005f52601160045260245ffd5b5f61058e826103c8565b9150610599836103c8565b92508282019050808211156105b1576105b0610557565b5b92915050565b7f4e487b71000000000000000000000000000000000000000000000000000000005f52603260045260245ffd5b5f81905092915050565b5f6105f8826104d7565b61060281856105e4565b93506106128185602086016104f1565b80840191505092915050565b7f28000000000000000000000000000000000000000000000000000000000000005f82015250565b5f6106526001836105e4565b915061065d8261061e565b600182019050919050565b7f2c200000000000000000000000000000000000000000000000000000000000005f82015250565b5f61069c6002836105e4565b91506106a782610668565b600282019050919050565b7f29200000000000000000000000000000000000000000000000000000000000005f82015250565b5f6106e66002836105e4565b91506106f1826106b2565b600282019050919050565b5f61070782866105ee565b915061071282610646565b915061071e82856105ee565b915061072982610690565b915061073582846105ee565b9150610740826106da565b9150819050949350505050565b7f4e487b71000000000000000000000000000000000000000000000000000000005f52601260045260245ffd5b5f610784826103c8565b915061078f836103c8565b92508261079f5761079e61074d565b5b828206905092915050565b5f6107b4826103c8565b91507fffffffffffffffffffffffffffffffffffffffffffffffffffffffffffffffff82036107e6576107e5610557565b5b600182019050919050565b5f6107fb826103c8565b9150610806836103c8565b9250826108165761081561074d565b5b828204905092915050565b5f61082b826103c8565b9150610836836103c8565b925082820390508181111561084e5761084d610557565b5b92915050565b5f61085e826103c8565b91505f82036108705761086f610557565b5b60018203905091905056fea264697066735822122032325e00d7e5a1e900d2d5c682471da58777c08054597c24be7a75fda5fdb4eb64736f6c634300081a0033",
			"opcodes": "PUSH1 0x80 PUSH1 0x40 MSTORE CALLVALUE DUP1 ISZERO PUSH1 0xE JUMPI PUSH0 DUP1 REVERT JUMPDEST POP PUSH2 0x8B1 DUP1 PUSH2 0x1C PUSH0 CODECOPY PUSH0 RETURN INVALID PUSH1 0x80 PUSH1 0x40 MSTORE CALLVALUE DUP1 ISZERO PUSH2 0xF JUMPI PUSH0 DUP1 REVERT JUMPDEST POP PUSH1 0x4 CALLDATASIZE LT PUSH2 0x29 JUMPI PUSH0 CALLDATALOAD PUSH1 0xE0 SHR DUP1 PUSH4 0xB8E040BE EQ PUSH2 0x2D JUMPI JUMPDEST PUSH0 DUP1 REVERT JUMPDEST PUSH2 0x47 PUSH1 0x4 DUP1 CALLDATASIZE SUB DUP2 ADD SWAP1 PUSH2 0x42 SWAP2 SWAP1 PUSH2 0x490 JUMP JUMPDEST PUSH2 0x5D JUMP JUMPDEST PUSH1 0x40 MLOAD PUSH2 0x54 SWAP2 SWAP1 PUSH2 0x537 JUMP JUMPDEST PUSH1 0x40 MLOAD DUP1 SWAP2 SUB SWAP1 RETURN JUMPDEST PUSH1 0x60 PUSH0 PUSH1 0x40 MLOAD DUP1 PUSH1 0x40 ADD PUSH1 0x40 MSTORE DUP1 PUSH1 0x10 DUP2 MSTORE PUSH1 0x20 ADD PUSH32 0x436F2D7072696D652070616972733A2000000000000000000000000000000000 DUP2 MSTORE POP SWAP1 POP PUSH0 JUMPDEST DUP4 MLOAD DUP2 LT ISZERO PUSH2 0x15E JUMPI PUSH0 PUSH1 0x1 DUP3 PUSH2 0xB1 SWAP2 SWAP1 PUSH2 0x584 JUMP JUMPDEST SWAP1 POP JUMPDEST DUP5 MLOAD DUP2 LT ISZERO PUSH2 0x150 JUMPI PUSH0 DUP6 DUP4 DUP2 MLOAD DUP2 LT PUSH2 0xD1 JUMPI PUSH2 0xD0 PUSH2 0x5B7 JUMP JUMPDEST JUMPDEST PUSH1 0x20 MUL PUSH1 0x20 ADD ADD MLOAD SWAP1 POP PUSH0 DUP7 DUP4 DUP2 MLOAD DUP2 LT PUSH2 0xEF JUMPI PUSH2 0xEE PUSH2 0x5B7 JUMP JUMPDEST JUMPDEST PUSH1 0x20 MUL PUSH1 0x20 ADD ADD MLOAD SWAP1 POP PUSH1 0x1 PUSH2 0x105 DUP4 DUP4 PUSH2 0x168 JUMP JUMPDEST SUB PUSH2 0x141 JUMPI DUP5 PUSH2 0x114 DUP4 PUSH2 0x195 JUMP JUMPDEST PUSH2 0x11D DUP4 PUSH2 0x195 JUMP JUMPDEST PUSH1 0x40 MLOAD PUSH1 0x20 ADD PUSH2 0x12F SWAP4 SWAP3 SWAP2 SWAP1 PUSH2 0x6FC JUMP JUMPDEST PUSH1 0x40 MLOAD PUSH1 0x20 DUP2 DUP4 SUB SUB DUP2 MSTORE SWAP1 PUSH1 0x40 MSTORE SWAP5 POP JUMPDEST POP POP DUP1 DUP1 PUSH1 0x1 ADD SWAP2 POP POP PUSH2 0xB4 JUMP JUMPDEST POP DUP1 DUP1 PUSH1 0x1 ADD SWAP2 POP POP PUSH2 0x9A JUMP JUMPDEST POP DUP1 SWAP2 POP POP SWAP2 SWAP1 POP JUMP JUMPDEST PUSH0 JUMPDEST PUSH0 DUP3 EQ PUSH2 0x18C JUMPI PUSH0 DUP3 SWAP1 POP DUP3 DUP5 PUSH2 0x181 SWAP2 SWAP1 PUSH2 0x77A JUMP JUMPDEST SWAP3 POP DUP1 SWAP4 POP POP PUSH2 0x16A JUMP JUMPDEST DUP3 SWAP1 POP SWAP3 SWAP2 POP POP JUMP JUMPDEST PUSH1 0x60 PUSH0 DUP3 SUB PUSH2 0x1DB JUMPI PUSH1 0x40 MLOAD DUP1 PUSH1 0x40 ADD PUSH1 0x40 MSTORE DUP1 PUSH1 0x1 DUP2 MSTORE PUSH1 0x20 ADD PUSH32 0x3000000000000000000000000000000000000000000000000000000000000000 DUP2 MSTORE POP SWAP1 POP PUSH2 0x2F7 JUMP JUMPDEST PUSH0 DUP3 SWAP1 POP PUSH0 JUMPDEST PUSH0 DUP3 EQ PUSH2 0x20A JUMPI DUP1 DUP1 PUSH2 0x1F3 SWAP1 PUSH2 0x7AA JUMP JUMPDEST SWAP2 POP POP PUSH1 0xA DUP3 PUSH2 0x203 SWAP2 SWAP1 PUSH2 0x7F1 JUMP JUMPDEST SWAP2 POP PUSH2 0x1E1 JUMP JUMPDEST PUSH0 DUP2 PUSH8 0xFFFFFFFFFFFFFFFF DUP2 GT ISZERO PUSH2 0x225 JUMPI PUSH2 0x224 PUSH2 0x321 JUMP JUMPDEST JUMPDEST PUSH1 0x40 MLOAD SWAP1 DUP1 DUP3 MSTORE DUP1 PUSH1 0x1F ADD PUSH1 0x1F NOT AND PUSH1 0x20 ADD DUP3 ADD PUSH1 0x40 MSTORE DUP1 ISZERO PUSH2 0x257 JUMPI DUP2 PUSH1 0x20 ADD PUSH1 0x1 DUP3 MUL DUP1 CALLDATASIZE DUP4 CALLDATACOPY DUP1 DUP3 ADD SWAP2 POP POP SWAP1 POP JUMPDEST POP SWAP1 POP PUSH0 PUSH1 0x1 DUP4 PUSH2 0x268 SWAP2 SWAP1 PUSH2 0x821 JUMP JUMPDEST SWAP1 POP JUMPDEST PUSH0 DUP7 EQ PUSH2 0x2EF JUMPI PUSH1 0xA DUP7 PUSH2 0x27F SWAP2 SWAP1 PUSH2 0x77A JUMP JUMPDEST PUSH1 0x30 PUSH2 0x28B SWAP2 SWAP1 PUSH2 0x584 JUMP JUMPDEST PUSH1 0xF8 SHL DUP3 DUP3 DUP1 PUSH2 0x29A SWAP1 PUSH2 0x854 JUMP JUMPDEST SWAP4 POP DUP2 MLOAD DUP2 LT PUSH2 0x2AD JUMPI PUSH2 0x2AC PUSH2 0x5B7 JUMP JUMPDEST JUMPDEST PUSH1 0x20 ADD ADD SWAP1 PUSH31 0xFFFFFFFFFFFFFFFFFFFFFFFFFFFFFFFFFFFFFFFFFFFFFFFFFFFFFFFFFFFFFF NOT AND SWAP1 DUP2 PUSH0 BYTE SWAP1 MSTORE8 POP PUSH1 0xA DUP7 PUSH2 0x2E8 SWAP2 SWAP1 PUSH2 0x7F1 JUMP JUMPDEST SWAP6 POP PUSH2 0x26B JUMP JUMPDEST DUP2 SWAP5 POP POP POP POP POP JUMPDEST SWAP2 SWAP1 POP JUMP JUMPDEST PUSH0 PUSH1 0x40 MLOAD SWAP1 POP SWAP1 JUMP JUMPDEST PUSH0 DUP1 REVERT JUMPDEST PUSH0 DUP1 REVERT JUMPDEST PUSH0 DUP1 REVERT JUMPDEST PUSH0 PUSH1 0x1F NOT PUSH1 0x1F DUP4 ADD AND SWAP1 POP SWAP2 SWAP1 POP JUMP JUMPDEST PUSH32 0x4E487B7100000000000000000000000000000000000000000000000000000000 PUSH0 MSTORE PUSH1 0x41 PUSH1 0x4 MSTORE PUSH1 0x24 PUSH0 REVERT JUMPDEST PUSH2 0x357 DUP3 PUSH2 0x311 JUMP JUMPDEST DUP2 ADD DUP2 DUP2 LT PUSH8 0xFFFFFFFFFFFFFFFF DUP3 GT OR ISZERO PUSH2 0x376 JUMPI PUSH2 0x375 PUSH2 0x321 JUMP JUMPDEST JUMPDEST DUP1 PUSH1 0x40 MSTORE POP POP POP JUMP JUMPDEST PUSH0 PUSH2 0x388 PUSH2 0x2FC JUMP JUMPDEST SWAP1 POP PUSH2 0x394 DUP3 DUP3 PUSH2 0x34E JUMP JUMPDEST SWAP2 SWAP1 POP JUMP JUMPDEST PUSH0 PUSH8 0xFFFFFFFFFFFFFFFF DUP3 GT ISZERO PUSH2 0x3B3 JUMPI PUSH2 0x3B2 PUSH2 0x321 JUMP JUMPDEST JUMPDEST PUSH1 0x20 DUP3 MUL SWAP1 POP PUSH1 0x20 DUP2 ADD SWAP1 POP SWAP2 SWAP1 POP JUMP JUMPDEST PUSH0 DUP1 REVERT JUMPDEST PUSH0 DUP2 SWAP1 POP SWAP2 SWAP1 POP JUMP JUMPDEST PUSH2 0x3DA DUP2 PUSH2 0x3C8 JUMP JUMPDEST DUP2 EQ PUSH2 0x3E4 JUMPI PUSH0 DUP1 REVERT JUMPDEST POP JUMP JUMPDEST PUSH0 DUP2 CALLDATALOAD SWAP1 POP PUSH2 0x3F5 DUP2 PUSH2 0x3D1 JUMP JUMPDEST SWAP3 SWAP2 POP POP JUMP JUMPDEST PUSH0 PUSH2 0x40D PUSH2 0x408 DUP5 PUSH2 0x399 JUMP JUMPDEST PUSH2 0x37F JUMP JUMPDEST SWAP1 POP DUP1 DUP4 DUP3 MSTORE PUSH1 0x20 DUP3 ADD SWAP1 POP PUSH1 0x20 DUP5 MUL DUP4 ADD DUP6 DUP2 GT ISZERO PUSH2 0x430 JUMPI PUSH2 0x42F PUSH2 0x3C4 JUMP JUMPDEST JUMPDEST DUP4 JUMPDEST DUP2 DUP2 LT ISZERO PUSH2 0x459 JUMPI DUP1 PUSH2 0x445 DUP9 DUP3 PUSH2 0x3E7 JUMP JUMPDEST DUP5 MSTORE PUSH1 0x20 DUP5 ADD SWAP4 POP POP PUSH1 0x20 DUP2 ADD SWAP1 POP PUSH2 0x432 JUMP JUMPDEST POP POP POP SWAP4 SWAP3 POP POP POP JUMP JUMPDEST PUSH0 DUP3 PUSH1 0x1F DUP4 ADD SLT PUSH2 0x477 JUMPI PUSH2 0x476 PUSH2 0x30D JUMP JUMPDEST JUMPDEST DUP2 CALLDATALOAD PUSH2 0x487 DUP5 DUP3 PUSH1 0x20 DUP7 ADD PUSH2 0x3FB JUMP JUMPDEST SWAP2 POP POP SWAP3 SWAP2 POP POP JUMP JUMPDEST PUSH0 PUSH1 0x20 DUP3 DUP5 SUB SLT ISZERO PUSH2 0x4A5 JUMPI PUSH2 0x4A4 PUSH2 0x305 JUMP JUMPDEST JUMPDEST PUSH0 DUP3 ADD CALLDATALOAD PUSH8 0xFFFFFFFFFFFFFFFF DUP2 GT ISZERO PUSH2 0x4C2 JUMPI PUSH2 0x4C1 PUSH2 0x309 JUMP JUMPDEST JUMPDEST PUSH2 0x4CE DUP5 DUP3 DUP6 ADD PUSH2 0x463 JUMP JUMPDEST SWAP2 POP POP SWAP3 SWAP2 POP POP JUMP JUMPDEST PUSH0 DUP2 MLOAD SWAP1 POP SWAP2 SWAP1 POP JUMP JUMPDEST PUSH0 DUP3 DUP3 MSTORE PUSH1 0x20 DUP3 ADD SWAP1 POP SWAP3 SWAP2 POP POP JUMP JUMPDEST DUP3 DUP2 DUP4 MCOPY PUSH0 DUP4 DUP4 ADD MSTORE POP POP POP JUMP JUMPDEST PUSH0 PUSH2 0x509 DUP3 PUSH2 0x4D7 JUMP JUMPDEST PUSH2 0x513 DUP2 DUP6 PUSH2 0x4E1 JUMP JUMPDEST SWAP4 POP PUSH2 0x523 DUP2 DUP6 PUSH1 0x20 DUP7 ADD PUSH2 0x4F1 JUMP JUMPDEST PUSH2 0x52C DUP2 PUSH2 0x311 JUMP JUMPDEST DUP5 ADD SWAP2 POP POP SWAP3 SWAP2 POP POP JUMP JUMPDEST PUSH0 PUSH1 0x20 DUP3 ADD SWAP1 POP DUP2 DUP2 SUB PUSH0 DUP4 ADD MSTORE PUSH2 0x54F DUP2 DUP5 PUSH2 0x4FF JUMP JUMPDEST SWAP1 POP SWAP3 SWAP2 POP POP JUMP JUMPDEST PUSH32 0x4E487B7100000000000000000000000000000000000000000000000000000000 PUSH0 MSTORE PUSH1 0x11 PUSH1 0x4 MSTORE PUSH1 0x24 PUSH0 REVERT JUMPDEST PUSH0 PUSH2 0x58E DUP3 PUSH2 0x3C8 JUMP JUMPDEST SWAP2 POP PUSH2 0x599 DUP4 PUSH2 0x3C8 JUMP JUMPDEST SWAP3 POP DUP3 DUP3 ADD SWAP1 POP DUP1 DUP3 GT ISZERO PUSH2 0x5B1 JUMPI PUSH2 0x5B0 PUSH2 0x557 JUMP JUMPDEST JUMPDEST SWAP3 SWAP2 POP POP JUMP JUMPDEST PUSH32 0x4E487B7100000000000000000000000000000000000000000000000000000000 PUSH0 MSTORE PUSH1 0x32 PUSH1 0x4 MSTORE PUSH1 0x24 PUSH0 REVERT JUMPDEST PUSH0 DUP2 SWAP1 POP SWAP3 SWAP2 POP POP JUMP JUMPDEST PUSH0 PUSH2 0x5F8 DUP3 PUSH2 0x4D7 JUMP JUMPDEST PUSH2 0x602 DUP2 DUP6 PUSH2 0x5E4 JUMP JUMPDEST SWAP4 POP PUSH2 0x612 DUP2 DUP6 PUSH1 0x20 DUP7 ADD PUSH2 0x4F1 JUMP JUMPDEST DUP1 DUP5 ADD SWAP2 POP POP SWAP3 SWAP2 POP POP JUMP JUMPDEST PUSH32 0x2800000000000000000000000000000000000000000000000000000000000000 PUSH0 DUP3 ADD MSTORE POP JUMP JUMPDEST PUSH0 PUSH2 0x652 PUSH1 0x1 DUP4 PUSH2 0x5E4 JUMP JUMPDEST SWAP2 POP PUSH2 0x65D DUP3 PUSH2 0x61E JUMP JUMPDEST PUSH1 0x1 DUP3 ADD SWAP1 POP SWAP2 SWAP1 POP JUMP JUMPDEST PUSH32 0x2C20000000000000000000000000000000000000000000000000000000000000 PUSH0 DUP3 ADD MSTORE POP JUMP JUMPDEST PUSH0 PUSH2 0x69C PUSH1 0x2 DUP4 PUSH2 0x5E4 JUMP JUMPDEST SWAP2 POP PUSH2 0x6A7 DUP3 PUSH2 0x668 JUMP JUMPDEST PUSH1 0x2 DUP3 ADD SWAP1 POP SWAP2 SWAP1 POP JUMP JUMPDEST PUSH32 0x2920000000000000000000000000000000000000000000000000000000000000 PUSH0 DUP3 ADD MSTORE POP JUMP JUMPDEST PUSH0 PUSH2 0x6E6 PUSH1 0x2 DUP4 PUSH2 0x5E4 JUMP JUMPDEST SWAP2 POP PUSH2 0x6F1 DUP3 PUSH2 0x6B2 JUMP JUMPDEST PUSH1 0x2 DUP3 ADD SWAP1 POP SWAP2 SWAP1 POP JUMP JUMPDEST PUSH0 PUSH2 0x707 DUP3 DUP7 PUSH2 0x5EE JUMP JUMPDEST SWAP2 POP PUSH2 0x712 DUP3 PUSH2 0x646 JUMP JUMPDEST SWAP2 POP PUSH2 0x71E DUP3 DUP6 PUSH2 0x5EE JUMP JUMPDEST SWAP2 POP PUSH2 0x729 DUP3 PUSH2 0x690 JUMP JUMPDEST SWAP2 POP PUSH2 0x735 DUP3 DUP5 PUSH2 0x5EE JUMP JUMPDEST SWAP2 POP PUSH2 0x740 DUP3 PUSH2 0x6DA JUMP JUMPDEST SWAP2 POP DUP2 SWAP1 POP SWAP5 SWAP4 POP POP POP POP JUMP JUMPDEST PUSH32 0x4E487B7100000000000000000000000000000000000000000000000000000000 PUSH0 MSTORE PUSH1 0x12 PUSH1 0x4 MSTORE PUSH1 0x24 PUSH0 REVERT JUMPDEST PUSH0 PUSH2 0x784 DUP3 PUSH2 0x3C8 JUMP JUMPDEST SWAP2 POP PUSH2 0x78F DUP4 PUSH2 0x3C8 JUMP JUMPDEST SWAP3 POP DUP3 PUSH2 0x79F JUMPI PUSH2 0x79E PUSH2 0x74D JUMP JUMPDEST JUMPDEST DUP3 DUP3 MOD SWAP1 POP SWAP3 SWAP2 POP POP JUMP JUMPDEST PUSH0 PUSH2 0x7B4 DUP3 PUSH2 0x3C8 JUMP JUMPDEST SWAP2 POP PUSH32 0xFFFFFFFFFFFFFFFFFFFFFFFFFFFFFFFFFFFFFFFFFFFFFFFFFFFFFFFFFFFFFFFF DUP3 SUB PUSH2 0x7E6 JUMPI PUSH2 0x7E5 PUSH2 0x557 JUMP JUMPDEST JUMPDEST PUSH1 0x1 DUP3 ADD SWAP1 POP SWAP2 SWAP1 POP JUMP JUMPDEST PUSH0 PUSH2 0x7FB DUP3 PUSH2 0x3C8 JUMP JUMPDEST SWAP2 POP PUSH2 0x806 DUP4 PUSH2 0x3C8 JUMP JUMPDEST SWAP3 POP DUP3 PUSH2 0x816 JUMPI PUSH2 0x815 PUSH2 0x74D JUMP JUMPDEST JUMPDEST DUP3 DUP3 DIV SWAP1 POP SWAP3 SWAP2 POP POP JUMP JUMPDEST PUSH0 PUSH2 0x82B DUP3 PUSH2 0x3C8 JUMP JUMPDEST SWAP2 POP PUSH2 0x836 DUP4 PUSH2 0x3C8 JUMP JUMPDEST SWAP3 POP DUP3 DUP3 SUB SWAP1 POP DUP2 DUP2 GT ISZERO PUSH2 0x84E JUMPI PUSH2 0x84D PUSH2 0x557 JUMP JUMPDEST JUMPDEST SWAP3 SWAP2 POP POP JUMP JUMPDEST PUSH0 PUSH2 0x85E DUP3 PUSH2 0x3C8 JUMP JUMPDEST SWAP2 POP PUSH0 DUP3 SUB PUSH2 0x870 JUMPI PUSH2 0x86F PUSH2 0x557 JUMP JUMPDEST JUMPDEST PUSH1 0x1 DUP3 SUB SWAP1 POP SWAP2 SWAP1 POP JUMP INVALID LOG2 PUSH5 0x6970667358 0x22 SLT KECCAK256 ORIGIN ORIGIN MCOPY STOP 0xD7 0xE5 LOG1 0xE9 STOP 0xD2 0xD5 0xC6 DUP3 SELFBALANCE SAR 0xA5 DUP8 PUSH24 0xC08054597C24BE7A75FDA5FDB4EB64736F6C634300081A00 CALLER "
		},
		"gasEstimates": {
			"creation": {
				"codeDepositCost": "445000",
				"executionCost": "478",
				"totalCost": "445478"
			},
			"external": {
				"checkCoprimeNumbers(uint256[])": "infinite"
			},
			"internal": {
				"gcd(uint256,uint256)": "infinite",
				"uint2str(uint256)": "infinite"
			}
		},
		"methodIdentifiers": {
			"checkCoprimeNumbers(uint256[])": "b8e040be"
		}
	},
	"abi": [
		{
			"inputs": [
				{
					"internalType": "uint256[]",
					"name": "rollNumbers",
					"type": "uint256[]"
				}
			],
			"name": "checkCoprimeNumbers",
			"outputs": [
				{
					"internalType": "string",
					"name": "",
					"type": "string"
				}
			],
			"stateMutability": "pure",
			"type": "function"
		}
	]
}