{
	"data": {
		"bytecode": {
			"linkReferences": {},
			"object": "6080604052348015600e575f80fd5b50610bcb8061001c5f395ff3fe608060405234801561000f575f80fd5b506004361061004a575f3560e01c806306e8337f1461004e57806324c141601461006c578063a0c628b71461009d578063ddf0b009146100b9575b5f80fd5b6100566100ea565b60405161006391906103c4565b60405180910390f35b61008660048036038101906100819190610418565b6100f5565b6040516100949291906104b3565b60405180910390f35b6100b760048036038101906100b291906106ef565b610217565b005b6100d360048036038101906100ce9190610418565b6102f8565b6040516100e19291906104b3565b60405180910390f35b5f8080549050905090565b5f60605f80549050831061013e576040517f08c379a000000000000000000000000000000000000000000000000000000000815260040161013590610793565b60405180910390fd5b5f808481548110610152576101516107b1565b5b905f5260205f2090600202016040518060400160405290815f82015481526020016001820180546101829061080b565b80601f01602080910402602001604051908101604052809291908181526020018280546101ae9061080b565b80156101f95780601f106101d0576101008083540402835291602001916101f9565b820191905f5260205f20905b8154815290600101906020018083116101dc57829003601f168201915b5050505050815250509050805f015181602001519250925050915091565b8051821461025a576040517f08c379a0000000000000000000000000000000000000000000000000000000008152600401610251906108ab565b60405180910390fd5b5f5b828110156102f3575f604051806040016040528060018461027d91906108f6565b8152602001848481518110610295576102946107b1565b5b6020026020010151815250908060018154018082558091505060019003905f5260205f2090600202015f909190919091505f820151815f015560208201518160010190816102e39190610ac6565b505050808060010191505061025c565b505050565b5f8181548110610306575f80fd5b905f5260205f2090600202015f91509050805f01549080600101805461032b9061080b565b80601f01602080910402602001604051908101604052809291908181526020018280546103579061080b565b80156103a25780601f10610379576101008083540402835291602001916103a2565b820191905f5260205f20905b81548152906001019060200180831161038557829003601f168201915b5050505050905082565b5f819050919050565b6103be816103ac565b82525050565b5f6020820190506103d75f8301846103b5565b92915050565b5f604051905090565b5f80fd5b5f80fd5b6103f7816103ac565b8114610401575f80fd5b50565b5f81359050610412816103ee565b92915050565b5f6020828403121561042d5761042c6103e6565b5b5f61043a84828501610404565b91505092915050565b5f81519050919050565b5f82825260208201905092915050565b8281835e5f83830152505050565b5f601f19601f8301169050919050565b5f61048582610443565b61048f818561044d565b935061049f81856020860161045d565b6104a88161046b565b840191505092915050565b5f6040820190506104c65f8301856103b5565b81810360208301526104d8818461047b565b90509392505050565b5f80fd5b7f4e487b71000000000000000000000000000000000000000000000000000000005f52604160045260245ffd5b61051b8261046b565b810181811067ffffffffffffffff8211171561053a576105396104e5565b5b80604052505050565b5f61054c6103dd565b90506105588282610512565b919050565b5f67ffffffffffffffff821115610577576105766104e5565b5b602082029050602081019050919050565b5f80fd5b5f80fd5b5f67ffffffffffffffff8211156105aa576105a96104e5565b5b6105b38261046b565b9050602081019050919050565b828183375f83830152505050565b5f6105e06105db84610590565b610543565b9050828152602081018484840111156105fc576105fb61058c565b5b6106078482856105c0565b509392505050565b5f82601f830112610623576106226104e1565b5b81356106338482602086016105ce565b91505092915050565b5f61064e6106498461055d565b610543565b9050808382526020820190506020840283018581111561067157610670610588565b5b835b818110156106b857803567ffffffffffffffff811115610696576106956104e1565b5b8086016106a3898261060f565b85526020850194505050602081019050610673565b5050509392505050565b5f82601f8301126106d6576106d56104e1565b5b81356106e684826020860161063c565b91505092915050565b5f8060408385031215610705576107046103e6565b5b5f61071285828601610404565b925050602083013567ffffffffffffffff811115610733576107326103ea565b5b61073f858286016106c2565b9150509250929050565b7f496e76616c696420696e646578000000000000000000000000000000000000005f82015250565b5f61077d600d8361044d565b915061078882610749565b602082019050919050565b5f6020820190508181035f8301526107aa81610771565b9050919050565b7f4e487b71000000000000000000000000000000000000000000000000000000005f52603260045260245ffd5b7f4e487b71000000000000000000000000000000000000000000000000000000005f52602260045260245ffd5b5f600282049050600182168061082257607f821691505b602082108103610835576108346107de565b5b50919050565b7f51756575652073697a65206d757374206d6174636820746865206e756d6265725f8201527f206f6620637573746f6d6572206e616d65732e00000000000000000000000000602082015250565b5f61089560338361044d565b91506108a08261083b565b604082019050919050565b5f6020820190508181035f8301526108c281610889565b9050919050565b7f4e487b71000000000000000000000000000000000000000000000000000000005f52601160045260245ffd5b5f610900826103ac565b915061090b836103ac565b9250828201905080821115610923576109226108c9565b5b92915050565b5f819050815f5260205f209050919050565b5f6020601f8301049050919050565b5f82821b905092915050565b5f600883026109857fffffffffffffffffffffffffffffffffffffffffffffffffffffffffffffffff8261094a565b61098f868361094a565b95508019841693508086168417925050509392505050565b5f819050919050565b5f6109ca6109c56109c0846103ac565b6109a7565b6103ac565b9050919050565b5f819050919050565b6109e3836109b0565b6109f76109ef826109d1565b848454610956565b825550505050565b5f90565b610a0b6109ff565b610a168184846109da565b505050565b5b81811015610a3957610a2e5f82610a03565b600181019050610a1c565b5050565b601f821115610a7e57610a4f81610929565b610a588461093b565b81016020851015610a67578190505b610a7b610a738561093b565b830182610a1b565b50505b505050565b5f82821c905092915050565b5f610a9e5f1984600802610a83565b1980831691505092915050565b5f610ab68383610a8f565b9150826002028217905092915050565b610acf82610443565b67ffffffffffffffff811115610ae857610ae76104e5565b5b610af2825461080b565b610afd828285610a3d565b5f60209050601f831160018114610b2e575f8415610b1c578287015190505b610b268582610aab565b865550610b8d565b601f198416610b3c86610929565b5f5b82811015610b6357848901518255600182019150602085019450602081019050610b3e565b86831015610b805784890151610b7c601f891682610a8f565b8355505b6001600288020188555050505b50505050505056fea2646970667358221220566349cbc83635bfb30f94aeedb14fce03e3ae21dad75d9893ab35155b2c8ac864736f6c634300081a0033",
			"opcodes": "PUSH1 0x80 PUSH1 0x40 MSTORE CALLVALUE DUP1 ISZERO PUSH1 0xE JUMPI PUSH0 DUP1 REVERT JUMPDEST POP PUSH2 0xBCB DUP1 PUSH2 0x1C PUSH0 CODECOPY PUSH0 RETURN INVALID PUSH1 0x80 PUSH1 0x40 MSTORE CALLVALUE DUP1 ISZERO PUSH2 0xF JUMPI PUSH0 DUP1 REVERT JUMPDEST POP PUSH1 0x4 CALLDATASIZE LT PUSH2 0x4A JUMPI PUSH0 CALLDATALOAD PUSH1 0xE0 SHR DUP1 PUSH4 0x6E8337F EQ PUSH2 0x4E JUMPI DUP1 PUSH4 0x24C14160 EQ PUSH2 0x6C JUMPI DUP1 PUSH4 0xA0C628B7 EQ PUSH2 0x9D JUMPI DUP1 PUSH4 0xDDF0B009 EQ PUSH2 0xB9 JUMPI JUMPDEST PUSH0 DUP1 REVERT JUMPDEST PUSH2 0x56 PUSH2 0xEA JUMP JUMPDEST PUSH1 0x40 MLOAD PUSH2 0x63 SWAP2 SWAP1 PUSH2 0x3C4 JUMP JUMPDEST PUSH1 0x40 MLOAD DUP1 SWAP2 SUB SWAP1 RETURN JUMPDEST PUSH2 0x86 PUSH1 0x4 DUP1 CALLDATASIZE SUB DUP2 ADD SWAP1 PUSH2 0x81 SWAP2 SWAP1 PUSH2 0x418 JUMP JUMPDEST PUSH2 0xF5 JUMP JUMPDEST PUSH1 0x40 MLOAD PUSH2 0x94 SWAP3 SWAP2 SWAP1 PUSH2 0x4B3 JUMP JUMPDEST PUSH1 0x40 MLOAD DUP1 SWAP2 SUB SWAP1 RETURN JUMPDEST PUSH2 0xB7 PUSH1 0x4 DUP1 CALLDATASIZE SUB DUP2 ADD SWAP1 PUSH2 0xB2 SWAP2 SWAP1 PUSH2 0x6EF JUMP JUMPDEST PUSH2 0x217 JUMP JUMPDEST STOP JUMPDEST PUSH2 0xD3 PUSH1 0x4 DUP1 CALLDATASIZE SUB DUP2 ADD SWAP1 PUSH2 0xCE SWAP2 SWAP1 PUSH2 0x418 JUMP JUMPDEST PUSH2 0x2F8 JUMP JUMPDEST PUSH1 0x40 MLOAD PUSH2 0xE1 SWAP3 SWAP2 SWAP1 PUSH2 0x4B3 JUMP JUMPDEST PUSH1 0x40 MLOAD DUP1 SWAP2 SUB SWAP1 RETURN JUMPDEST PUSH0 DUP1 DUP1 SLOAD SWAP1 POP SWAP1 POP SWAP1 JUMP JUMPDEST PUSH0 PUSH1 0x60 PUSH0 DUP1 SLOAD SWAP1 POP DUP4 LT PUSH2 0x13E JUMPI PUSH1 0x40 MLOAD PUSH32 0x8C379A000000000000000000000000000000000000000000000000000000000 DUP2 MSTORE PUSH1 0x4 ADD PUSH2 0x135 SWAP1 PUSH2 0x793 JUMP JUMPDEST PUSH1 0x40 MLOAD DUP1 SWAP2 SUB SWAP1 REVERT JUMPDEST PUSH0 DUP1 DUP5 DUP2 SLOAD DUP2 LT PUSH2 0x152 JUMPI PUSH2 0x151 PUSH2 0x7B1 JUMP JUMPDEST JUMPDEST SWAP1 PUSH0 MSTORE PUSH1 0x20 PUSH0 KECCAK256 SWAP1 PUSH1 0x2 MUL ADD PUSH1 0x40 MLOAD DUP1 PUSH1 0x40 ADD PUSH1 0x40 MSTORE SWAP1 DUP2 PUSH0 DUP3 ADD SLOAD DUP2 MSTORE PUSH1 0x20 ADD PUSH1 0x1 DUP3 ADD DUP1 SLOAD PUSH2 0x182 SWAP1 PUSH2 0x80B JUMP JUMPDEST DUP1 PUSH1 0x1F ADD PUSH1 0x20 DUP1 SWAP2 DIV MUL PUSH1 0x20 ADD PUSH1 0x40 MLOAD SWAP1 DUP2 ADD PUSH1 0x40 MSTORE DUP1 SWAP3 SWAP2 SWAP1 DUP2 DUP2 MSTORE PUSH1 0x20 ADD DUP3 DUP1 SLOAD PUSH2 0x1AE SWAP1 PUSH2 0x80B JUMP JUMPDEST DUP1 ISZERO PUSH2 0x1F9 JUMPI DUP1 PUSH1 0x1F LT PUSH2 0x1D0 JUMPI PUSH2 0x100 DUP1 DUP4 SLOAD DIV MUL DUP4 MSTORE SWAP2 PUSH1 0x20 ADD SWAP2 PUSH2 0x1F9 JUMP JUMPDEST DUP3 ADD SWAP2 SWAP1 PUSH0 MSTORE PUSH1 0x20 PUSH0 KECCAK256 SWAP1 JUMPDEST DUP2 SLOAD DUP2 MSTORE SWAP1 PUSH1 0x1 ADD SWAP1 PUSH1 0x20 ADD DUP1 DUP4 GT PUSH2 0x1DC JUMPI DUP3 SWAP1 SUB PUSH1 0x1F AND DUP3 ADD SWAP2 JUMPDEST POP POP POP POP POP DUP2 MSTORE POP POP SWAP1 POP DUP1 PUSH0 ADD MLOAD DUP2 PUSH1 0x20 ADD MLOAD SWAP3 POP SWAP3 POP POP SWAP2 POP SWAP2 JUMP JUMPDEST DUP1 MLOAD DUP3 EQ PUSH2 0x25A JUMPI PUSH1 0x40 MLOAD PUSH32 0x8C379A000000000000000000000000000000000000000000000000000000000 DUP2 MSTORE PUSH1 0x4 ADD PUSH2 0x251 SWAP1 PUSH2 0x8AB JUMP JUMPDEST PUSH1 0x40 MLOAD DUP1 SWAP2 SUB SWAP1 REVERT JUMPDEST PUSH0 JUMPDEST DUP3 DUP2 LT ISZERO PUSH2 0x2F3 JUMPI PUSH0 PUSH1 0x40 MLOAD DUP1 PUSH1 0x40 ADD PUSH1 0x40 MSTORE DUP1 PUSH1 0x1 DUP5 PUSH2 0x27D SWAP2 SWAP1 PUSH2 0x8F6 JUMP JUMPDEST DUP2 MSTORE PUSH1 0x20 ADD DUP5 DUP5 DUP2 MLOAD DUP2 LT PUSH2 0x295 JUMPI PUSH2 0x294 PUSH2 0x7B1 JUMP JUMPDEST JUMPDEST PUSH1 0x20 MUL PUSH1 0x20 ADD ADD MLOAD DUP2 MSTORE POP SWAP1 DUP1 PUSH1 0x1 DUP2 SLOAD ADD DUP1 DUP3 SSTORE DUP1 SWAP2 POP POP PUSH1 0x1 SWAP1 SUB SWAP1 PUSH0 MSTORE PUSH1 0x20 PUSH0 KECCAK256 SWAP1 PUSH1 0x2 MUL ADD PUSH0 SWAP1 SWAP2 SWAP1 SWAP2 SWAP1 SWAP2 POP PUSH0 DUP3 ADD MLOAD DUP2 PUSH0 ADD SSTORE PUSH1 0x20 DUP3 ADD MLOAD DUP2 PUSH1 0x1 ADD SWAP1 DUP2 PUSH2 0x2E3 SWAP2 SWAP1 PUSH2 0xAC6 JUMP JUMPDEST POP POP POP DUP1 DUP1 PUSH1 0x1 ADD SWAP2 POP POP PUSH2 0x25C JUMP JUMPDEST POP POP POP JUMP JUMPDEST PUSH0 DUP2 DUP2 SLOAD DUP2 LT PUSH2 0x306 JUMPI PUSH0 DUP1 REVERT JUMPDEST SWAP1 PUSH0 MSTORE PUSH1 0x20 PUSH0 KECCAK256 SWAP1 PUSH1 0x2 MUL ADD PUSH0 SWAP2 POP SWAP1 POP DUP1 PUSH0 ADD SLOAD SWAP1 DUP1 PUSH1 0x1 ADD DUP1 SLOAD PUSH2 0x32B SWAP1 PUSH2 0x80B JUMP JUMPDEST DUP1 PUSH1 0x1F ADD PUSH1 0x20 DUP1 SWAP2 DIV MUL PUSH1 0x20 ADD PUSH1 0x40 MLOAD SWAP1 DUP2 ADD PUSH1 0x40 MSTORE DUP1 SWAP3 SWAP2 SWAP1 DUP2 DUP2 MSTORE PUSH1 0x20 ADD DUP3 DUP1 SLOAD PUSH2 0x357 SWAP1 PUSH2 0x80B JUMP JUMPDEST DUP1 ISZERO PUSH2 0x3A2 JUMPI DUP1 PUSH1 0x1F LT PUSH2 0x379 JUMPI PUSH2 0x100 DUP1 DUP4 SLOAD DIV MUL DUP4 MSTORE SWAP2 PUSH1 0x20 ADD SWAP2 PUSH2 0x3A2 JUMP JUMPDEST DUP3 ADD SWAP2 SWAP1 PUSH0 MSTORE PUSH1 0x20 PUSH0 KECCAK256 SWAP1 JUMPDEST DUP2 SLOAD DUP2 MSTORE SWAP1 PUSH1 0x1 ADD SWAP1 PUSH1 0x20 ADD DUP1 DUP4 GT PUSH2 0x385 JUMPI DUP3 SWAP1 SUB PUSH1 0x1F AND DUP3 ADD SWAP2 JUMPDEST POP POP POP POP POP SWAP1 POP DUP3 JUMP JUMPDEST PUSH0 DUP2 SWAP1 POP SWAP2 SWAP1 POP JUMP JUMPDEST PUSH2 0x3BE DUP2 PUSH2 0x3AC JUMP JUMPDEST DUP3 MSTORE POP POP JUMP JUMPDEST PUSH0 PUSH1 0x20 DUP3 ADD SWAP1 POP PUSH2 0x3D7 PUSH0 DUP4 ADD DUP5 PUSH2 0x3B5 JUMP JUMPDEST SWAP3 SWAP2 POP POP JUMP JUMPDEST PUSH0 PUSH1 0x40 MLOAD SWAP1 POP SWAP1 JUMP JUMPDEST PUSH0 DUP1 REVERT JUMPDEST PUSH0 DUP1 REVERT JUMPDEST PUSH2 0x3F7 DUP2 PUSH2 0x3AC JUMP JUMPDEST DUP2 EQ PUSH2 0x401 JUMPI PUSH0 DUP1 REVERT JUMPDEST POP JUMP JUMPDEST PUSH0 DUP2 CALLDATALOAD SWAP1 POP PUSH2 0x412 DUP2 PUSH2 0x3EE JUMP JUMPDEST SWAP3 SWAP2 POP POP JUMP JUMPDEST PUSH0 PUSH1 0x20 DUP3 DUP5 SUB SLT ISZERO PUSH2 0x42D JUMPI PUSH2 0x42C PUSH2 0x3E6 JUMP JUMPDEST JUMPDEST PUSH0 PUSH2 0x43A DUP5 DUP3 DUP6 ADD PUSH2 0x404 JUMP JUMPDEST SWAP2 POP POP SWAP3 SWAP2 POP POP JUMP JUMPDEST PUSH0 DUP2 MLOAD SWAP1 POP SWAP2 SWAP1 POP JUMP JUMPDEST PUSH0 DUP3 DUP3 MSTORE PUSH1 0x20 DUP3 ADD SWAP1 POP SWAP3 SWAP2 POP POP JUMP JUMPDEST DUP3 DUP2 DUP4 MCOPY PUSH0 DUP4 DUP4 ADD MSTORE POP POP POP JUMP JUMPDEST PUSH0 PUSH1 0x1F NOT PUSH1 0x1F DUP4 ADD AND SWAP1 POP SWAP2 SWAP1 POP JUMP JUMPDEST PUSH0 PUSH2 0x485 DUP3 PUSH2 0x443 JUMP JUMPDEST PUSH2 0x48F DUP2 DUP6 PUSH2 0x44D JUMP JUMPDEST SWAP4 POP PUSH2 0x49F DUP2 DUP6 PUSH1 0x20 DUP7 ADD PUSH2 0x45D JUMP JUMPDEST PUSH2 0x4A8 DUP2 PUSH2 0x46B JUMP JUMPDEST DUP5 ADD SWAP2 POP POP SWAP3 SWAP2 POP POP JUMP JUMPDEST PUSH0 PUSH1 0x40 DUP3 ADD SWAP1 POP PUSH2 0x4C6 PUSH0 DUP4 ADD DUP6 PUSH2 0x3B5 JUMP JUMPDEST DUP2 DUP2 SUB PUSH1 0x20 DUP4 ADD MSTORE PUSH2 0x4D8 DUP2 DUP5 PUSH2 0x47B JUMP JUMPDEST SWAP1 POP SWAP4 SWAP3 POP POP POP JUMP JUMPDEST PUSH0 DUP1 REVERT JUMPDEST PUSH32 0x4E487B7100000000000000000000000000000000000000000000000000000000 PUSH0 MSTORE PUSH1 0x41 PUSH1 0x4 MSTORE PUSH1 0x24 PUSH0 REVERT JUMPDEST PUSH2 0x51B DUP3 PUSH2 0x46B JUMP JUMPDEST DUP2 ADD DUP2 DUP2 LT PUSH8 0xFFFFFFFFFFFFFFFF DUP3 GT OR ISZERO PUSH2 0x53A JUMPI PUSH2 0x539 PUSH2 0x4E5 JUMP JUMPDEST JUMPDEST DUP1 PUSH1 0x40 MSTORE POP POP POP JUMP JUMPDEST PUSH0 PUSH2 0x54C PUSH2 0x3DD JUMP JUMPDEST SWAP1 POP PUSH2 0x558 DUP3 DUP3 PUSH2 0x512 JUMP JUMPDEST SWAP2 SWAP1 POP JUMP JUMPDEST PUSH0 PUSH8 0xFFFFFFFFFFFFFFFF DUP3 GT ISZERO PUSH2 0x577 JUMPI PUSH2 0x576 PUSH2 0x4E5 JUMP JUMPDEST JUMPDEST PUSH1 0x20 DUP3 MUL SWAP1 POP PUSH1 0x20 DUP2 ADD SWAP1 POP SWAP2 SWAP1 POP JUMP JUMPDEST PUSH0 DUP1 REVERT JUMPDEST PUSH0 DUP1 REVERT JUMPDEST PUSH0 PUSH8 0xFFFFFFFFFFFFFFFF DUP3 GT ISZERO PUSH2 0x5AA JUMPI PUSH2 0x5A9 PUSH2 0x4E5 JUMP JUMPDEST JUMPDEST PUSH2 0x5B3 DUP3 PUSH2 0x46B JUMP JUMPDEST SWAP1 POP PUSH1 0x20 DUP2 ADD SWAP1 POP SWAP2 SWAP1 POP JUMP JUMPDEST DUP3 DUP2 DUP4 CALLDATACOPY PUSH0 DUP4 DUP4 ADD MSTORE POP POP POP JUMP JUMPDEST PUSH0 PUSH2 0x5E0 PUSH2 0x5DB DUP5 PUSH2 0x590 JUMP JUMPDEST PUSH2 0x543 JUMP JUMPDEST SWAP1 POP DUP3 DUP2 MSTORE PUSH1 0x20 DUP2 ADD DUP5 DUP5 DUP5 ADD GT ISZERO PUSH2 0x5FC JUMPI PUSH2 0x5FB PUSH2 0x58C JUMP JUMPDEST JUMPDEST PUSH2 0x607 DUP5 DUP3 DUP6 PUSH2 0x5C0 JUMP JUMPDEST POP SWAP4 SWAP3 POP POP POP JUMP JUMPDEST PUSH0 DUP3 PUSH1 0x1F DUP4 ADD SLT PUSH2 0x623 JUMPI PUSH2 0x622 PUSH2 0x4E1 JUMP JUMPDEST JUMPDEST DUP2 CALLDATALOAD PUSH2 0x633 DUP5 DUP3 PUSH1 0x20 DUP7 ADD PUSH2 0x5CE JUMP JUMPDEST SWAP2 POP POP SWAP3 SWAP2 POP POP JUMP JUMPDEST PUSH0 PUSH2 0x64E PUSH2 0x649 DUP5 PUSH2 0x55D JUMP JUMPDEST PUSH2 0x543 JUMP JUMPDEST SWAP1 POP DUP1 DUP4 DUP3 MSTORE PUSH1 0x20 DUP3 ADD SWAP1 POP PUSH1 0x20 DUP5 MUL DUP4 ADD DUP6 DUP2 GT ISZERO PUSH2 0x671 JUMPI PUSH2 0x670 PUSH2 0x588 JUMP JUMPDEST JUMPDEST DUP4 JUMPDEST DUP2 DUP2 LT ISZERO PUSH2 0x6B8 JUMPI DUP1 CALLDATALOAD PUSH8 0xFFFFFFFFFFFFFFFF DUP2 GT ISZERO PUSH2 0x696 JUMPI PUSH2 0x695 PUSH2 0x4E1 JUMP JUMPDEST JUMPDEST DUP1 DUP7 ADD PUSH2 0x6A3 DUP10 DUP3 PUSH2 0x60F JUMP JUMPDEST DUP6 MSTORE PUSH1 0x20 DUP6 ADD SWAP5 POP POP POP PUSH1 0x20 DUP2 ADD SWAP1 POP PUSH2 0x673 JUMP JUMPDEST POP POP POP SWAP4 SWAP3 POP POP POP JUMP JUMPDEST PUSH0 DUP3 PUSH1 0x1F DUP4 ADD SLT PUSH2 0x6D6 JUMPI PUSH2 0x6D5 PUSH2 0x4E1 JUMP JUMPDEST JUMPDEST DUP2 CALLDATALOAD PUSH2 0x6E6 DUP5 DUP3 PUSH1 0x20 DUP7 ADD PUSH2 0x63C JUMP JUMPDEST SWAP2 POP POP SWAP3 SWAP2 POP POP JUMP JUMPDEST PUSH0 DUP1 PUSH1 0x40 DUP4 DUP6 SUB SLT ISZERO PUSH2 0x705 JUMPI PUSH2 0x704 PUSH2 0x3E6 JUMP JUMPDEST JUMPDEST PUSH0 PUSH2 0x712 DUP6 DUP3 DUP7 ADD PUSH2 0x404 JUMP JUMPDEST SWAP3 POP POP PUSH1 0x20 DUP4 ADD CALLDATALOAD PUSH8 0xFFFFFFFFFFFFFFFF DUP2 GT ISZERO PUSH2 0x733 JUMPI PUSH2 0x732 PUSH2 0x3EA JUMP JUMPDEST JUMPDEST PUSH2 0x73F DUP6 DUP3 DUP7 ADD PUSH2 0x6C2 JUMP JUMPDEST SWAP2 POP POP SWAP3 POP SWAP3 SWAP1 POP JUMP JUMPDEST PUSH32 0x496E76616C696420696E64657800000000000000000000000000000000000000 PUSH0 DUP3 ADD MSTORE POP JUMP JUMPDEST PUSH0 PUSH2 0x77D PUSH1 0xD DUP4 PUSH2 0x44D JUMP JUMPDEST SWAP2 POP PUSH2 0x788 DUP3 PUSH2 0x749 JUMP JUMPDEST PUSH1 0x20 DUP3 ADD SWAP1 POP SWAP2 SWAP1 POP JUMP JUMPDEST PUSH0 PUSH1 0x20 DUP3 ADD SWAP1 POP DUP2 DUP2 SUB PUSH0 DUP4 ADD MSTORE PUSH2 0x7AA DUP2 PUSH2 0x771 JUMP JUMPDEST SWAP1 POP SWAP2 SWAP1 POP JUMP JUMPDEST PUSH32 0x4E487B7100000000000000000000000000000000000000000000000000000000 PUSH0 MSTORE PUSH1 0x32 PUSH1 0x4 MSTORE PUSH1 0x24 PUSH0 REVERT JUMPDEST PUSH32 0x4E487B7100000000000000000000000000000000000000000000000000000000 PUSH0 MSTORE PUSH1 0x22 PUSH1 0x4 MSTORE PUSH1 0x24 PUSH0 REVERT JUMPDEST PUSH0 PUSH1 0x2 DUP3 DIV SWAP1 POP PUSH1 0x1 DUP3 AND DUP1 PUSH2 0x822 JUMPI PUSH1 0x7F DUP3 AND SWAP2 POP JUMPDEST PUSH1 0x20 DUP3 LT DUP2 SUB PUSH2 0x835 JUMPI PUSH2 0x834 PUSH2 0x7DE JUMP JUMPDEST JUMPDEST POP SWAP2 SWAP1 POP JUMP JUMPDEST PUSH32 0x51756575652073697A65206D757374206D6174636820746865206E756D626572 PUSH0 DUP3 ADD MSTORE PUSH32 0x206F6620637573746F6D6572206E616D65732E00000000000000000000000000 PUSH1 0x20 DUP3 ADD MSTORE POP JUMP JUMPDEST PUSH0 PUSH2 0x895 PUSH1 0x33 DUP4 PUSH2 0x44D JUMP JUMPDEST SWAP2 POP PUSH2 0x8A0 DUP3 PUSH2 0x83B JUMP JUMPDEST PUSH1 0x40 DUP3 ADD SWAP1 POP SWAP2 SWAP1 POP JUMP JUMPDEST PUSH0 PUSH1 0x20 DUP3 ADD SWAP1 POP DUP2 DUP2 SUB PUSH0 DUP4 ADD MSTORE PUSH2 0x8C2 DUP2 PUSH2 0x889 JUMP JUMPDEST SWAP1 POP SWAP2 SWAP1 POP JUMP JUMPDEST PUSH32 0x4E487B7100000000000000000000000000000000000000000000000000000000 PUSH0 MSTORE PUSH1 0x11 PUSH1 0x4 MSTORE PUSH1 0x24 PUSH0 REVERT JUMPDEST PUSH0 PUSH2 0x900 DUP3 PUSH2 0x3AC JUMP JUMPDEST SWAP2 POP PUSH2 0x90B DUP4 PUSH2 0x3AC JUMP JUMPDEST SWAP3 POP DUP3 DUP3 ADD SWAP1 POP DUP1 DUP3 GT ISZERO PUSH2 0x923 JUMPI PUSH2 0x922 PUSH2 0x8C9 JUMP JUMPDEST JUMPDEST SWAP3 SWAP2 POP POP JUMP JUMPDEST PUSH0 DUP2 SWAP1 POP DUP2 PUSH0 MSTORE PUSH1 0x20 PUSH0 KECCAK256 SWAP1 POP SWAP2 SWAP1 POP JUMP JUMPDEST PUSH0 PUSH1 0x20 PUSH1 0x1F DUP4 ADD DIV SWAP1 POP SWAP2 SWAP1 POP JUMP JUMPDEST PUSH0 DUP3 DUP3 SHL SWAP1 POP SWAP3 SWAP2 POP POP JUMP JUMPDEST PUSH0 PUSH1 0x8 DUP4 MUL PUSH2 0x985 PUSH32 0xFFFFFFFFFFFFFFFFFFFFFFFFFFFFFFFFFFFFFFFFFFFFFFFFFFFFFFFFFFFFFFFF DUP3 PUSH2 0x94A JUMP JUMPDEST PUSH2 0x98F DUP7 DUP4 PUSH2 0x94A JUMP JUMPDEST SWAP6 POP DUP1 NOT DUP5 AND SWAP4 POP DUP1 DUP7 AND DUP5 OR SWAP3 POP POP POP SWAP4 SWAP3 POP POP POP JUMP JUMPDEST PUSH0 DUP2 SWAP1 POP SWAP2 SWAP1 POP JUMP JUMPDEST PUSH0 PUSH2 0x9CA PUSH2 0x9C5 PUSH2 0x9C0 DUP5 PUSH2 0x3AC JUMP JUMPDEST PUSH2 0x9A7 JUMP JUMPDEST PUSH2 0x3AC JUMP JUMPDEST SWAP1 POP SWAP2 SWAP1 POP JUMP JUMPDEST PUSH0 DUP2 SWAP1 POP SWAP2 SWAP1 POP JUMP JUMPDEST PUSH2 0x9E3 DUP4 PUSH2 0x9B0 JUMP JUMPDEST PUSH2 0x9F7 PUSH2 0x9EF DUP3 PUSH2 0x9D1 JUMP JUMPDEST DUP5 DUP5 SLOAD PUSH2 0x956 JUMP JUMPDEST DUP3 SSTORE POP POP POP POP JUMP JUMPDEST PUSH0 SWAP1 JUMP JUMPDEST PUSH2 0xA0B PUSH2 0x9FF JUMP JUMPDEST PUSH2 0xA16 DUP2 DUP5 DUP5 PUSH2 0x9DA JUMP JUMPDEST POP POP POP JUMP JUMPDEST JUMPDEST DUP2 DUP2 LT ISZERO PUSH2 0xA39 JUMPI PUSH2 0xA2E PUSH0 DUP3 PUSH2 0xA03 JUMP JUMPDEST PUSH1 0x1 DUP2 ADD SWAP1 POP PUSH2 0xA1C JUMP JUMPDEST POP POP JUMP JUMPDEST PUSH1 0x1F DUP3 GT ISZERO PUSH2 0xA7E JUMPI PUSH2 0xA4F DUP2 PUSH2 0x929 JUMP JUMPDEST PUSH2 0xA58 DUP5 PUSH2 0x93B JUMP JUMPDEST DUP2 ADD PUSH1 0x20 DUP6 LT ISZERO PUSH2 0xA67 JUMPI DUP2 SWAP1 POP JUMPDEST PUSH2 0xA7B PUSH2 0xA73 DUP6 PUSH2 0x93B JUMP JUMPDEST DUP4 ADD DUP3 PUSH2 0xA1B JUMP JUMPDEST POP POP JUMPDEST POP POP POP JUMP JUMPDEST PUSH0 DUP3 DUP3 SHR SWAP1 POP SWAP3 SWAP2 POP POP JUMP JUMPDEST PUSH0 PUSH2 0xA9E PUSH0 NOT DUP5 PUSH1 0x8 MUL PUSH2 0xA83 JUMP JUMPDEST NOT DUP1 DUP4 AND SWAP2 POP POP SWAP3 SWAP2 POP POP JUMP JUMPDEST PUSH0 PUSH2 0xAB6 DUP4 DUP4 PUSH2 0xA8F JUMP JUMPDEST SWAP2 POP DUP3 PUSH1 0x2 MUL DUP3 OR SWAP1 POP SWAP3 SWAP2 POP POP JUMP JUMPDEST PUSH2 0xACF DUP3 PUSH2 0x443 JUMP JUMPDEST PUSH8 0xFFFFFFFFFFFFFFFF DUP2 GT ISZERO PUSH2 0xAE8 JUMPI PUSH2 0xAE7 PUSH2 0x4E5 JUMP JUMPDEST JUMPDEST PUSH2 0xAF2 DUP3 SLOAD PUSH2 0x80B JUMP JUMPDEST PUSH2 0xAFD DUP3 DUP3 DUP6 PUSH2 0xA3D JUMP JUMPDEST PUSH0 PUSH1 0x20 SWAP1 POP PUSH1 0x1F DUP4 GT PUSH1 0x1 DUP2 EQ PUSH2 0xB2E JUMPI PUSH0 DUP5 ISZERO PUSH2 0xB1C JUMPI DUP3 DUP8 ADD MLOAD SWAP1 POP JUMPDEST PUSH2 0xB26 DUP6 DUP3 PUSH2 0xAAB JUMP JUMPDEST DUP7 SSTORE POP PUSH2 0xB8D JUMP JUMPDEST PUSH1 0x1F NOT DUP5 AND PUSH2 0xB3C DUP7 PUSH2 0x929 JUMP JUMPDEST PUSH0 JUMPDEST DUP3 DUP2 LT ISZERO PUSH2 0xB63 JUMPI DUP5 DUP10 ADD MLOAD DUP3 SSTORE PUSH1 0x1 DUP3 ADD SWAP2 POP PUSH1 0x20 DUP6 ADD SWAP5 POP PUSH1 0x20 DUP2 ADD SWAP1 POP PUSH2 0xB3E JUMP JUMPDEST DUP7 DUP4 LT ISZERO PUSH2 0xB80 JUMPI DUP5 DUP10 ADD MLOAD PUSH2 0xB7C PUSH1 0x1F DUP10 AND DUP3 PUSH2 0xA8F JUMP JUMPDEST DUP4 SSTORE POP JUMPDEST PUSH1 0x1 PUSH1 0x2 DUP9 MUL ADD DUP9 SSTORE POP POP POP JUMPDEST POP POP POP POP POP POP JUMP INVALID LOG2 PUSH5 0x6970667358 0x22 SLT KECCAK256 JUMP PUSH4 0x49CBC836 CALLDATALOAD 0xBF 0xB3 0xF SWAP5 0xAE 0xED 0xB1 0x4F 0xCE SUB 0xE3 0xAE 0x21 0xDA 0xD7 TSTORE SWAP9 SWAP4 0xAB CALLDATALOAD ISZERO JUMPDEST 0x2C DUP11 0xC8 PUSH5 0x736F6C6343 STOP ADDMOD BYTE STOP CALLER "
		},
		"gasEstimates": {
			"creation": {
				"codeDepositCost": "603800",
				"executionCost": "636",
				"totalCost": "604436"
			},
			"external": {
				"getTicketDetails(uint256)": "infinite",
				"getTotalTickets()": "2418",
				"issueTickets(uint256,string[])": "infinite",
				"queue(uint256)": "infinite"
			}
		},
		"methodIdentifiers": {
			"getTicketDetails(uint256)": "24c14160",
			"getTotalTickets()": "06e8337f",
			"issueTickets(uint256,string[])": "a0c628b7",
			"queue(uint256)": "ddf0b009"
		}
	},
	"abi": [
		{
			"inputs": [
				{
					"internalType": "uint256",
					"name": "index",
					"type": "uint256"
				}
			],
			"name": "getTicketDetails",
			"outputs": [
				{
					"internalType": "uint256",
					"name": "",
					"type": "uint256"
				},
				{
					"internalType": "string",
					"name": "",
					"type": "string"
				}
			],
			"stateMutability": "view",
			"type": "function"
		},
		{
			"inputs": [],
			"name": "getTotalTickets",
			"outputs": [
				{
					"internalType": "uint256",
					"name": "",
					"type": "uint256"
				}
			],
			"stateMutability": "view",
			"type": "function"
		},
		{
			"inputs": [
				{
					"internalType": "uint256",
					"name": "queueSize",
					"type": "uint256"
				},
				{
					"internalType": "string[]",
					"name": "customerNames",
					"type": "string[]"
				}
			],
			"name": "issueTickets",
			"outputs": [],
			"stateMutability": "nonpayable",
			"type": "function"
		},
		{
			"inputs": [
				{
					"internalType": "uint256",
					"name": "",
					"type": "uint256"
				}
			],
			"name": "queue",
			"outputs": [
				{
					"internalType": "uint256",
					"name": "ticketNumber",
					"type": "uint256"
				},
				{
					"internalType": "string",
					"name": "customerName",
					"type": "string"
				}
			],
			"stateMutability": "view",
			"type": "function"
		}
	]
}