{
	"data": {
		"bytecode": {
			"linkReferences": {},
			"object": "6080604052348015600e575f80fd5b506102c88061001c5f395ff3fe608060405234801561000f575f80fd5b5060043610610029575f3560e01c8063f90432e71461002d575b5f80fd5b610047600480360381019061004291906100c6565b61005d565b6040516100549190610100565b60405180910390f35b5f80602060056009856100709190610146565b61007a91906101e9565b6100849190610251565b905080915050919050565b5f80fd5b5f819050919050565b6100a581610093565b81146100af575f80fd5b50565b5f813590506100c08161009c565b92915050565b5f602082840312156100db576100da61008f565b5b5f6100e8848285016100b2565b91505092915050565b6100fa81610093565b82525050565b5f6020820190506101135f8301846100f1565b92915050565b7f4e487b71000000000000000000000000000000000000000000000000000000005f52601160045260245ffd5b5f61015082610093565b915061015b83610093565b925082820261016981610093565b91507f800000000000000000000000000000000000000000000000000000000000000084145f841216156101a05761019f610119565b5b82820584148315176101b5576101b4610119565b5b5092915050565b7f4e487b71000000000000000000000000000000000000000000000000000000005f52601260045260245ffd5b5f6101f382610093565b91506101fe83610093565b92508261020e5761020d6101bc565b5b60015f0383147f80000000000000000000000000000000000000000000000000000000000000008314161561024657610245610119565b5b828205905092915050565b5f61025b82610093565b915061026683610093565b92508282019050828112155f8312168382125f84121516171561028c5761028b610119565b5b9291505056fea2646970667358221220d9fc7c7874ad6c3c71a725c39aafae58046a59c1391306de2410a66fe03f00e864736f6c634300081a0033",
			"opcodes": "PUSH1 0x80 PUSH1 0x40 MSTORE CALLVALUE DUP1 ISZERO PUSH1 0xE JUMPI PUSH0 DUP1 REVERT JUMPDEST POP PUSH2 0x2C8 DUP1 PUSH2 0x1C PUSH0 CODECOPY PUSH0 RETURN INVALID PUSH1 0x80 PUSH1 0x40 MSTORE CALLVALUE DUP1 ISZERO PUSH2 0xF JUMPI PUSH0 DUP1 REVERT JUMPDEST POP PUSH1 0x4 CALLDATASIZE LT PUSH2 0x29 JUMPI PUSH0 CALLDATALOAD PUSH1 0xE0 SHR DUP1 PUSH4 0xF90432E7 EQ PUSH2 0x2D JUMPI JUMPDEST PUSH0 DUP1 REVERT JUMPDEST PUSH2 0x47 PUSH1 0x4 DUP1 CALLDATASIZE SUB DUP2 ADD SWAP1 PUSH2 0x42 SWAP2 SWAP1 PUSH2 0xC6 JUMP JUMPDEST PUSH2 0x5D JUMP JUMPDEST PUSH1 0x40 MLOAD PUSH2 0x54 SWAP2 SWAP1 PUSH2 0x100 JUMP JUMPDEST PUSH1 0x40 MLOAD DUP1 SWAP2 SUB SWAP1 RETURN JUMPDEST PUSH0 DUP1 PUSH1 0x20 PUSH1 0x5 PUSH1 0x9 DUP6 PUSH2 0x70 SWAP2 SWAP1 PUSH2 0x146 JUMP JUMPDEST PUSH2 0x7A SWAP2 SWAP1 PUSH2 0x1E9 JUMP JUMPDEST PUSH2 0x84 SWAP2 SWAP1 PUSH2 0x251 JUMP JUMPDEST SWAP1 POP DUP1 SWAP2 POP POP SWAP2 SWAP1 POP JUMP JUMPDEST PUSH0 DUP1 REVERT JUMPDEST PUSH0 DUP2 SWAP1 POP SWAP2 SWAP1 POP JUMP JUMPDEST PUSH2 0xA5 DUP2 PUSH2 0x93 JUMP JUMPDEST DUP2 EQ PUSH2 0xAF JUMPI PUSH0 DUP1 REVERT JUMPDEST POP JUMP JUMPDEST PUSH0 DUP2 CALLDATALOAD SWAP1 POP PUSH2 0xC0 DUP2 PUSH2 0x9C JUMP JUMPDEST SWAP3 SWAP2 POP POP JUMP JUMPDEST PUSH0 PUSH1 0x20 DUP3 DUP5 SUB SLT ISZERO PUSH2 0xDB JUMPI PUSH2 0xDA PUSH2 0x8F JUMP JUMPDEST JUMPDEST PUSH0 PUSH2 0xE8 DUP5 DUP3 DUP6 ADD PUSH2 0xB2 JUMP JUMPDEST SWAP2 POP POP SWAP3 SWAP2 POP POP JUMP JUMPDEST PUSH2 0xFA DUP2 PUSH2 0x93 JUMP JUMPDEST DUP3 MSTORE POP POP JUMP JUMPDEST PUSH0 PUSH1 0x20 DUP3 ADD SWAP1 POP PUSH2 0x113 PUSH0 DUP4 ADD DUP5 PUSH2 0xF1 JUMP JUMPDEST SWAP3 SWAP2 POP POP JUMP JUMPDEST PUSH32 0x4E487B7100000000000000000000000000000000000000000000000000000000 PUSH0 MSTORE PUSH1 0x11 PUSH1 0x4 MSTORE PUSH1 0x24 PUSH0 REVERT JUMPDEST PUSH0 PUSH2 0x150 DUP3 PUSH2 0x93 JUMP JUMPDEST SWAP2 POP PUSH2 0x15B DUP4 PUSH2 0x93 JUMP JUMPDEST SWAP3 POP DUP3 DUP3 MUL PUSH2 0x169 DUP2 PUSH2 0x93 JUMP JUMPDEST SWAP2 POP PUSH32 0x8000000000000000000000000000000000000000000000000000000000000000 DUP5 EQ PUSH0 DUP5 SLT AND ISZERO PUSH2 0x1A0 JUMPI PUSH2 0x19F PUSH2 0x119 JUMP JUMPDEST JUMPDEST DUP3 DUP3 SDIV DUP5 EQ DUP4 ISZERO OR PUSH2 0x1B5 JUMPI PUSH2 0x1B4 PUSH2 0x119 JUMP JUMPDEST JUMPDEST POP SWAP3 SWAP2 POP POP JUMP JUMPDEST PUSH32 0x4E487B7100000000000000000000000000000000000000000000000000000000 PUSH0 MSTORE PUSH1 0x12 PUSH1 0x4 MSTORE PUSH1 0x24 PUSH0 REVERT JUMPDEST PUSH0 PUSH2 0x1F3 DUP3 PUSH2 0x93 JUMP JUMPDEST SWAP2 POP PUSH2 0x1FE DUP4 PUSH2 0x93 JUMP JUMPDEST SWAP3 POP DUP3 PUSH2 0x20E JUMPI PUSH2 0x20D PUSH2 0x1BC JUMP JUMPDEST JUMPDEST PUSH1 0x1 PUSH0 SUB DUP4 EQ PUSH32 0x8000000000000000000000000000000000000000000000000000000000000000 DUP4 EQ AND ISZERO PUSH2 0x246 JUMPI PUSH2 0x245 PUSH2 0x119 JUMP JUMPDEST JUMPDEST DUP3 DUP3 SDIV SWAP1 POP SWAP3 SWAP2 POP POP JUMP JUMPDEST PUSH0 PUSH2 0x25B DUP3 PUSH2 0x93 JUMP JUMPDEST SWAP2 POP PUSH2 0x266 DUP4 PUSH2 0x93 JUMP JUMPDEST SWAP3 POP DUP3 DUP3 ADD SWAP1 POP DUP3 DUP2 SLT ISZERO PUSH0 DUP4 SLT AND DUP4 DUP3 SLT PUSH0 DUP5 SLT ISZERO AND OR ISZERO PUSH2 0x28C JUMPI PUSH2 0x28B PUSH2 0x119 JUMP JUMPDEST JUMPDEST SWAP3 SWAP2 POP POP JUMP INVALID LOG2 PUSH5 0x6970667358 0x22 SLT KECCAK256 0xD9 0xFC PUSH29 0x7874AD6C3C71A725C39AAFAE58046A59C1391306DE2410A66FE03F00E8 PUSH5 0x736F6C6343 STOP ADDMOD BYTE STOP CALLER "
		},
		"gasEstimates": {
			"creation": {
				"codeDepositCost": "142400",
				"executionCost": "188",
				"totalCost": "142588"
			},
			"external": {
				"convert(int256)": "infinite"
			}
		},
		"methodIdentifiers": {
			"convert(int256)": "f90432e7"
		}
	},
	"abi": [
		{
			"inputs": [
				{
					"internalType": "int256",
					"name": "celsius",
					"type": "int256"
				}
			],
			"name": "convert",
			"outputs": [
				{
					"internalType": "int256",
					"name": "",
					"type": "int256"
				}
			],
			"stateMutability": "pure",
			"type": "function"
		}
	]
}