{
	"Day05/d5hw3.sol": {
		"ArrayReversal": {
			"abi": [
				{
					"anonymous": false,
					"inputs": [
						{
							"indexed": false,
							"internalType": "uint256[]",
							"name": "reversedArray",
							"type": "uint256[]"
						}
					],
					"name": "ArrayReversed",
					"type": "event"
				},
				{
					"inputs": [
						{
							"internalType": "uint256",
							"name": "",
							"type": "uint256"
						}
					],
					"name": "arr",
					"outputs": [
						{
							"internalType": "uint256",
							"name": "",
							"type": "uint256"
						}
					],
					"stateMutability": "view",
					"type": "function"
				},
				{
					"inputs": [],
					"name": "getArray",
					"outputs": [
						{
							"internalType": "uint256[]",
							"name": "",
							"type": "uint256[]"
						}
					],
					"stateMutability": "view",
					"type": "function"
				},
				{
					"inputs": [],
					"name": "reverseArray",
					"outputs": [],
					"stateMutability": "nonpayable",
					"type": "function"
				},
				{
					"inputs": [
						{
							"internalType": "uint256[]",
							"name": "inputArray",
							"type": "uint256[]"
						}
					],
					"name": "setArray",
					"outputs": [],
					"stateMutability": "nonpayable",
					"type": "function"
				}
			],
			"devdoc": {
				"kind": "dev",
				"methods": {},
				"version": 1
			},
			"evm": {
				"assembly": "    /* \"Day05/d5hw3.sol\":72:1088  contract ArrayReversal {... */\n  mstore(0x40, 0x80)\n  callvalue\n  dup1\n  iszero\n  tag_1\n  jumpi\n  0x00\n  dup1\n  revert\ntag_1:\n  pop\n  dataSize(sub_0)\n  dup1\n  dataOffset(sub_0)\n  0x00\n  codecopy\n  0x00\n  return\nstop\n\nsub_0: assembly {\n        /* \"Day05/d5hw3.sol\":72:1088  contract ArrayReversal {... */\n      mstore(0x40, 0x80)\n      callvalue\n      dup1\n      iszero\n      tag_1\n      jumpi\n      0x00\n      dup1\n      revert\n    tag_1:\n      pop\n      jumpi(tag_2, lt(calldatasize, 0x04))\n      shr(0xe0, calldataload(0x00))\n      dup1\n      0x08d71642\n      eq\n      tag_3\n      jumpi\n      dup1\n      0x2c1360b2\n      eq\n      tag_4\n      jumpi\n      dup1\n      0x71e5ee5f\n      eq\n      tag_5\n      jumpi\n      dup1\n      0xd504ea1d\n      eq\n      tag_6\n      jumpi\n    tag_2:\n      0x00\n      dup1\n      revert\n        /* \"Day05/d5hw3.sol\":312:398  function setArray(uint[] memory inputArray) public {... */\n    tag_3:\n      tag_7\n      0x04\n      dup1\n      calldatasize\n      sub\n      dup2\n      add\n      swap1\n      tag_8\n      swap2\n      swap1\n      tag_9\n      jump\t// in\n    tag_8:\n      tag_10\n      jump\t// in\n    tag_7:\n      stop\n        /* \"Day05/d5hw3.sol\":460:945  function reverseArray() public {... */\n    tag_4:\n      tag_11\n      tag_12\n      jump\t// in\n    tag_11:\n      stop\n        /* \"Day05/d5hw3.sol\":148:165  uint[] public arr */\n    tag_5:\n      tag_13\n      0x04\n      dup1\n      calldatasize\n      sub\n      dup2\n      add\n      swap1\n      tag_14\n      swap2\n      swap1\n      tag_15\n      jump\t// in\n    tag_14:\n      tag_16\n      jump\t// in\n    tag_13:\n      mload(0x40)\n      tag_17\n      swap2\n      swap1\n      tag_18\n      jump\t// in\n    tag_17:\n      mload(0x40)\n      dup1\n      swap2\n      sub\n      swap1\n      return\n        /* \"Day05/d5hw3.sol\":1000:1085  function getArray() public view returns (uint[] memory) {... */\n    tag_6:\n      tag_19\n      tag_20\n      jump\t// in\n    tag_19:\n      mload(0x40)\n      tag_21\n      swap2\n      swap1\n      tag_22\n      jump\t// in\n    tag_21:\n      mload(0x40)\n      dup1\n      swap2\n      sub\n      swap1\n      return\n        /* \"Day05/d5hw3.sol\":312:398  function setArray(uint[] memory inputArray) public {... */\n    tag_10:\n        /* \"Day05/d5hw3.sol\":380:390  inputArray */\n      dup1\n        /* \"Day05/d5hw3.sol\":374:377  arr */\n      0x00\n        /* \"Day05/d5hw3.sol\":374:390  arr = inputArray */\n      swap1\n      dup1\n      mload\n      swap1\n      0x20\n      add\n      swap1\n      tag_24\n      swap3\n      swap2\n      swap1\n      tag_25\n      jump\t// in\n    tag_24:\n      pop\n        /* \"Day05/d5hw3.sol\":312:398  function setArray(uint[] memory inputArray) public {... */\n      pop\n      jump\t// out\n        /* \"Day05/d5hw3.sol\":460:945  function reverseArray() public {... */\n    tag_12:\n        /* \"Day05/d5hw3.sol\":502:512  uint start */\n      0x00\n        /* \"Day05/d5hw3.sol\":527:535  uint end */\n      dup1\n        /* \"Day05/d5hw3.sol\":551:552  1 */\n      0x01\n        /* \"Day05/d5hw3.sol\":538:541  arr */\n      0x00\n        /* \"Day05/d5hw3.sol\":538:548  arr.length */\n      dup1\n      sload\n      swap1\n      pop\n        /* \"Day05/d5hw3.sol\":538:552  arr.length - 1 */\n      tag_27\n      swap2\n      swap1\n      tag_28\n      jump\t// in\n    tag_27:\n        /* \"Day05/d5hw3.sol\":527:552  uint end = arr.length - 1 */\n      swap1\n      pop\n        /* \"Day05/d5hw3.sol\":565:852  while (start < end) {... */\n    tag_29:\n        /* \"Day05/d5hw3.sol\":580:583  end */\n      dup1\n        /* \"Day05/d5hw3.sol\":572:577  start */\n      dup3\n        /* \"Day05/d5hw3.sol\":572:583  start < end */\n      lt\n        /* \"Day05/d5hw3.sol\":565:852  while (start < end) {... */\n      iszero\n      tag_30\n      jumpi\n        /* \"Day05/d5hw3.sol\":655:664  uint temp */\n      0x00\n        /* \"Day05/d5hw3.sol\":667:670  arr */\n      dup1\n        /* \"Day05/d5hw3.sol\":671:676  start */\n      dup4\n        /* \"Day05/d5hw3.sol\":667:677  arr[start] */\n      dup2\n      sload\n      dup2\n      lt\n      tag_31\n      jumpi\n      tag_32\n      tag_33\n      jump\t// in\n    tag_32:\n    tag_31:\n      swap1\n      0x00\n      mstore\n      keccak256(0x00, 0x20)\n      add\n      sload\n        /* \"Day05/d5hw3.sol\":655:677  uint temp = arr[start] */\n      swap1\n      pop\n        /* \"Day05/d5hw3.sol\":705:708  arr */\n      0x00\n        /* \"Day05/d5hw3.sol\":709:712  end */\n      dup3\n        /* \"Day05/d5hw3.sol\":705:713  arr[end] */\n      dup2\n      sload\n      dup2\n      lt\n      tag_35\n      jumpi\n      tag_36\n      tag_33\n      jump\t// in\n    tag_36:\n    tag_35:\n      swap1\n      0x00\n      mstore\n      keccak256(0x00, 0x20)\n      add\n      sload\n        /* \"Day05/d5hw3.sol\":692:695  arr */\n      0x00\n        /* \"Day05/d5hw3.sol\":696:701  start */\n      dup5\n        /* \"Day05/d5hw3.sol\":692:702  arr[start] */\n      dup2\n      sload\n      dup2\n      lt\n      tag_38\n      jumpi\n      tag_39\n      tag_33\n      jump\t// in\n    tag_39:\n    tag_38:\n      swap1\n      0x00\n      mstore\n      keccak256(0x00, 0x20)\n      add\n        /* \"Day05/d5hw3.sol\":692:713  arr[start] = arr[end] */\n      dup2\n      swap1\n      sstore\n      pop\n        /* \"Day05/d5hw3.sol\":739:743  temp */\n      dup1\n        /* \"Day05/d5hw3.sol\":728:731  arr */\n      0x00\n        /* \"Day05/d5hw3.sol\":732:735  end */\n      dup4\n        /* \"Day05/d5hw3.sol\":728:736  arr[end] */\n      dup2\n      sload\n      dup2\n      lt\n      tag_41\n      jumpi\n      tag_42\n      tag_33\n      jump\t// in\n    tag_42:\n    tag_41:\n      swap1\n      0x00\n      mstore\n      keccak256(0x00, 0x20)\n      add\n        /* \"Day05/d5hw3.sol\":728:743  arr[end] = temp */\n      dup2\n      swap1\n      sstore\n      pop\n        /* \"Day05/d5hw3.sol\":813:820  start++ */\n      dup3\n      dup1\n      tag_44\n      swap1\n      tag_45\n      jump\t// in\n    tag_44:\n      swap4\n      pop\n      pop\n        /* \"Day05/d5hw3.sol\":835:840  end-- */\n      dup2\n      dup1\n      tag_46\n      swap1\n      tag_47\n      jump\t// in\n    tag_46:\n      swap3\n      pop\n      pop\n        /* \"Day05/d5hw3.sol\":585:852  {... */\n      pop\n        /* \"Day05/d5hw3.sol\":565:852  while (start < end) {... */\n      jump(tag_29)\n    tag_30:\n        /* \"Day05/d5hw3.sol\":919:937  ArrayReversed(arr) */\n      0xb25ca0fb7c677133618c39136ac881e9853b8a134383d1218ea4bd65e8786240\n        /* \"Day05/d5hw3.sol\":933:936  arr */\n      0x00\n        /* \"Day05/d5hw3.sol\":919:937  ArrayReversed(arr) */\n      mload(0x40)\n      tag_48\n      swap2\n      swap1\n      tag_49\n      jump\t// in\n    tag_48:\n      mload(0x40)\n      dup1\n      swap2\n      sub\n      swap1\n      log1\n        /* \"Day05/d5hw3.sol\":491:945  {... */\n      pop\n      pop\n        /* \"Day05/d5hw3.sol\":460:945  function reverseArray() public {... */\n      jump\t// out\n        /* \"Day05/d5hw3.sol\":148:165  uint[] public arr */\n    tag_16:\n      0x00\n      dup2\n      dup2\n      sload\n      dup2\n      lt\n      tag_50\n      jumpi\n      0x00\n      dup1\n      revert\n    tag_50:\n      swap1\n      0x00\n      mstore\n      keccak256(0x00, 0x20)\n      add\n      0x00\n      swap2\n      pop\n      swap1\n      pop\n      sload\n      dup2\n      jump\t// out\n        /* \"Day05/d5hw3.sol\":1000:1085  function getArray() public view returns (uint[] memory) {... */\n    tag_20:\n        /* \"Day05/d5hw3.sol\":1041:1054  uint[] memory */\n      0x60\n        /* \"Day05/d5hw3.sol\":1074:1077  arr */\n      0x00\n        /* \"Day05/d5hw3.sol\":1067:1077  return arr */\n      dup1\n      sload\n      dup1\n      0x20\n      mul\n      0x20\n      add\n      mload(0x40)\n      swap1\n      dup2\n      add\n      0x40\n      mstore\n      dup1\n      swap3\n      swap2\n      swap1\n      dup2\n      dup2\n      mstore\n      0x20\n      add\n      dup3\n      dup1\n      sload\n      dup1\n      iszero\n      tag_53\n      jumpi\n      0x20\n      mul\n      dup3\n      add\n      swap2\n      swap1\n      0x00\n      mstore\n      keccak256(0x00, 0x20)\n      swap1\n    tag_54:\n      dup2\n      sload\n      dup2\n      mstore\n      0x20\n      add\n      swap1\n      0x01\n      add\n      swap1\n      dup1\n      dup4\n      gt\n      tag_54\n      jumpi\n    tag_53:\n      pop\n      pop\n      pop\n      pop\n      pop\n      swap1\n      pop\n        /* \"Day05/d5hw3.sol\":1000:1085  function getArray() public view returns (uint[] memory) {... */\n      swap1\n      jump\t// out\n    tag_25:\n      dup3\n      dup1\n      sload\n      dup3\n      dup3\n      sstore\n      swap1\n      0x00\n      mstore\n      keccak256(0x00, 0x20)\n      swap1\n      dup2\n      add\n      swap3\n      dup3\n      iszero\n      tag_55\n      jumpi\n      swap2\n      0x20\n      mul\n      dup3\n      add\n    tag_56:\n      dup3\n      dup2\n      gt\n      iszero\n      tag_57\n      jumpi\n      dup3\n      mload\n      dup3\n      sstore\n      swap2\n      0x20\n      add\n      swap2\n      swap1\n      0x01\n      add\n      swap1\n      jump(tag_56)\n    tag_57:\n    tag_55:\n      pop\n      swap1\n      pop\n      tag_58\n      swap2\n      swap1\n      tag_59\n      jump\t// in\n    tag_58:\n      pop\n      swap1\n      jump\t// out\n    tag_59:\n    tag_60:\n      dup1\n      dup3\n      gt\n      iszero\n      tag_61\n      jumpi\n      0x00\n      dup2\n      0x00\n      swap1\n      sstore\n      pop\n      0x01\n      add\n      jump(tag_60)\n    tag_61:\n      pop\n      swap1\n      jump\t// out\n        /* \"#utility.yul\":7:82   */\n    tag_62:\n        /* \"#utility.yul\":40:46   */\n      0x00\n        /* \"#utility.yul\":73:75   */\n      0x40\n        /* \"#utility.yul\":67:76   */\n      mload\n        /* \"#utility.yul\":57:76   */\n      swap1\n      pop\n        /* \"#utility.yul\":7:82   */\n      swap1\n      jump\t// out\n        /* \"#utility.yul\":88:205   */\n    tag_63:\n        /* \"#utility.yul\":197:198   */\n      0x00\n        /* \"#utility.yul\":194:195   */\n      dup1\n        /* \"#utility.yul\":187:199   */\n      revert\n        /* \"#utility.yul\":211:328   */\n    tag_64:\n        /* \"#utility.yul\":320:321   */\n      0x00\n        /* \"#utility.yul\":317:318   */\n      dup1\n        /* \"#utility.yul\":310:322   */\n      revert\n        /* \"#utility.yul\":334:451   */\n    tag_65:\n        /* \"#utility.yul\":443:444   */\n      0x00\n        /* \"#utility.yul\":440:441   */\n      dup1\n        /* \"#utility.yul\":433:445   */\n      revert\n        /* \"#utility.yul\":457:559   */\n    tag_66:\n        /* \"#utility.yul\":498:504   */\n      0x00\n        /* \"#utility.yul\":549:551   */\n      0x1f\n        /* \"#utility.yul\":545:552   */\n      not\n        /* \"#utility.yul\":540:542   */\n      0x1f\n        /* \"#utility.yul\":533:538   */\n      dup4\n        /* \"#utility.yul\":529:543   */\n      add\n        /* \"#utility.yul\":525:553   */\n      and\n        /* \"#utility.yul\":515:553   */\n      swap1\n      pop\n        /* \"#utility.yul\":457:559   */\n      swap2\n      swap1\n      pop\n      jump\t// out\n        /* \"#utility.yul\":565:745   */\n    tag_67:\n        /* \"#utility.yul\":613:690   */\n      0x4e487b7100000000000000000000000000000000000000000000000000000000\n        /* \"#utility.yul\":610:611   */\n      0x00\n        /* \"#utility.yul\":603:691   */\n      mstore\n        /* \"#utility.yul\":710:714   */\n      0x41\n        /* \"#utility.yul\":707:708   */\n      0x04\n        /* \"#utility.yul\":700:715   */\n      mstore\n        /* \"#utility.yul\":734:738   */\n      0x24\n        /* \"#utility.yul\":731:732   */\n      0x00\n        /* \"#utility.yul\":724:739   */\n      revert\n        /* \"#utility.yul\":751:1032   */\n    tag_68:\n        /* \"#utility.yul\":834:861   */\n      tag_102\n        /* \"#utility.yul\":856:860   */\n      dup3\n        /* \"#utility.yul\":834:861   */\n      tag_66\n      jump\t// in\n    tag_102:\n        /* \"#utility.yul\":826:832   */\n      dup2\n        /* \"#utility.yul\":822:862   */\n      add\n        /* \"#utility.yul\":964:970   */\n      dup2\n        /* \"#utility.yul\":952:962   */\n      dup2\n        /* \"#utility.yul\":949:971   */\n      lt\n        /* \"#utility.yul\":928:946   */\n      0xffffffffffffffff\n        /* \"#utility.yul\":916:926   */\n      dup3\n        /* \"#utility.yul\":913:947   */\n      gt\n        /* \"#utility.yul\":910:972   */\n      or\n        /* \"#utility.yul\":907:995   */\n      iszero\n      tag_103\n      jumpi\n        /* \"#utility.yul\":975:993   */\n      tag_104\n      tag_67\n      jump\t// in\n    tag_104:\n        /* \"#utility.yul\":907:995   */\n    tag_103:\n        /* \"#utility.yul\":1015:1025   */\n      dup1\n        /* \"#utility.yul\":1011:1013   */\n      0x40\n        /* \"#utility.yul\":1004:1026   */\n      mstore\n        /* \"#utility.yul\":794:1032   */\n      pop\n        /* \"#utility.yul\":751:1032   */\n      pop\n      pop\n      jump\t// out\n        /* \"#utility.yul\":1038:1167   */\n    tag_69:\n        /* \"#utility.yul\":1072:1078   */\n      0x00\n        /* \"#utility.yul\":1099:1119   */\n      tag_106\n      tag_62\n      jump\t// in\n    tag_106:\n        /* \"#utility.yul\":1089:1119   */\n      swap1\n      pop\n        /* \"#utility.yul\":1128:1161   */\n      tag_107\n        /* \"#utility.yul\":1156:1160   */\n      dup3\n        /* \"#utility.yul\":1148:1154   */\n      dup3\n        /* \"#utility.yul\":1128:1161   */\n      tag_68\n      jump\t// in\n    tag_107:\n        /* \"#utility.yul\":1038:1167   */\n      swap2\n      swap1\n      pop\n      jump\t// out\n        /* \"#utility.yul\":1173:1484   */\n    tag_70:\n        /* \"#utility.yul\":1250:1254   */\n      0x00\n        /* \"#utility.yul\":1340:1358   */\n      0xffffffffffffffff\n        /* \"#utility.yul\":1332:1338   */\n      dup3\n        /* \"#utility.yul\":1329:1359   */\n      gt\n        /* \"#utility.yul\":1326:1382   */\n      iszero\n      tag_109\n      jumpi\n        /* \"#utility.yul\":1362:1380   */\n      tag_110\n      tag_67\n      jump\t// in\n    tag_110:\n        /* \"#utility.yul\":1326:1382   */\n    tag_109:\n        /* \"#utility.yul\":1412:1416   */\n      0x20\n        /* \"#utility.yul\":1404:1410   */\n      dup3\n        /* \"#utility.yul\":1400:1417   */\n      mul\n        /* \"#utility.yul\":1392:1417   */\n      swap1\n      pop\n        /* \"#utility.yul\":1472:1476   */\n      0x20\n        /* \"#utility.yul\":1466:1470   */\n      dup2\n        /* \"#utility.yul\":1462:1477   */\n      add\n        /* \"#utility.yul\":1454:1477   */\n      swap1\n      pop\n        /* \"#utility.yul\":1173:1484   */\n      swap2\n      swap1\n      pop\n      jump\t// out\n        /* \"#utility.yul\":1490:1607   */\n    tag_71:\n        /* \"#utility.yul\":1599:1600   */\n      0x00\n        /* \"#utility.yul\":1596:1597   */\n      dup1\n        /* \"#utility.yul\":1589:1601   */\n      revert\n        /* \"#utility.yul\":1613:1690   */\n    tag_72:\n        /* \"#utility.yul\":1650:1657   */\n      0x00\n        /* \"#utility.yul\":1679:1684   */\n      dup2\n        /* \"#utility.yul\":1668:1684   */\n      swap1\n      pop\n        /* \"#utility.yul\":1613:1690   */\n      swap2\n      swap1\n      pop\n      jump\t// out\n        /* \"#utility.yul\":1696:1818   */\n    tag_73:\n        /* \"#utility.yul\":1769:1793   */\n      tag_114\n        /* \"#utility.yul\":1787:1792   */\n      dup2\n        /* \"#utility.yul\":1769:1793   */\n      tag_72\n      jump\t// in\n    tag_114:\n        /* \"#utility.yul\":1762:1767   */\n      dup2\n        /* \"#utility.yul\":1759:1794   */\n      eq\n        /* \"#utility.yul\":1749:1812   */\n      tag_115\n      jumpi\n        /* \"#utility.yul\":1808:1809   */\n      0x00\n        /* \"#utility.yul\":1805:1806   */\n      dup1\n        /* \"#utility.yul\":1798:1810   */\n      revert\n        /* \"#utility.yul\":1749:1812   */\n    tag_115:\n        /* \"#utility.yul\":1696:1818   */\n      pop\n      jump\t// out\n        /* \"#utility.yul\":1824:1963   */\n    tag_74:\n        /* \"#utility.yul\":1870:1875   */\n      0x00\n        /* \"#utility.yul\":1908:1914   */\n      dup2\n        /* \"#utility.yul\":1895:1915   */\n      calldataload\n        /* \"#utility.yul\":1886:1915   */\n      swap1\n      pop\n        /* \"#utility.yul\":1924:1957   */\n      tag_117\n        /* \"#utility.yul\":1951:1956   */\n      dup2\n        /* \"#utility.yul\":1924:1957   */\n      tag_73\n      jump\t// in\n    tag_117:\n        /* \"#utility.yul\":1824:1963   */\n      swap3\n      swap2\n      pop\n      pop\n      jump\t// out\n        /* \"#utility.yul\":1986:2696   */\n    tag_75:\n        /* \"#utility.yul\":2082:2087   */\n      0x00\n        /* \"#utility.yul\":2107:2188   */\n      tag_119\n        /* \"#utility.yul\":2123:2187   */\n      tag_120\n        /* \"#utility.yul\":2180:2186   */\n      dup5\n        /* \"#utility.yul\":2123:2187   */\n      tag_70\n      jump\t// in\n    tag_120:\n        /* \"#utility.yul\":2107:2188   */\n      tag_69\n      jump\t// in\n    tag_119:\n        /* \"#utility.yul\":2098:2188   */\n      swap1\n      pop\n        /* \"#utility.yul\":2208:2213   */\n      dup1\n        /* \"#utility.yul\":2237:2243   */\n      dup4\n        /* \"#utility.yul\":2230:2235   */\n      dup3\n        /* \"#utility.yul\":2223:2244   */\n      mstore\n        /* \"#utility.yul\":2271:2275   */\n      0x20\n        /* \"#utility.yul\":2264:2269   */\n      dup3\n        /* \"#utility.yul\":2260:2276   */\n      add\n        /* \"#utility.yul\":2253:2276   */\n      swap1\n      pop\n        /* \"#utility.yul\":2324:2328   */\n      0x20\n        /* \"#utility.yul\":2316:2322   */\n      dup5\n        /* \"#utility.yul\":2312:2329   */\n      mul\n        /* \"#utility.yul\":2304:2310   */\n      dup4\n        /* \"#utility.yul\":2300:2330   */\n      add\n        /* \"#utility.yul\":2353:2356   */\n      dup6\n        /* \"#utility.yul\":2345:2351   */\n      dup2\n        /* \"#utility.yul\":2342:2357   */\n      gt\n        /* \"#utility.yul\":2339:2461   */\n      iszero\n      tag_121\n      jumpi\n        /* \"#utility.yul\":2372:2451   */\n      tag_122\n      tag_71\n      jump\t// in\n    tag_122:\n        /* \"#utility.yul\":2339:2461   */\n    tag_121:\n        /* \"#utility.yul\":2487:2493   */\n      dup4\n        /* \"#utility.yul\":2470:2690   */\n    tag_123:\n        /* \"#utility.yul\":2504:2510   */\n      dup2\n        /* \"#utility.yul\":2499:2502   */\n      dup2\n        /* \"#utility.yul\":2496:2511   */\n      lt\n        /* \"#utility.yul\":2470:2690   */\n      iszero\n      tag_125\n      jumpi\n        /* \"#utility.yul\":2579:2582   */\n      dup1\n        /* \"#utility.yul\":2608:2645   */\n      tag_126\n        /* \"#utility.yul\":2641:2644   */\n      dup9\n        /* \"#utility.yul\":2629:2639   */\n      dup3\n        /* \"#utility.yul\":2608:2645   */\n      tag_74\n      jump\t// in\n    tag_126:\n        /* \"#utility.yul\":2603:2606   */\n      dup5\n        /* \"#utility.yul\":2596:2646   */\n      mstore\n        /* \"#utility.yul\":2675:2679   */\n      0x20\n        /* \"#utility.yul\":2670:2673   */\n      dup5\n        /* \"#utility.yul\":2666:2680   */\n      add\n        /* \"#utility.yul\":2659:2680   */\n      swap4\n      pop\n        /* \"#utility.yul\":2546:2690   */\n      pop\n        /* \"#utility.yul\":2530:2534   */\n      0x20\n        /* \"#utility.yul\":2525:2528   */\n      dup2\n        /* \"#utility.yul\":2521:2535   */\n      add\n        /* \"#utility.yul\":2514:2535   */\n      swap1\n      pop\n        /* \"#utility.yul\":2470:2690   */\n      jump(tag_123)\n    tag_125:\n        /* \"#utility.yul\":2474:2495   */\n      pop\n        /* \"#utility.yul\":2088:2696   */\n      pop\n      pop\n        /* \"#utility.yul\":1986:2696   */\n      swap4\n      swap3\n      pop\n      pop\n      pop\n      jump\t// out\n        /* \"#utility.yul\":2719:3089   */\n    tag_76:\n        /* \"#utility.yul\":2790:2795   */\n      0x00\n        /* \"#utility.yul\":2839:2842   */\n      dup3\n        /* \"#utility.yul\":2832:2836   */\n      0x1f\n        /* \"#utility.yul\":2824:2830   */\n      dup4\n        /* \"#utility.yul\":2820:2837   */\n      add\n        /* \"#utility.yul\":2816:2843   */\n      slt\n        /* \"#utility.yul\":2806:2928   */\n      tag_128\n      jumpi\n        /* \"#utility.yul\":2847:2926   */\n      tag_129\n      tag_65\n      jump\t// in\n    tag_129:\n        /* \"#utility.yul\":2806:2928   */\n    tag_128:\n        /* \"#utility.yul\":2964:2970   */\n      dup2\n        /* \"#utility.yul\":2951:2971   */\n      calldataload\n        /* \"#utility.yul\":2989:3083   */\n      tag_130\n        /* \"#utility.yul\":3079:3082   */\n      dup5\n        /* \"#utility.yul\":3071:3077   */\n      dup3\n        /* \"#utility.yul\":3064:3068   */\n      0x20\n        /* \"#utility.yul\":3056:3062   */\n      dup7\n        /* \"#utility.yul\":3052:3069   */\n      add\n        /* \"#utility.yul\":2989:3083   */\n      tag_75\n      jump\t// in\n    tag_130:\n        /* \"#utility.yul\":2980:3083   */\n      swap2\n      pop\n        /* \"#utility.yul\":2796:3089   */\n      pop\n        /* \"#utility.yul\":2719:3089   */\n      swap3\n      swap2\n      pop\n      pop\n      jump\t// out\n        /* \"#utility.yul\":3095:3634   */\n    tag_9:\n        /* \"#utility.yul\":3179:3185   */\n      0x00\n        /* \"#utility.yul\":3228:3230   */\n      0x20\n        /* \"#utility.yul\":3216:3225   */\n      dup3\n        /* \"#utility.yul\":3207:3214   */\n      dup5\n        /* \"#utility.yul\":3203:3226   */\n      sub\n        /* \"#utility.yul\":3199:3231   */\n      slt\n        /* \"#utility.yul\":3196:3315   */\n      iszero\n      tag_132\n      jumpi\n        /* \"#utility.yul\":3234:3313   */\n      tag_133\n      tag_63\n      jump\t// in\n    tag_133:\n        /* \"#utility.yul\":3196:3315   */\n    tag_132:\n        /* \"#utility.yul\":3382:3383   */\n      0x00\n        /* \"#utility.yul\":3371:3380   */\n      dup3\n        /* \"#utility.yul\":3367:3384   */\n      add\n        /* \"#utility.yul\":3354:3385   */\n      calldataload\n        /* \"#utility.yul\":3412:3430   */\n      0xffffffffffffffff\n        /* \"#utility.yul\":3404:3410   */\n      dup2\n        /* \"#utility.yul\":3401:3431   */\n      gt\n        /* \"#utility.yul\":3398:3515   */\n      iszero\n      tag_134\n      jumpi\n        /* \"#utility.yul\":3434:3513   */\n      tag_135\n      tag_64\n      jump\t// in\n    tag_135:\n        /* \"#utility.yul\":3398:3515   */\n    tag_134:\n        /* \"#utility.yul\":3539:3617   */\n      tag_136\n        /* \"#utility.yul\":3609:3616   */\n      dup5\n        /* \"#utility.yul\":3600:3606   */\n      dup3\n        /* \"#utility.yul\":3589:3598   */\n      dup6\n        /* \"#utility.yul\":3585:3607   */\n      add\n        /* \"#utility.yul\":3539:3617   */\n      tag_76\n      jump\t// in\n    tag_136:\n        /* \"#utility.yul\":3529:3617   */\n      swap2\n      pop\n        /* \"#utility.yul\":3325:3627   */\n      pop\n        /* \"#utility.yul\":3095:3634   */\n      swap3\n      swap2\n      pop\n      pop\n      jump\t// out\n        /* \"#utility.yul\":3640:3969   */\n    tag_15:\n        /* \"#utility.yul\":3699:3705   */\n      0x00\n        /* \"#utility.yul\":3748:3750   */\n      0x20\n        /* \"#utility.yul\":3736:3745   */\n      dup3\n        /* \"#utility.yul\":3727:3734   */\n      dup5\n        /* \"#utility.yul\":3723:3746   */\n      sub\n        /* \"#utility.yul\":3719:3751   */\n      slt\n        /* \"#utility.yul\":3716:3835   */\n      iszero\n      tag_138\n      jumpi\n        /* \"#utility.yul\":3754:3833   */\n      tag_139\n      tag_63\n      jump\t// in\n    tag_139:\n        /* \"#utility.yul\":3716:3835   */\n    tag_138:\n        /* \"#utility.yul\":3874:3875   */\n      0x00\n        /* \"#utility.yul\":3899:3952   */\n      tag_140\n        /* \"#utility.yul\":3944:3951   */\n      dup5\n        /* \"#utility.yul\":3935:3941   */\n      dup3\n        /* \"#utility.yul\":3924:3933   */\n      dup6\n        /* \"#utility.yul\":3920:3942   */\n      add\n        /* \"#utility.yul\":3899:3952   */\n      tag_74\n      jump\t// in\n    tag_140:\n        /* \"#utility.yul\":3889:3952   */\n      swap2\n      pop\n        /* \"#utility.yul\":3845:3962   */\n      pop\n        /* \"#utility.yul\":3640:3969   */\n      swap3\n      swap2\n      pop\n      pop\n      jump\t// out\n        /* \"#utility.yul\":3975:4093   */\n    tag_77:\n        /* \"#utility.yul\":4062:4086   */\n      tag_142\n        /* \"#utility.yul\":4080:4085   */\n      dup2\n        /* \"#utility.yul\":4062:4086   */\n      tag_72\n      jump\t// in\n    tag_142:\n        /* \"#utility.yul\":4057:4060   */\n      dup3\n        /* \"#utility.yul\":4050:4087   */\n      mstore\n        /* \"#utility.yul\":3975:4093   */\n      pop\n      pop\n      jump\t// out\n        /* \"#utility.yul\":4099:4321   */\n    tag_18:\n        /* \"#utility.yul\":4192:4196   */\n      0x00\n        /* \"#utility.yul\":4230:4232   */\n      0x20\n        /* \"#utility.yul\":4219:4228   */\n      dup3\n        /* \"#utility.yul\":4215:4233   */\n      add\n        /* \"#utility.yul\":4207:4233   */\n      swap1\n      pop\n        /* \"#utility.yul\":4243:4314   */\n      tag_144\n        /* \"#utility.yul\":4311:4312   */\n      0x00\n        /* \"#utility.yul\":4300:4309   */\n      dup4\n        /* \"#utility.yul\":4296:4313   */\n      add\n        /* \"#utility.yul\":4287:4293   */\n      dup5\n        /* \"#utility.yul\":4243:4314   */\n      tag_77\n      jump\t// in\n    tag_144:\n        /* \"#utility.yul\":4099:4321   */\n      swap3\n      swap2\n      pop\n      pop\n      jump\t// out\n        /* \"#utility.yul\":4327:4441   */\n    tag_78:\n        /* \"#utility.yul\":4394:4400   */\n      0x00\n        /* \"#utility.yul\":4428:4433   */\n      dup2\n        /* \"#utility.yul\":4422:4434   */\n      mload\n        /* \"#utility.yul\":4412:4434   */\n      swap1\n      pop\n        /* \"#utility.yul\":4327:4441   */\n      swap2\n      swap1\n      pop\n      jump\t// out\n        /* \"#utility.yul\":4447:4631   */\n    tag_79:\n        /* \"#utility.yul\":4546:4557   */\n      0x00\n        /* \"#utility.yul\":4580:4586   */\n      dup3\n        /* \"#utility.yul\":4575:4578   */\n      dup3\n        /* \"#utility.yul\":4568:4587   */\n      mstore\n        /* \"#utility.yul\":4620:4624   */\n      0x20\n        /* \"#utility.yul\":4615:4618   */\n      dup3\n        /* \"#utility.yul\":4611:4625   */\n      add\n        /* \"#utility.yul\":4596:4625   */\n      swap1\n      pop\n        /* \"#utility.yul\":4447:4631   */\n      swap3\n      swap2\n      pop\n      pop\n      jump\t// out\n        /* \"#utility.yul\":4637:4769   */\n    tag_80:\n        /* \"#utility.yul\":4704:4708   */\n      0x00\n        /* \"#utility.yul\":4727:4730   */\n      dup2\n        /* \"#utility.yul\":4719:4730   */\n      swap1\n      pop\n        /* \"#utility.yul\":4757:4761   */\n      0x20\n        /* \"#utility.yul\":4752:4755   */\n      dup3\n        /* \"#utility.yul\":4748:4762   */\n      add\n        /* \"#utility.yul\":4740:4762   */\n      swap1\n      pop\n        /* \"#utility.yul\":4637:4769   */\n      swap2\n      swap1\n      pop\n      jump\t// out\n        /* \"#utility.yul\":4775:4883   */\n    tag_81:\n        /* \"#utility.yul\":4852:4876   */\n      tag_149\n        /* \"#utility.yul\":4870:4875   */\n      dup2\n        /* \"#utility.yul\":4852:4876   */\n      tag_72\n      jump\t// in\n    tag_149:\n        /* \"#utility.yul\":4847:4850   */\n      dup3\n        /* \"#utility.yul\":4840:4877   */\n      mstore\n        /* \"#utility.yul\":4775:4883   */\n      pop\n      pop\n      jump\t// out\n        /* \"#utility.yul\":4889:5068   */\n    tag_82:\n        /* \"#utility.yul\":4958:4968   */\n      0x00\n        /* \"#utility.yul\":4979:5025   */\n      tag_151\n        /* \"#utility.yul\":5021:5024   */\n      dup4\n        /* \"#utility.yul\":5013:5019   */\n      dup4\n        /* \"#utility.yul\":4979:5025   */\n      tag_81\n      jump\t// in\n    tag_151:\n        /* \"#utility.yul\":5057:5061   */\n      0x20\n        /* \"#utility.yul\":5052:5055   */\n      dup4\n        /* \"#utility.yul\":5048:5062   */\n      add\n        /* \"#utility.yul\":5034:5062   */\n      swap1\n      pop\n        /* \"#utility.yul\":4889:5068   */\n      swap3\n      swap2\n      pop\n      pop\n      jump\t// out\n        /* \"#utility.yul\":5074:5187   */\n    tag_83:\n        /* \"#utility.yul\":5144:5148   */\n      0x00\n        /* \"#utility.yul\":5176:5180   */\n      0x20\n        /* \"#utility.yul\":5171:5174   */\n      dup3\n        /* \"#utility.yul\":5167:5181   */\n      add\n        /* \"#utility.yul\":5159:5181   */\n      swap1\n      pop\n        /* \"#utility.yul\":5074:5187   */\n      swap2\n      swap1\n      pop\n      jump\t// out\n        /* \"#utility.yul\":5223:5955   */\n    tag_84:\n        /* \"#utility.yul\":5342:5345   */\n      0x00\n        /* \"#utility.yul\":5371:5425   */\n      tag_154\n        /* \"#utility.yul\":5419:5424   */\n      dup3\n        /* \"#utility.yul\":5371:5425   */\n      tag_78\n      jump\t// in\n    tag_154:\n        /* \"#utility.yul\":5441:5527   */\n      tag_155\n        /* \"#utility.yul\":5520:5526   */\n      dup2\n        /* \"#utility.yul\":5515:5518   */\n      dup6\n        /* \"#utility.yul\":5441:5527   */\n      tag_79\n      jump\t// in\n    tag_155:\n        /* \"#utility.yul\":5434:5527   */\n      swap4\n      pop\n        /* \"#utility.yul\":5551:5607   */\n      tag_156\n        /* \"#utility.yul\":5601:5606   */\n      dup4\n        /* \"#utility.yul\":5551:5607   */\n      tag_80\n      jump\t// in\n    tag_156:\n        /* \"#utility.yul\":5630:5637   */\n      dup1\n        /* \"#utility.yul\":5661:5662   */\n      0x00\n        /* \"#utility.yul\":5646:5930   */\n    tag_157:\n        /* \"#utility.yul\":5671:5677   */\n      dup4\n        /* \"#utility.yul\":5668:5669   */\n      dup2\n        /* \"#utility.yul\":5665:5678   */\n      lt\n        /* \"#utility.yul\":5646:5930   */\n      iszero\n      tag_159\n      jumpi\n        /* \"#utility.yul\":5747:5753   */\n      dup2\n        /* \"#utility.yul\":5741:5754   */\n      mload\n        /* \"#utility.yul\":5774:5837   */\n      tag_160\n        /* \"#utility.yul\":5833:5836   */\n      dup9\n        /* \"#utility.yul\":5818:5831   */\n      dup3\n        /* \"#utility.yul\":5774:5837   */\n      tag_82\n      jump\t// in\n    tag_160:\n        /* \"#utility.yul\":5767:5837   */\n      swap8\n      pop\n        /* \"#utility.yul\":5860:5920   */\n      tag_161\n        /* \"#utility.yul\":5913:5919   */\n      dup4\n        /* \"#utility.yul\":5860:5920   */\n      tag_83\n      jump\t// in\n    tag_161:\n        /* \"#utility.yul\":5850:5920   */\n      swap3\n      pop\n        /* \"#utility.yul\":5706:5930   */\n      pop\n        /* \"#utility.yul\":5693:5694   */\n      0x01\n        /* \"#utility.yul\":5690:5691   */\n      dup2\n        /* \"#utility.yul\":5686:5695   */\n      add\n        /* \"#utility.yul\":5681:5695   */\n      swap1\n      pop\n        /* \"#utility.yul\":5646:5930   */\n      jump(tag_157)\n    tag_159:\n        /* \"#utility.yul\":5650:5664   */\n      pop\n        /* \"#utility.yul\":5946:5949   */\n      dup6\n        /* \"#utility.yul\":5939:5949   */\n      swap4\n      pop\n        /* \"#utility.yul\":5347:5955   */\n      pop\n      pop\n      pop\n        /* \"#utility.yul\":5223:5955   */\n      swap3\n      swap2\n      pop\n      pop\n      jump\t// out\n        /* \"#utility.yul\":5961:6334   */\n    tag_22:\n        /* \"#utility.yul\":6104:6108   */\n      0x00\n        /* \"#utility.yul\":6142:6144   */\n      0x20\n        /* \"#utility.yul\":6131:6140   */\n      dup3\n        /* \"#utility.yul\":6127:6145   */\n      add\n        /* \"#utility.yul\":6119:6145   */\n      swap1\n      pop\n        /* \"#utility.yul\":6191:6200   */\n      dup2\n        /* \"#utility.yul\":6185:6189   */\n      dup2\n        /* \"#utility.yul\":6181:6201   */\n      sub\n        /* \"#utility.yul\":6177:6178   */\n      0x00\n        /* \"#utility.yul\":6166:6175   */\n      dup4\n        /* \"#utility.yul\":6162:6179   */\n      add\n        /* \"#utility.yul\":6155:6202   */\n      mstore\n        /* \"#utility.yul\":6219:6327   */\n      tag_163\n        /* \"#utility.yul\":6322:6326   */\n      dup2\n        /* \"#utility.yul\":6313:6319   */\n      dup5\n        /* \"#utility.yul\":6219:6327   */\n      tag_84\n      jump\t// in\n    tag_163:\n        /* \"#utility.yul\":6211:6327   */\n      swap1\n      pop\n        /* \"#utility.yul\":5961:6334   */\n      swap3\n      swap2\n      pop\n      pop\n      jump\t// out\n        /* \"#utility.yul\":6340:6520   */\n    tag_85:\n        /* \"#utility.yul\":6388:6465   */\n      0x4e487b7100000000000000000000000000000000000000000000000000000000\n        /* \"#utility.yul\":6385:6386   */\n      0x00\n        /* \"#utility.yul\":6378:6466   */\n      mstore\n        /* \"#utility.yul\":6485:6489   */\n      0x11\n        /* \"#utility.yul\":6482:6483   */\n      0x04\n        /* \"#utility.yul\":6475:6490   */\n      mstore\n        /* \"#utility.yul\":6509:6513   */\n      0x24\n        /* \"#utility.yul\":6506:6507   */\n      0x00\n        /* \"#utility.yul\":6499:6514   */\n      revert\n        /* \"#utility.yul\":6526:6720   */\n    tag_28:\n        /* \"#utility.yul\":6566:6570   */\n      0x00\n        /* \"#utility.yul\":6586:6606   */\n      tag_166\n        /* \"#utility.yul\":6604:6605   */\n      dup3\n        /* \"#utility.yul\":6586:6606   */\n      tag_72\n      jump\t// in\n    tag_166:\n        /* \"#utility.yul\":6581:6606   */\n      swap2\n      pop\n        /* \"#utility.yul\":6620:6640   */\n      tag_167\n        /* \"#utility.yul\":6638:6639   */\n      dup4\n        /* \"#utility.yul\":6620:6640   */\n      tag_72\n      jump\t// in\n    tag_167:\n        /* \"#utility.yul\":6615:6640   */\n      swap3\n      pop\n        /* \"#utility.yul\":6664:6665   */\n      dup3\n        /* \"#utility.yul\":6661:6662   */\n      dup3\n        /* \"#utility.yul\":6657:6666   */\n      sub\n        /* \"#utility.yul\":6649:6666   */\n      swap1\n      pop\n        /* \"#utility.yul\":6688:6689   */\n      dup2\n        /* \"#utility.yul\":6682:6686   */\n      dup2\n        /* \"#utility.yul\":6679:6690   */\n      gt\n        /* \"#utility.yul\":6676:6713   */\n      iszero\n      tag_168\n      jumpi\n        /* \"#utility.yul\":6693:6711   */\n      tag_169\n      tag_85\n      jump\t// in\n    tag_169:\n        /* \"#utility.yul\":6676:6713   */\n    tag_168:\n        /* \"#utility.yul\":6526:6720   */\n      swap3\n      swap2\n      pop\n      pop\n      jump\t// out\n        /* \"#utility.yul\":6726:6906   */\n    tag_33:\n        /* \"#utility.yul\":6774:6851   */\n      0x4e487b7100000000000000000000000000000000000000000000000000000000\n        /* \"#utility.yul\":6771:6772   */\n      0x00\n        /* \"#utility.yul\":6764:6852   */\n      mstore\n        /* \"#utility.yul\":6871:6875   */\n      0x32\n        /* \"#utility.yul\":6868:6869   */\n      0x04\n        /* \"#utility.yul\":6861:6876   */\n      mstore\n        /* \"#utility.yul\":6895:6899   */\n      0x24\n        /* \"#utility.yul\":6892:6893   */\n      0x00\n        /* \"#utility.yul\":6885:6900   */\n      revert\n        /* \"#utility.yul\":6912:7145   */\n    tag_45:\n        /* \"#utility.yul\":6951:6954   */\n      0x00\n        /* \"#utility.yul\":6974:6998   */\n      tag_172\n        /* \"#utility.yul\":6992:6997   */\n      dup3\n        /* \"#utility.yul\":6974:6998   */\n      tag_72\n      jump\t// in\n    tag_172:\n        /* \"#utility.yul\":6965:6998   */\n      swap2\n      pop\n        /* \"#utility.yul\":7020:7086   */\n      0xffffffffffffffffffffffffffffffffffffffffffffffffffffffffffffffff\n        /* \"#utility.yul\":7013:7018   */\n      dup3\n        /* \"#utility.yul\":7010:7087   */\n      sub\n        /* \"#utility.yul\":7007:7110   */\n      tag_173\n      jumpi\n        /* \"#utility.yul\":7090:7108   */\n      tag_174\n      tag_85\n      jump\t// in\n    tag_174:\n        /* \"#utility.yul\":7007:7110   */\n    tag_173:\n        /* \"#utility.yul\":7137:7138   */\n      0x01\n        /* \"#utility.yul\":7130:7135   */\n      dup3\n        /* \"#utility.yul\":7126:7139   */\n      add\n        /* \"#utility.yul\":7119:7139   */\n      swap1\n      pop\n        /* \"#utility.yul\":6912:7145   */\n      swap2\n      swap1\n      pop\n      jump\t// out\n        /* \"#utility.yul\":7151:7322   */\n    tag_47:\n        /* \"#utility.yul\":7190:7193   */\n      0x00\n        /* \"#utility.yul\":7213:7237   */\n      tag_176\n        /* \"#utility.yul\":7231:7236   */\n      dup3\n        /* \"#utility.yul\":7213:7237   */\n      tag_72\n      jump\t// in\n    tag_176:\n        /* \"#utility.yul\":7204:7237   */\n      swap2\n      pop\n        /* \"#utility.yul\":7259:7263   */\n      0x00\n        /* \"#utility.yul\":7252:7257   */\n      dup3\n        /* \"#utility.yul\":7249:7264   */\n      sub\n        /* \"#utility.yul\":7246:7287   */\n      tag_177\n      jumpi\n        /* \"#utility.yul\":7267:7285   */\n      tag_178\n      tag_85\n      jump\t// in\n    tag_178:\n        /* \"#utility.yul\":7246:7287   */\n    tag_177:\n        /* \"#utility.yul\":7314:7315   */\n      0x01\n        /* \"#utility.yul\":7307:7312   */\n      dup3\n        /* \"#utility.yul\":7303:7316   */\n      sub\n        /* \"#utility.yul\":7296:7316   */\n      swap1\n      pop\n        /* \"#utility.yul\":7151:7322   */\n      swap2\n      swap1\n      pop\n      jump\t// out\n        /* \"#utility.yul\":7328:7439   */\n    tag_86:\n        /* \"#utility.yul\":7392:7398   */\n      0x00\n        /* \"#utility.yul\":7426:7431   */\n      dup2\n        /* \"#utility.yul\":7420:7432   */\n      sload\n        /* \"#utility.yul\":7410:7432   */\n      swap1\n      pop\n        /* \"#utility.yul\":7328:7439   */\n      swap2\n      swap1\n      pop\n      jump\t// out\n        /* \"#utility.yul\":7445:7601   */\n    tag_87:\n        /* \"#utility.yul\":7509:7513   */\n      0x00\n        /* \"#utility.yul\":7532:7535   */\n      dup2\n        /* \"#utility.yul\":7524:7535   */\n      swap1\n      pop\n        /* \"#utility.yul\":7555:7558   */\n      dup2\n        /* \"#utility.yul\":7552:7553   */\n      0x00\n        /* \"#utility.yul\":7545:7559   */\n      mstore\n        /* \"#utility.yul\":7589:7593   */\n      0x20\n        /* \"#utility.yul\":7586:7587   */\n      0x00\n        /* \"#utility.yul\":7576:7594   */\n      keccak256\n        /* \"#utility.yul\":7568:7594   */\n      swap1\n      pop\n        /* \"#utility.yul\":7445:7601   */\n      swap2\n      swap1\n      pop\n      jump\t// out\n        /* \"#utility.yul\":7607:7709   */\n    tag_88:\n        /* \"#utility.yul\":7649:7657   */\n      0x00\n        /* \"#utility.yul\":7696:7701   */\n      dup2\n        /* \"#utility.yul\":7693:7694   */\n      0x00\n        /* \"#utility.yul\":7689:7702   */\n      shr\n        /* \"#utility.yul\":7668:7702   */\n      swap1\n      pop\n        /* \"#utility.yul\":7607:7709   */\n      swap2\n      swap1\n      pop\n      jump\t// out\n        /* \"#utility.yul\":7715:7805   */\n    tag_89:\n        /* \"#utility.yul\":7765:7772   */\n      0x00\n        /* \"#utility.yul\":7794:7799   */\n      dup2\n        /* \"#utility.yul\":7783:7799   */\n      swap1\n      pop\n        /* \"#utility.yul\":7715:7805   */\n      swap2\n      swap1\n      pop\n      jump\t// out\n        /* \"#utility.yul\":7811:7977   */\n    tag_90:\n        /* \"#utility.yul\":7880:7885   */\n      0x00\n        /* \"#utility.yul\":7905:7971   */\n      tag_184\n        /* \"#utility.yul\":7936:7970   */\n      tag_185\n        /* \"#utility.yul\":7959:7969   */\n      dup4\n        /* \"#utility.yul\":7936:7970   */\n      tag_88\n      jump\t// in\n    tag_185:\n        /* \"#utility.yul\":7905:7971   */\n      tag_89\n      jump\t// in\n    tag_184:\n        /* \"#utility.yul\":7896:7971   */\n      swap1\n      pop\n        /* \"#utility.yul\":7811:7977   */\n      swap2\n      swap1\n      pop\n      jump\t// out\n        /* \"#utility.yul\":7983:8127   */\n    tag_91:\n        /* \"#utility.yul\":8038:8043   */\n      0x00\n        /* \"#utility.yul\":8063:8120   */\n      tag_187\n        /* \"#utility.yul\":8114:8118   */\n      dup3\n        /* \"#utility.yul\":8108:8119   */\n      sload\n        /* \"#utility.yul\":8063:8120   */\n      tag_90\n      jump\t// in\n    tag_187:\n        /* \"#utility.yul\":8054:8120   */\n      swap1\n      pop\n        /* \"#utility.yul\":7983:8127   */\n      swap2\n      swap1\n      pop\n      jump\t// out\n        /* \"#utility.yul\":8133:8243   */\n    tag_92:\n        /* \"#utility.yul\":8200:8204   */\n      0x00\n        /* \"#utility.yul\":8232:8236   */\n      0x01\n        /* \"#utility.yul\":8227:8230   */\n      dup3\n        /* \"#utility.yul\":8223:8237   */\n      add\n        /* \"#utility.yul\":8215:8237   */\n      swap1\n      pop\n        /* \"#utility.yul\":8133:8243   */\n      swap2\n      swap1\n      pop\n      jump\t// out\n        /* \"#utility.yul\":8279:9030   */\n    tag_93:\n        /* \"#utility.yul\":8395:8398   */\n      0x00\n        /* \"#utility.yul\":8424:8475   */\n      tag_190\n        /* \"#utility.yul\":8469:8474   */\n      dup3\n        /* \"#utility.yul\":8424:8475   */\n      tag_86\n      jump\t// in\n    tag_190:\n        /* \"#utility.yul\":8491:8577   */\n      tag_191\n        /* \"#utility.yul\":8570:8576   */\n      dup2\n        /* \"#utility.yul\":8565:8568   */\n      dup6\n        /* \"#utility.yul\":8491:8577   */\n      tag_79\n      jump\t// in\n    tag_191:\n        /* \"#utility.yul\":8484:8577   */\n      swap4\n      pop\n        /* \"#utility.yul\":8601:8654   */\n      tag_192\n        /* \"#utility.yul\":8648:8653   */\n      dup4\n        /* \"#utility.yul\":8601:8654   */\n      tag_87\n      jump\t// in\n    tag_192:\n        /* \"#utility.yul\":8677:8684   */\n      dup1\n        /* \"#utility.yul\":8708:8709   */\n      0x00\n        /* \"#utility.yul\":8693:9005   */\n    tag_193:\n        /* \"#utility.yul\":8718:8724   */\n      dup4\n        /* \"#utility.yul\":8715:8716   */\n      dup2\n        /* \"#utility.yul\":8712:8725   */\n      lt\n        /* \"#utility.yul\":8693:9005   */\n      iszero\n      tag_195\n      jumpi\n        /* \"#utility.yul\":8788:8832   */\n      tag_196\n        /* \"#utility.yul\":8825:8831   */\n      dup3\n        /* \"#utility.yul\":8788:8832   */\n      tag_91\n      jump\t// in\n    tag_196:\n        /* \"#utility.yul\":8852:8915   */\n      tag_197\n        /* \"#utility.yul\":8911:8914   */\n      dup9\n        /* \"#utility.yul\":8896:8909   */\n      dup3\n        /* \"#utility.yul\":8852:8915   */\n      tag_82\n      jump\t// in\n    tag_197:\n        /* \"#utility.yul\":8845:8915   */\n      swap8\n      pop\n        /* \"#utility.yul\":8938:8995   */\n      tag_198\n        /* \"#utility.yul\":8988:8994   */\n      dup4\n        /* \"#utility.yul\":8938:8995   */\n      tag_92\n      jump\t// in\n    tag_198:\n        /* \"#utility.yul\":8928:8995   */\n      swap3\n      pop\n        /* \"#utility.yul\":8753:9005   */\n      pop\n        /* \"#utility.yul\":8740:8741   */\n      0x01\n        /* \"#utility.yul\":8737:8738   */\n      dup2\n        /* \"#utility.yul\":8733:8742   */\n      add\n        /* \"#utility.yul\":8728:8742   */\n      swap1\n      pop\n        /* \"#utility.yul\":8693:9005   */\n      jump(tag_193)\n    tag_195:\n        /* \"#utility.yul\":8697:8711   */\n      pop\n        /* \"#utility.yul\":9021:9024   */\n      dup6\n        /* \"#utility.yul\":9014:9024   */\n      swap4\n      pop\n        /* \"#utility.yul\":8400:9030   */\n      pop\n      pop\n      pop\n        /* \"#utility.yul\":8279:9030   */\n      swap3\n      swap2\n      pop\n      pop\n      jump\t// out\n        /* \"#utility.yul\":9036:9403   */\n    tag_49:\n        /* \"#utility.yul\":9176:9180   */\n      0x00\n        /* \"#utility.yul\":9214:9216   */\n      0x20\n        /* \"#utility.yul\":9203:9212   */\n      dup3\n        /* \"#utility.yul\":9199:9217   */\n      add\n        /* \"#utility.yul\":9191:9217   */\n      swap1\n      pop\n        /* \"#utility.yul\":9263:9272   */\n      dup2\n        /* \"#utility.yul\":9257:9261   */\n      dup2\n        /* \"#utility.yul\":9253:9273   */\n      sub\n        /* \"#utility.yul\":9249:9250   */\n      0x00\n        /* \"#utility.yul\":9238:9247   */\n      dup4\n        /* \"#utility.yul\":9234:9251   */\n      add\n        /* \"#utility.yul\":9227:9274   */\n      mstore\n        /* \"#utility.yul\":9291:9396   */\n      tag_200\n        /* \"#utility.yul\":9391:9395   */\n      dup2\n        /* \"#utility.yul\":9382:9388   */\n      dup5\n        /* \"#utility.yul\":9291:9396   */\n      tag_93\n      jump\t// in\n    tag_200:\n        /* \"#utility.yul\":9283:9396   */\n      swap1\n      pop\n        /* \"#utility.yul\":9036:9403   */\n      swap3\n      swap2\n      pop\n      pop\n      jump\t// out\n\n    auxdata: 0xa26469706673582212206f3228c9b41c920035574787c67021c5a1f6414d83c7eb0e1298b5061d16db4464736f6c634300081a0033\n}\n",
				"bytecode": {
					"linkReferences": {},
					"object": "6080604052348015600e575f80fd5b506107ca8061001c5f395ff3fe608060405234801561000f575f80fd5b506004361061004a575f3560e01c806308d716421461004e5780632c1360b21461006a57806371e5ee5f14610074578063d504ea1d146100a4575b5f80fd5b6100686004803603810190610063919061043e565b6100c2565b005b6100726100db565b005b61008e60048036038101906100899190610485565b6101d0565b60405161009b91906104bf565b60405180910390f35b6100ac6101ef565b6040516100b9919061058f565b60405180910390f35b805f90805190602001906100d7929190610244565b5050565b5f8060015f805490506100ee91906105dc565b90505b80821015610195575f80838154811061010d5761010c61060f565b5b905f5260205f20015490505f828154811061012b5761012a61060f565b5b905f5260205f2001545f84815481106101475761014661060f565b5b905f5260205f200181905550805f83815481106101675761016661060f565b5b905f5260205f200181905550828061017e9061063c565b935050818061018c90610683565b925050506100f1565b7fb25ca0fb7c677133618c39136ac881e9853b8a134383d1218ea4bd65e87862405f6040516101c49190610774565b60405180910390a15050565b5f81815481106101de575f80fd5b905f5260205f20015f915090505481565b60605f80548060200260200160405190810160405280929190818152602001828054801561023a57602002820191905f5260205f20905b815481526020019060010190808311610226575b5050505050905090565b828054828255905f5260205f2090810192821561027e579160200282015b8281111561027d578251825591602001919060010190610262565b5b50905061028b919061028f565b5090565b5b808211156102a6575f815f905550600101610290565b5090565b5f604051905090565b5f80fd5b5f80fd5b5f80fd5b5f601f19601f8301169050919050565b7f4e487b71000000000000000000000000000000000000000000000000000000005f52604160045260245ffd5b610305826102bf565b810181811067ffffffffffffffff82111715610324576103236102cf565b5b80604052505050565b5f6103366102aa565b905061034282826102fc565b919050565b5f67ffffffffffffffff821115610361576103606102cf565b5b602082029050602081019050919050565b5f80fd5b5f819050919050565b61038881610376565b8114610392575f80fd5b50565b5f813590506103a38161037f565b92915050565b5f6103bb6103b684610347565b61032d565b905080838252602082019050602084028301858111156103de576103dd610372565b5b835b8181101561040757806103f38882610395565b8452602084019350506020810190506103e0565b5050509392505050565b5f82601f830112610425576104246102bb565b5b81356104358482602086016103a9565b91505092915050565b5f60208284031215610453576104526102b3565b5b5f82013567ffffffffffffffff8111156104705761046f6102b7565b5b61047c84828501610411565b91505092915050565b5f6020828403121561049a576104996102b3565b5b5f6104a784828501610395565b91505092915050565b6104b981610376565b82525050565b5f6020820190506104d25f8301846104b0565b92915050565b5f81519050919050565b5f82825260208201905092915050565b5f819050602082019050919050565b61050a81610376565b82525050565b5f61051b8383610501565b60208301905092915050565b5f602082019050919050565b5f61053d826104d8565b61054781856104e2565b9350610552836104f2565b805f5b838110156105825781516105698882610510565b975061057483610527565b925050600181019050610555565b5085935050505092915050565b5f6020820190508181035f8301526105a78184610533565b905092915050565b7f4e487b71000000000000000000000000000000000000000000000000000000005f52601160045260245ffd5b5f6105e682610376565b91506105f183610376565b9250828203905081811115610609576106086105af565b5b92915050565b7f4e487b71000000000000000000000000000000000000000000000000000000005f52603260045260245ffd5b5f61064682610376565b91507fffffffffffffffffffffffffffffffffffffffffffffffffffffffffffffffff8203610678576106776105af565b5b600182019050919050565b5f61068d82610376565b91505f820361069f5761069e6105af565b5b600182039050919050565b5f81549050919050565b5f819050815f5260205f209050919050565b5f815f1c9050919050565b5f819050919050565b5f6106ec6106e7836106c6565b6106d1565b9050919050565b5f6106fe82546106da565b9050919050565b5f600182019050919050565b5f61071b826106aa565b61072581856104e2565b9350610730836106b4565b805f5b8381101561076757610744826106f3565b61074e8882610510565b975061075983610705565b925050600181019050610733565b5085935050505092915050565b5f6020820190508181035f83015261078c8184610711565b90509291505056fea26469706673582212206f3228c9b41c920035574787c67021c5a1f6414d83c7eb0e1298b5061d16db4464736f6c634300081a0033",
					"opcodes": "PUSH1 0x80 PUSH1 0x40 MSTORE CALLVALUE DUP1 ISZERO PUSH1 0xE JUMPI PUSH0 DUP1 REVERT JUMPDEST POP PUSH2 0x7CA DUP1 PUSH2 0x1C PUSH0 CODECOPY PUSH0 RETURN INVALID PUSH1 0x80 PUSH1 0x40 MSTORE CALLVALUE DUP1 ISZERO PUSH2 0xF JUMPI PUSH0 DUP1 REVERT JUMPDEST POP PUSH1 0x4 CALLDATASIZE LT PUSH2 0x4A JUMPI PUSH0 CALLDATALOAD PUSH1 0xE0 SHR DUP1 PUSH4 0x8D71642 EQ PUSH2 0x4E JUMPI DUP1 PUSH4 0x2C1360B2 EQ PUSH2 0x6A JUMPI DUP1 PUSH4 0x71E5EE5F EQ PUSH2 0x74 JUMPI DUP1 PUSH4 0xD504EA1D EQ PUSH2 0xA4 JUMPI JUMPDEST PUSH0 DUP1 REVERT JUMPDEST PUSH2 0x68 PUSH1 0x4 DUP1 CALLDATASIZE SUB DUP2 ADD SWAP1 PUSH2 0x63 SWAP2 SWAP1 PUSH2 0x43E JUMP JUMPDEST PUSH2 0xC2 JUMP JUMPDEST STOP JUMPDEST PUSH2 0x72 PUSH2 0xDB JUMP JUMPDEST STOP JUMPDEST PUSH2 0x8E PUSH1 0x4 DUP1 CALLDATASIZE SUB DUP2 ADD SWAP1 PUSH2 0x89 SWAP2 SWAP1 PUSH2 0x485 JUMP JUMPDEST PUSH2 0x1D0 JUMP JUMPDEST PUSH1 0x40 MLOAD PUSH2 0x9B SWAP2 SWAP1 PUSH2 0x4BF JUMP JUMPDEST PUSH1 0x40 MLOAD DUP1 SWAP2 SUB SWAP1 RETURN JUMPDEST PUSH2 0xAC PUSH2 0x1EF JUMP JUMPDEST PUSH1 0x40 MLOAD PUSH2 0xB9 SWAP2 SWAP1 PUSH2 0x58F JUMP JUMPDEST PUSH1 0x40 MLOAD DUP1 SWAP2 SUB SWAP1 RETURN JUMPDEST DUP1 PUSH0 SWAP1 DUP1 MLOAD SWAP1 PUSH1 0x20 ADD SWAP1 PUSH2 0xD7 SWAP3 SWAP2 SWAP1 PUSH2 0x244 JUMP JUMPDEST POP POP JUMP JUMPDEST PUSH0 DUP1 PUSH1 0x1 PUSH0 DUP1 SLOAD SWAP1 POP PUSH2 0xEE SWAP2 SWAP1 PUSH2 0x5DC JUMP JUMPDEST SWAP1 POP JUMPDEST DUP1 DUP3 LT ISZERO PUSH2 0x195 JUMPI PUSH0 DUP1 DUP4 DUP2 SLOAD DUP2 LT PUSH2 0x10D JUMPI PUSH2 0x10C PUSH2 0x60F JUMP JUMPDEST JUMPDEST SWAP1 PUSH0 MSTORE PUSH1 0x20 PUSH0 KECCAK256 ADD SLOAD SWAP1 POP PUSH0 DUP3 DUP2 SLOAD DUP2 LT PUSH2 0x12B JUMPI PUSH2 0x12A PUSH2 0x60F JUMP JUMPDEST JUMPDEST SWAP1 PUSH0 MSTORE PUSH1 0x20 PUSH0 KECCAK256 ADD SLOAD PUSH0 DUP5 DUP2 SLOAD DUP2 LT PUSH2 0x147 JUMPI PUSH2 0x146 PUSH2 0x60F JUMP JUMPDEST JUMPDEST SWAP1 PUSH0 MSTORE PUSH1 0x20 PUSH0 KECCAK256 ADD DUP2 SWAP1 SSTORE POP DUP1 PUSH0 DUP4 DUP2 SLOAD DUP2 LT PUSH2 0x167 JUMPI PUSH2 0x166 PUSH2 0x60F JUMP JUMPDEST JUMPDEST SWAP1 PUSH0 MSTORE PUSH1 0x20 PUSH0 KECCAK256 ADD DUP2 SWAP1 SSTORE POP DUP3 DUP1 PUSH2 0x17E SWAP1 PUSH2 0x63C JUMP JUMPDEST SWAP4 POP POP DUP2 DUP1 PUSH2 0x18C SWAP1 PUSH2 0x683 JUMP JUMPDEST SWAP3 POP POP POP PUSH2 0xF1 JUMP JUMPDEST PUSH32 0xB25CA0FB7C677133618C39136AC881E9853B8A134383D1218EA4BD65E8786240 PUSH0 PUSH1 0x40 MLOAD PUSH2 0x1C4 SWAP2 SWAP1 PUSH2 0x774 JUMP JUMPDEST PUSH1 0x40 MLOAD DUP1 SWAP2 SUB SWAP1 LOG1 POP POP JUMP JUMPDEST PUSH0 DUP2 DUP2 SLOAD DUP2 LT PUSH2 0x1DE JUMPI PUSH0 DUP1 REVERT JUMPDEST SWAP1 PUSH0 MSTORE PUSH1 0x20 PUSH0 KECCAK256 ADD PUSH0 SWAP2 POP SWAP1 POP SLOAD DUP2 JUMP JUMPDEST PUSH1 0x60 PUSH0 DUP1 SLOAD DUP1 PUSH1 0x20 MUL PUSH1 0x20 ADD PUSH1 0x40 MLOAD SWAP1 DUP2 ADD PUSH1 0x40 MSTORE DUP1 SWAP3 SWAP2 SWAP1 DUP2 DUP2 MSTORE PUSH1 0x20 ADD DUP3 DUP1 SLOAD DUP1 ISZERO PUSH2 0x23A JUMPI PUSH1 0x20 MUL DUP3 ADD SWAP2 SWAP1 PUSH0 MSTORE PUSH1 0x20 PUSH0 KECCAK256 SWAP1 JUMPDEST DUP2 SLOAD DUP2 MSTORE PUSH1 0x20 ADD SWAP1 PUSH1 0x1 ADD SWAP1 DUP1 DUP4 GT PUSH2 0x226 JUMPI JUMPDEST POP POP POP POP POP SWAP1 POP SWAP1 JUMP JUMPDEST DUP3 DUP1 SLOAD DUP3 DUP3 SSTORE SWAP1 PUSH0 MSTORE PUSH1 0x20 PUSH0 KECCAK256 SWAP1 DUP2 ADD SWAP3 DUP3 ISZERO PUSH2 0x27E JUMPI SWAP2 PUSH1 0x20 MUL DUP3 ADD JUMPDEST DUP3 DUP2 GT ISZERO PUSH2 0x27D JUMPI DUP3 MLOAD DUP3 SSTORE SWAP2 PUSH1 0x20 ADD SWAP2 SWAP1 PUSH1 0x1 ADD SWAP1 PUSH2 0x262 JUMP JUMPDEST JUMPDEST POP SWAP1 POP PUSH2 0x28B SWAP2 SWAP1 PUSH2 0x28F JUMP JUMPDEST POP SWAP1 JUMP JUMPDEST JUMPDEST DUP1 DUP3 GT ISZERO PUSH2 0x2A6 JUMPI PUSH0 DUP2 PUSH0 SWAP1 SSTORE POP PUSH1 0x1 ADD PUSH2 0x290 JUMP JUMPDEST POP SWAP1 JUMP JUMPDEST PUSH0 PUSH1 0x40 MLOAD SWAP1 POP SWAP1 JUMP JUMPDEST PUSH0 DUP1 REVERT JUMPDEST PUSH0 DUP1 REVERT JUMPDEST PUSH0 DUP1 REVERT JUMPDEST PUSH0 PUSH1 0x1F NOT PUSH1 0x1F DUP4 ADD AND SWAP1 POP SWAP2 SWAP1 POP JUMP JUMPDEST PUSH32 0x4E487B7100000000000000000000000000000000000000000000000000000000 PUSH0 MSTORE PUSH1 0x41 PUSH1 0x4 MSTORE PUSH1 0x24 PUSH0 REVERT JUMPDEST PUSH2 0x305 DUP3 PUSH2 0x2BF JUMP JUMPDEST DUP2 ADD DUP2 DUP2 LT PUSH8 0xFFFFFFFFFFFFFFFF DUP3 GT OR ISZERO PUSH2 0x324 JUMPI PUSH2 0x323 PUSH2 0x2CF JUMP JUMPDEST JUMPDEST DUP1 PUSH1 0x40 MSTORE POP POP POP JUMP JUMPDEST PUSH0 PUSH2 0x336 PUSH2 0x2AA JUMP JUMPDEST SWAP1 POP PUSH2 0x342 DUP3 DUP3 PUSH2 0x2FC JUMP JUMPDEST SWAP2 SWAP1 POP JUMP JUMPDEST PUSH0 PUSH8 0xFFFFFFFFFFFFFFFF DUP3 GT ISZERO PUSH2 0x361 JUMPI PUSH2 0x360 PUSH2 0x2CF JUMP JUMPDEST JUMPDEST PUSH1 0x20 DUP3 MUL SWAP1 POP PUSH1 0x20 DUP2 ADD SWAP1 POP SWAP2 SWAP1 POP JUMP JUMPDEST PUSH0 DUP1 REVERT JUMPDEST PUSH0 DUP2 SWAP1 POP SWAP2 SWAP1 POP JUMP JUMPDEST PUSH2 0x388 DUP2 PUSH2 0x376 JUMP JUMPDEST DUP2 EQ PUSH2 0x392 JUMPI PUSH0 DUP1 REVERT JUMPDEST POP JUMP JUMPDEST PUSH0 DUP2 CALLDATALOAD SWAP1 POP PUSH2 0x3A3 DUP2 PUSH2 0x37F JUMP JUMPDEST SWAP3 SWAP2 POP POP JUMP JUMPDEST PUSH0 PUSH2 0x3BB PUSH2 0x3B6 DUP5 PUSH2 0x347 JUMP JUMPDEST PUSH2 0x32D JUMP JUMPDEST SWAP1 POP DUP1 DUP4 DUP3 MSTORE PUSH1 0x20 DUP3 ADD SWAP1 POP PUSH1 0x20 DUP5 MUL DUP4 ADD DUP6 DUP2 GT ISZERO PUSH2 0x3DE JUMPI PUSH2 0x3DD PUSH2 0x372 JUMP JUMPDEST JUMPDEST DUP4 JUMPDEST DUP2 DUP2 LT ISZERO PUSH2 0x407 JUMPI DUP1 PUSH2 0x3F3 DUP9 DUP3 PUSH2 0x395 JUMP JUMPDEST DUP5 MSTORE PUSH1 0x20 DUP5 ADD SWAP4 POP POP PUSH1 0x20 DUP2 ADD SWAP1 POP PUSH2 0x3E0 JUMP JUMPDEST POP POP POP SWAP4 SWAP3 POP POP POP JUMP JUMPDEST PUSH0 DUP3 PUSH1 0x1F DUP4 ADD SLT PUSH2 0x425 JUMPI PUSH2 0x424 PUSH2 0x2BB JUMP JUMPDEST JUMPDEST DUP2 CALLDATALOAD PUSH2 0x435 DUP5 DUP3 PUSH1 0x20 DUP7 ADD PUSH2 0x3A9 JUMP JUMPDEST SWAP2 POP POP SWAP3 SWAP2 POP POP JUMP JUMPDEST PUSH0 PUSH1 0x20 DUP3 DUP5 SUB SLT ISZERO PUSH2 0x453 JUMPI PUSH2 0x452 PUSH2 0x2B3 JUMP JUMPDEST JUMPDEST PUSH0 DUP3 ADD CALLDATALOAD PUSH8 0xFFFFFFFFFFFFFFFF DUP2 GT ISZERO PUSH2 0x470 JUMPI PUSH2 0x46F PUSH2 0x2B7 JUMP JUMPDEST JUMPDEST PUSH2 0x47C DUP5 DUP3 DUP6 ADD PUSH2 0x411 JUMP JUMPDEST SWAP2 POP POP SWAP3 SWAP2 POP POP JUMP JUMPDEST PUSH0 PUSH1 0x20 DUP3 DUP5 SUB SLT ISZERO PUSH2 0x49A JUMPI PUSH2 0x499 PUSH2 0x2B3 JUMP JUMPDEST JUMPDEST PUSH0 PUSH2 0x4A7 DUP5 DUP3 DUP6 ADD PUSH2 0x395 JUMP JUMPDEST SWAP2 POP POP SWAP3 SWAP2 POP POP JUMP JUMPDEST PUSH2 0x4B9 DUP2 PUSH2 0x376 JUMP JUMPDEST DUP3 MSTORE POP POP JUMP JUMPDEST PUSH0 PUSH1 0x20 DUP3 ADD SWAP1 POP PUSH2 0x4D2 PUSH0 DUP4 ADD DUP5 PUSH2 0x4B0 JUMP JUMPDEST SWAP3 SWAP2 POP POP JUMP JUMPDEST PUSH0 DUP2 MLOAD SWAP1 POP SWAP2 SWAP1 POP JUMP JUMPDEST PUSH0 DUP3 DUP3 MSTORE PUSH1 0x20 DUP3 ADD SWAP1 POP SWAP3 SWAP2 POP POP JUMP JUMPDEST PUSH0 DUP2 SWAP1 POP PUSH1 0x20 DUP3 ADD SWAP1 POP SWAP2 SWAP1 POP JUMP JUMPDEST PUSH2 0x50A DUP2 PUSH2 0x376 JUMP JUMPDEST DUP3 MSTORE POP POP JUMP JUMPDEST PUSH0 PUSH2 0x51B DUP4 DUP4 PUSH2 0x501 JUMP JUMPDEST PUSH1 0x20 DUP4 ADD SWAP1 POP SWAP3 SWAP2 POP POP JUMP JUMPDEST PUSH0 PUSH1 0x20 DUP3 ADD SWAP1 POP SWAP2 SWAP1 POP JUMP JUMPDEST PUSH0 PUSH2 0x53D DUP3 PUSH2 0x4D8 JUMP JUMPDEST PUSH2 0x547 DUP2 DUP6 PUSH2 0x4E2 JUMP JUMPDEST SWAP4 POP PUSH2 0x552 DUP4 PUSH2 0x4F2 JUMP JUMPDEST DUP1 PUSH0 JUMPDEST DUP4 DUP2 LT ISZERO PUSH2 0x582 JUMPI DUP2 MLOAD PUSH2 0x569 DUP9 DUP3 PUSH2 0x510 JUMP JUMPDEST SWAP8 POP PUSH2 0x574 DUP4 PUSH2 0x527 JUMP JUMPDEST SWAP3 POP POP PUSH1 0x1 DUP2 ADD SWAP1 POP PUSH2 0x555 JUMP JUMPDEST POP DUP6 SWAP4 POP POP POP POP SWAP3 SWAP2 POP POP JUMP JUMPDEST PUSH0 PUSH1 0x20 DUP3 ADD SWAP1 POP DUP2 DUP2 SUB PUSH0 DUP4 ADD MSTORE PUSH2 0x5A7 DUP2 DUP5 PUSH2 0x533 JUMP JUMPDEST SWAP1 POP SWAP3 SWAP2 POP POP JUMP JUMPDEST PUSH32 0x4E487B7100000000000000000000000000000000000000000000000000000000 PUSH0 MSTORE PUSH1 0x11 PUSH1 0x4 MSTORE PUSH1 0x24 PUSH0 REVERT JUMPDEST PUSH0 PUSH2 0x5E6 DUP3 PUSH2 0x376 JUMP JUMPDEST SWAP2 POP PUSH2 0x5F1 DUP4 PUSH2 0x376 JUMP JUMPDEST SWAP3 POP DUP3 DUP3 SUB SWAP1 POP DUP2 DUP2 GT ISZERO PUSH2 0x609 JUMPI PUSH2 0x608 PUSH2 0x5AF JUMP JUMPDEST JUMPDEST SWAP3 SWAP2 POP POP JUMP JUMPDEST PUSH32 0x4E487B7100000000000000000000000000000000000000000000000000000000 PUSH0 MSTORE PUSH1 0x32 PUSH1 0x4 MSTORE PUSH1 0x24 PUSH0 REVERT JUMPDEST PUSH0 PUSH2 0x646 DUP3 PUSH2 0x376 JUMP JUMPDEST SWAP2 POP PUSH32 0xFFFFFFFFFFFFFFFFFFFFFFFFFFFFFFFFFFFFFFFFFFFFFFFFFFFFFFFFFFFFFFFF DUP3 SUB PUSH2 0x678 JUMPI PUSH2 0x677 PUSH2 0x5AF JUMP JUMPDEST JUMPDEST PUSH1 0x1 DUP3 ADD SWAP1 POP SWAP2 SWAP1 POP JUMP JUMPDEST PUSH0 PUSH2 0x68D DUP3 PUSH2 0x376 JUMP JUMPDEST SWAP2 POP PUSH0 DUP3 SUB PUSH2 0x69F JUMPI PUSH2 0x69E PUSH2 0x5AF JUMP JUMPDEST JUMPDEST PUSH1 0x1 DUP3 SUB SWAP1 POP SWAP2 SWAP1 POP JUMP JUMPDEST PUSH0 DUP2 SLOAD SWAP1 POP SWAP2 SWAP1 POP JUMP JUMPDEST PUSH0 DUP2 SWAP1 POP DUP2 PUSH0 MSTORE PUSH1 0x20 PUSH0 KECCAK256 SWAP1 POP SWAP2 SWAP1 POP JUMP JUMPDEST PUSH0 DUP2 PUSH0 SHR SWAP1 POP SWAP2 SWAP1 POP JUMP JUMPDEST PUSH0 DUP2 SWAP1 POP SWAP2 SWAP1 POP JUMP JUMPDEST PUSH0 PUSH2 0x6EC PUSH2 0x6E7 DUP4 PUSH2 0x6C6 JUMP JUMPDEST PUSH2 0x6D1 JUMP JUMPDEST SWAP1 POP SWAP2 SWAP1 POP JUMP JUMPDEST PUSH0 PUSH2 0x6FE DUP3 SLOAD PUSH2 0x6DA JUMP JUMPDEST SWAP1 POP SWAP2 SWAP1 POP JUMP JUMPDEST PUSH0 PUSH1 0x1 DUP3 ADD SWAP1 POP SWAP2 SWAP1 POP JUMP JUMPDEST PUSH0 PUSH2 0x71B DUP3 PUSH2 0x6AA JUMP JUMPDEST PUSH2 0x725 DUP2 DUP6 PUSH2 0x4E2 JUMP JUMPDEST SWAP4 POP PUSH2 0x730 DUP4 PUSH2 0x6B4 JUMP JUMPDEST DUP1 PUSH0 JUMPDEST DUP4 DUP2 LT ISZERO PUSH2 0x767 JUMPI PUSH2 0x744 DUP3 PUSH2 0x6F3 JUMP JUMPDEST PUSH2 0x74E DUP9 DUP3 PUSH2 0x510 JUMP JUMPDEST SWAP8 POP PUSH2 0x759 DUP4 PUSH2 0x705 JUMP JUMPDEST SWAP3 POP POP PUSH1 0x1 DUP2 ADD SWAP1 POP PUSH2 0x733 JUMP JUMPDEST POP DUP6 SWAP4 POP POP POP POP SWAP3 SWAP2 POP POP JUMP JUMPDEST PUSH0 PUSH1 0x20 DUP3 ADD SWAP1 POP DUP2 DUP2 SUB PUSH0 DUP4 ADD MSTORE PUSH2 0x78C DUP2 DUP5 PUSH2 0x711 JUMP JUMPDEST SWAP1 POP SWAP3 SWAP2 POP POP JUMP INVALID LOG2 PUSH5 0x6970667358 0x22 SLT KECCAK256 PUSH16 0x3228C9B41C920035574787C67021C5A1 0xF6 COINBASE 0x4D DUP4 0xC7 0xEB 0xE SLT SWAP9 0xB5 MOD SAR AND 0xDB PREVRANDAO PUSH5 0x736F6C6343 STOP ADDMOD BYTE STOP CALLER "
				},
				"gasEstimates": {
					"creation": {
						"codeDepositCost": "398800",
						"executionCost": "434",
						"totalCost": "399234"
					},
					"external": {
						"arr(uint256)": "infinite",
						"getArray()": "infinite",
						"reverseArray()": "infinite",
						"setArray(uint256[])": "infinite"
					}
				},
				"methodIdentifiers": {
					"arr(uint256)": "71e5ee5f",
					"getArray()": "d504ea1d",
					"reverseArray()": "2c1360b2",
					"setArray(uint256[])": "08d71642"
				}
			},
			"storageLayout": {
				"storage": [
					{
						"astId": 4,
						"contract": "Day05/d5hw3.sol:ArrayReversal",
						"label": "arr",
						"offset": 0,
						"slot": "0",
						"type": "t_array(t_uint256)dyn_storage"
					}
				],
				"types": {
					"t_array(t_uint256)dyn_storage": {
						"base": "t_uint256",
						"encoding": "dynamic_array",
						"label": "uint256[]",
						"numberOfBytes": "32"
					},
					"t_uint256": {
						"encoding": "inplace",
						"label": "uint256",
						"numberOfBytes": "32"
					}
				}
			},
			"userdoc": {
				"kind": "user",
				"methods": {},
				"version": 1
			}
		}
	}
}