{
	"Day07/Calculator.sol": {
		"Calculator": {
			"abi": [
				{
					"inputs": [
						{
							"internalType": "int256",
							"name": "a",
							"type": "int256"
						}
					],
					"name": "absoluteValue",
					"outputs": [
						{
							"internalType": "uint256",
							"name": "",
							"type": "uint256"
						}
					],
					"stateMutability": "pure",
					"type": "function"
				},
				{
					"inputs": [
						{
							"internalType": "uint256",
							"name": "a",
							"type": "uint256"
						},
						{
							"internalType": "uint256",
							"name": "b",
							"type": "uint256"
						}
					],
					"name": "add",
					"outputs": [
						{
							"internalType": "uint256",
							"name": "",
							"type": "uint256"
						}
					],
					"stateMutability": "pure",
					"type": "function"
				},
				{
					"inputs": [
						{
							"internalType": "uint256",
							"name": "a",
							"type": "uint256"
						},
						{
							"internalType": "uint256",
							"name": "b",
							"type": "uint256"
						}
					],
					"name": "divide",
					"outputs": [
						{
							"internalType": "uint256",
							"name": "",
							"type": "uint256"
						}
					],
					"stateMutability": "pure",
					"type": "function"
				},
				{
					"inputs": [
						{
							"internalType": "uint256",
							"name": "base",
							"type": "uint256"
						},
						{
							"internalType": "uint256",
							"name": "exponent",
							"type": "uint256"
						}
					],
					"name": "exponentiate",
					"outputs": [
						{
							"internalType": "uint256",
							"name": "",
							"type": "uint256"
						}
					],
					"stateMutability": "pure",
					"type": "function"
				},
				{
					"inputs": [
						{
							"internalType": "uint256",
							"name": "a",
							"type": "uint256"
						},
						{
							"internalType": "uint256",
							"name": "b",
							"type": "uint256"
						}
					],
					"name": "modulo",
					"outputs": [
						{
							"internalType": "uint256",
							"name": "",
							"type": "uint256"
						}
					],
					"stateMutability": "pure",
					"type": "function"
				},
				{
					"inputs": [
						{
							"internalType": "uint256",
							"name": "a",
							"type": "uint256"
						},
						{
							"internalType": "uint256",
							"name": "b",
							"type": "uint256"
						}
					],
					"name": "multiply",
					"outputs": [
						{
							"internalType": "uint256",
							"name": "",
							"type": "uint256"
						}
					],
					"stateMutability": "pure",
					"type": "function"
				},
				{
					"inputs": [
						{
							"internalType": "uint256",
							"name": "a",
							"type": "uint256"
						}
					],
					"name": "squareRoot",
					"outputs": [
						{
							"internalType": "uint256",
							"name": "",
							"type": "uint256"
						}
					],
					"stateMutability": "pure",
					"type": "function"
				},
				{
					"inputs": [
						{
							"internalType": "uint256",
							"name": "a",
							"type": "uint256"
						},
						{
							"internalType": "uint256",
							"name": "b",
							"type": "uint256"
						}
					],
					"name": "subtract",
					"outputs": [
						{
							"internalType": "uint256",
							"name": "",
							"type": "uint256"
						}
					],
					"stateMutability": "pure",
					"type": "function"
				}
			],
			"devdoc": {
				"kind": "dev",
				"methods": {},
				"version": 1
			},
			"evm": {
				"assembly": "    /* \"Day07/Calculator.sol\":87:1107  contract Calculator {... */\n  mstore(0x40, 0x80)\n  callvalue\n  dup1\n  iszero\n  tag_1\n  jumpi\n  0x00\n  dup1\n  revert\ntag_1:\n  pop\n  dataSize(sub_0)\n  dup1\n  dataOffset(sub_0)\n  0x00\n  codecopy\n  0x00\n  return\nstop\n\nsub_0: assembly {\n        /* \"Day07/Calculator.sol\":87:1107  contract Calculator {... */\n      mstore(0x40, 0x80)\n      callvalue\n      dup1\n      iszero\n      tag_1\n      jumpi\n      0x00\n      dup1\n      revert\n    tag_1:\n      pop\n      jumpi(tag_2, lt(calldatasize, 0x04))\n      shr(0xe0, calldataload(0x00))\n      dup1\n      0x7b019f89\n      gt\n      tag_11\n      jumpi\n      dup1\n      0x7b019f89\n      eq\n      tag_7\n      jumpi\n      dup1\n      0xbaaf073d\n      eq\n      tag_8\n      jumpi\n      dup1\n      0xe149e7b0\n      eq\n      tag_9\n      jumpi\n      dup1\n      0xf88e9fbf\n      eq\n      tag_10\n      jumpi\n      jump(tag_2)\n    tag_11:\n      dup1\n      0x165c4a16\n      eq\n      tag_3\n      jumpi\n      dup1\n      0x3ef5e445\n      eq\n      tag_4\n      jumpi\n      dup1\n      0x72931904\n      eq\n      tag_5\n      jumpi\n      dup1\n      0x771602f7\n      eq\n      tag_6\n      jumpi\n    tag_2:\n      0x00\n      dup1\n      revert\n        /* \"Day07/Calculator.sol\":360:482  function multiply(uint256 a, uint256 b) public pure returns (uint256) {... */\n    tag_3:\n      tag_12\n      0x04\n      dup1\n      calldatasize\n      sub\n      dup2\n      add\n      swap1\n      tag_13\n      swap2\n      swap1\n      tag_14\n      jump\t// in\n    tag_13:\n      tag_15\n      jump\t// in\n    tag_12:\n      mload(0x40)\n      tag_16\n      swap2\n      swap1\n      tag_17\n      jump\t// in\n    tag_16:\n      mload(0x40)\n      dup1\n      swap2\n      sub\n      swap1\n      return\n        /* \"Day07/Calculator.sol\":232:354  function subtract(uint256 a, uint256 b) public pure returns (uint256) {... */\n    tag_4:\n      tag_18\n      0x04\n      dup1\n      calldatasize\n      sub\n      dup2\n      add\n      swap1\n      tag_19\n      swap2\n      swap1\n      tag_14\n      jump\t// in\n    tag_19:\n      tag_20\n      jump\t// in\n    tag_18:\n      mload(0x40)\n      tag_21\n      swap2\n      swap1\n      tag_17\n      jump\t// in\n    tag_21:\n      mload(0x40)\n      dup1\n      swap2\n      sub\n      swap1\n      return\n        /* \"Day07/Calculator.sol\":961:1104  function exponentiate(uint256 base, uint256 exponent) public pure returns (uint256) {... */\n    tag_5:\n      tag_22\n      0x04\n      dup1\n      calldatasize\n      sub\n      dup2\n      add\n      swap1\n      tag_23\n      swap2\n      swap1\n      tag_14\n      jump\t// in\n    tag_23:\n      tag_24\n      jump\t// in\n    tag_22:\n      mload(0x40)\n      tag_25\n      swap2\n      swap1\n      tag_17\n      jump\t// in\n    tag_25:\n      mload(0x40)\n      dup1\n      swap2\n      sub\n      swap1\n      return\n        /* \"Day07/Calculator.sol\":114:226  function add(uint256 a, uint256 b) public pure returns (uint256) {... */\n    tag_6:\n      tag_26\n      0x04\n      dup1\n      calldatasize\n      sub\n      dup2\n      add\n      swap1\n      tag_27\n      swap2\n      swap1\n      tag_14\n      jump\t// in\n    tag_27:\n      tag_28\n      jump\t// in\n    tag_26:\n      mload(0x40)\n      tag_29\n      swap2\n      swap1\n      tag_17\n      jump\t// in\n    tag_29:\n      mload(0x40)\n      dup1\n      swap2\n      sub\n      swap1\n      return\n        /* \"Day07/Calculator.sol\":736:842  function squareRoot(uint256 a) public pure returns (uint256) {... */\n    tag_7:\n      tag_30\n      0x04\n      dup1\n      calldatasize\n      sub\n      dup2\n      add\n      swap1\n      tag_31\n      swap2\n      swap1\n      tag_32\n      jump\t// in\n    tag_31:\n      tag_33\n      jump\t// in\n    tag_30:\n      mload(0x40)\n      tag_34\n      swap2\n      swap1\n      tag_17\n      jump\t// in\n    tag_34:\n      mload(0x40)\n      dup1\n      swap2\n      sub\n      swap1\n      return\n        /* \"Day07/Calculator.sol\":612:730  function modulo(uint256 a, uint256 b) public pure returns (uint256) {... */\n    tag_8:\n      tag_35\n      0x04\n      dup1\n      calldatasize\n      sub\n      dup2\n      add\n      swap1\n      tag_36\n      swap2\n      swap1\n      tag_14\n      jump\t// in\n    tag_36:\n      tag_37\n      jump\t// in\n    tag_35:\n      mload(0x40)\n      tag_38\n      swap2\n      swap1\n      tag_17\n      jump\t// in\n    tag_38:\n      mload(0x40)\n      dup1\n      swap2\n      sub\n      swap1\n      return\n        /* \"Day07/Calculator.sol\":848:955  function absoluteValue(int256 a) public pure returns (uint256) {... */\n    tag_9:\n      tag_39\n      0x04\n      dup1\n      calldatasize\n      sub\n      dup2\n      add\n      swap1\n      tag_40\n      swap2\n      swap1\n      tag_41\n      jump\t// in\n    tag_40:\n      tag_42\n      jump\t// in\n    tag_39:\n      mload(0x40)\n      tag_43\n      swap2\n      swap1\n      tag_17\n      jump\t// in\n    tag_43:\n      mload(0x40)\n      dup1\n      swap2\n      sub\n      swap1\n      return\n        /* \"Day07/Calculator.sol\":488:606  function divide(uint256 a, uint256 b) public pure returns (uint256) {... */\n    tag_10:\n      tag_44\n      0x04\n      dup1\n      calldatasize\n      sub\n      dup2\n      add\n      swap1\n      tag_45\n      swap2\n      swap1\n      tag_14\n      jump\t// in\n    tag_45:\n      tag_46\n      jump\t// in\n    tag_44:\n      mload(0x40)\n      tag_47\n      swap2\n      swap1\n      tag_17\n      jump\t// in\n    tag_47:\n      mload(0x40)\n      dup1\n      swap2\n      sub\n      swap1\n      return\n        /* \"Day07/Calculator.sol\":360:482  function multiply(uint256 a, uint256 b) public pure returns (uint256) {... */\n    tag_15:\n        /* \"Day07/Calculator.sol\":421:428  uint256 */\n      0x00\n        /* \"Day07/Calculator.sol\":448:474  MathLibrary.multiply(a, b) */\n      tag_49\n        /* \"Day07/Calculator.sol\":469:470  a */\n      dup4\n        /* \"Day07/Calculator.sol\":472:473  b */\n      dup4\n        /* \"Day07/Calculator.sol\":448:468  MathLibrary.multiply */\n      tag_50\n        /* \"Day07/Calculator.sol\":448:474  MathLibrary.multiply(a, b) */\n      jump\t// in\n    tag_49:\n        /* \"Day07/Calculator.sol\":441:474  return MathLibrary.multiply(a, b) */\n      swap1\n      pop\n        /* \"Day07/Calculator.sol\":360:482  function multiply(uint256 a, uint256 b) public pure returns (uint256) {... */\n      swap3\n      swap2\n      pop\n      pop\n      jump\t// out\n        /* \"Day07/Calculator.sol\":232:354  function subtract(uint256 a, uint256 b) public pure returns (uint256) {... */\n    tag_20:\n        /* \"Day07/Calculator.sol\":293:300  uint256 */\n      0x00\n        /* \"Day07/Calculator.sol\":320:346  MathLibrary.subtract(a, b) */\n      tag_52\n        /* \"Day07/Calculator.sol\":341:342  a */\n      dup4\n        /* \"Day07/Calculator.sol\":344:345  b */\n      dup4\n        /* \"Day07/Calculator.sol\":320:340  MathLibrary.subtract */\n      tag_53\n        /* \"Day07/Calculator.sol\":320:346  MathLibrary.subtract(a, b) */\n      jump\t// in\n    tag_52:\n        /* \"Day07/Calculator.sol\":313:346  return MathLibrary.subtract(a, b) */\n      swap1\n      pop\n        /* \"Day07/Calculator.sol\":232:354  function subtract(uint256 a, uint256 b) public pure returns (uint256) {... */\n      swap3\n      swap2\n      pop\n      pop\n      jump\t// out\n        /* \"Day07/Calculator.sol\":961:1104  function exponentiate(uint256 base, uint256 exponent) public pure returns (uint256) {... */\n    tag_24:\n        /* \"Day07/Calculator.sol\":1036:1043  uint256 */\n      0x00\n        /* \"Day07/Calculator.sol\":1063:1096  MathLibrary.power(base, exponent) */\n      tag_55\n        /* \"Day07/Calculator.sol\":1081:1085  base */\n      dup4\n        /* \"Day07/Calculator.sol\":1087:1095  exponent */\n      dup4\n        /* \"Day07/Calculator.sol\":1063:1080  MathLibrary.power */\n      tag_56\n        /* \"Day07/Calculator.sol\":1063:1096  MathLibrary.power(base, exponent) */\n      jump\t// in\n    tag_55:\n        /* \"Day07/Calculator.sol\":1056:1096  return MathLibrary.power(base, exponent) */\n      swap1\n      pop\n        /* \"Day07/Calculator.sol\":961:1104  function exponentiate(uint256 base, uint256 exponent) public pure returns (uint256) {... */\n      swap3\n      swap2\n      pop\n      pop\n      jump\t// out\n        /* \"Day07/Calculator.sol\":114:226  function add(uint256 a, uint256 b) public pure returns (uint256) {... */\n    tag_28:\n        /* \"Day07/Calculator.sol\":170:177  uint256 */\n      0x00\n        /* \"Day07/Calculator.sol\":197:218  MathLibrary.add(a, b) */\n      tag_58\n        /* \"Day07/Calculator.sol\":213:214  a */\n      dup4\n        /* \"Day07/Calculator.sol\":216:217  b */\n      dup4\n        /* \"Day07/Calculator.sol\":197:212  MathLibrary.add */\n      tag_59\n        /* \"Day07/Calculator.sol\":197:218  MathLibrary.add(a, b) */\n      jump\t// in\n    tag_58:\n        /* \"Day07/Calculator.sol\":190:218  return MathLibrary.add(a, b) */\n      swap1\n      pop\n        /* \"Day07/Calculator.sol\":114:226  function add(uint256 a, uint256 b) public pure returns (uint256) {... */\n      swap3\n      swap2\n      pop\n      pop\n      jump\t// out\n        /* \"Day07/Calculator.sol\":736:842  function squareRoot(uint256 a) public pure returns (uint256) {... */\n    tag_33:\n        /* \"Day07/Calculator.sol\":788:795  uint256 */\n      0x00\n        /* \"Day07/Calculator.sol\":815:834  MathLibrary.sqrt(a) */\n      tag_61\n        /* \"Day07/Calculator.sol\":832:833  a */\n      dup3\n        /* \"Day07/Calculator.sol\":815:831  MathLibrary.sqrt */\n      tag_62\n        /* \"Day07/Calculator.sol\":815:834  MathLibrary.sqrt(a) */\n      jump\t// in\n    tag_61:\n        /* \"Day07/Calculator.sol\":808:834  return MathLibrary.sqrt(a) */\n      swap1\n      pop\n        /* \"Day07/Calculator.sol\":736:842  function squareRoot(uint256 a) public pure returns (uint256) {... */\n      swap2\n      swap1\n      pop\n      jump\t// out\n        /* \"Day07/Calculator.sol\":612:730  function modulo(uint256 a, uint256 b) public pure returns (uint256) {... */\n    tag_37:\n        /* \"Day07/Calculator.sol\":671:678  uint256 */\n      0x00\n        /* \"Day07/Calculator.sol\":698:722  MathLibrary.modulo(a, b) */\n      tag_64\n        /* \"Day07/Calculator.sol\":717:718  a */\n      dup4\n        /* \"Day07/Calculator.sol\":720:721  b */\n      dup4\n        /* \"Day07/Calculator.sol\":698:716  MathLibrary.modulo */\n      tag_65\n        /* \"Day07/Calculator.sol\":698:722  MathLibrary.modulo(a, b) */\n      jump\t// in\n    tag_64:\n        /* \"Day07/Calculator.sol\":691:722  return MathLibrary.modulo(a, b) */\n      swap1\n      pop\n        /* \"Day07/Calculator.sol\":612:730  function modulo(uint256 a, uint256 b) public pure returns (uint256) {... */\n      swap3\n      swap2\n      pop\n      pop\n      jump\t// out\n        /* \"Day07/Calculator.sol\":848:955  function absoluteValue(int256 a) public pure returns (uint256) {... */\n    tag_42:\n        /* \"Day07/Calculator.sol\":902:909  uint256 */\n      0x00\n        /* \"Day07/Calculator.sol\":929:947  MathLibrary.abs(a) */\n      tag_67\n        /* \"Day07/Calculator.sol\":945:946  a */\n      dup3\n        /* \"Day07/Calculator.sol\":929:944  MathLibrary.abs */\n      tag_68\n        /* \"Day07/Calculator.sol\":929:947  MathLibrary.abs(a) */\n      jump\t// in\n    tag_67:\n        /* \"Day07/Calculator.sol\":922:947  return MathLibrary.abs(a) */\n      swap1\n      pop\n        /* \"Day07/Calculator.sol\":848:955  function absoluteValue(int256 a) public pure returns (uint256) {... */\n      swap2\n      swap1\n      pop\n      jump\t// out\n        /* \"Day07/Calculator.sol\":488:606  function divide(uint256 a, uint256 b) public pure returns (uint256) {... */\n    tag_46:\n        /* \"Day07/Calculator.sol\":547:554  uint256 */\n      0x00\n        /* \"Day07/Calculator.sol\":574:598  MathLibrary.divide(a, b) */\n      tag_70\n        /* \"Day07/Calculator.sol\":593:594  a */\n      dup4\n        /* \"Day07/Calculator.sol\":596:597  b */\n      dup4\n        /* \"Day07/Calculator.sol\":574:592  MathLibrary.divide */\n      tag_71\n        /* \"Day07/Calculator.sol\":574:598  MathLibrary.divide(a, b) */\n      jump\t// in\n    tag_70:\n        /* \"Day07/Calculator.sol\":567:598  return MathLibrary.divide(a, b) */\n      swap1\n      pop\n        /* \"Day07/Calculator.sol\":488:606  function divide(uint256 a, uint256 b) public pure returns (uint256) {... */\n      swap3\n      swap2\n      pop\n      pop\n      jump\t// out\n        /* \"Day07/MathLibrary.sol\":365:468  function multiply(uint256 a, uint256 b) internal pure returns (uint256) {... */\n    tag_50:\n        /* \"Day07/MathLibrary.sol\":428:435  uint256 */\n      0x00\n        /* \"Day07/MathLibrary.sol\":459:460  b */\n      dup2\n        /* \"Day07/MathLibrary.sol\":455:456  a */\n      dup4\n        /* \"Day07/MathLibrary.sol\":455:460  a * b */\n      tag_73\n      swap2\n      swap1\n      tag_74\n      jump\t// in\n    tag_73:\n        /* \"Day07/MathLibrary.sol\":448:460  return a * b */\n      swap1\n      pop\n        /* \"Day07/MathLibrary.sol\":365:468  function multiply(uint256 a, uint256 b) internal pure returns (uint256) {... */\n      swap3\n      swap2\n      pop\n      pop\n      jump\t// out\n        /* \"Day07/MathLibrary.sol\":189:359  function subtract(uint256 a, uint256 b) internal pure returns (uint256) {... */\n    tag_53:\n        /* \"Day07/MathLibrary.sol\":252:259  uint256 */\n      0x00\n        /* \"Day07/MathLibrary.sol\":285:286  b */\n      dup2\n        /* \"Day07/MathLibrary.sol\":280:281  a */\n      dup4\n        /* \"Day07/MathLibrary.sol\":280:286  a >= b */\n      lt\n      iszero\n        /* \"Day07/MathLibrary.sol\":272:328  require(a >= b, \"Subtraction result cannot be negative\") */\n      tag_76\n      jumpi\n      mload(0x40)\n      0x08c379a000000000000000000000000000000000000000000000000000000000\n      dup2\n      mstore\n      0x04\n      add\n      tag_77\n      swap1\n      tag_78\n      jump\t// in\n    tag_77:\n      mload(0x40)\n      dup1\n      swap2\n      sub\n      swap1\n      revert\n    tag_76:\n        /* \"Day07/MathLibrary.sol\":350:351  b */\n      dup2\n        /* \"Day07/MathLibrary.sol\":346:347  a */\n      dup4\n        /* \"Day07/MathLibrary.sol\":346:351  a - b */\n      tag_79\n      swap2\n      swap1\n      tag_80\n      jump\t// in\n    tag_79:\n        /* \"Day07/MathLibrary.sol\":339:351  return a - b */\n      swap1\n      pop\n        /* \"Day07/MathLibrary.sol\":189:359  function subtract(uint256 a, uint256 b) internal pure returns (uint256) {... */\n      swap3\n      swap2\n      pop\n      pop\n      jump\t// out\n        /* \"Day07/MathLibrary.sol\":1192:1397  function power(uint256 base, uint256 exponent) internal pure returns (uint256 result) {... */\n    tag_56:\n        /* \"Day07/MathLibrary.sol\":1262:1276  uint256 result */\n      0x00\n        /* \"Day07/MathLibrary.sol\":1298:1299  1 */\n      0x01\n        /* \"Day07/MathLibrary.sol\":1289:1299  result = 1 */\n      swap1\n      pop\n        /* \"Day07/MathLibrary.sol\":1315:1324  uint256 i */\n      0x00\n        /* \"Day07/MathLibrary.sol\":1310:1390  for (uint256 i = 0; i < exponent; i++) {... */\n    tag_82:\n        /* \"Day07/MathLibrary.sol\":1334:1342  exponent */\n      dup3\n        /* \"Day07/MathLibrary.sol\":1330:1331  i */\n      dup2\n        /* \"Day07/MathLibrary.sol\":1330:1342  i < exponent */\n      lt\n        /* \"Day07/MathLibrary.sol\":1310:1390  for (uint256 i = 0; i < exponent; i++) {... */\n      iszero\n      tag_83\n      jumpi\n        /* \"Day07/MathLibrary.sol\":1374:1378  base */\n      dup4\n        /* \"Day07/MathLibrary.sol\":1364:1378  result *= base */\n      dup3\n      tag_85\n      swap2\n      swap1\n      tag_74\n      jump\t// in\n    tag_85:\n      swap2\n      pop\n        /* \"Day07/MathLibrary.sol\":1344:1347  i++ */\n      dup1\n      dup1\n      0x01\n      add\n      swap2\n      pop\n      pop\n        /* \"Day07/MathLibrary.sol\":1310:1390  for (uint256 i = 0; i < exponent; i++) {... */\n      jump(tag_82)\n    tag_83:\n      pop\n        /* \"Day07/MathLibrary.sol\":1192:1397  function power(uint256 base, uint256 exponent) internal pure returns (uint256 result) {... */\n      swap3\n      swap2\n      pop\n      pop\n      jump\t// out\n        /* \"Day07/MathLibrary.sol\":85:183  function add(uint256 a, uint256 b) internal pure returns (uint256) {... */\n    tag_59:\n        /* \"Day07/MathLibrary.sol\":143:150  uint256 */\n      0x00\n        /* \"Day07/MathLibrary.sol\":174:175  b */\n      dup2\n        /* \"Day07/MathLibrary.sol\":170:171  a */\n      dup4\n        /* \"Day07/MathLibrary.sol\":170:175  a + b */\n      tag_87\n      swap2\n      swap1\n      tag_88\n      jump\t// in\n    tag_87:\n        /* \"Day07/MathLibrary.sol\":163:175  return a + b */\n      swap1\n      pop\n        /* \"Day07/MathLibrary.sol\":85:183  function add(uint256 a, uint256 b) internal pure returns (uint256) {... */\n      swap3\n      swap2\n      pop\n      pop\n      jump\t// out\n        /* \"Day07/MathLibrary.sol\":778:1067  function sqrt(uint256 x) internal pure returns (uint256) {... */\n    tag_62:\n        /* \"Day07/MathLibrary.sol\":826:833  uint256 */\n      0x00\n        /* \"Day07/MathLibrary.sol\":855:856  0 */\n      dup1\n        /* \"Day07/MathLibrary.sol\":850:851  x */\n      dup3\n        /* \"Day07/MathLibrary.sol\":850:856  x == 0 */\n      sub\n        /* \"Day07/MathLibrary.sol\":846:893  if (x == 0) {... */\n      tag_90\n      jumpi\n        /* \"Day07/MathLibrary.sol\":880:881  0 */\n      0x00\n        /* \"Day07/MathLibrary.sol\":873:881  return 0 */\n      swap1\n      pop\n      jump(tag_89)\n        /* \"Day07/MathLibrary.sol\":846:893  if (x == 0) {... */\n    tag_90:\n        /* \"Day07/MathLibrary.sol\":903:912  uint256 z */\n      0x00\n        /* \"Day07/MathLibrary.sol\":925:926  2 */\n      0x02\n        /* \"Day07/MathLibrary.sol\":920:921  1 */\n      0x01\n        /* \"Day07/MathLibrary.sol\":916:917  x */\n      dup5\n        /* \"Day07/MathLibrary.sol\":916:921  x + 1 */\n      tag_91\n      swap2\n      swap1\n      tag_88\n      jump\t// in\n    tag_91:\n        /* \"Day07/MathLibrary.sol\":915:926  (x + 1) / 2 */\n      tag_92\n      swap2\n      swap1\n      tag_93\n      jump\t// in\n    tag_92:\n        /* \"Day07/MathLibrary.sol\":903:926  uint256 z = (x + 1) / 2 */\n      swap1\n      pop\n        /* \"Day07/MathLibrary.sol\":937:946  uint256 y */\n      0x00\n        /* \"Day07/MathLibrary.sol\":949:950  x */\n      dup4\n        /* \"Day07/MathLibrary.sol\":937:950  uint256 y = x */\n      swap1\n      pop\n        /* \"Day07/MathLibrary.sol\":961:1041  while (z < y) {... */\n    tag_94:\n        /* \"Day07/MathLibrary.sol\":972:973  y */\n      dup1\n        /* \"Day07/MathLibrary.sol\":968:969  z */\n      dup3\n        /* \"Day07/MathLibrary.sol\":968:973  z < y */\n      lt\n        /* \"Day07/MathLibrary.sol\":961:1041  while (z < y) {... */\n      iszero\n      tag_95\n      jumpi\n        /* \"Day07/MathLibrary.sol\":994:995  z */\n      dup2\n        /* \"Day07/MathLibrary.sol\":990:995  y = z */\n      swap1\n      pop\n        /* \"Day07/MathLibrary.sol\":1028:1029  2 */\n      0x02\n        /* \"Day07/MathLibrary.sol\":1023:1024  z */\n      dup3\n        /* \"Day07/MathLibrary.sol\":1019:1020  z */\n      dup4\n        /* \"Day07/MathLibrary.sol\":1015:1016  x */\n      dup7\n        /* \"Day07/MathLibrary.sol\":1015:1020  x / z */\n      tag_96\n      swap2\n      swap1\n      tag_93\n      jump\t// in\n    tag_96:\n        /* \"Day07/MathLibrary.sol\":1015:1024  x / z + z */\n      tag_97\n      swap2\n      swap1\n      tag_88\n      jump\t// in\n    tag_97:\n        /* \"Day07/MathLibrary.sol\":1014:1029  (x / z + z) / 2 */\n      tag_98\n      swap2\n      swap1\n      tag_93\n      jump\t// in\n    tag_98:\n        /* \"Day07/MathLibrary.sol\":1010:1029  z = (x / z + z) / 2 */\n      swap2\n      pop\n        /* \"Day07/MathLibrary.sol\":961:1041  while (z < y) {... */\n      jump(tag_94)\n    tag_95:\n        /* \"Day07/MathLibrary.sol\":1058:1059  y */\n      dup1\n        /* \"Day07/MathLibrary.sol\":1051:1059  return y */\n      swap3\n      pop\n      pop\n      pop\n        /* \"Day07/MathLibrary.sol\":778:1067  function sqrt(uint256 x) internal pure returns (uint256) {... */\n    tag_89:\n      swap2\n      swap1\n      pop\n      jump\t// out\n        /* \"Day07/MathLibrary.sol\":627:772  function modulo(uint256 a, uint256 b) internal pure returns (uint256) {... */\n    tag_65:\n        /* \"Day07/MathLibrary.sol\":688:695  uint256 */\n      0x00\n        /* \"Day07/MathLibrary.sol\":721:722  0 */\n      dup1\n        /* \"Day07/MathLibrary.sol\":716:717  b */\n      dup3\n        /* \"Day07/MathLibrary.sol\":716:722  b != 0 */\n      sub\n        /* \"Day07/MathLibrary.sol\":708:741  require(b != 0, \"Modulo by zero\") */\n      tag_100\n      jumpi\n      mload(0x40)\n      0x08c379a000000000000000000000000000000000000000000000000000000000\n      dup2\n      mstore\n      0x04\n      add\n      tag_101\n      swap1\n      tag_102\n      jump\t// in\n    tag_101:\n      mload(0x40)\n      dup1\n      swap2\n      sub\n      swap1\n      revert\n    tag_100:\n        /* \"Day07/MathLibrary.sol\":763:764  b */\n      dup2\n        /* \"Day07/MathLibrary.sol\":759:760  a */\n      dup4\n        /* \"Day07/MathLibrary.sol\":759:764  a % b */\n      tag_103\n      swap2\n      swap1\n      tag_104\n      jump\t// in\n    tag_103:\n        /* \"Day07/MathLibrary.sol\":752:764  return a % b */\n      swap1\n      pop\n        /* \"Day07/MathLibrary.sol\":627:772  function modulo(uint256 a, uint256 b) internal pure returns (uint256) {... */\n      swap3\n      swap2\n      pop\n      pop\n      jump\t// out\n        /* \"Day07/MathLibrary.sol\":1073:1186  function abs(int256 x) internal pure returns (uint256) {... */\n    tag_68:\n        /* \"Day07/MathLibrary.sol\":1119:1126  uint256 */\n      0x00\n        /* \"Day07/MathLibrary.sol\":1150:1151  0 */\n      dup1\n        /* \"Day07/MathLibrary.sol\":1146:1147  x */\n      dup3\n        /* \"Day07/MathLibrary.sol\":1146:1151  x < 0 */\n      slt\n        /* \"Day07/MathLibrary.sol\":1146:1178  x < 0 ? uint256(-x) : uint256(x) */\n      tag_106\n      jumpi\n        /* \"Day07/MathLibrary.sol\":1176:1177  x */\n      dup2\n        /* \"Day07/MathLibrary.sol\":1146:1178  x < 0 ? uint256(-x) : uint256(x) */\n      jump(tag_107)\n    tag_106:\n        /* \"Day07/MathLibrary.sol\":1163:1164  x */\n      dup2\n        /* \"Day07/MathLibrary.sol\":1162:1164  -x */\n      tag_108\n      swap1\n      tag_109\n      jump\t// in\n    tag_108:\n        /* \"Day07/MathLibrary.sol\":1146:1178  x < 0 ? uint256(-x) : uint256(x) */\n    tag_107:\n        /* \"Day07/MathLibrary.sol\":1139:1178  return x < 0 ? uint256(-x) : uint256(x) */\n      swap1\n      pop\n        /* \"Day07/MathLibrary.sol\":1073:1186  function abs(int256 x) internal pure returns (uint256) {... */\n      swap2\n      swap1\n      pop\n      jump\t// out\n        /* \"Day07/MathLibrary.sol\":474:621  function divide(uint256 a, uint256 b) internal pure returns (uint256) {... */\n    tag_71:\n        /* \"Day07/MathLibrary.sol\":535:542  uint256 */\n      0x00\n        /* \"Day07/MathLibrary.sol\":568:569  0 */\n      dup1\n        /* \"Day07/MathLibrary.sol\":563:564  b */\n      dup3\n        /* \"Day07/MathLibrary.sol\":563:569  b != 0 */\n      sub\n        /* \"Day07/MathLibrary.sol\":555:590  require(b != 0, \"Division by zero\") */\n      tag_111\n      jumpi\n      mload(0x40)\n      0x08c379a000000000000000000000000000000000000000000000000000000000\n      dup2\n      mstore\n      0x04\n      add\n      tag_112\n      swap1\n      tag_113\n      jump\t// in\n    tag_112:\n      mload(0x40)\n      dup1\n      swap2\n      sub\n      swap1\n      revert\n    tag_111:\n        /* \"Day07/MathLibrary.sol\":612:613  b */\n      dup2\n        /* \"Day07/MathLibrary.sol\":608:609  a */\n      dup4\n        /* \"Day07/MathLibrary.sol\":608:613  a / b */\n      tag_114\n      swap2\n      swap1\n      tag_93\n      jump\t// in\n    tag_114:\n        /* \"Day07/MathLibrary.sol\":601:613  return a / b */\n      swap1\n      pop\n        /* \"Day07/MathLibrary.sol\":474:621  function divide(uint256 a, uint256 b) internal pure returns (uint256) {... */\n      swap3\n      swap2\n      pop\n      pop\n      jump\t// out\n        /* \"#utility.yul\":88:205   */\n    tag_116:\n        /* \"#utility.yul\":197:198   */\n      0x00\n        /* \"#utility.yul\":194:195   */\n      dup1\n        /* \"#utility.yul\":187:199   */\n      revert\n        /* \"#utility.yul\":334:411   */\n    tag_118:\n        /* \"#utility.yul\":371:378   */\n      0x00\n        /* \"#utility.yul\":400:405   */\n      dup2\n        /* \"#utility.yul\":389:405   */\n      swap1\n      pop\n        /* \"#utility.yul\":334:411   */\n      swap2\n      swap1\n      pop\n      jump\t// out\n        /* \"#utility.yul\":417:539   */\n    tag_119:\n        /* \"#utility.yul\":490:514   */\n      tag_140\n        /* \"#utility.yul\":508:513   */\n      dup2\n        /* \"#utility.yul\":490:514   */\n      tag_118\n      jump\t// in\n    tag_140:\n        /* \"#utility.yul\":483:488   */\n      dup2\n        /* \"#utility.yul\":480:515   */\n      eq\n        /* \"#utility.yul\":470:533   */\n      tag_141\n      jumpi\n        /* \"#utility.yul\":529:530   */\n      0x00\n        /* \"#utility.yul\":526:527   */\n      dup1\n        /* \"#utility.yul\":519:531   */\n      revert\n        /* \"#utility.yul\":470:533   */\n    tag_141:\n        /* \"#utility.yul\":417:539   */\n      pop\n      jump\t// out\n        /* \"#utility.yul\":545:684   */\n    tag_120:\n        /* \"#utility.yul\":591:596   */\n      0x00\n        /* \"#utility.yul\":629:635   */\n      dup2\n        /* \"#utility.yul\":616:636   */\n      calldataload\n        /* \"#utility.yul\":607:636   */\n      swap1\n      pop\n        /* \"#utility.yul\":645:678   */\n      tag_143\n        /* \"#utility.yul\":672:677   */\n      dup2\n        /* \"#utility.yul\":645:678   */\n      tag_119\n      jump\t// in\n    tag_143:\n        /* \"#utility.yul\":545:684   */\n      swap3\n      swap2\n      pop\n      pop\n      jump\t// out\n        /* \"#utility.yul\":690:1164   */\n    tag_14:\n        /* \"#utility.yul\":758:764   */\n      0x00\n        /* \"#utility.yul\":766:772   */\n      dup1\n        /* \"#utility.yul\":815:817   */\n      0x40\n        /* \"#utility.yul\":803:812   */\n      dup4\n        /* \"#utility.yul\":794:801   */\n      dup6\n        /* \"#utility.yul\":790:813   */\n      sub\n        /* \"#utility.yul\":786:818   */\n      slt\n        /* \"#utility.yul\":783:902   */\n      iszero\n      tag_145\n      jumpi\n        /* \"#utility.yul\":821:900   */\n      tag_146\n      tag_116\n      jump\t// in\n    tag_146:\n        /* \"#utility.yul\":783:902   */\n    tag_145:\n        /* \"#utility.yul\":941:942   */\n      0x00\n        /* \"#utility.yul\":966:1019   */\n      tag_147\n        /* \"#utility.yul\":1011:1018   */\n      dup6\n        /* \"#utility.yul\":1002:1008   */\n      dup3\n        /* \"#utility.yul\":991:1000   */\n      dup7\n        /* \"#utility.yul\":987:1009   */\n      add\n        /* \"#utility.yul\":966:1019   */\n      tag_120\n      jump\t// in\n    tag_147:\n        /* \"#utility.yul\":956:1019   */\n      swap3\n      pop\n        /* \"#utility.yul\":912:1029   */\n      pop\n        /* \"#utility.yul\":1068:1070   */\n      0x20\n        /* \"#utility.yul\":1094:1147   */\n      tag_148\n        /* \"#utility.yul\":1139:1146   */\n      dup6\n        /* \"#utility.yul\":1130:1136   */\n      dup3\n        /* \"#utility.yul\":1119:1128   */\n      dup7\n        /* \"#utility.yul\":1115:1137   */\n      add\n        /* \"#utility.yul\":1094:1147   */\n      tag_120\n      jump\t// in\n    tag_148:\n        /* \"#utility.yul\":1084:1147   */\n      swap2\n      pop\n        /* \"#utility.yul\":1039:1157   */\n      pop\n        /* \"#utility.yul\":690:1164   */\n      swap3\n      pop\n      swap3\n      swap1\n      pop\n      jump\t// out\n        /* \"#utility.yul\":1170:1288   */\n    tag_121:\n        /* \"#utility.yul\":1257:1281   */\n      tag_150\n        /* \"#utility.yul\":1275:1280   */\n      dup2\n        /* \"#utility.yul\":1257:1281   */\n      tag_118\n      jump\t// in\n    tag_150:\n        /* \"#utility.yul\":1252:1255   */\n      dup3\n        /* \"#utility.yul\":1245:1282   */\n      mstore\n        /* \"#utility.yul\":1170:1288   */\n      pop\n      pop\n      jump\t// out\n        /* \"#utility.yul\":1294:1516   */\n    tag_17:\n        /* \"#utility.yul\":1387:1391   */\n      0x00\n        /* \"#utility.yul\":1425:1427   */\n      0x20\n        /* \"#utility.yul\":1414:1423   */\n      dup3\n        /* \"#utility.yul\":1410:1428   */\n      add\n        /* \"#utility.yul\":1402:1428   */\n      swap1\n      pop\n        /* \"#utility.yul\":1438:1509   */\n      tag_152\n        /* \"#utility.yul\":1506:1507   */\n      0x00\n        /* \"#utility.yul\":1495:1504   */\n      dup4\n        /* \"#utility.yul\":1491:1508   */\n      add\n        /* \"#utility.yul\":1482:1488   */\n      dup5\n        /* \"#utility.yul\":1438:1509   */\n      tag_121\n      jump\t// in\n    tag_152:\n        /* \"#utility.yul\":1294:1516   */\n      swap3\n      swap2\n      pop\n      pop\n      jump\t// out\n        /* \"#utility.yul\":1522:1851   */\n    tag_32:\n        /* \"#utility.yul\":1581:1587   */\n      0x00\n        /* \"#utility.yul\":1630:1632   */\n      0x20\n        /* \"#utility.yul\":1618:1627   */\n      dup3\n        /* \"#utility.yul\":1609:1616   */\n      dup5\n        /* \"#utility.yul\":1605:1628   */\n      sub\n        /* \"#utility.yul\":1601:1633   */\n      slt\n        /* \"#utility.yul\":1598:1717   */\n      iszero\n      tag_154\n      jumpi\n        /* \"#utility.yul\":1636:1715   */\n      tag_155\n      tag_116\n      jump\t// in\n    tag_155:\n        /* \"#utility.yul\":1598:1717   */\n    tag_154:\n        /* \"#utility.yul\":1756:1757   */\n      0x00\n        /* \"#utility.yul\":1781:1834   */\n      tag_156\n        /* \"#utility.yul\":1826:1833   */\n      dup5\n        /* \"#utility.yul\":1817:1823   */\n      dup3\n        /* \"#utility.yul\":1806:1815   */\n      dup6\n        /* \"#utility.yul\":1802:1824   */\n      add\n        /* \"#utility.yul\":1781:1834   */\n      tag_120\n      jump\t// in\n    tag_156:\n        /* \"#utility.yul\":1771:1834   */\n      swap2\n      pop\n        /* \"#utility.yul\":1727:1844   */\n      pop\n        /* \"#utility.yul\":1522:1851   */\n      swap3\n      swap2\n      pop\n      pop\n      jump\t// out\n        /* \"#utility.yul\":1857:1933   */\n    tag_122:\n        /* \"#utility.yul\":1893:1900   */\n      0x00\n        /* \"#utility.yul\":1922:1927   */\n      dup2\n        /* \"#utility.yul\":1911:1927   */\n      swap1\n      pop\n        /* \"#utility.yul\":1857:1933   */\n      swap2\n      swap1\n      pop\n      jump\t// out\n        /* \"#utility.yul\":1939:2059   */\n    tag_123:\n        /* \"#utility.yul\":2011:2034   */\n      tag_159\n        /* \"#utility.yul\":2028:2033   */\n      dup2\n        /* \"#utility.yul\":2011:2034   */\n      tag_122\n      jump\t// in\n    tag_159:\n        /* \"#utility.yul\":2004:2009   */\n      dup2\n        /* \"#utility.yul\":2001:2035   */\n      eq\n        /* \"#utility.yul\":1991:2053   */\n      tag_160\n      jumpi\n        /* \"#utility.yul\":2049:2050   */\n      0x00\n        /* \"#utility.yul\":2046:2047   */\n      dup1\n        /* \"#utility.yul\":2039:2051   */\n      revert\n        /* \"#utility.yul\":1991:2053   */\n    tag_160:\n        /* \"#utility.yul\":1939:2059   */\n      pop\n      jump\t// out\n        /* \"#utility.yul\":2065:2202   */\n    tag_124:\n        /* \"#utility.yul\":2110:2115   */\n      0x00\n        /* \"#utility.yul\":2148:2154   */\n      dup2\n        /* \"#utility.yul\":2135:2155   */\n      calldataload\n        /* \"#utility.yul\":2126:2155   */\n      swap1\n      pop\n        /* \"#utility.yul\":2164:2196   */\n      tag_162\n        /* \"#utility.yul\":2190:2195   */\n      dup2\n        /* \"#utility.yul\":2164:2196   */\n      tag_123\n      jump\t// in\n    tag_162:\n        /* \"#utility.yul\":2065:2202   */\n      swap3\n      swap2\n      pop\n      pop\n      jump\t// out\n        /* \"#utility.yul\":2208:2535   */\n    tag_41:\n        /* \"#utility.yul\":2266:2272   */\n      0x00\n        /* \"#utility.yul\":2315:2317   */\n      0x20\n        /* \"#utility.yul\":2303:2312   */\n      dup3\n        /* \"#utility.yul\":2294:2301   */\n      dup5\n        /* \"#utility.yul\":2290:2313   */\n      sub\n        /* \"#utility.yul\":2286:2318   */\n      slt\n        /* \"#utility.yul\":2283:2402   */\n      iszero\n      tag_164\n      jumpi\n        /* \"#utility.yul\":2321:2400   */\n      tag_165\n      tag_116\n      jump\t// in\n    tag_165:\n        /* \"#utility.yul\":2283:2402   */\n    tag_164:\n        /* \"#utility.yul\":2441:2442   */\n      0x00\n        /* \"#utility.yul\":2466:2518   */\n      tag_166\n        /* \"#utility.yul\":2510:2517   */\n      dup5\n        /* \"#utility.yul\":2501:2507   */\n      dup3\n        /* \"#utility.yul\":2490:2499   */\n      dup6\n        /* \"#utility.yul\":2486:2508   */\n      add\n        /* \"#utility.yul\":2466:2518   */\n      tag_124\n      jump\t// in\n    tag_166:\n        /* \"#utility.yul\":2456:2518   */\n      swap2\n      pop\n        /* \"#utility.yul\":2412:2528   */\n      pop\n        /* \"#utility.yul\":2208:2535   */\n      swap3\n      swap2\n      pop\n      pop\n      jump\t// out\n        /* \"#utility.yul\":2541:2721   */\n    tag_125:\n        /* \"#utility.yul\":2589:2666   */\n      0x4e487b7100000000000000000000000000000000000000000000000000000000\n        /* \"#utility.yul\":2586:2587   */\n      0x00\n        /* \"#utility.yul\":2579:2667   */\n      mstore\n        /* \"#utility.yul\":2686:2690   */\n      0x11\n        /* \"#utility.yul\":2683:2684   */\n      0x04\n        /* \"#utility.yul\":2676:2691   */\n      mstore\n        /* \"#utility.yul\":2710:2714   */\n      0x24\n        /* \"#utility.yul\":2707:2708   */\n      0x00\n        /* \"#utility.yul\":2700:2715   */\n      revert\n        /* \"#utility.yul\":2727:3137   */\n    tag_74:\n        /* \"#utility.yul\":2767:2774   */\n      0x00\n        /* \"#utility.yul\":2790:2810   */\n      tag_169\n        /* \"#utility.yul\":2808:2809   */\n      dup3\n        /* \"#utility.yul\":2790:2810   */\n      tag_118\n      jump\t// in\n    tag_169:\n        /* \"#utility.yul\":2785:2810   */\n      swap2\n      pop\n        /* \"#utility.yul\":2824:2844   */\n      tag_170\n        /* \"#utility.yul\":2842:2843   */\n      dup4\n        /* \"#utility.yul\":2824:2844   */\n      tag_118\n      jump\t// in\n    tag_170:\n        /* \"#utility.yul\":2819:2844   */\n      swap3\n      pop\n        /* \"#utility.yul\":2879:2880   */\n      dup3\n        /* \"#utility.yul\":2876:2877   */\n      dup3\n        /* \"#utility.yul\":2872:2881   */\n      mul\n        /* \"#utility.yul\":2901:2931   */\n      tag_171\n        /* \"#utility.yul\":2919:2930   */\n      dup2\n        /* \"#utility.yul\":2901:2931   */\n      tag_118\n      jump\t// in\n    tag_171:\n        /* \"#utility.yul\":2890:2931   */\n      swap2\n      pop\n        /* \"#utility.yul\":3080:3081   */\n      dup3\n        /* \"#utility.yul\":3071:3078   */\n      dup3\n        /* \"#utility.yul\":3067:3082   */\n      div\n        /* \"#utility.yul\":3064:3065   */\n      dup5\n        /* \"#utility.yul\":3061:3083   */\n      eq\n        /* \"#utility.yul\":3041:3042   */\n      dup4\n        /* \"#utility.yul\":3034:3043   */\n      iszero\n        /* \"#utility.yul\":3014:3097   */\n      or\n        /* \"#utility.yul\":2991:3130   */\n      tag_172\n      jumpi\n        /* \"#utility.yul\":3110:3128   */\n      tag_173\n      tag_125\n      jump\t// in\n    tag_173:\n        /* \"#utility.yul\":2991:3130   */\n    tag_172:\n        /* \"#utility.yul\":2775:3137   */\n      pop\n        /* \"#utility.yul\":2727:3137   */\n      swap3\n      swap2\n      pop\n      pop\n      jump\t// out\n        /* \"#utility.yul\":3143:3312   */\n    tag_126:\n        /* \"#utility.yul\":3227:3238   */\n      0x00\n        /* \"#utility.yul\":3261:3267   */\n      dup3\n        /* \"#utility.yul\":3256:3259   */\n      dup3\n        /* \"#utility.yul\":3249:3268   */\n      mstore\n        /* \"#utility.yul\":3301:3305   */\n      0x20\n        /* \"#utility.yul\":3296:3299   */\n      dup3\n        /* \"#utility.yul\":3292:3306   */\n      add\n        /* \"#utility.yul\":3277:3306   */\n      swap1\n      pop\n        /* \"#utility.yul\":3143:3312   */\n      swap3\n      swap2\n      pop\n      pop\n      jump\t// out\n        /* \"#utility.yul\":3318:3542   */\n    tag_127:\n        /* \"#utility.yul\":3458:3492   */\n      0x5375627472616374696f6e20726573756c742063616e6e6f74206265206e6567\n        /* \"#utility.yul\":3454:3455   */\n      0x00\n        /* \"#utility.yul\":3446:3452   */\n      dup3\n        /* \"#utility.yul\":3442:3456   */\n      add\n        /* \"#utility.yul\":3435:3493   */\n      mstore\n        /* \"#utility.yul\":3527:3534   */\n      0x6174697665000000000000000000000000000000000000000000000000000000\n        /* \"#utility.yul\":3522:3524   */\n      0x20\n        /* \"#utility.yul\":3514:3520   */\n      dup3\n        /* \"#utility.yul\":3510:3525   */\n      add\n        /* \"#utility.yul\":3503:3535   */\n      mstore\n        /* \"#utility.yul\":3318:3542   */\n      pop\n      jump\t// out\n        /* \"#utility.yul\":3548:3914   */\n    tag_128:\n        /* \"#utility.yul\":3690:3693   */\n      0x00\n        /* \"#utility.yul\":3711:3778   */\n      tag_177\n        /* \"#utility.yul\":3775:3777   */\n      0x25\n        /* \"#utility.yul\":3770:3773   */\n      dup4\n        /* \"#utility.yul\":3711:3778   */\n      tag_126\n      jump\t// in\n    tag_177:\n        /* \"#utility.yul\":3704:3778   */\n      swap2\n      pop\n        /* \"#utility.yul\":3787:3880   */\n      tag_178\n        /* \"#utility.yul\":3876:3879   */\n      dup3\n        /* \"#utility.yul\":3787:3880   */\n      tag_127\n      jump\t// in\n    tag_178:\n        /* \"#utility.yul\":3905:3907   */\n      0x40\n        /* \"#utility.yul\":3900:3903   */\n      dup3\n        /* \"#utility.yul\":3896:3908   */\n      add\n        /* \"#utility.yul\":3889:3908   */\n      swap1\n      pop\n        /* \"#utility.yul\":3548:3914   */\n      swap2\n      swap1\n      pop\n      jump\t// out\n        /* \"#utility.yul\":3920:4339   */\n    tag_78:\n        /* \"#utility.yul\":4086:4090   */\n      0x00\n        /* \"#utility.yul\":4124:4126   */\n      0x20\n        /* \"#utility.yul\":4113:4122   */\n      dup3\n        /* \"#utility.yul\":4109:4127   */\n      add\n        /* \"#utility.yul\":4101:4127   */\n      swap1\n      pop\n        /* \"#utility.yul\":4173:4182   */\n      dup2\n        /* \"#utility.yul\":4167:4171   */\n      dup2\n        /* \"#utility.yul\":4163:4183   */\n      sub\n        /* \"#utility.yul\":4159:4160   */\n      0x00\n        /* \"#utility.yul\":4148:4157   */\n      dup4\n        /* \"#utility.yul\":4144:4161   */\n      add\n        /* \"#utility.yul\":4137:4184   */\n      mstore\n        /* \"#utility.yul\":4201:4332   */\n      tag_180\n        /* \"#utility.yul\":4327:4331   */\n      dup2\n        /* \"#utility.yul\":4201:4332   */\n      tag_128\n      jump\t// in\n    tag_180:\n        /* \"#utility.yul\":4193:4332   */\n      swap1\n      pop\n        /* \"#utility.yul\":3920:4339   */\n      swap2\n      swap1\n      pop\n      jump\t// out\n        /* \"#utility.yul\":4345:4539   */\n    tag_80:\n        /* \"#utility.yul\":4385:4389   */\n      0x00\n        /* \"#utility.yul\":4405:4425   */\n      tag_182\n        /* \"#utility.yul\":4423:4424   */\n      dup3\n        /* \"#utility.yul\":4405:4425   */\n      tag_118\n      jump\t// in\n    tag_182:\n        /* \"#utility.yul\":4400:4425   */\n      swap2\n      pop\n        /* \"#utility.yul\":4439:4459   */\n      tag_183\n        /* \"#utility.yul\":4457:4458   */\n      dup4\n        /* \"#utility.yul\":4439:4459   */\n      tag_118\n      jump\t// in\n    tag_183:\n        /* \"#utility.yul\":4434:4459   */\n      swap3\n      pop\n        /* \"#utility.yul\":4483:4484   */\n      dup3\n        /* \"#utility.yul\":4480:4481   */\n      dup3\n        /* \"#utility.yul\":4476:4485   */\n      sub\n        /* \"#utility.yul\":4468:4485   */\n      swap1\n      pop\n        /* \"#utility.yul\":4507:4508   */\n      dup2\n        /* \"#utility.yul\":4501:4505   */\n      dup2\n        /* \"#utility.yul\":4498:4509   */\n      gt\n        /* \"#utility.yul\":4495:4532   */\n      iszero\n      tag_184\n      jumpi\n        /* \"#utility.yul\":4512:4530   */\n      tag_185\n      tag_125\n      jump\t// in\n    tag_185:\n        /* \"#utility.yul\":4495:4532   */\n    tag_184:\n        /* \"#utility.yul\":4345:4539   */\n      swap3\n      swap2\n      pop\n      pop\n      jump\t// out\n        /* \"#utility.yul\":4545:4736   */\n    tag_88:\n        /* \"#utility.yul\":4585:4588   */\n      0x00\n        /* \"#utility.yul\":4604:4624   */\n      tag_187\n        /* \"#utility.yul\":4622:4623   */\n      dup3\n        /* \"#utility.yul\":4604:4624   */\n      tag_118\n      jump\t// in\n    tag_187:\n        /* \"#utility.yul\":4599:4624   */\n      swap2\n      pop\n        /* \"#utility.yul\":4638:4658   */\n      tag_188\n        /* \"#utility.yul\":4656:4657   */\n      dup4\n        /* \"#utility.yul\":4638:4658   */\n      tag_118\n      jump\t// in\n    tag_188:\n        /* \"#utility.yul\":4633:4658   */\n      swap3\n      pop\n        /* \"#utility.yul\":4681:4682   */\n      dup3\n        /* \"#utility.yul\":4678:4679   */\n      dup3\n        /* \"#utility.yul\":4674:4683   */\n      add\n        /* \"#utility.yul\":4667:4683   */\n      swap1\n      pop\n        /* \"#utility.yul\":4702:4705   */\n      dup1\n        /* \"#utility.yul\":4699:4700   */\n      dup3\n        /* \"#utility.yul\":4696:4706   */\n      gt\n        /* \"#utility.yul\":4693:4729   */\n      iszero\n      tag_189\n      jumpi\n        /* \"#utility.yul\":4709:4727   */\n      tag_190\n      tag_125\n      jump\t// in\n    tag_190:\n        /* \"#utility.yul\":4693:4729   */\n    tag_189:\n        /* \"#utility.yul\":4545:4736   */\n      swap3\n      swap2\n      pop\n      pop\n      jump\t// out\n        /* \"#utility.yul\":4742:4922   */\n    tag_129:\n        /* \"#utility.yul\":4790:4867   */\n      0x4e487b7100000000000000000000000000000000000000000000000000000000\n        /* \"#utility.yul\":4787:4788   */\n      0x00\n        /* \"#utility.yul\":4780:4868   */\n      mstore\n        /* \"#utility.yul\":4887:4891   */\n      0x12\n        /* \"#utility.yul\":4884:4885   */\n      0x04\n        /* \"#utility.yul\":4877:4892   */\n      mstore\n        /* \"#utility.yul\":4911:4915   */\n      0x24\n        /* \"#utility.yul\":4908:4909   */\n      0x00\n        /* \"#utility.yul\":4901:4916   */\n      revert\n        /* \"#utility.yul\":4928:5113   */\n    tag_93:\n        /* \"#utility.yul\":4968:4969   */\n      0x00\n        /* \"#utility.yul\":4985:5005   */\n      tag_193\n        /* \"#utility.yul\":5003:5004   */\n      dup3\n        /* \"#utility.yul\":4985:5005   */\n      tag_118\n      jump\t// in\n    tag_193:\n        /* \"#utility.yul\":4980:5005   */\n      swap2\n      pop\n        /* \"#utility.yul\":5019:5039   */\n      tag_194\n        /* \"#utility.yul\":5037:5038   */\n      dup4\n        /* \"#utility.yul\":5019:5039   */\n      tag_118\n      jump\t// in\n    tag_194:\n        /* \"#utility.yul\":5014:5039   */\n      swap3\n      pop\n        /* \"#utility.yul\":5058:5059   */\n      dup3\n        /* \"#utility.yul\":5048:5083   */\n      tag_195\n      jumpi\n        /* \"#utility.yul\":5063:5081   */\n      tag_196\n      tag_129\n      jump\t// in\n    tag_196:\n        /* \"#utility.yul\":5048:5083   */\n    tag_195:\n        /* \"#utility.yul\":5105:5106   */\n      dup3\n        /* \"#utility.yul\":5102:5103   */\n      dup3\n        /* \"#utility.yul\":5098:5107   */\n      div\n        /* \"#utility.yul\":5093:5107   */\n      swap1\n      pop\n        /* \"#utility.yul\":4928:5113   */\n      swap3\n      swap2\n      pop\n      pop\n      jump\t// out\n        /* \"#utility.yul\":5119:5283   */\n    tag_130:\n        /* \"#utility.yul\":5259:5275   */\n      0x4d6f64756c6f206279207a65726f000000000000000000000000000000000000\n        /* \"#utility.yul\":5255:5256   */\n      0x00\n        /* \"#utility.yul\":5247:5253   */\n      dup3\n        /* \"#utility.yul\":5243:5257   */\n      add\n        /* \"#utility.yul\":5236:5276   */\n      mstore\n        /* \"#utility.yul\":5119:5283   */\n      pop\n      jump\t// out\n        /* \"#utility.yul\":5289:5655   */\n    tag_131:\n        /* \"#utility.yul\":5431:5434   */\n      0x00\n        /* \"#utility.yul\":5452:5519   */\n      tag_199\n        /* \"#utility.yul\":5516:5518   */\n      0x0e\n        /* \"#utility.yul\":5511:5514   */\n      dup4\n        /* \"#utility.yul\":5452:5519   */\n      tag_126\n      jump\t// in\n    tag_199:\n        /* \"#utility.yul\":5445:5519   */\n      swap2\n      pop\n        /* \"#utility.yul\":5528:5621   */\n      tag_200\n        /* \"#utility.yul\":5617:5620   */\n      dup3\n        /* \"#utility.yul\":5528:5621   */\n      tag_130\n      jump\t// in\n    tag_200:\n        /* \"#utility.yul\":5646:5648   */\n      0x20\n        /* \"#utility.yul\":5641:5644   */\n      dup3\n        /* \"#utility.yul\":5637:5649   */\n      add\n        /* \"#utility.yul\":5630:5649   */\n      swap1\n      pop\n        /* \"#utility.yul\":5289:5655   */\n      swap2\n      swap1\n      pop\n      jump\t// out\n        /* \"#utility.yul\":5661:6080   */\n    tag_102:\n        /* \"#utility.yul\":5827:5831   */\n      0x00\n        /* \"#utility.yul\":5865:5867   */\n      0x20\n        /* \"#utility.yul\":5854:5863   */\n      dup3\n        /* \"#utility.yul\":5850:5868   */\n      add\n        /* \"#utility.yul\":5842:5868   */\n      swap1\n      pop\n        /* \"#utility.yul\":5914:5923   */\n      dup2\n        /* \"#utility.yul\":5908:5912   */\n      dup2\n        /* \"#utility.yul\":5904:5924   */\n      sub\n        /* \"#utility.yul\":5900:5901   */\n      0x00\n        /* \"#utility.yul\":5889:5898   */\n      dup4\n        /* \"#utility.yul\":5885:5902   */\n      add\n        /* \"#utility.yul\":5878:5925   */\n      mstore\n        /* \"#utility.yul\":5942:6073   */\n      tag_202\n        /* \"#utility.yul\":6068:6072   */\n      dup2\n        /* \"#utility.yul\":5942:6073   */\n      tag_131\n      jump\t// in\n    tag_202:\n        /* \"#utility.yul\":5934:6073   */\n      swap1\n      pop\n        /* \"#utility.yul\":5661:6080   */\n      swap2\n      swap1\n      pop\n      jump\t// out\n        /* \"#utility.yul\":6086:6262   */\n    tag_104:\n        /* \"#utility.yul\":6118:6119   */\n      0x00\n        /* \"#utility.yul\":6135:6155   */\n      tag_204\n        /* \"#utility.yul\":6153:6154   */\n      dup3\n        /* \"#utility.yul\":6135:6155   */\n      tag_118\n      jump\t// in\n    tag_204:\n        /* \"#utility.yul\":6130:6155   */\n      swap2\n      pop\n        /* \"#utility.yul\":6169:6189   */\n      tag_205\n        /* \"#utility.yul\":6187:6188   */\n      dup4\n        /* \"#utility.yul\":6169:6189   */\n      tag_118\n      jump\t// in\n    tag_205:\n        /* \"#utility.yul\":6164:6189   */\n      swap3\n      pop\n        /* \"#utility.yul\":6208:6209   */\n      dup3\n        /* \"#utility.yul\":6198:6233   */\n      tag_206\n      jumpi\n        /* \"#utility.yul\":6213:6231   */\n      tag_207\n      tag_129\n      jump\t// in\n    tag_207:\n        /* \"#utility.yul\":6198:6233   */\n    tag_206:\n        /* \"#utility.yul\":6254:6255   */\n      dup3\n        /* \"#utility.yul\":6251:6252   */\n      dup3\n        /* \"#utility.yul\":6247:6256   */\n      mod\n        /* \"#utility.yul\":6242:6256   */\n      swap1\n      pop\n        /* \"#utility.yul\":6086:6262   */\n      swap3\n      swap2\n      pop\n      pop\n      jump\t// out\n        /* \"#utility.yul\":6268:6496   */\n    tag_109:\n        /* \"#utility.yul\":6303:6306   */\n      0x00\n        /* \"#utility.yul\":6326:6349   */\n      tag_209\n        /* \"#utility.yul\":6343:6348   */\n      dup3\n        /* \"#utility.yul\":6326:6349   */\n      tag_122\n      jump\t// in\n    tag_209:\n        /* \"#utility.yul\":6317:6349   */\n      swap2\n      pop\n        /* \"#utility.yul\":6371:6437   */\n      0x8000000000000000000000000000000000000000000000000000000000000000\n        /* \"#utility.yul\":6364:6369   */\n      dup3\n        /* \"#utility.yul\":6361:6438   */\n      sub\n        /* \"#utility.yul\":6358:6461   */\n      tag_210\n      jumpi\n        /* \"#utility.yul\":6441:6459   */\n      tag_211\n      tag_125\n      jump\t// in\n    tag_211:\n        /* \"#utility.yul\":6358:6461   */\n    tag_210:\n        /* \"#utility.yul\":6484:6489   */\n      dup2\n        /* \"#utility.yul\":6481:6482   */\n      0x00\n        /* \"#utility.yul\":6477:6490   */\n      sub\n        /* \"#utility.yul\":6470:6490   */\n      swap1\n      pop\n        /* \"#utility.yul\":6268:6496   */\n      swap2\n      swap1\n      pop\n      jump\t// out\n        /* \"#utility.yul\":6502:6668   */\n    tag_132:\n        /* \"#utility.yul\":6642:6660   */\n      0x4469766973696f6e206279207a65726f00000000000000000000000000000000\n        /* \"#utility.yul\":6638:6639   */\n      0x00\n        /* \"#utility.yul\":6630:6636   */\n      dup3\n        /* \"#utility.yul\":6626:6640   */\n      add\n        /* \"#utility.yul\":6619:6661   */\n      mstore\n        /* \"#utility.yul\":6502:6668   */\n      pop\n      jump\t// out\n        /* \"#utility.yul\":6674:7040   */\n    tag_133:\n        /* \"#utility.yul\":6816:6819   */\n      0x00\n        /* \"#utility.yul\":6837:6904   */\n      tag_214\n        /* \"#utility.yul\":6901:6903   */\n      0x10\n        /* \"#utility.yul\":6896:6899   */\n      dup4\n        /* \"#utility.yul\":6837:6904   */\n      tag_126\n      jump\t// in\n    tag_214:\n        /* \"#utility.yul\":6830:6904   */\n      swap2\n      pop\n        /* \"#utility.yul\":6913:7006   */\n      tag_215\n        /* \"#utility.yul\":7002:7005   */\n      dup3\n        /* \"#utility.yul\":6913:7006   */\n      tag_132\n      jump\t// in\n    tag_215:\n        /* \"#utility.yul\":7031:7033   */\n      0x20\n        /* \"#utility.yul\":7026:7029   */\n      dup3\n        /* \"#utility.yul\":7022:7034   */\n      add\n        /* \"#utility.yul\":7015:7034   */\n      swap1\n      pop\n        /* \"#utility.yul\":6674:7040   */\n      swap2\n      swap1\n      pop\n      jump\t// out\n        /* \"#utility.yul\":7046:7465   */\n    tag_113:\n        /* \"#utility.yul\":7212:7216   */\n      0x00\n        /* \"#utility.yul\":7250:7252   */\n      0x20\n        /* \"#utility.yul\":7239:7248   */\n      dup3\n        /* \"#utility.yul\":7235:7253   */\n      add\n        /* \"#utility.yul\":7227:7253   */\n      swap1\n      pop\n        /* \"#utility.yul\":7299:7308   */\n      dup2\n        /* \"#utility.yul\":7293:7297   */\n      dup2\n        /* \"#utility.yul\":7289:7309   */\n      sub\n        /* \"#utility.yul\":7285:7286   */\n      0x00\n        /* \"#utility.yul\":7274:7283   */\n      dup4\n        /* \"#utility.yul\":7270:7287   */\n      add\n        /* \"#utility.yul\":7263:7310   */\n      mstore\n        /* \"#utility.yul\":7327:7458   */\n      tag_217\n        /* \"#utility.yul\":7453:7457   */\n      dup2\n        /* \"#utility.yul\":7327:7458   */\n      tag_133\n      jump\t// in\n    tag_217:\n        /* \"#utility.yul\":7319:7458   */\n      swap1\n      pop\n        /* \"#utility.yul\":7046:7465   */\n      swap2\n      swap1\n      pop\n      jump\t// out\n\n    auxdata: 0xa2646970667358221220fba530fe0cdd7cbb6a280281ac1d8c741e2501c81e78d6208f8e6235a88d70da64736f6c634300081a0033\n}\n",
				"bytecode": {
					"linkReferences": {},
					"object": "6080604052348015600e575f80fd5b506109018061001c5f395ff3fe608060405234801561000f575f80fd5b5060043610610086575f3560e01c80637b019f89116100595780637b019f891461014a578063baaf073d1461017a578063e149e7b0146101aa578063f88e9fbf146101da57610086565b8063165c4a161461008a5780633ef5e445146100ba57806372931904146100ea578063771602f71461011a575b5f80fd5b6100a4600480360381019061009f91906104c7565b61020a565b6040516100b19190610514565b60405180910390f35b6100d460048036038101906100cf91906104c7565b61021d565b6040516100e19190610514565b60405180910390f35b61010460048036038101906100ff91906104c7565b610230565b6040516101119190610514565b60405180910390f35b610134600480360381019061012f91906104c7565b610243565b6040516101419190610514565b60405180910390f35b610164600480360381019061015f919061052d565b610256565b6040516101719190610514565b60405180910390f35b610194600480360381019061018f91906104c7565b610267565b6040516101a19190610514565b60405180910390f35b6101c460048036038101906101bf919061058b565b61027a565b6040516101d19190610514565b60405180910390f35b6101f460048036038101906101ef91906104c7565b61028b565b6040516102019190610514565b60405180910390f35b5f610215838361029e565b905092915050565b5f61022883836102b3565b905092915050565b5f61023b838361030b565b905092915050565b5f61024e838361033c565b905092915050565b5f61026082610351565b9050919050565b5f61027283836103c2565b905092915050565b5f61028482610419565b9050919050565b5f6102968383610439565b905092915050565b5f81836102ab91906105e3565b905092915050565b5f818310156102f7576040517f08c379a00000000000000000000000000000000000000000000000000000000081526004016102ee906106a4565b60405180910390fd5b818361030391906106c2565b905092915050565b5f600190505f5b8281101561033557838261032691906105e3565b91508080600101915050610312565b5092915050565b5f818361034991906106f5565b905092915050565b5f808203610361575f90506103bd565b5f600260018461037191906106f5565b61037b9190610755565b90505f8390505b808210156103b757819050600282838661039c9190610755565b6103a691906106f5565b6103b09190610755565b9150610382565b80925050505b919050565b5f808203610405576040517f08c379a00000000000000000000000000000000000000000000000000000000081526004016103fc906107cf565b60405180910390fd5b818361041191906107ed565b905092915050565b5f8082126104275781610432565b816104319061081d565b5b9050919050565b5f80820361047c576040517f08c379a0000000000000000000000000000000000000000000000000000000008152600401610473906108ad565b60405180910390fd5b81836104889190610755565b905092915050565b5f80fd5b5f819050919050565b6104a681610494565b81146104b0575f80fd5b50565b5f813590506104c18161049d565b92915050565b5f80604083850312156104dd576104dc610490565b5b5f6104ea858286016104b3565b92505060206104fb858286016104b3565b9150509250929050565b61050e81610494565b82525050565b5f6020820190506105275f830184610505565b92915050565b5f6020828403121561054257610541610490565b5b5f61054f848285016104b3565b91505092915050565b5f819050919050565b61056a81610558565b8114610574575f80fd5b50565b5f8135905061058581610561565b92915050565b5f602082840312156105a05761059f610490565b5b5f6105ad84828501610577565b91505092915050565b7f4e487b71000000000000000000000000000000000000000000000000000000005f52601160045260245ffd5b5f6105ed82610494565b91506105f883610494565b925082820261060681610494565b9150828204841483151761061d5761061c6105b6565b5b5092915050565b5f82825260208201905092915050565b7f5375627472616374696f6e20726573756c742063616e6e6f74206265206e65675f8201527f6174697665000000000000000000000000000000000000000000000000000000602082015250565b5f61068e602583610624565b915061069982610634565b604082019050919050565b5f6020820190508181035f8301526106bb81610682565b9050919050565b5f6106cc82610494565b91506106d783610494565b92508282039050818111156106ef576106ee6105b6565b5b92915050565b5f6106ff82610494565b915061070a83610494565b9250828201905080821115610722576107216105b6565b5b92915050565b7f4e487b71000000000000000000000000000000000000000000000000000000005f52601260045260245ffd5b5f61075f82610494565b915061076a83610494565b92508261077a57610779610728565b5b828204905092915050565b7f4d6f64756c6f206279207a65726f0000000000000000000000000000000000005f82015250565b5f6107b9600e83610624565b91506107c482610785565b602082019050919050565b5f6020820190508181035f8301526107e6816107ad565b9050919050565b5f6107f782610494565b915061080283610494565b92508261081257610811610728565b5b828206905092915050565b5f61082782610558565b91507f80000000000000000000000000000000000000000000000000000000000000008203610859576108586105b6565b5b815f039050919050565b7f4469766973696f6e206279207a65726f000000000000000000000000000000005f82015250565b5f610897601083610624565b91506108a282610863565b602082019050919050565b5f6020820190508181035f8301526108c48161088b565b905091905056fea2646970667358221220fba530fe0cdd7cbb6a280281ac1d8c741e2501c81e78d6208f8e6235a88d70da64736f6c634300081a0033",
					"opcodes": "PUSH1 0x80 PUSH1 0x40 MSTORE CALLVALUE DUP1 ISZERO PUSH1 0xE JUMPI PUSH0 DUP1 REVERT JUMPDEST POP PUSH2 0x901 DUP1 PUSH2 0x1C PUSH0 CODECOPY PUSH0 RETURN INVALID PUSH1 0x80 PUSH1 0x40 MSTORE CALLVALUE DUP1 ISZERO PUSH2 0xF JUMPI PUSH0 DUP1 REVERT JUMPDEST POP PUSH1 0x4 CALLDATASIZE LT PUSH2 0x86 JUMPI PUSH0 CALLDATALOAD PUSH1 0xE0 SHR DUP1 PUSH4 0x7B019F89 GT PUSH2 0x59 JUMPI DUP1 PUSH4 0x7B019F89 EQ PUSH2 0x14A JUMPI DUP1 PUSH4 0xBAAF073D EQ PUSH2 0x17A JUMPI DUP1 PUSH4 0xE149E7B0 EQ PUSH2 0x1AA JUMPI DUP1 PUSH4 0xF88E9FBF EQ PUSH2 0x1DA JUMPI PUSH2 0x86 JUMP JUMPDEST DUP1 PUSH4 0x165C4A16 EQ PUSH2 0x8A JUMPI DUP1 PUSH4 0x3EF5E445 EQ PUSH2 0xBA JUMPI DUP1 PUSH4 0x72931904 EQ PUSH2 0xEA JUMPI DUP1 PUSH4 0x771602F7 EQ PUSH2 0x11A JUMPI JUMPDEST PUSH0 DUP1 REVERT JUMPDEST PUSH2 0xA4 PUSH1 0x4 DUP1 CALLDATASIZE SUB DUP2 ADD SWAP1 PUSH2 0x9F SWAP2 SWAP1 PUSH2 0x4C7 JUMP JUMPDEST PUSH2 0x20A JUMP JUMPDEST PUSH1 0x40 MLOAD PUSH2 0xB1 SWAP2 SWAP1 PUSH2 0x514 JUMP JUMPDEST PUSH1 0x40 MLOAD DUP1 SWAP2 SUB SWAP1 RETURN JUMPDEST PUSH2 0xD4 PUSH1 0x4 DUP1 CALLDATASIZE SUB DUP2 ADD SWAP1 PUSH2 0xCF SWAP2 SWAP1 PUSH2 0x4C7 JUMP JUMPDEST PUSH2 0x21D JUMP JUMPDEST PUSH1 0x40 MLOAD PUSH2 0xE1 SWAP2 SWAP1 PUSH2 0x514 JUMP JUMPDEST PUSH1 0x40 MLOAD DUP1 SWAP2 SUB SWAP1 RETURN JUMPDEST PUSH2 0x104 PUSH1 0x4 DUP1 CALLDATASIZE SUB DUP2 ADD SWAP1 PUSH2 0xFF SWAP2 SWAP1 PUSH2 0x4C7 JUMP JUMPDEST PUSH2 0x230 JUMP JUMPDEST PUSH1 0x40 MLOAD PUSH2 0x111 SWAP2 SWAP1 PUSH2 0x514 JUMP JUMPDEST PUSH1 0x40 MLOAD DUP1 SWAP2 SUB SWAP1 RETURN JUMPDEST PUSH2 0x134 PUSH1 0x4 DUP1 CALLDATASIZE SUB DUP2 ADD SWAP1 PUSH2 0x12F SWAP2 SWAP1 PUSH2 0x4C7 JUMP JUMPDEST PUSH2 0x243 JUMP JUMPDEST PUSH1 0x40 MLOAD PUSH2 0x141 SWAP2 SWAP1 PUSH2 0x514 JUMP JUMPDEST PUSH1 0x40 MLOAD DUP1 SWAP2 SUB SWAP1 RETURN JUMPDEST PUSH2 0x164 PUSH1 0x4 DUP1 CALLDATASIZE SUB DUP2 ADD SWAP1 PUSH2 0x15F SWAP2 SWAP1 PUSH2 0x52D JUMP JUMPDEST PUSH2 0x256 JUMP JUMPDEST PUSH1 0x40 MLOAD PUSH2 0x171 SWAP2 SWAP1 PUSH2 0x514 JUMP JUMPDEST PUSH1 0x40 MLOAD DUP1 SWAP2 SUB SWAP1 RETURN JUMPDEST PUSH2 0x194 PUSH1 0x4 DUP1 CALLDATASIZE SUB DUP2 ADD SWAP1 PUSH2 0x18F SWAP2 SWAP1 PUSH2 0x4C7 JUMP JUMPDEST PUSH2 0x267 JUMP JUMPDEST PUSH1 0x40 MLOAD PUSH2 0x1A1 SWAP2 SWAP1 PUSH2 0x514 JUMP JUMPDEST PUSH1 0x40 MLOAD DUP1 SWAP2 SUB SWAP1 RETURN JUMPDEST PUSH2 0x1C4 PUSH1 0x4 DUP1 CALLDATASIZE SUB DUP2 ADD SWAP1 PUSH2 0x1BF SWAP2 SWAP1 PUSH2 0x58B JUMP JUMPDEST PUSH2 0x27A JUMP JUMPDEST PUSH1 0x40 MLOAD PUSH2 0x1D1 SWAP2 SWAP1 PUSH2 0x514 JUMP JUMPDEST PUSH1 0x40 MLOAD DUP1 SWAP2 SUB SWAP1 RETURN JUMPDEST PUSH2 0x1F4 PUSH1 0x4 DUP1 CALLDATASIZE SUB DUP2 ADD SWAP1 PUSH2 0x1EF SWAP2 SWAP1 PUSH2 0x4C7 JUMP JUMPDEST PUSH2 0x28B JUMP JUMPDEST PUSH1 0x40 MLOAD PUSH2 0x201 SWAP2 SWAP1 PUSH2 0x514 JUMP JUMPDEST PUSH1 0x40 MLOAD DUP1 SWAP2 SUB SWAP1 RETURN JUMPDEST PUSH0 PUSH2 0x215 DUP4 DUP4 PUSH2 0x29E JUMP JUMPDEST SWAP1 POP SWAP3 SWAP2 POP POP JUMP JUMPDEST PUSH0 PUSH2 0x228 DUP4 DUP4 PUSH2 0x2B3 JUMP JUMPDEST SWAP1 POP SWAP3 SWAP2 POP POP JUMP JUMPDEST PUSH0 PUSH2 0x23B DUP4 DUP4 PUSH2 0x30B JUMP JUMPDEST SWAP1 POP SWAP3 SWAP2 POP POP JUMP JUMPDEST PUSH0 PUSH2 0x24E DUP4 DUP4 PUSH2 0x33C JUMP JUMPDEST SWAP1 POP SWAP3 SWAP2 POP POP JUMP JUMPDEST PUSH0 PUSH2 0x260 DUP3 PUSH2 0x351 JUMP JUMPDEST SWAP1 POP SWAP2 SWAP1 POP JUMP JUMPDEST PUSH0 PUSH2 0x272 DUP4 DUP4 PUSH2 0x3C2 JUMP JUMPDEST SWAP1 POP SWAP3 SWAP2 POP POP JUMP JUMPDEST PUSH0 PUSH2 0x284 DUP3 PUSH2 0x419 JUMP JUMPDEST SWAP1 POP SWAP2 SWAP1 POP JUMP JUMPDEST PUSH0 PUSH2 0x296 DUP4 DUP4 PUSH2 0x439 JUMP JUMPDEST SWAP1 POP SWAP3 SWAP2 POP POP JUMP JUMPDEST PUSH0 DUP2 DUP4 PUSH2 0x2AB SWAP2 SWAP1 PUSH2 0x5E3 JUMP JUMPDEST SWAP1 POP SWAP3 SWAP2 POP POP JUMP JUMPDEST PUSH0 DUP2 DUP4 LT ISZERO PUSH2 0x2F7 JUMPI PUSH1 0x40 MLOAD PUSH32 0x8C379A000000000000000000000000000000000000000000000000000000000 DUP2 MSTORE PUSH1 0x4 ADD PUSH2 0x2EE SWAP1 PUSH2 0x6A4 JUMP JUMPDEST PUSH1 0x40 MLOAD DUP1 SWAP2 SUB SWAP1 REVERT JUMPDEST DUP2 DUP4 PUSH2 0x303 SWAP2 SWAP1 PUSH2 0x6C2 JUMP JUMPDEST SWAP1 POP SWAP3 SWAP2 POP POP JUMP JUMPDEST PUSH0 PUSH1 0x1 SWAP1 POP PUSH0 JUMPDEST DUP3 DUP2 LT ISZERO PUSH2 0x335 JUMPI DUP4 DUP3 PUSH2 0x326 SWAP2 SWAP1 PUSH2 0x5E3 JUMP JUMPDEST SWAP2 POP DUP1 DUP1 PUSH1 0x1 ADD SWAP2 POP POP PUSH2 0x312 JUMP JUMPDEST POP SWAP3 SWAP2 POP POP JUMP JUMPDEST PUSH0 DUP2 DUP4 PUSH2 0x349 SWAP2 SWAP1 PUSH2 0x6F5 JUMP JUMPDEST SWAP1 POP SWAP3 SWAP2 POP POP JUMP JUMPDEST PUSH0 DUP1 DUP3 SUB PUSH2 0x361 JUMPI PUSH0 SWAP1 POP PUSH2 0x3BD JUMP JUMPDEST PUSH0 PUSH1 0x2 PUSH1 0x1 DUP5 PUSH2 0x371 SWAP2 SWAP1 PUSH2 0x6F5 JUMP JUMPDEST PUSH2 0x37B SWAP2 SWAP1 PUSH2 0x755 JUMP JUMPDEST SWAP1 POP PUSH0 DUP4 SWAP1 POP JUMPDEST DUP1 DUP3 LT ISZERO PUSH2 0x3B7 JUMPI DUP2 SWAP1 POP PUSH1 0x2 DUP3 DUP4 DUP7 PUSH2 0x39C SWAP2 SWAP1 PUSH2 0x755 JUMP JUMPDEST PUSH2 0x3A6 SWAP2 SWAP1 PUSH2 0x6F5 JUMP JUMPDEST PUSH2 0x3B0 SWAP2 SWAP1 PUSH2 0x755 JUMP JUMPDEST SWAP2 POP PUSH2 0x382 JUMP JUMPDEST DUP1 SWAP3 POP POP POP JUMPDEST SWAP2 SWAP1 POP JUMP JUMPDEST PUSH0 DUP1 DUP3 SUB PUSH2 0x405 JUMPI PUSH1 0x40 MLOAD PUSH32 0x8C379A000000000000000000000000000000000000000000000000000000000 DUP2 MSTORE PUSH1 0x4 ADD PUSH2 0x3FC SWAP1 PUSH2 0x7CF JUMP JUMPDEST PUSH1 0x40 MLOAD DUP1 SWAP2 SUB SWAP1 REVERT JUMPDEST DUP2 DUP4 PUSH2 0x411 SWAP2 SWAP1 PUSH2 0x7ED JUMP JUMPDEST SWAP1 POP SWAP3 SWAP2 POP POP JUMP JUMPDEST PUSH0 DUP1 DUP3 SLT PUSH2 0x427 JUMPI DUP2 PUSH2 0x432 JUMP JUMPDEST DUP2 PUSH2 0x431 SWAP1 PUSH2 0x81D JUMP JUMPDEST JUMPDEST SWAP1 POP SWAP2 SWAP1 POP JUMP JUMPDEST PUSH0 DUP1 DUP3 SUB PUSH2 0x47C JUMPI PUSH1 0x40 MLOAD PUSH32 0x8C379A000000000000000000000000000000000000000000000000000000000 DUP2 MSTORE PUSH1 0x4 ADD PUSH2 0x473 SWAP1 PUSH2 0x8AD JUMP JUMPDEST PUSH1 0x40 MLOAD DUP1 SWAP2 SUB SWAP1 REVERT JUMPDEST DUP2 DUP4 PUSH2 0x488 SWAP2 SWAP1 PUSH2 0x755 JUMP JUMPDEST SWAP1 POP SWAP3 SWAP2 POP POP JUMP JUMPDEST PUSH0 DUP1 REVERT JUMPDEST PUSH0 DUP2 SWAP1 POP SWAP2 SWAP1 POP JUMP JUMPDEST PUSH2 0x4A6 DUP2 PUSH2 0x494 JUMP JUMPDEST DUP2 EQ PUSH2 0x4B0 JUMPI PUSH0 DUP1 REVERT JUMPDEST POP JUMP JUMPDEST PUSH0 DUP2 CALLDATALOAD SWAP1 POP PUSH2 0x4C1 DUP2 PUSH2 0x49D JUMP JUMPDEST SWAP3 SWAP2 POP POP JUMP JUMPDEST PUSH0 DUP1 PUSH1 0x40 DUP4 DUP6 SUB SLT ISZERO PUSH2 0x4DD JUMPI PUSH2 0x4DC PUSH2 0x490 JUMP JUMPDEST JUMPDEST PUSH0 PUSH2 0x4EA DUP6 DUP3 DUP7 ADD PUSH2 0x4B3 JUMP JUMPDEST SWAP3 POP POP PUSH1 0x20 PUSH2 0x4FB DUP6 DUP3 DUP7 ADD PUSH2 0x4B3 JUMP JUMPDEST SWAP2 POP POP SWAP3 POP SWAP3 SWAP1 POP JUMP JUMPDEST PUSH2 0x50E DUP2 PUSH2 0x494 JUMP JUMPDEST DUP3 MSTORE POP POP JUMP JUMPDEST PUSH0 PUSH1 0x20 DUP3 ADD SWAP1 POP PUSH2 0x527 PUSH0 DUP4 ADD DUP5 PUSH2 0x505 JUMP JUMPDEST SWAP3 SWAP2 POP POP JUMP JUMPDEST PUSH0 PUSH1 0x20 DUP3 DUP5 SUB SLT ISZERO PUSH2 0x542 JUMPI PUSH2 0x541 PUSH2 0x490 JUMP JUMPDEST JUMPDEST PUSH0 PUSH2 0x54F DUP5 DUP3 DUP6 ADD PUSH2 0x4B3 JUMP JUMPDEST SWAP2 POP POP SWAP3 SWAP2 POP POP JUMP JUMPDEST PUSH0 DUP2 SWAP1 POP SWAP2 SWAP1 POP JUMP JUMPDEST PUSH2 0x56A DUP2 PUSH2 0x558 JUMP JUMPDEST DUP2 EQ PUSH2 0x574 JUMPI PUSH0 DUP1 REVERT JUMPDEST POP JUMP JUMPDEST PUSH0 DUP2 CALLDATALOAD SWAP1 POP PUSH2 0x585 DUP2 PUSH2 0x561 JUMP JUMPDEST SWAP3 SWAP2 POP POP JUMP JUMPDEST PUSH0 PUSH1 0x20 DUP3 DUP5 SUB SLT ISZERO PUSH2 0x5A0 JUMPI PUSH2 0x59F PUSH2 0x490 JUMP JUMPDEST JUMPDEST PUSH0 PUSH2 0x5AD DUP5 DUP3 DUP6 ADD PUSH2 0x577 JUMP JUMPDEST SWAP2 POP POP SWAP3 SWAP2 POP POP JUMP JUMPDEST PUSH32 0x4E487B7100000000000000000000000000000000000000000000000000000000 PUSH0 MSTORE PUSH1 0x11 PUSH1 0x4 MSTORE PUSH1 0x24 PUSH0 REVERT JUMPDEST PUSH0 PUSH2 0x5ED DUP3 PUSH2 0x494 JUMP JUMPDEST SWAP2 POP PUSH2 0x5F8 DUP4 PUSH2 0x494 JUMP JUMPDEST SWAP3 POP DUP3 DUP3 MUL PUSH2 0x606 DUP2 PUSH2 0x494 JUMP JUMPDEST SWAP2 POP DUP3 DUP3 DIV DUP5 EQ DUP4 ISZERO OR PUSH2 0x61D JUMPI PUSH2 0x61C PUSH2 0x5B6 JUMP JUMPDEST JUMPDEST POP SWAP3 SWAP2 POP POP JUMP JUMPDEST PUSH0 DUP3 DUP3 MSTORE PUSH1 0x20 DUP3 ADD SWAP1 POP SWAP3 SWAP2 POP POP JUMP JUMPDEST PUSH32 0x5375627472616374696F6E20726573756C742063616E6E6F74206265206E6567 PUSH0 DUP3 ADD MSTORE PUSH32 0x6174697665000000000000000000000000000000000000000000000000000000 PUSH1 0x20 DUP3 ADD MSTORE POP JUMP JUMPDEST PUSH0 PUSH2 0x68E PUSH1 0x25 DUP4 PUSH2 0x624 JUMP JUMPDEST SWAP2 POP PUSH2 0x699 DUP3 PUSH2 0x634 JUMP JUMPDEST PUSH1 0x40 DUP3 ADD SWAP1 POP SWAP2 SWAP1 POP JUMP JUMPDEST PUSH0 PUSH1 0x20 DUP3 ADD SWAP1 POP DUP2 DUP2 SUB PUSH0 DUP4 ADD MSTORE PUSH2 0x6BB DUP2 PUSH2 0x682 JUMP JUMPDEST SWAP1 POP SWAP2 SWAP1 POP JUMP JUMPDEST PUSH0 PUSH2 0x6CC DUP3 PUSH2 0x494 JUMP JUMPDEST SWAP2 POP PUSH2 0x6D7 DUP4 PUSH2 0x494 JUMP JUMPDEST SWAP3 POP DUP3 DUP3 SUB SWAP1 POP DUP2 DUP2 GT ISZERO PUSH2 0x6EF JUMPI PUSH2 0x6EE PUSH2 0x5B6 JUMP JUMPDEST JUMPDEST SWAP3 SWAP2 POP POP JUMP JUMPDEST PUSH0 PUSH2 0x6FF DUP3 PUSH2 0x494 JUMP JUMPDEST SWAP2 POP PUSH2 0x70A DUP4 PUSH2 0x494 JUMP JUMPDEST SWAP3 POP DUP3 DUP3 ADD SWAP1 POP DUP1 DUP3 GT ISZERO PUSH2 0x722 JUMPI PUSH2 0x721 PUSH2 0x5B6 JUMP JUMPDEST JUMPDEST SWAP3 SWAP2 POP POP JUMP JUMPDEST PUSH32 0x4E487B7100000000000000000000000000000000000000000000000000000000 PUSH0 MSTORE PUSH1 0x12 PUSH1 0x4 MSTORE PUSH1 0x24 PUSH0 REVERT JUMPDEST PUSH0 PUSH2 0x75F DUP3 PUSH2 0x494 JUMP JUMPDEST SWAP2 POP PUSH2 0x76A DUP4 PUSH2 0x494 JUMP JUMPDEST SWAP3 POP DUP3 PUSH2 0x77A JUMPI PUSH2 0x779 PUSH2 0x728 JUMP JUMPDEST JUMPDEST DUP3 DUP3 DIV SWAP1 POP SWAP3 SWAP2 POP POP JUMP JUMPDEST PUSH32 0x4D6F64756C6F206279207A65726F000000000000000000000000000000000000 PUSH0 DUP3 ADD MSTORE POP JUMP JUMPDEST PUSH0 PUSH2 0x7B9 PUSH1 0xE DUP4 PUSH2 0x624 JUMP JUMPDEST SWAP2 POP PUSH2 0x7C4 DUP3 PUSH2 0x785 JUMP JUMPDEST PUSH1 0x20 DUP3 ADD SWAP1 POP SWAP2 SWAP1 POP JUMP JUMPDEST PUSH0 PUSH1 0x20 DUP3 ADD SWAP1 POP DUP2 DUP2 SUB PUSH0 DUP4 ADD MSTORE PUSH2 0x7E6 DUP2 PUSH2 0x7AD JUMP JUMPDEST SWAP1 POP SWAP2 SWAP1 POP JUMP JUMPDEST PUSH0 PUSH2 0x7F7 DUP3 PUSH2 0x494 JUMP JUMPDEST SWAP2 POP PUSH2 0x802 DUP4 PUSH2 0x494 JUMP JUMPDEST SWAP3 POP DUP3 PUSH2 0x812 JUMPI PUSH2 0x811 PUSH2 0x728 JUMP JUMPDEST JUMPDEST DUP3 DUP3 MOD SWAP1 POP SWAP3 SWAP2 POP POP JUMP JUMPDEST PUSH0 PUSH2 0x827 DUP3 PUSH2 0x558 JUMP JUMPDEST SWAP2 POP PUSH32 0x8000000000000000000000000000000000000000000000000000000000000000 DUP3 SUB PUSH2 0x859 JUMPI PUSH2 0x858 PUSH2 0x5B6 JUMP JUMPDEST JUMPDEST DUP2 PUSH0 SUB SWAP1 POP SWAP2 SWAP1 POP JUMP JUMPDEST PUSH32 0x4469766973696F6E206279207A65726F00000000000000000000000000000000 PUSH0 DUP3 ADD MSTORE POP JUMP JUMPDEST PUSH0 PUSH2 0x897 PUSH1 0x10 DUP4 PUSH2 0x624 JUMP JUMPDEST SWAP2 POP PUSH2 0x8A2 DUP3 PUSH2 0x863 JUMP JUMPDEST PUSH1 0x20 DUP3 ADD SWAP1 POP SWAP2 SWAP1 POP JUMP JUMPDEST PUSH0 PUSH1 0x20 DUP3 ADD SWAP1 POP DUP2 DUP2 SUB PUSH0 DUP4 ADD MSTORE PUSH2 0x8C4 DUP2 PUSH2 0x88B JUMP JUMPDEST SWAP1 POP SWAP2 SWAP1 POP JUMP INVALID LOG2 PUSH5 0x6970667358 0x22 SLT KECCAK256 0xFB 0xA5 ADDRESS INVALID 0xC 0xDD PUSH29 0xBB6A280281AC1D8C741E2501C81E78D6208F8E6235A88D70DA64736F6C PUSH4 0x4300081A STOP CALLER "
				},
				"gasEstimates": {
					"creation": {
						"codeDepositCost": "461000",
						"executionCost": "497",
						"totalCost": "461497"
					},
					"external": {
						"absoluteValue(int256)": "infinite",
						"add(uint256,uint256)": "infinite",
						"divide(uint256,uint256)": "infinite",
						"exponentiate(uint256,uint256)": "infinite",
						"modulo(uint256,uint256)": "infinite",
						"multiply(uint256,uint256)": "infinite",
						"squareRoot(uint256)": "infinite",
						"subtract(uint256,uint256)": "infinite"
					}
				},
				"methodIdentifiers": {
					"absoluteValue(int256)": "e149e7b0",
					"add(uint256,uint256)": "771602f7",
					"divide(uint256,uint256)": "f88e9fbf",
					"exponentiate(uint256,uint256)": "72931904",
					"modulo(uint256,uint256)": "baaf073d",
					"multiply(uint256,uint256)": "165c4a16",
					"squareRoot(uint256)": "7b019f89",
					"subtract(uint256,uint256)": "3ef5e445"
				}
			},
			"storageLayout": {
				"storage": [],
				"types": null
			},
			"userdoc": {
				"kind": "user",
				"methods": {},
				"version": 1
			}
		}
	}
}