{
	"Day07/Maths1.sol": {
		"Maths1": {
			"abi": [
				{
					"inputs": [
						{
							"internalType": "uint256",
							"name": "num",
							"type": "uint256"
						}
					],
					"name": "checkArmstrong",
					"outputs": [
						{
							"internalType": "bool",
							"name": "",
							"type": "bool"
						}
					],
					"stateMutability": "pure",
					"type": "function"
				},
				{
					"inputs": [
						{
							"internalType": "uint256",
							"name": "x",
							"type": "uint256"
						}
					],
					"name": "factorial",
					"outputs": [
						{
							"internalType": "uint256",
							"name": "",
							"type": "uint256"
						}
					],
					"stateMutability": "pure",
					"type": "function"
				},
				{
					"inputs": [
						{
							"internalType": "uint256",
							"name": "n",
							"type": "uint256"
						}
					],
					"name": "fibonacci",
					"outputs": [
						{
							"internalType": "uint256",
							"name": "b",
							"type": "uint256"
						}
					],
					"stateMutability": "pure",
					"type": "function"
				},
				{
					"inputs": [
						{
							"internalType": "uint256",
							"name": "x",
							"type": "uint256"
						},
						{
							"internalType": "uint256",
							"name": "y",
							"type": "uint256"
						}
					],
					"name": "maximumOFTwo",
					"outputs": [
						{
							"internalType": "uint256",
							"name": "",
							"type": "uint256"
						}
					],
					"stateMutability": "pure",
					"type": "function"
				},
				{
					"inputs": [
						{
							"internalType": "uint256",
							"name": "x",
							"type": "uint256"
						},
						{
							"internalType": "uint256",
							"name": "y",
							"type": "uint256"
						}
					],
					"name": "minimumOFTwo",
					"outputs": [
						{
							"internalType": "uint256",
							"name": "",
							"type": "uint256"
						}
					],
					"stateMutability": "pure",
					"type": "function"
				}
			],
			"devdoc": {
				"kind": "dev",
				"methods": {},
				"version": 1
			},
			"evm": {
				"assembly": "    /* \"Day07/Maths1.sol\":71:1303  library Maths1{... */\n  dataSize(sub_0)\n  dataOffset(sub_0)\n  0x0b\n  dup3\n  dup3\n  dup3\n  codecopy\n  dup1\n  mload\n  0x00\n  byte\n  0x73\n  eq\n  tag_1\n  jumpi\n  mstore(0x00, 0x4e487b7100000000000000000000000000000000000000000000000000000000)\n  mstore(0x04, 0x00)\n  revert(0x00, 0x24)\ntag_1:\n  mstore(0x00, address)\n  0x73\n  dup2\n  mstore8\n  dup3\n  dup2\n  return\nstop\n\nsub_0: assembly {\n        /* \"Day07/Maths1.sol\":71:1303  library Maths1{... */\n      eq(address, deployTimeAddress())\n      mstore(0x40, 0x80)\n      jumpi(tag_1, lt(calldatasize, 0x04))\n      shr(0xe0, calldataload(0x00))\n      dup1\n      0x61047ff4\n      eq\n      tag_2\n      jumpi\n      dup1\n      0x65bc678e\n      eq\n      tag_3\n      jumpi\n      dup1\n      0x794cd88f\n      eq\n      tag_4\n      jumpi\n      dup1\n      0x83714834\n      eq\n      tag_5\n      jumpi\n      dup1\n      0xb6e12936\n      eq\n      tag_6\n      jumpi\n    tag_1:\n      0x00\n      dup1\n      revert\n        /* \"Day07/Maths1.sol\":522:822  function fibonacci(uint n) public pure returns(uint b) { ... */\n    tag_2:\n      tag_7\n      0x04\n      dup1\n      calldatasize\n      sub\n      dup2\n      add\n      swap1\n      tag_8\n      swap2\n      swap1\n      tag_9\n      jump\t// in\n    tag_8:\n      tag_10\n      jump\t// in\n    tag_7:\n      mload(0x40)\n      tag_11\n      swap2\n      swap1\n      tag_12\n      jump\t// in\n    tag_11:\n      mload(0x40)\n      dup1\n      swap2\n      sub\n      swap1\n      return\n        /* \"Day07/Maths1.sol\":209:320  function minimumOFTwo(uint256 x, uint256 y) public pure returns(uint256){... */\n    tag_3:\n      tag_13\n      0x04\n      dup1\n      calldatasize\n      sub\n      dup2\n      add\n      swap1\n      tag_14\n      swap2\n      swap1\n      tag_15\n      jump\t// in\n    tag_14:\n      tag_16\n      jump\t// in\n    tag_13:\n      mload(0x40)\n      tag_17\n      swap2\n      swap1\n      tag_12\n      jump\t// in\n    tag_17:\n      mload(0x40)\n      dup1\n      swap2\n      sub\n      swap1\n      return\n        /* \"Day07/Maths1.sol\":92:203  function maximumOFTwo(uint256 x, uint256 y) public pure returns(uint256){... */\n    tag_4:\n      tag_18\n      0x04\n      dup1\n      calldatasize\n      sub\n      dup2\n      add\n      swap1\n      tag_19\n      swap2\n      swap1\n      tag_15\n      jump\t// in\n    tag_19:\n      tag_20\n      jump\t// in\n    tag_18:\n      mload(0x40)\n      tag_21\n      swap2\n      swap1\n      tag_12\n      jump\t// in\n    tag_21:\n      mload(0x40)\n      dup1\n      swap2\n      sub\n      swap1\n      return\n        /* \"Day07/Maths1.sol\":326:516  function factorial(uint256 x) public pure returns(uint256){... */\n    tag_5:\n      tag_22\n      0x04\n      dup1\n      calldatasize\n      sub\n      dup2\n      add\n      swap1\n      tag_23\n      swap2\n      swap1\n      tag_9\n      jump\t// in\n    tag_23:\n      tag_24\n      jump\t// in\n    tag_22:\n      mload(0x40)\n      tag_25\n      swap2\n      swap1\n      tag_12\n      jump\t// in\n    tag_25:\n      mload(0x40)\n      dup1\n      swap2\n      sub\n      swap1\n      return\n        /* \"Day07/Maths1.sol\":828:1300  function checkArmstrong(uint256 num) public pure returns (bool) {... */\n    tag_6:\n      tag_26\n      0x04\n      dup1\n      calldatasize\n      sub\n      dup2\n      add\n      swap1\n      tag_27\n      swap2\n      swap1\n      tag_9\n      jump\t// in\n    tag_27:\n      tag_28\n      jump\t// in\n    tag_26:\n      mload(0x40)\n      tag_29\n      swap2\n      swap1\n      tag_30\n      jump\t// in\n    tag_29:\n      mload(0x40)\n      dup1\n      swap2\n      sub\n      swap1\n      return\n        /* \"Day07/Maths1.sol\":522:822  function fibonacci(uint n) public pure returns(uint b) { ... */\n    tag_10:\n        /* \"Day07/Maths1.sol\":569:575  uint b */\n      0x00\n        /* \"Day07/Maths1.sol\":598:599  0 */\n      dup1\n        /* \"Day07/Maths1.sol\":593:594  n */\n      dup3\n        /* \"Day07/Maths1.sol\":593:599  n == 0 */\n      sub\n        /* \"Day07/Maths1.sol\":589:639  if (n == 0) {... */\n      tag_32\n      jumpi\n        /* \"Day07/Maths1.sol\":623:624  0 */\n      0x00\n        /* \"Day07/Maths1.sol\":616:624  return 0 */\n      swap1\n      pop\n      jump(tag_31)\n        /* \"Day07/Maths1.sol\":589:639  if (n == 0) {... */\n    tag_32:\n        /* \"Day07/Maths1.sol\":649:655  uint a */\n      0x00\n        /* \"Day07/Maths1.sol\":658:659  1 */\n      0x01\n        /* \"Day07/Maths1.sol\":649:659  uint a = 1 */\n      swap1\n      pop\n        /* \"Day07/Maths1.sol\":674:675  1 */\n      0x01\n        /* \"Day07/Maths1.sol\":670:675  b = 1 */\n      swap2\n      pop\n        /* \"Day07/Maths1.sol\":691:697  uint i */\n      0x00\n        /* \"Day07/Maths1.sol\":700:701  2 */\n      0x02\n        /* \"Day07/Maths1.sol\":691:701  uint i = 2 */\n      swap1\n      pop\n        /* \"Day07/Maths1.sol\":686:796  for (uint i = 2; i < n; i++) {... */\n    tag_33:\n        /* \"Day07/Maths1.sol\":707:708  n */\n      dup4\n        /* \"Day07/Maths1.sol\":703:704  i */\n      dup2\n        /* \"Day07/Maths1.sol\":703:708  i < n */\n      lt\n        /* \"Day07/Maths1.sol\":686:796  for (uint i = 2; i < n; i++) {... */\n      iszero\n      tag_34\n      jumpi\n        /* \"Day07/Maths1.sol\":730:736  uint c */\n      0x00\n        /* \"Day07/Maths1.sol\":743:744  b */\n      dup4\n        /* \"Day07/Maths1.sol\":739:740  a */\n      dup4\n        /* \"Day07/Maths1.sol\":739:744  a + b */\n      tag_36\n      swap2\n      swap1\n      tag_37\n      jump\t// in\n    tag_36:\n        /* \"Day07/Maths1.sol\":730:744  uint c = a + b */\n      swap1\n      pop\n        /* \"Day07/Maths1.sol\":763:764  b */\n      dup4\n        /* \"Day07/Maths1.sol\":759:764  a = b */\n      swap3\n      pop\n        /* \"Day07/Maths1.sol\":783:784  c */\n      dup1\n        /* \"Day07/Maths1.sol\":779:784  b = c */\n      swap4\n      pop\n        /* \"Day07/Maths1.sol\":715:796  {... */\n      pop\n        /* \"Day07/Maths1.sol\":710:713  i++ */\n      dup1\n      dup1\n      0x01\n      add\n      swap2\n      pop\n      pop\n        /* \"Day07/Maths1.sol\":686:796  for (uint i = 2; i < n; i++) {... */\n      jump(tag_33)\n    tag_34:\n      pop\n        /* \"Day07/Maths1.sol\":806:814  return b */\n      pop\n        /* \"Day07/Maths1.sol\":522:822  function fibonacci(uint n) public pure returns(uint b) { ... */\n    tag_31:\n      swap2\n      swap1\n      pop\n      jump\t// out\n        /* \"Day07/Maths1.sol\":209:320  function minimumOFTwo(uint256 x, uint256 y) public pure returns(uint256){... */\n    tag_16:\n        /* \"Day07/Maths1.sol\":273:280  uint256 */\n      0x00\n        /* \"Day07/Maths1.sol\":303:304  y */\n      dup2\n        /* \"Day07/Maths1.sol\":299:300  x */\n      dup4\n        /* \"Day07/Maths1.sol\":299:304  x < y */\n      lt\n        /* \"Day07/Maths1.sol\":299:312  x < y ? x : y */\n      tag_39\n      jumpi\n        /* \"Day07/Maths1.sol\":311:312  y */\n      dup2\n        /* \"Day07/Maths1.sol\":299:312  x < y ? x : y */\n      jump(tag_40)\n    tag_39:\n        /* \"Day07/Maths1.sol\":307:308  x */\n      dup3\n        /* \"Day07/Maths1.sol\":299:312  x < y ? x : y */\n    tag_40:\n        /* \"Day07/Maths1.sol\":292:312  return x < y ? x : y */\n      swap1\n      pop\n        /* \"Day07/Maths1.sol\":209:320  function minimumOFTwo(uint256 x, uint256 y) public pure returns(uint256){... */\n      swap3\n      swap2\n      pop\n      pop\n      jump\t// out\n        /* \"Day07/Maths1.sol\":92:203  function maximumOFTwo(uint256 x, uint256 y) public pure returns(uint256){... */\n    tag_20:\n        /* \"Day07/Maths1.sol\":156:163  uint256 */\n      0x00\n        /* \"Day07/Maths1.sol\":186:187  y */\n      dup2\n        /* \"Day07/Maths1.sol\":182:183  x */\n      dup4\n        /* \"Day07/Maths1.sol\":182:187  x > y */\n      gt\n        /* \"Day07/Maths1.sol\":182:195  x > y ? x : y */\n      tag_42\n      jumpi\n        /* \"Day07/Maths1.sol\":194:195  y */\n      dup2\n        /* \"Day07/Maths1.sol\":182:195  x > y ? x : y */\n      jump(tag_43)\n    tag_42:\n        /* \"Day07/Maths1.sol\":190:191  x */\n      dup3\n        /* \"Day07/Maths1.sol\":182:195  x > y ? x : y */\n    tag_43:\n        /* \"Day07/Maths1.sol\":175:195  return x > y ? x : y */\n      swap1\n      pop\n        /* \"Day07/Maths1.sol\":92:203  function maximumOFTwo(uint256 x, uint256 y) public pure returns(uint256){... */\n      swap3\n      swap2\n      pop\n      pop\n      jump\t// out\n        /* \"Day07/Maths1.sol\":326:516  function factorial(uint256 x) public pure returns(uint256){... */\n    tag_24:\n        /* \"Day07/Maths1.sol\":376:383  uint256 */\n      0x00\n        /* \"Day07/Maths1.sol\":404:405  0 */\n      dup1\n        /* \"Day07/Maths1.sol\":399:400  x */\n      dup3\n        /* \"Day07/Maths1.sol\":399:405  x == 0 */\n      eq\n        /* \"Day07/Maths1.sol\":399:415  x == 0 || x == 1 */\n      dup1\n      tag_45\n      jumpi\n      pop\n        /* \"Day07/Maths1.sol\":414:415  1 */\n      0x01\n        /* \"Day07/Maths1.sol\":409:410  x */\n      dup3\n        /* \"Day07/Maths1.sol\":409:415  x == 1 */\n      eq\n        /* \"Day07/Maths1.sol\":399:415  x == 0 || x == 1 */\n    tag_45:\n        /* \"Day07/Maths1.sol\":395:509  if (x == 0 || x == 1){... */\n      iszero\n      tag_46\n      jumpi\n        /* \"Day07/Maths1.sol\":438:439  1 */\n      0x01\n        /* \"Day07/Maths1.sol\":431:439  return 1 */\n      swap1\n      pop\n      jump(tag_44)\n        /* \"Day07/Maths1.sol\":395:509  if (x == 0 || x == 1){... */\n    tag_46:\n        /* \"Day07/Maths1.sol\":481:497  factorial(x - 1) */\n      tag_48\n        /* \"Day07/Maths1.sol\":495:496  1 */\n      0x01\n        /* \"Day07/Maths1.sol\":491:492  x */\n      dup4\n        /* \"Day07/Maths1.sol\":491:496  x - 1 */\n      tag_49\n      swap2\n      swap1\n      tag_50\n      jump\t// in\n    tag_49:\n        /* \"Day07/Maths1.sol\":481:490  factorial */\n      tag_24\n        /* \"Day07/Maths1.sol\":481:497  factorial(x - 1) */\n      jump\t// in\n    tag_48:\n        /* \"Day07/Maths1.sol\":477:478  x */\n      dup3\n        /* \"Day07/Maths1.sol\":477:497  x * factorial(x - 1) */\n      tag_51\n      swap2\n      swap1\n      tag_52\n      jump\t// in\n    tag_51:\n        /* \"Day07/Maths1.sol\":470:497  return x * factorial(x - 1) */\n      swap1\n      pop\n        /* \"Day07/Maths1.sol\":326:516  function factorial(uint256 x) public pure returns(uint256){... */\n    tag_44:\n      swap2\n      swap1\n      pop\n      jump\t// out\n        /* \"Day07/Maths1.sol\":828:1300  function checkArmstrong(uint256 num) public pure returns (bool) {... */\n    tag_28:\n        /* \"Day07/Maths1.sol\":886:890  bool */\n      0x00\n        /* \"Day07/Maths1.sol\":903:922  uint256 originalNum */\n      dup1\n        /* \"Day07/Maths1.sol\":925:928  num */\n      dup3\n        /* \"Day07/Maths1.sol\":903:928  uint256 originalNum = num */\n      swap1\n      pop\n        /* \"Day07/Maths1.sol\":939:950  uint256 sum */\n      0x00\n        /* \"Day07/Maths1.sol\":965:979  uint256 digits */\n      dup1\n        /* \"Day07/Maths1.sol\":994:1070  while (num != 0) {... */\n    tag_54:\n        /* \"Day07/Maths1.sol\":1008:1009  0 */\n      0x00\n        /* \"Day07/Maths1.sol\":1001:1004  num */\n      dup6\n        /* \"Day07/Maths1.sol\":1001:1009  num != 0 */\n      eq\n        /* \"Day07/Maths1.sol\":994:1070  while (num != 0) {... */\n      tag_55\n      jumpi\n        /* \"Day07/Maths1.sol\":1026:1034  digits++ */\n      dup1\n      dup1\n      tag_56\n      swap1\n      tag_57\n      jump\t// in\n    tag_56:\n      swap2\n      pop\n      pop\n        /* \"Day07/Maths1.sol\":1056:1058  10 */\n      0x0a\n        /* \"Day07/Maths1.sol\":1049:1058  num /= 10 */\n      dup6\n      tag_58\n      swap2\n      swap1\n      tag_59\n      jump\t// in\n    tag_58:\n      swap5\n      pop\n        /* \"Day07/Maths1.sol\":994:1070  while (num != 0) {... */\n      jump(tag_54)\n    tag_55:\n        /* \"Day07/Maths1.sol\":1096:1107  originalNum */\n      dup3\n        /* \"Day07/Maths1.sol\":1090:1107  num = originalNum */\n      swap5\n      pop\n        /* \"Day07/Maths1.sol\":1118:1247  while (num != 0) {... */\n    tag_60:\n        /* \"Day07/Maths1.sol\":1132:1133  0 */\n      0x00\n        /* \"Day07/Maths1.sol\":1125:1128  num */\n      dup6\n        /* \"Day07/Maths1.sol\":1125:1133  num != 0 */\n      eq\n        /* \"Day07/Maths1.sol\":1118:1247  while (num != 0) {... */\n      tag_61\n      jumpi\n        /* \"Day07/Maths1.sol\":1150:1163  uint256 digit */\n      0x00\n        /* \"Day07/Maths1.sol\":1172:1174  10 */\n      0x0a\n        /* \"Day07/Maths1.sol\":1166:1169  num */\n      dup7\n        /* \"Day07/Maths1.sol\":1166:1174  num % 10 */\n      tag_62\n      swap2\n      swap1\n      tag_63\n      jump\t// in\n    tag_62:\n        /* \"Day07/Maths1.sol\":1150:1174  uint256 digit = num % 10 */\n      swap1\n      pop\n        /* \"Day07/Maths1.sol\":1205:1211  digits */\n      dup2\n        /* \"Day07/Maths1.sol\":1196:1201  digit */\n      dup2\n        /* \"Day07/Maths1.sol\":1196:1211  digit ** digits */\n      tag_64\n      swap2\n      swap1\n      tag_65\n      jump\t// in\n    tag_64:\n        /* \"Day07/Maths1.sol\":1189:1211  sum += digit ** digits */\n      dup4\n      tag_66\n      swap2\n      swap1\n      tag_37\n      jump\t// in\n    tag_66:\n      swap3\n      pop\n        /* \"Day07/Maths1.sol\":1233:1235  10 */\n      0x0a\n        /* \"Day07/Maths1.sol\":1226:1235  num /= 10 */\n      dup7\n      tag_67\n      swap2\n      swap1\n      tag_59\n      jump\t// in\n    tag_67:\n      swap6\n      pop\n        /* \"Day07/Maths1.sol\":1135:1247  {... */\n      pop\n        /* \"Day07/Maths1.sol\":1118:1247  while (num != 0) {... */\n      jump(tag_60)\n    tag_61:\n        /* \"Day07/Maths1.sol\":1281:1292  originalNum */\n      dup3\n        /* \"Day07/Maths1.sol\":1274:1277  sum */\n      dup3\n        /* \"Day07/Maths1.sol\":1274:1292  sum == originalNum */\n      eq\n        /* \"Day07/Maths1.sol\":1267:1292  return sum == originalNum */\n      swap4\n      pop\n      pop\n      pop\n      pop\n        /* \"Day07/Maths1.sol\":828:1300  function checkArmstrong(uint256 num) public pure returns (bool) {... */\n      swap2\n      swap1\n      pop\n      jump\t// out\n        /* \"#utility.yul\":88:205   */\n    tag_69:\n        /* \"#utility.yul\":197:198   */\n      0x00\n        /* \"#utility.yul\":194:195   */\n      dup1\n        /* \"#utility.yul\":187:199   */\n      revert\n        /* \"#utility.yul\":334:411   */\n    tag_71:\n        /* \"#utility.yul\":371:378   */\n      0x00\n        /* \"#utility.yul\":400:405   */\n      dup2\n        /* \"#utility.yul\":389:405   */\n      swap1\n      pop\n        /* \"#utility.yul\":334:411   */\n      swap2\n      swap1\n      pop\n      jump\t// out\n        /* \"#utility.yul\":417:539   */\n    tag_72:\n        /* \"#utility.yul\":490:514   */\n      tag_88\n        /* \"#utility.yul\":508:513   */\n      dup2\n        /* \"#utility.yul\":490:514   */\n      tag_71\n      jump\t// in\n    tag_88:\n        /* \"#utility.yul\":483:488   */\n      dup2\n        /* \"#utility.yul\":480:515   */\n      eq\n        /* \"#utility.yul\":470:533   */\n      tag_89\n      jumpi\n        /* \"#utility.yul\":529:530   */\n      0x00\n        /* \"#utility.yul\":526:527   */\n      dup1\n        /* \"#utility.yul\":519:531   */\n      revert\n        /* \"#utility.yul\":470:533   */\n    tag_89:\n        /* \"#utility.yul\":417:539   */\n      pop\n      jump\t// out\n        /* \"#utility.yul\":545:684   */\n    tag_73:\n        /* \"#utility.yul\":591:596   */\n      0x00\n        /* \"#utility.yul\":629:635   */\n      dup2\n        /* \"#utility.yul\":616:636   */\n      calldataload\n        /* \"#utility.yul\":607:636   */\n      swap1\n      pop\n        /* \"#utility.yul\":645:678   */\n      tag_91\n        /* \"#utility.yul\":672:677   */\n      dup2\n        /* \"#utility.yul\":645:678   */\n      tag_72\n      jump\t// in\n    tag_91:\n        /* \"#utility.yul\":545:684   */\n      swap3\n      swap2\n      pop\n      pop\n      jump\t// out\n        /* \"#utility.yul\":690:1019   */\n    tag_9:\n        /* \"#utility.yul\":749:755   */\n      0x00\n        /* \"#utility.yul\":798:800   */\n      0x20\n        /* \"#utility.yul\":786:795   */\n      dup3\n        /* \"#utility.yul\":777:784   */\n      dup5\n        /* \"#utility.yul\":773:796   */\n      sub\n        /* \"#utility.yul\":769:801   */\n      slt\n        /* \"#utility.yul\":766:885   */\n      iszero\n      tag_93\n      jumpi\n        /* \"#utility.yul\":804:883   */\n      tag_94\n      tag_69\n      jump\t// in\n    tag_94:\n        /* \"#utility.yul\":766:885   */\n    tag_93:\n        /* \"#utility.yul\":924:925   */\n      0x00\n        /* \"#utility.yul\":949:1002   */\n      tag_95\n        /* \"#utility.yul\":994:1001   */\n      dup5\n        /* \"#utility.yul\":985:991   */\n      dup3\n        /* \"#utility.yul\":974:983   */\n      dup6\n        /* \"#utility.yul\":970:992   */\n      add\n        /* \"#utility.yul\":949:1002   */\n      tag_73\n      jump\t// in\n    tag_95:\n        /* \"#utility.yul\":939:1002   */\n      swap2\n      pop\n        /* \"#utility.yul\":895:1012   */\n      pop\n        /* \"#utility.yul\":690:1019   */\n      swap3\n      swap2\n      pop\n      pop\n      jump\t// out\n        /* \"#utility.yul\":1025:1151   */\n    tag_74:\n        /* \"#utility.yul\":1120:1144   */\n      tag_97\n        /* \"#utility.yul\":1138:1143   */\n      dup2\n        /* \"#utility.yul\":1120:1144   */\n      tag_71\n      jump\t// in\n    tag_97:\n        /* \"#utility.yul\":1115:1118   */\n      dup3\n        /* \"#utility.yul\":1108:1145   */\n      mstore\n        /* \"#utility.yul\":1025:1151   */\n      pop\n      pop\n      jump\t// out\n        /* \"#utility.yul\":1157:1395   */\n    tag_12:\n        /* \"#utility.yul\":1258:1262   */\n      0x00\n        /* \"#utility.yul\":1296:1298   */\n      0x20\n        /* \"#utility.yul\":1285:1294   */\n      dup3\n        /* \"#utility.yul\":1281:1299   */\n      add\n        /* \"#utility.yul\":1273:1299   */\n      swap1\n      pop\n        /* \"#utility.yul\":1309:1388   */\n      tag_99\n        /* \"#utility.yul\":1385:1386   */\n      0x00\n        /* \"#utility.yul\":1374:1383   */\n      dup4\n        /* \"#utility.yul\":1370:1387   */\n      add\n        /* \"#utility.yul\":1361:1367   */\n      dup5\n        /* \"#utility.yul\":1309:1388   */\n      tag_74\n      jump\t// in\n    tag_99:\n        /* \"#utility.yul\":1157:1395   */\n      swap3\n      swap2\n      pop\n      pop\n      jump\t// out\n        /* \"#utility.yul\":1401:1875   */\n    tag_15:\n        /* \"#utility.yul\":1469:1475   */\n      0x00\n        /* \"#utility.yul\":1477:1483   */\n      dup1\n        /* \"#utility.yul\":1526:1528   */\n      0x40\n        /* \"#utility.yul\":1514:1523   */\n      dup4\n        /* \"#utility.yul\":1505:1512   */\n      dup6\n        /* \"#utility.yul\":1501:1524   */\n      sub\n        /* \"#utility.yul\":1497:1529   */\n      slt\n        /* \"#utility.yul\":1494:1613   */\n      iszero\n      tag_101\n      jumpi\n        /* \"#utility.yul\":1532:1611   */\n      tag_102\n      tag_69\n      jump\t// in\n    tag_102:\n        /* \"#utility.yul\":1494:1613   */\n    tag_101:\n        /* \"#utility.yul\":1652:1653   */\n      0x00\n        /* \"#utility.yul\":1677:1730   */\n      tag_103\n        /* \"#utility.yul\":1722:1729   */\n      dup6\n        /* \"#utility.yul\":1713:1719   */\n      dup3\n        /* \"#utility.yul\":1702:1711   */\n      dup7\n        /* \"#utility.yul\":1698:1720   */\n      add\n        /* \"#utility.yul\":1677:1730   */\n      tag_73\n      jump\t// in\n    tag_103:\n        /* \"#utility.yul\":1667:1730   */\n      swap3\n      pop\n        /* \"#utility.yul\":1623:1740   */\n      pop\n        /* \"#utility.yul\":1779:1781   */\n      0x20\n        /* \"#utility.yul\":1805:1858   */\n      tag_104\n        /* \"#utility.yul\":1850:1857   */\n      dup6\n        /* \"#utility.yul\":1841:1847   */\n      dup3\n        /* \"#utility.yul\":1830:1839   */\n      dup7\n        /* \"#utility.yul\":1826:1848   */\n      add\n        /* \"#utility.yul\":1805:1858   */\n      tag_73\n      jump\t// in\n    tag_104:\n        /* \"#utility.yul\":1795:1858   */\n      swap2\n      pop\n        /* \"#utility.yul\":1750:1868   */\n      pop\n        /* \"#utility.yul\":1401:1875   */\n      swap3\n      pop\n      swap3\n      swap1\n      pop\n      jump\t// out\n        /* \"#utility.yul\":1881:1971   */\n    tag_75:\n        /* \"#utility.yul\":1915:1922   */\n      0x00\n        /* \"#utility.yul\":1958:1963   */\n      dup2\n        /* \"#utility.yul\":1951:1964   */\n      iszero\n        /* \"#utility.yul\":1944:1965   */\n      iszero\n        /* \"#utility.yul\":1933:1965   */\n      swap1\n      pop\n        /* \"#utility.yul\":1881:1971   */\n      swap2\n      swap1\n      pop\n      jump\t// out\n        /* \"#utility.yul\":1977:2094   */\n    tag_76:\n        /* \"#utility.yul\":2066:2087   */\n      tag_107\n        /* \"#utility.yul\":2081:2086   */\n      dup2\n        /* \"#utility.yul\":2066:2087   */\n      tag_75\n      jump\t// in\n    tag_107:\n        /* \"#utility.yul\":2061:2064   */\n      dup3\n        /* \"#utility.yul\":2054:2088   */\n      mstore\n        /* \"#utility.yul\":1977:2094   */\n      pop\n      pop\n      jump\t// out\n        /* \"#utility.yul\":2100:2326   */\n    tag_30:\n        /* \"#utility.yul\":2195:2199   */\n      0x00\n        /* \"#utility.yul\":2233:2235   */\n      0x20\n        /* \"#utility.yul\":2222:2231   */\n      dup3\n        /* \"#utility.yul\":2218:2236   */\n      add\n        /* \"#utility.yul\":2210:2236   */\n      swap1\n      pop\n        /* \"#utility.yul\":2246:2319   */\n      tag_109\n        /* \"#utility.yul\":2316:2317   */\n      0x00\n        /* \"#utility.yul\":2305:2314   */\n      dup4\n        /* \"#utility.yul\":2301:2318   */\n      add\n        /* \"#utility.yul\":2292:2298   */\n      dup5\n        /* \"#utility.yul\":2246:2319   */\n      tag_76\n      jump\t// in\n    tag_109:\n        /* \"#utility.yul\":2100:2326   */\n      swap3\n      swap2\n      pop\n      pop\n      jump\t// out\n        /* \"#utility.yul\":2332:2512   */\n    tag_77:\n        /* \"#utility.yul\":2380:2457   */\n      0x4e487b7100000000000000000000000000000000000000000000000000000000\n        /* \"#utility.yul\":2377:2378   */\n      0x00\n        /* \"#utility.yul\":2370:2458   */\n      mstore\n        /* \"#utility.yul\":2477:2481   */\n      0x11\n        /* \"#utility.yul\":2474:2475   */\n      0x04\n        /* \"#utility.yul\":2467:2482   */\n      mstore\n        /* \"#utility.yul\":2501:2505   */\n      0x24\n        /* \"#utility.yul\":2498:2499   */\n      0x00\n        /* \"#utility.yul\":2491:2506   */\n      revert\n        /* \"#utility.yul\":2518:2709   */\n    tag_37:\n        /* \"#utility.yul\":2558:2561   */\n      0x00\n        /* \"#utility.yul\":2577:2597   */\n      tag_112\n        /* \"#utility.yul\":2595:2596   */\n      dup3\n        /* \"#utility.yul\":2577:2597   */\n      tag_71\n      jump\t// in\n    tag_112:\n        /* \"#utility.yul\":2572:2597   */\n      swap2\n      pop\n        /* \"#utility.yul\":2611:2631   */\n      tag_113\n        /* \"#utility.yul\":2629:2630   */\n      dup4\n        /* \"#utility.yul\":2611:2631   */\n      tag_71\n      jump\t// in\n    tag_113:\n        /* \"#utility.yul\":2606:2631   */\n      swap3\n      pop\n        /* \"#utility.yul\":2654:2655   */\n      dup3\n        /* \"#utility.yul\":2651:2652   */\n      dup3\n        /* \"#utility.yul\":2647:2656   */\n      add\n        /* \"#utility.yul\":2640:2656   */\n      swap1\n      pop\n        /* \"#utility.yul\":2675:2678   */\n      dup1\n        /* \"#utility.yul\":2672:2673   */\n      dup3\n        /* \"#utility.yul\":2669:2679   */\n      gt\n        /* \"#utility.yul\":2666:2702   */\n      iszero\n      tag_114\n      jumpi\n        /* \"#utility.yul\":2682:2700   */\n      tag_115\n      tag_77\n      jump\t// in\n    tag_115:\n        /* \"#utility.yul\":2666:2702   */\n    tag_114:\n        /* \"#utility.yul\":2518:2709   */\n      swap3\n      swap2\n      pop\n      pop\n      jump\t// out\n        /* \"#utility.yul\":2715:2909   */\n    tag_50:\n        /* \"#utility.yul\":2755:2759   */\n      0x00\n        /* \"#utility.yul\":2775:2795   */\n      tag_117\n        /* \"#utility.yul\":2793:2794   */\n      dup3\n        /* \"#utility.yul\":2775:2795   */\n      tag_71\n      jump\t// in\n    tag_117:\n        /* \"#utility.yul\":2770:2795   */\n      swap2\n      pop\n        /* \"#utility.yul\":2809:2829   */\n      tag_118\n        /* \"#utility.yul\":2827:2828   */\n      dup4\n        /* \"#utility.yul\":2809:2829   */\n      tag_71\n      jump\t// in\n    tag_118:\n        /* \"#utility.yul\":2804:2829   */\n      swap3\n      pop\n        /* \"#utility.yul\":2853:2854   */\n      dup3\n        /* \"#utility.yul\":2850:2851   */\n      dup3\n        /* \"#utility.yul\":2846:2855   */\n      sub\n        /* \"#utility.yul\":2838:2855   */\n      swap1\n      pop\n        /* \"#utility.yul\":2877:2878   */\n      dup2\n        /* \"#utility.yul\":2871:2875   */\n      dup2\n        /* \"#utility.yul\":2868:2879   */\n      gt\n        /* \"#utility.yul\":2865:2902   */\n      iszero\n      tag_119\n      jumpi\n        /* \"#utility.yul\":2882:2900   */\n      tag_120\n      tag_77\n      jump\t// in\n    tag_120:\n        /* \"#utility.yul\":2865:2902   */\n    tag_119:\n        /* \"#utility.yul\":2715:2909   */\n      swap3\n      swap2\n      pop\n      pop\n      jump\t// out\n        /* \"#utility.yul\":2915:3325   */\n    tag_52:\n        /* \"#utility.yul\":2955:2962   */\n      0x00\n        /* \"#utility.yul\":2978:2998   */\n      tag_122\n        /* \"#utility.yul\":2996:2997   */\n      dup3\n        /* \"#utility.yul\":2978:2998   */\n      tag_71\n      jump\t// in\n    tag_122:\n        /* \"#utility.yul\":2973:2998   */\n      swap2\n      pop\n        /* \"#utility.yul\":3012:3032   */\n      tag_123\n        /* \"#utility.yul\":3030:3031   */\n      dup4\n        /* \"#utility.yul\":3012:3032   */\n      tag_71\n      jump\t// in\n    tag_123:\n        /* \"#utility.yul\":3007:3032   */\n      swap3\n      pop\n        /* \"#utility.yul\":3067:3068   */\n      dup3\n        /* \"#utility.yul\":3064:3065   */\n      dup3\n        /* \"#utility.yul\":3060:3069   */\n      mul\n        /* \"#utility.yul\":3089:3119   */\n      tag_124\n        /* \"#utility.yul\":3107:3118   */\n      dup2\n        /* \"#utility.yul\":3089:3119   */\n      tag_71\n      jump\t// in\n    tag_124:\n        /* \"#utility.yul\":3078:3119   */\n      swap2\n      pop\n        /* \"#utility.yul\":3268:3269   */\n      dup3\n        /* \"#utility.yul\":3259:3266   */\n      dup3\n        /* \"#utility.yul\":3255:3270   */\n      div\n        /* \"#utility.yul\":3252:3253   */\n      dup5\n        /* \"#utility.yul\":3249:3271   */\n      eq\n        /* \"#utility.yul\":3229:3230   */\n      dup4\n        /* \"#utility.yul\":3222:3231   */\n      iszero\n        /* \"#utility.yul\":3202:3285   */\n      or\n        /* \"#utility.yul\":3179:3318   */\n      tag_125\n      jumpi\n        /* \"#utility.yul\":3298:3316   */\n      tag_126\n      tag_77\n      jump\t// in\n    tag_126:\n        /* \"#utility.yul\":3179:3318   */\n    tag_125:\n        /* \"#utility.yul\":2963:3325   */\n      pop\n        /* \"#utility.yul\":2915:3325   */\n      swap3\n      swap2\n      pop\n      pop\n      jump\t// out\n        /* \"#utility.yul\":3331:3564   */\n    tag_57:\n        /* \"#utility.yul\":3370:3373   */\n      0x00\n        /* \"#utility.yul\":3393:3417   */\n      tag_128\n        /* \"#utility.yul\":3411:3416   */\n      dup3\n        /* \"#utility.yul\":3393:3417   */\n      tag_71\n      jump\t// in\n    tag_128:\n        /* \"#utility.yul\":3384:3417   */\n      swap2\n      pop\n        /* \"#utility.yul\":3439:3505   */\n      0xffffffffffffffffffffffffffffffffffffffffffffffffffffffffffffffff\n        /* \"#utility.yul\":3432:3437   */\n      dup3\n        /* \"#utility.yul\":3429:3506   */\n      sub\n        /* \"#utility.yul\":3426:3529   */\n      tag_129\n      jumpi\n        /* \"#utility.yul\":3509:3527   */\n      tag_130\n      tag_77\n      jump\t// in\n    tag_130:\n        /* \"#utility.yul\":3426:3529   */\n    tag_129:\n        /* \"#utility.yul\":3556:3557   */\n      0x01\n        /* \"#utility.yul\":3549:3554   */\n      dup3\n        /* \"#utility.yul\":3545:3558   */\n      add\n        /* \"#utility.yul\":3538:3558   */\n      swap1\n      pop\n        /* \"#utility.yul\":3331:3564   */\n      swap2\n      swap1\n      pop\n      jump\t// out\n        /* \"#utility.yul\":3570:3750   */\n    tag_78:\n        /* \"#utility.yul\":3618:3695   */\n      0x4e487b7100000000000000000000000000000000000000000000000000000000\n        /* \"#utility.yul\":3615:3616   */\n      0x00\n        /* \"#utility.yul\":3608:3696   */\n      mstore\n        /* \"#utility.yul\":3715:3719   */\n      0x12\n        /* \"#utility.yul\":3712:3713   */\n      0x04\n        /* \"#utility.yul\":3705:3720   */\n      mstore\n        /* \"#utility.yul\":3739:3743   */\n      0x24\n        /* \"#utility.yul\":3736:3737   */\n      0x00\n        /* \"#utility.yul\":3729:3744   */\n      revert\n        /* \"#utility.yul\":3756:3941   */\n    tag_59:\n        /* \"#utility.yul\":3796:3797   */\n      0x00\n        /* \"#utility.yul\":3813:3833   */\n      tag_133\n        /* \"#utility.yul\":3831:3832   */\n      dup3\n        /* \"#utility.yul\":3813:3833   */\n      tag_71\n      jump\t// in\n    tag_133:\n        /* \"#utility.yul\":3808:3833   */\n      swap2\n      pop\n        /* \"#utility.yul\":3847:3867   */\n      tag_134\n        /* \"#utility.yul\":3865:3866   */\n      dup4\n        /* \"#utility.yul\":3847:3867   */\n      tag_71\n      jump\t// in\n    tag_134:\n        /* \"#utility.yul\":3842:3867   */\n      swap3\n      pop\n        /* \"#utility.yul\":3886:3887   */\n      dup3\n        /* \"#utility.yul\":3876:3911   */\n      tag_135\n      jumpi\n        /* \"#utility.yul\":3891:3909   */\n      tag_136\n      tag_78\n      jump\t// in\n    tag_136:\n        /* \"#utility.yul\":3876:3911   */\n    tag_135:\n        /* \"#utility.yul\":3933:3934   */\n      dup3\n        /* \"#utility.yul\":3930:3931   */\n      dup3\n        /* \"#utility.yul\":3926:3935   */\n      div\n        /* \"#utility.yul\":3921:3935   */\n      swap1\n      pop\n        /* \"#utility.yul\":3756:3941   */\n      swap3\n      swap2\n      pop\n      pop\n      jump\t// out\n        /* \"#utility.yul\":3947:4123   */\n    tag_63:\n        /* \"#utility.yul\":3979:3980   */\n      0x00\n        /* \"#utility.yul\":3996:4016   */\n      tag_138\n        /* \"#utility.yul\":4014:4015   */\n      dup3\n        /* \"#utility.yul\":3996:4016   */\n      tag_71\n      jump\t// in\n    tag_138:\n        /* \"#utility.yul\":3991:4016   */\n      swap2\n      pop\n        /* \"#utility.yul\":4030:4050   */\n      tag_139\n        /* \"#utility.yul\":4048:4049   */\n      dup4\n        /* \"#utility.yul\":4030:4050   */\n      tag_71\n      jump\t// in\n    tag_139:\n        /* \"#utility.yul\":4025:4050   */\n      swap3\n      pop\n        /* \"#utility.yul\":4069:4070   */\n      dup3\n        /* \"#utility.yul\":4059:4094   */\n      tag_140\n      jumpi\n        /* \"#utility.yul\":4074:4092   */\n      tag_141\n      tag_78\n      jump\t// in\n    tag_141:\n        /* \"#utility.yul\":4059:4094   */\n    tag_140:\n        /* \"#utility.yul\":4115:4116   */\n      dup3\n        /* \"#utility.yul\":4112:4113   */\n      dup3\n        /* \"#utility.yul\":4108:4117   */\n      mod\n        /* \"#utility.yul\":4103:4117   */\n      swap1\n      pop\n        /* \"#utility.yul\":3947:4123   */\n      swap3\n      swap2\n      pop\n      pop\n      jump\t// out\n        /* \"#utility.yul\":4129:4231   */\n    tag_79:\n        /* \"#utility.yul\":4171:4179   */\n      0x00\n        /* \"#utility.yul\":4218:4223   */\n      dup2\n        /* \"#utility.yul\":4215:4216   */\n      0x01\n        /* \"#utility.yul\":4211:4224   */\n      shr\n        /* \"#utility.yul\":4190:4224   */\n      swap1\n      pop\n        /* \"#utility.yul\":4129:4231   */\n      swap2\n      swap1\n      pop\n      jump\t// out\n        /* \"#utility.yul\":4237:5085   */\n    tag_80:\n        /* \"#utility.yul\":4298:4303   */\n      0x00\n        /* \"#utility.yul\":4305:4309   */\n      dup1\n        /* \"#utility.yul\":4329:4335   */\n      dup3\n        /* \"#utility.yul\":4320:4335   */\n      swap2\n      pop\n        /* \"#utility.yul\":4353:4358   */\n      dup4\n        /* \"#utility.yul\":4344:4358   */\n      swap1\n      pop\n        /* \"#utility.yul\":4367:5079   */\n    tag_144:\n        /* \"#utility.yul\":4388:4389   */\n      0x01\n        /* \"#utility.yul\":4378:4386   */\n      dup6\n        /* \"#utility.yul\":4375:4390   */\n      gt\n        /* \"#utility.yul\":4367:5079   */\n      iszero\n      tag_146\n      jumpi\n        /* \"#utility.yul\":4483:4487   */\n      dup1\n        /* \"#utility.yul\":4478:4481   */\n      dup7\n        /* \"#utility.yul\":4474:4488   */\n      div\n        /* \"#utility.yul\":4468:4472   */\n      dup2\n        /* \"#utility.yul\":4465:4489   */\n      gt\n        /* \"#utility.yul\":4462:4512   */\n      iszero\n      tag_147\n      jumpi\n        /* \"#utility.yul\":4492:4510   */\n      tag_148\n      tag_77\n      jump\t// in\n    tag_148:\n        /* \"#utility.yul\":4462:4512   */\n    tag_147:\n        /* \"#utility.yul\":4542:4543   */\n      0x01\n        /* \"#utility.yul\":4532:4540   */\n      dup6\n        /* \"#utility.yul\":4528:4544   */\n      and\n        /* \"#utility.yul\":4525:4976   */\n      iszero\n      tag_149\n      jumpi\n        /* \"#utility.yul\":4957:4961   */\n      dup1\n        /* \"#utility.yul\":4950:4955   */\n      dup3\n        /* \"#utility.yul\":4946:4962   */\n      mul\n        /* \"#utility.yul\":4937:4962   */\n      swap2\n      pop\n        /* \"#utility.yul\":4525:4976   */\n    tag_149:\n        /* \"#utility.yul\":5007:5011   */\n      dup1\n        /* \"#utility.yul\":5001:5005   */\n      dup2\n        /* \"#utility.yul\":4997:5012   */\n      mul\n        /* \"#utility.yul\":4989:5012   */\n      swap1\n      pop\n        /* \"#utility.yul\":5037:5069   */\n      tag_150\n        /* \"#utility.yul\":5060:5068   */\n      dup6\n        /* \"#utility.yul\":5037:5069   */\n      tag_79\n      jump\t// in\n    tag_150:\n        /* \"#utility.yul\":5025:5069   */\n      swap5\n      pop\n        /* \"#utility.yul\":4367:5079   */\n      jump(tag_144)\n    tag_146:\n        /* \"#utility.yul\":4237:5085   */\n      swap5\n      pop\n      swap5\n      swap3\n      pop\n      pop\n      pop\n      jump\t// out\n        /* \"#utility.yul\":5091:6164   */\n    tag_81:\n        /* \"#utility.yul\":5145:5150   */\n      0x00\n        /* \"#utility.yul\":5336:5344   */\n      dup3\n        /* \"#utility.yul\":5326:5366   */\n      tag_152\n      jumpi\n        /* \"#utility.yul\":5357:5358   */\n      0x01\n        /* \"#utility.yul\":5348:5358   */\n      swap1\n      pop\n        /* \"#utility.yul\":5359:5364   */\n      jump(tag_151)\n        /* \"#utility.yul\":5326:5366   */\n    tag_152:\n        /* \"#utility.yul\":5385:5389   */\n      dup2\n        /* \"#utility.yul\":5375:5411   */\n      tag_153\n      jumpi\n        /* \"#utility.yul\":5402:5403   */\n      0x00\n        /* \"#utility.yul\":5393:5403   */\n      swap1\n      pop\n        /* \"#utility.yul\":5404:5409   */\n      jump(tag_151)\n        /* \"#utility.yul\":5375:5411   */\n    tag_153:\n        /* \"#utility.yul\":5471:5475   */\n      dup2\n        /* \"#utility.yul\":5519:5520   */\n      0x01\n        /* \"#utility.yul\":5514:5541   */\n      dup2\n      eq\n      tag_155\n      jumpi\n        /* \"#utility.yul\":5555:5556   */\n      0x02\n        /* \"#utility.yul\":5550:5741   */\n      dup2\n      eq\n      tag_156\n      jumpi\n        /* \"#utility.yul\":5464:5741   */\n      jump(tag_154)\n        /* \"#utility.yul\":5514:5541   */\n    tag_155:\n        /* \"#utility.yul\":5532:5533   */\n      0x01\n        /* \"#utility.yul\":5523:5533   */\n      swap2\n      pop\n        /* \"#utility.yul\":5534:5539   */\n      pop\n      jump(tag_151)\n        /* \"#utility.yul\":5550:5741   */\n    tag_156:\n        /* \"#utility.yul\":5595:5598   */\n      0xff\n        /* \"#utility.yul\":5585:5593   */\n      dup5\n        /* \"#utility.yul\":5582:5599   */\n      gt\n        /* \"#utility.yul\":5579:5622   */\n      iszero\n      tag_157\n      jumpi\n        /* \"#utility.yul\":5602:5620   */\n      tag_158\n      tag_77\n      jump\t// in\n    tag_158:\n        /* \"#utility.yul\":5579:5622   */\n    tag_157:\n        /* \"#utility.yul\":5651:5659   */\n      dup4\n        /* \"#utility.yul\":5648:5649   */\n      0x02\n        /* \"#utility.yul\":5644:5660   */\n      exp\n        /* \"#utility.yul\":5635:5660   */\n      swap2\n      pop\n        /* \"#utility.yul\":5686:5689   */\n      dup5\n        /* \"#utility.yul\":5679:5684   */\n      dup3\n        /* \"#utility.yul\":5676:5690   */\n      gt\n        /* \"#utility.yul\":5673:5713   */\n      iszero\n      tag_159\n      jumpi\n        /* \"#utility.yul\":5693:5711   */\n      tag_160\n      tag_77\n      jump\t// in\n    tag_160:\n        /* \"#utility.yul\":5673:5713   */\n    tag_159:\n        /* \"#utility.yul\":5726:5731   */\n      pop\n      jump(tag_151)\n        /* \"#utility.yul\":5464:5741   */\n    tag_154:\n      pop\n        /* \"#utility.yul\":5850:5852   */\n      0x20\n        /* \"#utility.yul\":5840:5848   */\n      dup4\n        /* \"#utility.yul\":5837:5853   */\n      lt\n        /* \"#utility.yul\":5831:5834   */\n      0x0133\n        /* \"#utility.yul\":5825:5829   */\n      dup4\n        /* \"#utility.yul\":5822:5835   */\n      lt\n        /* \"#utility.yul\":5818:5854   */\n      and\n        /* \"#utility.yul\":5800:5802   */\n      0x4e\n        /* \"#utility.yul\":5790:5798   */\n      dup5\n        /* \"#utility.yul\":5787:5803   */\n      lt\n        /* \"#utility.yul\":5782:5784   */\n      0x0b\n        /* \"#utility.yul\":5776:5780   */\n      dup5\n        /* \"#utility.yul\":5773:5785   */\n      lt\n        /* \"#utility.yul\":5769:5804   */\n      and\n        /* \"#utility.yul\":5753:5864   */\n      or\n        /* \"#utility.yul\":5750:5996   */\n      iszero\n      tag_161\n      jumpi\n        /* \"#utility.yul\":5906:5914   */\n      dup3\n        /* \"#utility.yul\":5900:5904   */\n      dup3\n        /* \"#utility.yul\":5896:5915   */\n      exp\n        /* \"#utility.yul\":5887:5915   */\n      swap1\n      pop\n        /* \"#utility.yul\":5941:5944   */\n      dup4\n        /* \"#utility.yul\":5934:5939   */\n      dup2\n        /* \"#utility.yul\":5931:5945   */\n      gt\n        /* \"#utility.yul\":5928:5968   */\n      iszero\n      tag_162\n      jumpi\n        /* \"#utility.yul\":5948:5966   */\n      tag_163\n      tag_77\n      jump\t// in\n    tag_163:\n        /* \"#utility.yul\":5928:5968   */\n    tag_162:\n        /* \"#utility.yul\":5981:5986   */\n      jump(tag_151)\n        /* \"#utility.yul\":5750:5996   */\n    tag_161:\n        /* \"#utility.yul\":6021:6063   */\n      tag_164\n        /* \"#utility.yul\":6059:6062   */\n      dup5\n        /* \"#utility.yul\":6049:6057   */\n      dup5\n        /* \"#utility.yul\":6043:6047   */\n      dup5\n        /* \"#utility.yul\":6040:6041   */\n      0x01\n        /* \"#utility.yul\":6021:6063   */\n      tag_80\n      jump\t// in\n    tag_164:\n        /* \"#utility.yul\":6006:6063   */\n      swap3\n      pop\n      swap1\n      pop\n        /* \"#utility.yul\":6095:6099   */\n      dup2\n        /* \"#utility.yul\":6090:6093   */\n      dup5\n        /* \"#utility.yul\":6086:6100   */\n      div\n        /* \"#utility.yul\":6079:6084   */\n      dup2\n        /* \"#utility.yul\":6076:6101   */\n      gt\n        /* \"#utility.yul\":6073:6124   */\n      iszero\n      tag_165\n      jumpi\n        /* \"#utility.yul\":6104:6122   */\n      tag_166\n      tag_77\n      jump\t// in\n    tag_166:\n        /* \"#utility.yul\":6073:6124   */\n    tag_165:\n        /* \"#utility.yul\":6153:6157   */\n      dup2\n        /* \"#utility.yul\":6146:6151   */\n      dup2\n        /* \"#utility.yul\":6142:6158   */\n      mul\n        /* \"#utility.yul\":6133:6158   */\n      swap1\n      pop\n        /* \"#utility.yul\":5091:6164   */\n    tag_151:\n      swap4\n      swap3\n      pop\n      pop\n      pop\n      jump\t// out\n        /* \"#utility.yul\":6170:6455   */\n    tag_65:\n        /* \"#utility.yul\":6230:6235   */\n      0x00\n        /* \"#utility.yul\":6254:6277   */\n      tag_168\n        /* \"#utility.yul\":6272:6276   */\n      dup3\n        /* \"#utility.yul\":6254:6277   */\n      tag_71\n      jump\t// in\n    tag_168:\n        /* \"#utility.yul\":6246:6277   */\n      swap2\n      pop\n        /* \"#utility.yul\":6298:6325   */\n      tag_169\n        /* \"#utility.yul\":6316:6324   */\n      dup4\n        /* \"#utility.yul\":6298:6325   */\n      tag_71\n      jump\t// in\n    tag_169:\n        /* \"#utility.yul\":6286:6325   */\n      swap3\n      pop\n        /* \"#utility.yul\":6344:6448   */\n      tag_170\n        /* \"#utility.yul\":6381:6447   */\n      0xffffffffffffffffffffffffffffffffffffffffffffffffffffffffffffffff\n        /* \"#utility.yul\":6371:6379   */\n      dup5\n        /* \"#utility.yul\":6365:6369   */\n      dup5\n        /* \"#utility.yul\":6344:6448   */\n      tag_81\n      jump\t// in\n    tag_170:\n        /* \"#utility.yul\":6335:6448   */\n      swap1\n      pop\n        /* \"#utility.yul\":6170:6455   */\n      swap3\n      swap2\n      pop\n      pop\n      jump\t// out\n\n    auxdata: 0xa2646970667358221220b658b99fa98f6a5cd52c8264455cb3b3a5c3f3098c5495975cc85343e13528ca64736f6c634300081a0033\n}\n",
				"bytecode": {
					"linkReferences": {},
					"object": "6106f461004d600b8282823980515f1a6073146041577f4e487b71000000000000000000000000000000000000000000000000000000005f525f60045260245ffd5b305f52607381538281f3fe7300000000000000000000000000000000000000003014608060405260043610610060575f3560e01c806361047ff41461006457806365bc678e14610094578063794cd88f146100c457806383714834146100f4578063b6e1293614610124575b5f80fd5b61007e600480360381019061007991906102d9565b610154565b60405161008b9190610313565b60405180910390f35b6100ae60048036038101906100a9919061032c565b6101a6565b6040516100bb9190610313565b60405180910390f35b6100de60048036038101906100d9919061032c565b6101be565b6040516100eb9190610313565b60405180910390f35b61010e600480360381019061010991906102d9565b6101d6565b60405161011b9190610313565b60405180910390f35b61013e600480360381019061013991906102d9565b61021b565b60405161014b9190610384565b60405180910390f35b5f808203610164575f90506101a1565b5f60019050600191505f600290505b8381101561019e575f838361018891906103ca565b9050839250809350508080600101915050610173565b50505b919050565b5f8183106101b457816101b6565b825b905092915050565b5f8183116101cc57816101ce565b825b905092915050565b5f808214806101e55750600182145b156101f35760019050610216565b61020860018361020391906103fd565b6101d6565b826102139190610430565b90505b919050565b5f808290505f805b5f851461024c57808061023590610471565b915050600a8561024591906104e5565b9450610223565b8294505b5f8514610295575f600a866102659190610515565b905081816102739190610674565b8361027e91906103ca565b9250600a8661028d91906104e5565b955050610250565b8282149350505050919050565b5f80fd5b5f819050919050565b6102b8816102a6565b81146102c2575f80fd5b50565b5f813590506102d3816102af565b92915050565b5f602082840312156102ee576102ed6102a2565b5b5f6102fb848285016102c5565b91505092915050565b61030d816102a6565b82525050565b5f6020820190506103265f830184610304565b92915050565b5f8060408385031215610342576103416102a2565b5b5f61034f858286016102c5565b9250506020610360858286016102c5565b9150509250929050565b5f8115159050919050565b61037e8161036a565b82525050565b5f6020820190506103975f830184610375565b92915050565b7f4e487b71000000000000000000000000000000000000000000000000000000005f52601160045260245ffd5b5f6103d4826102a6565b91506103df836102a6565b92508282019050808211156103f7576103f661039d565b5b92915050565b5f610407826102a6565b9150610412836102a6565b925082820390508181111561042a5761042961039d565b5b92915050565b5f61043a826102a6565b9150610445836102a6565b9250828202610453816102a6565b9150828204841483151761046a5761046961039d565b5b5092915050565b5f61047b826102a6565b91507fffffffffffffffffffffffffffffffffffffffffffffffffffffffffffffffff82036104ad576104ac61039d565b5b600182019050919050565b7f4e487b71000000000000000000000000000000000000000000000000000000005f52601260045260245ffd5b5f6104ef826102a6565b91506104fa836102a6565b92508261050a576105096104b8565b5b828204905092915050565b5f61051f826102a6565b915061052a836102a6565b92508261053a576105396104b8565b5b828206905092915050565b5f8160011c9050919050565b5f808291508390505b600185111561059a578086048111156105765761057561039d565b5b60018516156105855780820291505b808102905061059385610545565b945061055a565b94509492505050565b5f826105b2576001905061066d565b816105bf575f905061066d565b81600181146105d557600281146105df5761060e565b600191505061066d565b60ff8411156105f1576105f061039d565b5b8360020a9150848211156106085761060761039d565b5b5061066d565b5060208310610133831016604e8410600b84101617156106435782820a90508381111561063e5761063d61039d565b5b61066d565b6106508484846001610551565b925090508184048111156106675761066661039d565b5b81810290505b9392505050565b5f61067e826102a6565b9150610689836102a6565b92506106b67fffffffffffffffffffffffffffffffffffffffffffffffffffffffffffffffff84846105a3565b90509291505056fea2646970667358221220b658b99fa98f6a5cd52c8264455cb3b3a5c3f3098c5495975cc85343e13528ca64736f6c634300081a0033",
					"opcodes": "PUSH2 0x6F4 PUSH2 0x4D PUSH1 0xB DUP3 DUP3 DUP3 CODECOPY DUP1 MLOAD PUSH0 BYTE PUSH1 0x73 EQ PUSH1 0x41 JUMPI PUSH32 0x4E487B7100000000000000000000000000000000000000000000000000000000 PUSH0 MSTORE PUSH0 PUSH1 0x4 MSTORE PUSH1 0x24 PUSH0 REVERT JUMPDEST ADDRESS PUSH0 MSTORE PUSH1 0x73 DUP2 MSTORE8 DUP3 DUP2 RETURN INVALID PUSH20 0x0 ADDRESS EQ PUSH1 0x80 PUSH1 0x40 MSTORE PUSH1 0x4 CALLDATASIZE LT PUSH2 0x60 JUMPI PUSH0 CALLDATALOAD PUSH1 0xE0 SHR DUP1 PUSH4 0x61047FF4 EQ PUSH2 0x64 JUMPI DUP1 PUSH4 0x65BC678E EQ PUSH2 0x94 JUMPI DUP1 PUSH4 0x794CD88F EQ PUSH2 0xC4 JUMPI DUP1 PUSH4 0x83714834 EQ PUSH2 0xF4 JUMPI DUP1 PUSH4 0xB6E12936 EQ PUSH2 0x124 JUMPI JUMPDEST PUSH0 DUP1 REVERT JUMPDEST PUSH2 0x7E PUSH1 0x4 DUP1 CALLDATASIZE SUB DUP2 ADD SWAP1 PUSH2 0x79 SWAP2 SWAP1 PUSH2 0x2D9 JUMP JUMPDEST PUSH2 0x154 JUMP JUMPDEST PUSH1 0x40 MLOAD PUSH2 0x8B SWAP2 SWAP1 PUSH2 0x313 JUMP JUMPDEST PUSH1 0x40 MLOAD DUP1 SWAP2 SUB SWAP1 RETURN JUMPDEST PUSH2 0xAE PUSH1 0x4 DUP1 CALLDATASIZE SUB DUP2 ADD SWAP1 PUSH2 0xA9 SWAP2 SWAP1 PUSH2 0x32C JUMP JUMPDEST PUSH2 0x1A6 JUMP JUMPDEST PUSH1 0x40 MLOAD PUSH2 0xBB SWAP2 SWAP1 PUSH2 0x313 JUMP JUMPDEST PUSH1 0x40 MLOAD DUP1 SWAP2 SUB SWAP1 RETURN JUMPDEST PUSH2 0xDE PUSH1 0x4 DUP1 CALLDATASIZE SUB DUP2 ADD SWAP1 PUSH2 0xD9 SWAP2 SWAP1 PUSH2 0x32C JUMP JUMPDEST PUSH2 0x1BE JUMP JUMPDEST PUSH1 0x40 MLOAD PUSH2 0xEB SWAP2 SWAP1 PUSH2 0x313 JUMP JUMPDEST PUSH1 0x40 MLOAD DUP1 SWAP2 SUB SWAP1 RETURN JUMPDEST PUSH2 0x10E PUSH1 0x4 DUP1 CALLDATASIZE SUB DUP2 ADD SWAP1 PUSH2 0x109 SWAP2 SWAP1 PUSH2 0x2D9 JUMP JUMPDEST PUSH2 0x1D6 JUMP JUMPDEST PUSH1 0x40 MLOAD PUSH2 0x11B SWAP2 SWAP1 PUSH2 0x313 JUMP JUMPDEST PUSH1 0x40 MLOAD DUP1 SWAP2 SUB SWAP1 RETURN JUMPDEST PUSH2 0x13E PUSH1 0x4 DUP1 CALLDATASIZE SUB DUP2 ADD SWAP1 PUSH2 0x139 SWAP2 SWAP1 PUSH2 0x2D9 JUMP JUMPDEST PUSH2 0x21B JUMP JUMPDEST PUSH1 0x40 MLOAD PUSH2 0x14B SWAP2 SWAP1 PUSH2 0x384 JUMP JUMPDEST PUSH1 0x40 MLOAD DUP1 SWAP2 SUB SWAP1 RETURN JUMPDEST PUSH0 DUP1 DUP3 SUB PUSH2 0x164 JUMPI PUSH0 SWAP1 POP PUSH2 0x1A1 JUMP JUMPDEST PUSH0 PUSH1 0x1 SWAP1 POP PUSH1 0x1 SWAP2 POP PUSH0 PUSH1 0x2 SWAP1 POP JUMPDEST DUP4 DUP2 LT ISZERO PUSH2 0x19E JUMPI PUSH0 DUP4 DUP4 PUSH2 0x188 SWAP2 SWAP1 PUSH2 0x3CA JUMP JUMPDEST SWAP1 POP DUP4 SWAP3 POP DUP1 SWAP4 POP POP DUP1 DUP1 PUSH1 0x1 ADD SWAP2 POP POP PUSH2 0x173 JUMP JUMPDEST POP POP JUMPDEST SWAP2 SWAP1 POP JUMP JUMPDEST PUSH0 DUP2 DUP4 LT PUSH2 0x1B4 JUMPI DUP2 PUSH2 0x1B6 JUMP JUMPDEST DUP3 JUMPDEST SWAP1 POP SWAP3 SWAP2 POP POP JUMP JUMPDEST PUSH0 DUP2 DUP4 GT PUSH2 0x1CC JUMPI DUP2 PUSH2 0x1CE JUMP JUMPDEST DUP3 JUMPDEST SWAP1 POP SWAP3 SWAP2 POP POP JUMP JUMPDEST PUSH0 DUP1 DUP3 EQ DUP1 PUSH2 0x1E5 JUMPI POP PUSH1 0x1 DUP3 EQ JUMPDEST ISZERO PUSH2 0x1F3 JUMPI PUSH1 0x1 SWAP1 POP PUSH2 0x216 JUMP JUMPDEST PUSH2 0x208 PUSH1 0x1 DUP4 PUSH2 0x203 SWAP2 SWAP1 PUSH2 0x3FD JUMP JUMPDEST PUSH2 0x1D6 JUMP JUMPDEST DUP3 PUSH2 0x213 SWAP2 SWAP1 PUSH2 0x430 JUMP JUMPDEST SWAP1 POP JUMPDEST SWAP2 SWAP1 POP JUMP JUMPDEST PUSH0 DUP1 DUP3 SWAP1 POP PUSH0 DUP1 JUMPDEST PUSH0 DUP6 EQ PUSH2 0x24C JUMPI DUP1 DUP1 PUSH2 0x235 SWAP1 PUSH2 0x471 JUMP JUMPDEST SWAP2 POP POP PUSH1 0xA DUP6 PUSH2 0x245 SWAP2 SWAP1 PUSH2 0x4E5 JUMP JUMPDEST SWAP5 POP PUSH2 0x223 JUMP JUMPDEST DUP3 SWAP5 POP JUMPDEST PUSH0 DUP6 EQ PUSH2 0x295 JUMPI PUSH0 PUSH1 0xA DUP7 PUSH2 0x265 SWAP2 SWAP1 PUSH2 0x515 JUMP JUMPDEST SWAP1 POP DUP2 DUP2 PUSH2 0x273 SWAP2 SWAP1 PUSH2 0x674 JUMP JUMPDEST DUP4 PUSH2 0x27E SWAP2 SWAP1 PUSH2 0x3CA JUMP JUMPDEST SWAP3 POP PUSH1 0xA DUP7 PUSH2 0x28D SWAP2 SWAP1 PUSH2 0x4E5 JUMP JUMPDEST SWAP6 POP POP PUSH2 0x250 JUMP JUMPDEST DUP3 DUP3 EQ SWAP4 POP POP POP POP SWAP2 SWAP1 POP JUMP JUMPDEST PUSH0 DUP1 REVERT JUMPDEST PUSH0 DUP2 SWAP1 POP SWAP2 SWAP1 POP JUMP JUMPDEST PUSH2 0x2B8 DUP2 PUSH2 0x2A6 JUMP JUMPDEST DUP2 EQ PUSH2 0x2C2 JUMPI PUSH0 DUP1 REVERT JUMPDEST POP JUMP JUMPDEST PUSH0 DUP2 CALLDATALOAD SWAP1 POP PUSH2 0x2D3 DUP2 PUSH2 0x2AF JUMP JUMPDEST SWAP3 SWAP2 POP POP JUMP JUMPDEST PUSH0 PUSH1 0x20 DUP3 DUP5 SUB SLT ISZERO PUSH2 0x2EE JUMPI PUSH2 0x2ED PUSH2 0x2A2 JUMP JUMPDEST JUMPDEST PUSH0 PUSH2 0x2FB DUP5 DUP3 DUP6 ADD PUSH2 0x2C5 JUMP JUMPDEST SWAP2 POP POP SWAP3 SWAP2 POP POP JUMP JUMPDEST PUSH2 0x30D DUP2 PUSH2 0x2A6 JUMP JUMPDEST DUP3 MSTORE POP POP JUMP JUMPDEST PUSH0 PUSH1 0x20 DUP3 ADD SWAP1 POP PUSH2 0x326 PUSH0 DUP4 ADD DUP5 PUSH2 0x304 JUMP JUMPDEST SWAP3 SWAP2 POP POP JUMP JUMPDEST PUSH0 DUP1 PUSH1 0x40 DUP4 DUP6 SUB SLT ISZERO PUSH2 0x342 JUMPI PUSH2 0x341 PUSH2 0x2A2 JUMP JUMPDEST JUMPDEST PUSH0 PUSH2 0x34F DUP6 DUP3 DUP7 ADD PUSH2 0x2C5 JUMP JUMPDEST SWAP3 POP POP PUSH1 0x20 PUSH2 0x360 DUP6 DUP3 DUP7 ADD PUSH2 0x2C5 JUMP JUMPDEST SWAP2 POP POP SWAP3 POP SWAP3 SWAP1 POP JUMP JUMPDEST PUSH0 DUP2 ISZERO ISZERO SWAP1 POP SWAP2 SWAP1 POP JUMP JUMPDEST PUSH2 0x37E DUP2 PUSH2 0x36A JUMP JUMPDEST DUP3 MSTORE POP POP JUMP JUMPDEST PUSH0 PUSH1 0x20 DUP3 ADD SWAP1 POP PUSH2 0x397 PUSH0 DUP4 ADD DUP5 PUSH2 0x375 JUMP JUMPDEST SWAP3 SWAP2 POP POP JUMP JUMPDEST PUSH32 0x4E487B7100000000000000000000000000000000000000000000000000000000 PUSH0 MSTORE PUSH1 0x11 PUSH1 0x4 MSTORE PUSH1 0x24 PUSH0 REVERT JUMPDEST PUSH0 PUSH2 0x3D4 DUP3 PUSH2 0x2A6 JUMP JUMPDEST SWAP2 POP PUSH2 0x3DF DUP4 PUSH2 0x2A6 JUMP JUMPDEST SWAP3 POP DUP3 DUP3 ADD SWAP1 POP DUP1 DUP3 GT ISZERO PUSH2 0x3F7 JUMPI PUSH2 0x3F6 PUSH2 0x39D JUMP JUMPDEST JUMPDEST SWAP3 SWAP2 POP POP JUMP JUMPDEST PUSH0 PUSH2 0x407 DUP3 PUSH2 0x2A6 JUMP JUMPDEST SWAP2 POP PUSH2 0x412 DUP4 PUSH2 0x2A6 JUMP JUMPDEST SWAP3 POP DUP3 DUP3 SUB SWAP1 POP DUP2 DUP2 GT ISZERO PUSH2 0x42A JUMPI PUSH2 0x429 PUSH2 0x39D JUMP JUMPDEST JUMPDEST SWAP3 SWAP2 POP POP JUMP JUMPDEST PUSH0 PUSH2 0x43A DUP3 PUSH2 0x2A6 JUMP JUMPDEST SWAP2 POP PUSH2 0x445 DUP4 PUSH2 0x2A6 JUMP JUMPDEST SWAP3 POP DUP3 DUP3 MUL PUSH2 0x453 DUP2 PUSH2 0x2A6 JUMP JUMPDEST SWAP2 POP DUP3 DUP3 DIV DUP5 EQ DUP4 ISZERO OR PUSH2 0x46A JUMPI PUSH2 0x469 PUSH2 0x39D JUMP JUMPDEST JUMPDEST POP SWAP3 SWAP2 POP POP JUMP JUMPDEST PUSH0 PUSH2 0x47B DUP3 PUSH2 0x2A6 JUMP JUMPDEST SWAP2 POP PUSH32 0xFFFFFFFFFFFFFFFFFFFFFFFFFFFFFFFFFFFFFFFFFFFFFFFFFFFFFFFFFFFFFFFF DUP3 SUB PUSH2 0x4AD JUMPI PUSH2 0x4AC PUSH2 0x39D JUMP JUMPDEST JUMPDEST PUSH1 0x1 DUP3 ADD SWAP1 POP SWAP2 SWAP1 POP JUMP JUMPDEST PUSH32 0x4E487B7100000000000000000000000000000000000000000000000000000000 PUSH0 MSTORE PUSH1 0x12 PUSH1 0x4 MSTORE PUSH1 0x24 PUSH0 REVERT JUMPDEST PUSH0 PUSH2 0x4EF DUP3 PUSH2 0x2A6 JUMP JUMPDEST SWAP2 POP PUSH2 0x4FA DUP4 PUSH2 0x2A6 JUMP JUMPDEST SWAP3 POP DUP3 PUSH2 0x50A JUMPI PUSH2 0x509 PUSH2 0x4B8 JUMP JUMPDEST JUMPDEST DUP3 DUP3 DIV SWAP1 POP SWAP3 SWAP2 POP POP JUMP JUMPDEST PUSH0 PUSH2 0x51F DUP3 PUSH2 0x2A6 JUMP JUMPDEST SWAP2 POP PUSH2 0x52A DUP4 PUSH2 0x2A6 JUMP JUMPDEST SWAP3 POP DUP3 PUSH2 0x53A JUMPI PUSH2 0x539 PUSH2 0x4B8 JUMP JUMPDEST JUMPDEST DUP3 DUP3 MOD SWAP1 POP SWAP3 SWAP2 POP POP JUMP JUMPDEST PUSH0 DUP2 PUSH1 0x1 SHR SWAP1 POP SWAP2 SWAP1 POP JUMP JUMPDEST PUSH0 DUP1 DUP3 SWAP2 POP DUP4 SWAP1 POP JUMPDEST PUSH1 0x1 DUP6 GT ISZERO PUSH2 0x59A JUMPI DUP1 DUP7 DIV DUP2 GT ISZERO PUSH2 0x576 JUMPI PUSH2 0x575 PUSH2 0x39D JUMP JUMPDEST JUMPDEST PUSH1 0x1 DUP6 AND ISZERO PUSH2 0x585 JUMPI DUP1 DUP3 MUL SWAP2 POP JUMPDEST DUP1 DUP2 MUL SWAP1 POP PUSH2 0x593 DUP6 PUSH2 0x545 JUMP JUMPDEST SWAP5 POP PUSH2 0x55A JUMP JUMPDEST SWAP5 POP SWAP5 SWAP3 POP POP POP JUMP JUMPDEST PUSH0 DUP3 PUSH2 0x5B2 JUMPI PUSH1 0x1 SWAP1 POP PUSH2 0x66D JUMP JUMPDEST DUP2 PUSH2 0x5BF JUMPI PUSH0 SWAP1 POP PUSH2 0x66D JUMP JUMPDEST DUP2 PUSH1 0x1 DUP2 EQ PUSH2 0x5D5 JUMPI PUSH1 0x2 DUP2 EQ PUSH2 0x5DF JUMPI PUSH2 0x60E JUMP JUMPDEST PUSH1 0x1 SWAP2 POP POP PUSH2 0x66D JUMP JUMPDEST PUSH1 0xFF DUP5 GT ISZERO PUSH2 0x5F1 JUMPI PUSH2 0x5F0 PUSH2 0x39D JUMP JUMPDEST JUMPDEST DUP4 PUSH1 0x2 EXP SWAP2 POP DUP5 DUP3 GT ISZERO PUSH2 0x608 JUMPI PUSH2 0x607 PUSH2 0x39D JUMP JUMPDEST JUMPDEST POP PUSH2 0x66D JUMP JUMPDEST POP PUSH1 0x20 DUP4 LT PUSH2 0x133 DUP4 LT AND PUSH1 0x4E DUP5 LT PUSH1 0xB DUP5 LT AND OR ISZERO PUSH2 0x643 JUMPI DUP3 DUP3 EXP SWAP1 POP DUP4 DUP2 GT ISZERO PUSH2 0x63E JUMPI PUSH2 0x63D PUSH2 0x39D JUMP JUMPDEST JUMPDEST PUSH2 0x66D JUMP JUMPDEST PUSH2 0x650 DUP5 DUP5 DUP5 PUSH1 0x1 PUSH2 0x551 JUMP JUMPDEST SWAP3 POP SWAP1 POP DUP2 DUP5 DIV DUP2 GT ISZERO PUSH2 0x667 JUMPI PUSH2 0x666 PUSH2 0x39D JUMP JUMPDEST JUMPDEST DUP2 DUP2 MUL SWAP1 POP JUMPDEST SWAP4 SWAP3 POP POP POP JUMP JUMPDEST PUSH0 PUSH2 0x67E DUP3 PUSH2 0x2A6 JUMP JUMPDEST SWAP2 POP PUSH2 0x689 DUP4 PUSH2 0x2A6 JUMP JUMPDEST SWAP3 POP PUSH2 0x6B6 PUSH32 0xFFFFFFFFFFFFFFFFFFFFFFFFFFFFFFFFFFFFFFFFFFFFFFFFFFFFFFFFFFFFFFFF DUP5 DUP5 PUSH2 0x5A3 JUMP JUMPDEST SWAP1 POP SWAP3 SWAP2 POP POP JUMP INVALID LOG2 PUSH5 0x6970667358 0x22 SLT KECCAK256 0xB6 PC 0xB9 SWAP16 0xA9 DUP16 PUSH11 0x5CD52C8264455CB3B3A5C3 RETURN MULMOD DUP13 SLOAD SWAP6 SWAP8 TLOAD 0xC8 MSTORE8 NUMBER 0xE1 CALLDATALOAD 0x28 0xCA PUSH5 0x736F6C6343 STOP ADDMOD BYTE STOP CALLER "
				},
				"gasEstimates": {
					"creation": {
						"codeDepositCost": "356000",
						"executionCost": "416",
						"totalCost": "356416"
					},
					"external": {
						"checkArmstrong(uint256)": "infinite",
						"factorial(uint256)": "infinite",
						"fibonacci(uint256)": "infinite",
						"maximumOFTwo(uint256,uint256)": "infinite",
						"minimumOFTwo(uint256,uint256)": "infinite"
					}
				},
				"methodIdentifiers": {
					"checkArmstrong(uint256)": "b6e12936",
					"factorial(uint256)": "83714834",
					"fibonacci(uint256)": "61047ff4",
					"maximumOFTwo(uint256,uint256)": "794cd88f",
					"minimumOFTwo(uint256,uint256)": "65bc678e"
				}
			},
			"storageLayout": {
				"storage": [],
				"types": null
			},
			"userdoc": {
				"kind": "user",
				"methods": {},
				"version": 1
			}
		}
	}
}