{
	"ClassTest II/CTq2.sol": {
		"Cylinder": {
			"abi": [
				{
					"inputs": [
						{
							"internalType": "uint256",
							"name": "_radius",
							"type": "uint256"
						},
						{
							"internalType": "uint256",
							"name": "_height",
							"type": "uint256"
						}
					],
					"stateMutability": "nonpayable",
					"type": "constructor"
				},
				{
					"inputs": [],
					"name": "height",
					"outputs": [
						{
							"internalType": "uint256",
							"name": "",
							"type": "uint256"
						}
					],
					"stateMutability": "view",
					"type": "function"
				},
				{
					"inputs": [],
					"name": "radius",
					"outputs": [
						{
							"internalType": "uint256",
							"name": "",
							"type": "uint256"
						}
					],
					"stateMutability": "view",
					"type": "function"
				},
				{
					"inputs": [],
					"name": "surfaceArea",
					"outputs": [
						{
							"internalType": "uint256",
							"name": "",
							"type": "uint256"
						}
					],
					"stateMutability": "view",
					"type": "function"
				},
				{
					"inputs": [],
					"name": "volume",
					"outputs": [
						{
							"internalType": "uint256",
							"name": "",
							"type": "uint256"
						}
					],
					"stateMutability": "view",
					"type": "function"
				}
			],
			"devdoc": {
				"kind": "dev",
				"methods": {},
				"version": 1
			},
			"evm": {
				"assembly": "    /* \"ClassTest II/CTq2.sol\":1313:2009  contract Cylinder is ThreeDObject {... */\n  mstore(0x40, 0x80)\n    /* \"ClassTest II/CTq2.sol\":1485:1587  constructor(uint _radius, uint _height) {... */\n  callvalue\n  dup1\n  iszero\n  tag_1\n  jumpi\n  0x00\n  dup1\n  revert\ntag_1:\n  pop\n  mload(0x40)\n  sub(codesize, bytecodeSize)\n  dup1\n  bytecodeSize\n  dup4\n  codecopy\n  dup2\n  dup2\n  add\n  0x40\n  mstore\n  dup2\n  add\n  swap1\n  tag_2\n  swap2\n  swap1\n  tag_3\n  jump\t// in\ntag_2:\n    /* \"ClassTest II/CTq2.sol\":1545:1552  _radius */\n  dup2\n    /* \"ClassTest II/CTq2.sol\":1536:1542  radius */\n  0x00\n    /* \"ClassTest II/CTq2.sol\":1536:1552  radius = _radius */\n  dup2\n  swap1\n  sstore\n  pop\n    /* \"ClassTest II/CTq2.sol\":1572:1579  _height */\n  dup1\n    /* \"ClassTest II/CTq2.sol\":1563:1569  height */\n  0x01\n    /* \"ClassTest II/CTq2.sol\":1563:1579  height = _height */\n  dup2\n  swap1\n  sstore\n  pop\n    /* \"ClassTest II/CTq2.sol\":1485:1587  constructor(uint _radius, uint _height) {... */\n  pop\n  pop\n    /* \"ClassTest II/CTq2.sol\":1313:2009  contract Cylinder is ThreeDObject {... */\n  jump(tag_6)\n    /* \"#utility.yul\":88:205   */\ntag_8:\n    /* \"#utility.yul\":197:198   */\n  0x00\n    /* \"#utility.yul\":194:195   */\n  dup1\n    /* \"#utility.yul\":187:199   */\n  revert\n    /* \"#utility.yul\":334:411   */\ntag_10:\n    /* \"#utility.yul\":371:378   */\n  0x00\n    /* \"#utility.yul\":400:405   */\n  dup2\n    /* \"#utility.yul\":389:405   */\n  swap1\n  pop\n    /* \"#utility.yul\":334:411   */\n  swap2\n  swap1\n  pop\n  jump\t// out\n    /* \"#utility.yul\":417:539   */\ntag_11:\n    /* \"#utility.yul\":490:514   */\n  tag_19\n    /* \"#utility.yul\":508:513   */\n  dup2\n    /* \"#utility.yul\":490:514   */\n  tag_10\n  jump\t// in\ntag_19:\n    /* \"#utility.yul\":483:488   */\n  dup2\n    /* \"#utility.yul\":480:515   */\n  eq\n    /* \"#utility.yul\":470:533   */\n  tag_20\n  jumpi\n    /* \"#utility.yul\":529:530   */\n  0x00\n    /* \"#utility.yul\":526:527   */\n  dup1\n    /* \"#utility.yul\":519:531   */\n  revert\n    /* \"#utility.yul\":470:533   */\ntag_20:\n    /* \"#utility.yul\":417:539   */\n  pop\n  jump\t// out\n    /* \"#utility.yul\":545:688   */\ntag_12:\n    /* \"#utility.yul\":602:607   */\n  0x00\n    /* \"#utility.yul\":633:639   */\n  dup2\n    /* \"#utility.yul\":627:640   */\n  mload\n    /* \"#utility.yul\":618:640   */\n  swap1\n  pop\n    /* \"#utility.yul\":649:682   */\n  tag_22\n    /* \"#utility.yul\":676:681   */\n  dup2\n    /* \"#utility.yul\":649:682   */\n  tag_11\n  jump\t// in\ntag_22:\n    /* \"#utility.yul\":545:688   */\n  swap3\n  swap2\n  pop\n  pop\n  jump\t// out\n    /* \"#utility.yul\":694:1201   */\ntag_3:\n    /* \"#utility.yul\":773:779   */\n  0x00\n    /* \"#utility.yul\":781:787   */\n  dup1\n    /* \"#utility.yul\":830:832   */\n  0x40\n    /* \"#utility.yul\":818:827   */\n  dup4\n    /* \"#utility.yul\":809:816   */\n  dup6\n    /* \"#utility.yul\":805:828   */\n  sub\n    /* \"#utility.yul\":801:833   */\n  slt\n    /* \"#utility.yul\":798:917   */\n  iszero\n  tag_24\n  jumpi\n    /* \"#utility.yul\":836:915   */\n  tag_25\n  tag_8\n  jump\t// in\ntag_25:\n    /* \"#utility.yul\":798:917   */\ntag_24:\n    /* \"#utility.yul\":956:957   */\n  0x00\n    /* \"#utility.yul\":981:1045   */\n  tag_26\n    /* \"#utility.yul\":1037:1044   */\n  dup6\n    /* \"#utility.yul\":1028:1034   */\n  dup3\n    /* \"#utility.yul\":1017:1026   */\n  dup7\n    /* \"#utility.yul\":1013:1035   */\n  add\n    /* \"#utility.yul\":981:1045   */\n  tag_12\n  jump\t// in\ntag_26:\n    /* \"#utility.yul\":971:1045   */\n  swap3\n  pop\n    /* \"#utility.yul\":927:1055   */\n  pop\n    /* \"#utility.yul\":1094:1096   */\n  0x20\n    /* \"#utility.yul\":1120:1184   */\n  tag_27\n    /* \"#utility.yul\":1176:1183   */\n  dup6\n    /* \"#utility.yul\":1167:1173   */\n  dup3\n    /* \"#utility.yul\":1156:1165   */\n  dup7\n    /* \"#utility.yul\":1152:1174   */\n  add\n    /* \"#utility.yul\":1120:1184   */\n  tag_12\n  jump\t// in\ntag_27:\n    /* \"#utility.yul\":1110:1184   */\n  swap2\n  pop\n    /* \"#utility.yul\":1065:1194   */\n  pop\n    /* \"#utility.yul\":694:1201   */\n  swap3\n  pop\n  swap3\n  swap1\n  pop\n  jump\t// out\n    /* \"ClassTest II/CTq2.sol\":1313:2009  contract Cylinder is ThreeDObject {... */\ntag_6:\n  dataSize(sub_0)\n  dup1\n  dataOffset(sub_0)\n  0x00\n  codecopy\n  0x00\n  return\nstop\n\nsub_0: assembly {\n        /* \"ClassTest II/CTq2.sol\":1313:2009  contract Cylinder is ThreeDObject {... */\n      mstore(0x40, 0x80)\n      callvalue\n      dup1\n      iszero\n      tag_1\n      jumpi\n      0x00\n      dup1\n      revert\n    tag_1:\n      pop\n      jumpi(tag_2, lt(calldatasize, 0x04))\n      shr(0xe0, calldataload(0x00))\n      dup1\n      0x0ef26743\n      eq\n      tag_3\n      jumpi\n      dup1\n      0x217f4353\n      eq\n      tag_4\n      jumpi\n      dup1\n      0x89e7995f\n      eq\n      tag_5\n      jumpi\n      dup1\n      0xc618a1e4\n      eq\n      tag_6\n      jumpi\n    tag_2:\n      0x00\n      dup1\n      revert\n        /* \"ClassTest II/CTq2.sol\":1379:1397  uint public height */\n    tag_3:\n      tag_7\n      tag_8\n      jump\t// in\n    tag_7:\n      mload(0x40)\n      tag_9\n      swap2\n      swap1\n      tag_10\n      jump\t// in\n    tag_9:\n      mload(0x40)\n      dup1\n      swap2\n      sub\n      swap1\n      return\n        /* \"ClassTest II/CTq2.sol\":1354:1372  uint public radius */\n    tag_4:\n      tag_11\n      tag_12\n      jump\t// in\n    tag_11:\n      mload(0x40)\n      tag_13\n      swap2\n      swap1\n      tag_10\n      jump\t// in\n    tag_13:\n      mload(0x40)\n      dup1\n      swap2\n      sub\n      swap1\n      return\n        /* \"ClassTest II/CTq2.sol\":1599:1814  function surfaceArea() public view override returns (uint) {... */\n    tag_5:\n      tag_14\n      tag_15\n      jump\t// in\n    tag_14:\n      mload(0x40)\n      tag_16\n      swap2\n      swap1\n      tag_10\n      jump\t// in\n    tag_16:\n      mload(0x40)\n      dup1\n      swap2\n      sub\n      swap1\n      return\n        /* \"ClassTest II/CTq2.sol\":1826:2006  function volume() public view override returns (uint) {... */\n    tag_6:\n      tag_17\n      tag_18\n      jump\t// in\n    tag_17:\n      mload(0x40)\n      tag_19\n      swap2\n      swap1\n      tag_10\n      jump\t// in\n    tag_19:\n      mload(0x40)\n      dup1\n      swap2\n      sub\n      swap1\n      return\n        /* \"ClassTest II/CTq2.sol\":1379:1397  uint public height */\n    tag_8:\n      sload(0x01)\n      dup2\n      jump\t// out\n        /* \"ClassTest II/CTq2.sol\":1354:1372  uint public radius */\n    tag_12:\n      sload(0x00)\n      dup2\n      jump\t// out\n        /* \"ClassTest II/CTq2.sol\":1599:1814  function surfaceArea() public view override returns (uint) {... */\n    tag_15:\n        /* \"ClassTest II/CTq2.sol\":1652:1656  uint */\n      0x00\n        /* \"ClassTest II/CTq2.sol\":1803:1806  100 */\n      0x64\n        /* \"ClassTest II/CTq2.sol\":1793:1799  height */\n      sload(0x01)\n        /* \"ClassTest II/CTq2.sol\":1784:1790  radius */\n      sload(0x00)\n        /* \"ClassTest II/CTq2.sol\":1423:1426  314 */\n      0x013a\n        /* \"ClassTest II/CTq2.sol\":1775:1776  2 */\n      0x02\n        /* \"ClassTest II/CTq2.sol\":1775:1781  2 * PI */\n      tag_21\n      swap2\n      swap1\n      tag_22\n      jump\t// in\n    tag_21:\n        /* \"ClassTest II/CTq2.sol\":1775:1790  2 * PI * radius */\n      tag_23\n      swap2\n      swap1\n      tag_22\n      jump\t// in\n    tag_23:\n        /* \"ClassTest II/CTq2.sol\":1775:1799  2 * PI * radius * height */\n      tag_24\n      swap2\n      swap1\n      tag_22\n      jump\t// in\n    tag_24:\n        /* \"ClassTest II/CTq2.sol\":1766:1772  radius */\n      sload(0x00)\n        /* \"ClassTest II/CTq2.sol\":1757:1763  radius */\n      sload(0x00)\n        /* \"ClassTest II/CTq2.sol\":1423:1426  314 */\n      0x013a\n        /* \"ClassTest II/CTq2.sol\":1748:1749  2 */\n      0x02\n        /* \"ClassTest II/CTq2.sol\":1748:1754  2 * PI */\n      tag_25\n      swap2\n      swap1\n      tag_22\n      jump\t// in\n    tag_25:\n        /* \"ClassTest II/CTq2.sol\":1748:1763  2 * PI * radius */\n      tag_26\n      swap2\n      swap1\n      tag_22\n      jump\t// in\n    tag_26:\n        /* \"ClassTest II/CTq2.sol\":1748:1772  2 * PI * radius * radius */\n      tag_27\n      swap2\n      swap1\n      tag_22\n      jump\t// in\n    tag_27:\n        /* \"ClassTest II/CTq2.sol\":1748:1799  2 * PI * radius * radius + 2 * PI * radius * height */\n      tag_28\n      swap2\n      swap1\n      tag_29\n      jump\t// in\n    tag_28:\n        /* \"ClassTest II/CTq2.sol\":1747:1806  (2 * PI * radius * radius + 2 * PI * radius * height) / 100 */\n      tag_30\n      swap2\n      swap1\n      tag_31\n      jump\t// in\n    tag_30:\n        /* \"ClassTest II/CTq2.sol\":1740:1806  return (2 * PI * radius * radius + 2 * PI * radius * height) / 100 */\n      swap1\n      pop\n        /* \"ClassTest II/CTq2.sol\":1599:1814  function surfaceArea() public view override returns (uint) {... */\n      swap1\n      jump\t// out\n        /* \"ClassTest II/CTq2.sol\":1826:2006  function volume() public view override returns (uint) {... */\n    tag_18:\n        /* \"ClassTest II/CTq2.sol\":1874:1878  uint */\n      0x00\n        /* \"ClassTest II/CTq2.sol\":1995:1998  100 */\n      0x64\n        /* \"ClassTest II/CTq2.sol\":1985:1991  height */\n      sload(0x01)\n        /* \"ClassTest II/CTq2.sol\":1976:1982  radius */\n      sload(0x00)\n        /* \"ClassTest II/CTq2.sol\":1967:1973  radius */\n      sload(0x00)\n        /* \"ClassTest II/CTq2.sol\":1423:1426  314 */\n      0x013a\n        /* \"ClassTest II/CTq2.sol\":1962:1973  PI * radius */\n      tag_33\n      swap2\n      swap1\n      tag_22\n      jump\t// in\n    tag_33:\n        /* \"ClassTest II/CTq2.sol\":1962:1982  PI * radius * radius */\n      tag_34\n      swap2\n      swap1\n      tag_22\n      jump\t// in\n    tag_34:\n        /* \"ClassTest II/CTq2.sol\":1962:1991  PI * radius * radius * height */\n      tag_35\n      swap2\n      swap1\n      tag_22\n      jump\t// in\n    tag_35:\n        /* \"ClassTest II/CTq2.sol\":1961:1998  (PI * radius * radius * height) / 100 */\n      tag_36\n      swap2\n      swap1\n      tag_31\n      jump\t// in\n    tag_36:\n        /* \"ClassTest II/CTq2.sol\":1954:1998  return (PI * radius * radius * height) / 100 */\n      swap1\n      pop\n        /* \"ClassTest II/CTq2.sol\":1826:2006  function volume() public view override returns (uint) {... */\n      swap1\n      jump\t// out\n        /* \"#utility.yul\":7:84   */\n    tag_37:\n        /* \"#utility.yul\":44:51   */\n      0x00\n        /* \"#utility.yul\":73:78   */\n      dup2\n        /* \"#utility.yul\":62:78   */\n      swap1\n      pop\n        /* \"#utility.yul\":7:84   */\n      swap2\n      swap1\n      pop\n      jump\t// out\n        /* \"#utility.yul\":90:208   */\n    tag_38:\n        /* \"#utility.yul\":177:201   */\n      tag_44\n        /* \"#utility.yul\":195:200   */\n      dup2\n        /* \"#utility.yul\":177:201   */\n      tag_37\n      jump\t// in\n    tag_44:\n        /* \"#utility.yul\":172:175   */\n      dup3\n        /* \"#utility.yul\":165:202   */\n      mstore\n        /* \"#utility.yul\":90:208   */\n      pop\n      pop\n      jump\t// out\n        /* \"#utility.yul\":214:436   */\n    tag_10:\n        /* \"#utility.yul\":307:311   */\n      0x00\n        /* \"#utility.yul\":345:347   */\n      0x20\n        /* \"#utility.yul\":334:343   */\n      dup3\n        /* \"#utility.yul\":330:348   */\n      add\n        /* \"#utility.yul\":322:348   */\n      swap1\n      pop\n        /* \"#utility.yul\":358:429   */\n      tag_46\n        /* \"#utility.yul\":426:427   */\n      0x00\n        /* \"#utility.yul\":415:424   */\n      dup4\n        /* \"#utility.yul\":411:428   */\n      add\n        /* \"#utility.yul\":402:408   */\n      dup5\n        /* \"#utility.yul\":358:429   */\n      tag_38\n      jump\t// in\n    tag_46:\n        /* \"#utility.yul\":214:436   */\n      swap3\n      swap2\n      pop\n      pop\n      jump\t// out\n        /* \"#utility.yul\":442:622   */\n    tag_39:\n        /* \"#utility.yul\":490:567   */\n      0x4e487b7100000000000000000000000000000000000000000000000000000000\n        /* \"#utility.yul\":487:488   */\n      0x00\n        /* \"#utility.yul\":480:568   */\n      mstore\n        /* \"#utility.yul\":587:591   */\n      0x11\n        /* \"#utility.yul\":584:585   */\n      0x04\n        /* \"#utility.yul\":577:592   */\n      mstore\n        /* \"#utility.yul\":611:615   */\n      0x24\n        /* \"#utility.yul\":608:609   */\n      0x00\n        /* \"#utility.yul\":601:616   */\n      revert\n        /* \"#utility.yul\":628:1038   */\n    tag_22:\n        /* \"#utility.yul\":668:675   */\n      0x00\n        /* \"#utility.yul\":691:711   */\n      tag_49\n        /* \"#utility.yul\":709:710   */\n      dup3\n        /* \"#utility.yul\":691:711   */\n      tag_37\n      jump\t// in\n    tag_49:\n        /* \"#utility.yul\":686:711   */\n      swap2\n      pop\n        /* \"#utility.yul\":725:745   */\n      tag_50\n        /* \"#utility.yul\":743:744   */\n      dup4\n        /* \"#utility.yul\":725:745   */\n      tag_37\n      jump\t// in\n    tag_50:\n        /* \"#utility.yul\":720:745   */\n      swap3\n      pop\n        /* \"#utility.yul\":780:781   */\n      dup3\n        /* \"#utility.yul\":777:778   */\n      dup3\n        /* \"#utility.yul\":773:782   */\n      mul\n        /* \"#utility.yul\":802:832   */\n      tag_51\n        /* \"#utility.yul\":820:831   */\n      dup2\n        /* \"#utility.yul\":802:832   */\n      tag_37\n      jump\t// in\n    tag_51:\n        /* \"#utility.yul\":791:832   */\n      swap2\n      pop\n        /* \"#utility.yul\":981:982   */\n      dup3\n        /* \"#utility.yul\":972:979   */\n      dup3\n        /* \"#utility.yul\":968:983   */\n      div\n        /* \"#utility.yul\":965:966   */\n      dup5\n        /* \"#utility.yul\":962:984   */\n      eq\n        /* \"#utility.yul\":942:943   */\n      dup4\n        /* \"#utility.yul\":935:944   */\n      iszero\n        /* \"#utility.yul\":915:998   */\n      or\n        /* \"#utility.yul\":892:1031   */\n      tag_52\n      jumpi\n        /* \"#utility.yul\":1011:1029   */\n      tag_53\n      tag_39\n      jump\t// in\n    tag_53:\n        /* \"#utility.yul\":892:1031   */\n    tag_52:\n        /* \"#utility.yul\":676:1038   */\n      pop\n        /* \"#utility.yul\":628:1038   */\n      swap3\n      swap2\n      pop\n      pop\n      jump\t// out\n        /* \"#utility.yul\":1044:1235   */\n    tag_29:\n        /* \"#utility.yul\":1084:1087   */\n      0x00\n        /* \"#utility.yul\":1103:1123   */\n      tag_55\n        /* \"#utility.yul\":1121:1122   */\n      dup3\n        /* \"#utility.yul\":1103:1123   */\n      tag_37\n      jump\t// in\n    tag_55:\n        /* \"#utility.yul\":1098:1123   */\n      swap2\n      pop\n        /* \"#utility.yul\":1137:1157   */\n      tag_56\n        /* \"#utility.yul\":1155:1156   */\n      dup4\n        /* \"#utility.yul\":1137:1157   */\n      tag_37\n      jump\t// in\n    tag_56:\n        /* \"#utility.yul\":1132:1157   */\n      swap3\n      pop\n        /* \"#utility.yul\":1180:1181   */\n      dup3\n        /* \"#utility.yul\":1177:1178   */\n      dup3\n        /* \"#utility.yul\":1173:1182   */\n      add\n        /* \"#utility.yul\":1166:1182   */\n      swap1\n      pop\n        /* \"#utility.yul\":1201:1204   */\n      dup1\n        /* \"#utility.yul\":1198:1199   */\n      dup3\n        /* \"#utility.yul\":1195:1205   */\n      gt\n        /* \"#utility.yul\":1192:1228   */\n      iszero\n      tag_57\n      jumpi\n        /* \"#utility.yul\":1208:1226   */\n      tag_58\n      tag_39\n      jump\t// in\n    tag_58:\n        /* \"#utility.yul\":1192:1228   */\n    tag_57:\n        /* \"#utility.yul\":1044:1235   */\n      swap3\n      swap2\n      pop\n      pop\n      jump\t// out\n        /* \"#utility.yul\":1241:1421   */\n    tag_40:\n        /* \"#utility.yul\":1289:1366   */\n      0x4e487b7100000000000000000000000000000000000000000000000000000000\n        /* \"#utility.yul\":1286:1287   */\n      0x00\n        /* \"#utility.yul\":1279:1367   */\n      mstore\n        /* \"#utility.yul\":1386:1390   */\n      0x12\n        /* \"#utility.yul\":1383:1384   */\n      0x04\n        /* \"#utility.yul\":1376:1391   */\n      mstore\n        /* \"#utility.yul\":1410:1414   */\n      0x24\n        /* \"#utility.yul\":1407:1408   */\n      0x00\n        /* \"#utility.yul\":1400:1415   */\n      revert\n        /* \"#utility.yul\":1427:1612   */\n    tag_31:\n        /* \"#utility.yul\":1467:1468   */\n      0x00\n        /* \"#utility.yul\":1484:1504   */\n      tag_61\n        /* \"#utility.yul\":1502:1503   */\n      dup3\n        /* \"#utility.yul\":1484:1504   */\n      tag_37\n      jump\t// in\n    tag_61:\n        /* \"#utility.yul\":1479:1504   */\n      swap2\n      pop\n        /* \"#utility.yul\":1518:1538   */\n      tag_62\n        /* \"#utility.yul\":1536:1537   */\n      dup4\n        /* \"#utility.yul\":1518:1538   */\n      tag_37\n      jump\t// in\n    tag_62:\n        /* \"#utility.yul\":1513:1538   */\n      swap3\n      pop\n        /* \"#utility.yul\":1557:1558   */\n      dup3\n        /* \"#utility.yul\":1547:1582   */\n      tag_63\n      jumpi\n        /* \"#utility.yul\":1562:1580   */\n      tag_64\n      tag_40\n      jump\t// in\n    tag_64:\n        /* \"#utility.yul\":1547:1582   */\n    tag_63:\n        /* \"#utility.yul\":1604:1605   */\n      dup3\n        /* \"#utility.yul\":1601:1602   */\n      dup3\n        /* \"#utility.yul\":1597:1606   */\n      div\n        /* \"#utility.yul\":1592:1606   */\n      swap1\n      pop\n        /* \"#utility.yul\":1427:1612   */\n      swap3\n      swap2\n      pop\n      pop\n      jump\t// out\n\n    auxdata: 0xa2646970667358221220511dc8296e3199d741def8d732b08e1fa419b58e5c99899c36e0721ca650133164736f6c634300081a0033\n}\n",
				"bytecode": {
					"linkReferences": {},
					"object": "6080604052348015600e575f80fd5b506040516103923803806103928339818101604052810190602e91906073565b815f8190555080600181905550505060aa565b5f80fd5b5f819050919050565b6055816045565b8114605e575f80fd5b50565b5f81519050606d81604e565b92915050565b5f806040838503121560865760856041565b5b5f6091858286016061565b925050602060a0858286016061565b9150509250929050565b6102db806100b75f395ff3fe608060405234801561000f575f80fd5b506004361061004a575f3560e01c80630ef267431461004e578063217f43531461006c57806389e7995f1461008a578063c618a1e4146100a8575b5f80fd5b6100566100c6565b604051610063919061018e565b60405180910390f35b6100746100cc565b604051610081919061018e565b60405180910390f35b6100926100d1565b60405161009f919061018e565b60405180910390f35b6100b061013c565b6040516100bd919061018e565b60405180910390f35b60015481565b5f5481565b5f60646001545f5461013a60026100e891906101d4565b6100f291906101d4565b6100fc91906101d4565b5f545f5461013a600261010f91906101d4565b61011991906101d4565b61012391906101d4565b61012d9190610215565b6101379190610275565b905090565b5f60646001545f545f5461013a61015391906101d4565b61015d91906101d4565b61016791906101d4565b6101719190610275565b905090565b5f819050919050565b61018881610176565b82525050565b5f6020820190506101a15f83018461017f565b92915050565b7f4e487b71000000000000000000000000000000000000000000000000000000005f52601160045260245ffd5b5f6101de82610176565b91506101e983610176565b92508282026101f781610176565b9150828204841483151761020e5761020d6101a7565b5b5092915050565b5f61021f82610176565b915061022a83610176565b9250828201905080821115610242576102416101a7565b5b92915050565b7f4e487b71000000000000000000000000000000000000000000000000000000005f52601260045260245ffd5b5f61027f82610176565b915061028a83610176565b92508261029a57610299610248565b5b82820490509291505056fea2646970667358221220511dc8296e3199d741def8d732b08e1fa419b58e5c99899c36e0721ca650133164736f6c634300081a0033",
					"opcodes": "PUSH1 0x80 PUSH1 0x40 MSTORE CALLVALUE DUP1 ISZERO PUSH1 0xE JUMPI PUSH0 DUP1 REVERT JUMPDEST POP PUSH1 0x40 MLOAD PUSH2 0x392 CODESIZE SUB DUP1 PUSH2 0x392 DUP4 CODECOPY DUP2 DUP2 ADD PUSH1 0x40 MSTORE DUP2 ADD SWAP1 PUSH1 0x2E SWAP2 SWAP1 PUSH1 0x73 JUMP JUMPDEST DUP2 PUSH0 DUP2 SWAP1 SSTORE POP DUP1 PUSH1 0x1 DUP2 SWAP1 SSTORE POP POP POP PUSH1 0xAA JUMP JUMPDEST PUSH0 DUP1 REVERT JUMPDEST PUSH0 DUP2 SWAP1 POP SWAP2 SWAP1 POP JUMP JUMPDEST PUSH1 0x55 DUP2 PUSH1 0x45 JUMP JUMPDEST DUP2 EQ PUSH1 0x5E JUMPI PUSH0 DUP1 REVERT JUMPDEST POP JUMP JUMPDEST PUSH0 DUP2 MLOAD SWAP1 POP PUSH1 0x6D DUP2 PUSH1 0x4E JUMP JUMPDEST SWAP3 SWAP2 POP POP JUMP JUMPDEST PUSH0 DUP1 PUSH1 0x40 DUP4 DUP6 SUB SLT ISZERO PUSH1 0x86 JUMPI PUSH1 0x85 PUSH1 0x41 JUMP JUMPDEST JUMPDEST PUSH0 PUSH1 0x91 DUP6 DUP3 DUP7 ADD PUSH1 0x61 JUMP JUMPDEST SWAP3 POP POP PUSH1 0x20 PUSH1 0xA0 DUP6 DUP3 DUP7 ADD PUSH1 0x61 JUMP JUMPDEST SWAP2 POP POP SWAP3 POP SWAP3 SWAP1 POP JUMP JUMPDEST PUSH2 0x2DB DUP1 PUSH2 0xB7 PUSH0 CODECOPY PUSH0 RETURN INVALID PUSH1 0x80 PUSH1 0x40 MSTORE CALLVALUE DUP1 ISZERO PUSH2 0xF JUMPI PUSH0 DUP1 REVERT JUMPDEST POP PUSH1 0x4 CALLDATASIZE LT PUSH2 0x4A JUMPI PUSH0 CALLDATALOAD PUSH1 0xE0 SHR DUP1 PUSH4 0xEF26743 EQ PUSH2 0x4E JUMPI DUP1 PUSH4 0x217F4353 EQ PUSH2 0x6C JUMPI DUP1 PUSH4 0x89E7995F EQ PUSH2 0x8A JUMPI DUP1 PUSH4 0xC618A1E4 EQ PUSH2 0xA8 JUMPI JUMPDEST PUSH0 DUP1 REVERT JUMPDEST PUSH2 0x56 PUSH2 0xC6 JUMP JUMPDEST PUSH1 0x40 MLOAD PUSH2 0x63 SWAP2 SWAP1 PUSH2 0x18E JUMP JUMPDEST PUSH1 0x40 MLOAD DUP1 SWAP2 SUB SWAP1 RETURN JUMPDEST PUSH2 0x74 PUSH2 0xCC JUMP JUMPDEST PUSH1 0x40 MLOAD PUSH2 0x81 SWAP2 SWAP1 PUSH2 0x18E JUMP JUMPDEST PUSH1 0x40 MLOAD DUP1 SWAP2 SUB SWAP1 RETURN JUMPDEST PUSH2 0x92 PUSH2 0xD1 JUMP JUMPDEST PUSH1 0x40 MLOAD PUSH2 0x9F SWAP2 SWAP1 PUSH2 0x18E JUMP JUMPDEST PUSH1 0x40 MLOAD DUP1 SWAP2 SUB SWAP1 RETURN JUMPDEST PUSH2 0xB0 PUSH2 0x13C JUMP JUMPDEST PUSH1 0x40 MLOAD PUSH2 0xBD SWAP2 SWAP1 PUSH2 0x18E JUMP JUMPDEST PUSH1 0x40 MLOAD DUP1 SWAP2 SUB SWAP1 RETURN JUMPDEST PUSH1 0x1 SLOAD DUP2 JUMP JUMPDEST PUSH0 SLOAD DUP2 JUMP JUMPDEST PUSH0 PUSH1 0x64 PUSH1 0x1 SLOAD PUSH0 SLOAD PUSH2 0x13A PUSH1 0x2 PUSH2 0xE8 SWAP2 SWAP1 PUSH2 0x1D4 JUMP JUMPDEST PUSH2 0xF2 SWAP2 SWAP1 PUSH2 0x1D4 JUMP JUMPDEST PUSH2 0xFC SWAP2 SWAP1 PUSH2 0x1D4 JUMP JUMPDEST PUSH0 SLOAD PUSH0 SLOAD PUSH2 0x13A PUSH1 0x2 PUSH2 0x10F SWAP2 SWAP1 PUSH2 0x1D4 JUMP JUMPDEST PUSH2 0x119 SWAP2 SWAP1 PUSH2 0x1D4 JUMP JUMPDEST PUSH2 0x123 SWAP2 SWAP1 PUSH2 0x1D4 JUMP JUMPDEST PUSH2 0x12D SWAP2 SWAP1 PUSH2 0x215 JUMP JUMPDEST PUSH2 0x137 SWAP2 SWAP1 PUSH2 0x275 JUMP JUMPDEST SWAP1 POP SWAP1 JUMP JUMPDEST PUSH0 PUSH1 0x64 PUSH1 0x1 SLOAD PUSH0 SLOAD PUSH0 SLOAD PUSH2 0x13A PUSH2 0x153 SWAP2 SWAP1 PUSH2 0x1D4 JUMP JUMPDEST PUSH2 0x15D SWAP2 SWAP1 PUSH2 0x1D4 JUMP JUMPDEST PUSH2 0x167 SWAP2 SWAP1 PUSH2 0x1D4 JUMP JUMPDEST PUSH2 0x171 SWAP2 SWAP1 PUSH2 0x275 JUMP JUMPDEST SWAP1 POP SWAP1 JUMP JUMPDEST PUSH0 DUP2 SWAP1 POP SWAP2 SWAP1 POP JUMP JUMPDEST PUSH2 0x188 DUP2 PUSH2 0x176 JUMP JUMPDEST DUP3 MSTORE POP POP JUMP JUMPDEST PUSH0 PUSH1 0x20 DUP3 ADD SWAP1 POP PUSH2 0x1A1 PUSH0 DUP4 ADD DUP5 PUSH2 0x17F JUMP JUMPDEST SWAP3 SWAP2 POP POP JUMP JUMPDEST PUSH32 0x4E487B7100000000000000000000000000000000000000000000000000000000 PUSH0 MSTORE PUSH1 0x11 PUSH1 0x4 MSTORE PUSH1 0x24 PUSH0 REVERT JUMPDEST PUSH0 PUSH2 0x1DE DUP3 PUSH2 0x176 JUMP JUMPDEST SWAP2 POP PUSH2 0x1E9 DUP4 PUSH2 0x176 JUMP JUMPDEST SWAP3 POP DUP3 DUP3 MUL PUSH2 0x1F7 DUP2 PUSH2 0x176 JUMP JUMPDEST SWAP2 POP DUP3 DUP3 DIV DUP5 EQ DUP4 ISZERO OR PUSH2 0x20E JUMPI PUSH2 0x20D PUSH2 0x1A7 JUMP JUMPDEST JUMPDEST POP SWAP3 SWAP2 POP POP JUMP JUMPDEST PUSH0 PUSH2 0x21F DUP3 PUSH2 0x176 JUMP JUMPDEST SWAP2 POP PUSH2 0x22A DUP4 PUSH2 0x176 JUMP JUMPDEST SWAP3 POP DUP3 DUP3 ADD SWAP1 POP DUP1 DUP3 GT ISZERO PUSH2 0x242 JUMPI PUSH2 0x241 PUSH2 0x1A7 JUMP JUMPDEST JUMPDEST SWAP3 SWAP2 POP POP JUMP JUMPDEST PUSH32 0x4E487B7100000000000000000000000000000000000000000000000000000000 PUSH0 MSTORE PUSH1 0x12 PUSH1 0x4 MSTORE PUSH1 0x24 PUSH0 REVERT JUMPDEST PUSH0 PUSH2 0x27F DUP3 PUSH2 0x176 JUMP JUMPDEST SWAP2 POP PUSH2 0x28A DUP4 PUSH2 0x176 JUMP JUMPDEST SWAP3 POP DUP3 PUSH2 0x29A JUMPI PUSH2 0x299 PUSH2 0x248 JUMP JUMPDEST JUMPDEST DUP3 DUP3 DIV SWAP1 POP SWAP3 SWAP2 POP POP JUMP INVALID LOG2 PUSH5 0x6970667358 0x22 SLT KECCAK256 MLOAD SAR 0xC8 0x29 PUSH15 0x3199D741DEF8D732B08E1FA419B58E TLOAD SWAP10 DUP10 SWAP13 CALLDATASIZE 0xE0 PUSH19 0x1CA650133164736F6C634300081A0033000000 "
				},
				"gasEstimates": {
					"creation": {
						"codeDepositCost": "146200",
						"executionCost": "infinite",
						"totalCost": "infinite"
					},
					"external": {
						"height()": "2403",
						"radius()": "2424",
						"surfaceArea()": "infinite",
						"volume()": "infinite"
					}
				},
				"methodIdentifiers": {
					"height()": "0ef26743",
					"radius()": "217f4353",
					"surfaceArea()": "89e7995f",
					"volume()": "c618a1e4"
				}
			},
			"storageLayout": {
				"storage": [
					{
						"astId": 123,
						"contract": "ClassTest II/CTq2.sol:Cylinder",
						"label": "radius",
						"offset": 0,
						"slot": "0",
						"type": "t_uint256"
					},
					{
						"astId": 125,
						"contract": "ClassTest II/CTq2.sol:Cylinder",
						"label": "height",
						"offset": 0,
						"slot": "1",
						"type": "t_uint256"
					}
				],
				"types": {
					"t_uint256": {
						"encoding": "inplace",
						"label": "uint256",
						"numberOfBytes": "32"
					}
				}
			},
			"userdoc": {
				"kind": "user",
				"methods": {},
				"version": 1
			}
		}
	}
}