{
	"ClassTest II/CTq6.sol": {
		"TestMathLibrary": {
			"abi": [
				{
					"inputs": [],
					"name": "absResult",
					"outputs": [
						{
							"internalType": "uint256",
							"name": "",
							"type": "uint256"
						}
					],
					"stateMutability": "view",
					"type": "function"
				},
				{
					"inputs": [],
					"name": "getResults",
					"outputs": [
						{
							"internalType": "uint256",
							"name": "_sqrt",
							"type": "uint256"
						},
						{
							"internalType": "uint256",
							"name": "_abs",
							"type": "uint256"
						},
						{
							"internalType": "uint256",
							"name": "_square",
							"type": "uint256"
						},
						{
							"internalType": "uint256",
							"name": "_max",
							"type": "uint256"
						},
						{
							"internalType": "uint256",
							"name": "_min",
							"type": "uint256"
						}
					],
					"stateMutability": "view",
					"type": "function"
				},
				{
					"inputs": [],
					"name": "maxResult",
					"outputs": [
						{
							"internalType": "uint256",
							"name": "",
							"type": "uint256"
						}
					],
					"stateMutability": "view",
					"type": "function"
				},
				{
					"inputs": [],
					"name": "minResult",
					"outputs": [
						{
							"internalType": "uint256",
							"name": "",
							"type": "uint256"
						}
					],
					"stateMutability": "view",
					"type": "function"
				},
				{
					"inputs": [],
					"name": "sqrtResult",
					"outputs": [
						{
							"internalType": "uint256",
							"name": "",
							"type": "uint256"
						}
					],
					"stateMutability": "view",
					"type": "function"
				},
				{
					"inputs": [],
					"name": "squareResult",
					"outputs": [
						{
							"internalType": "uint256",
							"name": "",
							"type": "uint256"
						}
					],
					"stateMutability": "view",
					"type": "function"
				},
				{
					"inputs": [
						{
							"internalType": "uint256",
							"name": "_num1",
							"type": "uint256"
						},
						{
							"internalType": "int256",
							"name": "_num2",
							"type": "int256"
						},
						{
							"internalType": "uint256",
							"name": "_num3",
							"type": "uint256"
						}
					],
					"name": "testFunctions",
					"outputs": [],
					"stateMutability": "nonpayable",
					"type": "function"
				},
				{
					"inputs": [
						{
							"internalType": "uint256",
							"name": "_num1",
							"type": "uint256"
						},
						{
							"internalType": "uint256",
							"name": "_num2",
							"type": "uint256"
						}
					],
					"name": "testUsingDirective",
					"outputs": [],
					"stateMutability": "nonpayable",
					"type": "function"
				}
			],
			"devdoc": {
				"kind": "dev",
				"methods": {},
				"version": 1
			},
			"evm": {
				"assembly": "    /* \"ClassTest II/CTq6.sol\":111:1691  contract TestMathLibrary {... */\n  mstore(0x40, 0x80)\n  callvalue\n  dup1\n  iszero\n  tag_1\n  jumpi\n  0x00\n  dup1\n  revert\ntag_1:\n  pop\n  dataSize(sub_0)\n  dup1\n  dataOffset(sub_0)\n  0x00\n  codecopy\n  0x00\n  return\nstop\n\nsub_0: assembly {\n        /* \"ClassTest II/CTq6.sol\":111:1691  contract TestMathLibrary {... */\n      mstore(0x40, 0x80)\n      callvalue\n      dup1\n      iszero\n      tag_1\n      jumpi\n      0x00\n      dup1\n      revert\n    tag_1:\n      pop\n      jumpi(tag_2, lt(calldatasize, 0x04))\n      shr(0xe0, calldataload(0x00))\n      dup1\n      0x4717f97c\n      gt\n      tag_11\n      jumpi\n      dup1\n      0x4717f97c\n      eq\n      tag_7\n      jumpi\n      dup1\n      0x505e4f3c\n      eq\n      tag_8\n      jumpi\n      dup1\n      0x5d109aea\n      eq\n      tag_9\n      jumpi\n      dup1\n      0x887deb91\n      eq\n      tag_10\n      jumpi\n      jump(tag_2)\n    tag_11:\n      dup1\n      0x5dc652\n      eq\n      tag_3\n      jumpi\n      dup1\n      0x2abcd00b\n      eq\n      tag_4\n      jumpi\n      dup1\n      0x2ae16b2f\n      eq\n      tag_5\n      jumpi\n      dup1\n      0x355b2a3a\n      eq\n      tag_6\n      jumpi\n    tag_2:\n      0x00\n      dup1\n      revert\n        /* \"ClassTest II/CTq6.sol\":494:963  function testFunctions(uint _num1, int _num2, uint _num3) public {... */\n    tag_3:\n      tag_12\n      0x04\n      dup1\n      calldatasize\n      sub\n      dup2\n      add\n      swap1\n      tag_13\n      swap2\n      swap1\n      tag_14\n      jump\t// in\n    tag_13:\n      tag_15\n      jump\t// in\n    tag_12:\n      stop\n        /* \"ClassTest II/CTq6.sol\":358:382  uint public squareResult */\n    tag_4:\n      tag_16\n      tag_17\n      jump\t// in\n    tag_16:\n      mload(0x40)\n      tag_18\n      swap2\n      swap1\n      tag_19\n      jump\t// in\n    tag_18:\n      mload(0x40)\n      dup1\n      swap2\n      sub\n      swap1\n      return\n        /* \"ClassTest II/CTq6.sol\":330:351  uint public absResult */\n    tag_5:\n      tag_20\n      tag_21\n      jump\t// in\n    tag_20:\n      mload(0x40)\n      tag_22\n      swap2\n      swap1\n      tag_19\n      jump\t// in\n    tag_22:\n      mload(0x40)\n      dup1\n      swap2\n      sub\n      swap1\n      return\n        /* \"ClassTest II/CTq6.sol\":1025:1400  function testUsingDirective(uint _num1, uint _num2) public {... */\n    tag_6:\n      tag_23\n      0x04\n      dup1\n      calldatasize\n      sub\n      dup2\n      add\n      swap1\n      tag_24\n      swap2\n      swap1\n      tag_25\n      jump\t// in\n    tag_24:\n      tag_26\n      jump\t// in\n    tag_23:\n      stop\n        /* \"ClassTest II/CTq6.sol\":1449:1688  function getResults() public view returns (... */\n    tag_7:\n      tag_27\n      tag_28\n      jump\t// in\n    tag_27:\n      mload(0x40)\n      tag_29\n      swap6\n      swap5\n      swap4\n      swap3\n      swap2\n      swap1\n      tag_30\n      jump\t// in\n    tag_29:\n      mload(0x40)\n      dup1\n      swap2\n      sub\n      swap1\n      return\n        /* \"ClassTest II/CTq6.sol\":417:438  uint public minResult */\n    tag_8:\n      tag_31\n      tag_32\n      jump\t// in\n    tag_31:\n      mload(0x40)\n      tag_33\n      swap2\n      swap1\n      tag_19\n      jump\t// in\n    tag_33:\n      mload(0x40)\n      dup1\n      swap2\n      sub\n      swap1\n      return\n        /* \"ClassTest II/CTq6.sol\":389:410  uint public maxResult */\n    tag_9:\n      tag_34\n      tag_35\n      jump\t// in\n    tag_34:\n      mload(0x40)\n      tag_36\n      swap2\n      swap1\n      tag_19\n      jump\t// in\n    tag_36:\n      mload(0x40)\n      dup1\n      swap2\n      sub\n      swap1\n      return\n        /* \"ClassTest II/CTq6.sol\":301:323  uint public sqrtResult */\n    tag_10:\n      tag_37\n      tag_38\n      jump\t// in\n    tag_37:\n      mload(0x40)\n      tag_39\n      swap2\n      swap1\n      tag_19\n      jump\t// in\n    tag_39:\n      mload(0x40)\n      dup1\n      swap2\n      sub\n      swap1\n      return\n        /* \"ClassTest II/CTq6.sol\":494:963  function testFunctions(uint _num1, int _num2, uint _num3) public {... */\n    tag_15:\n        /* \"ClassTest II/CTq6.sol\":612:623  MathLibrary */\n      linkerSymbol(\"e9d9e6914882cf445d7c173a7b879c23fbccf531d613b774d88d0688f3d3f415\")\n        /* \"ClassTest II/CTq6.sol\":612:628  MathLibrary.sqrt */\n      0x677342ce\n        /* \"ClassTest II/CTq6.sol\":629:634  _num1 */\n      dup5\n        /* \"ClassTest II/CTq6.sol\":612:635  MathLibrary.sqrt(_num1) */\n      mload(0x40)\n      dup3\n      0xffffffff\n      and\n      0xe0\n      shl\n      dup2\n      mstore\n      0x04\n      add\n      tag_41\n      swap2\n      swap1\n      tag_42\n      jump\t// in\n    tag_41:\n      0x20\n      mload(0x40)\n      dup1\n      dup4\n      sub\n      dup2\n      dup7\n      gas\n      delegatecall\n      iszero\n      dup1\n      iszero\n      tag_44\n      jumpi\n      returndatasize\n      0x00\n      dup1\n      returndatacopy\n      revert(0x00, returndatasize)\n    tag_44:\n      pop\n      pop\n      pop\n      pop\n      mload(0x40)\n      returndatasize\n      not(0x1f)\n      0x1f\n      dup3\n      add\n      and\n      dup3\n      add\n      dup1\n      0x40\n      mstore\n      pop\n      dup2\n      add\n      swap1\n      tag_45\n      swap2\n      swap1\n      tag_46\n      jump\t// in\n    tag_45:\n        /* \"ClassTest II/CTq6.sol\":599:609  sqrtResult */\n      0x00\n        /* \"ClassTest II/CTq6.sol\":599:635  sqrtResult = MathLibrary.sqrt(_num1) */\n      dup2\n      swap1\n      sstore\n      pop\n        /* \"ClassTest II/CTq6.sol\":692:703  MathLibrary */\n      linkerSymbol(\"e9d9e6914882cf445d7c173a7b879c23fbccf531d613b774d88d0688f3d3f415\")\n        /* \"ClassTest II/CTq6.sol\":692:707  MathLibrary.abs */\n      0x1b5ac4b5\n        /* \"ClassTest II/CTq6.sol\":708:713  _num2 */\n      dup4\n        /* \"ClassTest II/CTq6.sol\":692:714  MathLibrary.abs(_num2) */\n      mload(0x40)\n      dup3\n      0xffffffff\n      and\n      0xe0\n      shl\n      dup2\n      mstore\n      0x04\n      add\n      tag_47\n      swap2\n      swap1\n      tag_48\n      jump\t// in\n    tag_47:\n      0x20\n      mload(0x40)\n      dup1\n      dup4\n      sub\n      dup2\n      dup7\n      gas\n      delegatecall\n      iszero\n      dup1\n      iszero\n      tag_50\n      jumpi\n      returndatasize\n      0x00\n      dup1\n      returndatacopy\n      revert(0x00, returndatasize)\n    tag_50:\n      pop\n      pop\n      pop\n      pop\n      mload(0x40)\n      returndatasize\n      not(0x1f)\n      0x1f\n      dup3\n      add\n      and\n      dup3\n      add\n      dup1\n      0x40\n      mstore\n      pop\n      dup2\n      add\n      swap1\n      tag_51\n      swap2\n      swap1\n      tag_46\n      jump\t// in\n    tag_51:\n        /* \"ClassTest II/CTq6.sol\":680:689  absResult */\n      0x01\n        /* \"ClassTest II/CTq6.sol\":680:714  absResult = MathLibrary.abs(_num2) */\n      dup2\n      swap1\n      sstore\n      pop\n        /* \"ClassTest II/CTq6.sol\":766:777  MathLibrary */\n      linkerSymbol(\"e9d9e6914882cf445d7c173a7b879c23fbccf531d613b774d88d0688f3d3f415\")\n        /* \"ClassTest II/CTq6.sol\":766:784  MathLibrary.square */\n      0x7b292909\n        /* \"ClassTest II/CTq6.sol\":785:790  _num1 */\n      dup5\n        /* \"ClassTest II/CTq6.sol\":766:791  MathLibrary.square(_num1) */\n      mload(0x40)\n      dup3\n      0xffffffff\n      and\n      0xe0\n      shl\n      dup2\n      mstore\n      0x04\n      add\n      tag_52\n      swap2\n      swap1\n      tag_42\n      jump\t// in\n    tag_52:\n      0x20\n      mload(0x40)\n      dup1\n      dup4\n      sub\n      dup2\n      dup7\n      gas\n      delegatecall\n      iszero\n      dup1\n      iszero\n      tag_54\n      jumpi\n      returndatasize\n      0x00\n      dup1\n      returndatacopy\n      revert(0x00, returndatasize)\n    tag_54:\n      pop\n      pop\n      pop\n      pop\n      mload(0x40)\n      returndatasize\n      not(0x1f)\n      0x1f\n      dup3\n      add\n      and\n      dup3\n      add\n      dup1\n      0x40\n      mstore\n      pop\n      dup2\n      add\n      swap1\n      tag_55\n      swap2\n      swap1\n      tag_46\n      jump\t// in\n    tag_55:\n        /* \"ClassTest II/CTq6.sol\":751:763  squareResult */\n      0x02\n        /* \"ClassTest II/CTq6.sol\":751:791  squareResult = MathLibrary.square(_num1) */\n      dup2\n      swap1\n      sstore\n      pop\n        /* \"ClassTest II/CTq6.sol\":874:885  MathLibrary */\n      linkerSymbol(\"e9d9e6914882cf445d7c173a7b879c23fbccf531d613b774d88d0688f3d3f415\")\n        /* \"ClassTest II/CTq6.sol\":874:889  MathLibrary.max */\n      0x6d5433e6\n        /* \"ClassTest II/CTq6.sol\":890:895  _num1 */\n      dup5\n        /* \"ClassTest II/CTq6.sol\":897:902  _num3 */\n      dup4\n        /* \"ClassTest II/CTq6.sol\":874:903  MathLibrary.max(_num1, _num3) */\n      mload(0x40)\n      dup4\n      0xffffffff\n      and\n      0xe0\n      shl\n      dup2\n      mstore\n      0x04\n      add\n      tag_56\n      swap3\n      swap2\n      swap1\n      tag_57\n      jump\t// in\n    tag_56:\n      0x20\n      mload(0x40)\n      dup1\n      dup4\n      sub\n      dup2\n      dup7\n      gas\n      delegatecall\n      iszero\n      dup1\n      iszero\n      tag_59\n      jumpi\n      returndatasize\n      0x00\n      dup1\n      returndatacopy\n      revert(0x00, returndatasize)\n    tag_59:\n      pop\n      pop\n      pop\n      pop\n      mload(0x40)\n      returndatasize\n      not(0x1f)\n      0x1f\n      dup3\n      add\n      and\n      dup3\n      add\n      dup1\n      0x40\n      mstore\n      pop\n      dup2\n      add\n      swap1\n      tag_60\n      swap2\n      swap1\n      tag_46\n      jump\t// in\n    tag_60:\n        /* \"ClassTest II/CTq6.sol\":862:871  maxResult */\n      0x03\n        /* \"ClassTest II/CTq6.sol\":862:903  maxResult = MathLibrary.max(_num1, _num3) */\n      dup2\n      swap1\n      sstore\n      pop\n        /* \"ClassTest II/CTq6.sol\":926:937  MathLibrary */\n      linkerSymbol(\"e9d9e6914882cf445d7c173a7b879c23fbccf531d613b774d88d0688f3d3f415\")\n        /* \"ClassTest II/CTq6.sol\":926:941  MathLibrary.min */\n      0x7ae2b5c7\n        /* \"ClassTest II/CTq6.sol\":942:947  _num1 */\n      dup5\n        /* \"ClassTest II/CTq6.sol\":949:954  _num3 */\n      dup4\n        /* \"ClassTest II/CTq6.sol\":926:955  MathLibrary.min(_num1, _num3) */\n      mload(0x40)\n      dup4\n      0xffffffff\n      and\n      0xe0\n      shl\n      dup2\n      mstore\n      0x04\n      add\n      tag_61\n      swap3\n      swap2\n      swap1\n      tag_57\n      jump\t// in\n    tag_61:\n      0x20\n      mload(0x40)\n      dup1\n      dup4\n      sub\n      dup2\n      dup7\n      gas\n      delegatecall\n      iszero\n      dup1\n      iszero\n      tag_63\n      jumpi\n      returndatasize\n      0x00\n      dup1\n      returndatacopy\n      revert(0x00, returndatasize)\n    tag_63:\n      pop\n      pop\n      pop\n      pop\n      mload(0x40)\n      returndatasize\n      not(0x1f)\n      0x1f\n      dup3\n      add\n      and\n      dup3\n      add\n      dup1\n      0x40\n      mstore\n      pop\n      dup2\n      add\n      swap1\n      tag_64\n      swap2\n      swap1\n      tag_46\n      jump\t// in\n    tag_64:\n        /* \"ClassTest II/CTq6.sol\":914:923  minResult */\n      0x04\n        /* \"ClassTest II/CTq6.sol\":914:955  minResult = MathLibrary.min(_num1, _num3) */\n      dup2\n      swap1\n      sstore\n      pop\n        /* \"ClassTest II/CTq6.sol\":494:963  function testFunctions(uint _num1, int _num2, uint _num3) public {... */\n      pop\n      pop\n      pop\n      jump\t// out\n        /* \"ClassTest II/CTq6.sol\":358:382  uint public squareResult */\n    tag_17:\n      sload(0x02)\n      dup2\n      jump\t// out\n        /* \"ClassTest II/CTq6.sol\":330:351  uint public absResult */\n    tag_21:\n      sload(0x01)\n      dup2\n      jump\t// out\n        /* \"ClassTest II/CTq6.sol\":1025:1400  function testUsingDirective(uint _num1, uint _num2) public {... */\n    tag_26:\n        /* \"ClassTest II/CTq6.sol\":1108:1113  _num1 */\n      dup2\n        /* \"ClassTest II/CTq6.sol\":1108:1118  _num1.sqrt */\n      linkerSymbol(\"e9d9e6914882cf445d7c173a7b879c23fbccf531d613b774d88d0688f3d3f415\")\n      0x677342ce\n      swap1\n      swap2\n        /* \"ClassTest II/CTq6.sol\":1108:1120  _num1.sqrt() */\n      mload(0x40)\n      dup3\n      0xffffffff\n      and\n      0xe0\n      shl\n      dup2\n      mstore\n      0x04\n      add\n      tag_66\n      swap2\n      swap1\n      tag_42\n      jump\t// in\n    tag_66:\n      0x20\n      mload(0x40)\n      dup1\n      dup4\n      sub\n      dup2\n      dup7\n      gas\n      delegatecall\n      iszero\n      dup1\n      iszero\n      tag_68\n      jumpi\n      returndatasize\n      0x00\n      dup1\n      returndatacopy\n      revert(0x00, returndatasize)\n    tag_68:\n      pop\n      pop\n      pop\n      pop\n      mload(0x40)\n      returndatasize\n      not(0x1f)\n      0x1f\n      dup3\n      add\n      and\n      dup3\n      add\n      dup1\n      0x40\n      mstore\n      pop\n      dup2\n      add\n      swap1\n      tag_69\n      swap2\n      swap1\n      tag_46\n      jump\t// in\n    tag_69:\n        /* \"ClassTest II/CTq6.sol\":1095:1105  sqrtResult */\n      0x00\n        /* \"ClassTest II/CTq6.sol\":1095:1120  sqrtResult = _num1.sqrt() */\n      dup2\n      swap1\n      sstore\n      pop\n        /* \"ClassTest II/CTq6.sol\":1182:1187  _num1 */\n      dup2\n        /* \"ClassTest II/CTq6.sol\":1182:1194  _num1.square */\n      linkerSymbol(\"e9d9e6914882cf445d7c173a7b879c23fbccf531d613b774d88d0688f3d3f415\")\n      0x7b292909\n      swap1\n      swap2\n        /* \"ClassTest II/CTq6.sol\":1182:1196  _num1.square() */\n      mload(0x40)\n      dup3\n      0xffffffff\n      and\n      0xe0\n      shl\n      dup2\n      mstore\n      0x04\n      add\n      tag_70\n      swap2\n      swap1\n      tag_42\n      jump\t// in\n    tag_70:\n      0x20\n      mload(0x40)\n      dup1\n      dup4\n      sub\n      dup2\n      dup7\n      gas\n      delegatecall\n      iszero\n      dup1\n      iszero\n      tag_72\n      jumpi\n      returndatasize\n      0x00\n      dup1\n      returndatacopy\n      revert(0x00, returndatasize)\n    tag_72:\n      pop\n      pop\n      pop\n      pop\n      mload(0x40)\n      returndatasize\n      not(0x1f)\n      0x1f\n      dup3\n      add\n      and\n      dup3\n      add\n      dup1\n      0x40\n      mstore\n      pop\n      dup2\n      add\n      swap1\n      tag_73\n      swap2\n      swap1\n      tag_46\n      jump\t// in\n    tag_73:\n        /* \"ClassTest II/CTq6.sol\":1167:1179  squareResult */\n      0x02\n        /* \"ClassTest II/CTq6.sol\":1167:1196  squareResult = _num1.square() */\n      dup2\n      swap1\n      sstore\n      pop\n        /* \"ClassTest II/CTq6.sol\":1251:1262  MathLibrary */\n      linkerSymbol(\"e9d9e6914882cf445d7c173a7b879c23fbccf531d613b774d88d0688f3d3f415\")\n        /* \"ClassTest II/CTq6.sol\":1251:1266  MathLibrary.max */\n      0x6d5433e6\n        /* \"ClassTest II/CTq6.sol\":1267:1272  _num1 */\n      dup4\n        /* \"ClassTest II/CTq6.sol\":1274:1279  _num2 */\n      dup4\n        /* \"ClassTest II/CTq6.sol\":1251:1280  MathLibrary.max(_num1, _num2) */\n      mload(0x40)\n      dup4\n      0xffffffff\n      and\n      0xe0\n      shl\n      dup2\n      mstore\n      0x04\n      add\n      tag_74\n      swap3\n      swap2\n      swap1\n      tag_57\n      jump\t// in\n    tag_74:\n      0x20\n      mload(0x40)\n      dup1\n      dup4\n      sub\n      dup2\n      dup7\n      gas\n      delegatecall\n      iszero\n      dup1\n      iszero\n      tag_76\n      jumpi\n      returndatasize\n      0x00\n      dup1\n      returndatacopy\n      revert(0x00, returndatasize)\n    tag_76:\n      pop\n      pop\n      pop\n      pop\n      mload(0x40)\n      returndatasize\n      not(0x1f)\n      0x1f\n      dup3\n      add\n      and\n      dup3\n      add\n      dup1\n      0x40\n      mstore\n      pop\n      dup2\n      add\n      swap1\n      tag_77\n      swap2\n      swap1\n      tag_46\n      jump\t// in\n    tag_77:\n        /* \"ClassTest II/CTq6.sol\":1239:1248  maxResult */\n      0x03\n        /* \"ClassTest II/CTq6.sol\":1239:1280  maxResult = MathLibrary.max(_num1, _num2) */\n      dup2\n      swap1\n      sstore\n      pop\n        /* \"ClassTest II/CTq6.sol\":1333:1344  MathLibrary */\n      linkerSymbol(\"e9d9e6914882cf445d7c173a7b879c23fbccf531d613b774d88d0688f3d3f415\")\n        /* \"ClassTest II/CTq6.sol\":1333:1348  MathLibrary.min */\n      0x7ae2b5c7\n        /* \"ClassTest II/CTq6.sol\":1349:1354  _num1 */\n      dup4\n        /* \"ClassTest II/CTq6.sol\":1356:1361  _num2 */\n      dup4\n        /* \"ClassTest II/CTq6.sol\":1333:1362  MathLibrary.min(_num1, _num2) */\n      mload(0x40)\n      dup4\n      0xffffffff\n      and\n      0xe0\n      shl\n      dup2\n      mstore\n      0x04\n      add\n      tag_78\n      swap3\n      swap2\n      swap1\n      tag_57\n      jump\t// in\n    tag_78:\n      0x20\n      mload(0x40)\n      dup1\n      dup4\n      sub\n      dup2\n      dup7\n      gas\n      delegatecall\n      iszero\n      dup1\n      iszero\n      tag_80\n      jumpi\n      returndatasize\n      0x00\n      dup1\n      returndatacopy\n      revert(0x00, returndatasize)\n    tag_80:\n      pop\n      pop\n      pop\n      pop\n      mload(0x40)\n      returndatasize\n      not(0x1f)\n      0x1f\n      dup3\n      add\n      and\n      dup3\n      add\n      dup1\n      0x40\n      mstore\n      pop\n      dup2\n      add\n      swap1\n      tag_81\n      swap2\n      swap1\n      tag_46\n      jump\t// in\n    tag_81:\n        /* \"ClassTest II/CTq6.sol\":1321:1330  minResult */\n      0x04\n        /* \"ClassTest II/CTq6.sol\":1321:1362  minResult = MathLibrary.min(_num1, _num2) */\n      dup2\n      swap1\n      sstore\n      pop\n        /* \"ClassTest II/CTq6.sol\":1025:1400  function testUsingDirective(uint _num1, uint _num2) public {... */\n      pop\n      pop\n      jump\t// out\n        /* \"ClassTest II/CTq6.sol\":1449:1688  function getResults() public view returns (... */\n    tag_28:\n        /* \"ClassTest II/CTq6.sol\":1502:1512  uint _sqrt */\n      0x00\n        /* \"ClassTest II/CTq6.sol\":1523:1532  uint _abs */\n      dup1\n        /* \"ClassTest II/CTq6.sol\":1543:1555  uint _square */\n      0x00\n        /* \"ClassTest II/CTq6.sol\":1566:1575  uint _max */\n      dup1\n        /* \"ClassTest II/CTq6.sol\":1586:1595  uint _min */\n      0x00\n        /* \"ClassTest II/CTq6.sol\":1622:1632  sqrtResult */\n      dup1\n      sload\n        /* \"ClassTest II/CTq6.sol\":1634:1643  absResult */\n      sload(0x01)\n        /* \"ClassTest II/CTq6.sol\":1645:1657  squareResult */\n      sload(0x02)\n        /* \"ClassTest II/CTq6.sol\":1659:1668  maxResult */\n      sload(0x03)\n        /* \"ClassTest II/CTq6.sol\":1670:1679  minResult */\n      sload(0x04)\n        /* \"ClassTest II/CTq6.sol\":1614:1680  return (sqrtResult, absResult, squareResult, maxResult, minResult) */\n      swap5\n      pop\n      swap5\n      pop\n      swap5\n      pop\n      swap5\n      pop\n      swap5\n      pop\n        /* \"ClassTest II/CTq6.sol\":1449:1688  function getResults() public view returns (... */\n      swap1\n      swap2\n      swap3\n      swap4\n      swap5\n      jump\t// out\n        /* \"ClassTest II/CTq6.sol\":417:438  uint public minResult */\n    tag_32:\n      sload(0x04)\n      dup2\n      jump\t// out\n        /* \"ClassTest II/CTq6.sol\":389:410  uint public maxResult */\n    tag_35:\n      sload(0x03)\n      dup2\n      jump\t// out\n        /* \"ClassTest II/CTq6.sol\":301:323  uint public sqrtResult */\n    tag_38:\n      sload(0x00)\n      dup2\n      jump\t// out\n        /* \"#utility.yul\":88:205   */\n    tag_84:\n        /* \"#utility.yul\":197:198   */\n      0x00\n        /* \"#utility.yul\":194:195   */\n      dup1\n        /* \"#utility.yul\":187:199   */\n      revert\n        /* \"#utility.yul\":334:411   */\n    tag_86:\n        /* \"#utility.yul\":371:378   */\n      0x00\n        /* \"#utility.yul\":400:405   */\n      dup2\n        /* \"#utility.yul\":389:405   */\n      swap1\n      pop\n        /* \"#utility.yul\":334:411   */\n      swap2\n      swap1\n      pop\n      jump\t// out\n        /* \"#utility.yul\":417:539   */\n    tag_87:\n        /* \"#utility.yul\":490:514   */\n      tag_102\n        /* \"#utility.yul\":508:513   */\n      dup2\n        /* \"#utility.yul\":490:514   */\n      tag_86\n      jump\t// in\n    tag_102:\n        /* \"#utility.yul\":483:488   */\n      dup2\n        /* \"#utility.yul\":480:515   */\n      eq\n        /* \"#utility.yul\":470:533   */\n      tag_103\n      jumpi\n        /* \"#utility.yul\":529:530   */\n      0x00\n        /* \"#utility.yul\":526:527   */\n      dup1\n        /* \"#utility.yul\":519:531   */\n      revert\n        /* \"#utility.yul\":470:533   */\n    tag_103:\n        /* \"#utility.yul\":417:539   */\n      pop\n      jump\t// out\n        /* \"#utility.yul\":545:684   */\n    tag_88:\n        /* \"#utility.yul\":591:596   */\n      0x00\n        /* \"#utility.yul\":629:635   */\n      dup2\n        /* \"#utility.yul\":616:636   */\n      calldataload\n        /* \"#utility.yul\":607:636   */\n      swap1\n      pop\n        /* \"#utility.yul\":645:678   */\n      tag_105\n        /* \"#utility.yul\":672:677   */\n      dup2\n        /* \"#utility.yul\":645:678   */\n      tag_87\n      jump\t// in\n    tag_105:\n        /* \"#utility.yul\":545:684   */\n      swap3\n      swap2\n      pop\n      pop\n      jump\t// out\n        /* \"#utility.yul\":690:766   */\n    tag_89:\n        /* \"#utility.yul\":726:733   */\n      0x00\n        /* \"#utility.yul\":755:760   */\n      dup2\n        /* \"#utility.yul\":744:760   */\n      swap1\n      pop\n        /* \"#utility.yul\":690:766   */\n      swap2\n      swap1\n      pop\n      jump\t// out\n        /* \"#utility.yul\":772:892   */\n    tag_90:\n        /* \"#utility.yul\":844:867   */\n      tag_108\n        /* \"#utility.yul\":861:866   */\n      dup2\n        /* \"#utility.yul\":844:867   */\n      tag_89\n      jump\t// in\n    tag_108:\n        /* \"#utility.yul\":837:842   */\n      dup2\n        /* \"#utility.yul\":834:868   */\n      eq\n        /* \"#utility.yul\":824:886   */\n      tag_109\n      jumpi\n        /* \"#utility.yul\":882:883   */\n      0x00\n        /* \"#utility.yul\":879:880   */\n      dup1\n        /* \"#utility.yul\":872:884   */\n      revert\n        /* \"#utility.yul\":824:886   */\n    tag_109:\n        /* \"#utility.yul\":772:892   */\n      pop\n      jump\t// out\n        /* \"#utility.yul\":898:1035   */\n    tag_91:\n        /* \"#utility.yul\":943:948   */\n      0x00\n        /* \"#utility.yul\":981:987   */\n      dup2\n        /* \"#utility.yul\":968:988   */\n      calldataload\n        /* \"#utility.yul\":959:988   */\n      swap1\n      pop\n        /* \"#utility.yul\":997:1029   */\n      tag_111\n        /* \"#utility.yul\":1023:1028   */\n      dup2\n        /* \"#utility.yul\":997:1029   */\n      tag_90\n      jump\t// in\n    tag_111:\n        /* \"#utility.yul\":898:1035   */\n      swap3\n      swap2\n      pop\n      pop\n      jump\t// out\n        /* \"#utility.yul\":1041:1658   */\n    tag_14:\n        /* \"#utility.yul\":1117:1123   */\n      0x00\n        /* \"#utility.yul\":1125:1131   */\n      dup1\n        /* \"#utility.yul\":1133:1139   */\n      0x00\n        /* \"#utility.yul\":1182:1184   */\n      0x60\n        /* \"#utility.yul\":1170:1179   */\n      dup5\n        /* \"#utility.yul\":1161:1168   */\n      dup7\n        /* \"#utility.yul\":1157:1180   */\n      sub\n        /* \"#utility.yul\":1153:1185   */\n      slt\n        /* \"#utility.yul\":1150:1269   */\n      iszero\n      tag_113\n      jumpi\n        /* \"#utility.yul\":1188:1267   */\n      tag_114\n      tag_84\n      jump\t// in\n    tag_114:\n        /* \"#utility.yul\":1150:1269   */\n    tag_113:\n        /* \"#utility.yul\":1308:1309   */\n      0x00\n        /* \"#utility.yul\":1333:1386   */\n      tag_115\n        /* \"#utility.yul\":1378:1385   */\n      dup7\n        /* \"#utility.yul\":1369:1375   */\n      dup3\n        /* \"#utility.yul\":1358:1367   */\n      dup8\n        /* \"#utility.yul\":1354:1376   */\n      add\n        /* \"#utility.yul\":1333:1386   */\n      tag_88\n      jump\t// in\n    tag_115:\n        /* \"#utility.yul\":1323:1386   */\n      swap4\n      pop\n        /* \"#utility.yul\":1279:1396   */\n      pop\n        /* \"#utility.yul\":1435:1437   */\n      0x20\n        /* \"#utility.yul\":1461:1513   */\n      tag_116\n        /* \"#utility.yul\":1505:1512   */\n      dup7\n        /* \"#utility.yul\":1496:1502   */\n      dup3\n        /* \"#utility.yul\":1485:1494   */\n      dup8\n        /* \"#utility.yul\":1481:1503   */\n      add\n        /* \"#utility.yul\":1461:1513   */\n      tag_91\n      jump\t// in\n    tag_116:\n        /* \"#utility.yul\":1451:1513   */\n      swap3\n      pop\n        /* \"#utility.yul\":1406:1523   */\n      pop\n        /* \"#utility.yul\":1562:1564   */\n      0x40\n        /* \"#utility.yul\":1588:1641   */\n      tag_117\n        /* \"#utility.yul\":1633:1640   */\n      dup7\n        /* \"#utility.yul\":1624:1630   */\n      dup3\n        /* \"#utility.yul\":1613:1622   */\n      dup8\n        /* \"#utility.yul\":1609:1631   */\n      add\n        /* \"#utility.yul\":1588:1641   */\n      tag_88\n      jump\t// in\n    tag_117:\n        /* \"#utility.yul\":1578:1641   */\n      swap2\n      pop\n        /* \"#utility.yul\":1533:1651   */\n      pop\n        /* \"#utility.yul\":1041:1658   */\n      swap3\n      pop\n      swap3\n      pop\n      swap3\n      jump\t// out\n        /* \"#utility.yul\":1664:1782   */\n    tag_92:\n        /* \"#utility.yul\":1751:1775   */\n      tag_119\n        /* \"#utility.yul\":1769:1774   */\n      dup2\n        /* \"#utility.yul\":1751:1775   */\n      tag_86\n      jump\t// in\n    tag_119:\n        /* \"#utility.yul\":1746:1749   */\n      dup3\n        /* \"#utility.yul\":1739:1776   */\n      mstore\n        /* \"#utility.yul\":1664:1782   */\n      pop\n      pop\n      jump\t// out\n        /* \"#utility.yul\":1788:2010   */\n    tag_19:\n        /* \"#utility.yul\":1881:1885   */\n      0x00\n        /* \"#utility.yul\":1919:1921   */\n      0x20\n        /* \"#utility.yul\":1908:1917   */\n      dup3\n        /* \"#utility.yul\":1904:1922   */\n      add\n        /* \"#utility.yul\":1896:1922   */\n      swap1\n      pop\n        /* \"#utility.yul\":1932:2003   */\n      tag_121\n        /* \"#utility.yul\":2000:2001   */\n      0x00\n        /* \"#utility.yul\":1989:1998   */\n      dup4\n        /* \"#utility.yul\":1985:2002   */\n      add\n        /* \"#utility.yul\":1976:1982   */\n      dup5\n        /* \"#utility.yul\":1932:2003   */\n      tag_92\n      jump\t// in\n    tag_121:\n        /* \"#utility.yul\":1788:2010   */\n      swap3\n      swap2\n      pop\n      pop\n      jump\t// out\n        /* \"#utility.yul\":2016:2490   */\n    tag_25:\n        /* \"#utility.yul\":2084:2090   */\n      0x00\n        /* \"#utility.yul\":2092:2098   */\n      dup1\n        /* \"#utility.yul\":2141:2143   */\n      0x40\n        /* \"#utility.yul\":2129:2138   */\n      dup4\n        /* \"#utility.yul\":2120:2127   */\n      dup6\n        /* \"#utility.yul\":2116:2139   */\n      sub\n        /* \"#utility.yul\":2112:2144   */\n      slt\n        /* \"#utility.yul\":2109:2228   */\n      iszero\n      tag_123\n      jumpi\n        /* \"#utility.yul\":2147:2226   */\n      tag_124\n      tag_84\n      jump\t// in\n    tag_124:\n        /* \"#utility.yul\":2109:2228   */\n    tag_123:\n        /* \"#utility.yul\":2267:2268   */\n      0x00\n        /* \"#utility.yul\":2292:2345   */\n      tag_125\n        /* \"#utility.yul\":2337:2344   */\n      dup6\n        /* \"#utility.yul\":2328:2334   */\n      dup3\n        /* \"#utility.yul\":2317:2326   */\n      dup7\n        /* \"#utility.yul\":2313:2335   */\n      add\n        /* \"#utility.yul\":2292:2345   */\n      tag_88\n      jump\t// in\n    tag_125:\n        /* \"#utility.yul\":2282:2345   */\n      swap3\n      pop\n        /* \"#utility.yul\":2238:2355   */\n      pop\n        /* \"#utility.yul\":2394:2396   */\n      0x20\n        /* \"#utility.yul\":2420:2473   */\n      tag_126\n        /* \"#utility.yul\":2465:2472   */\n      dup6\n        /* \"#utility.yul\":2456:2462   */\n      dup3\n        /* \"#utility.yul\":2445:2454   */\n      dup7\n        /* \"#utility.yul\":2441:2463   */\n      add\n        /* \"#utility.yul\":2420:2473   */\n      tag_88\n      jump\t// in\n    tag_126:\n        /* \"#utility.yul\":2410:2473   */\n      swap2\n      pop\n        /* \"#utility.yul\":2365:2483   */\n      pop\n        /* \"#utility.yul\":2016:2490   */\n      swap3\n      pop\n      swap3\n      swap1\n      pop\n      jump\t// out\n        /* \"#utility.yul\":2496:3160   */\n    tag_30:\n        /* \"#utility.yul\":2701:2705   */\n      0x00\n        /* \"#utility.yul\":2739:2742   */\n      0xa0\n        /* \"#utility.yul\":2728:2737   */\n      dup3\n        /* \"#utility.yul\":2724:2743   */\n      add\n        /* \"#utility.yul\":2716:2743   */\n      swap1\n      pop\n        /* \"#utility.yul\":2753:2824   */\n      tag_128\n        /* \"#utility.yul\":2821:2822   */\n      0x00\n        /* \"#utility.yul\":2810:2819   */\n      dup4\n        /* \"#utility.yul\":2806:2823   */\n      add\n        /* \"#utility.yul\":2797:2803   */\n      dup9\n        /* \"#utility.yul\":2753:2824   */\n      tag_92\n      jump\t// in\n    tag_128:\n        /* \"#utility.yul\":2834:2906   */\n      tag_129\n        /* \"#utility.yul\":2902:2904   */\n      0x20\n        /* \"#utility.yul\":2891:2900   */\n      dup4\n        /* \"#utility.yul\":2887:2905   */\n      add\n        /* \"#utility.yul\":2878:2884   */\n      dup8\n        /* \"#utility.yul\":2834:2906   */\n      tag_92\n      jump\t// in\n    tag_129:\n        /* \"#utility.yul\":2916:2988   */\n      tag_130\n        /* \"#utility.yul\":2984:2986   */\n      0x40\n        /* \"#utility.yul\":2973:2982   */\n      dup4\n        /* \"#utility.yul\":2969:2987   */\n      add\n        /* \"#utility.yul\":2960:2966   */\n      dup7\n        /* \"#utility.yul\":2916:2988   */\n      tag_92\n      jump\t// in\n    tag_130:\n        /* \"#utility.yul\":2998:3070   */\n      tag_131\n        /* \"#utility.yul\":3066:3068   */\n      0x60\n        /* \"#utility.yul\":3055:3064   */\n      dup4\n        /* \"#utility.yul\":3051:3069   */\n      add\n        /* \"#utility.yul\":3042:3048   */\n      dup6\n        /* \"#utility.yul\":2998:3070   */\n      tag_92\n      jump\t// in\n    tag_131:\n        /* \"#utility.yul\":3080:3153   */\n      tag_132\n        /* \"#utility.yul\":3148:3151   */\n      0x80\n        /* \"#utility.yul\":3137:3146   */\n      dup4\n        /* \"#utility.yul\":3133:3152   */\n      add\n        /* \"#utility.yul\":3124:3130   */\n      dup5\n        /* \"#utility.yul\":3080:3153   */\n      tag_92\n      jump\t// in\n    tag_132:\n        /* \"#utility.yul\":2496:3160   */\n      swap7\n      swap6\n      pop\n      pop\n      pop\n      pop\n      pop\n      pop\n      jump\t// out\n        /* \"#utility.yul\":3166:3292   */\n    tag_93:\n        /* \"#utility.yul\":3261:3285   */\n      tag_134\n        /* \"#utility.yul\":3279:3284   */\n      dup2\n        /* \"#utility.yul\":3261:3285   */\n      tag_86\n      jump\t// in\n    tag_134:\n        /* \"#utility.yul\":3256:3259   */\n      dup3\n        /* \"#utility.yul\":3249:3286   */\n      mstore\n        /* \"#utility.yul\":3166:3292   */\n      pop\n      pop\n      jump\t// out\n        /* \"#utility.yul\":3298:3536   */\n    tag_42:\n        /* \"#utility.yul\":3399:3403   */\n      0x00\n        /* \"#utility.yul\":3437:3439   */\n      0x20\n        /* \"#utility.yul\":3426:3435   */\n      dup3\n        /* \"#utility.yul\":3422:3440   */\n      add\n        /* \"#utility.yul\":3414:3440   */\n      swap1\n      pop\n        /* \"#utility.yul\":3450:3529   */\n      tag_136\n        /* \"#utility.yul\":3526:3527   */\n      0x00\n        /* \"#utility.yul\":3515:3524   */\n      dup4\n        /* \"#utility.yul\":3511:3528   */\n      add\n        /* \"#utility.yul\":3502:3508   */\n      dup5\n        /* \"#utility.yul\":3450:3529   */\n      tag_93\n      jump\t// in\n    tag_136:\n        /* \"#utility.yul\":3298:3536   */\n      swap3\n      swap2\n      pop\n      pop\n      jump\t// out\n        /* \"#utility.yul\":3542:3685   */\n    tag_94:\n        /* \"#utility.yul\":3599:3604   */\n      0x00\n        /* \"#utility.yul\":3630:3636   */\n      dup2\n        /* \"#utility.yul\":3624:3637   */\n      mload\n        /* \"#utility.yul\":3615:3637   */\n      swap1\n      pop\n        /* \"#utility.yul\":3646:3679   */\n      tag_138\n        /* \"#utility.yul\":3673:3678   */\n      dup2\n        /* \"#utility.yul\":3646:3679   */\n      tag_87\n      jump\t// in\n    tag_138:\n        /* \"#utility.yul\":3542:3685   */\n      swap3\n      swap2\n      pop\n      pop\n      jump\t// out\n        /* \"#utility.yul\":3691:4042   */\n    tag_46:\n        /* \"#utility.yul\":3761:3767   */\n      0x00\n        /* \"#utility.yul\":3810:3812   */\n      0x20\n        /* \"#utility.yul\":3798:3807   */\n      dup3\n        /* \"#utility.yul\":3789:3796   */\n      dup5\n        /* \"#utility.yul\":3785:3808   */\n      sub\n        /* \"#utility.yul\":3781:3813   */\n      slt\n        /* \"#utility.yul\":3778:3897   */\n      iszero\n      tag_140\n      jumpi\n        /* \"#utility.yul\":3816:3895   */\n      tag_141\n      tag_84\n      jump\t// in\n    tag_141:\n        /* \"#utility.yul\":3778:3897   */\n    tag_140:\n        /* \"#utility.yul\":3936:3937   */\n      0x00\n        /* \"#utility.yul\":3961:4025   */\n      tag_142\n        /* \"#utility.yul\":4017:4024   */\n      dup5\n        /* \"#utility.yul\":4008:4014   */\n      dup3\n        /* \"#utility.yul\":3997:4006   */\n      dup6\n        /* \"#utility.yul\":3993:4015   */\n      add\n        /* \"#utility.yul\":3961:4025   */\n      tag_94\n      jump\t// in\n    tag_142:\n        /* \"#utility.yul\":3951:4025   */\n      swap2\n      pop\n        /* \"#utility.yul\":3907:4035   */\n      pop\n        /* \"#utility.yul\":3691:4042   */\n      swap3\n      swap2\n      pop\n      pop\n      jump\t// out\n        /* \"#utility.yul\":4048:4171   */\n    tag_95:\n        /* \"#utility.yul\":4141:4164   */\n      tag_144\n        /* \"#utility.yul\":4158:4163   */\n      dup2\n        /* \"#utility.yul\":4141:4164   */\n      tag_89\n      jump\t// in\n    tag_144:\n        /* \"#utility.yul\":4136:4139   */\n      dup3\n        /* \"#utility.yul\":4129:4165   */\n      mstore\n        /* \"#utility.yul\":4048:4171   */\n      pop\n      pop\n      jump\t// out\n        /* \"#utility.yul\":4177:4411   */\n    tag_48:\n        /* \"#utility.yul\":4276:4280   */\n      0x00\n        /* \"#utility.yul\":4314:4316   */\n      0x20\n        /* \"#utility.yul\":4303:4312   */\n      dup3\n        /* \"#utility.yul\":4299:4317   */\n      add\n        /* \"#utility.yul\":4291:4317   */\n      swap1\n      pop\n        /* \"#utility.yul\":4327:4404   */\n      tag_146\n        /* \"#utility.yul\":4401:4402   */\n      0x00\n        /* \"#utility.yul\":4390:4399   */\n      dup4\n        /* \"#utility.yul\":4386:4403   */\n      add\n        /* \"#utility.yul\":4377:4383   */\n      dup5\n        /* \"#utility.yul\":4327:4404   */\n      tag_95\n      jump\t// in\n    tag_146:\n        /* \"#utility.yul\":4177:4411   */\n      swap3\n      swap2\n      pop\n      pop\n      jump\t// out\n        /* \"#utility.yul\":4417:4773   */\n    tag_57:\n        /* \"#utility.yul\":4546:4550   */\n      0x00\n        /* \"#utility.yul\":4584:4586   */\n      0x40\n        /* \"#utility.yul\":4573:4582   */\n      dup3\n        /* \"#utility.yul\":4569:4587   */\n      add\n        /* \"#utility.yul\":4561:4587   */\n      swap1\n      pop\n        /* \"#utility.yul\":4597:4676   */\n      tag_148\n        /* \"#utility.yul\":4673:4674   */\n      0x00\n        /* \"#utility.yul\":4662:4671   */\n      dup4\n        /* \"#utility.yul\":4658:4675   */\n      add\n        /* \"#utility.yul\":4649:4655   */\n      dup6\n        /* \"#utility.yul\":4597:4676   */\n      tag_93\n      jump\t// in\n    tag_148:\n        /* \"#utility.yul\":4686:4766   */\n      tag_149\n        /* \"#utility.yul\":4762:4764   */\n      0x20\n        /* \"#utility.yul\":4751:4760   */\n      dup4\n        /* \"#utility.yul\":4747:4765   */\n      add\n        /* \"#utility.yul\":4738:4744   */\n      dup5\n        /* \"#utility.yul\":4686:4766   */\n      tag_93\n      jump\t// in\n    tag_149:\n        /* \"#utility.yul\":4417:4773   */\n      swap4\n      swap3\n      pop\n      pop\n      pop\n      jump\t// out\n\n    auxdata: 0xa2646970667358221220af23e3854a7ac4ba40591362a6d9bbc7ede24e849c51c0e99140d9118793998f64736f6c634300081a0033\n}\n",
				"bytecode": {
					"linkReferences": {
						"ClassTest II/Math.sol": {
							"MathLibrary": [
								{
									"length": 20,
									"start": 407
								},
								{
									"length": 20,
									"start": 530
								},
								{
									"length": 20,
									"start": 654
								},
								{
									"length": 20,
									"start": 778
								},
								{
									"length": 20,
									"start": 904
								},
								{
									"length": 20,
									"start": 1048
								},
								{
									"length": 20,
									"start": 1173
								},
								{
									"length": 20,
									"start": 1298
								},
								{
									"length": 20,
									"start": 1424
								}
							]
						}
					},
					"object": "6080604052348015600e575f80fd5b506108868061001c5f395ff3fe608060405234801561000f575f80fd5b5060043610610085575f3560e01c80634717f97c116100595780634717f97c146100fd578063505e4f3c1461011f5780635d109aea1461013d578063887deb911461015b57610085565b80625dc652146100895780632abcd00b146100a55780632ae16b2f146100c3578063355b2a3a146100e1575b5f80fd5b6100a3600480360381019061009e9190610693565b610179565b005b6100ad6103ed565b6040516100ba91906106f2565b60405180910390f35b6100cb6103f3565b6040516100d891906106f2565b60405180910390f35b6100fb60048036038101906100f6919061070b565b6103f9565b005b6101056105f4565b604051610116959493929190610749565b60405180910390f35b610127610618565b60405161013491906106f2565b60405180910390f35b61014561061e565b60405161015291906106f2565b60405180910390f35b610163610624565b60405161017091906106f2565b60405180910390f35b73__$e9d9e6914882cf445d7c173a7b879c23fb$__63677342ce846040518263ffffffff1660e01b81526004016101b091906107a9565b602060405180830381865af41580156101cb573d5f803e3d5ffd5b505050506040513d601f19601f820116820180604052508101906101ef91906107d6565b5f8190555073__$e9d9e6914882cf445d7c173a7b879c23fb$__631b5ac4b5836040518263ffffffff1660e01b815260040161022b9190610810565b602060405180830381865af4158015610246573d5f803e3d5ffd5b505050506040513d601f19601f8201168201806040525081019061026a91906107d6565b60018190555073__$e9d9e6914882cf445d7c173a7b879c23fb$__637b292909846040518263ffffffff1660e01b81526004016102a791906107a9565b602060405180830381865af41580156102c2573d5f803e3d5ffd5b505050506040513d601f19601f820116820180604052508101906102e691906107d6565b60028190555073__$e9d9e6914882cf445d7c173a7b879c23fb$__636d5433e684836040518363ffffffff1660e01b8152600401610325929190610829565b602060405180830381865af4158015610340573d5f803e3d5ffd5b505050506040513d601f19601f8201168201806040525081019061036491906107d6565b60038190555073__$e9d9e6914882cf445d7c173a7b879c23fb$__637ae2b5c784836040518363ffffffff1660e01b81526004016103a3929190610829565b602060405180830381865af41580156103be573d5f803e3d5ffd5b505050506040513d601f19601f820116820180604052508101906103e291906107d6565b600481905550505050565b60025481565b60015481565b8173__$e9d9e6914882cf445d7c173a7b879c23fb$__63677342ce90916040518263ffffffff1660e01b815260040161043291906107a9565b602060405180830381865af415801561044d573d5f803e3d5ffd5b505050506040513d601f19601f8201168201806040525081019061047191906107d6565b5f819055508173__$e9d9e6914882cf445d7c173a7b879c23fb$__637b29290990916040518263ffffffff1660e01b81526004016104af91906107a9565b602060405180830381865af41580156104ca573d5f803e3d5ffd5b505050506040513d601f19601f820116820180604052508101906104ee91906107d6565b60028190555073__$e9d9e6914882cf445d7c173a7b879c23fb$__636d5433e683836040518363ffffffff1660e01b815260040161052d929190610829565b602060405180830381865af4158015610548573d5f803e3d5ffd5b505050506040513d601f19601f8201168201806040525081019061056c91906107d6565b60038190555073__$e9d9e6914882cf445d7c173a7b879c23fb$__637ae2b5c783836040518363ffffffff1660e01b81526004016105ab929190610829565b602060405180830381865af41580156105c6573d5f803e3d5ffd5b505050506040513d601f19601f820116820180604052508101906105ea91906107d6565b6004819055505050565b5f805f805f8054600154600254600354600454945094509450945094509091929394565b60045481565b60035481565b5f5481565b5f80fd5b5f819050919050565b61063f8161062d565b8114610649575f80fd5b50565b5f8135905061065a81610636565b92915050565b5f819050919050565b61067281610660565b811461067c575f80fd5b50565b5f8135905061068d81610669565b92915050565b5f805f606084860312156106aa576106a9610629565b5b5f6106b78682870161064c565b93505060206106c88682870161067f565b92505060406106d98682870161064c565b9150509250925092565b6106ec8161062d565b82525050565b5f6020820190506107055f8301846106e3565b92915050565b5f806040838503121561072157610720610629565b5b5f61072e8582860161064c565b925050602061073f8582860161064c565b9150509250929050565b5f60a08201905061075c5f8301886106e3565b61076960208301876106e3565b61077660408301866106e3565b61078360608301856106e3565b61079060808301846106e3565b9695505050505050565b6107a38161062d565b82525050565b5f6020820190506107bc5f83018461079a565b92915050565b5f815190506107d081610636565b92915050565b5f602082840312156107eb576107ea610629565b5b5f6107f8848285016107c2565b91505092915050565b61080a81610660565b82525050565b5f6020820190506108235f830184610801565b92915050565b5f60408201905061083c5f83018561079a565b610849602083018461079a565b939250505056fea2646970667358221220af23e3854a7ac4ba40591362a6d9bbc7ede24e849c51c0e99140d9118793998f64736f6c634300081a0033",
					"opcodes": "PUSH1 0x80 PUSH1 0x40 MSTORE CALLVALUE DUP1 ISZERO PUSH1 0xE JUMPI PUSH0 DUP1 REVERT JUMPDEST POP PUSH2 0x886 DUP1 PUSH2 0x1C PUSH0 CODECOPY PUSH0 RETURN INVALID PUSH1 0x80 PUSH1 0x40 MSTORE CALLVALUE DUP1 ISZERO PUSH2 0xF JUMPI PUSH0 DUP1 REVERT JUMPDEST POP PUSH1 0x4 CALLDATASIZE LT PUSH2 0x85 JUMPI PUSH0 CALLDATALOAD PUSH1 0xE0 SHR DUP1 PUSH4 0x4717F97C GT PUSH2 0x59 JUMPI DUP1 PUSH4 0x4717F97C EQ PUSH2 0xFD JUMPI DUP1 PUSH4 0x505E4F3C EQ PUSH2 0x11F JUMPI DUP1 PUSH4 0x5D109AEA EQ PUSH2 0x13D JUMPI DUP1 PUSH4 0x887DEB91 EQ PUSH2 0x15B JUMPI PUSH2 0x85 JUMP JUMPDEST DUP1 PUSH3 0x5DC652 EQ PUSH2 0x89 JUMPI DUP1 PUSH4 0x2ABCD00B EQ PUSH2 0xA5 JUMPI DUP1 PUSH4 0x2AE16B2F EQ PUSH2 0xC3 JUMPI DUP1 PUSH4 0x355B2A3A EQ PUSH2 0xE1 JUMPI JUMPDEST PUSH0 DUP1 REVERT JUMPDEST PUSH2 0xA3 PUSH1 0x4 DUP1 CALLDATASIZE SUB DUP2 ADD SWAP1 PUSH2 0x9E SWAP2 SWAP1 PUSH2 0x693 JUMP JUMPDEST PUSH2 0x179 JUMP JUMPDEST STOP JUMPDEST PUSH2 0xAD PUSH2 0x3ED JUMP JUMPDEST PUSH1 0x40 MLOAD PUSH2 0xBA SWAP2 SWAP1 PUSH2 0x6F2 JUMP JUMPDEST PUSH1 0x40 MLOAD DUP1 SWAP2 SUB SWAP1 RETURN JUMPDEST PUSH2 0xCB PUSH2 0x3F3 JUMP JUMPDEST PUSH1 0x40 MLOAD PUSH2 0xD8 SWAP2 SWAP1 PUSH2 0x6F2 JUMP JUMPDEST PUSH1 0x40 MLOAD DUP1 SWAP2 SUB SWAP1 RETURN JUMPDEST PUSH2 0xFB PUSH1 0x4 DUP1 CALLDATASIZE SUB DUP2 ADD SWAP1 PUSH2 0xF6 SWAP2 SWAP1 PUSH2 0x70B JUMP JUMPDEST PUSH2 0x3F9 JUMP JUMPDEST STOP JUMPDEST PUSH2 0x105 PUSH2 0x5F4 JUMP JUMPDEST PUSH1 0x40 MLOAD PUSH2 0x116 SWAP6 SWAP5 SWAP4 SWAP3 SWAP2 SWAP1 PUSH2 0x749 JUMP JUMPDEST PUSH1 0x40 MLOAD DUP1 SWAP2 SUB SWAP1 RETURN JUMPDEST PUSH2 0x127 PUSH2 0x618 JUMP JUMPDEST PUSH1 0x40 MLOAD PUSH2 0x134 SWAP2 SWAP1 PUSH2 0x6F2 JUMP JUMPDEST PUSH1 0x40 MLOAD DUP1 SWAP2 SUB SWAP1 RETURN JUMPDEST PUSH2 0x145 PUSH2 0x61E JUMP JUMPDEST PUSH1 0x40 MLOAD PUSH2 0x152 SWAP2 SWAP1 PUSH2 0x6F2 JUMP JUMPDEST PUSH1 0x40 MLOAD DUP1 SWAP2 SUB SWAP1 RETURN JUMPDEST PUSH2 0x163 PUSH2 0x624 JUMP JUMPDEST PUSH1 0x40 MLOAD PUSH2 0x170 SWAP2 SWAP1 PUSH2 0x6F2 JUMP JUMPDEST PUSH1 0x40 MLOAD DUP1 SWAP2 SUB SWAP1 RETURN JUMPDEST PUSH20 0x0 PUSH4 0x677342CE DUP5 PUSH1 0x40 MLOAD DUP3 PUSH4 0xFFFFFFFF AND PUSH1 0xE0 SHL DUP2 MSTORE PUSH1 0x4 ADD PUSH2 0x1B0 SWAP2 SWAP1 PUSH2 0x7A9 JUMP JUMPDEST PUSH1 0x20 PUSH1 0x40 MLOAD DUP1 DUP4 SUB DUP2 DUP7 GAS DELEGATECALL ISZERO DUP1 ISZERO PUSH2 0x1CB JUMPI RETURNDATASIZE PUSH0 DUP1 RETURNDATACOPY RETURNDATASIZE PUSH0 REVERT JUMPDEST POP POP POP POP PUSH1 0x40 MLOAD RETURNDATASIZE PUSH1 0x1F NOT PUSH1 0x1F DUP3 ADD AND DUP3 ADD DUP1 PUSH1 0x40 MSTORE POP DUP2 ADD SWAP1 PUSH2 0x1EF SWAP2 SWAP1 PUSH2 0x7D6 JUMP JUMPDEST PUSH0 DUP2 SWAP1 SSTORE POP PUSH20 0x0 PUSH4 0x1B5AC4B5 DUP4 PUSH1 0x40 MLOAD DUP3 PUSH4 0xFFFFFFFF AND PUSH1 0xE0 SHL DUP2 MSTORE PUSH1 0x4 ADD PUSH2 0x22B SWAP2 SWAP1 PUSH2 0x810 JUMP JUMPDEST PUSH1 0x20 PUSH1 0x40 MLOAD DUP1 DUP4 SUB DUP2 DUP7 GAS DELEGATECALL ISZERO DUP1 ISZERO PUSH2 0x246 JUMPI RETURNDATASIZE PUSH0 DUP1 RETURNDATACOPY RETURNDATASIZE PUSH0 REVERT JUMPDEST POP POP POP POP PUSH1 0x40 MLOAD RETURNDATASIZE PUSH1 0x1F NOT PUSH1 0x1F DUP3 ADD AND DUP3 ADD DUP1 PUSH1 0x40 MSTORE POP DUP2 ADD SWAP1 PUSH2 0x26A SWAP2 SWAP1 PUSH2 0x7D6 JUMP JUMPDEST PUSH1 0x1 DUP2 SWAP1 SSTORE POP PUSH20 0x0 PUSH4 0x7B292909 DUP5 PUSH1 0x40 MLOAD DUP3 PUSH4 0xFFFFFFFF AND PUSH1 0xE0 SHL DUP2 MSTORE PUSH1 0x4 ADD PUSH2 0x2A7 SWAP2 SWAP1 PUSH2 0x7A9 JUMP JUMPDEST PUSH1 0x20 PUSH1 0x40 MLOAD DUP1 DUP4 SUB DUP2 DUP7 GAS DELEGATECALL ISZERO DUP1 ISZERO PUSH2 0x2C2 JUMPI RETURNDATASIZE PUSH0 DUP1 RETURNDATACOPY RETURNDATASIZE PUSH0 REVERT JUMPDEST POP POP POP POP PUSH1 0x40 MLOAD RETURNDATASIZE PUSH1 0x1F NOT PUSH1 0x1F DUP3 ADD AND DUP3 ADD DUP1 PUSH1 0x40 MSTORE POP DUP2 ADD SWAP1 PUSH2 0x2E6 SWAP2 SWAP1 PUSH2 0x7D6 JUMP JUMPDEST PUSH1 0x2 DUP2 SWAP1 SSTORE POP PUSH20 0x0 PUSH4 0x6D5433E6 DUP5 DUP4 PUSH1 0x40 MLOAD DUP4 PUSH4 0xFFFFFFFF AND PUSH1 0xE0 SHL DUP2 MSTORE PUSH1 0x4 ADD PUSH2 0x325 SWAP3 SWAP2 SWAP1 PUSH2 0x829 JUMP JUMPDEST PUSH1 0x20 PUSH1 0x40 MLOAD DUP1 DUP4 SUB DUP2 DUP7 GAS DELEGATECALL ISZERO DUP1 ISZERO PUSH2 0x340 JUMPI RETURNDATASIZE PUSH0 DUP1 RETURNDATACOPY RETURNDATASIZE PUSH0 REVERT JUMPDEST POP POP POP POP PUSH1 0x40 MLOAD RETURNDATASIZE PUSH1 0x1F NOT PUSH1 0x1F DUP3 ADD AND DUP3 ADD DUP1 PUSH1 0x40 MSTORE POP DUP2 ADD SWAP1 PUSH2 0x364 SWAP2 SWAP1 PUSH2 0x7D6 JUMP JUMPDEST PUSH1 0x3 DUP2 SWAP1 SSTORE POP PUSH20 0x0 PUSH4 0x7AE2B5C7 DUP5 DUP4 PUSH1 0x40 MLOAD DUP4 PUSH4 0xFFFFFFFF AND PUSH1 0xE0 SHL DUP2 MSTORE PUSH1 0x4 ADD PUSH2 0x3A3 SWAP3 SWAP2 SWAP1 PUSH2 0x829 JUMP JUMPDEST PUSH1 0x20 PUSH1 0x40 MLOAD DUP1 DUP4 SUB DUP2 DUP7 GAS DELEGATECALL ISZERO DUP1 ISZERO PUSH2 0x3BE JUMPI RETURNDATASIZE PUSH0 DUP1 RETURNDATACOPY RETURNDATASIZE PUSH0 REVERT JUMPDEST POP POP POP POP PUSH1 0x40 MLOAD RETURNDATASIZE PUSH1 0x1F NOT PUSH1 0x1F DUP3 ADD AND DUP3 ADD DUP1 PUSH1 0x40 MSTORE POP DUP2 ADD SWAP1 PUSH2 0x3E2 SWAP2 SWAP1 PUSH2 0x7D6 JUMP JUMPDEST PUSH1 0x4 DUP2 SWAP1 SSTORE POP POP POP POP JUMP JUMPDEST PUSH1 0x2 SLOAD DUP2 JUMP JUMPDEST PUSH1 0x1 SLOAD DUP2 JUMP JUMPDEST DUP2 PUSH20 0x0 PUSH4 0x677342CE SWAP1 SWAP2 PUSH1 0x40 MLOAD DUP3 PUSH4 0xFFFFFFFF AND PUSH1 0xE0 SHL DUP2 MSTORE PUSH1 0x4 ADD PUSH2 0x432 SWAP2 SWAP1 PUSH2 0x7A9 JUMP JUMPDEST PUSH1 0x20 PUSH1 0x40 MLOAD DUP1 DUP4 SUB DUP2 DUP7 GAS DELEGATECALL ISZERO DUP1 ISZERO PUSH2 0x44D JUMPI RETURNDATASIZE PUSH0 DUP1 RETURNDATACOPY RETURNDATASIZE PUSH0 REVERT JUMPDEST POP POP POP POP PUSH1 0x40 MLOAD RETURNDATASIZE PUSH1 0x1F NOT PUSH1 0x1F DUP3 ADD AND DUP3 ADD DUP1 PUSH1 0x40 MSTORE POP DUP2 ADD SWAP1 PUSH2 0x471 SWAP2 SWAP1 PUSH2 0x7D6 JUMP JUMPDEST PUSH0 DUP2 SWAP1 SSTORE POP DUP2 PUSH20 0x0 PUSH4 0x7B292909 SWAP1 SWAP2 PUSH1 0x40 MLOAD DUP3 PUSH4 0xFFFFFFFF AND PUSH1 0xE0 SHL DUP2 MSTORE PUSH1 0x4 ADD PUSH2 0x4AF SWAP2 SWAP1 PUSH2 0x7A9 JUMP JUMPDEST PUSH1 0x20 PUSH1 0x40 MLOAD DUP1 DUP4 SUB DUP2 DUP7 GAS DELEGATECALL ISZERO DUP1 ISZERO PUSH2 0x4CA JUMPI RETURNDATASIZE PUSH0 DUP1 RETURNDATACOPY RETURNDATASIZE PUSH0 REVERT JUMPDEST POP POP POP POP PUSH1 0x40 MLOAD RETURNDATASIZE PUSH1 0x1F NOT PUSH1 0x1F DUP3 ADD AND DUP3 ADD DUP1 PUSH1 0x40 MSTORE POP DUP2 ADD SWAP1 PUSH2 0x4EE SWAP2 SWAP1 PUSH2 0x7D6 JUMP JUMPDEST PUSH1 0x2 DUP2 SWAP1 SSTORE POP PUSH20 0x0 PUSH4 0x6D5433E6 DUP4 DUP4 PUSH1 0x40 MLOAD DUP4 PUSH4 0xFFFFFFFF AND PUSH1 0xE0 SHL DUP2 MSTORE PUSH1 0x4 ADD PUSH2 0x52D SWAP3 SWAP2 SWAP1 PUSH2 0x829 JUMP JUMPDEST PUSH1 0x20 PUSH1 0x40 MLOAD DUP1 DUP4 SUB DUP2 DUP7 GAS DELEGATECALL ISZERO DUP1 ISZERO PUSH2 0x548 JUMPI RETURNDATASIZE PUSH0 DUP1 RETURNDATACOPY RETURNDATASIZE PUSH0 REVERT JUMPDEST POP POP POP POP PUSH1 0x40 MLOAD RETURNDATASIZE PUSH1 0x1F NOT PUSH1 0x1F DUP3 ADD AND DUP3 ADD DUP1 PUSH1 0x40 MSTORE POP DUP2 ADD SWAP1 PUSH2 0x56C SWAP2 SWAP1 PUSH2 0x7D6 JUMP JUMPDEST PUSH1 0x3 DUP2 SWAP1 SSTORE POP PUSH20 0x0 PUSH4 0x7AE2B5C7 DUP4 DUP4 PUSH1 0x40 MLOAD DUP4 PUSH4 0xFFFFFFFF AND PUSH1 0xE0 SHL DUP2 MSTORE PUSH1 0x4 ADD PUSH2 0x5AB SWAP3 SWAP2 SWAP1 PUSH2 0x829 JUMP JUMPDEST PUSH1 0x20 PUSH1 0x40 MLOAD DUP1 DUP4 SUB DUP2 DUP7 GAS DELEGATECALL ISZERO DUP1 ISZERO PUSH2 0x5C6 JUMPI RETURNDATASIZE PUSH0 DUP1 RETURNDATACOPY RETURNDATASIZE PUSH0 REVERT JUMPDEST POP POP POP POP PUSH1 0x40 MLOAD RETURNDATASIZE PUSH1 0x1F NOT PUSH1 0x1F DUP3 ADD AND DUP3 ADD DUP1 PUSH1 0x40 MSTORE POP DUP2 ADD SWAP1 PUSH2 0x5EA SWAP2 SWAP1 PUSH2 0x7D6 JUMP JUMPDEST PUSH1 0x4 DUP2 SWAP1 SSTORE POP POP POP JUMP JUMPDEST PUSH0 DUP1 PUSH0 DUP1 PUSH0 DUP1 SLOAD PUSH1 0x1 SLOAD PUSH1 0x2 SLOAD PUSH1 0x3 SLOAD PUSH1 0x4 SLOAD SWAP5 POP SWAP5 POP SWAP5 POP SWAP5 POP SWAP5 POP SWAP1 SWAP2 SWAP3 SWAP4 SWAP5 JUMP JUMPDEST PUSH1 0x4 SLOAD DUP2 JUMP JUMPDEST PUSH1 0x3 SLOAD DUP2 JUMP JUMPDEST PUSH0 SLOAD DUP2 JUMP JUMPDEST PUSH0 DUP1 REVERT JUMPDEST PUSH0 DUP2 SWAP1 POP SWAP2 SWAP1 POP JUMP JUMPDEST PUSH2 0x63F DUP2 PUSH2 0x62D JUMP JUMPDEST DUP2 EQ PUSH2 0x649 JUMPI PUSH0 DUP1 REVERT JUMPDEST POP JUMP JUMPDEST PUSH0 DUP2 CALLDATALOAD SWAP1 POP PUSH2 0x65A DUP2 PUSH2 0x636 JUMP JUMPDEST SWAP3 SWAP2 POP POP JUMP JUMPDEST PUSH0 DUP2 SWAP1 POP SWAP2 SWAP1 POP JUMP JUMPDEST PUSH2 0x672 DUP2 PUSH2 0x660 JUMP JUMPDEST DUP2 EQ PUSH2 0x67C JUMPI PUSH0 DUP1 REVERT JUMPDEST POP JUMP JUMPDEST PUSH0 DUP2 CALLDATALOAD SWAP1 POP PUSH2 0x68D DUP2 PUSH2 0x669 JUMP JUMPDEST SWAP3 SWAP2 POP POP JUMP JUMPDEST PUSH0 DUP1 PUSH0 PUSH1 0x60 DUP5 DUP7 SUB SLT ISZERO PUSH2 0x6AA JUMPI PUSH2 0x6A9 PUSH2 0x629 JUMP JUMPDEST JUMPDEST PUSH0 PUSH2 0x6B7 DUP7 DUP3 DUP8 ADD PUSH2 0x64C JUMP JUMPDEST SWAP4 POP POP PUSH1 0x20 PUSH2 0x6C8 DUP7 DUP3 DUP8 ADD PUSH2 0x67F JUMP JUMPDEST SWAP3 POP POP PUSH1 0x40 PUSH2 0x6D9 DUP7 DUP3 DUP8 ADD PUSH2 0x64C JUMP JUMPDEST SWAP2 POP POP SWAP3 POP SWAP3 POP SWAP3 JUMP JUMPDEST PUSH2 0x6EC DUP2 PUSH2 0x62D JUMP JUMPDEST DUP3 MSTORE POP POP JUMP JUMPDEST PUSH0 PUSH1 0x20 DUP3 ADD SWAP1 POP PUSH2 0x705 PUSH0 DUP4 ADD DUP5 PUSH2 0x6E3 JUMP JUMPDEST SWAP3 SWAP2 POP POP JUMP JUMPDEST PUSH0 DUP1 PUSH1 0x40 DUP4 DUP6 SUB SLT ISZERO PUSH2 0x721 JUMPI PUSH2 0x720 PUSH2 0x629 JUMP JUMPDEST JUMPDEST PUSH0 PUSH2 0x72E DUP6 DUP3 DUP7 ADD PUSH2 0x64C JUMP JUMPDEST SWAP3 POP POP PUSH1 0x20 PUSH2 0x73F DUP6 DUP3 DUP7 ADD PUSH2 0x64C JUMP JUMPDEST SWAP2 POP POP SWAP3 POP SWAP3 SWAP1 POP JUMP JUMPDEST PUSH0 PUSH1 0xA0 DUP3 ADD SWAP1 POP PUSH2 0x75C PUSH0 DUP4 ADD DUP9 PUSH2 0x6E3 JUMP JUMPDEST PUSH2 0x769 PUSH1 0x20 DUP4 ADD DUP8 PUSH2 0x6E3 JUMP JUMPDEST PUSH2 0x776 PUSH1 0x40 DUP4 ADD DUP7 PUSH2 0x6E3 JUMP JUMPDEST PUSH2 0x783 PUSH1 0x60 DUP4 ADD DUP6 PUSH2 0x6E3 JUMP JUMPDEST PUSH2 0x790 PUSH1 0x80 DUP4 ADD DUP5 PUSH2 0x6E3 JUMP JUMPDEST SWAP7 SWAP6 POP POP POP POP POP POP JUMP JUMPDEST PUSH2 0x7A3 DUP2 PUSH2 0x62D JUMP JUMPDEST DUP3 MSTORE POP POP JUMP JUMPDEST PUSH0 PUSH1 0x20 DUP3 ADD SWAP1 POP PUSH2 0x7BC PUSH0 DUP4 ADD DUP5 PUSH2 0x79A JUMP JUMPDEST SWAP3 SWAP2 POP POP JUMP JUMPDEST PUSH0 DUP2 MLOAD SWAP1 POP PUSH2 0x7D0 DUP2 PUSH2 0x636 JUMP JUMPDEST SWAP3 SWAP2 POP POP JUMP JUMPDEST PUSH0 PUSH1 0x20 DUP3 DUP5 SUB SLT ISZERO PUSH2 0x7EB JUMPI PUSH2 0x7EA PUSH2 0x629 JUMP JUMPDEST JUMPDEST PUSH0 PUSH2 0x7F8 DUP5 DUP3 DUP6 ADD PUSH2 0x7C2 JUMP JUMPDEST SWAP2 POP POP SWAP3 SWAP2 POP POP JUMP JUMPDEST PUSH2 0x80A DUP2 PUSH2 0x660 JUMP JUMPDEST DUP3 MSTORE POP POP JUMP JUMPDEST PUSH0 PUSH1 0x20 DUP3 ADD SWAP1 POP PUSH2 0x823 PUSH0 DUP4 ADD DUP5 PUSH2 0x801 JUMP JUMPDEST SWAP3 SWAP2 POP POP JUMP JUMPDEST PUSH0 PUSH1 0x40 DUP3 ADD SWAP1 POP PUSH2 0x83C PUSH0 DUP4 ADD DUP6 PUSH2 0x79A JUMP JUMPDEST PUSH2 0x849 PUSH1 0x20 DUP4 ADD DUP5 PUSH2 0x79A JUMP JUMPDEST SWAP4 SWAP3 POP POP POP JUMP INVALID LOG2 PUSH5 0x6970667358 0x22 SLT KECCAK256 0xAF 0x23 0xE3 DUP6 BLOBBASEFEE PUSH27 0xC4BA40591362A6D9BBC7EDE24E849C51C0E99140D9118793998F64 PUSH20 0x6F6C634300081A00330000000000000000000000 "
				},
				"gasEstimates": {
					"creation": {
						"codeDepositCost": "436400",
						"executionCost": "472",
						"totalCost": "436872"
					},
					"external": {
						"absResult()": "2470",
						"getResults()": "infinite",
						"maxResult()": "2469",
						"minResult()": "2447",
						"sqrtResult()": "2490",
						"squareResult()": "2448",
						"testFunctions(uint256,int256,uint256)": "infinite",
						"testUsingDirective(uint256,uint256)": "infinite"
					}
				},
				"methodIdentifiers": {
					"absResult()": "2ae16b2f",
					"getResults()": "4717f97c",
					"maxResult()": "5d109aea",
					"minResult()": "505e4f3c",
					"sqrtResult()": "887deb91",
					"squareResult()": "2abcd00b",
					"testFunctions(uint256,int256,uint256)": "005dc652",
					"testUsingDirective(uint256,uint256)": "355b2a3a"
				}
			},
			"storageLayout": {
				"storage": [
					{
						"astId": 7,
						"contract": "ClassTest II/CTq6.sol:TestMathLibrary",
						"label": "sqrtResult",
						"offset": 0,
						"slot": "0",
						"type": "t_uint256"
					},
					{
						"astId": 9,
						"contract": "ClassTest II/CTq6.sol:TestMathLibrary",
						"label": "absResult",
						"offset": 0,
						"slot": "1",
						"type": "t_uint256"
					},
					{
						"astId": 11,
						"contract": "ClassTest II/CTq6.sol:TestMathLibrary",
						"label": "squareResult",
						"offset": 0,
						"slot": "2",
						"type": "t_uint256"
					},
					{
						"astId": 13,
						"contract": "ClassTest II/CTq6.sol:TestMathLibrary",
						"label": "maxResult",
						"offset": 0,
						"slot": "3",
						"type": "t_uint256"
					},
					{
						"astId": 15,
						"contract": "ClassTest II/CTq6.sol:TestMathLibrary",
						"label": "minResult",
						"offset": 0,
						"slot": "4",
						"type": "t_uint256"
					}
				],
				"types": {
					"t_uint256": {
						"encoding": "inplace",
						"label": "uint256",
						"numberOfBytes": "32"
					}
				}
			},
			"userdoc": {
				"kind": "user",
				"methods": {},
				"version": 1
			}
		}
	}
}