{
	"ClassTest II/CTq4.sol": {
		"Library": {
			"abi": [
				{
					"inputs": [
						{
							"internalType": "string",
							"name": "_name",
							"type": "string"
						},
						{
							"internalType": "string",
							"name": "_author",
							"type": "string"
						},
						{
							"internalType": "string",
							"name": "_publisher",
							"type": "string"
						},
						{
							"internalType": "uint256",
							"name": "_price",
							"type": "uint256"
						},
						{
							"internalType": "string",
							"name": "_branch",
							"type": "string"
						}
					],
					"name": "addBook",
					"outputs": [],
					"stateMutability": "nonpayable",
					"type": "function"
				},
				{
					"inputs": [
						{
							"internalType": "uint256",
							"name": "",
							"type": "uint256"
						}
					],
					"name": "books",
					"outputs": [
						{
							"internalType": "string",
							"name": "name",
							"type": "string"
						},
						{
							"internalType": "string",
							"name": "author",
							"type": "string"
						},
						{
							"internalType": "string",
							"name": "publisher",
							"type": "string"
						},
						{
							"internalType": "uint256",
							"name": "price",
							"type": "uint256"
						},
						{
							"internalType": "string",
							"name": "branch",
							"type": "string"
						}
					],
					"stateMutability": "view",
					"type": "function"
				},
				{
					"inputs": [],
					"name": "getBookCount",
					"outputs": [
						{
							"internalType": "uint256",
							"name": "",
							"type": "uint256"
						}
					],
					"stateMutability": "view",
					"type": "function"
				},
				{
					"inputs": [
						{
							"internalType": "string",
							"name": "_branch",
							"type": "string"
						}
					],
					"name": "getBooksByBranch",
					"outputs": [
						{
							"components": [
								{
									"internalType": "string",
									"name": "name",
									"type": "string"
								},
								{
									"internalType": "string",
									"name": "author",
									"type": "string"
								},
								{
									"internalType": "string",
									"name": "publisher",
									"type": "string"
								},
								{
									"internalType": "uint256",
									"name": "price",
									"type": "uint256"
								},
								{
									"internalType": "string",
									"name": "branch",
									"type": "string"
								}
							],
							"internalType": "struct Library.Book[]",
							"name": "",
							"type": "tuple[]"
						}
					],
					"stateMutability": "view",
					"type": "function"
				},
				{
					"inputs": [
						{
							"internalType": "string",
							"name": "_publisher",
							"type": "string"
						}
					],
					"name": "getBooksByPublisher",
					"outputs": [
						{
							"components": [
								{
									"internalType": "string",
									"name": "name",
									"type": "string"
								},
								{
									"internalType": "string",
									"name": "author",
									"type": "string"
								},
								{
									"internalType": "string",
									"name": "publisher",
									"type": "string"
								},
								{
									"internalType": "uint256",
									"name": "price",
									"type": "uint256"
								},
								{
									"internalType": "string",
									"name": "branch",
									"type": "string"
								}
							],
							"internalType": "struct Library.Book[]",
							"name": "",
							"type": "tuple[]"
						}
					],
					"stateMutability": "view",
					"type": "function"
				}
			],
			"devdoc": {
				"kind": "dev",
				"methods": {},
				"version": 1
			},
			"evm": {
				"assembly": "    /* \"ClassTest II/CTq4.sol\":60:2937  contract Library {... */\n  mstore(0x40, 0x80)\n  callvalue\n  dup1\n  iszero\n  tag_1\n  jumpi\n  0x00\n  dup1\n  revert\ntag_1:\n  pop\n  dataSize(sub_0)\n  dup1\n  dataOffset(sub_0)\n  0x00\n  codecopy\n  0x00\n  return\nstop\n\nsub_0: assembly {\n        /* \"ClassTest II/CTq4.sol\":60:2937  contract Library {... */\n      mstore(0x40, 0x80)\n      callvalue\n      dup1\n      iszero\n      tag_1\n      jumpi\n      0x00\n      dup1\n      revert\n    tag_1:\n      pop\n      jumpi(tag_2, lt(calldatasize, 0x04))\n      shr(0xe0, calldataload(0x00))\n      dup1\n      0x62af221f\n      eq\n      tag_3\n      jumpi\n      dup1\n      0x68744046\n      eq\n      tag_4\n      jumpi\n      dup1\n      0xbdd5b3e3\n      eq\n      tag_5\n      jumpi\n      dup1\n      0xd73e0c89\n      eq\n      tag_6\n      jumpi\n      dup1\n      0xf68baded\n      eq\n      tag_7\n      jumpi\n    tag_2:\n      0x00\n      dup1\n      revert\n        /* \"ClassTest II/CTq4.sol\":1851:2769  function getBooksByBranch(string memory _branch) ... */\n    tag_3:\n      tag_8\n      0x04\n      dup1\n      calldatasize\n      sub\n      dup2\n      add\n      swap1\n      tag_9\n      swap2\n      swap1\n      tag_10\n      jump\t// in\n    tag_9:\n      tag_11\n      jump\t// in\n    tag_8:\n      mload(0x40)\n      tag_12\n      swap2\n      swap1\n      tag_13\n      jump\t// in\n    tag_12:\n      mload(0x40)\n      dup1\n      swap2\n      sub\n      swap1\n      return\n        /* \"ClassTest II/CTq4.sol\":335:354  Book[] public books */\n    tag_4:\n      tag_14\n      0x04\n      dup1\n      calldatasize\n      sub\n      dup2\n      add\n      swap1\n      tag_15\n      swap2\n      swap1\n      tag_16\n      jump\t// in\n    tag_15:\n      tag_17\n      jump\t// in\n    tag_14:\n      mload(0x40)\n      tag_18\n      swap6\n      swap5\n      swap4\n      swap3\n      swap2\n      swap1\n      tag_19\n      jump\t// in\n    tag_18:\n      mload(0x40)\n      dup1\n      swap2\n      sub\n      swap1\n      return\n        /* \"ClassTest II/CTq4.sol\":851:1792  function getBooksByPublisher(string memory _publisher) ... */\n    tag_5:\n      tag_20\n      0x04\n      dup1\n      calldatasize\n      sub\n      dup2\n      add\n      swap1\n      tag_21\n      swap2\n      swap1\n      tag_10\n      jump\t// in\n    tag_21:\n      tag_22\n      jump\t// in\n    tag_20:\n      mload(0x40)\n      tag_23\n      swap2\n      swap1\n      tag_13\n      jump\t// in\n    tag_23:\n      mload(0x40)\n      dup1\n      swap2\n      sub\n      swap1\n      return\n        /* \"ClassTest II/CTq4.sol\":2845:2934  function getBookCount() public view returns (uint) {... */\n    tag_6:\n      tag_24\n      tag_25\n      jump\t// in\n    tag_24:\n      mload(0x40)\n      tag_26\n      swap2\n      swap1\n      tag_27\n      jump\t// in\n    tag_26:\n      mload(0x40)\n      dup1\n      swap2\n      sub\n      swap1\n      return\n        /* \"ClassTest II/CTq4.sol\":409:789  function addBook(... */\n    tag_7:\n      tag_28\n      0x04\n      dup1\n      calldatasize\n      sub\n      dup2\n      add\n      swap1\n      tag_29\n      swap2\n      swap1\n      tag_30\n      jump\t// in\n    tag_29:\n      tag_31\n      jump\t// in\n    tag_28:\n      stop\n        /* \"ClassTest II/CTq4.sol\":1851:2769  function getBooksByBranch(string memory _branch) ... */\n    tag_11:\n        /* \"ClassTest II/CTq4.sol\":1951:1964  Book[] memory */\n      0x60\n        /* \"ClassTest II/CTq4.sol\":2031:2041  uint count */\n      0x00\n        /* \"ClassTest II/CTq4.sol\":2061:2067  uint i */\n      dup1\n        /* \"ClassTest II/CTq4.sol\":2056:2272  for (uint i = 0; i < books.length; i++) {... */\n    tag_33:\n        /* \"ClassTest II/CTq4.sol\":2077:2082  books */\n      0x00\n        /* \"ClassTest II/CTq4.sol\":2077:2089  books.length */\n      dup1\n      sload\n      swap1\n      pop\n        /* \"ClassTest II/CTq4.sol\":2073:2074  i */\n      dup2\n        /* \"ClassTest II/CTq4.sol\":2073:2089  i < books.length */\n      lt\n        /* \"ClassTest II/CTq4.sol\":2056:2272  for (uint i = 0; i < books.length; i++) {... */\n      iszero\n      tag_34\n      jumpi\n        /* \"ClassTest II/CTq4.sol\":2208:2215  _branch */\n      dup4\n        /* \"ClassTest II/CTq4.sol\":2191:2216  abi.encodePacked(_branch) */\n      add(0x20, mload(0x40))\n      tag_36\n      swap2\n      swap1\n      tag_37\n      jump\t// in\n    tag_36:\n      mload(0x40)\n      0x20\n      dup2\n      dup4\n      sub\n      sub\n      dup2\n      mstore\n      swap1\n      0x40\n      mstore\n        /* \"ClassTest II/CTq4.sol\":2181:2217  keccak256(abi.encodePacked(_branch)) */\n      dup1\n      mload\n      swap1\n      0x20\n      add\n      keccak256\n        /* \"ClassTest II/CTq4.sol\":2142:2147  books */\n      0x00\n        /* \"ClassTest II/CTq4.sol\":2148:2149  i */\n      dup3\n        /* \"ClassTest II/CTq4.sol\":2142:2150  books[i] */\n      dup2\n      sload\n      dup2\n      lt\n      tag_38\n      jumpi\n      tag_39\n      tag_40\n      jump\t// in\n    tag_39:\n    tag_38:\n      swap1\n      0x00\n      mstore\n      keccak256(0x00, 0x20)\n      swap1\n      0x05\n      mul\n      add\n        /* \"ClassTest II/CTq4.sol\":2142:2157  books[i].branch */\n      0x04\n      add\n        /* \"ClassTest II/CTq4.sol\":2125:2158  abi.encodePacked(books[i].branch) */\n      add(0x20, mload(0x40))\n      tag_42\n      swap2\n      swap1\n      tag_43\n      jump\t// in\n    tag_42:\n      mload(0x40)\n      0x20\n      dup2\n      dup4\n      sub\n      sub\n      dup2\n      mstore\n      swap1\n      0x40\n      mstore\n        /* \"ClassTest II/CTq4.sol\":2115:2159  keccak256(abi.encodePacked(books[i].branch)) */\n      dup1\n      mload\n      swap1\n      0x20\n      add\n      keccak256\n        /* \"ClassTest II/CTq4.sol\":2115:2217  keccak256(abi.encodePacked(books[i].branch)) == ... */\n      sub\n        /* \"ClassTest II/CTq4.sol\":2111:2261  if (keccak256(abi.encodePacked(books[i].branch)) == ... */\n      tag_44\n      jumpi\n        /* \"ClassTest II/CTq4.sol\":2238:2245  count++ */\n      dup2\n      dup1\n      tag_45\n      swap1\n      tag_46\n      jump\t// in\n    tag_45:\n      swap3\n      pop\n      pop\n        /* \"ClassTest II/CTq4.sol\":2111:2261  if (keccak256(abi.encodePacked(books[i].branch)) == ... */\n    tag_44:\n        /* \"ClassTest II/CTq4.sol\":2091:2094  i++ */\n      dup1\n      dup1\n      0x01\n      add\n      swap2\n      pop\n      pop\n        /* \"ClassTest II/CTq4.sol\":2056:2272  for (uint i = 0; i < books.length; i++) {... */\n      jump(tag_33)\n    tag_34:\n      pop\n        /* \"ClassTest II/CTq4.sol\":2345:2365  Book[] memory result */\n      0x00\n        /* \"ClassTest II/CTq4.sol\":2379:2384  count */\n      dup2\n        /* \"ClassTest II/CTq4.sol\":2368:2385  new Book[](count) */\n      0xffffffffffffffff\n      dup2\n      gt\n      iszero\n      tag_47\n      jumpi\n      tag_48\n      tag_49\n      jump\t// in\n    tag_48:\n    tag_47:\n      mload(0x40)\n      swap1\n      dup1\n      dup3\n      mstore\n      dup1\n      0x20\n      mul\n      0x20\n      add\n      dup3\n      add\n      0x40\n      mstore\n      dup1\n      iszero\n      tag_50\n      jumpi\n      dup2\n      0x20\n      add\n    tag_51:\n      tag_52\n      tag_53\n      jump\t// in\n    tag_52:\n      dup2\n      mstore\n      0x20\n      add\n      swap1\n      0x01\n      swap1\n      sub\n      swap1\n      dup2\n      tag_51\n      jumpi\n      swap1\n      pop\n    tag_50:\n      pop\n        /* \"ClassTest II/CTq4.sol\":2345:2385  Book[] memory result = new Book[](count) */\n      swap1\n      pop\n        /* \"ClassTest II/CTq4.sol\":2396:2406  uint index */\n      0x00\n        /* \"ClassTest II/CTq4.sol\":2474:2480  uint i */\n      dup1\n        /* \"ClassTest II/CTq4.sol\":2469:2728  for (uint i = 0; i < books.length; i++) {... */\n    tag_54:\n        /* \"ClassTest II/CTq4.sol\":2490:2495  books */\n      0x00\n        /* \"ClassTest II/CTq4.sol\":2490:2502  books.length */\n      dup1\n      sload\n      swap1\n      pop\n        /* \"ClassTest II/CTq4.sol\":2486:2487  i */\n      dup2\n        /* \"ClassTest II/CTq4.sol\":2486:2502  i < books.length */\n      lt\n        /* \"ClassTest II/CTq4.sol\":2469:2728  for (uint i = 0; i < books.length; i++) {... */\n      iszero\n      tag_55\n      jumpi\n        /* \"ClassTest II/CTq4.sol\":2621:2628  _branch */\n      dup6\n        /* \"ClassTest II/CTq4.sol\":2604:2629  abi.encodePacked(_branch) */\n      add(0x20, mload(0x40))\n      tag_57\n      swap2\n      swap1\n      tag_37\n      jump\t// in\n    tag_57:\n      mload(0x40)\n      0x20\n      dup2\n      dup4\n      sub\n      sub\n      dup2\n      mstore\n      swap1\n      0x40\n      mstore\n        /* \"ClassTest II/CTq4.sol\":2594:2630  keccak256(abi.encodePacked(_branch)) */\n      dup1\n      mload\n      swap1\n      0x20\n      add\n      keccak256\n        /* \"ClassTest II/CTq4.sol\":2555:2560  books */\n      0x00\n        /* \"ClassTest II/CTq4.sol\":2561:2562  i */\n      dup3\n        /* \"ClassTest II/CTq4.sol\":2555:2563  books[i] */\n      dup2\n      sload\n      dup2\n      lt\n      tag_58\n      jumpi\n      tag_59\n      tag_40\n      jump\t// in\n    tag_59:\n    tag_58:\n      swap1\n      0x00\n      mstore\n      keccak256(0x00, 0x20)\n      swap1\n      0x05\n      mul\n      add\n        /* \"ClassTest II/CTq4.sol\":2555:2570  books[i].branch */\n      0x04\n      add\n        /* \"ClassTest II/CTq4.sol\":2538:2571  abi.encodePacked(books[i].branch) */\n      add(0x20, mload(0x40))\n      tag_61\n      swap2\n      swap1\n      tag_43\n      jump\t// in\n    tag_61:\n      mload(0x40)\n      0x20\n      dup2\n      dup4\n      sub\n      sub\n      dup2\n      mstore\n      swap1\n      0x40\n      mstore\n        /* \"ClassTest II/CTq4.sol\":2528:2572  keccak256(abi.encodePacked(books[i].branch)) */\n      dup1\n      mload\n      swap1\n      0x20\n      add\n      keccak256\n        /* \"ClassTest II/CTq4.sol\":2528:2630  keccak256(abi.encodePacked(books[i].branch)) == ... */\n      sub\n        /* \"ClassTest II/CTq4.sol\":2524:2717  if (keccak256(abi.encodePacked(books[i].branch)) == ... */\n      tag_62\n      jumpi\n        /* \"ClassTest II/CTq4.sol\":2667:2672  books */\n      0x00\n        /* \"ClassTest II/CTq4.sol\":2673:2674  i */\n      dup2\n        /* \"ClassTest II/CTq4.sol\":2667:2675  books[i] */\n      dup2\n      sload\n      dup2\n      lt\n      tag_63\n      jumpi\n      tag_64\n      tag_40\n      jump\t// in\n    tag_64:\n    tag_63:\n      swap1\n      0x00\n      mstore\n      keccak256(0x00, 0x20)\n      swap1\n      0x05\n      mul\n      add\n        /* \"ClassTest II/CTq4.sol\":2651:2675  result[index] = books[i] */\n      mload(0x40)\n      dup1\n      0xa0\n      add\n      0x40\n      mstore\n      swap1\n      dup2\n      0x00\n      dup3\n      add\n      dup1\n      sload\n      tag_66\n      swap1\n      tag_67\n      jump\t// in\n    tag_66:\n      dup1\n      0x1f\n      add\n      0x20\n      dup1\n      swap2\n      div\n      mul\n      0x20\n      add\n      mload(0x40)\n      swap1\n      dup2\n      add\n      0x40\n      mstore\n      dup1\n      swap3\n      swap2\n      swap1\n      dup2\n      dup2\n      mstore\n      0x20\n      add\n      dup3\n      dup1\n      sload\n      tag_68\n      swap1\n      tag_67\n      jump\t// in\n    tag_68:\n      dup1\n      iszero\n      tag_69\n      jumpi\n      dup1\n      0x1f\n      lt\n      tag_70\n      jumpi\n      0x0100\n      dup1\n      dup4\n      sload\n      div\n      mul\n      dup4\n      mstore\n      swap2\n      0x20\n      add\n      swap2\n      jump(tag_69)\n    tag_70:\n      dup3\n      add\n      swap2\n      swap1\n      0x00\n      mstore\n      keccak256(0x00, 0x20)\n      swap1\n    tag_71:\n      dup2\n      sload\n      dup2\n      mstore\n      swap1\n      0x01\n      add\n      swap1\n      0x20\n      add\n      dup1\n      dup4\n      gt\n      tag_71\n      jumpi\n      dup3\n      swap1\n      sub\n      0x1f\n      and\n      dup3\n      add\n      swap2\n    tag_69:\n      pop\n      pop\n      pop\n      pop\n      pop\n      dup2\n      mstore\n      0x20\n      add\n      0x01\n      dup3\n      add\n      dup1\n      sload\n      tag_72\n      swap1\n      tag_67\n      jump\t// in\n    tag_72:\n      dup1\n      0x1f\n      add\n      0x20\n      dup1\n      swap2\n      div\n      mul\n      0x20\n      add\n      mload(0x40)\n      swap1\n      dup2\n      add\n      0x40\n      mstore\n      dup1\n      swap3\n      swap2\n      swap1\n      dup2\n      dup2\n      mstore\n      0x20\n      add\n      dup3\n      dup1\n      sload\n      tag_73\n      swap1\n      tag_67\n      jump\t// in\n    tag_73:\n      dup1\n      iszero\n      tag_74\n      jumpi\n      dup1\n      0x1f\n      lt\n      tag_75\n      jumpi\n      0x0100\n      dup1\n      dup4\n      sload\n      div\n      mul\n      dup4\n      mstore\n      swap2\n      0x20\n      add\n      swap2\n      jump(tag_74)\n    tag_75:\n      dup3\n      add\n      swap2\n      swap1\n      0x00\n      mstore\n      keccak256(0x00, 0x20)\n      swap1\n    tag_76:\n      dup2\n      sload\n      dup2\n      mstore\n      swap1\n      0x01\n      add\n      swap1\n      0x20\n      add\n      dup1\n      dup4\n      gt\n      tag_76\n      jumpi\n      dup3\n      swap1\n      sub\n      0x1f\n      and\n      dup3\n      add\n      swap2\n    tag_74:\n      pop\n      pop\n      pop\n      pop\n      pop\n      dup2\n      mstore\n      0x20\n      add\n      0x02\n      dup3\n      add\n      dup1\n      sload\n      tag_77\n      swap1\n      tag_67\n      jump\t// in\n    tag_77:\n      dup1\n      0x1f\n      add\n      0x20\n      dup1\n      swap2\n      div\n      mul\n      0x20\n      add\n      mload(0x40)\n      swap1\n      dup2\n      add\n      0x40\n      mstore\n      dup1\n      swap3\n      swap2\n      swap1\n      dup2\n      dup2\n      mstore\n      0x20\n      add\n      dup3\n      dup1\n      sload\n      tag_78\n      swap1\n      tag_67\n      jump\t// in\n    tag_78:\n      dup1\n      iszero\n      tag_79\n      jumpi\n      dup1\n      0x1f\n      lt\n      tag_80\n      jumpi\n      0x0100\n      dup1\n      dup4\n      sload\n      div\n      mul\n      dup4\n      mstore\n      swap2\n      0x20\n      add\n      swap2\n      jump(tag_79)\n    tag_80:\n      dup3\n      add\n      swap2\n      swap1\n      0x00\n      mstore\n      keccak256(0x00, 0x20)\n      swap1\n    tag_81:\n      dup2\n      sload\n      dup2\n      mstore\n      swap1\n      0x01\n      add\n      swap1\n      0x20\n      add\n      dup1\n      dup4\n      gt\n      tag_81\n      jumpi\n      dup3\n      swap1\n      sub\n      0x1f\n      and\n      dup3\n      add\n      swap2\n    tag_79:\n      pop\n      pop\n      pop\n      pop\n      pop\n      dup2\n      mstore\n      0x20\n      add\n      0x03\n      dup3\n      add\n      sload\n      dup2\n      mstore\n      0x20\n      add\n      0x04\n      dup3\n      add\n      dup1\n      sload\n      tag_82\n      swap1\n      tag_67\n      jump\t// in\n    tag_82:\n      dup1\n      0x1f\n      add\n      0x20\n      dup1\n      swap2\n      div\n      mul\n      0x20\n      add\n      mload(0x40)\n      swap1\n      dup2\n      add\n      0x40\n      mstore\n      dup1\n      swap3\n      swap2\n      swap1\n      dup2\n      dup2\n      mstore\n      0x20\n      add\n      dup3\n      dup1\n      sload\n      tag_83\n      swap1\n      tag_67\n      jump\t// in\n    tag_83:\n      dup1\n      iszero\n      tag_84\n      jumpi\n      dup1\n      0x1f\n      lt\n      tag_85\n      jumpi\n      0x0100\n      dup1\n      dup4\n      sload\n      div\n      mul\n      dup4\n      mstore\n      swap2\n      0x20\n      add\n      swap2\n      jump(tag_84)\n    tag_85:\n      dup3\n      add\n      swap2\n      swap1\n      0x00\n      mstore\n      keccak256(0x00, 0x20)\n      swap1\n    tag_86:\n      dup2\n      sload\n      dup2\n      mstore\n      swap1\n      0x01\n      add\n      swap1\n      0x20\n      add\n      dup1\n      dup4\n      gt\n      tag_86\n      jumpi\n      dup3\n      swap1\n      sub\n      0x1f\n      and\n      dup3\n      add\n      swap2\n    tag_84:\n      pop\n      pop\n      pop\n      pop\n      pop\n      dup2\n      mstore\n      pop\n      pop\n        /* \"ClassTest II/CTq4.sol\":2651:2657  result */\n      dup4\n        /* \"ClassTest II/CTq4.sol\":2658:2663  index */\n      dup4\n        /* \"ClassTest II/CTq4.sol\":2651:2664  result[index] */\n      dup2\n      mload\n      dup2\n      lt\n      tag_87\n      jumpi\n      tag_88\n      tag_40\n      jump\t// in\n    tag_88:\n    tag_87:\n      0x20\n      mul\n      0x20\n      add\n      add\n        /* \"ClassTest II/CTq4.sol\":2651:2675  result[index] = books[i] */\n      dup2\n      swap1\n      mstore\n      pop\n        /* \"ClassTest II/CTq4.sol\":2694:2701  index++ */\n      dup2\n      dup1\n      tag_89\n      swap1\n      tag_46\n      jump\t// in\n    tag_89:\n      swap3\n      pop\n      pop\n        /* \"ClassTest II/CTq4.sol\":2524:2717  if (keccak256(abi.encodePacked(books[i].branch)) == ... */\n    tag_62:\n        /* \"ClassTest II/CTq4.sol\":2504:2507  i++ */\n      dup1\n      dup1\n      0x01\n      add\n      swap2\n      pop\n      pop\n        /* \"ClassTest II/CTq4.sol\":2469:2728  for (uint i = 0; i < books.length; i++) {... */\n      jump(tag_54)\n    tag_55:\n      pop\n        /* \"ClassTest II/CTq4.sol\":2755:2761  result */\n      dup2\n        /* \"ClassTest II/CTq4.sol\":2748:2761  return result */\n      swap4\n      pop\n      pop\n      pop\n      pop\n        /* \"ClassTest II/CTq4.sol\":1851:2769  function getBooksByBranch(string memory _branch) ... */\n      swap2\n      swap1\n      pop\n      jump\t// out\n        /* \"ClassTest II/CTq4.sol\":335:354  Book[] public books */\n    tag_17:\n      0x00\n      dup2\n      dup2\n      sload\n      dup2\n      lt\n      tag_90\n      jumpi\n      0x00\n      dup1\n      revert\n    tag_90:\n      swap1\n      0x00\n      mstore\n      keccak256(0x00, 0x20)\n      swap1\n      0x05\n      mul\n      add\n      0x00\n      swap2\n      pop\n      swap1\n      pop\n      dup1\n      0x00\n      add\n      dup1\n      sload\n      tag_92\n      swap1\n      tag_67\n      jump\t// in\n    tag_92:\n      dup1\n      0x1f\n      add\n      0x20\n      dup1\n      swap2\n      div\n      mul\n      0x20\n      add\n      mload(0x40)\n      swap1\n      dup2\n      add\n      0x40\n      mstore\n      dup1\n      swap3\n      swap2\n      swap1\n      dup2\n      dup2\n      mstore\n      0x20\n      add\n      dup3\n      dup1\n      sload\n      tag_93\n      swap1\n      tag_67\n      jump\t// in\n    tag_93:\n      dup1\n      iszero\n      tag_94\n      jumpi\n      dup1\n      0x1f\n      lt\n      tag_95\n      jumpi\n      0x0100\n      dup1\n      dup4\n      sload\n      div\n      mul\n      dup4\n      mstore\n      swap2\n      0x20\n      add\n      swap2\n      jump(tag_94)\n    tag_95:\n      dup3\n      add\n      swap2\n      swap1\n      0x00\n      mstore\n      keccak256(0x00, 0x20)\n      swap1\n    tag_96:\n      dup2\n      sload\n      dup2\n      mstore\n      swap1\n      0x01\n      add\n      swap1\n      0x20\n      add\n      dup1\n      dup4\n      gt\n      tag_96\n      jumpi\n      dup3\n      swap1\n      sub\n      0x1f\n      and\n      dup3\n      add\n      swap2\n    tag_94:\n      pop\n      pop\n      pop\n      pop\n      pop\n      swap1\n      dup1\n      0x01\n      add\n      dup1\n      sload\n      tag_97\n      swap1\n      tag_67\n      jump\t// in\n    tag_97:\n      dup1\n      0x1f\n      add\n      0x20\n      dup1\n      swap2\n      div\n      mul\n      0x20\n      add\n      mload(0x40)\n      swap1\n      dup2\n      add\n      0x40\n      mstore\n      dup1\n      swap3\n      swap2\n      swap1\n      dup2\n      dup2\n      mstore\n      0x20\n      add\n      dup3\n      dup1\n      sload\n      tag_98\n      swap1\n      tag_67\n      jump\t// in\n    tag_98:\n      dup1\n      iszero\n      tag_99\n      jumpi\n      dup1\n      0x1f\n      lt\n      tag_100\n      jumpi\n      0x0100\n      dup1\n      dup4\n      sload\n      div\n      mul\n      dup4\n      mstore\n      swap2\n      0x20\n      add\n      swap2\n      jump(tag_99)\n    tag_100:\n      dup3\n      add\n      swap2\n      swap1\n      0x00\n      mstore\n      keccak256(0x00, 0x20)\n      swap1\n    tag_101:\n      dup2\n      sload\n      dup2\n      mstore\n      swap1\n      0x01\n      add\n      swap1\n      0x20\n      add\n      dup1\n      dup4\n      gt\n      tag_101\n      jumpi\n      dup3\n      swap1\n      sub\n      0x1f\n      and\n      dup3\n      add\n      swap2\n    tag_99:\n      pop\n      pop\n      pop\n      pop\n      pop\n      swap1\n      dup1\n      0x02\n      add\n      dup1\n      sload\n      tag_102\n      swap1\n      tag_67\n      jump\t// in\n    tag_102:\n      dup1\n      0x1f\n      add\n      0x20\n      dup1\n      swap2\n      div\n      mul\n      0x20\n      add\n      mload(0x40)\n      swap1\n      dup2\n      add\n      0x40\n      mstore\n      dup1\n      swap3\n      swap2\n      swap1\n      dup2\n      dup2\n      mstore\n      0x20\n      add\n      dup3\n      dup1\n      sload\n      tag_103\n      swap1\n      tag_67\n      jump\t// in\n    tag_103:\n      dup1\n      iszero\n      tag_104\n      jumpi\n      dup1\n      0x1f\n      lt\n      tag_105\n      jumpi\n      0x0100\n      dup1\n      dup4\n      sload\n      div\n      mul\n      dup4\n      mstore\n      swap2\n      0x20\n      add\n      swap2\n      jump(tag_104)\n    tag_105:\n      dup3\n      add\n      swap2\n      swap1\n      0x00\n      mstore\n      keccak256(0x00, 0x20)\n      swap1\n    tag_106:\n      dup2\n      sload\n      dup2\n      mstore\n      swap1\n      0x01\n      add\n      swap1\n      0x20\n      add\n      dup1\n      dup4\n      gt\n      tag_106\n      jumpi\n      dup3\n      swap1\n      sub\n      0x1f\n      and\n      dup3\n      add\n      swap2\n    tag_104:\n      pop\n      pop\n      pop\n      pop\n      pop\n      swap1\n      dup1\n      0x03\n      add\n      sload\n      swap1\n      dup1\n      0x04\n      add\n      dup1\n      sload\n      tag_107\n      swap1\n      tag_67\n      jump\t// in\n    tag_107:\n      dup1\n      0x1f\n      add\n      0x20\n      dup1\n      swap2\n      div\n      mul\n      0x20\n      add\n      mload(0x40)\n      swap1\n      dup2\n      add\n      0x40\n      mstore\n      dup1\n      swap3\n      swap2\n      swap1\n      dup2\n      dup2\n      mstore\n      0x20\n      add\n      dup3\n      dup1\n      sload\n      tag_108\n      swap1\n      tag_67\n      jump\t// in\n    tag_108:\n      dup1\n      iszero\n      tag_109\n      jumpi\n      dup1\n      0x1f\n      lt\n      tag_110\n      jumpi\n      0x0100\n      dup1\n      dup4\n      sload\n      div\n      mul\n      dup4\n      mstore\n      swap2\n      0x20\n      add\n      swap2\n      jump(tag_109)\n    tag_110:\n      dup3\n      add\n      swap2\n      swap1\n      0x00\n      mstore\n      keccak256(0x00, 0x20)\n      swap1\n    tag_111:\n      dup2\n      sload\n      dup2\n      mstore\n      swap1\n      0x01\n      add\n      swap1\n      0x20\n      add\n      dup1\n      dup4\n      gt\n      tag_111\n      jumpi\n      dup3\n      swap1\n      sub\n      0x1f\n      and\n      dup3\n      add\n      swap2\n    tag_109:\n      pop\n      pop\n      pop\n      pop\n      pop\n      swap1\n      pop\n      dup6\n      jump\t// out\n        /* \"ClassTest II/CTq4.sol\":851:1792  function getBooksByPublisher(string memory _publisher) ... */\n    tag_22:\n        /* \"ClassTest II/CTq4.sol\":957:970  Book[] memory */\n      0x60\n        /* \"ClassTest II/CTq4.sol\":1042:1052  uint count */\n      0x00\n        /* \"ClassTest II/CTq4.sol\":1072:1078  uint i */\n      dup1\n        /* \"ClassTest II/CTq4.sol\":1067:1289  for (uint i = 0; i < books.length; i++) {... */\n    tag_113:\n        /* \"ClassTest II/CTq4.sol\":1088:1093  books */\n      0x00\n        /* \"ClassTest II/CTq4.sol\":1088:1100  books.length */\n      dup1\n      sload\n      swap1\n      pop\n        /* \"ClassTest II/CTq4.sol\":1084:1085  i */\n      dup2\n        /* \"ClassTest II/CTq4.sol\":1084:1100  i < books.length */\n      lt\n        /* \"ClassTest II/CTq4.sol\":1067:1289  for (uint i = 0; i < books.length; i++) {... */\n      iszero\n      tag_114\n      jumpi\n        /* \"ClassTest II/CTq4.sol\":1222:1232  _publisher */\n      dup4\n        /* \"ClassTest II/CTq4.sol\":1205:1233  abi.encodePacked(_publisher) */\n      add(0x20, mload(0x40))\n      tag_116\n      swap2\n      swap1\n      tag_37\n      jump\t// in\n    tag_116:\n      mload(0x40)\n      0x20\n      dup2\n      dup4\n      sub\n      sub\n      dup2\n      mstore\n      swap1\n      0x40\n      mstore\n        /* \"ClassTest II/CTq4.sol\":1195:1234  keccak256(abi.encodePacked(_publisher)) */\n      dup1\n      mload\n      swap1\n      0x20\n      add\n      keccak256\n        /* \"ClassTest II/CTq4.sol\":1153:1158  books */\n      0x00\n        /* \"ClassTest II/CTq4.sol\":1159:1160  i */\n      dup3\n        /* \"ClassTest II/CTq4.sol\":1153:1161  books[i] */\n      dup2\n      sload\n      dup2\n      lt\n      tag_117\n      jumpi\n      tag_118\n      tag_40\n      jump\t// in\n    tag_118:\n    tag_117:\n      swap1\n      0x00\n      mstore\n      keccak256(0x00, 0x20)\n      swap1\n      0x05\n      mul\n      add\n        /* \"ClassTest II/CTq4.sol\":1153:1171  books[i].publisher */\n      0x02\n      add\n        /* \"ClassTest II/CTq4.sol\":1136:1172  abi.encodePacked(books[i].publisher) */\n      add(0x20, mload(0x40))\n      tag_120\n      swap2\n      swap1\n      tag_43\n      jump\t// in\n    tag_120:\n      mload(0x40)\n      0x20\n      dup2\n      dup4\n      sub\n      sub\n      dup2\n      mstore\n      swap1\n      0x40\n      mstore\n        /* \"ClassTest II/CTq4.sol\":1126:1173  keccak256(abi.encodePacked(books[i].publisher)) */\n      dup1\n      mload\n      swap1\n      0x20\n      add\n      keccak256\n        /* \"ClassTest II/CTq4.sol\":1126:1234  keccak256(abi.encodePacked(books[i].publisher)) == ... */\n      sub\n        /* \"ClassTest II/CTq4.sol\":1122:1278  if (keccak256(abi.encodePacked(books[i].publisher)) == ... */\n      tag_121\n      jumpi\n        /* \"ClassTest II/CTq4.sol\":1255:1262  count++ */\n      dup2\n      dup1\n      tag_122\n      swap1\n      tag_46\n      jump\t// in\n    tag_122:\n      swap3\n      pop\n      pop\n        /* \"ClassTest II/CTq4.sol\":1122:1278  if (keccak256(abi.encodePacked(books[i].publisher)) == ... */\n    tag_121:\n        /* \"ClassTest II/CTq4.sol\":1102:1105  i++ */\n      dup1\n      dup1\n      0x01\n      add\n      swap2\n      pop\n      pop\n        /* \"ClassTest II/CTq4.sol\":1067:1289  for (uint i = 0; i < books.length; i++) {... */\n      jump(tag_113)\n    tag_114:\n      pop\n        /* \"ClassTest II/CTq4.sol\":1362:1382  Book[] memory result */\n      0x00\n        /* \"ClassTest II/CTq4.sol\":1396:1401  count */\n      dup2\n        /* \"ClassTest II/CTq4.sol\":1385:1402  new Book[](count) */\n      0xffffffffffffffff\n      dup2\n      gt\n      iszero\n      tag_123\n      jumpi\n      tag_124\n      tag_49\n      jump\t// in\n    tag_124:\n    tag_123:\n      mload(0x40)\n      swap1\n      dup1\n      dup3\n      mstore\n      dup1\n      0x20\n      mul\n      0x20\n      add\n      dup3\n      add\n      0x40\n      mstore\n      dup1\n      iszero\n      tag_125\n      jumpi\n      dup2\n      0x20\n      add\n    tag_126:\n      tag_127\n      tag_53\n      jump\t// in\n    tag_127:\n      dup2\n      mstore\n      0x20\n      add\n      swap1\n      0x01\n      swap1\n      sub\n      swap1\n      dup2\n      tag_126\n      jumpi\n      swap1\n      pop\n    tag_125:\n      pop\n        /* \"ClassTest II/CTq4.sol\":1362:1402  Book[] memory result = new Book[](count) */\n      swap1\n      pop\n        /* \"ClassTest II/CTq4.sol\":1413:1423  uint index */\n      0x00\n        /* \"ClassTest II/CTq4.sol\":1491:1497  uint i */\n      dup1\n        /* \"ClassTest II/CTq4.sol\":1486:1751  for (uint i = 0; i < books.length; i++) {... */\n    tag_128:\n        /* \"ClassTest II/CTq4.sol\":1507:1512  books */\n      0x00\n        /* \"ClassTest II/CTq4.sol\":1507:1519  books.length */\n      dup1\n      sload\n      swap1\n      pop\n        /* \"ClassTest II/CTq4.sol\":1503:1504  i */\n      dup2\n        /* \"ClassTest II/CTq4.sol\":1503:1519  i < books.length */\n      lt\n        /* \"ClassTest II/CTq4.sol\":1486:1751  for (uint i = 0; i < books.length; i++) {... */\n      iszero\n      tag_129\n      jumpi\n        /* \"ClassTest II/CTq4.sol\":1641:1651  _publisher */\n      dup6\n        /* \"ClassTest II/CTq4.sol\":1624:1652  abi.encodePacked(_publisher) */\n      add(0x20, mload(0x40))\n      tag_131\n      swap2\n      swap1\n      tag_37\n      jump\t// in\n    tag_131:\n      mload(0x40)\n      0x20\n      dup2\n      dup4\n      sub\n      sub\n      dup2\n      mstore\n      swap1\n      0x40\n      mstore\n        /* \"ClassTest II/CTq4.sol\":1614:1653  keccak256(abi.encodePacked(_publisher)) */\n      dup1\n      mload\n      swap1\n      0x20\n      add\n      keccak256\n        /* \"ClassTest II/CTq4.sol\":1572:1577  books */\n      0x00\n        /* \"ClassTest II/CTq4.sol\":1578:1579  i */\n      dup3\n        /* \"ClassTest II/CTq4.sol\":1572:1580  books[i] */\n      dup2\n      sload\n      dup2\n      lt\n      tag_132\n      jumpi\n      tag_133\n      tag_40\n      jump\t// in\n    tag_133:\n    tag_132:\n      swap1\n      0x00\n      mstore\n      keccak256(0x00, 0x20)\n      swap1\n      0x05\n      mul\n      add\n        /* \"ClassTest II/CTq4.sol\":1572:1590  books[i].publisher */\n      0x02\n      add\n        /* \"ClassTest II/CTq4.sol\":1555:1591  abi.encodePacked(books[i].publisher) */\n      add(0x20, mload(0x40))\n      tag_135\n      swap2\n      swap1\n      tag_43\n      jump\t// in\n    tag_135:\n      mload(0x40)\n      0x20\n      dup2\n      dup4\n      sub\n      sub\n      dup2\n      mstore\n      swap1\n      0x40\n      mstore\n        /* \"ClassTest II/CTq4.sol\":1545:1592  keccak256(abi.encodePacked(books[i].publisher)) */\n      dup1\n      mload\n      swap1\n      0x20\n      add\n      keccak256\n        /* \"ClassTest II/CTq4.sol\":1545:1653  keccak256(abi.encodePacked(books[i].publisher)) == ... */\n      sub\n        /* \"ClassTest II/CTq4.sol\":1541:1740  if (keccak256(abi.encodePacked(books[i].publisher)) == ... */\n      tag_136\n      jumpi\n        /* \"ClassTest II/CTq4.sol\":1690:1695  books */\n      0x00\n        /* \"ClassTest II/CTq4.sol\":1696:1697  i */\n      dup2\n        /* \"ClassTest II/CTq4.sol\":1690:1698  books[i] */\n      dup2\n      sload\n      dup2\n      lt\n      tag_137\n      jumpi\n      tag_138\n      tag_40\n      jump\t// in\n    tag_138:\n    tag_137:\n      swap1\n      0x00\n      mstore\n      keccak256(0x00, 0x20)\n      swap1\n      0x05\n      mul\n      add\n        /* \"ClassTest II/CTq4.sol\":1674:1698  result[index] = books[i] */\n      mload(0x40)\n      dup1\n      0xa0\n      add\n      0x40\n      mstore\n      swap1\n      dup2\n      0x00\n      dup3\n      add\n      dup1\n      sload\n      tag_140\n      swap1\n      tag_67\n      jump\t// in\n    tag_140:\n      dup1\n      0x1f\n      add\n      0x20\n      dup1\n      swap2\n      div\n      mul\n      0x20\n      add\n      mload(0x40)\n      swap1\n      dup2\n      add\n      0x40\n      mstore\n      dup1\n      swap3\n      swap2\n      swap1\n      dup2\n      dup2\n      mstore\n      0x20\n      add\n      dup3\n      dup1\n      sload\n      tag_141\n      swap1\n      tag_67\n      jump\t// in\n    tag_141:\n      dup1\n      iszero\n      tag_142\n      jumpi\n      dup1\n      0x1f\n      lt\n      tag_143\n      jumpi\n      0x0100\n      dup1\n      dup4\n      sload\n      div\n      mul\n      dup4\n      mstore\n      swap2\n      0x20\n      add\n      swap2\n      jump(tag_142)\n    tag_143:\n      dup3\n      add\n      swap2\n      swap1\n      0x00\n      mstore\n      keccak256(0x00, 0x20)\n      swap1\n    tag_144:\n      dup2\n      sload\n      dup2\n      mstore\n      swap1\n      0x01\n      add\n      swap1\n      0x20\n      add\n      dup1\n      dup4\n      gt\n      tag_144\n      jumpi\n      dup3\n      swap1\n      sub\n      0x1f\n      and\n      dup3\n      add\n      swap2\n    tag_142:\n      pop\n      pop\n      pop\n      pop\n      pop\n      dup2\n      mstore\n      0x20\n      add\n      0x01\n      dup3\n      add\n      dup1\n      sload\n      tag_145\n      swap1\n      tag_67\n      jump\t// in\n    tag_145:\n      dup1\n      0x1f\n      add\n      0x20\n      dup1\n      swap2\n      div\n      mul\n      0x20\n      add\n      mload(0x40)\n      swap1\n      dup2\n      add\n      0x40\n      mstore\n      dup1\n      swap3\n      swap2\n      swap1\n      dup2\n      dup2\n      mstore\n      0x20\n      add\n      dup3\n      dup1\n      sload\n      tag_146\n      swap1\n      tag_67\n      jump\t// in\n    tag_146:\n      dup1\n      iszero\n      tag_147\n      jumpi\n      dup1\n      0x1f\n      lt\n      tag_148\n      jumpi\n      0x0100\n      dup1\n      dup4\n      sload\n      div\n      mul\n      dup4\n      mstore\n      swap2\n      0x20\n      add\n      swap2\n      jump(tag_147)\n    tag_148:\n      dup3\n      add\n      swap2\n      swap1\n      0x00\n      mstore\n      keccak256(0x00, 0x20)\n      swap1\n    tag_149:\n      dup2\n      sload\n      dup2\n      mstore\n      swap1\n      0x01\n      add\n      swap1\n      0x20\n      add\n      dup1\n      dup4\n      gt\n      tag_149\n      jumpi\n      dup3\n      swap1\n      sub\n      0x1f\n      and\n      dup3\n      add\n      swap2\n    tag_147:\n      pop\n      pop\n      pop\n      pop\n      pop\n      dup2\n      mstore\n      0x20\n      add\n      0x02\n      dup3\n      add\n      dup1\n      sload\n      tag_150\n      swap1\n      tag_67\n      jump\t// in\n    tag_150:\n      dup1\n      0x1f\n      add\n      0x20\n      dup1\n      swap2\n      div\n      mul\n      0x20\n      add\n      mload(0x40)\n      swap1\n      dup2\n      add\n      0x40\n      mstore\n      dup1\n      swap3\n      swap2\n      swap1\n      dup2\n      dup2\n      mstore\n      0x20\n      add\n      dup3\n      dup1\n      sload\n      tag_151\n      swap1\n      tag_67\n      jump\t// in\n    tag_151:\n      dup1\n      iszero\n      tag_152\n      jumpi\n      dup1\n      0x1f\n      lt\n      tag_153\n      jumpi\n      0x0100\n      dup1\n      dup4\n      sload\n      div\n      mul\n      dup4\n      mstore\n      swap2\n      0x20\n      add\n      swap2\n      jump(tag_152)\n    tag_153:\n      dup3\n      add\n      swap2\n      swap1\n      0x00\n      mstore\n      keccak256(0x00, 0x20)\n      swap1\n    tag_154:\n      dup2\n      sload\n      dup2\n      mstore\n      swap1\n      0x01\n      add\n      swap1\n      0x20\n      add\n      dup1\n      dup4\n      gt\n      tag_154\n      jumpi\n      dup3\n      swap1\n      sub\n      0x1f\n      and\n      dup3\n      add\n      swap2\n    tag_152:\n      pop\n      pop\n      pop\n      pop\n      pop\n      dup2\n      mstore\n      0x20\n      add\n      0x03\n      dup3\n      add\n      sload\n      dup2\n      mstore\n      0x20\n      add\n      0x04\n      dup3\n      add\n      dup1\n      sload\n      tag_155\n      swap1\n      tag_67\n      jump\t// in\n    tag_155:\n      dup1\n      0x1f\n      add\n      0x20\n      dup1\n      swap2\n      div\n      mul\n      0x20\n      add\n      mload(0x40)\n      swap1\n      dup2\n      add\n      0x40\n      mstore\n      dup1\n      swap3\n      swap2\n      swap1\n      dup2\n      dup2\n      mstore\n      0x20\n      add\n      dup3\n      dup1\n      sload\n      tag_156\n      swap1\n      tag_67\n      jump\t// in\n    tag_156:\n      dup1\n      iszero\n      tag_157\n      jumpi\n      dup1\n      0x1f\n      lt\n      tag_158\n      jumpi\n      0x0100\n      dup1\n      dup4\n      sload\n      div\n      mul\n      dup4\n      mstore\n      swap2\n      0x20\n      add\n      swap2\n      jump(tag_157)\n    tag_158:\n      dup3\n      add\n      swap2\n      swap1\n      0x00\n      mstore\n      keccak256(0x00, 0x20)\n      swap1\n    tag_159:\n      dup2\n      sload\n      dup2\n      mstore\n      swap1\n      0x01\n      add\n      swap1\n      0x20\n      add\n      dup1\n      dup4\n      gt\n      tag_159\n      jumpi\n      dup3\n      swap1\n      sub\n      0x1f\n      and\n      dup3\n      add\n      swap2\n    tag_157:\n      pop\n      pop\n      pop\n      pop\n      pop\n      dup2\n      mstore\n      pop\n      pop\n        /* \"ClassTest II/CTq4.sol\":1674:1680  result */\n      dup4\n        /* \"ClassTest II/CTq4.sol\":1681:1686  index */\n      dup4\n        /* \"ClassTest II/CTq4.sol\":1674:1687  result[index] */\n      dup2\n      mload\n      dup2\n      lt\n      tag_160\n      jumpi\n      tag_161\n      tag_40\n      jump\t// in\n    tag_161:\n    tag_160:\n      0x20\n      mul\n      0x20\n      add\n      add\n        /* \"ClassTest II/CTq4.sol\":1674:1698  result[index] = books[i] */\n      dup2\n      swap1\n      mstore\n      pop\n        /* \"ClassTest II/CTq4.sol\":1717:1724  index++ */\n      dup2\n      dup1\n      tag_162\n      swap1\n      tag_46\n      jump\t// in\n    tag_162:\n      swap3\n      pop\n      pop\n        /* \"ClassTest II/CTq4.sol\":1541:1740  if (keccak256(abi.encodePacked(books[i].publisher)) == ... */\n    tag_136:\n        /* \"ClassTest II/CTq4.sol\":1521:1524  i++ */\n      dup1\n      dup1\n      0x01\n      add\n      swap2\n      pop\n      pop\n        /* \"ClassTest II/CTq4.sol\":1486:1751  for (uint i = 0; i < books.length; i++) {... */\n      jump(tag_128)\n    tag_129:\n      pop\n        /* \"ClassTest II/CTq4.sol\":1778:1784  result */\n      dup2\n        /* \"ClassTest II/CTq4.sol\":1771:1784  return result */\n      swap4\n      pop\n      pop\n      pop\n      pop\n        /* \"ClassTest II/CTq4.sol\":851:1792  function getBooksByPublisher(string memory _publisher) ... */\n      swap2\n      swap1\n      pop\n      jump\t// out\n        /* \"ClassTest II/CTq4.sol\":2845:2934  function getBookCount() public view returns (uint) {... */\n    tag_25:\n        /* \"ClassTest II/CTq4.sol\":2890:2894  uint */\n      0x00\n        /* \"ClassTest II/CTq4.sol\":2914:2919  books */\n      dup1\n        /* \"ClassTest II/CTq4.sol\":2914:2926  books.length */\n      dup1\n      sload\n      swap1\n      pop\n        /* \"ClassTest II/CTq4.sol\":2907:2926  return books.length */\n      swap1\n      pop\n        /* \"ClassTest II/CTq4.sol\":2845:2934  function getBookCount() public view returns (uint) {... */\n      swap1\n      jump\t// out\n        /* \"ClassTest II/CTq4.sol\":409:789  function addBook(... */\n    tag_31:\n        /* \"ClassTest II/CTq4.sol\":602:607  books */\n      0x00\n        /* \"ClassTest II/CTq4.sol\":613:780  Book({... */\n      mload(0x40)\n      dup1\n      0xa0\n      add\n      0x40\n      mstore\n      dup1\n        /* \"ClassTest II/CTq4.sol\":639:644  _name */\n      dup8\n        /* \"ClassTest II/CTq4.sol\":613:780  Book({... */\n      dup2\n      mstore\n      0x20\n      add\n        /* \"ClassTest II/CTq4.sol\":667:674  _author */\n      dup7\n        /* \"ClassTest II/CTq4.sol\":613:780  Book({... */\n      dup2\n      mstore\n      0x20\n      add\n        /* \"ClassTest II/CTq4.sol\":700:710  _publisher */\n      dup6\n        /* \"ClassTest II/CTq4.sol\":613:780  Book({... */\n      dup2\n      mstore\n      0x20\n      add\n        /* \"ClassTest II/CTq4.sol\":732:738  _price */\n      dup5\n        /* \"ClassTest II/CTq4.sol\":613:780  Book({... */\n      dup2\n      mstore\n      0x20\n      add\n        /* \"ClassTest II/CTq4.sol\":761:768  _branch */\n      dup4\n        /* \"ClassTest II/CTq4.sol\":613:780  Book({... */\n      dup2\n      mstore\n      pop\n        /* \"ClassTest II/CTq4.sol\":602:781  books.push(Book({... */\n      swap1\n      dup1\n      0x01\n      dup2\n      sload\n      add\n      dup1\n      dup3\n      sstore\n      dup1\n      swap2\n      pop\n      pop\n      0x01\n      swap1\n      sub\n      swap1\n      0x00\n      mstore\n      keccak256(0x00, 0x20)\n      swap1\n      0x05\n      mul\n      add\n      0x00\n      swap1\n      swap2\n      swap1\n      swap2\n      swap1\n      swap2\n      pop\n      0x00\n      dup3\n      add\n      mload\n      dup2\n      0x00\n      add\n      swap1\n      dup2\n      tag_166\n      swap2\n      swap1\n      tag_167\n      jump\t// in\n    tag_166:\n      pop\n      0x20\n      dup3\n      add\n      mload\n      dup2\n      0x01\n      add\n      swap1\n      dup2\n      tag_168\n      swap2\n      swap1\n      tag_167\n      jump\t// in\n    tag_168:\n      pop\n      0x40\n      dup3\n      add\n      mload\n      dup2\n      0x02\n      add\n      swap1\n      dup2\n      tag_169\n      swap2\n      swap1\n      tag_167\n      jump\t// in\n    tag_169:\n      pop\n      0x60\n      dup3\n      add\n      mload\n      dup2\n      0x03\n      add\n      sstore\n      0x80\n      dup3\n      add\n      mload\n      dup2\n      0x04\n      add\n      swap1\n      dup2\n      tag_170\n      swap2\n      swap1\n      tag_167\n      jump\t// in\n    tag_170:\n      pop\n      pop\n      pop\n        /* \"ClassTest II/CTq4.sol\":409:789  function addBook(... */\n      pop\n      pop\n      pop\n      pop\n      pop\n      jump\t// out\n    tag_53:\n      mload(0x40)\n      dup1\n      0xa0\n      add\n      0x40\n      mstore\n      dup1\n      0x60\n      dup2\n      mstore\n      0x20\n      add\n      0x60\n      dup2\n      mstore\n      0x20\n      add\n      0x60\n      dup2\n      mstore\n      0x20\n      add\n      0x00\n      dup2\n      mstore\n      0x20\n      add\n      0x60\n      dup2\n      mstore\n      pop\n      swap1\n      jump\t// out\n        /* \"#utility.yul\":7:82   */\n    tag_171:\n        /* \"#utility.yul\":40:46   */\n      0x00\n        /* \"#utility.yul\":73:75   */\n      0x40\n        /* \"#utility.yul\":67:76   */\n      mload\n        /* \"#utility.yul\":57:76   */\n      swap1\n      pop\n        /* \"#utility.yul\":7:82   */\n      swap1\n      jump\t// out\n        /* \"#utility.yul\":88:205   */\n    tag_172:\n        /* \"#utility.yul\":197:198   */\n      0x00\n        /* \"#utility.yul\":194:195   */\n      dup1\n        /* \"#utility.yul\":187:199   */\n      revert\n        /* \"#utility.yul\":211:328   */\n    tag_173:\n        /* \"#utility.yul\":320:321   */\n      0x00\n        /* \"#utility.yul\":317:318   */\n      dup1\n        /* \"#utility.yul\":310:322   */\n      revert\n        /* \"#utility.yul\":334:451   */\n    tag_174:\n        /* \"#utility.yul\":443:444   */\n      0x00\n        /* \"#utility.yul\":440:441   */\n      dup1\n        /* \"#utility.yul\":433:445   */\n      revert\n        /* \"#utility.yul\":457:574   */\n    tag_175:\n        /* \"#utility.yul\":566:567   */\n      0x00\n        /* \"#utility.yul\":563:564   */\n      dup1\n        /* \"#utility.yul\":556:568   */\n      revert\n        /* \"#utility.yul\":580:682   */\n    tag_176:\n        /* \"#utility.yul\":621:627   */\n      0x00\n        /* \"#utility.yul\":672:674   */\n      0x1f\n        /* \"#utility.yul\":668:675   */\n      not\n        /* \"#utility.yul\":663:665   */\n      0x1f\n        /* \"#utility.yul\":656:661   */\n      dup4\n        /* \"#utility.yul\":652:666   */\n      add\n        /* \"#utility.yul\":648:676   */\n      and\n        /* \"#utility.yul\":638:676   */\n      swap1\n      pop\n        /* \"#utility.yul\":580:682   */\n      swap2\n      swap1\n      pop\n      jump\t// out\n        /* \"#utility.yul\":688:868   */\n    tag_49:\n        /* \"#utility.yul\":736:813   */\n      0x4e487b7100000000000000000000000000000000000000000000000000000000\n        /* \"#utility.yul\":733:734   */\n      0x00\n        /* \"#utility.yul\":726:814   */\n      mstore\n        /* \"#utility.yul\":833:837   */\n      0x41\n        /* \"#utility.yul\":830:831   */\n      0x04\n        /* \"#utility.yul\":823:838   */\n      mstore\n        /* \"#utility.yul\":857:861   */\n      0x24\n        /* \"#utility.yul\":854:855   */\n      0x00\n        /* \"#utility.yul\":847:862   */\n      revert\n        /* \"#utility.yul\":874:1155   */\n    tag_177:\n        /* \"#utility.yul\":957:984   */\n      tag_230\n        /* \"#utility.yul\":979:983   */\n      dup3\n        /* \"#utility.yul\":957:984   */\n      tag_176\n      jump\t// in\n    tag_230:\n        /* \"#utility.yul\":949:955   */\n      dup2\n        /* \"#utility.yul\":945:985   */\n      add\n        /* \"#utility.yul\":1087:1093   */\n      dup2\n        /* \"#utility.yul\":1075:1085   */\n      dup2\n        /* \"#utility.yul\":1072:1094   */\n      lt\n        /* \"#utility.yul\":1051:1069   */\n      0xffffffffffffffff\n        /* \"#utility.yul\":1039:1049   */\n      dup3\n        /* \"#utility.yul\":1036:1070   */\n      gt\n        /* \"#utility.yul\":1033:1095   */\n      or\n        /* \"#utility.yul\":1030:1118   */\n      iszero\n      tag_231\n      jumpi\n        /* \"#utility.yul\":1098:1116   */\n      tag_232\n      tag_49\n      jump\t// in\n    tag_232:\n        /* \"#utility.yul\":1030:1118   */\n    tag_231:\n        /* \"#utility.yul\":1138:1148   */\n      dup1\n        /* \"#utility.yul\":1134:1136   */\n      0x40\n        /* \"#utility.yul\":1127:1149   */\n      mstore\n        /* \"#utility.yul\":917:1155   */\n      pop\n        /* \"#utility.yul\":874:1155   */\n      pop\n      pop\n      jump\t// out\n        /* \"#utility.yul\":1161:1290   */\n    tag_178:\n        /* \"#utility.yul\":1195:1201   */\n      0x00\n        /* \"#utility.yul\":1222:1242   */\n      tag_234\n      tag_171\n      jump\t// in\n    tag_234:\n        /* \"#utility.yul\":1212:1242   */\n      swap1\n      pop\n        /* \"#utility.yul\":1251:1284   */\n      tag_235\n        /* \"#utility.yul\":1279:1283   */\n      dup3\n        /* \"#utility.yul\":1271:1277   */\n      dup3\n        /* \"#utility.yul\":1251:1284   */\n      tag_177\n      jump\t// in\n    tag_235:\n        /* \"#utility.yul\":1161:1290   */\n      swap2\n      swap1\n      pop\n      jump\t// out\n        /* \"#utility.yul\":1296:1604   */\n    tag_179:\n        /* \"#utility.yul\":1358:1362   */\n      0x00\n        /* \"#utility.yul\":1448:1466   */\n      0xffffffffffffffff\n        /* \"#utility.yul\":1440:1446   */\n      dup3\n        /* \"#utility.yul\":1437:1467   */\n      gt\n        /* \"#utility.yul\":1434:1490   */\n      iszero\n      tag_237\n      jumpi\n        /* \"#utility.yul\":1470:1488   */\n      tag_238\n      tag_49\n      jump\t// in\n    tag_238:\n        /* \"#utility.yul\":1434:1490   */\n    tag_237:\n        /* \"#utility.yul\":1508:1537   */\n      tag_239\n        /* \"#utility.yul\":1530:1536   */\n      dup3\n        /* \"#utility.yul\":1508:1537   */\n      tag_176\n      jump\t// in\n    tag_239:\n        /* \"#utility.yul\":1500:1537   */\n      swap1\n      pop\n        /* \"#utility.yul\":1592:1596   */\n      0x20\n        /* \"#utility.yul\":1586:1590   */\n      dup2\n        /* \"#utility.yul\":1582:1597   */\n      add\n        /* \"#utility.yul\":1574:1597   */\n      swap1\n      pop\n        /* \"#utility.yul\":1296:1604   */\n      swap2\n      swap1\n      pop\n      jump\t// out\n        /* \"#utility.yul\":1610:1758   */\n    tag_180:\n        /* \"#utility.yul\":1708:1714   */\n      dup3\n        /* \"#utility.yul\":1703:1706   */\n      dup2\n        /* \"#utility.yul\":1698:1701   */\n      dup4\n        /* \"#utility.yul\":1685:1715   */\n      calldatacopy\n        /* \"#utility.yul\":1749:1750   */\n      0x00\n        /* \"#utility.yul\":1740:1746   */\n      dup4\n        /* \"#utility.yul\":1735:1738   */\n      dup4\n        /* \"#utility.yul\":1731:1747   */\n      add\n        /* \"#utility.yul\":1724:1751   */\n      mstore\n        /* \"#utility.yul\":1610:1758   */\n      pop\n      pop\n      pop\n      jump\t// out\n        /* \"#utility.yul\":1764:2189   */\n    tag_181:\n        /* \"#utility.yul\":1842:1847   */\n      0x00\n        /* \"#utility.yul\":1867:1933   */\n      tag_242\n        /* \"#utility.yul\":1883:1932   */\n      tag_243\n        /* \"#utility.yul\":1925:1931   */\n      dup5\n        /* \"#utility.yul\":1883:1932   */\n      tag_179\n      jump\t// in\n    tag_243:\n        /* \"#utility.yul\":1867:1933   */\n      tag_178\n      jump\t// in\n    tag_242:\n        /* \"#utility.yul\":1858:1933   */\n      swap1\n      pop\n        /* \"#utility.yul\":1956:1962   */\n      dup3\n        /* \"#utility.yul\":1949:1954   */\n      dup2\n        /* \"#utility.yul\":1942:1963   */\n      mstore\n        /* \"#utility.yul\":1994:1998   */\n      0x20\n        /* \"#utility.yul\":1987:1992   */\n      dup2\n        /* \"#utility.yul\":1983:1999   */\n      add\n        /* \"#utility.yul\":2032:2035   */\n      dup5\n        /* \"#utility.yul\":2023:2029   */\n      dup5\n        /* \"#utility.yul\":2018:2021   */\n      dup5\n        /* \"#utility.yul\":2014:2030   */\n      add\n        /* \"#utility.yul\":2011:2036   */\n      gt\n        /* \"#utility.yul\":2008:2120   */\n      iszero\n      tag_244\n      jumpi\n        /* \"#utility.yul\":2039:2118   */\n      tag_245\n      tag_175\n      jump\t// in\n    tag_245:\n        /* \"#utility.yul\":2008:2120   */\n    tag_244:\n        /* \"#utility.yul\":2129:2183   */\n      tag_246\n        /* \"#utility.yul\":2176:2182   */\n      dup5\n        /* \"#utility.yul\":2171:2174   */\n      dup3\n        /* \"#utility.yul\":2166:2169   */\n      dup6\n        /* \"#utility.yul\":2129:2183   */\n      tag_180\n      jump\t// in\n    tag_246:\n        /* \"#utility.yul\":1848:2189   */\n      pop\n        /* \"#utility.yul\":1764:2189   */\n      swap4\n      swap3\n      pop\n      pop\n      pop\n      jump\t// out\n        /* \"#utility.yul\":2209:2549   */\n    tag_182:\n        /* \"#utility.yul\":2265:2270   */\n      0x00\n        /* \"#utility.yul\":2314:2317   */\n      dup3\n        /* \"#utility.yul\":2307:2311   */\n      0x1f\n        /* \"#utility.yul\":2299:2305   */\n      dup4\n        /* \"#utility.yul\":2295:2312   */\n      add\n        /* \"#utility.yul\":2291:2318   */\n      slt\n        /* \"#utility.yul\":2281:2403   */\n      tag_248\n      jumpi\n        /* \"#utility.yul\":2322:2401   */\n      tag_249\n      tag_174\n      jump\t// in\n    tag_249:\n        /* \"#utility.yul\":2281:2403   */\n    tag_248:\n        /* \"#utility.yul\":2439:2445   */\n      dup2\n        /* \"#utility.yul\":2426:2446   */\n      calldataload\n        /* \"#utility.yul\":2464:2543   */\n      tag_250\n        /* \"#utility.yul\":2539:2542   */\n      dup5\n        /* \"#utility.yul\":2531:2537   */\n      dup3\n        /* \"#utility.yul\":2524:2528   */\n      0x20\n        /* \"#utility.yul\":2516:2522   */\n      dup7\n        /* \"#utility.yul\":2512:2529   */\n      add\n        /* \"#utility.yul\":2464:2543   */\n      tag_181\n      jump\t// in\n    tag_250:\n        /* \"#utility.yul\":2455:2543   */\n      swap2\n      pop\n        /* \"#utility.yul\":2271:2549   */\n      pop\n        /* \"#utility.yul\":2209:2549   */\n      swap3\n      swap2\n      pop\n      pop\n      jump\t// out\n        /* \"#utility.yul\":2555:3064   */\n    tag_10:\n        /* \"#utility.yul\":2624:2630   */\n      0x00\n        /* \"#utility.yul\":2673:2675   */\n      0x20\n        /* \"#utility.yul\":2661:2670   */\n      dup3\n        /* \"#utility.yul\":2652:2659   */\n      dup5\n        /* \"#utility.yul\":2648:2671   */\n      sub\n        /* \"#utility.yul\":2644:2676   */\n      slt\n        /* \"#utility.yul\":2641:2760   */\n      iszero\n      tag_252\n      jumpi\n        /* \"#utility.yul\":2679:2758   */\n      tag_253\n      tag_172\n      jump\t// in\n    tag_253:\n        /* \"#utility.yul\":2641:2760   */\n    tag_252:\n        /* \"#utility.yul\":2827:2828   */\n      0x00\n        /* \"#utility.yul\":2816:2825   */\n      dup3\n        /* \"#utility.yul\":2812:2829   */\n      add\n        /* \"#utility.yul\":2799:2830   */\n      calldataload\n        /* \"#utility.yul\":2857:2875   */\n      0xffffffffffffffff\n        /* \"#utility.yul\":2849:2855   */\n      dup2\n        /* \"#utility.yul\":2846:2876   */\n      gt\n        /* \"#utility.yul\":2843:2960   */\n      iszero\n      tag_254\n      jumpi\n        /* \"#utility.yul\":2879:2958   */\n      tag_255\n      tag_173\n      jump\t// in\n    tag_255:\n        /* \"#utility.yul\":2843:2960   */\n    tag_254:\n        /* \"#utility.yul\":2984:3047   */\n      tag_256\n        /* \"#utility.yul\":3039:3046   */\n      dup5\n        /* \"#utility.yul\":3030:3036   */\n      dup3\n        /* \"#utility.yul\":3019:3028   */\n      dup6\n        /* \"#utility.yul\":3015:3037   */\n      add\n        /* \"#utility.yul\":2984:3047   */\n      tag_182\n      jump\t// in\n    tag_256:\n        /* \"#utility.yul\":2974:3047   */\n      swap2\n      pop\n        /* \"#utility.yul\":2770:3057   */\n      pop\n        /* \"#utility.yul\":2555:3064   */\n      swap3\n      swap2\n      pop\n      pop\n      jump\t// out\n        /* \"#utility.yul\":3070:3204   */\n    tag_183:\n        /* \"#utility.yul\":3157:3163   */\n      0x00\n        /* \"#utility.yul\":3191:3196   */\n      dup2\n        /* \"#utility.yul\":3185:3197   */\n      mload\n        /* \"#utility.yul\":3175:3197   */\n      swap1\n      pop\n        /* \"#utility.yul\":3070:3204   */\n      swap2\n      swap1\n      pop\n      jump\t// out\n        /* \"#utility.yul\":3210:3414   */\n    tag_184:\n        /* \"#utility.yul\":3329:3340   */\n      0x00\n        /* \"#utility.yul\":3363:3369   */\n      dup3\n        /* \"#utility.yul\":3358:3361   */\n      dup3\n        /* \"#utility.yul\":3351:3370   */\n      mstore\n        /* \"#utility.yul\":3403:3407   */\n      0x20\n        /* \"#utility.yul\":3398:3401   */\n      dup3\n        /* \"#utility.yul\":3394:3408   */\n      add\n        /* \"#utility.yul\":3379:3408   */\n      swap1\n      pop\n        /* \"#utility.yul\":3210:3414   */\n      swap3\n      swap2\n      pop\n      pop\n      jump\t// out\n        /* \"#utility.yul\":3420:3572   */\n    tag_185:\n        /* \"#utility.yul\":3507:3511   */\n      0x00\n        /* \"#utility.yul\":3530:3533   */\n      dup2\n        /* \"#utility.yul\":3522:3533   */\n      swap1\n      pop\n        /* \"#utility.yul\":3560:3564   */\n      0x20\n        /* \"#utility.yul\":3555:3558   */\n      dup3\n        /* \"#utility.yul\":3551:3565   */\n      add\n        /* \"#utility.yul\":3543:3565   */\n      swap1\n      pop\n        /* \"#utility.yul\":3420:3572   */\n      swap2\n      swap1\n      pop\n      jump\t// out\n        /* \"#utility.yul\":3578:3677   */\n    tag_186:\n        /* \"#utility.yul\":3630:3636   */\n      0x00\n        /* \"#utility.yul\":3664:3669   */\n      dup2\n        /* \"#utility.yul\":3658:3670   */\n      mload\n        /* \"#utility.yul\":3648:3670   */\n      swap1\n      pop\n        /* \"#utility.yul\":3578:3677   */\n      swap2\n      swap1\n      pop\n      jump\t// out\n        /* \"#utility.yul\":3683:3842   */\n    tag_187:\n        /* \"#utility.yul\":3757:3768   */\n      0x00\n        /* \"#utility.yul\":3791:3797   */\n      dup3\n        /* \"#utility.yul\":3786:3789   */\n      dup3\n        /* \"#utility.yul\":3779:3798   */\n      mstore\n        /* \"#utility.yul\":3831:3835   */\n      0x20\n        /* \"#utility.yul\":3826:3829   */\n      dup3\n        /* \"#utility.yul\":3822:3836   */\n      add\n        /* \"#utility.yul\":3807:3836   */\n      swap1\n      pop\n        /* \"#utility.yul\":3683:3842   */\n      swap3\n      swap2\n      pop\n      pop\n      jump\t// out\n        /* \"#utility.yul\":3848:3987   */\n    tag_188:\n        /* \"#utility.yul\":3937:3943   */\n      dup3\n        /* \"#utility.yul\":3932:3935   */\n      dup2\n        /* \"#utility.yul\":3927:3930   */\n      dup4\n        /* \"#utility.yul\":3921:3944   */\n      mcopy\n        /* \"#utility.yul\":3978:3979   */\n      0x00\n        /* \"#utility.yul\":3969:3975   */\n      dup4\n        /* \"#utility.yul\":3964:3967   */\n      dup4\n        /* \"#utility.yul\":3960:3976   */\n      add\n        /* \"#utility.yul\":3953:3980   */\n      mstore\n        /* \"#utility.yul\":3848:3987   */\n      pop\n      pop\n      pop\n      jump\t// out\n        /* \"#utility.yul\":3993:4350   */\n    tag_189:\n        /* \"#utility.yul\":4071:4074   */\n      0x00\n        /* \"#utility.yul\":4099:4138   */\n      tag_264\n        /* \"#utility.yul\":4132:4137   */\n      dup3\n        /* \"#utility.yul\":4099:4138   */\n      tag_186\n      jump\t// in\n    tag_264:\n        /* \"#utility.yul\":4154:4215   */\n      tag_265\n        /* \"#utility.yul\":4208:4214   */\n      dup2\n        /* \"#utility.yul\":4203:4206   */\n      dup6\n        /* \"#utility.yul\":4154:4215   */\n      tag_187\n      jump\t// in\n    tag_265:\n        /* \"#utility.yul\":4147:4215   */\n      swap4\n      pop\n        /* \"#utility.yul\":4224:4289   */\n      tag_266\n        /* \"#utility.yul\":4282:4288   */\n      dup2\n        /* \"#utility.yul\":4277:4280   */\n      dup6\n        /* \"#utility.yul\":4270:4274   */\n      0x20\n        /* \"#utility.yul\":4263:4268   */\n      dup7\n        /* \"#utility.yul\":4259:4275   */\n      add\n        /* \"#utility.yul\":4224:4289   */\n      tag_188\n      jump\t// in\n    tag_266:\n        /* \"#utility.yul\":4314:4343   */\n      tag_267\n        /* \"#utility.yul\":4336:4342   */\n      dup2\n        /* \"#utility.yul\":4314:4343   */\n      tag_176\n      jump\t// in\n    tag_267:\n        /* \"#utility.yul\":4309:4312   */\n      dup5\n        /* \"#utility.yul\":4305:4344   */\n      add\n        /* \"#utility.yul\":4298:4344   */\n      swap2\n      pop\n        /* \"#utility.yul\":4075:4350   */\n      pop\n        /* \"#utility.yul\":3993:4350   */\n      swap3\n      swap2\n      pop\n      pop\n      jump\t// out\n        /* \"#utility.yul\":4356:4433   */\n    tag_190:\n        /* \"#utility.yul\":4393:4400   */\n      0x00\n        /* \"#utility.yul\":4422:4427   */\n      dup2\n        /* \"#utility.yul\":4411:4427   */\n      swap1\n      pop\n        /* \"#utility.yul\":4356:4433   */\n      swap2\n      swap1\n      pop\n      jump\t// out\n        /* \"#utility.yul\":4439:4547   */\n    tag_191:\n        /* \"#utility.yul\":4516:4540   */\n      tag_270\n        /* \"#utility.yul\":4534:4539   */\n      dup2\n        /* \"#utility.yul\":4516:4540   */\n      tag_190\n      jump\t// in\n    tag_270:\n        /* \"#utility.yul\":4511:4514   */\n      dup3\n        /* \"#utility.yul\":4504:4541   */\n      mstore\n        /* \"#utility.yul\":4439:4547   */\n      pop\n      pop\n      jump\t// out\n        /* \"#utility.yul\":4603:5934   */\n    tag_192:\n        /* \"#utility.yul\":4702:4705   */\n      0x00\n        /* \"#utility.yul\":4738:4742   */\n      0xa0\n        /* \"#utility.yul\":4733:4736   */\n      dup4\n        /* \"#utility.yul\":4729:4743   */\n      add\n        /* \"#utility.yul\":4825:4829   */\n      0x00\n        /* \"#utility.yul\":4818:4823   */\n      dup4\n        /* \"#utility.yul\":4814:4830   */\n      add\n        /* \"#utility.yul\":4808:4831   */\n      mload\n        /* \"#utility.yul\":4878:4881   */\n      dup5\n        /* \"#utility.yul\":4872:4876   */\n      dup3\n        /* \"#utility.yul\":4868:4882   */\n      sub\n        /* \"#utility.yul\":4861:4865   */\n      0x00\n        /* \"#utility.yul\":4856:4859   */\n      dup7\n        /* \"#utility.yul\":4852:4866   */\n      add\n        /* \"#utility.yul\":4845:4883   */\n      mstore\n        /* \"#utility.yul\":4904:4977   */\n      tag_272\n        /* \"#utility.yul\":4972:4976   */\n      dup3\n        /* \"#utility.yul\":4958:4970   */\n      dup3\n        /* \"#utility.yul\":4904:4977   */\n      tag_189\n      jump\t// in\n    tag_272:\n        /* \"#utility.yul\":4896:4977   */\n      swap2\n      pop\n        /* \"#utility.yul\":4753:4988   */\n      pop\n        /* \"#utility.yul\":5072:5076   */\n      0x20\n        /* \"#utility.yul\":5065:5070   */\n      dup4\n        /* \"#utility.yul\":5061:5077   */\n      add\n        /* \"#utility.yul\":5055:5078   */\n      mload\n        /* \"#utility.yul\":5125:5128   */\n      dup5\n        /* \"#utility.yul\":5119:5123   */\n      dup3\n        /* \"#utility.yul\":5115:5129   */\n      sub\n        /* \"#utility.yul\":5108:5112   */\n      0x20\n        /* \"#utility.yul\":5103:5106   */\n      dup7\n        /* \"#utility.yul\":5099:5113   */\n      add\n        /* \"#utility.yul\":5092:5130   */\n      mstore\n        /* \"#utility.yul\":5151:5224   */\n      tag_273\n        /* \"#utility.yul\":5219:5223   */\n      dup3\n        /* \"#utility.yul\":5205:5217   */\n      dup3\n        /* \"#utility.yul\":5151:5224   */\n      tag_189\n      jump\t// in\n    tag_273:\n        /* \"#utility.yul\":5143:5224   */\n      swap2\n      pop\n        /* \"#utility.yul\":4998:5235   */\n      pop\n        /* \"#utility.yul\":5322:5326   */\n      0x40\n        /* \"#utility.yul\":5315:5320   */\n      dup4\n        /* \"#utility.yul\":5311:5327   */\n      add\n        /* \"#utility.yul\":5305:5328   */\n      mload\n        /* \"#utility.yul\":5375:5378   */\n      dup5\n        /* \"#utility.yul\":5369:5373   */\n      dup3\n        /* \"#utility.yul\":5365:5379   */\n      sub\n        /* \"#utility.yul\":5358:5362   */\n      0x40\n        /* \"#utility.yul\":5353:5356   */\n      dup7\n        /* \"#utility.yul\":5349:5363   */\n      add\n        /* \"#utility.yul\":5342:5380   */\n      mstore\n        /* \"#utility.yul\":5401:5474   */\n      tag_274\n        /* \"#utility.yul\":5469:5473   */\n      dup3\n        /* \"#utility.yul\":5455:5467   */\n      dup3\n        /* \"#utility.yul\":5401:5474   */\n      tag_189\n      jump\t// in\n    tag_274:\n        /* \"#utility.yul\":5393:5474   */\n      swap2\n      pop\n        /* \"#utility.yul\":5245:5485   */\n      pop\n        /* \"#utility.yul\":5568:5572   */\n      0x60\n        /* \"#utility.yul\":5561:5566   */\n      dup4\n        /* \"#utility.yul\":5557:5573   */\n      add\n        /* \"#utility.yul\":5551:5574   */\n      mload\n        /* \"#utility.yul\":5587:5650   */\n      tag_275\n        /* \"#utility.yul\":5644:5648   */\n      0x60\n        /* \"#utility.yul\":5639:5642   */\n      dup7\n        /* \"#utility.yul\":5635:5649   */\n      add\n        /* \"#utility.yul\":5621:5633   */\n      dup3\n        /* \"#utility.yul\":5587:5650   */\n      tag_191\n      jump\t// in\n    tag_275:\n        /* \"#utility.yul\":5495:5660   */\n      pop\n        /* \"#utility.yul\":5744:5748   */\n      0x80\n        /* \"#utility.yul\":5737:5742   */\n      dup4\n        /* \"#utility.yul\":5733:5749   */\n      add\n        /* \"#utility.yul\":5727:5750   */\n      mload\n        /* \"#utility.yul\":5797:5800   */\n      dup5\n        /* \"#utility.yul\":5791:5795   */\n      dup3\n        /* \"#utility.yul\":5787:5801   */\n      sub\n        /* \"#utility.yul\":5780:5784   */\n      0x80\n        /* \"#utility.yul\":5775:5778   */\n      dup7\n        /* \"#utility.yul\":5771:5785   */\n      add\n        /* \"#utility.yul\":5764:5802   */\n      mstore\n        /* \"#utility.yul\":5823:5896   */\n      tag_276\n        /* \"#utility.yul\":5891:5895   */\n      dup3\n        /* \"#utility.yul\":5877:5889   */\n      dup3\n        /* \"#utility.yul\":5823:5896   */\n      tag_189\n      jump\t// in\n    tag_276:\n        /* \"#utility.yul\":5815:5896   */\n      swap2\n      pop\n        /* \"#utility.yul\":5670:5907   */\n      pop\n        /* \"#utility.yul\":5924:5928   */\n      dup1\n        /* \"#utility.yul\":5917:5928   */\n      swap2\n      pop\n        /* \"#utility.yul\":4707:5934   */\n      pop\n        /* \"#utility.yul\":4603:5934   */\n      swap3\n      swap2\n      pop\n      pop\n      jump\t// out\n        /* \"#utility.yul\":5940:6176   */\n    tag_193:\n        /* \"#utility.yul\":6049:6059   */\n      0x00\n        /* \"#utility.yul\":6084:6170   */\n      tag_278\n        /* \"#utility.yul\":6166:6169   */\n      dup4\n        /* \"#utility.yul\":6158:6164   */\n      dup4\n        /* \"#utility.yul\":6084:6170   */\n      tag_192\n      jump\t// in\n    tag_278:\n        /* \"#utility.yul\":6070:6170   */\n      swap1\n      pop\n        /* \"#utility.yul\":5940:6176   */\n      swap3\n      swap2\n      pop\n      pop\n      jump\t// out\n        /* \"#utility.yul\":6182:6315   */\n    tag_194:\n        /* \"#utility.yul\":6272:6276   */\n      0x00\n        /* \"#utility.yul\":6304:6308   */\n      0x20\n        /* \"#utility.yul\":6299:6302   */\n      dup3\n        /* \"#utility.yul\":6295:6309   */\n      add\n        /* \"#utility.yul\":6287:6309   */\n      swap1\n      pop\n        /* \"#utility.yul\":6182:6315   */\n      swap2\n      swap1\n      pop\n      jump\t// out\n        /* \"#utility.yul\":6375:7446   */\n    tag_195:\n        /* \"#utility.yul\":6534:6537   */\n      0x00\n        /* \"#utility.yul\":6563:6637   */\n      tag_281\n        /* \"#utility.yul\":6631:6636   */\n      dup3\n        /* \"#utility.yul\":6563:6637   */\n      tag_183\n      jump\t// in\n    tag_281:\n        /* \"#utility.yul\":6653:6759   */\n      tag_282\n        /* \"#utility.yul\":6752:6758   */\n      dup2\n        /* \"#utility.yul\":6747:6750   */\n      dup6\n        /* \"#utility.yul\":6653:6759   */\n      tag_184\n      jump\t// in\n    tag_282:\n        /* \"#utility.yul\":6646:6759   */\n      swap4\n      pop\n        /* \"#utility.yul\":6785:6788   */\n      dup4\n        /* \"#utility.yul\":6830:6834   */\n      0x20\n        /* \"#utility.yul\":6822:6828   */\n      dup3\n        /* \"#utility.yul\":6818:6835   */\n      mul\n        /* \"#utility.yul\":6813:6816   */\n      dup6\n        /* \"#utility.yul\":6809:6836   */\n      add\n        /* \"#utility.yul\":6860:6936   */\n      tag_283\n        /* \"#utility.yul\":6930:6935   */\n      dup6\n        /* \"#utility.yul\":6860:6936   */\n      tag_185\n      jump\t// in\n    tag_283:\n        /* \"#utility.yul\":6959:6966   */\n      dup1\n        /* \"#utility.yul\":6990:6991   */\n      0x00\n        /* \"#utility.yul\":6975:7401   */\n    tag_284:\n        /* \"#utility.yul\":7000:7006   */\n      dup6\n        /* \"#utility.yul\":6997:6998   */\n      dup2\n        /* \"#utility.yul\":6994:7007   */\n      lt\n        /* \"#utility.yul\":6975:7401   */\n      iszero\n      tag_286\n      jumpi\n        /* \"#utility.yul\":7071:7080   */\n      dup5\n        /* \"#utility.yul\":7065:7069   */\n      dup5\n        /* \"#utility.yul\":7061:7081   */\n      sub\n        /* \"#utility.yul\":7056:7059   */\n      dup10\n        /* \"#utility.yul\":7049:7082   */\n      mstore\n        /* \"#utility.yul\":7122:7128   */\n      dup2\n        /* \"#utility.yul\":7116:7129   */\n      mload\n        /* \"#utility.yul\":7150:7254   */\n      tag_287\n        /* \"#utility.yul\":7249:7253   */\n      dup6\n        /* \"#utility.yul\":7234:7247   */\n      dup3\n        /* \"#utility.yul\":7150:7254   */\n      tag_193\n      jump\t// in\n    tag_287:\n        /* \"#utility.yul\":7142:7254   */\n      swap5\n      pop\n        /* \"#utility.yul\":7277:7357   */\n      tag_288\n        /* \"#utility.yul\":7350:7356   */\n      dup4\n        /* \"#utility.yul\":7277:7357   */\n      tag_194\n      jump\t// in\n    tag_288:\n        /* \"#utility.yul\":7267:7357   */\n      swap3\n      pop\n        /* \"#utility.yul\":7386:7390   */\n      0x20\n        /* \"#utility.yul\":7381:7384   */\n      dup11\n        /* \"#utility.yul\":7377:7391   */\n      add\n        /* \"#utility.yul\":7370:7391   */\n      swap10\n      pop\n        /* \"#utility.yul\":7035:7401   */\n      pop\n        /* \"#utility.yul\":7022:7023   */\n      0x01\n        /* \"#utility.yul\":7019:7020   */\n      dup2\n        /* \"#utility.yul\":7015:7024   */\n      add\n        /* \"#utility.yul\":7010:7024   */\n      swap1\n      pop\n        /* \"#utility.yul\":6975:7401   */\n      jump(tag_284)\n    tag_286:\n        /* \"#utility.yul\":6979:6993   */\n      pop\n        /* \"#utility.yul\":7417:7421   */\n      dup3\n        /* \"#utility.yul\":7410:7421   */\n      swap8\n      pop\n        /* \"#utility.yul\":7437:7440   */\n      dup8\n        /* \"#utility.yul\":7430:7440   */\n      swap6\n      pop\n        /* \"#utility.yul\":6539:7446   */\n      pop\n      pop\n      pop\n      pop\n      pop\n        /* \"#utility.yul\":6375:7446   */\n      swap3\n      swap2\n      pop\n      pop\n      jump\t// out\n        /* \"#utility.yul\":7452:7905   */\n    tag_13:\n        /* \"#utility.yul\":7635:7639   */\n      0x00\n        /* \"#utility.yul\":7673:7675   */\n      0x20\n        /* \"#utility.yul\":7662:7671   */\n      dup3\n        /* \"#utility.yul\":7658:7676   */\n      add\n        /* \"#utility.yul\":7650:7676   */\n      swap1\n      pop\n        /* \"#utility.yul\":7722:7731   */\n      dup2\n        /* \"#utility.yul\":7716:7720   */\n      dup2\n        /* \"#utility.yul\":7712:7732   */\n      sub\n        /* \"#utility.yul\":7708:7709   */\n      0x00\n        /* \"#utility.yul\":7697:7706   */\n      dup4\n        /* \"#utility.yul\":7693:7710   */\n      add\n        /* \"#utility.yul\":7686:7733   */\n      mstore\n        /* \"#utility.yul\":7750:7898   */\n      tag_290\n        /* \"#utility.yul\":7893:7897   */\n      dup2\n        /* \"#utility.yul\":7884:7890   */\n      dup5\n        /* \"#utility.yul\":7750:7898   */\n      tag_195\n      jump\t// in\n    tag_290:\n        /* \"#utility.yul\":7742:7898   */\n      swap1\n      pop\n        /* \"#utility.yul\":7452:7905   */\n      swap3\n      swap2\n      pop\n      pop\n      jump\t// out\n        /* \"#utility.yul\":7911:8033   */\n    tag_196:\n        /* \"#utility.yul\":7984:8008   */\n      tag_292\n        /* \"#utility.yul\":8002:8007   */\n      dup2\n        /* \"#utility.yul\":7984:8008   */\n      tag_190\n      jump\t// in\n    tag_292:\n        /* \"#utility.yul\":7977:7982   */\n      dup2\n        /* \"#utility.yul\":7974:8009   */\n      eq\n        /* \"#utility.yul\":7964:8027   */\n      tag_293\n      jumpi\n        /* \"#utility.yul\":8023:8024   */\n      0x00\n        /* \"#utility.yul\":8020:8021   */\n      dup1\n        /* \"#utility.yul\":8013:8025   */\n      revert\n        /* \"#utility.yul\":7964:8027   */\n    tag_293:\n        /* \"#utility.yul\":7911:8033   */\n      pop\n      jump\t// out\n        /* \"#utility.yul\":8039:8178   */\n    tag_197:\n        /* \"#utility.yul\":8085:8090   */\n      0x00\n        /* \"#utility.yul\":8123:8129   */\n      dup2\n        /* \"#utility.yul\":8110:8130   */\n      calldataload\n        /* \"#utility.yul\":8101:8130   */\n      swap1\n      pop\n        /* \"#utility.yul\":8139:8172   */\n      tag_295\n        /* \"#utility.yul\":8166:8171   */\n      dup2\n        /* \"#utility.yul\":8139:8172   */\n      tag_196\n      jump\t// in\n    tag_295:\n        /* \"#utility.yul\":8039:8178   */\n      swap3\n      swap2\n      pop\n      pop\n      jump\t// out\n        /* \"#utility.yul\":8184:8513   */\n    tag_16:\n        /* \"#utility.yul\":8243:8249   */\n      0x00\n        /* \"#utility.yul\":8292:8294   */\n      0x20\n        /* \"#utility.yul\":8280:8289   */\n      dup3\n        /* \"#utility.yul\":8271:8278   */\n      dup5\n        /* \"#utility.yul\":8267:8290   */\n      sub\n        /* \"#utility.yul\":8263:8295   */\n      slt\n        /* \"#utility.yul\":8260:8379   */\n      iszero\n      tag_297\n      jumpi\n        /* \"#utility.yul\":8298:8377   */\n      tag_298\n      tag_172\n      jump\t// in\n    tag_298:\n        /* \"#utility.yul\":8260:8379   */\n    tag_297:\n        /* \"#utility.yul\":8418:8419   */\n      0x00\n        /* \"#utility.yul\":8443:8496   */\n      tag_299\n        /* \"#utility.yul\":8488:8495   */\n      dup5\n        /* \"#utility.yul\":8479:8485   */\n      dup3\n        /* \"#utility.yul\":8468:8477   */\n      dup6\n        /* \"#utility.yul\":8464:8486   */\n      add\n        /* \"#utility.yul\":8443:8496   */\n      tag_197\n      jump\t// in\n    tag_299:\n        /* \"#utility.yul\":8433:8496   */\n      swap2\n      pop\n        /* \"#utility.yul\":8389:8506   */\n      pop\n        /* \"#utility.yul\":8184:8513   */\n      swap3\n      swap2\n      pop\n      pop\n      jump\t// out\n        /* \"#utility.yul\":8519:8688   */\n    tag_198:\n        /* \"#utility.yul\":8603:8614   */\n      0x00\n        /* \"#utility.yul\":8637:8643   */\n      dup3\n        /* \"#utility.yul\":8632:8635   */\n      dup3\n        /* \"#utility.yul\":8625:8644   */\n      mstore\n        /* \"#utility.yul\":8677:8681   */\n      0x20\n        /* \"#utility.yul\":8672:8675   */\n      dup3\n        /* \"#utility.yul\":8668:8682   */\n      add\n        /* \"#utility.yul\":8653:8682   */\n      swap1\n      pop\n        /* \"#utility.yul\":8519:8688   */\n      swap3\n      swap2\n      pop\n      pop\n      jump\t// out\n        /* \"#utility.yul\":8694:9071   */\n    tag_199:\n        /* \"#utility.yul\":8782:8785   */\n      0x00\n        /* \"#utility.yul\":8810:8849   */\n      tag_302\n        /* \"#utility.yul\":8843:8848   */\n      dup3\n        /* \"#utility.yul\":8810:8849   */\n      tag_186\n      jump\t// in\n    tag_302:\n        /* \"#utility.yul\":8865:8936   */\n      tag_303\n        /* \"#utility.yul\":8929:8935   */\n      dup2\n        /* \"#utility.yul\":8924:8927   */\n      dup6\n        /* \"#utility.yul\":8865:8936   */\n      tag_198\n      jump\t// in\n    tag_303:\n        /* \"#utility.yul\":8858:8936   */\n      swap4\n      pop\n        /* \"#utility.yul\":8945:9010   */\n      tag_304\n        /* \"#utility.yul\":9003:9009   */\n      dup2\n        /* \"#utility.yul\":8998:9001   */\n      dup6\n        /* \"#utility.yul\":8991:8995   */\n      0x20\n        /* \"#utility.yul\":8984:8989   */\n      dup7\n        /* \"#utility.yul\":8980:8996   */\n      add\n        /* \"#utility.yul\":8945:9010   */\n      tag_188\n      jump\t// in\n    tag_304:\n        /* \"#utility.yul\":9035:9064   */\n      tag_305\n        /* \"#utility.yul\":9057:9063   */\n      dup2\n        /* \"#utility.yul\":9035:9064   */\n      tag_176\n      jump\t// in\n    tag_305:\n        /* \"#utility.yul\":9030:9033   */\n      dup5\n        /* \"#utility.yul\":9026:9065   */\n      add\n        /* \"#utility.yul\":9019:9065   */\n      swap2\n      pop\n        /* \"#utility.yul\":8786:9071   */\n      pop\n        /* \"#utility.yul\":8694:9071   */\n      swap3\n      swap2\n      pop\n      pop\n      jump\t// out\n        /* \"#utility.yul\":9077:9195   */\n    tag_200:\n        /* \"#utility.yul\":9164:9188   */\n      tag_307\n        /* \"#utility.yul\":9182:9187   */\n      dup2\n        /* \"#utility.yul\":9164:9188   */\n      tag_190\n      jump\t// in\n    tag_307:\n        /* \"#utility.yul\":9159:9162   */\n      dup3\n        /* \"#utility.yul\":9152:9189   */\n      mstore\n        /* \"#utility.yul\":9077:9195   */\n      pop\n      pop\n      jump\t// out\n        /* \"#utility.yul\":9201:10229   */\n    tag_19:\n        /* \"#utility.yul\":9486:9490   */\n      0x00\n        /* \"#utility.yul\":9524:9527   */\n      0xa0\n        /* \"#utility.yul\":9513:9522   */\n      dup3\n        /* \"#utility.yul\":9509:9528   */\n      add\n        /* \"#utility.yul\":9501:9528   */\n      swap1\n      pop\n        /* \"#utility.yul\":9574:9583   */\n      dup2\n        /* \"#utility.yul\":9568:9572   */\n      dup2\n        /* \"#utility.yul\":9564:9584   */\n      sub\n        /* \"#utility.yul\":9560:9561   */\n      0x00\n        /* \"#utility.yul\":9549:9558   */\n      dup4\n        /* \"#utility.yul\":9545:9562   */\n      add\n        /* \"#utility.yul\":9538:9585   */\n      mstore\n        /* \"#utility.yul\":9602:9680   */\n      tag_309\n        /* \"#utility.yul\":9675:9679   */\n      dup2\n        /* \"#utility.yul\":9666:9672   */\n      dup9\n        /* \"#utility.yul\":9602:9680   */\n      tag_199\n      jump\t// in\n    tag_309:\n        /* \"#utility.yul\":9594:9680   */\n      swap1\n      pop\n        /* \"#utility.yul\":9727:9736   */\n      dup2\n        /* \"#utility.yul\":9721:9725   */\n      dup2\n        /* \"#utility.yul\":9717:9737   */\n      sub\n        /* \"#utility.yul\":9712:9714   */\n      0x20\n        /* \"#utility.yul\":9701:9710   */\n      dup4\n        /* \"#utility.yul\":9697:9715   */\n      add\n        /* \"#utility.yul\":9690:9738   */\n      mstore\n        /* \"#utility.yul\":9755:9833   */\n      tag_310\n        /* \"#utility.yul\":9828:9832   */\n      dup2\n        /* \"#utility.yul\":9819:9825   */\n      dup8\n        /* \"#utility.yul\":9755:9833   */\n      tag_199\n      jump\t// in\n    tag_310:\n        /* \"#utility.yul\":9747:9833   */\n      swap1\n      pop\n        /* \"#utility.yul\":9880:9889   */\n      dup2\n        /* \"#utility.yul\":9874:9878   */\n      dup2\n        /* \"#utility.yul\":9870:9890   */\n      sub\n        /* \"#utility.yul\":9865:9867   */\n      0x40\n        /* \"#utility.yul\":9854:9863   */\n      dup4\n        /* \"#utility.yul\":9850:9868   */\n      add\n        /* \"#utility.yul\":9843:9891   */\n      mstore\n        /* \"#utility.yul\":9908:9986   */\n      tag_311\n        /* \"#utility.yul\":9981:9985   */\n      dup2\n        /* \"#utility.yul\":9972:9978   */\n      dup7\n        /* \"#utility.yul\":9908:9986   */\n      tag_199\n      jump\t// in\n    tag_311:\n        /* \"#utility.yul\":9900:9986   */\n      swap1\n      pop\n        /* \"#utility.yul\":9996:10068   */\n      tag_312\n        /* \"#utility.yul\":10064:10066   */\n      0x60\n        /* \"#utility.yul\":10053:10062   */\n      dup4\n        /* \"#utility.yul\":10049:10067   */\n      add\n        /* \"#utility.yul\":10040:10046   */\n      dup6\n        /* \"#utility.yul\":9996:10068   */\n      tag_200\n      jump\t// in\n    tag_312:\n        /* \"#utility.yul\":10116:10125   */\n      dup2\n        /* \"#utility.yul\":10110:10114   */\n      dup2\n        /* \"#utility.yul\":10106:10126   */\n      sub\n        /* \"#utility.yul\":10100:10103   */\n      0x80\n        /* \"#utility.yul\":10089:10098   */\n      dup4\n        /* \"#utility.yul\":10085:10104   */\n      add\n        /* \"#utility.yul\":10078:10127   */\n      mstore\n        /* \"#utility.yul\":10144:10222   */\n      tag_313\n        /* \"#utility.yul\":10217:10221   */\n      dup2\n        /* \"#utility.yul\":10208:10214   */\n      dup5\n        /* \"#utility.yul\":10144:10222   */\n      tag_199\n      jump\t// in\n    tag_313:\n        /* \"#utility.yul\":10136:10222   */\n      swap1\n      pop\n        /* \"#utility.yul\":9201:10229   */\n      swap7\n      swap6\n      pop\n      pop\n      pop\n      pop\n      pop\n      pop\n      jump\t// out\n        /* \"#utility.yul\":10235:10457   */\n    tag_27:\n        /* \"#utility.yul\":10328:10332   */\n      0x00\n        /* \"#utility.yul\":10366:10368   */\n      0x20\n        /* \"#utility.yul\":10355:10364   */\n      dup3\n        /* \"#utility.yul\":10351:10369   */\n      add\n        /* \"#utility.yul\":10343:10369   */\n      swap1\n      pop\n        /* \"#utility.yul\":10379:10450   */\n      tag_315\n        /* \"#utility.yul\":10447:10448   */\n      0x00\n        /* \"#utility.yul\":10436:10445   */\n      dup4\n        /* \"#utility.yul\":10432:10449   */\n      add\n        /* \"#utility.yul\":10423:10429   */\n      dup5\n        /* \"#utility.yul\":10379:10450   */\n      tag_200\n      jump\t// in\n    tag_315:\n        /* \"#utility.yul\":10235:10457   */\n      swap3\n      swap2\n      pop\n      pop\n      jump\t// out\n        /* \"#utility.yul\":10463:12094   */\n    tag_30:\n        /* \"#utility.yul\":10598:10604   */\n      0x00\n        /* \"#utility.yul\":10606:10612   */\n      dup1\n        /* \"#utility.yul\":10614:10620   */\n      0x00\n        /* \"#utility.yul\":10622:10628   */\n      dup1\n        /* \"#utility.yul\":10630:10636   */\n      0x00\n        /* \"#utility.yul\":10679:10682   */\n      0xa0\n        /* \"#utility.yul\":10667:10676   */\n      dup7\n        /* \"#utility.yul\":10658:10665   */\n      dup9\n        /* \"#utility.yul\":10654:10677   */\n      sub\n        /* \"#utility.yul\":10650:10683   */\n      slt\n        /* \"#utility.yul\":10647:10767   */\n      iszero\n      tag_317\n      jumpi\n        /* \"#utility.yul\":10686:10765   */\n      tag_318\n      tag_172\n      jump\t// in\n    tag_318:\n        /* \"#utility.yul\":10647:10767   */\n    tag_317:\n        /* \"#utility.yul\":10834:10835   */\n      0x00\n        /* \"#utility.yul\":10823:10832   */\n      dup7\n        /* \"#utility.yul\":10819:10836   */\n      add\n        /* \"#utility.yul\":10806:10837   */\n      calldataload\n        /* \"#utility.yul\":10864:10882   */\n      0xffffffffffffffff\n        /* \"#utility.yul\":10856:10862   */\n      dup2\n        /* \"#utility.yul\":10853:10883   */\n      gt\n        /* \"#utility.yul\":10850:10967   */\n      iszero\n      tag_319\n      jumpi\n        /* \"#utility.yul\":10886:10965   */\n      tag_320\n      tag_173\n      jump\t// in\n    tag_320:\n        /* \"#utility.yul\":10850:10967   */\n    tag_319:\n        /* \"#utility.yul\":10991:11054   */\n      tag_321\n        /* \"#utility.yul\":11046:11053   */\n      dup9\n        /* \"#utility.yul\":11037:11043   */\n      dup3\n        /* \"#utility.yul\":11026:11035   */\n      dup10\n        /* \"#utility.yul\":11022:11044   */\n      add\n        /* \"#utility.yul\":10991:11054   */\n      tag_182\n      jump\t// in\n    tag_321:\n        /* \"#utility.yul\":10981:11054   */\n      swap6\n      pop\n        /* \"#utility.yul\":10777:11064   */\n      pop\n        /* \"#utility.yul\":11131:11133   */\n      0x20\n        /* \"#utility.yul\":11120:11129   */\n      dup7\n        /* \"#utility.yul\":11116:11134   */\n      add\n        /* \"#utility.yul\":11103:11135   */\n      calldataload\n        /* \"#utility.yul\":11162:11180   */\n      0xffffffffffffffff\n        /* \"#utility.yul\":11154:11160   */\n      dup2\n        /* \"#utility.yul\":11151:11181   */\n      gt\n        /* \"#utility.yul\":11148:11265   */\n      iszero\n      tag_322\n      jumpi\n        /* \"#utility.yul\":11184:11263   */\n      tag_323\n      tag_173\n      jump\t// in\n    tag_323:\n        /* \"#utility.yul\":11148:11265   */\n    tag_322:\n        /* \"#utility.yul\":11289:11352   */\n      tag_324\n        /* \"#utility.yul\":11344:11351   */\n      dup9\n        /* \"#utility.yul\":11335:11341   */\n      dup3\n        /* \"#utility.yul\":11324:11333   */\n      dup10\n        /* \"#utility.yul\":11320:11342   */\n      add\n        /* \"#utility.yul\":11289:11352   */\n      tag_182\n      jump\t// in\n    tag_324:\n        /* \"#utility.yul\":11279:11352   */\n      swap5\n      pop\n        /* \"#utility.yul\":11074:11362   */\n      pop\n        /* \"#utility.yul\":11429:11431   */\n      0x40\n        /* \"#utility.yul\":11418:11427   */\n      dup7\n        /* \"#utility.yul\":11414:11432   */\n      add\n        /* \"#utility.yul\":11401:11433   */\n      calldataload\n        /* \"#utility.yul\":11460:11478   */\n      0xffffffffffffffff\n        /* \"#utility.yul\":11452:11458   */\n      dup2\n        /* \"#utility.yul\":11449:11479   */\n      gt\n        /* \"#utility.yul\":11446:11563   */\n      iszero\n      tag_325\n      jumpi\n        /* \"#utility.yul\":11482:11561   */\n      tag_326\n      tag_173\n      jump\t// in\n    tag_326:\n        /* \"#utility.yul\":11446:11563   */\n    tag_325:\n        /* \"#utility.yul\":11587:11650   */\n      tag_327\n        /* \"#utility.yul\":11642:11649   */\n      dup9\n        /* \"#utility.yul\":11633:11639   */\n      dup3\n        /* \"#utility.yul\":11622:11631   */\n      dup10\n        /* \"#utility.yul\":11618:11640   */\n      add\n        /* \"#utility.yul\":11587:11650   */\n      tag_182\n      jump\t// in\n    tag_327:\n        /* \"#utility.yul\":11577:11650   */\n      swap4\n      pop\n        /* \"#utility.yul\":11372:11660   */\n      pop\n        /* \"#utility.yul\":11699:11701   */\n      0x60\n        /* \"#utility.yul\":11725:11778   */\n      tag_328\n        /* \"#utility.yul\":11770:11777   */\n      dup9\n        /* \"#utility.yul\":11761:11767   */\n      dup3\n        /* \"#utility.yul\":11750:11759   */\n      dup10\n        /* \"#utility.yul\":11746:11768   */\n      add\n        /* \"#utility.yul\":11725:11778   */\n      tag_197\n      jump\t// in\n    tag_328:\n        /* \"#utility.yul\":11715:11778   */\n      swap3\n      pop\n        /* \"#utility.yul\":11670:11788   */\n      pop\n        /* \"#utility.yul\":11855:11858   */\n      0x80\n        /* \"#utility.yul\":11844:11853   */\n      dup7\n        /* \"#utility.yul\":11840:11859   */\n      add\n        /* \"#utility.yul\":11827:11860   */\n      calldataload\n        /* \"#utility.yul\":11887:11905   */\n      0xffffffffffffffff\n        /* \"#utility.yul\":11879:11885   */\n      dup2\n        /* \"#utility.yul\":11876:11906   */\n      gt\n        /* \"#utility.yul\":11873:11990   */\n      iszero\n      tag_329\n      jumpi\n        /* \"#utility.yul\":11909:11988   */\n      tag_330\n      tag_173\n      jump\t// in\n    tag_330:\n        /* \"#utility.yul\":11873:11990   */\n    tag_329:\n        /* \"#utility.yul\":12014:12077   */\n      tag_331\n        /* \"#utility.yul\":12069:12076   */\n      dup9\n        /* \"#utility.yul\":12060:12066   */\n      dup3\n        /* \"#utility.yul\":12049:12058   */\n      dup10\n        /* \"#utility.yul\":12045:12067   */\n      add\n        /* \"#utility.yul\":12014:12077   */\n      tag_182\n      jump\t// in\n    tag_331:\n        /* \"#utility.yul\":12004:12077   */\n      swap2\n      pop\n        /* \"#utility.yul\":11798:12087   */\n      pop\n        /* \"#utility.yul\":10463:12094   */\n      swap3\n      swap6\n      pop\n      swap3\n      swap6\n      swap1\n      swap4\n      pop\n      jump\t// out\n        /* \"#utility.yul\":12100:12248   */\n    tag_201:\n        /* \"#utility.yul\":12202:12213   */\n      0x00\n        /* \"#utility.yul\":12239:12242   */\n      dup2\n        /* \"#utility.yul\":12224:12242   */\n      swap1\n      pop\n        /* \"#utility.yul\":12100:12248   */\n      swap3\n      swap2\n      pop\n      pop\n      jump\t// out\n        /* \"#utility.yul\":12254:12644   */\n    tag_202:\n        /* \"#utility.yul\":12360:12363   */\n      0x00\n        /* \"#utility.yul\":12388:12427   */\n      tag_334\n        /* \"#utility.yul\":12421:12426   */\n      dup3\n        /* \"#utility.yul\":12388:12427   */\n      tag_186\n      jump\t// in\n    tag_334:\n        /* \"#utility.yul\":12443:12532   */\n      tag_335\n        /* \"#utility.yul\":12525:12531   */\n      dup2\n        /* \"#utility.yul\":12520:12523   */\n      dup6\n        /* \"#utility.yul\":12443:12532   */\n      tag_201\n      jump\t// in\n    tag_335:\n        /* \"#utility.yul\":12436:12532   */\n      swap4\n      pop\n        /* \"#utility.yul\":12541:12606   */\n      tag_336\n        /* \"#utility.yul\":12599:12605   */\n      dup2\n        /* \"#utility.yul\":12594:12597   */\n      dup6\n        /* \"#utility.yul\":12587:12591   */\n      0x20\n        /* \"#utility.yul\":12580:12585   */\n      dup7\n        /* \"#utility.yul\":12576:12592   */\n      add\n        /* \"#utility.yul\":12541:12606   */\n      tag_188\n      jump\t// in\n    tag_336:\n        /* \"#utility.yul\":12631:12637   */\n      dup1\n        /* \"#utility.yul\":12626:12629   */\n      dup5\n        /* \"#utility.yul\":12622:12638   */\n      add\n        /* \"#utility.yul\":12615:12638   */\n      swap2\n      pop\n        /* \"#utility.yul\":12364:12644   */\n      pop\n        /* \"#utility.yul\":12254:12644   */\n      swap3\n      swap2\n      pop\n      pop\n      jump\t// out\n        /* \"#utility.yul\":12650:12925   */\n    tag_37:\n        /* \"#utility.yul\":12782:12785   */\n      0x00\n        /* \"#utility.yul\":12804:12899   */\n      tag_338\n        /* \"#utility.yul\":12895:12898   */\n      dup3\n        /* \"#utility.yul\":12886:12892   */\n      dup5\n        /* \"#utility.yul\":12804:12899   */\n      tag_202\n      jump\t// in\n    tag_338:\n        /* \"#utility.yul\":12797:12899   */\n      swap2\n      pop\n        /* \"#utility.yul\":12916:12919   */\n      dup2\n        /* \"#utility.yul\":12909:12919   */\n      swap1\n      pop\n        /* \"#utility.yul\":12650:12925   */\n      swap3\n      swap2\n      pop\n      pop\n      jump\t// out\n        /* \"#utility.yul\":12931:13111   */\n    tag_40:\n        /* \"#utility.yul\":12979:13056   */\n      0x4e487b7100000000000000000000000000000000000000000000000000000000\n        /* \"#utility.yul\":12976:12977   */\n      0x00\n        /* \"#utility.yul\":12969:13057   */\n      mstore\n        /* \"#utility.yul\":13076:13080   */\n      0x32\n        /* \"#utility.yul\":13073:13074   */\n      0x04\n        /* \"#utility.yul\":13066:13081   */\n      mstore\n        /* \"#utility.yul\":13100:13104   */\n      0x24\n        /* \"#utility.yul\":13097:13098   */\n      0x00\n        /* \"#utility.yul\":13090:13105   */\n      revert\n        /* \"#utility.yul\":13117:13297   */\n    tag_203:\n        /* \"#utility.yul\":13165:13242   */\n      0x4e487b7100000000000000000000000000000000000000000000000000000000\n        /* \"#utility.yul\":13162:13163   */\n      0x00\n        /* \"#utility.yul\":13155:13243   */\n      mstore\n        /* \"#utility.yul\":13262:13266   */\n      0x22\n        /* \"#utility.yul\":13259:13260   */\n      0x04\n        /* \"#utility.yul\":13252:13267   */\n      mstore\n        /* \"#utility.yul\":13286:13290   */\n      0x24\n        /* \"#utility.yul\":13283:13284   */\n      0x00\n        /* \"#utility.yul\":13276:13291   */\n      revert\n        /* \"#utility.yul\":13303:13623   */\n    tag_67:\n        /* \"#utility.yul\":13347:13353   */\n      0x00\n        /* \"#utility.yul\":13384:13385   */\n      0x02\n        /* \"#utility.yul\":13378:13382   */\n      dup3\n        /* \"#utility.yul\":13374:13386   */\n      div\n        /* \"#utility.yul\":13364:13386   */\n      swap1\n      pop\n        /* \"#utility.yul\":13431:13432   */\n      0x01\n        /* \"#utility.yul\":13425:13429   */\n      dup3\n        /* \"#utility.yul\":13421:13433   */\n      and\n        /* \"#utility.yul\":13452:13470   */\n      dup1\n        /* \"#utility.yul\":13442:13523   */\n      tag_342\n      jumpi\n        /* \"#utility.yul\":13508:13512   */\n      0x7f\n        /* \"#utility.yul\":13500:13506   */\n      dup3\n        /* \"#utility.yul\":13496:13513   */\n      and\n        /* \"#utility.yul\":13486:13513   */\n      swap2\n      pop\n        /* \"#utility.yul\":13442:13523   */\n    tag_342:\n        /* \"#utility.yul\":13570:13572   */\n      0x20\n        /* \"#utility.yul\":13562:13568   */\n      dup3\n        /* \"#utility.yul\":13559:13573   */\n      lt\n        /* \"#utility.yul\":13539:13557   */\n      dup2\n        /* \"#utility.yul\":13536:13574   */\n      sub\n        /* \"#utility.yul\":13533:13617   */\n      tag_343\n      jumpi\n        /* \"#utility.yul\":13589:13607   */\n      tag_344\n      tag_203\n      jump\t// in\n    tag_344:\n        /* \"#utility.yul\":13533:13617   */\n    tag_343:\n        /* \"#utility.yul\":13354:13623   */\n      pop\n        /* \"#utility.yul\":13303:13623   */\n      swap2\n      swap1\n      pop\n      jump\t// out\n        /* \"#utility.yul\":13629:13770   */\n    tag_204:\n        /* \"#utility.yul\":13678:13682   */\n      0x00\n        /* \"#utility.yul\":13701:13704   */\n      dup2\n        /* \"#utility.yul\":13693:13704   */\n      swap1\n      pop\n        /* \"#utility.yul\":13724:13727   */\n      dup2\n        /* \"#utility.yul\":13721:13722   */\n      0x00\n        /* \"#utility.yul\":13714:13728   */\n      mstore\n        /* \"#utility.yul\":13758:13762   */\n      0x20\n        /* \"#utility.yul\":13755:13756   */\n      0x00\n        /* \"#utility.yul\":13745:13763   */\n      keccak256\n        /* \"#utility.yul\":13737:13763   */\n      swap1\n      pop\n        /* \"#utility.yul\":13629:13770   */\n      swap2\n      swap1\n      pop\n      jump\t// out\n        /* \"#utility.yul\":13800:14674   */\n    tag_205:\n        /* \"#utility.yul\":13903:13906   */\n      0x00\n        /* \"#utility.yul\":13940:13945   */\n      dup2\n        /* \"#utility.yul\":13934:13946   */\n      sload\n        /* \"#utility.yul\":13969:14005   */\n      tag_347\n        /* \"#utility.yul\":13995:14004   */\n      dup2\n        /* \"#utility.yul\":13969:14005   */\n      tag_67\n      jump\t// in\n    tag_347:\n        /* \"#utility.yul\":14021:14110   */\n      tag_348\n        /* \"#utility.yul\":14103:14109   */\n      dup2\n        /* \"#utility.yul\":14098:14101   */\n      dup7\n        /* \"#utility.yul\":14021:14110   */\n      tag_201\n      jump\t// in\n    tag_348:\n        /* \"#utility.yul\":14014:14110   */\n      swap5\n      pop\n        /* \"#utility.yul\":14141:14142   */\n      0x01\n        /* \"#utility.yul\":14130:14139   */\n      dup3\n        /* \"#utility.yul\":14126:14143   */\n      and\n        /* \"#utility.yul\":14157:14158   */\n      0x00\n        /* \"#utility.yul\":14152:14318   */\n      dup2\n      eq\n      tag_350\n      jumpi\n        /* \"#utility.yul\":14332:14333   */\n      0x01\n        /* \"#utility.yul\":14327:14668   */\n      dup2\n      eq\n      tag_351\n      jumpi\n        /* \"#utility.yul\":14119:14668   */\n      jump(tag_349)\n        /* \"#utility.yul\":14152:14318   */\n    tag_350:\n        /* \"#utility.yul\":14236:14240   */\n      0xff\n        /* \"#utility.yul\":14232:14241   */\n      not\n        /* \"#utility.yul\":14221:14230   */\n      dup4\n        /* \"#utility.yul\":14217:14242   */\n      and\n        /* \"#utility.yul\":14212:14215   */\n      dup7\n        /* \"#utility.yul\":14205:14243   */\n      mstore\n        /* \"#utility.yul\":14298:14304   */\n      dup2\n        /* \"#utility.yul\":14291:14305   */\n      iszero\n        /* \"#utility.yul\":14284:14306   */\n      iszero\n        /* \"#utility.yul\":14276:14282   */\n      dup3\n        /* \"#utility.yul\":14272:14307   */\n      mul\n        /* \"#utility.yul\":14267:14270   */\n      dup7\n        /* \"#utility.yul\":14263:14308   */\n      add\n        /* \"#utility.yul\":14256:14308   */\n      swap4\n      pop\n        /* \"#utility.yul\":14152:14318   */\n      jump(tag_349)\n        /* \"#utility.yul\":14327:14668   */\n    tag_351:\n        /* \"#utility.yul\":14394:14432   */\n      tag_352\n        /* \"#utility.yul\":14426:14431   */\n      dup6\n        /* \"#utility.yul\":14394:14432   */\n      tag_204\n      jump\t// in\n    tag_352:\n        /* \"#utility.yul\":14454:14455   */\n      0x00\n        /* \"#utility.yul\":14468:14622   */\n    tag_353:\n        /* \"#utility.yul\":14482:14488   */\n      dup4\n        /* \"#utility.yul\":14479:14480   */\n      dup2\n        /* \"#utility.yul\":14476:14489   */\n      lt\n        /* \"#utility.yul\":14468:14622   */\n      iszero\n      tag_355\n      jumpi\n        /* \"#utility.yul\":14556:14563   */\n      dup2\n        /* \"#utility.yul\":14550:14564   */\n      sload\n        /* \"#utility.yul\":14546:14547   */\n      dup2\n        /* \"#utility.yul\":14541:14544   */\n      dup10\n        /* \"#utility.yul\":14537:14548   */\n      add\n        /* \"#utility.yul\":14530:14565   */\n      mstore\n        /* \"#utility.yul\":14606:14607   */\n      0x01\n        /* \"#utility.yul\":14597:14604   */\n      dup3\n        /* \"#utility.yul\":14593:14608   */\n      add\n        /* \"#utility.yul\":14582:14608   */\n      swap2\n      pop\n        /* \"#utility.yul\":14504:14508   */\n      0x20\n        /* \"#utility.yul\":14501:14502   */\n      dup2\n        /* \"#utility.yul\":14497:14509   */\n      add\n        /* \"#utility.yul\":14492:14509   */\n      swap1\n      pop\n        /* \"#utility.yul\":14468:14622   */\n      jump(tag_353)\n    tag_355:\n        /* \"#utility.yul\":14651:14657   */\n      dup4\n        /* \"#utility.yul\":14646:14649   */\n      dup9\n        /* \"#utility.yul\":14642:14658   */\n      add\n        /* \"#utility.yul\":14635:14658   */\n      swap6\n      pop\n        /* \"#utility.yul\":14334:14668   */\n      pop\n      pop\n        /* \"#utility.yul\":14119:14668   */\n    tag_349:\n      pop\n        /* \"#utility.yul\":13907:14674   */\n      pop\n      pop\n        /* \"#utility.yul\":13800:14674   */\n      swap3\n      swap2\n      pop\n      pop\n      jump\t// out\n        /* \"#utility.yul\":14680:14949   */\n    tag_43:\n        /* \"#utility.yul\":14809:14812   */\n      0x00\n        /* \"#utility.yul\":14831:14923   */\n      tag_357\n        /* \"#utility.yul\":14919:14922   */\n      dup3\n        /* \"#utility.yul\":14910:14916   */\n      dup5\n        /* \"#utility.yul\":14831:14923   */\n      tag_205\n      jump\t// in\n    tag_357:\n        /* \"#utility.yul\":14824:14923   */\n      swap2\n      pop\n        /* \"#utility.yul\":14940:14943   */\n      dup2\n        /* \"#utility.yul\":14933:14943   */\n      swap1\n      pop\n        /* \"#utility.yul\":14680:14949   */\n      swap3\n      swap2\n      pop\n      pop\n      jump\t// out\n        /* \"#utility.yul\":14955:15135   */\n    tag_206:\n        /* \"#utility.yul\":15003:15080   */\n      0x4e487b7100000000000000000000000000000000000000000000000000000000\n        /* \"#utility.yul\":15000:15001   */\n      0x00\n        /* \"#utility.yul\":14993:15081   */\n      mstore\n        /* \"#utility.yul\":15100:15104   */\n      0x11\n        /* \"#utility.yul\":15097:15098   */\n      0x04\n        /* \"#utility.yul\":15090:15105   */\n      mstore\n        /* \"#utility.yul\":15124:15128   */\n      0x24\n        /* \"#utility.yul\":15121:15122   */\n      0x00\n        /* \"#utility.yul\":15114:15129   */\n      revert\n        /* \"#utility.yul\":15141:15374   */\n    tag_46:\n        /* \"#utility.yul\":15180:15183   */\n      0x00\n        /* \"#utility.yul\":15203:15227   */\n      tag_360\n        /* \"#utility.yul\":15221:15226   */\n      dup3\n        /* \"#utility.yul\":15203:15227   */\n      tag_190\n      jump\t// in\n    tag_360:\n        /* \"#utility.yul\":15194:15227   */\n      swap2\n      pop\n        /* \"#utility.yul\":15249:15315   */\n      0xffffffffffffffffffffffffffffffffffffffffffffffffffffffffffffffff\n        /* \"#utility.yul\":15242:15247   */\n      dup3\n        /* \"#utility.yul\":15239:15316   */\n      sub\n        /* \"#utility.yul\":15236:15339   */\n      tag_361\n      jumpi\n        /* \"#utility.yul\":15319:15337   */\n      tag_362\n      tag_206\n      jump\t// in\n    tag_362:\n        /* \"#utility.yul\":15236:15339   */\n    tag_361:\n        /* \"#utility.yul\":15366:15367   */\n      0x01\n        /* \"#utility.yul\":15359:15364   */\n      dup3\n        /* \"#utility.yul\":15355:15368   */\n      add\n        /* \"#utility.yul\":15348:15368   */\n      swap1\n      pop\n        /* \"#utility.yul\":15141:15374   */\n      swap2\n      swap1\n      pop\n      jump\t// out\n        /* \"#utility.yul\":15380:15473   */\n    tag_207:\n        /* \"#utility.yul\":15417:15423   */\n      0x00\n        /* \"#utility.yul\":15464:15466   */\n      0x20\n        /* \"#utility.yul\":15459:15461   */\n      0x1f\n        /* \"#utility.yul\":15452:15457   */\n      dup4\n        /* \"#utility.yul\":15448:15462   */\n      add\n        /* \"#utility.yul\":15444:15467   */\n      div\n        /* \"#utility.yul\":15434:15467   */\n      swap1\n      pop\n        /* \"#utility.yul\":15380:15473   */\n      swap2\n      swap1\n      pop\n      jump\t// out\n        /* \"#utility.yul\":15479:15586   */\n    tag_208:\n        /* \"#utility.yul\":15523:15531   */\n      0x00\n        /* \"#utility.yul\":15573:15578   */\n      dup3\n        /* \"#utility.yul\":15567:15571   */\n      dup3\n        /* \"#utility.yul\":15563:15579   */\n      shl\n        /* \"#utility.yul\":15542:15579   */\n      swap1\n      pop\n        /* \"#utility.yul\":15479:15586   */\n      swap3\n      swap2\n      pop\n      pop\n      jump\t// out\n        /* \"#utility.yul\":15592:15985   */\n    tag_209:\n        /* \"#utility.yul\":15661:15667   */\n      0x00\n        /* \"#utility.yul\":15711:15712   */\n      0x08\n        /* \"#utility.yul\":15699:15709   */\n      dup4\n        /* \"#utility.yul\":15695:15713   */\n      mul\n        /* \"#utility.yul\":15734:15831   */\n      tag_366\n        /* \"#utility.yul\":15764:15830   */\n      0xffffffffffffffffffffffffffffffffffffffffffffffffffffffffffffffff\n        /* \"#utility.yul\":15753:15762   */\n      dup3\n        /* \"#utility.yul\":15734:15831   */\n      tag_208\n      jump\t// in\n    tag_366:\n        /* \"#utility.yul\":15852:15891   */\n      tag_367\n        /* \"#utility.yul\":15882:15890   */\n      dup7\n        /* \"#utility.yul\":15871:15880   */\n      dup4\n        /* \"#utility.yul\":15852:15891   */\n      tag_208\n      jump\t// in\n    tag_367:\n        /* \"#utility.yul\":15840:15891   */\n      swap6\n      pop\n        /* \"#utility.yul\":15924:15928   */\n      dup1\n        /* \"#utility.yul\":15920:15929   */\n      not\n        /* \"#utility.yul\":15913:15918   */\n      dup5\n        /* \"#utility.yul\":15909:15930   */\n      and\n        /* \"#utility.yul\":15900:15930   */\n      swap4\n      pop\n        /* \"#utility.yul\":15973:15977   */\n      dup1\n        /* \"#utility.yul\":15963:15971   */\n      dup7\n        /* \"#utility.yul\":15959:15978   */\n      and\n        /* \"#utility.yul\":15952:15957   */\n      dup5\n        /* \"#utility.yul\":15949:15979   */\n      or\n        /* \"#utility.yul\":15939:15979   */\n      swap3\n      pop\n        /* \"#utility.yul\":15668:15985   */\n      pop\n      pop\n        /* \"#utility.yul\":15592:15985   */\n      swap4\n      swap3\n      pop\n      pop\n      pop\n      jump\t// out\n        /* \"#utility.yul\":15991:16051   */\n    tag_210:\n        /* \"#utility.yul\":16019:16022   */\n      0x00\n        /* \"#utility.yul\":16040:16045   */\n      dup2\n        /* \"#utility.yul\":16033:16045   */\n      swap1\n      pop\n        /* \"#utility.yul\":15991:16051   */\n      swap2\n      swap1\n      pop\n      jump\t// out\n        /* \"#utility.yul\":16057:16199   */\n    tag_211:\n        /* \"#utility.yul\":16107:16116   */\n      0x00\n        /* \"#utility.yul\":16140:16193   */\n      tag_370\n        /* \"#utility.yul\":16158:16192   */\n      tag_371\n        /* \"#utility.yul\":16167:16191   */\n      tag_372\n        /* \"#utility.yul\":16185:16190   */\n      dup5\n        /* \"#utility.yul\":16167:16191   */\n      tag_190\n      jump\t// in\n    tag_372:\n        /* \"#utility.yul\":16158:16192   */\n      tag_210\n      jump\t// in\n    tag_371:\n        /* \"#utility.yul\":16140:16193   */\n      tag_190\n      jump\t// in\n    tag_370:\n        /* \"#utility.yul\":16127:16193   */\n      swap1\n      pop\n        /* \"#utility.yul\":16057:16199   */\n      swap2\n      swap1\n      pop\n      jump\t// out\n        /* \"#utility.yul\":16205:16280   */\n    tag_212:\n        /* \"#utility.yul\":16248:16251   */\n      0x00\n        /* \"#utility.yul\":16269:16274   */\n      dup2\n        /* \"#utility.yul\":16262:16274   */\n      swap1\n      pop\n        /* \"#utility.yul\":16205:16280   */\n      swap2\n      swap1\n      pop\n      jump\t// out\n        /* \"#utility.yul\":16286:16555   */\n    tag_213:\n        /* \"#utility.yul\":16396:16435   */\n      tag_375\n        /* \"#utility.yul\":16427:16434   */\n      dup4\n        /* \"#utility.yul\":16396:16435   */\n      tag_211\n      jump\t// in\n    tag_375:\n        /* \"#utility.yul\":16457:16548   */\n      tag_376\n        /* \"#utility.yul\":16506:16547   */\n      tag_377\n        /* \"#utility.yul\":16530:16546   */\n      dup3\n        /* \"#utility.yul\":16506:16547   */\n      tag_212\n      jump\t// in\n    tag_377:\n        /* \"#utility.yul\":16498:16504   */\n      dup5\n        /* \"#utility.yul\":16491:16495   */\n      dup5\n        /* \"#utility.yul\":16485:16496   */\n      sload\n        /* \"#utility.yul\":16457:16548   */\n      tag_209\n      jump\t// in\n    tag_376:\n        /* \"#utility.yul\":16451:16455   */\n      dup3\n        /* \"#utility.yul\":16444:16549   */\n      sstore\n        /* \"#utility.yul\":16362:16555   */\n      pop\n        /* \"#utility.yul\":16286:16555   */\n      pop\n      pop\n      pop\n      jump\t// out\n        /* \"#utility.yul\":16561:16634   */\n    tag_214:\n        /* \"#utility.yul\":16606:16609   */\n      0x00\n        /* \"#utility.yul\":16561:16634   */\n      swap1\n      jump\t// out\n        /* \"#utility.yul\":16640:16829   */\n    tag_215:\n        /* \"#utility.yul\":16717:16749   */\n      tag_380\n      tag_214\n      jump\t// in\n    tag_380:\n        /* \"#utility.yul\":16758:16823   */\n      tag_381\n        /* \"#utility.yul\":16816:16822   */\n      dup2\n        /* \"#utility.yul\":16808:16814   */\n      dup5\n        /* \"#utility.yul\":16802:16806   */\n      dup5\n        /* \"#utility.yul\":16758:16823   */\n      tag_213\n      jump\t// in\n    tag_381:\n        /* \"#utility.yul\":16693:16829   */\n      pop\n        /* \"#utility.yul\":16640:16829   */\n      pop\n      pop\n      jump\t// out\n        /* \"#utility.yul\":16835:17021   */\n    tag_216:\n        /* \"#utility.yul\":16895:17015   */\n    tag_383:\n        /* \"#utility.yul\":16912:16915   */\n      dup2\n        /* \"#utility.yul\":16905:16910   */\n      dup2\n        /* \"#utility.yul\":16902:16916   */\n      lt\n        /* \"#utility.yul\":16895:17015   */\n      iszero\n      tag_385\n      jumpi\n        /* \"#utility.yul\":16966:17005   */\n      tag_386\n        /* \"#utility.yul\":17003:17004   */\n      0x00\n        /* \"#utility.yul\":16996:17001   */\n      dup3\n        /* \"#utility.yul\":16966:17005   */\n      tag_215\n      jump\t// in\n    tag_386:\n        /* \"#utility.yul\":16939:16940   */\n      0x01\n        /* \"#utility.yul\":16932:16937   */\n      dup2\n        /* \"#utility.yul\":16928:16941   */\n      add\n        /* \"#utility.yul\":16919:16941   */\n      swap1\n      pop\n        /* \"#utility.yul\":16895:17015   */\n      jump(tag_383)\n    tag_385:\n        /* \"#utility.yul\":16835:17021   */\n      pop\n      pop\n      jump\t// out\n        /* \"#utility.yul\":17027:17570   */\n    tag_217:\n        /* \"#utility.yul\":17128:17130   */\n      0x1f\n        /* \"#utility.yul\":17123:17126   */\n      dup3\n        /* \"#utility.yul\":17120:17131   */\n      gt\n        /* \"#utility.yul\":17117:17563   */\n      iszero\n      tag_388\n      jumpi\n        /* \"#utility.yul\":17162:17200   */\n      tag_389\n        /* \"#utility.yul\":17194:17199   */\n      dup2\n        /* \"#utility.yul\":17162:17200   */\n      tag_204\n      jump\t// in\n    tag_389:\n        /* \"#utility.yul\":17246:17275   */\n      tag_390\n        /* \"#utility.yul\":17264:17274   */\n      dup5\n        /* \"#utility.yul\":17246:17275   */\n      tag_207\n      jump\t// in\n    tag_390:\n        /* \"#utility.yul\":17236:17244   */\n      dup2\n        /* \"#utility.yul\":17232:17276   */\n      add\n        /* \"#utility.yul\":17429:17431   */\n      0x20\n        /* \"#utility.yul\":17417:17427   */\n      dup6\n        /* \"#utility.yul\":17414:17432   */\n      lt\n        /* \"#utility.yul\":17411:17460   */\n      iszero\n      tag_391\n      jumpi\n        /* \"#utility.yul\":17450:17458   */\n      dup2\n        /* \"#utility.yul\":17435:17458   */\n      swap1\n      pop\n        /* \"#utility.yul\":17411:17460   */\n    tag_391:\n        /* \"#utility.yul\":17473:17553   */\n      tag_392\n        /* \"#utility.yul\":17529:17551   */\n      tag_393\n        /* \"#utility.yul\":17547:17550   */\n      dup6\n        /* \"#utility.yul\":17529:17551   */\n      tag_207\n      jump\t// in\n    tag_393:\n        /* \"#utility.yul\":17519:17527   */\n      dup4\n        /* \"#utility.yul\":17515:17552   */\n      add\n        /* \"#utility.yul\":17502:17513   */\n      dup3\n        /* \"#utility.yul\":17473:17553   */\n      tag_216\n      jump\t// in\n    tag_392:\n        /* \"#utility.yul\":17132:17563   */\n      pop\n      pop\n        /* \"#utility.yul\":17117:17563   */\n    tag_388:\n        /* \"#utility.yul\":17027:17570   */\n      pop\n      pop\n      pop\n      jump\t// out\n        /* \"#utility.yul\":17576:17693   */\n    tag_218:\n        /* \"#utility.yul\":17630:17638   */\n      0x00\n        /* \"#utility.yul\":17680:17685   */\n      dup3\n        /* \"#utility.yul\":17674:17678   */\n      dup3\n        /* \"#utility.yul\":17670:17686   */\n      shr\n        /* \"#utility.yul\":17649:17686   */\n      swap1\n      pop\n        /* \"#utility.yul\":17576:17693   */\n      swap3\n      swap2\n      pop\n      pop\n      jump\t// out\n        /* \"#utility.yul\":17699:17868   */\n    tag_219:\n        /* \"#utility.yul\":17743:17749   */\n      0x00\n        /* \"#utility.yul\":17776:17827   */\n      tag_396\n        /* \"#utility.yul\":17824:17825   */\n      0x00\n        /* \"#utility.yul\":17820:17826   */\n      not\n        /* \"#utility.yul\":17812:17817   */\n      dup5\n        /* \"#utility.yul\":17809:17810   */\n      0x08\n        /* \"#utility.yul\":17805:17818   */\n      mul\n        /* \"#utility.yul\":17776:17827   */\n      tag_218\n      jump\t// in\n    tag_396:\n        /* \"#utility.yul\":17772:17828   */\n      not\n        /* \"#utility.yul\":17857:17861   */\n      dup1\n        /* \"#utility.yul\":17851:17855   */\n      dup4\n        /* \"#utility.yul\":17847:17862   */\n      and\n        /* \"#utility.yul\":17837:17862   */\n      swap2\n      pop\n        /* \"#utility.yul\":17750:17868   */\n      pop\n        /* \"#utility.yul\":17699:17868   */\n      swap3\n      swap2\n      pop\n      pop\n      jump\t// out\n        /* \"#utility.yul\":17873:18168   */\n    tag_220:\n        /* \"#utility.yul\":17949:17953   */\n      0x00\n        /* \"#utility.yul\":18095:18124   */\n      tag_398\n        /* \"#utility.yul\":18120:18123   */\n      dup4\n        /* \"#utility.yul\":18114:18118   */\n      dup4\n        /* \"#utility.yul\":18095:18124   */\n      tag_219\n      jump\t// in\n    tag_398:\n        /* \"#utility.yul\":18087:18124   */\n      swap2\n      pop\n        /* \"#utility.yul\":18157:18160   */\n      dup3\n        /* \"#utility.yul\":18154:18155   */\n      0x02\n        /* \"#utility.yul\":18150:18161   */\n      mul\n        /* \"#utility.yul\":18144:18148   */\n      dup3\n        /* \"#utility.yul\":18141:18162   */\n      or\n        /* \"#utility.yul\":18133:18162   */\n      swap1\n      pop\n        /* \"#utility.yul\":17873:18168   */\n      swap3\n      swap2\n      pop\n      pop\n      jump\t// out\n        /* \"#utility.yul\":18173:19568   */\n    tag_167:\n        /* \"#utility.yul\":18290:18327   */\n      tag_400\n        /* \"#utility.yul\":18323:18326   */\n      dup3\n        /* \"#utility.yul\":18290:18327   */\n      tag_186\n      jump\t// in\n    tag_400:\n        /* \"#utility.yul\":18392:18410   */\n      0xffffffffffffffff\n        /* \"#utility.yul\":18384:18390   */\n      dup2\n        /* \"#utility.yul\":18381:18411   */\n      gt\n        /* \"#utility.yul\":18378:18434   */\n      iszero\n      tag_401\n      jumpi\n        /* \"#utility.yul\":18414:18432   */\n      tag_402\n      tag_49\n      jump\t// in\n    tag_402:\n        /* \"#utility.yul\":18378:18434   */\n    tag_401:\n        /* \"#utility.yul\":18458:18496   */\n      tag_403\n        /* \"#utility.yul\":18490:18494   */\n      dup3\n        /* \"#utility.yul\":18484:18495   */\n      sload\n        /* \"#utility.yul\":18458:18496   */\n      tag_67\n      jump\t// in\n    tag_403:\n        /* \"#utility.yul\":18543:18610   */\n      tag_404\n        /* \"#utility.yul\":18603:18609   */\n      dup3\n        /* \"#utility.yul\":18595:18601   */\n      dup3\n        /* \"#utility.yul\":18589:18593   */\n      dup6\n        /* \"#utility.yul\":18543:18610   */\n      tag_217\n      jump\t// in\n    tag_404:\n        /* \"#utility.yul\":18637:18638   */\n      0x00\n        /* \"#utility.yul\":18661:18665   */\n      0x20\n        /* \"#utility.yul\":18648:18665   */\n      swap1\n      pop\n        /* \"#utility.yul\":18693:18695   */\n      0x1f\n        /* \"#utility.yul\":18685:18691   */\n      dup4\n        /* \"#utility.yul\":18682:18696   */\n      gt\n        /* \"#utility.yul\":18710:18711   */\n      0x01\n        /* \"#utility.yul\":18705:19323   */\n      dup2\n      eq\n      tag_406\n      jumpi\n        /* \"#utility.yul\":19367:19368   */\n      0x00\n        /* \"#utility.yul\":19384:19390   */\n      dup5\n        /* \"#utility.yul\":19381:19458   */\n      iszero\n      tag_407\n      jumpi\n        /* \"#utility.yul\":19433:19442   */\n      dup3\n        /* \"#utility.yul\":19428:19431   */\n      dup8\n        /* \"#utility.yul\":19424:19443   */\n      add\n        /* \"#utility.yul\":19418:19444   */\n      mload\n        /* \"#utility.yul\":19409:19444   */\n      swap1\n      pop\n        /* \"#utility.yul\":19381:19458   */\n    tag_407:\n        /* \"#utility.yul\":19484:19551   */\n      tag_408\n        /* \"#utility.yul\":19544:19550   */\n      dup6\n        /* \"#utility.yul\":19537:19542   */\n      dup3\n        /* \"#utility.yul\":19484:19551   */\n      tag_220\n      jump\t// in\n    tag_408:\n        /* \"#utility.yul\":19478:19482   */\n      dup7\n        /* \"#utility.yul\":19471:19552   */\n      sstore\n        /* \"#utility.yul\":19340:19562   */\n      pop\n        /* \"#utility.yul\":18675:19562   */\n      jump(tag_405)\n        /* \"#utility.yul\":18705:19323   */\n    tag_406:\n        /* \"#utility.yul\":18757:18761   */\n      0x1f\n        /* \"#utility.yul\":18753:18762   */\n      not\n        /* \"#utility.yul\":18745:18751   */\n      dup5\n        /* \"#utility.yul\":18741:18763   */\n      and\n        /* \"#utility.yul\":18791:18828   */\n      tag_409\n        /* \"#utility.yul\":18823:18827   */\n      dup7\n        /* \"#utility.yul\":18791:18828   */\n      tag_204\n      jump\t// in\n    tag_409:\n        /* \"#utility.yul\":18850:18851   */\n      0x00\n        /* \"#utility.yul\":18864:19072   */\n    tag_410:\n        /* \"#utility.yul\":18878:18885   */\n      dup3\n        /* \"#utility.yul\":18875:18876   */\n      dup2\n        /* \"#utility.yul\":18872:18886   */\n      lt\n        /* \"#utility.yul\":18864:19072   */\n      iszero\n      tag_412\n      jumpi\n        /* \"#utility.yul\":18957:18966   */\n      dup5\n        /* \"#utility.yul\":18952:18955   */\n      dup10\n        /* \"#utility.yul\":18948:18967   */\n      add\n        /* \"#utility.yul\":18942:18968   */\n      mload\n        /* \"#utility.yul\":18934:18940   */\n      dup3\n        /* \"#utility.yul\":18927:18969   */\n      sstore\n        /* \"#utility.yul\":19008:19009   */\n      0x01\n        /* \"#utility.yul\":19000:19006   */\n      dup3\n        /* \"#utility.yul\":18996:19010   */\n      add\n        /* \"#utility.yul\":18986:19010   */\n      swap2\n      pop\n        /* \"#utility.yul\":19055:19057   */\n      0x20\n        /* \"#utility.yul\":19044:19053   */\n      dup6\n        /* \"#utility.yul\":19040:19058   */\n      add\n        /* \"#utility.yul\":19027:19058   */\n      swap5\n      pop\n        /* \"#utility.yul\":18901:18905   */\n      0x20\n        /* \"#utility.yul\":18898:18899   */\n      dup2\n        /* \"#utility.yul\":18894:18906   */\n      add\n        /* \"#utility.yul\":18889:18906   */\n      swap1\n      pop\n        /* \"#utility.yul\":18864:19072   */\n      jump(tag_410)\n    tag_412:\n        /* \"#utility.yul\":19100:19106   */\n      dup7\n        /* \"#utility.yul\":19091:19098   */\n      dup4\n        /* \"#utility.yul\":19088:19107   */\n      lt\n        /* \"#utility.yul\":19085:19264   */\n      iszero\n      tag_413\n      jumpi\n        /* \"#utility.yul\":19158:19167   */\n      dup5\n        /* \"#utility.yul\":19153:19156   */\n      dup10\n        /* \"#utility.yul\":19149:19168   */\n      add\n        /* \"#utility.yul\":19143:19169   */\n      mload\n        /* \"#utility.yul\":19201:19249   */\n      tag_414\n        /* \"#utility.yul\":19243:19247   */\n      0x1f\n        /* \"#utility.yul\":19235:19241   */\n      dup10\n        /* \"#utility.yul\":19231:19248   */\n      and\n        /* \"#utility.yul\":19220:19229   */\n      dup3\n        /* \"#utility.yul\":19201:19249   */\n      tag_219\n      jump\t// in\n    tag_414:\n        /* \"#utility.yul\":19193:19199   */\n      dup4\n        /* \"#utility.yul\":19186:19250   */\n      sstore\n        /* \"#utility.yul\":19108:19264   */\n      pop\n        /* \"#utility.yul\":19085:19264   */\n    tag_413:\n        /* \"#utility.yul\":19310:19311   */\n      0x01\n        /* \"#utility.yul\":19306:19307   */\n      0x02\n        /* \"#utility.yul\":19298:19304   */\n      dup9\n        /* \"#utility.yul\":19294:19308   */\n      mul\n        /* \"#utility.yul\":19290:19312   */\n      add\n        /* \"#utility.yul\":19284:19288   */\n      dup9\n        /* \"#utility.yul\":19277:19313   */\n      sstore\n        /* \"#utility.yul\":18712:19323   */\n      pop\n      pop\n      pop\n        /* \"#utility.yul\":18675:19562   */\n    tag_405:\n      pop\n        /* \"#utility.yul\":18265:19568   */\n      pop\n      pop\n      pop\n        /* \"#utility.yul\":18173:19568   */\n      pop\n      pop\n      jump\t// out\n\n    auxdata: 0xa2646970667358221220f8c59d1aad7ec29c4c77e489c2cd6c9f2c63aa205e8c11a1163574f18e68b98864736f6c634300081a0033\n}\n",
				"bytecode": {
					"linkReferences": {},
					"object": "6080604052348015600e575f80fd5b506116e78061001c5f395ff3fe608060405234801561000f575f80fd5b5060043610610055575f3560e01c806362af221f146100595780636874404614610089578063bdd5b3e3146100bd578063d73e0c89146100ed578063f68baded1461010b575b5f80fd5b610073600480360381019061006e9190610e26565b610127565b6040516100809190611028565b60405180910390f35b6100a3600480360381019061009e9190611072565b61055c565b6040516100b49594939291906110f4565b60405180910390f35b6100d760048036038101906100d29190610e26565b6107b4565b6040516100e49190611028565b60405180910390f35b6100f5610be9565b6040516101029190611161565b60405180910390f35b6101256004803603810190610120919061117a565b610bf4565b005b60605f805b5f805490508110156101c85783604051602001610149919061129b565b604051602081830303815290604052805190602001205f8281548110610172576101716112b1565b5b905f5260205f20906005020160040160405160200161019191906113cd565b60405160208183030381529060405280519060200120036101bb5781806101b790611410565b9250505b808060010191505061012c565b505f8167ffffffffffffffff8111156101e4576101e3610d02565b5b60405190808252806020026020018201604052801561021d57816020015b61020a610cab565b8152602001906001900390816102025790505b5090505f805b5f805490508110156105505785604051602001610240919061129b565b604051602081830303815290604052805190602001205f8281548110610269576102686112b1565b5b905f5260205f20906005020160040160405160200161028891906113cd565b6040516020818303038152906040528051906020012003610543575f81815481106102b6576102b56112b1565b5b905f5260205f2090600502016040518060a00160405290815f820180546102dc9061130b565b80601f01602080910402602001604051908101604052809291908181526020018280546103089061130b565b80156103535780601f1061032a57610100808354040283529160200191610353565b820191905f5260205f20905b81548152906001019060200180831161033657829003601f168201915b5050505050815260200160018201805461036c9061130b565b80601f01602080910402602001604051908101604052809291908181526020018280546103989061130b565b80156103e35780601f106103ba576101008083540402835291602001916103e3565b820191905f5260205f20905b8154815290600101906020018083116103c657829003601f168201915b505050505081526020016002820180546103fc9061130b565b80601f01602080910402602001604051908101604052809291908181526020018280546104289061130b565b80156104735780601f1061044a57610100808354040283529160200191610473565b820191905f5260205f20905b81548152906001019060200180831161045657829003601f168201915b50505050508152602001600382015481526020016004820180546104969061130b565b80601f01602080910402602001604051908101604052809291908181526020018280546104c29061130b565b801561050d5780601f106104e45761010080835404028352916020019161050d565b820191905f5260205f20905b8154815290600101906020018083116104f057829003601f168201915b505050505081525050838381518110610529576105286112b1565b5b6020026020010181905250818061053f90611410565b9250505b8080600101915050610223565b50819350505050919050565b5f818154811061056a575f80fd5b905f5260205f2090600502015f91509050805f0180546105899061130b565b80601f01602080910402602001604051908101604052809291908181526020018280546105b59061130b565b80156106005780601f106105d757610100808354040283529160200191610600565b820191905f5260205f20905b8154815290600101906020018083116105e357829003601f168201915b5050505050908060010180546106159061130b565b80601f01602080910402602001604051908101604052809291908181526020018280546106419061130b565b801561068c5780601f106106635761010080835404028352916020019161068c565b820191905f5260205f20905b81548152906001019060200180831161066f57829003601f168201915b5050505050908060020180546106a19061130b565b80601f01602080910402602001604051908101604052809291908181526020018280546106cd9061130b565b80156107185780601f106106ef57610100808354040283529160200191610718565b820191905f5260205f20905b8154815290600101906020018083116106fb57829003601f168201915b5050505050908060030154908060040180546107339061130b565b80601f016020809104026020016040519081016040528092919081815260200182805461075f9061130b565b80156107aa5780601f10610781576101008083540402835291602001916107aa565b820191905f5260205f20905b81548152906001019060200180831161078d57829003601f168201915b5050505050905085565b60605f805b5f8054905081101561085557836040516020016107d6919061129b565b604051602081830303815290604052805190602001205f82815481106107ff576107fe6112b1565b5b905f5260205f20906005020160020160405160200161081e91906113cd565b604051602081830303815290604052805190602001200361084857818061084490611410565b9250505b80806001019150506107b9565b505f8167ffffffffffffffff81111561087157610870610d02565b5b6040519080825280602002602001820160405280156108aa57816020015b610897610cab565b81526020019060019003908161088f5790505b5090505f805b5f80549050811015610bdd57856040516020016108cd919061129b565b604051602081830303815290604052805190602001205f82815481106108f6576108f56112b1565b5b905f5260205f20906005020160020160405160200161091591906113cd565b6040516020818303038152906040528051906020012003610bd0575f8181548110610943576109426112b1565b5b905f5260205f2090600502016040518060a00160405290815f820180546109699061130b565b80601f01602080910402602001604051908101604052809291908181526020018280546109959061130b565b80156109e05780601f106109b7576101008083540402835291602001916109e0565b820191905f5260205f20905b8154815290600101906020018083116109c357829003601f168201915b505050505081526020016001820180546109f99061130b565b80601f0160208091040260200160405190810160405280929190818152602001828054610a259061130b565b8015610a705780601f10610a4757610100808354040283529160200191610a70565b820191905f5260205f20905b815481529060010190602001808311610a5357829003601f168201915b50505050508152602001600282018054610a899061130b565b80601f0160208091040260200160405190810160405280929190818152602001828054610ab59061130b565b8015610b005780601f10610ad757610100808354040283529160200191610b00565b820191905f5260205f20905b815481529060010190602001808311610ae357829003601f168201915b5050505050815260200160038201548152602001600482018054610b239061130b565b80601f0160208091040260200160405190810160405280929190818152602001828054610b4f9061130b565b8015610b9a5780601f10610b7157610100808354040283529160200191610b9a565b820191905f5260205f20905b815481529060010190602001808311610b7d57829003601f168201915b505050505081525050838381518110610bb657610bb56112b1565b5b60200260200101819052508180610bcc90611410565b9250505b80806001019150506108b0565b50819350505050919050565b5f8080549050905090565b5f6040518060a0016040528087815260200186815260200185815260200184815260200183815250908060018154018082558091505060019003905f5260205f2090600502015f909190919091505f820151815f019081610c5591906115e2565b506020820151816001019081610c6b91906115e2565b506040820151816002019081610c8191906115e2565b50606082015181600301556080820151816004019081610ca191906115e2565b5050505050505050565b6040518060a001604052806060815260200160608152602001606081526020015f8152602001606081525090565b5f604051905090565b5f80fd5b5f80fd5b5f80fd5b5f80fd5b5f601f19601f8301169050919050565b7f4e487b71000000000000000000000000000000000000000000000000000000005f52604160045260245ffd5b610d3882610cf2565b810181811067ffffffffffffffff82111715610d5757610d56610d02565b5b80604052505050565b5f610d69610cd9565b9050610d758282610d2f565b919050565b5f67ffffffffffffffff821115610d9457610d93610d02565b5b610d9d82610cf2565b9050602081019050919050565b828183375f83830152505050565b5f610dca610dc584610d7a565b610d60565b905082815260208101848484011115610de657610de5610cee565b5b610df1848285610daa565b509392505050565b5f82601f830112610e0d57610e0c610cea565b5b8135610e1d848260208601610db8565b91505092915050565b5f60208284031215610e3b57610e3a610ce2565b5b5f82013567ffffffffffffffff811115610e5857610e57610ce6565b5b610e6484828501610df9565b91505092915050565b5f81519050919050565b5f82825260208201905092915050565b5f819050602082019050919050565b5f81519050919050565b5f82825260208201905092915050565b8281835e5f83830152505050565b5f610ec882610e96565b610ed28185610ea0565b9350610ee2818560208601610eb0565b610eeb81610cf2565b840191505092915050565b5f819050919050565b610f0881610ef6565b82525050565b5f60a083015f8301518482035f860152610f288282610ebe565b91505060208301518482036020860152610f428282610ebe565b91505060408301518482036040860152610f5c8282610ebe565b9150506060830151610f716060860182610eff565b5060808301518482036080860152610f898282610ebe565b9150508091505092915050565b5f610fa18383610f0e565b905092915050565b5f602082019050919050565b5f610fbf82610e6d565b610fc98185610e77565b935083602082028501610fdb85610e87565b805f5b858110156110165784840389528151610ff78582610f96565b945061100283610fa9565b925060208a01995050600181019050610fde565b50829750879550505050505092915050565b5f6020820190508181035f8301526110408184610fb5565b905092915050565b61105181610ef6565b811461105b575f80fd5b50565b5f8135905061106c81611048565b92915050565b5f6020828403121561108757611086610ce2565b5b5f6110948482850161105e565b91505092915050565b5f82825260208201905092915050565b5f6110b782610e96565b6110c1818561109d565b93506110d1818560208601610eb0565b6110da81610cf2565b840191505092915050565b6110ee81610ef6565b82525050565b5f60a0820190508181035f83015261110c81886110ad565b9050818103602083015261112081876110ad565b9050818103604083015261113481866110ad565b905061114360608301856110e5565b818103608083015261115581846110ad565b90509695505050505050565b5f6020820190506111745f8301846110e5565b92915050565b5f805f805f60a0868803121561119357611192610ce2565b5b5f86013567ffffffffffffffff8111156111b0576111af610ce6565b5b6111bc88828901610df9565b955050602086013567ffffffffffffffff8111156111dd576111dc610ce6565b5b6111e988828901610df9565b945050604086013567ffffffffffffffff81111561120a57611209610ce6565b5b61121688828901610df9565b93505060606112278882890161105e565b925050608086013567ffffffffffffffff81111561124857611247610ce6565b5b61125488828901610df9565b9150509295509295909350565b5f81905092915050565b5f61127582610e96565b61127f8185611261565b935061128f818560208601610eb0565b80840191505092915050565b5f6112a6828461126b565b915081905092915050565b7f4e487b71000000000000000000000000000000000000000000000000000000005f52603260045260245ffd5b7f4e487b71000000000000000000000000000000000000000000000000000000005f52602260045260245ffd5b5f600282049050600182168061132257607f821691505b602082108103611335576113346112de565b5b50919050565b5f819050815f5260205f209050919050565b5f81546113598161130b565b6113638186611261565b9450600182165f811461137d5760018114611392576113c4565b60ff19831686528115158202860193506113c4565b61139b8561133b565b5f5b838110156113bc5781548189015260018201915060208101905061139d565b838801955050505b50505092915050565b5f6113d8828461134d565b915081905092915050565b7f4e487b71000000000000000000000000000000000000000000000000000000005f52601160045260245ffd5b5f61141a82610ef6565b91507fffffffffffffffffffffffffffffffffffffffffffffffffffffffffffffffff820361144c5761144b6113e3565b5b600182019050919050565b5f6020601f8301049050919050565b5f82821b905092915050565b5f600883026114a17fffffffffffffffffffffffffffffffffffffffffffffffffffffffffffffffff82611466565b6114ab8683611466565b95508019841693508086168417925050509392505050565b5f819050919050565b5f6114e66114e16114dc84610ef6565b6114c3565b610ef6565b9050919050565b5f819050919050565b6114ff836114cc565b61151361150b826114ed565b848454611472565b825550505050565b5f90565b61152761151b565b6115328184846114f6565b505050565b5b818110156115555761154a5f8261151f565b600181019050611538565b5050565b601f82111561159a5761156b8161133b565b61157484611457565b81016020851015611583578190505b61159761158f85611457565b830182611537565b50505b505050565b5f82821c905092915050565b5f6115ba5f198460080261159f565b1980831691505092915050565b5f6115d283836115ab565b9150826002028217905092915050565b6115eb82610e96565b67ffffffffffffffff81111561160457611603610d02565b5b61160e825461130b565b611619828285611559565b5f60209050601f83116001811461164a575f8415611638578287015190505b61164285826115c7565b8655506116a9565b601f1984166116588661133b565b5f5b8281101561167f5784890151825560018201915060208501945060208101905061165a565b8683101561169c5784890151611698601f8916826115ab565b8355505b6001600288020188555050505b50505050505056fea2646970667358221220f8c59d1aad7ec29c4c77e489c2cd6c9f2c63aa205e8c11a1163574f18e68b98864736f6c634300081a0033",
					"opcodes": "PUSH1 0x80 PUSH1 0x40 MSTORE CALLVALUE DUP1 ISZERO PUSH1 0xE JUMPI PUSH0 DUP1 REVERT JUMPDEST POP PUSH2 0x16E7 DUP1 PUSH2 0x1C PUSH0 CODECOPY PUSH0 RETURN INVALID PUSH1 0x80 PUSH1 0x40 MSTORE CALLVALUE DUP1 ISZERO PUSH2 0xF JUMPI PUSH0 DUP1 REVERT JUMPDEST POP PUSH1 0x4 CALLDATASIZE LT PUSH2 0x55 JUMPI PUSH0 CALLDATALOAD PUSH1 0xE0 SHR DUP1 PUSH4 0x62AF221F EQ PUSH2 0x59 JUMPI DUP1 PUSH4 0x68744046 EQ PUSH2 0x89 JUMPI DUP1 PUSH4 0xBDD5B3E3 EQ PUSH2 0xBD JUMPI DUP1 PUSH4 0xD73E0C89 EQ PUSH2 0xED JUMPI DUP1 PUSH4 0xF68BADED EQ PUSH2 0x10B JUMPI JUMPDEST PUSH0 DUP1 REVERT JUMPDEST PUSH2 0x73 PUSH1 0x4 DUP1 CALLDATASIZE SUB DUP2 ADD SWAP1 PUSH2 0x6E SWAP2 SWAP1 PUSH2 0xE26 JUMP JUMPDEST PUSH2 0x127 JUMP JUMPDEST PUSH1 0x40 MLOAD PUSH2 0x80 SWAP2 SWAP1 PUSH2 0x1028 JUMP JUMPDEST PUSH1 0x40 MLOAD DUP1 SWAP2 SUB SWAP1 RETURN JUMPDEST PUSH2 0xA3 PUSH1 0x4 DUP1 CALLDATASIZE SUB DUP2 ADD SWAP1 PUSH2 0x9E SWAP2 SWAP1 PUSH2 0x1072 JUMP JUMPDEST PUSH2 0x55C JUMP JUMPDEST PUSH1 0x40 MLOAD PUSH2 0xB4 SWAP6 SWAP5 SWAP4 SWAP3 SWAP2 SWAP1 PUSH2 0x10F4 JUMP JUMPDEST PUSH1 0x40 MLOAD DUP1 SWAP2 SUB SWAP1 RETURN JUMPDEST PUSH2 0xD7 PUSH1 0x4 DUP1 CALLDATASIZE SUB DUP2 ADD SWAP1 PUSH2 0xD2 SWAP2 SWAP1 PUSH2 0xE26 JUMP JUMPDEST PUSH2 0x7B4 JUMP JUMPDEST PUSH1 0x40 MLOAD PUSH2 0xE4 SWAP2 SWAP1 PUSH2 0x1028 JUMP JUMPDEST PUSH1 0x40 MLOAD DUP1 SWAP2 SUB SWAP1 RETURN JUMPDEST PUSH2 0xF5 PUSH2 0xBE9 JUMP JUMPDEST PUSH1 0x40 MLOAD PUSH2 0x102 SWAP2 SWAP1 PUSH2 0x1161 JUMP JUMPDEST PUSH1 0x40 MLOAD DUP1 SWAP2 SUB SWAP1 RETURN JUMPDEST PUSH2 0x125 PUSH1 0x4 DUP1 CALLDATASIZE SUB DUP2 ADD SWAP1 PUSH2 0x120 SWAP2 SWAP1 PUSH2 0x117A JUMP JUMPDEST PUSH2 0xBF4 JUMP JUMPDEST STOP JUMPDEST PUSH1 0x60 PUSH0 DUP1 JUMPDEST PUSH0 DUP1 SLOAD SWAP1 POP DUP2 LT ISZERO PUSH2 0x1C8 JUMPI DUP4 PUSH1 0x40 MLOAD PUSH1 0x20 ADD PUSH2 0x149 SWAP2 SWAP1 PUSH2 0x129B JUMP JUMPDEST PUSH1 0x40 MLOAD PUSH1 0x20 DUP2 DUP4 SUB SUB DUP2 MSTORE SWAP1 PUSH1 0x40 MSTORE DUP1 MLOAD SWAP1 PUSH1 0x20 ADD KECCAK256 PUSH0 DUP3 DUP2 SLOAD DUP2 LT PUSH2 0x172 JUMPI PUSH2 0x171 PUSH2 0x12B1 JUMP JUMPDEST JUMPDEST SWAP1 PUSH0 MSTORE PUSH1 0x20 PUSH0 KECCAK256 SWAP1 PUSH1 0x5 MUL ADD PUSH1 0x4 ADD PUSH1 0x40 MLOAD PUSH1 0x20 ADD PUSH2 0x191 SWAP2 SWAP1 PUSH2 0x13CD JUMP JUMPDEST PUSH1 0x40 MLOAD PUSH1 0x20 DUP2 DUP4 SUB SUB DUP2 MSTORE SWAP1 PUSH1 0x40 MSTORE DUP1 MLOAD SWAP1 PUSH1 0x20 ADD KECCAK256 SUB PUSH2 0x1BB JUMPI DUP2 DUP1 PUSH2 0x1B7 SWAP1 PUSH2 0x1410 JUMP JUMPDEST SWAP3 POP POP JUMPDEST DUP1 DUP1 PUSH1 0x1 ADD SWAP2 POP POP PUSH2 0x12C JUMP JUMPDEST POP PUSH0 DUP2 PUSH8 0xFFFFFFFFFFFFFFFF DUP2 GT ISZERO PUSH2 0x1E4 JUMPI PUSH2 0x1E3 PUSH2 0xD02 JUMP JUMPDEST JUMPDEST PUSH1 0x40 MLOAD SWAP1 DUP1 DUP3 MSTORE DUP1 PUSH1 0x20 MUL PUSH1 0x20 ADD DUP3 ADD PUSH1 0x40 MSTORE DUP1 ISZERO PUSH2 0x21D JUMPI DUP2 PUSH1 0x20 ADD JUMPDEST PUSH2 0x20A PUSH2 0xCAB JUMP JUMPDEST DUP2 MSTORE PUSH1 0x20 ADD SWAP1 PUSH1 0x1 SWAP1 SUB SWAP1 DUP2 PUSH2 0x202 JUMPI SWAP1 POP JUMPDEST POP SWAP1 POP PUSH0 DUP1 JUMPDEST PUSH0 DUP1 SLOAD SWAP1 POP DUP2 LT ISZERO PUSH2 0x550 JUMPI DUP6 PUSH1 0x40 MLOAD PUSH1 0x20 ADD PUSH2 0x240 SWAP2 SWAP1 PUSH2 0x129B JUMP JUMPDEST PUSH1 0x40 MLOAD PUSH1 0x20 DUP2 DUP4 SUB SUB DUP2 MSTORE SWAP1 PUSH1 0x40 MSTORE DUP1 MLOAD SWAP1 PUSH1 0x20 ADD KECCAK256 PUSH0 DUP3 DUP2 SLOAD DUP2 LT PUSH2 0x269 JUMPI PUSH2 0x268 PUSH2 0x12B1 JUMP JUMPDEST JUMPDEST SWAP1 PUSH0 MSTORE PUSH1 0x20 PUSH0 KECCAK256 SWAP1 PUSH1 0x5 MUL ADD PUSH1 0x4 ADD PUSH1 0x40 MLOAD PUSH1 0x20 ADD PUSH2 0x288 SWAP2 SWAP1 PUSH2 0x13CD JUMP JUMPDEST PUSH1 0x40 MLOAD PUSH1 0x20 DUP2 DUP4 SUB SUB DUP2 MSTORE SWAP1 PUSH1 0x40 MSTORE DUP1 MLOAD SWAP1 PUSH1 0x20 ADD KECCAK256 SUB PUSH2 0x543 JUMPI PUSH0 DUP2 DUP2 SLOAD DUP2 LT PUSH2 0x2B6 JUMPI PUSH2 0x2B5 PUSH2 0x12B1 JUMP JUMPDEST JUMPDEST SWAP1 PUSH0 MSTORE PUSH1 0x20 PUSH0 KECCAK256 SWAP1 PUSH1 0x5 MUL ADD PUSH1 0x40 MLOAD DUP1 PUSH1 0xA0 ADD PUSH1 0x40 MSTORE SWAP1 DUP2 PUSH0 DUP3 ADD DUP1 SLOAD PUSH2 0x2DC SWAP1 PUSH2 0x130B JUMP JUMPDEST DUP1 PUSH1 0x1F ADD PUSH1 0x20 DUP1 SWAP2 DIV MUL PUSH1 0x20 ADD PUSH1 0x40 MLOAD SWAP1 DUP2 ADD PUSH1 0x40 MSTORE DUP1 SWAP3 SWAP2 SWAP1 DUP2 DUP2 MSTORE PUSH1 0x20 ADD DUP3 DUP1 SLOAD PUSH2 0x308 SWAP1 PUSH2 0x130B JUMP JUMPDEST DUP1 ISZERO PUSH2 0x353 JUMPI DUP1 PUSH1 0x1F LT PUSH2 0x32A JUMPI PUSH2 0x100 DUP1 DUP4 SLOAD DIV MUL DUP4 MSTORE SWAP2 PUSH1 0x20 ADD SWAP2 PUSH2 0x353 JUMP JUMPDEST DUP3 ADD SWAP2 SWAP1 PUSH0 MSTORE PUSH1 0x20 PUSH0 KECCAK256 SWAP1 JUMPDEST DUP2 SLOAD DUP2 MSTORE SWAP1 PUSH1 0x1 ADD SWAP1 PUSH1 0x20 ADD DUP1 DUP4 GT PUSH2 0x336 JUMPI DUP3 SWAP1 SUB PUSH1 0x1F AND DUP3 ADD SWAP2 JUMPDEST POP POP POP POP POP DUP2 MSTORE PUSH1 0x20 ADD PUSH1 0x1 DUP3 ADD DUP1 SLOAD PUSH2 0x36C SWAP1 PUSH2 0x130B JUMP JUMPDEST DUP1 PUSH1 0x1F ADD PUSH1 0x20 DUP1 SWAP2 DIV MUL PUSH1 0x20 ADD PUSH1 0x40 MLOAD SWAP1 DUP2 ADD PUSH1 0x40 MSTORE DUP1 SWAP3 SWAP2 SWAP1 DUP2 DUP2 MSTORE PUSH1 0x20 ADD DUP3 DUP1 SLOAD PUSH2 0x398 SWAP1 PUSH2 0x130B JUMP JUMPDEST DUP1 ISZERO PUSH2 0x3E3 JUMPI DUP1 PUSH1 0x1F LT PUSH2 0x3BA JUMPI PUSH2 0x100 DUP1 DUP4 SLOAD DIV MUL DUP4 MSTORE SWAP2 PUSH1 0x20 ADD SWAP2 PUSH2 0x3E3 JUMP JUMPDEST DUP3 ADD SWAP2 SWAP1 PUSH0 MSTORE PUSH1 0x20 PUSH0 KECCAK256 SWAP1 JUMPDEST DUP2 SLOAD DUP2 MSTORE SWAP1 PUSH1 0x1 ADD SWAP1 PUSH1 0x20 ADD DUP1 DUP4 GT PUSH2 0x3C6 JUMPI DUP3 SWAP1 SUB PUSH1 0x1F AND DUP3 ADD SWAP2 JUMPDEST POP POP POP POP POP DUP2 MSTORE PUSH1 0x20 ADD PUSH1 0x2 DUP3 ADD DUP1 SLOAD PUSH2 0x3FC SWAP1 PUSH2 0x130B JUMP JUMPDEST DUP1 PUSH1 0x1F ADD PUSH1 0x20 DUP1 SWAP2 DIV MUL PUSH1 0x20 ADD PUSH1 0x40 MLOAD SWAP1 DUP2 ADD PUSH1 0x40 MSTORE DUP1 SWAP3 SWAP2 SWAP1 DUP2 DUP2 MSTORE PUSH1 0x20 ADD DUP3 DUP1 SLOAD PUSH2 0x428 SWAP1 PUSH2 0x130B JUMP JUMPDEST DUP1 ISZERO PUSH2 0x473 JUMPI DUP1 PUSH1 0x1F LT PUSH2 0x44A JUMPI PUSH2 0x100 DUP1 DUP4 SLOAD DIV MUL DUP4 MSTORE SWAP2 PUSH1 0x20 ADD SWAP2 PUSH2 0x473 JUMP JUMPDEST DUP3 ADD SWAP2 SWAP1 PUSH0 MSTORE PUSH1 0x20 PUSH0 KECCAK256 SWAP1 JUMPDEST DUP2 SLOAD DUP2 MSTORE SWAP1 PUSH1 0x1 ADD SWAP1 PUSH1 0x20 ADD DUP1 DUP4 GT PUSH2 0x456 JUMPI DUP3 SWAP1 SUB PUSH1 0x1F AND DUP3 ADD SWAP2 JUMPDEST POP POP POP POP POP DUP2 MSTORE PUSH1 0x20 ADD PUSH1 0x3 DUP3 ADD SLOAD DUP2 MSTORE PUSH1 0x20 ADD PUSH1 0x4 DUP3 ADD DUP1 SLOAD PUSH2 0x496 SWAP1 PUSH2 0x130B JUMP JUMPDEST DUP1 PUSH1 0x1F ADD PUSH1 0x20 DUP1 SWAP2 DIV MUL PUSH1 0x20 ADD PUSH1 0x40 MLOAD SWAP1 DUP2 ADD PUSH1 0x40 MSTORE DUP1 SWAP3 SWAP2 SWAP1 DUP2 DUP2 MSTORE PUSH1 0x20 ADD DUP3 DUP1 SLOAD PUSH2 0x4C2 SWAP1 PUSH2 0x130B JUMP JUMPDEST DUP1 ISZERO PUSH2 0x50D JUMPI DUP1 PUSH1 0x1F LT PUSH2 0x4E4 JUMPI PUSH2 0x100 DUP1 DUP4 SLOAD DIV MUL DUP4 MSTORE SWAP2 PUSH1 0x20 ADD SWAP2 PUSH2 0x50D JUMP JUMPDEST DUP3 ADD SWAP2 SWAP1 PUSH0 MSTORE PUSH1 0x20 PUSH0 KECCAK256 SWAP1 JUMPDEST DUP2 SLOAD DUP2 MSTORE SWAP1 PUSH1 0x1 ADD SWAP1 PUSH1 0x20 ADD DUP1 DUP4 GT PUSH2 0x4F0 JUMPI DUP3 SWAP1 SUB PUSH1 0x1F AND DUP3 ADD SWAP2 JUMPDEST POP POP POP POP POP DUP2 MSTORE POP POP DUP4 DUP4 DUP2 MLOAD DUP2 LT PUSH2 0x529 JUMPI PUSH2 0x528 PUSH2 0x12B1 JUMP JUMPDEST JUMPDEST PUSH1 0x20 MUL PUSH1 0x20 ADD ADD DUP2 SWAP1 MSTORE POP DUP2 DUP1 PUSH2 0x53F SWAP1 PUSH2 0x1410 JUMP JUMPDEST SWAP3 POP POP JUMPDEST DUP1 DUP1 PUSH1 0x1 ADD SWAP2 POP POP PUSH2 0x223 JUMP JUMPDEST POP DUP2 SWAP4 POP POP POP POP SWAP2 SWAP1 POP JUMP JUMPDEST PUSH0 DUP2 DUP2 SLOAD DUP2 LT PUSH2 0x56A JUMPI PUSH0 DUP1 REVERT JUMPDEST SWAP1 PUSH0 MSTORE PUSH1 0x20 PUSH0 KECCAK256 SWAP1 PUSH1 0x5 MUL ADD PUSH0 SWAP2 POP SWAP1 POP DUP1 PUSH0 ADD DUP1 SLOAD PUSH2 0x589 SWAP1 PUSH2 0x130B JUMP JUMPDEST DUP1 PUSH1 0x1F ADD PUSH1 0x20 DUP1 SWAP2 DIV MUL PUSH1 0x20 ADD PUSH1 0x40 MLOAD SWAP1 DUP2 ADD PUSH1 0x40 MSTORE DUP1 SWAP3 SWAP2 SWAP1 DUP2 DUP2 MSTORE PUSH1 0x20 ADD DUP3 DUP1 SLOAD PUSH2 0x5B5 SWAP1 PUSH2 0x130B JUMP JUMPDEST DUP1 ISZERO PUSH2 0x600 JUMPI DUP1 PUSH1 0x1F LT PUSH2 0x5D7 JUMPI PUSH2 0x100 DUP1 DUP4 SLOAD DIV MUL DUP4 MSTORE SWAP2 PUSH1 0x20 ADD SWAP2 PUSH2 0x600 JUMP JUMPDEST DUP3 ADD SWAP2 SWAP1 PUSH0 MSTORE PUSH1 0x20 PUSH0 KECCAK256 SWAP1 JUMPDEST DUP2 SLOAD DUP2 MSTORE SWAP1 PUSH1 0x1 ADD SWAP1 PUSH1 0x20 ADD DUP1 DUP4 GT PUSH2 0x5E3 JUMPI DUP3 SWAP1 SUB PUSH1 0x1F AND DUP3 ADD SWAP2 JUMPDEST POP POP POP POP POP SWAP1 DUP1 PUSH1 0x1 ADD DUP1 SLOAD PUSH2 0x615 SWAP1 PUSH2 0x130B JUMP JUMPDEST DUP1 PUSH1 0x1F ADD PUSH1 0x20 DUP1 SWAP2 DIV MUL PUSH1 0x20 ADD PUSH1 0x40 MLOAD SWAP1 DUP2 ADD PUSH1 0x40 MSTORE DUP1 SWAP3 SWAP2 SWAP1 DUP2 DUP2 MSTORE PUSH1 0x20 ADD DUP3 DUP1 SLOAD PUSH2 0x641 SWAP1 PUSH2 0x130B JUMP JUMPDEST DUP1 ISZERO PUSH2 0x68C JUMPI DUP1 PUSH1 0x1F LT PUSH2 0x663 JUMPI PUSH2 0x100 DUP1 DUP4 SLOAD DIV MUL DUP4 MSTORE SWAP2 PUSH1 0x20 ADD SWAP2 PUSH2 0x68C JUMP JUMPDEST DUP3 ADD SWAP2 SWAP1 PUSH0 MSTORE PUSH1 0x20 PUSH0 KECCAK256 SWAP1 JUMPDEST DUP2 SLOAD DUP2 MSTORE SWAP1 PUSH1 0x1 ADD SWAP1 PUSH1 0x20 ADD DUP1 DUP4 GT PUSH2 0x66F JUMPI DUP3 SWAP1 SUB PUSH1 0x1F AND DUP3 ADD SWAP2 JUMPDEST POP POP POP POP POP SWAP1 DUP1 PUSH1 0x2 ADD DUP1 SLOAD PUSH2 0x6A1 SWAP1 PUSH2 0x130B JUMP JUMPDEST DUP1 PUSH1 0x1F ADD PUSH1 0x20 DUP1 SWAP2 DIV MUL PUSH1 0x20 ADD PUSH1 0x40 MLOAD SWAP1 DUP2 ADD PUSH1 0x40 MSTORE DUP1 SWAP3 SWAP2 SWAP1 DUP2 DUP2 MSTORE PUSH1 0x20 ADD DUP3 DUP1 SLOAD PUSH2 0x6CD SWAP1 PUSH2 0x130B JUMP JUMPDEST DUP1 ISZERO PUSH2 0x718 JUMPI DUP1 PUSH1 0x1F LT PUSH2 0x6EF JUMPI PUSH2 0x100 DUP1 DUP4 SLOAD DIV MUL DUP4 MSTORE SWAP2 PUSH1 0x20 ADD SWAP2 PUSH2 0x718 JUMP JUMPDEST DUP3 ADD SWAP2 SWAP1 PUSH0 MSTORE PUSH1 0x20 PUSH0 KECCAK256 SWAP1 JUMPDEST DUP2 SLOAD DUP2 MSTORE SWAP1 PUSH1 0x1 ADD SWAP1 PUSH1 0x20 ADD DUP1 DUP4 GT PUSH2 0x6FB JUMPI DUP3 SWAP1 SUB PUSH1 0x1F AND DUP3 ADD SWAP2 JUMPDEST POP POP POP POP POP SWAP1 DUP1 PUSH1 0x3 ADD SLOAD SWAP1 DUP1 PUSH1 0x4 ADD DUP1 SLOAD PUSH2 0x733 SWAP1 PUSH2 0x130B JUMP JUMPDEST DUP1 PUSH1 0x1F ADD PUSH1 0x20 DUP1 SWAP2 DIV MUL PUSH1 0x20 ADD PUSH1 0x40 MLOAD SWAP1 DUP2 ADD PUSH1 0x40 MSTORE DUP1 SWAP3 SWAP2 SWAP1 DUP2 DUP2 MSTORE PUSH1 0x20 ADD DUP3 DUP1 SLOAD PUSH2 0x75F SWAP1 PUSH2 0x130B JUMP JUMPDEST DUP1 ISZERO PUSH2 0x7AA JUMPI DUP1 PUSH1 0x1F LT PUSH2 0x781 JUMPI PUSH2 0x100 DUP1 DUP4 SLOAD DIV MUL DUP4 MSTORE SWAP2 PUSH1 0x20 ADD SWAP2 PUSH2 0x7AA JUMP JUMPDEST DUP3 ADD SWAP2 SWAP1 PUSH0 MSTORE PUSH1 0x20 PUSH0 KECCAK256 SWAP1 JUMPDEST DUP2 SLOAD DUP2 MSTORE SWAP1 PUSH1 0x1 ADD SWAP1 PUSH1 0x20 ADD DUP1 DUP4 GT PUSH2 0x78D JUMPI DUP3 SWAP1 SUB PUSH1 0x1F AND DUP3 ADD SWAP2 JUMPDEST POP POP POP POP POP SWAP1 POP DUP6 JUMP JUMPDEST PUSH1 0x60 PUSH0 DUP1 JUMPDEST PUSH0 DUP1 SLOAD SWAP1 POP DUP2 LT ISZERO PUSH2 0x855 JUMPI DUP4 PUSH1 0x40 MLOAD PUSH1 0x20 ADD PUSH2 0x7D6 SWAP2 SWAP1 PUSH2 0x129B JUMP JUMPDEST PUSH1 0x40 MLOAD PUSH1 0x20 DUP2 DUP4 SUB SUB DUP2 MSTORE SWAP1 PUSH1 0x40 MSTORE DUP1 MLOAD SWAP1 PUSH1 0x20 ADD KECCAK256 PUSH0 DUP3 DUP2 SLOAD DUP2 LT PUSH2 0x7FF JUMPI PUSH2 0x7FE PUSH2 0x12B1 JUMP JUMPDEST JUMPDEST SWAP1 PUSH0 MSTORE PUSH1 0x20 PUSH0 KECCAK256 SWAP1 PUSH1 0x5 MUL ADD PUSH1 0x2 ADD PUSH1 0x40 MLOAD PUSH1 0x20 ADD PUSH2 0x81E SWAP2 SWAP1 PUSH2 0x13CD JUMP JUMPDEST PUSH1 0x40 MLOAD PUSH1 0x20 DUP2 DUP4 SUB SUB DUP2 MSTORE SWAP1 PUSH1 0x40 MSTORE DUP1 MLOAD SWAP1 PUSH1 0x20 ADD KECCAK256 SUB PUSH2 0x848 JUMPI DUP2 DUP1 PUSH2 0x844 SWAP1 PUSH2 0x1410 JUMP JUMPDEST SWAP3 POP POP JUMPDEST DUP1 DUP1 PUSH1 0x1 ADD SWAP2 POP POP PUSH2 0x7B9 JUMP JUMPDEST POP PUSH0 DUP2 PUSH8 0xFFFFFFFFFFFFFFFF DUP2 GT ISZERO PUSH2 0x871 JUMPI PUSH2 0x870 PUSH2 0xD02 JUMP JUMPDEST JUMPDEST PUSH1 0x40 MLOAD SWAP1 DUP1 DUP3 MSTORE DUP1 PUSH1 0x20 MUL PUSH1 0x20 ADD DUP3 ADD PUSH1 0x40 MSTORE DUP1 ISZERO PUSH2 0x8AA JUMPI DUP2 PUSH1 0x20 ADD JUMPDEST PUSH2 0x897 PUSH2 0xCAB JUMP JUMPDEST DUP2 MSTORE PUSH1 0x20 ADD SWAP1 PUSH1 0x1 SWAP1 SUB SWAP1 DUP2 PUSH2 0x88F JUMPI SWAP1 POP JUMPDEST POP SWAP1 POP PUSH0 DUP1 JUMPDEST PUSH0 DUP1 SLOAD SWAP1 POP DUP2 LT ISZERO PUSH2 0xBDD JUMPI DUP6 PUSH1 0x40 MLOAD PUSH1 0x20 ADD PUSH2 0x8CD SWAP2 SWAP1 PUSH2 0x129B JUMP JUMPDEST PUSH1 0x40 MLOAD PUSH1 0x20 DUP2 DUP4 SUB SUB DUP2 MSTORE SWAP1 PUSH1 0x40 MSTORE DUP1 MLOAD SWAP1 PUSH1 0x20 ADD KECCAK256 PUSH0 DUP3 DUP2 SLOAD DUP2 LT PUSH2 0x8F6 JUMPI PUSH2 0x8F5 PUSH2 0x12B1 JUMP JUMPDEST JUMPDEST SWAP1 PUSH0 MSTORE PUSH1 0x20 PUSH0 KECCAK256 SWAP1 PUSH1 0x5 MUL ADD PUSH1 0x2 ADD PUSH1 0x40 MLOAD PUSH1 0x20 ADD PUSH2 0x915 SWAP2 SWAP1 PUSH2 0x13CD JUMP JUMPDEST PUSH1 0x40 MLOAD PUSH1 0x20 DUP2 DUP4 SUB SUB DUP2 MSTORE SWAP1 PUSH1 0x40 MSTORE DUP1 MLOAD SWAP1 PUSH1 0x20 ADD KECCAK256 SUB PUSH2 0xBD0 JUMPI PUSH0 DUP2 DUP2 SLOAD DUP2 LT PUSH2 0x943 JUMPI PUSH2 0x942 PUSH2 0x12B1 JUMP JUMPDEST JUMPDEST SWAP1 PUSH0 MSTORE PUSH1 0x20 PUSH0 KECCAK256 SWAP1 PUSH1 0x5 MUL ADD PUSH1 0x40 MLOAD DUP1 PUSH1 0xA0 ADD PUSH1 0x40 MSTORE SWAP1 DUP2 PUSH0 DUP3 ADD DUP1 SLOAD PUSH2 0x969 SWAP1 PUSH2 0x130B JUMP JUMPDEST DUP1 PUSH1 0x1F ADD PUSH1 0x20 DUP1 SWAP2 DIV MUL PUSH1 0x20 ADD PUSH1 0x40 MLOAD SWAP1 DUP2 ADD PUSH1 0x40 MSTORE DUP1 SWAP3 SWAP2 SWAP1 DUP2 DUP2 MSTORE PUSH1 0x20 ADD DUP3 DUP1 SLOAD PUSH2 0x995 SWAP1 PUSH2 0x130B JUMP JUMPDEST DUP1 ISZERO PUSH2 0x9E0 JUMPI DUP1 PUSH1 0x1F LT PUSH2 0x9B7 JUMPI PUSH2 0x100 DUP1 DUP4 SLOAD DIV MUL DUP4 MSTORE SWAP2 PUSH1 0x20 ADD SWAP2 PUSH2 0x9E0 JUMP JUMPDEST DUP3 ADD SWAP2 SWAP1 PUSH0 MSTORE PUSH1 0x20 PUSH0 KECCAK256 SWAP1 JUMPDEST DUP2 SLOAD DUP2 MSTORE SWAP1 PUSH1 0x1 ADD SWAP1 PUSH1 0x20 ADD DUP1 DUP4 GT PUSH2 0x9C3 JUMPI DUP3 SWAP1 SUB PUSH1 0x1F AND DUP3 ADD SWAP2 JUMPDEST POP POP POP POP POP DUP2 MSTORE PUSH1 0x20 ADD PUSH1 0x1 DUP3 ADD DUP1 SLOAD PUSH2 0x9F9 SWAP1 PUSH2 0x130B JUMP JUMPDEST DUP1 PUSH1 0x1F ADD PUSH1 0x20 DUP1 SWAP2 DIV MUL PUSH1 0x20 ADD PUSH1 0x40 MLOAD SWAP1 DUP2 ADD PUSH1 0x40 MSTORE DUP1 SWAP3 SWAP2 SWAP1 DUP2 DUP2 MSTORE PUSH1 0x20 ADD DUP3 DUP1 SLOAD PUSH2 0xA25 SWAP1 PUSH2 0x130B JUMP JUMPDEST DUP1 ISZERO PUSH2 0xA70 JUMPI DUP1 PUSH1 0x1F LT PUSH2 0xA47 JUMPI PUSH2 0x100 DUP1 DUP4 SLOAD DIV MUL DUP4 MSTORE SWAP2 PUSH1 0x20 ADD SWAP2 PUSH2 0xA70 JUMP JUMPDEST DUP3 ADD SWAP2 SWAP1 PUSH0 MSTORE PUSH1 0x20 PUSH0 KECCAK256 SWAP1 JUMPDEST DUP2 SLOAD DUP2 MSTORE SWAP1 PUSH1 0x1 ADD SWAP1 PUSH1 0x20 ADD DUP1 DUP4 GT PUSH2 0xA53 JUMPI DUP3 SWAP1 SUB PUSH1 0x1F AND DUP3 ADD SWAP2 JUMPDEST POP POP POP POP POP DUP2 MSTORE PUSH1 0x20 ADD PUSH1 0x2 DUP3 ADD DUP1 SLOAD PUSH2 0xA89 SWAP1 PUSH2 0x130B JUMP JUMPDEST DUP1 PUSH1 0x1F ADD PUSH1 0x20 DUP1 SWAP2 DIV MUL PUSH1 0x20 ADD PUSH1 0x40 MLOAD SWAP1 DUP2 ADD PUSH1 0x40 MSTORE DUP1 SWAP3 SWAP2 SWAP1 DUP2 DUP2 MSTORE PUSH1 0x20 ADD DUP3 DUP1 SLOAD PUSH2 0xAB5 SWAP1 PUSH2 0x130B JUMP JUMPDEST DUP1 ISZERO PUSH2 0xB00 JUMPI DUP1 PUSH1 0x1F LT PUSH2 0xAD7 JUMPI PUSH2 0x100 DUP1 DUP4 SLOAD DIV MUL DUP4 MSTORE SWAP2 PUSH1 0x20 ADD SWAP2 PUSH2 0xB00 JUMP JUMPDEST DUP3 ADD SWAP2 SWAP1 PUSH0 MSTORE PUSH1 0x20 PUSH0 KECCAK256 SWAP1 JUMPDEST DUP2 SLOAD DUP2 MSTORE SWAP1 PUSH1 0x1 ADD SWAP1 PUSH1 0x20 ADD DUP1 DUP4 GT PUSH2 0xAE3 JUMPI DUP3 SWAP1 SUB PUSH1 0x1F AND DUP3 ADD SWAP2 JUMPDEST POP POP POP POP POP DUP2 MSTORE PUSH1 0x20 ADD PUSH1 0x3 DUP3 ADD SLOAD DUP2 MSTORE PUSH1 0x20 ADD PUSH1 0x4 DUP3 ADD DUP1 SLOAD PUSH2 0xB23 SWAP1 PUSH2 0x130B JUMP JUMPDEST DUP1 PUSH1 0x1F ADD PUSH1 0x20 DUP1 SWAP2 DIV MUL PUSH1 0x20 ADD PUSH1 0x40 MLOAD SWAP1 DUP2 ADD PUSH1 0x40 MSTORE DUP1 SWAP3 SWAP2 SWAP1 DUP2 DUP2 MSTORE PUSH1 0x20 ADD DUP3 DUP1 SLOAD PUSH2 0xB4F SWAP1 PUSH2 0x130B JUMP JUMPDEST DUP1 ISZERO PUSH2 0xB9A JUMPI DUP1 PUSH1 0x1F LT PUSH2 0xB71 JUMPI PUSH2 0x100 DUP1 DUP4 SLOAD DIV MUL DUP4 MSTORE SWAP2 PUSH1 0x20 ADD SWAP2 PUSH2 0xB9A JUMP JUMPDEST DUP3 ADD SWAP2 SWAP1 PUSH0 MSTORE PUSH1 0x20 PUSH0 KECCAK256 SWAP1 JUMPDEST DUP2 SLOAD DUP2 MSTORE SWAP1 PUSH1 0x1 ADD SWAP1 PUSH1 0x20 ADD DUP1 DUP4 GT PUSH2 0xB7D JUMPI DUP3 SWAP1 SUB PUSH1 0x1F AND DUP3 ADD SWAP2 JUMPDEST POP POP POP POP POP DUP2 MSTORE POP POP DUP4 DUP4 DUP2 MLOAD DUP2 LT PUSH2 0xBB6 JUMPI PUSH2 0xBB5 PUSH2 0x12B1 JUMP JUMPDEST JUMPDEST PUSH1 0x20 MUL PUSH1 0x20 ADD ADD DUP2 SWAP1 MSTORE POP DUP2 DUP1 PUSH2 0xBCC SWAP1 PUSH2 0x1410 JUMP JUMPDEST SWAP3 POP POP JUMPDEST DUP1 DUP1 PUSH1 0x1 ADD SWAP2 POP POP PUSH2 0x8B0 JUMP JUMPDEST POP DUP2 SWAP4 POP POP POP POP SWAP2 SWAP1 POP JUMP JUMPDEST PUSH0 DUP1 DUP1 SLOAD SWAP1 POP SWAP1 POP SWAP1 JUMP JUMPDEST PUSH0 PUSH1 0x40 MLOAD DUP1 PUSH1 0xA0 ADD PUSH1 0x40 MSTORE DUP1 DUP8 DUP2 MSTORE PUSH1 0x20 ADD DUP7 DUP2 MSTORE PUSH1 0x20 ADD DUP6 DUP2 MSTORE PUSH1 0x20 ADD DUP5 DUP2 MSTORE PUSH1 0x20 ADD DUP4 DUP2 MSTORE POP SWAP1 DUP1 PUSH1 0x1 DUP2 SLOAD ADD DUP1 DUP3 SSTORE DUP1 SWAP2 POP POP PUSH1 0x1 SWAP1 SUB SWAP1 PUSH0 MSTORE PUSH1 0x20 PUSH0 KECCAK256 SWAP1 PUSH1 0x5 MUL ADD PUSH0 SWAP1 SWAP2 SWAP1 SWAP2 SWAP1 SWAP2 POP PUSH0 DUP3 ADD MLOAD DUP2 PUSH0 ADD SWAP1 DUP2 PUSH2 0xC55 SWAP2 SWAP1 PUSH2 0x15E2 JUMP JUMPDEST POP PUSH1 0x20 DUP3 ADD MLOAD DUP2 PUSH1 0x1 ADD SWAP1 DUP2 PUSH2 0xC6B SWAP2 SWAP1 PUSH2 0x15E2 JUMP JUMPDEST POP PUSH1 0x40 DUP3 ADD MLOAD DUP2 PUSH1 0x2 ADD SWAP1 DUP2 PUSH2 0xC81 SWAP2 SWAP1 PUSH2 0x15E2 JUMP JUMPDEST POP PUSH1 0x60 DUP3 ADD MLOAD DUP2 PUSH1 0x3 ADD SSTORE PUSH1 0x80 DUP3 ADD MLOAD DUP2 PUSH1 0x4 ADD SWAP1 DUP2 PUSH2 0xCA1 SWAP2 SWAP1 PUSH2 0x15E2 JUMP JUMPDEST POP POP POP POP POP POP POP POP JUMP JUMPDEST PUSH1 0x40 MLOAD DUP1 PUSH1 0xA0 ADD PUSH1 0x40 MSTORE DUP1 PUSH1 0x60 DUP2 MSTORE PUSH1 0x20 ADD PUSH1 0x60 DUP2 MSTORE PUSH1 0x20 ADD PUSH1 0x60 DUP2 MSTORE PUSH1 0x20 ADD PUSH0 DUP2 MSTORE PUSH1 0x20 ADD PUSH1 0x60 DUP2 MSTORE POP SWAP1 JUMP JUMPDEST PUSH0 PUSH1 0x40 MLOAD SWAP1 POP SWAP1 JUMP JUMPDEST PUSH0 DUP1 REVERT JUMPDEST PUSH0 DUP1 REVERT JUMPDEST PUSH0 DUP1 REVERT JUMPDEST PUSH0 DUP1 REVERT JUMPDEST PUSH0 PUSH1 0x1F NOT PUSH1 0x1F DUP4 ADD AND SWAP1 POP SWAP2 SWAP1 POP JUMP JUMPDEST PUSH32 0x4E487B7100000000000000000000000000000000000000000000000000000000 PUSH0 MSTORE PUSH1 0x41 PUSH1 0x4 MSTORE PUSH1 0x24 PUSH0 REVERT JUMPDEST PUSH2 0xD38 DUP3 PUSH2 0xCF2 JUMP JUMPDEST DUP2 ADD DUP2 DUP2 LT PUSH8 0xFFFFFFFFFFFFFFFF DUP3 GT OR ISZERO PUSH2 0xD57 JUMPI PUSH2 0xD56 PUSH2 0xD02 JUMP JUMPDEST JUMPDEST DUP1 PUSH1 0x40 MSTORE POP POP POP JUMP JUMPDEST PUSH0 PUSH2 0xD69 PUSH2 0xCD9 JUMP JUMPDEST SWAP1 POP PUSH2 0xD75 DUP3 DUP3 PUSH2 0xD2F JUMP JUMPDEST SWAP2 SWAP1 POP JUMP JUMPDEST PUSH0 PUSH8 0xFFFFFFFFFFFFFFFF DUP3 GT ISZERO PUSH2 0xD94 JUMPI PUSH2 0xD93 PUSH2 0xD02 JUMP JUMPDEST JUMPDEST PUSH2 0xD9D DUP3 PUSH2 0xCF2 JUMP JUMPDEST SWAP1 POP PUSH1 0x20 DUP2 ADD SWAP1 POP SWAP2 SWAP1 POP JUMP JUMPDEST DUP3 DUP2 DUP4 CALLDATACOPY PUSH0 DUP4 DUP4 ADD MSTORE POP POP POP JUMP JUMPDEST PUSH0 PUSH2 0xDCA PUSH2 0xDC5 DUP5 PUSH2 0xD7A JUMP JUMPDEST PUSH2 0xD60 JUMP JUMPDEST SWAP1 POP DUP3 DUP2 MSTORE PUSH1 0x20 DUP2 ADD DUP5 DUP5 DUP5 ADD GT ISZERO PUSH2 0xDE6 JUMPI PUSH2 0xDE5 PUSH2 0xCEE JUMP JUMPDEST JUMPDEST PUSH2 0xDF1 DUP5 DUP3 DUP6 PUSH2 0xDAA JUMP JUMPDEST POP SWAP4 SWAP3 POP POP POP JUMP JUMPDEST PUSH0 DUP3 PUSH1 0x1F DUP4 ADD SLT PUSH2 0xE0D JUMPI PUSH2 0xE0C PUSH2 0xCEA JUMP JUMPDEST JUMPDEST DUP2 CALLDATALOAD PUSH2 0xE1D DUP5 DUP3 PUSH1 0x20 DUP7 ADD PUSH2 0xDB8 JUMP JUMPDEST SWAP2 POP POP SWAP3 SWAP2 POP POP JUMP JUMPDEST PUSH0 PUSH1 0x20 DUP3 DUP5 SUB SLT ISZERO PUSH2 0xE3B JUMPI PUSH2 0xE3A PUSH2 0xCE2 JUMP JUMPDEST JUMPDEST PUSH0 DUP3 ADD CALLDATALOAD PUSH8 0xFFFFFFFFFFFFFFFF DUP2 GT ISZERO PUSH2 0xE58 JUMPI PUSH2 0xE57 PUSH2 0xCE6 JUMP JUMPDEST JUMPDEST PUSH2 0xE64 DUP5 DUP3 DUP6 ADD PUSH2 0xDF9 JUMP JUMPDEST SWAP2 POP POP SWAP3 SWAP2 POP POP JUMP JUMPDEST PUSH0 DUP2 MLOAD SWAP1 POP SWAP2 SWAP1 POP JUMP JUMPDEST PUSH0 DUP3 DUP3 MSTORE PUSH1 0x20 DUP3 ADD SWAP1 POP SWAP3 SWAP2 POP POP JUMP JUMPDEST PUSH0 DUP2 SWAP1 POP PUSH1 0x20 DUP3 ADD SWAP1 POP SWAP2 SWAP1 POP JUMP JUMPDEST PUSH0 DUP2 MLOAD SWAP1 POP SWAP2 SWAP1 POP JUMP JUMPDEST PUSH0 DUP3 DUP3 MSTORE PUSH1 0x20 DUP3 ADD SWAP1 POP SWAP3 SWAP2 POP POP JUMP JUMPDEST DUP3 DUP2 DUP4 MCOPY PUSH0 DUP4 DUP4 ADD MSTORE POP POP POP JUMP JUMPDEST PUSH0 PUSH2 0xEC8 DUP3 PUSH2 0xE96 JUMP JUMPDEST PUSH2 0xED2 DUP2 DUP6 PUSH2 0xEA0 JUMP JUMPDEST SWAP4 POP PUSH2 0xEE2 DUP2 DUP6 PUSH1 0x20 DUP7 ADD PUSH2 0xEB0 JUMP JUMPDEST PUSH2 0xEEB DUP2 PUSH2 0xCF2 JUMP JUMPDEST DUP5 ADD SWAP2 POP POP SWAP3 SWAP2 POP POP JUMP JUMPDEST PUSH0 DUP2 SWAP1 POP SWAP2 SWAP1 POP JUMP JUMPDEST PUSH2 0xF08 DUP2 PUSH2 0xEF6 JUMP JUMPDEST DUP3 MSTORE POP POP JUMP JUMPDEST PUSH0 PUSH1 0xA0 DUP4 ADD PUSH0 DUP4 ADD MLOAD DUP5 DUP3 SUB PUSH0 DUP7 ADD MSTORE PUSH2 0xF28 DUP3 DUP3 PUSH2 0xEBE JUMP JUMPDEST SWAP2 POP POP PUSH1 0x20 DUP4 ADD MLOAD DUP5 DUP3 SUB PUSH1 0x20 DUP7 ADD MSTORE PUSH2 0xF42 DUP3 DUP3 PUSH2 0xEBE JUMP JUMPDEST SWAP2 POP POP PUSH1 0x40 DUP4 ADD MLOAD DUP5 DUP3 SUB PUSH1 0x40 DUP7 ADD MSTORE PUSH2 0xF5C DUP3 DUP3 PUSH2 0xEBE JUMP JUMPDEST SWAP2 POP POP PUSH1 0x60 DUP4 ADD MLOAD PUSH2 0xF71 PUSH1 0x60 DUP7 ADD DUP3 PUSH2 0xEFF JUMP JUMPDEST POP PUSH1 0x80 DUP4 ADD MLOAD DUP5 DUP3 SUB PUSH1 0x80 DUP7 ADD MSTORE PUSH2 0xF89 DUP3 DUP3 PUSH2 0xEBE JUMP JUMPDEST SWAP2 POP POP DUP1 SWAP2 POP POP SWAP3 SWAP2 POP POP JUMP JUMPDEST PUSH0 PUSH2 0xFA1 DUP4 DUP4 PUSH2 0xF0E JUMP JUMPDEST SWAP1 POP SWAP3 SWAP2 POP POP JUMP JUMPDEST PUSH0 PUSH1 0x20 DUP3 ADD SWAP1 POP SWAP2 SWAP1 POP JUMP JUMPDEST PUSH0 PUSH2 0xFBF DUP3 PUSH2 0xE6D JUMP JUMPDEST PUSH2 0xFC9 DUP2 DUP6 PUSH2 0xE77 JUMP JUMPDEST SWAP4 POP DUP4 PUSH1 0x20 DUP3 MUL DUP6 ADD PUSH2 0xFDB DUP6 PUSH2 0xE87 JUMP JUMPDEST DUP1 PUSH0 JUMPDEST DUP6 DUP2 LT ISZERO PUSH2 0x1016 JUMPI DUP5 DUP5 SUB DUP10 MSTORE DUP2 MLOAD PUSH2 0xFF7 DUP6 DUP3 PUSH2 0xF96 JUMP JUMPDEST SWAP5 POP PUSH2 0x1002 DUP4 PUSH2 0xFA9 JUMP JUMPDEST SWAP3 POP PUSH1 0x20 DUP11 ADD SWAP10 POP POP PUSH1 0x1 DUP2 ADD SWAP1 POP PUSH2 0xFDE JUMP JUMPDEST POP DUP3 SWAP8 POP DUP8 SWAP6 POP POP POP POP POP POP SWAP3 SWAP2 POP POP JUMP JUMPDEST PUSH0 PUSH1 0x20 DUP3 ADD SWAP1 POP DUP2 DUP2 SUB PUSH0 DUP4 ADD MSTORE PUSH2 0x1040 DUP2 DUP5 PUSH2 0xFB5 JUMP JUMPDEST SWAP1 POP SWAP3 SWAP2 POP POP JUMP JUMPDEST PUSH2 0x1051 DUP2 PUSH2 0xEF6 JUMP JUMPDEST DUP2 EQ PUSH2 0x105B JUMPI PUSH0 DUP1 REVERT JUMPDEST POP JUMP JUMPDEST PUSH0 DUP2 CALLDATALOAD SWAP1 POP PUSH2 0x106C DUP2 PUSH2 0x1048 JUMP JUMPDEST SWAP3 SWAP2 POP POP JUMP JUMPDEST PUSH0 PUSH1 0x20 DUP3 DUP5 SUB SLT ISZERO PUSH2 0x1087 JUMPI PUSH2 0x1086 PUSH2 0xCE2 JUMP JUMPDEST JUMPDEST PUSH0 PUSH2 0x1094 DUP5 DUP3 DUP6 ADD PUSH2 0x105E JUMP JUMPDEST SWAP2 POP POP SWAP3 SWAP2 POP POP JUMP JUMPDEST PUSH0 DUP3 DUP3 MSTORE PUSH1 0x20 DUP3 ADD SWAP1 POP SWAP3 SWAP2 POP POP JUMP JUMPDEST PUSH0 PUSH2 0x10B7 DUP3 PUSH2 0xE96 JUMP JUMPDEST PUSH2 0x10C1 DUP2 DUP6 PUSH2 0x109D JUMP JUMPDEST SWAP4 POP PUSH2 0x10D1 DUP2 DUP6 PUSH1 0x20 DUP7 ADD PUSH2 0xEB0 JUMP JUMPDEST PUSH2 0x10DA DUP2 PUSH2 0xCF2 JUMP JUMPDEST DUP5 ADD SWAP2 POP POP SWAP3 SWAP2 POP POP JUMP JUMPDEST PUSH2 0x10EE DUP2 PUSH2 0xEF6 JUMP JUMPDEST DUP3 MSTORE POP POP JUMP JUMPDEST PUSH0 PUSH1 0xA0 DUP3 ADD SWAP1 POP DUP2 DUP2 SUB PUSH0 DUP4 ADD MSTORE PUSH2 0x110C DUP2 DUP9 PUSH2 0x10AD JUMP JUMPDEST SWAP1 POP DUP2 DUP2 SUB PUSH1 0x20 DUP4 ADD MSTORE PUSH2 0x1120 DUP2 DUP8 PUSH2 0x10AD JUMP JUMPDEST SWAP1 POP DUP2 DUP2 SUB PUSH1 0x40 DUP4 ADD MSTORE PUSH2 0x1134 DUP2 DUP7 PUSH2 0x10AD JUMP JUMPDEST SWAP1 POP PUSH2 0x1143 PUSH1 0x60 DUP4 ADD DUP6 PUSH2 0x10E5 JUMP JUMPDEST DUP2 DUP2 SUB PUSH1 0x80 DUP4 ADD MSTORE PUSH2 0x1155 DUP2 DUP5 PUSH2 0x10AD JUMP JUMPDEST SWAP1 POP SWAP7 SWAP6 POP POP POP POP POP POP JUMP JUMPDEST PUSH0 PUSH1 0x20 DUP3 ADD SWAP1 POP PUSH2 0x1174 PUSH0 DUP4 ADD DUP5 PUSH2 0x10E5 JUMP JUMPDEST SWAP3 SWAP2 POP POP JUMP JUMPDEST PUSH0 DUP1 PUSH0 DUP1 PUSH0 PUSH1 0xA0 DUP7 DUP9 SUB SLT ISZERO PUSH2 0x1193 JUMPI PUSH2 0x1192 PUSH2 0xCE2 JUMP JUMPDEST JUMPDEST PUSH0 DUP7 ADD CALLDATALOAD PUSH8 0xFFFFFFFFFFFFFFFF DUP2 GT ISZERO PUSH2 0x11B0 JUMPI PUSH2 0x11AF PUSH2 0xCE6 JUMP JUMPDEST JUMPDEST PUSH2 0x11BC DUP9 DUP3 DUP10 ADD PUSH2 0xDF9 JUMP JUMPDEST SWAP6 POP POP PUSH1 0x20 DUP7 ADD CALLDATALOAD PUSH8 0xFFFFFFFFFFFFFFFF DUP2 GT ISZERO PUSH2 0x11DD JUMPI PUSH2 0x11DC PUSH2 0xCE6 JUMP JUMPDEST JUMPDEST PUSH2 0x11E9 DUP9 DUP3 DUP10 ADD PUSH2 0xDF9 JUMP JUMPDEST SWAP5 POP POP PUSH1 0x40 DUP7 ADD CALLDATALOAD PUSH8 0xFFFFFFFFFFFFFFFF DUP2 GT ISZERO PUSH2 0x120A JUMPI PUSH2 0x1209 PUSH2 0xCE6 JUMP JUMPDEST JUMPDEST PUSH2 0x1216 DUP9 DUP3 DUP10 ADD PUSH2 0xDF9 JUMP JUMPDEST SWAP4 POP POP PUSH1 0x60 PUSH2 0x1227 DUP9 DUP3 DUP10 ADD PUSH2 0x105E JUMP JUMPDEST SWAP3 POP POP PUSH1 0x80 DUP7 ADD CALLDATALOAD PUSH8 0xFFFFFFFFFFFFFFFF DUP2 GT ISZERO PUSH2 0x1248 JUMPI PUSH2 0x1247 PUSH2 0xCE6 JUMP JUMPDEST JUMPDEST PUSH2 0x1254 DUP9 DUP3 DUP10 ADD PUSH2 0xDF9 JUMP JUMPDEST SWAP2 POP POP SWAP3 SWAP6 POP SWAP3 SWAP6 SWAP1 SWAP4 POP JUMP JUMPDEST PUSH0 DUP2 SWAP1 POP SWAP3 SWAP2 POP POP JUMP JUMPDEST PUSH0 PUSH2 0x1275 DUP3 PUSH2 0xE96 JUMP JUMPDEST PUSH2 0x127F DUP2 DUP6 PUSH2 0x1261 JUMP JUMPDEST SWAP4 POP PUSH2 0x128F DUP2 DUP6 PUSH1 0x20 DUP7 ADD PUSH2 0xEB0 JUMP JUMPDEST DUP1 DUP5 ADD SWAP2 POP POP SWAP3 SWAP2 POP POP JUMP JUMPDEST PUSH0 PUSH2 0x12A6 DUP3 DUP5 PUSH2 0x126B JUMP JUMPDEST SWAP2 POP DUP2 SWAP1 POP SWAP3 SWAP2 POP POP JUMP JUMPDEST PUSH32 0x4E487B7100000000000000000000000000000000000000000000000000000000 PUSH0 MSTORE PUSH1 0x32 PUSH1 0x4 MSTORE PUSH1 0x24 PUSH0 REVERT JUMPDEST PUSH32 0x4E487B7100000000000000000000000000000000000000000000000000000000 PUSH0 MSTORE PUSH1 0x22 PUSH1 0x4 MSTORE PUSH1 0x24 PUSH0 REVERT JUMPDEST PUSH0 PUSH1 0x2 DUP3 DIV SWAP1 POP PUSH1 0x1 DUP3 AND DUP1 PUSH2 0x1322 JUMPI PUSH1 0x7F DUP3 AND SWAP2 POP JUMPDEST PUSH1 0x20 DUP3 LT DUP2 SUB PUSH2 0x1335 JUMPI PUSH2 0x1334 PUSH2 0x12DE JUMP JUMPDEST JUMPDEST POP SWAP2 SWAP1 POP JUMP JUMPDEST PUSH0 DUP2 SWAP1 POP DUP2 PUSH0 MSTORE PUSH1 0x20 PUSH0 KECCAK256 SWAP1 POP SWAP2 SWAP1 POP JUMP JUMPDEST PUSH0 DUP2 SLOAD PUSH2 0x1359 DUP2 PUSH2 0x130B JUMP JUMPDEST PUSH2 0x1363 DUP2 DUP7 PUSH2 0x1261 JUMP JUMPDEST SWAP5 POP PUSH1 0x1 DUP3 AND PUSH0 DUP2 EQ PUSH2 0x137D JUMPI PUSH1 0x1 DUP2 EQ PUSH2 0x1392 JUMPI PUSH2 0x13C4 JUMP JUMPDEST PUSH1 0xFF NOT DUP4 AND DUP7 MSTORE DUP2 ISZERO ISZERO DUP3 MUL DUP7 ADD SWAP4 POP PUSH2 0x13C4 JUMP JUMPDEST PUSH2 0x139B DUP6 PUSH2 0x133B JUMP JUMPDEST PUSH0 JUMPDEST DUP4 DUP2 LT ISZERO PUSH2 0x13BC JUMPI DUP2 SLOAD DUP2 DUP10 ADD MSTORE PUSH1 0x1 DUP3 ADD SWAP2 POP PUSH1 0x20 DUP2 ADD SWAP1 POP PUSH2 0x139D JUMP JUMPDEST DUP4 DUP9 ADD SWAP6 POP POP POP JUMPDEST POP POP POP SWAP3 SWAP2 POP POP JUMP JUMPDEST PUSH0 PUSH2 0x13D8 DUP3 DUP5 PUSH2 0x134D JUMP JUMPDEST SWAP2 POP DUP2 SWAP1 POP SWAP3 SWAP2 POP POP JUMP JUMPDEST PUSH32 0x4E487B7100000000000000000000000000000000000000000000000000000000 PUSH0 MSTORE PUSH1 0x11 PUSH1 0x4 MSTORE PUSH1 0x24 PUSH0 REVERT JUMPDEST PUSH0 PUSH2 0x141A DUP3 PUSH2 0xEF6 JUMP JUMPDEST SWAP2 POP PUSH32 0xFFFFFFFFFFFFFFFFFFFFFFFFFFFFFFFFFFFFFFFFFFFFFFFFFFFFFFFFFFFFFFFF DUP3 SUB PUSH2 0x144C JUMPI PUSH2 0x144B PUSH2 0x13E3 JUMP JUMPDEST JUMPDEST PUSH1 0x1 DUP3 ADD SWAP1 POP SWAP2 SWAP1 POP JUMP JUMPDEST PUSH0 PUSH1 0x20 PUSH1 0x1F DUP4 ADD DIV SWAP1 POP SWAP2 SWAP1 POP JUMP JUMPDEST PUSH0 DUP3 DUP3 SHL SWAP1 POP SWAP3 SWAP2 POP POP JUMP JUMPDEST PUSH0 PUSH1 0x8 DUP4 MUL PUSH2 0x14A1 PUSH32 0xFFFFFFFFFFFFFFFFFFFFFFFFFFFFFFFFFFFFFFFFFFFFFFFFFFFFFFFFFFFFFFFF DUP3 PUSH2 0x1466 JUMP JUMPDEST PUSH2 0x14AB DUP7 DUP4 PUSH2 0x1466 JUMP JUMPDEST SWAP6 POP DUP1 NOT DUP5 AND SWAP4 POP DUP1 DUP7 AND DUP5 OR SWAP3 POP POP POP SWAP4 SWAP3 POP POP POP JUMP JUMPDEST PUSH0 DUP2 SWAP1 POP SWAP2 SWAP1 POP JUMP JUMPDEST PUSH0 PUSH2 0x14E6 PUSH2 0x14E1 PUSH2 0x14DC DUP5 PUSH2 0xEF6 JUMP JUMPDEST PUSH2 0x14C3 JUMP JUMPDEST PUSH2 0xEF6 JUMP JUMPDEST SWAP1 POP SWAP2 SWAP1 POP JUMP JUMPDEST PUSH0 DUP2 SWAP1 POP SWAP2 SWAP1 POP JUMP JUMPDEST PUSH2 0x14FF DUP4 PUSH2 0x14CC JUMP JUMPDEST PUSH2 0x1513 PUSH2 0x150B DUP3 PUSH2 0x14ED JUMP JUMPDEST DUP5 DUP5 SLOAD PUSH2 0x1472 JUMP JUMPDEST DUP3 SSTORE POP POP POP POP JUMP JUMPDEST PUSH0 SWAP1 JUMP JUMPDEST PUSH2 0x1527 PUSH2 0x151B JUMP JUMPDEST PUSH2 0x1532 DUP2 DUP5 DUP5 PUSH2 0x14F6 JUMP JUMPDEST POP POP POP JUMP JUMPDEST JUMPDEST DUP2 DUP2 LT ISZERO PUSH2 0x1555 JUMPI PUSH2 0x154A PUSH0 DUP3 PUSH2 0x151F JUMP JUMPDEST PUSH1 0x1 DUP2 ADD SWAP1 POP PUSH2 0x1538 JUMP JUMPDEST POP POP JUMP JUMPDEST PUSH1 0x1F DUP3 GT ISZERO PUSH2 0x159A JUMPI PUSH2 0x156B DUP2 PUSH2 0x133B JUMP JUMPDEST PUSH2 0x1574 DUP5 PUSH2 0x1457 JUMP JUMPDEST DUP2 ADD PUSH1 0x20 DUP6 LT ISZERO PUSH2 0x1583 JUMPI DUP2 SWAP1 POP JUMPDEST PUSH2 0x1597 PUSH2 0x158F DUP6 PUSH2 0x1457 JUMP JUMPDEST DUP4 ADD DUP3 PUSH2 0x1537 JUMP JUMPDEST POP POP JUMPDEST POP POP POP JUMP JUMPDEST PUSH0 DUP3 DUP3 SHR SWAP1 POP SWAP3 SWAP2 POP POP JUMP JUMPDEST PUSH0 PUSH2 0x15BA PUSH0 NOT DUP5 PUSH1 0x8 MUL PUSH2 0x159F JUMP JUMPDEST NOT DUP1 DUP4 AND SWAP2 POP POP SWAP3 SWAP2 POP POP JUMP JUMPDEST PUSH0 PUSH2 0x15D2 DUP4 DUP4 PUSH2 0x15AB JUMP JUMPDEST SWAP2 POP DUP3 PUSH1 0x2 MUL DUP3 OR SWAP1 POP SWAP3 SWAP2 POP POP JUMP JUMPDEST PUSH2 0x15EB DUP3 PUSH2 0xE96 JUMP JUMPDEST PUSH8 0xFFFFFFFFFFFFFFFF DUP2 GT ISZERO PUSH2 0x1604 JUMPI PUSH2 0x1603 PUSH2 0xD02 JUMP JUMPDEST JUMPDEST PUSH2 0x160E DUP3 SLOAD PUSH2 0x130B JUMP JUMPDEST PUSH2 0x1619 DUP3 DUP3 DUP6 PUSH2 0x1559 JUMP JUMPDEST PUSH0 PUSH1 0x20 SWAP1 POP PUSH1 0x1F DUP4 GT PUSH1 0x1 DUP2 EQ PUSH2 0x164A JUMPI PUSH0 DUP5 ISZERO PUSH2 0x1638 JUMPI DUP3 DUP8 ADD MLOAD SWAP1 POP JUMPDEST PUSH2 0x1642 DUP6 DUP3 PUSH2 0x15C7 JUMP JUMPDEST DUP7 SSTORE POP PUSH2 0x16A9 JUMP JUMPDEST PUSH1 0x1F NOT DUP5 AND PUSH2 0x1658 DUP7 PUSH2 0x133B JUMP JUMPDEST PUSH0 JUMPDEST DUP3 DUP2 LT ISZERO PUSH2 0x167F JUMPI DUP5 DUP10 ADD MLOAD DUP3 SSTORE PUSH1 0x1 DUP3 ADD SWAP2 POP PUSH1 0x20 DUP6 ADD SWAP5 POP PUSH1 0x20 DUP2 ADD SWAP1 POP PUSH2 0x165A JUMP JUMPDEST DUP7 DUP4 LT ISZERO PUSH2 0x169C JUMPI DUP5 DUP10 ADD MLOAD PUSH2 0x1698 PUSH1 0x1F DUP10 AND DUP3 PUSH2 0x15AB JUMP JUMPDEST DUP4 SSTORE POP JUMPDEST PUSH1 0x1 PUSH1 0x2 DUP9 MUL ADD DUP9 SSTORE POP POP POP JUMPDEST POP POP POP POP POP POP JUMP INVALID LOG2 PUSH5 0x6970667358 0x22 SLT KECCAK256 0xF8 0xC5 SWAP14 BYTE 0xAD PUSH31 0xC29C4C77E489C2CD6C9F2C63AA205E8C11A1163574F18E68B98864736F6C63 NUMBER STOP ADDMOD BYTE STOP CALLER "
				},
				"gasEstimates": {
					"creation": {
						"codeDepositCost": "1172600",
						"executionCost": "1219",
						"totalCost": "1173819"
					},
					"external": {
						"addBook(string,string,string,uint256,string)": "infinite",
						"books(uint256)": "infinite",
						"getBookCount()": "2484",
						"getBooksByBranch(string)": "infinite",
						"getBooksByPublisher(string)": "infinite"
					}
				},
				"methodIdentifiers": {
					"addBook(string,string,string,uint256,string)": "f68baded",
					"books(uint256)": "68744046",
					"getBookCount()": "d73e0c89",
					"getBooksByBranch(string)": "62af221f",
					"getBooksByPublisher(string)": "bdd5b3e3"
				}
			},
			"storageLayout": {
				"storage": [
					{
						"astId": 16,
						"contract": "ClassTest II/CTq4.sol:Library",
						"label": "books",
						"offset": 0,
						"slot": "0",
						"type": "t_array(t_struct(Book)12_storage)dyn_storage"
					}
				],
				"types": {
					"t_array(t_struct(Book)12_storage)dyn_storage": {
						"base": "t_struct(Book)12_storage",
						"encoding": "dynamic_array",
						"label": "struct Library.Book[]",
						"numberOfBytes": "32"
					},
					"t_string_storage": {
						"encoding": "bytes",
						"label": "string",
						"numberOfBytes": "32"
					},
					"t_struct(Book)12_storage": {
						"encoding": "inplace",
						"label": "struct Library.Book",
						"members": [
							{
								"astId": 3,
								"contract": "ClassTest II/CTq4.sol:Library",
								"label": "name",
								"offset": 0,
								"slot": "0",
								"type": "t_string_storage"
							},
							{
								"astId": 5,
								"contract": "ClassTest II/CTq4.sol:Library",
								"label": "author",
								"offset": 0,
								"slot": "1",
								"type": "t_string_storage"
							},
							{
								"astId": 7,
								"contract": "ClassTest II/CTq4.sol:Library",
								"label": "publisher",
								"offset": 0,
								"slot": "2",
								"type": "t_string_storage"
							},
							{
								"astId": 9,
								"contract": "ClassTest II/CTq4.sol:Library",
								"label": "price",
								"offset": 0,
								"slot": "3",
								"type": "t_uint256"
							},
							{
								"astId": 11,
								"contract": "ClassTest II/CTq4.sol:Library",
								"label": "branch",
								"offset": 0,
								"slot": "4",
								"type": "t_string_storage"
							}
						],
						"numberOfBytes": "160"
					},
					"t_uint256": {
						"encoding": "inplace",
						"label": "uint256",
						"numberOfBytes": "32"
					}
				}
			},
			"userdoc": {
				"kind": "user",
				"methods": {},
				"version": 1
			}
		}
	}
}