{
	"ClassTest II/CTq3.sol": {
		"StudentRecords": {
			"abi": [
				{
					"inputs": [
						{
							"internalType": "uint256",
							"name": "_roll",
							"type": "uint256"
						},
						{
							"internalType": "string",
							"name": "_name",
							"type": "string"
						},
						{
							"internalType": "uint256",
							"name": "_physics",
							"type": "uint256"
						},
						{
							"internalType": "uint256",
							"name": "_chemistry",
							"type": "uint256"
						},
						{
							"internalType": "uint256",
							"name": "_mathematics",
							"type": "uint256"
						}
					],
					"name": "addStudent",
					"outputs": [],
					"stateMutability": "nonpayable",
					"type": "function"
				},
				{
					"inputs": [],
					"name": "getStudentCount",
					"outputs": [
						{
							"internalType": "uint256",
							"name": "",
							"type": "uint256"
						}
					],
					"stateMutability": "view",
					"type": "function"
				},
				{
					"inputs": [],
					"name": "getStudents",
					"outputs": [
						{
							"components": [
								{
									"internalType": "uint256",
									"name": "roll",
									"type": "uint256"
								},
								{
									"internalType": "string",
									"name": "name",
									"type": "string"
								},
								{
									"internalType": "uint256",
									"name": "marksinPhysics",
									"type": "uint256"
								},
								{
									"internalType": "uint256",
									"name": "marksinChemistry",
									"type": "uint256"
								},
								{
									"internalType": "uint256",
									"name": "marksinMathematics",
									"type": "uint256"
								},
								{
									"internalType": "uint256",
									"name": "totalMarks",
									"type": "uint256"
								}
							],
							"internalType": "struct StudentRecords.Student[]",
							"name": "",
							"type": "tuple[]"
						}
					],
					"stateMutability": "view",
					"type": "function"
				},
				{
					"inputs": [],
					"name": "sortStudentsByMarks",
					"outputs": [],
					"stateMutability": "nonpayable",
					"type": "function"
				},
				{
					"inputs": [
						{
							"internalType": "uint256",
							"name": "",
							"type": "uint256"
						}
					],
					"name": "students",
					"outputs": [
						{
							"internalType": "uint256",
							"name": "roll",
							"type": "uint256"
						},
						{
							"internalType": "string",
							"name": "name",
							"type": "string"
						},
						{
							"internalType": "uint256",
							"name": "marksinPhysics",
							"type": "uint256"
						},
						{
							"internalType": "uint256",
							"name": "marksinChemistry",
							"type": "uint256"
						},
						{
							"internalType": "uint256",
							"name": "marksinMathematics",
							"type": "uint256"
						},
						{
							"internalType": "uint256",
							"name": "totalMarks",
							"type": "uint256"
						}
					],
					"stateMutability": "view",
					"type": "function"
				}
			],
			"devdoc": {
				"kind": "dev",
				"methods": {},
				"version": 1
			},
			"evm": {
				"assembly": "    /* \"ClassTest II/CTq3.sol\":60:1933  contract StudentRecords {... */\n  mstore(0x40, 0x80)\n  callvalue\n  dup1\n  iszero\n  tag_1\n  jumpi\n  0x00\n  dup1\n  revert\ntag_1:\n  pop\n  dataSize(sub_0)\n  dup1\n  dataOffset(sub_0)\n  0x00\n  codecopy\n  0x00\n  return\nstop\n\nsub_0: assembly {\n        /* \"ClassTest II/CTq3.sol\":60:1933  contract StudentRecords {... */\n      mstore(0x40, 0x80)\n      callvalue\n      dup1\n      iszero\n      tag_1\n      jumpi\n      0x00\n      dup1\n      revert\n    tag_1:\n      pop\n      jumpi(tag_2, lt(calldatasize, 0x04))\n      shr(0xe0, calldataload(0x00))\n      dup1\n      0x06ead22e\n      eq\n      tag_3\n      jumpi\n      dup1\n      0x41e0c407\n      eq\n      tag_4\n      jumpi\n      dup1\n      0xb9b112eb\n      eq\n      tag_5\n      jumpi\n      dup1\n      0xdf93d8f0\n      eq\n      tag_6\n      jumpi\n      dup1\n      0xf1d064b3\n      eq\n      tag_7\n      jumpi\n    tag_2:\n      0x00\n      dup1\n      revert\n        /* \"ClassTest II/CTq3.sol\":363:388  Student[] public students */\n    tag_3:\n      tag_8\n      0x04\n      dup1\n      calldatasize\n      sub\n      dup2\n      add\n      swap1\n      tag_9\n      swap2\n      swap1\n      tag_10\n      jump\t// in\n    tag_9:\n      tag_11\n      jump\t// in\n    tag_8:\n      mload(0x40)\n      tag_12\n      swap7\n      swap6\n      swap5\n      swap4\n      swap3\n      swap2\n      swap1\n      tag_13\n      jump\t// in\n    tag_12:\n      mload(0x40)\n      dup1\n      swap2\n      sub\n      swap1\n      return\n        /* \"ClassTest II/CTq3.sol\":1835:1930  function getStudentCount() public view returns (uint) {... */\n    tag_4:\n      tag_14\n      tag_15\n      jump\t// in\n    tag_14:\n      mload(0x40)\n      tag_16\n      swap2\n      swap1\n      tag_17\n      jump\t// in\n    tag_16:\n      mload(0x40)\n      dup1\n      swap2\n      sub\n      swap1\n      return\n        /* \"ClassTest II/CTq3.sol\":437:1019  function addStudent(... */\n    tag_5:\n      tag_18\n      0x04\n      dup1\n      calldatasize\n      sub\n      dup2\n      add\n      swap1\n      tag_19\n      swap2\n      swap1\n      tag_20\n      jump\t// in\n    tag_19:\n      tag_21\n      jump\t// in\n    tag_18:\n      stop\n        /* \"ClassTest II/CTq3.sol\":1110:1624  function sortStudentsByMarks() public {... */\n    tag_6:\n      tag_22\n      tag_23\n      jump\t// in\n    tag_22:\n      stop\n        /* \"ClassTest II/CTq3.sol\":1684:1780  function getStudents() public view returns (Student[] memory) {... */\n    tag_7:\n      tag_24\n      tag_25\n      jump\t// in\n    tag_24:\n      mload(0x40)\n      tag_26\n      swap2\n      swap1\n      tag_27\n      jump\t// in\n    tag_26:\n      mload(0x40)\n      dup1\n      swap2\n      sub\n      swap1\n      return\n        /* \"ClassTest II/CTq3.sol\":363:388  Student[] public students */\n    tag_11:\n      0x00\n      dup2\n      dup2\n      sload\n      dup2\n      lt\n      tag_28\n      jumpi\n      0x00\n      dup1\n      revert\n    tag_28:\n      swap1\n      0x00\n      mstore\n      keccak256(0x00, 0x20)\n      swap1\n      0x06\n      mul\n      add\n      0x00\n      swap2\n      pop\n      swap1\n      pop\n      dup1\n      0x00\n      add\n      sload\n      swap1\n      dup1\n      0x01\n      add\n      dup1\n      sload\n      tag_30\n      swap1\n      tag_31\n      jump\t// in\n    tag_30:\n      dup1\n      0x1f\n      add\n      0x20\n      dup1\n      swap2\n      div\n      mul\n      0x20\n      add\n      mload(0x40)\n      swap1\n      dup2\n      add\n      0x40\n      mstore\n      dup1\n      swap3\n      swap2\n      swap1\n      dup2\n      dup2\n      mstore\n      0x20\n      add\n      dup3\n      dup1\n      sload\n      tag_32\n      swap1\n      tag_31\n      jump\t// in\n    tag_32:\n      dup1\n      iszero\n      tag_33\n      jumpi\n      dup1\n      0x1f\n      lt\n      tag_34\n      jumpi\n      0x0100\n      dup1\n      dup4\n      sload\n      div\n      mul\n      dup4\n      mstore\n      swap2\n      0x20\n      add\n      swap2\n      jump(tag_33)\n    tag_34:\n      dup3\n      add\n      swap2\n      swap1\n      0x00\n      mstore\n      keccak256(0x00, 0x20)\n      swap1\n    tag_35:\n      dup2\n      sload\n      dup2\n      mstore\n      swap1\n      0x01\n      add\n      swap1\n      0x20\n      add\n      dup1\n      dup4\n      gt\n      tag_35\n      jumpi\n      dup3\n      swap1\n      sub\n      0x1f\n      and\n      dup3\n      add\n      swap2\n    tag_33:\n      pop\n      pop\n      pop\n      pop\n      pop\n      swap1\n      dup1\n      0x02\n      add\n      sload\n      swap1\n      dup1\n      0x03\n      add\n      sload\n      swap1\n      dup1\n      0x04\n      add\n      sload\n      swap1\n      dup1\n      0x05\n      add\n      sload\n      swap1\n      pop\n      dup7\n      jump\t// out\n        /* \"ClassTest II/CTq3.sol\":1835:1930  function getStudentCount() public view returns (uint) {... */\n    tag_15:\n        /* \"ClassTest II/CTq3.sol\":1883:1887  uint */\n      0x00\n        /* \"ClassTest II/CTq3.sol\":1907:1915  students */\n      dup1\n        /* \"ClassTest II/CTq3.sol\":1907:1922  students.length */\n      dup1\n      sload\n      swap1\n      pop\n        /* \"ClassTest II/CTq3.sol\":1900:1922  return students.length */\n      swap1\n      pop\n        /* \"ClassTest II/CTq3.sol\":1835:1930  function getStudentCount() public view returns (uint) {... */\n      swap1\n      jump\t// out\n        /* \"ClassTest II/CTq3.sol\":437:1019  function addStudent(... */\n    tag_21:\n        /* \"ClassTest II/CTq3.sol\":645:655  uint total */\n      0x00\n        /* \"ClassTest II/CTq3.sol\":682:694  _mathematics */\n      dup2\n        /* \"ClassTest II/CTq3.sol\":669:679  _chemistry */\n      dup4\n        /* \"ClassTest II/CTq3.sol\":658:666  _physics */\n      dup6\n        /* \"ClassTest II/CTq3.sol\":658:679  _physics + _chemistry */\n      tag_38\n      swap2\n      swap1\n      tag_39\n      jump\t// in\n    tag_38:\n        /* \"ClassTest II/CTq3.sol\":658:694  _physics + _chemistry + _mathematics */\n      tag_40\n      swap2\n      swap1\n      tag_39\n      jump\t// in\n    tag_40:\n        /* \"ClassTest II/CTq3.sol\":645:694  uint total = _physics + _chemistry + _mathematics */\n      swap1\n      pop\n        /* \"ClassTest II/CTq3.sol\":763:771  students */\n      0x00\n        /* \"ClassTest II/CTq3.sol\":777:1010  Student({... */\n      mload(0x40)\n      dup1\n      0xc0\n      add\n      0x40\n      mstore\n      dup1\n        /* \"ClassTest II/CTq3.sol\":806:811  _roll */\n      dup9\n        /* \"ClassTest II/CTq3.sol\":777:1010  Student({... */\n      dup2\n      mstore\n      0x20\n      add\n        /* \"ClassTest II/CTq3.sol\":832:837  _name */\n      dup8\n        /* \"ClassTest II/CTq3.sol\":777:1010  Student({... */\n      dup2\n      mstore\n      0x20\n      add\n        /* \"ClassTest II/CTq3.sol\":868:876  _physics */\n      dup7\n        /* \"ClassTest II/CTq3.sol\":777:1010  Student({... */\n      dup2\n      mstore\n      0x20\n      add\n        /* \"ClassTest II/CTq3.sol\":909:919  _chemistry */\n      dup6\n        /* \"ClassTest II/CTq3.sol\":777:1010  Student({... */\n      dup2\n      mstore\n      0x20\n      add\n        /* \"ClassTest II/CTq3.sol\":954:966  _mathematics */\n      dup5\n        /* \"ClassTest II/CTq3.sol\":777:1010  Student({... */\n      dup2\n      mstore\n      0x20\n      add\n        /* \"ClassTest II/CTq3.sol\":993:998  total */\n      dup4\n        /* \"ClassTest II/CTq3.sol\":777:1010  Student({... */\n      dup2\n      mstore\n      pop\n        /* \"ClassTest II/CTq3.sol\":763:1011  students.push(Student({... */\n      swap1\n      dup1\n      0x01\n      dup2\n      sload\n      add\n      dup1\n      dup3\n      sstore\n      dup1\n      swap2\n      pop\n      pop\n      0x01\n      swap1\n      sub\n      swap1\n      0x00\n      mstore\n      keccak256(0x00, 0x20)\n      swap1\n      0x06\n      mul\n      add\n      0x00\n      swap1\n      swap2\n      swap1\n      swap2\n      swap1\n      swap2\n      pop\n      0x00\n      dup3\n      add\n      mload\n      dup2\n      0x00\n      add\n      sstore\n      0x20\n      dup3\n      add\n      mload\n      dup2\n      0x01\n      add\n      swap1\n      dup2\n      tag_42\n      swap2\n      swap1\n      tag_43\n      jump\t// in\n    tag_42:\n      pop\n      0x40\n      dup3\n      add\n      mload\n      dup2\n      0x02\n      add\n      sstore\n      0x60\n      dup3\n      add\n      mload\n      dup2\n      0x03\n      add\n      sstore\n      0x80\n      dup3\n      add\n      mload\n      dup2\n      0x04\n      add\n      sstore\n      0xa0\n      dup3\n      add\n      mload\n      dup2\n      0x05\n      add\n      sstore\n      pop\n      pop\n        /* \"ClassTest II/CTq3.sol\":600:1019  {... */\n      pop\n        /* \"ClassTest II/CTq3.sol\":437:1019  function addStudent(... */\n      pop\n      pop\n      pop\n      pop\n      pop\n      jump\t// out\n        /* \"ClassTest II/CTq3.sol\":1110:1624  function sortStudentsByMarks() public {... */\n    tag_23:\n        /* \"ClassTest II/CTq3.sol\":1159:1170  uint length */\n      0x00\n        /* \"ClassTest II/CTq3.sol\":1173:1181  students */\n      dup1\n        /* \"ClassTest II/CTq3.sol\":1173:1188  students.length */\n      dup1\n      sload\n      swap1\n      pop\n        /* \"ClassTest II/CTq3.sol\":1159:1188  uint length = students.length */\n      swap1\n      pop\n        /* \"ClassTest II/CTq3.sol\":1214:1220  uint i */\n      0x00\n        /* \"ClassTest II/CTq3.sol\":1209:1617  for (uint i = 0; i < length - 1; i++) {... */\n    tag_45:\n        /* \"ClassTest II/CTq3.sol\":1239:1240  1 */\n      0x01\n        /* \"ClassTest II/CTq3.sol\":1230:1236  length */\n      dup3\n        /* \"ClassTest II/CTq3.sol\":1230:1240  length - 1 */\n      tag_48\n      swap2\n      swap1\n      tag_49\n      jump\t// in\n    tag_48:\n        /* \"ClassTest II/CTq3.sol\":1226:1227  i */\n      dup2\n        /* \"ClassTest II/CTq3.sol\":1226:1240  i < length - 1 */\n      lt\n        /* \"ClassTest II/CTq3.sol\":1209:1617  for (uint i = 0; i < length - 1; i++) {... */\n      iszero\n      tag_46\n      jumpi\n        /* \"ClassTest II/CTq3.sol\":1267:1273  uint j */\n      0x00\n        /* \"ClassTest II/CTq3.sol\":1262:1606  for (uint j = 0; j < length - i - 1; j++) {... */\n    tag_50:\n        /* \"ClassTest II/CTq3.sol\":1296:1297  1 */\n      0x01\n        /* \"ClassTest II/CTq3.sol\":1292:1293  i */\n      dup3\n        /* \"ClassTest II/CTq3.sol\":1283:1289  length */\n      dup5\n        /* \"ClassTest II/CTq3.sol\":1283:1293  length - i */\n      tag_53\n      swap2\n      swap1\n      tag_49\n      jump\t// in\n    tag_53:\n        /* \"ClassTest II/CTq3.sol\":1283:1297  length - i - 1 */\n      tag_54\n      swap2\n      swap1\n      tag_49\n      jump\t// in\n    tag_54:\n        /* \"ClassTest II/CTq3.sol\":1279:1280  j */\n      dup2\n        /* \"ClassTest II/CTq3.sol\":1279:1297  j < length - i - 1 */\n      lt\n        /* \"ClassTest II/CTq3.sol\":1262:1606  for (uint j = 0; j < length - i - 1; j++) {... */\n      iszero\n      tag_51\n      jumpi\n        /* \"ClassTest II/CTq3.sol\":1352:1360  students */\n      0x00\n        /* \"ClassTest II/CTq3.sol\":1365:1366  1 */\n      0x01\n        /* \"ClassTest II/CTq3.sol\":1361:1362  j */\n      dup3\n        /* \"ClassTest II/CTq3.sol\":1361:1366  j + 1 */\n      tag_55\n      swap2\n      swap1\n      tag_39\n      jump\t// in\n    tag_55:\n        /* \"ClassTest II/CTq3.sol\":1352:1367  students[j + 1] */\n      dup2\n      sload\n      dup2\n      lt\n      tag_56\n      jumpi\n      tag_57\n      tag_58\n      jump\t// in\n    tag_57:\n    tag_56:\n      swap1\n      0x00\n      mstore\n      keccak256(0x00, 0x20)\n      swap1\n      0x06\n      mul\n      add\n        /* \"ClassTest II/CTq3.sol\":1352:1378  students[j + 1].totalMarks */\n      0x05\n      add\n      sload\n        /* \"ClassTest II/CTq3.sol\":1327:1335  students */\n      0x00\n        /* \"ClassTest II/CTq3.sol\":1336:1337  j */\n      dup3\n        /* \"ClassTest II/CTq3.sol\":1327:1338  students[j] */\n      dup2\n      sload\n      dup2\n      lt\n      tag_60\n      jumpi\n      tag_61\n      tag_58\n      jump\t// in\n    tag_61:\n    tag_60:\n      swap1\n      0x00\n      mstore\n      keccak256(0x00, 0x20)\n      swap1\n      0x06\n      mul\n      add\n        /* \"ClassTest II/CTq3.sol\":1327:1349  students[j].totalMarks */\n      0x05\n      add\n      sload\n        /* \"ClassTest II/CTq3.sol\":1327:1378  students[j].totalMarks < students[j + 1].totalMarks */\n      lt\n        /* \"ClassTest II/CTq3.sol\":1323:1591  if (students[j].totalMarks < students[j + 1].totalMarks) {... */\n      iszero\n      tag_63\n      jumpi\n        /* \"ClassTest II/CTq3.sol\":1441:1460  Student memory temp */\n      0x00\n        /* \"ClassTest II/CTq3.sol\":1463:1471  students */\n      dup1\n        /* \"ClassTest II/CTq3.sol\":1472:1473  j */\n      dup3\n        /* \"ClassTest II/CTq3.sol\":1463:1474  students[j] */\n      dup2\n      sload\n      dup2\n      lt\n      tag_64\n      jumpi\n      tag_65\n      tag_58\n      jump\t// in\n    tag_65:\n    tag_64:\n      swap1\n      0x00\n      mstore\n      keccak256(0x00, 0x20)\n      swap1\n      0x06\n      mul\n      add\n        /* \"ClassTest II/CTq3.sol\":1441:1474  Student memory temp = students[j] */\n      mload(0x40)\n      dup1\n      0xc0\n      add\n      0x40\n      mstore\n      swap1\n      dup2\n      0x00\n      dup3\n      add\n      sload\n      dup2\n      mstore\n      0x20\n      add\n      0x01\n      dup3\n      add\n      dup1\n      sload\n      tag_67\n      swap1\n      tag_31\n      jump\t// in\n    tag_67:\n      dup1\n      0x1f\n      add\n      0x20\n      dup1\n      swap2\n      div\n      mul\n      0x20\n      add\n      mload(0x40)\n      swap1\n      dup2\n      add\n      0x40\n      mstore\n      dup1\n      swap3\n      swap2\n      swap1\n      dup2\n      dup2\n      mstore\n      0x20\n      add\n      dup3\n      dup1\n      sload\n      tag_68\n      swap1\n      tag_31\n      jump\t// in\n    tag_68:\n      dup1\n      iszero\n      tag_69\n      jumpi\n      dup1\n      0x1f\n      lt\n      tag_70\n      jumpi\n      0x0100\n      dup1\n      dup4\n      sload\n      div\n      mul\n      dup4\n      mstore\n      swap2\n      0x20\n      add\n      swap2\n      jump(tag_69)\n    tag_70:\n      dup3\n      add\n      swap2\n      swap1\n      0x00\n      mstore\n      keccak256(0x00, 0x20)\n      swap1\n    tag_71:\n      dup2\n      sload\n      dup2\n      mstore\n      swap1\n      0x01\n      add\n      swap1\n      0x20\n      add\n      dup1\n      dup4\n      gt\n      tag_71\n      jumpi\n      dup3\n      swap1\n      sub\n      0x1f\n      and\n      dup3\n      add\n      swap2\n    tag_69:\n      pop\n      pop\n      pop\n      pop\n      pop\n      dup2\n      mstore\n      0x20\n      add\n      0x02\n      dup3\n      add\n      sload\n      dup2\n      mstore\n      0x20\n      add\n      0x03\n      dup3\n      add\n      sload\n      dup2\n      mstore\n      0x20\n      add\n      0x04\n      dup3\n      add\n      sload\n      dup2\n      mstore\n      0x20\n      add\n      0x05\n      dup3\n      add\n      sload\n      dup2\n      mstore\n      pop\n      pop\n      swap1\n      pop\n        /* \"ClassTest II/CTq3.sol\":1511:1519  students */\n      0x00\n        /* \"ClassTest II/CTq3.sol\":1524:1525  1 */\n      0x01\n        /* \"ClassTest II/CTq3.sol\":1520:1521  j */\n      dup4\n        /* \"ClassTest II/CTq3.sol\":1520:1525  j + 1 */\n      tag_72\n      swap2\n      swap1\n      tag_39\n      jump\t// in\n    tag_72:\n        /* \"ClassTest II/CTq3.sol\":1511:1526  students[j + 1] */\n      dup2\n      sload\n      dup2\n      lt\n      tag_73\n      jumpi\n      tag_74\n      tag_58\n      jump\t// in\n    tag_74:\n    tag_73:\n      swap1\n      0x00\n      mstore\n      keccak256(0x00, 0x20)\n      swap1\n      0x06\n      mul\n      add\n        /* \"ClassTest II/CTq3.sol\":1497:1505  students */\n      0x00\n        /* \"ClassTest II/CTq3.sol\":1506:1507  j */\n      dup4\n        /* \"ClassTest II/CTq3.sol\":1497:1508  students[j] */\n      dup2\n      sload\n      dup2\n      lt\n      tag_76\n      jumpi\n      tag_77\n      tag_58\n      jump\t// in\n    tag_77:\n    tag_76:\n      swap1\n      0x00\n      mstore\n      keccak256(0x00, 0x20)\n      swap1\n      0x06\n      mul\n      add\n        /* \"ClassTest II/CTq3.sol\":1497:1526  students[j] = students[j + 1] */\n      0x00\n      dup3\n      add\n      sload\n      dup2\n      0x00\n      add\n      sstore\n      0x01\n      dup3\n      add\n      dup2\n      0x01\n      add\n      swap1\n      dup2\n      tag_79\n      swap2\n      swap1\n      tag_80\n      jump\t// in\n    tag_79:\n      pop\n      0x02\n      dup3\n      add\n      sload\n      dup2\n      0x02\n      add\n      sstore\n      0x03\n      dup3\n      add\n      sload\n      dup2\n      0x03\n      add\n      sstore\n      0x04\n      dup3\n      add\n      sload\n      dup2\n      0x04\n      add\n      sstore\n      0x05\n      dup3\n      add\n      sload\n      dup2\n      0x05\n      add\n      sstore\n      swap1\n      pop\n      pop\n        /* \"ClassTest II/CTq3.sol\":1567:1571  temp */\n      dup1\n        /* \"ClassTest II/CTq3.sol\":1549:1557  students */\n      0x00\n        /* \"ClassTest II/CTq3.sol\":1562:1563  1 */\n      0x01\n        /* \"ClassTest II/CTq3.sol\":1558:1559  j */\n      dup5\n        /* \"ClassTest II/CTq3.sol\":1558:1563  j + 1 */\n      tag_81\n      swap2\n      swap1\n      tag_39\n      jump\t// in\n    tag_81:\n        /* \"ClassTest II/CTq3.sol\":1549:1564  students[j + 1] */\n      dup2\n      sload\n      dup2\n      lt\n      tag_82\n      jumpi\n      tag_83\n      tag_58\n      jump\t// in\n    tag_83:\n    tag_82:\n      swap1\n      0x00\n      mstore\n      keccak256(0x00, 0x20)\n      swap1\n      0x06\n      mul\n      add\n        /* \"ClassTest II/CTq3.sol\":1549:1571  students[j + 1] = temp */\n      0x00\n      dup3\n      add\n      mload\n      dup2\n      0x00\n      add\n      sstore\n      0x20\n      dup3\n      add\n      mload\n      dup2\n      0x01\n      add\n      swap1\n      dup2\n      tag_85\n      swap2\n      swap1\n      tag_43\n      jump\t// in\n    tag_85:\n      pop\n      0x40\n      dup3\n      add\n      mload\n      dup2\n      0x02\n      add\n      sstore\n      0x60\n      dup3\n      add\n      mload\n      dup2\n      0x03\n      add\n      sstore\n      0x80\n      dup3\n      add\n      mload\n      dup2\n      0x04\n      add\n      sstore\n      0xa0\n      dup3\n      add\n      mload\n      dup2\n      0x05\n      add\n      sstore\n      swap1\n      pop\n      pop\n        /* \"ClassTest II/CTq3.sol\":1380:1591  {... */\n      pop\n        /* \"ClassTest II/CTq3.sol\":1323:1591  if (students[j].totalMarks < students[j + 1].totalMarks) {... */\n    tag_63:\n        /* \"ClassTest II/CTq3.sol\":1299:1302  j++ */\n      dup1\n      dup1\n      0x01\n      add\n      swap2\n      pop\n      pop\n        /* \"ClassTest II/CTq3.sol\":1262:1606  for (uint j = 0; j < length - i - 1; j++) {... */\n      jump(tag_50)\n    tag_51:\n      pop\n        /* \"ClassTest II/CTq3.sol\":1242:1245  i++ */\n      dup1\n      dup1\n      0x01\n      add\n      swap2\n      pop\n      pop\n        /* \"ClassTest II/CTq3.sol\":1209:1617  for (uint i = 0; i < length - 1; i++) {... */\n      jump(tag_45)\n    tag_46:\n      pop\n        /* \"ClassTest II/CTq3.sol\":1148:1624  {... */\n      pop\n        /* \"ClassTest II/CTq3.sol\":1110:1624  function sortStudentsByMarks() public {... */\n      jump\t// out\n        /* \"ClassTest II/CTq3.sol\":1684:1780  function getStudents() public view returns (Student[] memory) {... */\n    tag_25:\n        /* \"ClassTest II/CTq3.sol\":1728:1744  Student[] memory */\n      0x60\n        /* \"ClassTest II/CTq3.sol\":1764:1772  students */\n      0x00\n        /* \"ClassTest II/CTq3.sol\":1757:1772  return students */\n      dup1\n      sload\n      dup1\n      0x20\n      mul\n      0x20\n      add\n      mload(0x40)\n      swap1\n      dup2\n      add\n      0x40\n      mstore\n      dup1\n      swap3\n      swap2\n      swap1\n      dup2\n      dup2\n      mstore\n      0x20\n      add\n      0x00\n      swap1\n    tag_87:\n      dup3\n      dup3\n      lt\n      iszero\n      tag_88\n      jumpi\n      dup4\n      dup3\n      swap1\n      0x00\n      mstore\n      keccak256(0x00, 0x20)\n      swap1\n      0x06\n      mul\n      add\n      mload(0x40)\n      dup1\n      0xc0\n      add\n      0x40\n      mstore\n      swap1\n      dup2\n      0x00\n      dup3\n      add\n      sload\n      dup2\n      mstore\n      0x20\n      add\n      0x01\n      dup3\n      add\n      dup1\n      sload\n      tag_90\n      swap1\n      tag_31\n      jump\t// in\n    tag_90:\n      dup1\n      0x1f\n      add\n      0x20\n      dup1\n      swap2\n      div\n      mul\n      0x20\n      add\n      mload(0x40)\n      swap1\n      dup2\n      add\n      0x40\n      mstore\n      dup1\n      swap3\n      swap2\n      swap1\n      dup2\n      dup2\n      mstore\n      0x20\n      add\n      dup3\n      dup1\n      sload\n      tag_91\n      swap1\n      tag_31\n      jump\t// in\n    tag_91:\n      dup1\n      iszero\n      tag_92\n      jumpi\n      dup1\n      0x1f\n      lt\n      tag_93\n      jumpi\n      0x0100\n      dup1\n      dup4\n      sload\n      div\n      mul\n      dup4\n      mstore\n      swap2\n      0x20\n      add\n      swap2\n      jump(tag_92)\n    tag_93:\n      dup3\n      add\n      swap2\n      swap1\n      0x00\n      mstore\n      keccak256(0x00, 0x20)\n      swap1\n    tag_94:\n      dup2\n      sload\n      dup2\n      mstore\n      swap1\n      0x01\n      add\n      swap1\n      0x20\n      add\n      dup1\n      dup4\n      gt\n      tag_94\n      jumpi\n      dup3\n      swap1\n      sub\n      0x1f\n      and\n      dup3\n      add\n      swap2\n    tag_92:\n      pop\n      pop\n      pop\n      pop\n      pop\n      dup2\n      mstore\n      0x20\n      add\n      0x02\n      dup3\n      add\n      sload\n      dup2\n      mstore\n      0x20\n      add\n      0x03\n      dup3\n      add\n      sload\n      dup2\n      mstore\n      0x20\n      add\n      0x04\n      dup3\n      add\n      sload\n      dup2\n      mstore\n      0x20\n      add\n      0x05\n      dup3\n      add\n      sload\n      dup2\n      mstore\n      pop\n      pop\n      dup2\n      mstore\n      0x20\n      add\n      swap1\n      0x01\n      add\n      swap1\n      jump(tag_87)\n    tag_88:\n      pop\n      pop\n      pop\n      pop\n      swap1\n      pop\n        /* \"ClassTest II/CTq3.sol\":1684:1780  function getStudents() public view returns (Student[] memory) {... */\n      swap1\n      jump\t// out\n        /* \"#utility.yul\":7:82   */\n    tag_95:\n        /* \"#utility.yul\":40:46   */\n      0x00\n        /* \"#utility.yul\":73:75   */\n      0x40\n        /* \"#utility.yul\":67:76   */\n      mload\n        /* \"#utility.yul\":57:76   */\n      swap1\n      pop\n        /* \"#utility.yul\":7:82   */\n      swap1\n      jump\t// out\n        /* \"#utility.yul\":88:205   */\n    tag_96:\n        /* \"#utility.yul\":197:198   */\n      0x00\n        /* \"#utility.yul\":194:195   */\n      dup1\n        /* \"#utility.yul\":187:199   */\n      revert\n        /* \"#utility.yul\":211:328   */\n    tag_97:\n        /* \"#utility.yul\":320:321   */\n      0x00\n        /* \"#utility.yul\":317:318   */\n      dup1\n        /* \"#utility.yul\":310:322   */\n      revert\n        /* \"#utility.yul\":334:411   */\n    tag_98:\n        /* \"#utility.yul\":371:378   */\n      0x00\n        /* \"#utility.yul\":400:405   */\n      dup2\n        /* \"#utility.yul\":389:405   */\n      swap1\n      pop\n        /* \"#utility.yul\":334:411   */\n      swap2\n      swap1\n      pop\n      jump\t// out\n        /* \"#utility.yul\":417:539   */\n    tag_99:\n        /* \"#utility.yul\":490:514   */\n      tag_150\n        /* \"#utility.yul\":508:513   */\n      dup2\n        /* \"#utility.yul\":490:514   */\n      tag_98\n      jump\t// in\n    tag_150:\n        /* \"#utility.yul\":483:488   */\n      dup2\n        /* \"#utility.yul\":480:515   */\n      eq\n        /* \"#utility.yul\":470:533   */\n      tag_151\n      jumpi\n        /* \"#utility.yul\":529:530   */\n      0x00\n        /* \"#utility.yul\":526:527   */\n      dup1\n        /* \"#utility.yul\":519:531   */\n      revert\n        /* \"#utility.yul\":470:533   */\n    tag_151:\n        /* \"#utility.yul\":417:539   */\n      pop\n      jump\t// out\n        /* \"#utility.yul\":545:684   */\n    tag_100:\n        /* \"#utility.yul\":591:596   */\n      0x00\n        /* \"#utility.yul\":629:635   */\n      dup2\n        /* \"#utility.yul\":616:636   */\n      calldataload\n        /* \"#utility.yul\":607:636   */\n      swap1\n      pop\n        /* \"#utility.yul\":645:678   */\n      tag_153\n        /* \"#utility.yul\":672:677   */\n      dup2\n        /* \"#utility.yul\":645:678   */\n      tag_99\n      jump\t// in\n    tag_153:\n        /* \"#utility.yul\":545:684   */\n      swap3\n      swap2\n      pop\n      pop\n      jump\t// out\n        /* \"#utility.yul\":690:1019   */\n    tag_10:\n        /* \"#utility.yul\":749:755   */\n      0x00\n        /* \"#utility.yul\":798:800   */\n      0x20\n        /* \"#utility.yul\":786:795   */\n      dup3\n        /* \"#utility.yul\":777:784   */\n      dup5\n        /* \"#utility.yul\":773:796   */\n      sub\n        /* \"#utility.yul\":769:801   */\n      slt\n        /* \"#utility.yul\":766:885   */\n      iszero\n      tag_155\n      jumpi\n        /* \"#utility.yul\":804:883   */\n      tag_156\n      tag_96\n      jump\t// in\n    tag_156:\n        /* \"#utility.yul\":766:885   */\n    tag_155:\n        /* \"#utility.yul\":924:925   */\n      0x00\n        /* \"#utility.yul\":949:1002   */\n      tag_157\n        /* \"#utility.yul\":994:1001   */\n      dup5\n        /* \"#utility.yul\":985:991   */\n      dup3\n        /* \"#utility.yul\":974:983   */\n      dup6\n        /* \"#utility.yul\":970:992   */\n      add\n        /* \"#utility.yul\":949:1002   */\n      tag_100\n      jump\t// in\n    tag_157:\n        /* \"#utility.yul\":939:1002   */\n      swap2\n      pop\n        /* \"#utility.yul\":895:1012   */\n      pop\n        /* \"#utility.yul\":690:1019   */\n      swap3\n      swap2\n      pop\n      pop\n      jump\t// out\n        /* \"#utility.yul\":1025:1143   */\n    tag_101:\n        /* \"#utility.yul\":1112:1136   */\n      tag_159\n        /* \"#utility.yul\":1130:1135   */\n      dup2\n        /* \"#utility.yul\":1112:1136   */\n      tag_98\n      jump\t// in\n    tag_159:\n        /* \"#utility.yul\":1107:1110   */\n      dup3\n        /* \"#utility.yul\":1100:1137   */\n      mstore\n        /* \"#utility.yul\":1025:1143   */\n      pop\n      pop\n      jump\t// out\n        /* \"#utility.yul\":1149:1248   */\n    tag_102:\n        /* \"#utility.yul\":1201:1207   */\n      0x00\n        /* \"#utility.yul\":1235:1240   */\n      dup2\n        /* \"#utility.yul\":1229:1241   */\n      mload\n        /* \"#utility.yul\":1219:1241   */\n      swap1\n      pop\n        /* \"#utility.yul\":1149:1248   */\n      swap2\n      swap1\n      pop\n      jump\t// out\n        /* \"#utility.yul\":1254:1423   */\n    tag_103:\n        /* \"#utility.yul\":1338:1349   */\n      0x00\n        /* \"#utility.yul\":1372:1378   */\n      dup3\n        /* \"#utility.yul\":1367:1370   */\n      dup3\n        /* \"#utility.yul\":1360:1379   */\n      mstore\n        /* \"#utility.yul\":1412:1416   */\n      0x20\n        /* \"#utility.yul\":1407:1410   */\n      dup3\n        /* \"#utility.yul\":1403:1417   */\n      add\n        /* \"#utility.yul\":1388:1417   */\n      swap1\n      pop\n        /* \"#utility.yul\":1254:1423   */\n      swap3\n      swap2\n      pop\n      pop\n      jump\t// out\n        /* \"#utility.yul\":1429:1568   */\n    tag_104:\n        /* \"#utility.yul\":1518:1524   */\n      dup3\n        /* \"#utility.yul\":1513:1516   */\n      dup2\n        /* \"#utility.yul\":1508:1511   */\n      dup4\n        /* \"#utility.yul\":1502:1525   */\n      mcopy\n        /* \"#utility.yul\":1559:1560   */\n      0x00\n        /* \"#utility.yul\":1550:1556   */\n      dup4\n        /* \"#utility.yul\":1545:1548   */\n      dup4\n        /* \"#utility.yul\":1541:1557   */\n      add\n        /* \"#utility.yul\":1534:1561   */\n      mstore\n        /* \"#utility.yul\":1429:1568   */\n      pop\n      pop\n      pop\n      jump\t// out\n        /* \"#utility.yul\":1574:1676   */\n    tag_105:\n        /* \"#utility.yul\":1615:1621   */\n      0x00\n        /* \"#utility.yul\":1666:1668   */\n      0x1f\n        /* \"#utility.yul\":1662:1669   */\n      not\n        /* \"#utility.yul\":1657:1659   */\n      0x1f\n        /* \"#utility.yul\":1650:1655   */\n      dup4\n        /* \"#utility.yul\":1646:1660   */\n      add\n        /* \"#utility.yul\":1642:1670   */\n      and\n        /* \"#utility.yul\":1632:1670   */\n      swap1\n      pop\n        /* \"#utility.yul\":1574:1676   */\n      swap2\n      swap1\n      pop\n      jump\t// out\n        /* \"#utility.yul\":1682:2059   */\n    tag_106:\n        /* \"#utility.yul\":1770:1773   */\n      0x00\n        /* \"#utility.yul\":1798:1837   */\n      tag_165\n        /* \"#utility.yul\":1831:1836   */\n      dup3\n        /* \"#utility.yul\":1798:1837   */\n      tag_102\n      jump\t// in\n    tag_165:\n        /* \"#utility.yul\":1853:1924   */\n      tag_166\n        /* \"#utility.yul\":1917:1923   */\n      dup2\n        /* \"#utility.yul\":1912:1915   */\n      dup6\n        /* \"#utility.yul\":1853:1924   */\n      tag_103\n      jump\t// in\n    tag_166:\n        /* \"#utility.yul\":1846:1924   */\n      swap4\n      pop\n        /* \"#utility.yul\":1933:1998   */\n      tag_167\n        /* \"#utility.yul\":1991:1997   */\n      dup2\n        /* \"#utility.yul\":1986:1989   */\n      dup6\n        /* \"#utility.yul\":1979:1983   */\n      0x20\n        /* \"#utility.yul\":1972:1977   */\n      dup7\n        /* \"#utility.yul\":1968:1984   */\n      add\n        /* \"#utility.yul\":1933:1998   */\n      tag_104\n      jump\t// in\n    tag_167:\n        /* \"#utility.yul\":2023:2052   */\n      tag_168\n        /* \"#utility.yul\":2045:2051   */\n      dup2\n        /* \"#utility.yul\":2023:2052   */\n      tag_105\n      jump\t// in\n    tag_168:\n        /* \"#utility.yul\":2018:2021   */\n      dup5\n        /* \"#utility.yul\":2014:2053   */\n      add\n        /* \"#utility.yul\":2007:2053   */\n      swap2\n      pop\n        /* \"#utility.yul\":1774:2059   */\n      pop\n        /* \"#utility.yul\":1682:2059   */\n      swap3\n      swap2\n      pop\n      pop\n      jump\t// out\n        /* \"#utility.yul\":2065:2931   */\n    tag_13:\n        /* \"#utility.yul\":2318:2322   */\n      0x00\n        /* \"#utility.yul\":2356:2359   */\n      0xc0\n        /* \"#utility.yul\":2345:2354   */\n      dup3\n        /* \"#utility.yul\":2341:2360   */\n      add\n        /* \"#utility.yul\":2333:2360   */\n      swap1\n      pop\n        /* \"#utility.yul\":2370:2441   */\n      tag_170\n        /* \"#utility.yul\":2438:2439   */\n      0x00\n        /* \"#utility.yul\":2427:2436   */\n      dup4\n        /* \"#utility.yul\":2423:2440   */\n      add\n        /* \"#utility.yul\":2414:2420   */\n      dup10\n        /* \"#utility.yul\":2370:2441   */\n      tag_101\n      jump\t// in\n    tag_170:\n        /* \"#utility.yul\":2488:2497   */\n      dup2\n        /* \"#utility.yul\":2482:2486   */\n      dup2\n        /* \"#utility.yul\":2478:2498   */\n      sub\n        /* \"#utility.yul\":2473:2475   */\n      0x20\n        /* \"#utility.yul\":2462:2471   */\n      dup4\n        /* \"#utility.yul\":2458:2476   */\n      add\n        /* \"#utility.yul\":2451:2499   */\n      mstore\n        /* \"#utility.yul\":2516:2594   */\n      tag_171\n        /* \"#utility.yul\":2589:2593   */\n      dup2\n        /* \"#utility.yul\":2580:2586   */\n      dup9\n        /* \"#utility.yul\":2516:2594   */\n      tag_106\n      jump\t// in\n    tag_171:\n        /* \"#utility.yul\":2508:2594   */\n      swap1\n      pop\n        /* \"#utility.yul\":2604:2676   */\n      tag_172\n        /* \"#utility.yul\":2672:2674   */\n      0x40\n        /* \"#utility.yul\":2661:2670   */\n      dup4\n        /* \"#utility.yul\":2657:2675   */\n      add\n        /* \"#utility.yul\":2648:2654   */\n      dup8\n        /* \"#utility.yul\":2604:2676   */\n      tag_101\n      jump\t// in\n    tag_172:\n        /* \"#utility.yul\":2686:2758   */\n      tag_173\n        /* \"#utility.yul\":2754:2756   */\n      0x60\n        /* \"#utility.yul\":2743:2752   */\n      dup4\n        /* \"#utility.yul\":2739:2757   */\n      add\n        /* \"#utility.yul\":2730:2736   */\n      dup7\n        /* \"#utility.yul\":2686:2758   */\n      tag_101\n      jump\t// in\n    tag_173:\n        /* \"#utility.yul\":2768:2841   */\n      tag_174\n        /* \"#utility.yul\":2836:2839   */\n      0x80\n        /* \"#utility.yul\":2825:2834   */\n      dup4\n        /* \"#utility.yul\":2821:2840   */\n      add\n        /* \"#utility.yul\":2812:2818   */\n      dup6\n        /* \"#utility.yul\":2768:2841   */\n      tag_101\n      jump\t// in\n    tag_174:\n        /* \"#utility.yul\":2851:2924   */\n      tag_175\n        /* \"#utility.yul\":2919:2922   */\n      0xa0\n        /* \"#utility.yul\":2908:2917   */\n      dup4\n        /* \"#utility.yul\":2904:2923   */\n      add\n        /* \"#utility.yul\":2895:2901   */\n      dup5\n        /* \"#utility.yul\":2851:2924   */\n      tag_101\n      jump\t// in\n    tag_175:\n        /* \"#utility.yul\":2065:2931   */\n      swap8\n      swap7\n      pop\n      pop\n      pop\n      pop\n      pop\n      pop\n      pop\n      jump\t// out\n        /* \"#utility.yul\":2937:3159   */\n    tag_17:\n        /* \"#utility.yul\":3030:3034   */\n      0x00\n        /* \"#utility.yul\":3068:3070   */\n      0x20\n        /* \"#utility.yul\":3057:3066   */\n      dup3\n        /* \"#utility.yul\":3053:3071   */\n      add\n        /* \"#utility.yul\":3045:3071   */\n      swap1\n      pop\n        /* \"#utility.yul\":3081:3152   */\n      tag_177\n        /* \"#utility.yul\":3149:3150   */\n      0x00\n        /* \"#utility.yul\":3138:3147   */\n      dup4\n        /* \"#utility.yul\":3134:3151   */\n      add\n        /* \"#utility.yul\":3125:3131   */\n      dup5\n        /* \"#utility.yul\":3081:3152   */\n      tag_101\n      jump\t// in\n    tag_177:\n        /* \"#utility.yul\":2937:3159   */\n      swap3\n      swap2\n      pop\n      pop\n      jump\t// out\n        /* \"#utility.yul\":3165:3282   */\n    tag_107:\n        /* \"#utility.yul\":3274:3275   */\n      0x00\n        /* \"#utility.yul\":3271:3272   */\n      dup1\n        /* \"#utility.yul\":3264:3276   */\n      revert\n        /* \"#utility.yul\":3288:3405   */\n    tag_108:\n        /* \"#utility.yul\":3397:3398   */\n      0x00\n        /* \"#utility.yul\":3394:3395   */\n      dup1\n        /* \"#utility.yul\":3387:3399   */\n      revert\n        /* \"#utility.yul\":3411:3591   */\n    tag_109:\n        /* \"#utility.yul\":3459:3536   */\n      0x4e487b7100000000000000000000000000000000000000000000000000000000\n        /* \"#utility.yul\":3456:3457   */\n      0x00\n        /* \"#utility.yul\":3449:3537   */\n      mstore\n        /* \"#utility.yul\":3556:3560   */\n      0x41\n        /* \"#utility.yul\":3553:3554   */\n      0x04\n        /* \"#utility.yul\":3546:3561   */\n      mstore\n        /* \"#utility.yul\":3580:3584   */\n      0x24\n        /* \"#utility.yul\":3577:3578   */\n      0x00\n        /* \"#utility.yul\":3570:3585   */\n      revert\n        /* \"#utility.yul\":3597:3878   */\n    tag_110:\n        /* \"#utility.yul\":3680:3707   */\n      tag_182\n        /* \"#utility.yul\":3702:3706   */\n      dup3\n        /* \"#utility.yul\":3680:3707   */\n      tag_105\n      jump\t// in\n    tag_182:\n        /* \"#utility.yul\":3672:3678   */\n      dup2\n        /* \"#utility.yul\":3668:3708   */\n      add\n        /* \"#utility.yul\":3810:3816   */\n      dup2\n        /* \"#utility.yul\":3798:3808   */\n      dup2\n        /* \"#utility.yul\":3795:3817   */\n      lt\n        /* \"#utility.yul\":3774:3792   */\n      0xffffffffffffffff\n        /* \"#utility.yul\":3762:3772   */\n      dup3\n        /* \"#utility.yul\":3759:3793   */\n      gt\n        /* \"#utility.yul\":3756:3818   */\n      or\n        /* \"#utility.yul\":3753:3841   */\n      iszero\n      tag_183\n      jumpi\n        /* \"#utility.yul\":3821:3839   */\n      tag_184\n      tag_109\n      jump\t// in\n    tag_184:\n        /* \"#utility.yul\":3753:3841   */\n    tag_183:\n        /* \"#utility.yul\":3861:3871   */\n      dup1\n        /* \"#utility.yul\":3857:3859   */\n      0x40\n        /* \"#utility.yul\":3850:3872   */\n      mstore\n        /* \"#utility.yul\":3640:3878   */\n      pop\n        /* \"#utility.yul\":3597:3878   */\n      pop\n      pop\n      jump\t// out\n        /* \"#utility.yul\":3884:4013   */\n    tag_111:\n        /* \"#utility.yul\":3918:3924   */\n      0x00\n        /* \"#utility.yul\":3945:3965   */\n      tag_186\n      tag_95\n      jump\t// in\n    tag_186:\n        /* \"#utility.yul\":3935:3965   */\n      swap1\n      pop\n        /* \"#utility.yul\":3974:4007   */\n      tag_187\n        /* \"#utility.yul\":4002:4006   */\n      dup3\n        /* \"#utility.yul\":3994:4000   */\n      dup3\n        /* \"#utility.yul\":3974:4007   */\n      tag_110\n      jump\t// in\n    tag_187:\n        /* \"#utility.yul\":3884:4013   */\n      swap2\n      swap1\n      pop\n      jump\t// out\n        /* \"#utility.yul\":4019:4327   */\n    tag_112:\n        /* \"#utility.yul\":4081:4085   */\n      0x00\n        /* \"#utility.yul\":4171:4189   */\n      0xffffffffffffffff\n        /* \"#utility.yul\":4163:4169   */\n      dup3\n        /* \"#utility.yul\":4160:4190   */\n      gt\n        /* \"#utility.yul\":4157:4213   */\n      iszero\n      tag_189\n      jumpi\n        /* \"#utility.yul\":4193:4211   */\n      tag_190\n      tag_109\n      jump\t// in\n    tag_190:\n        /* \"#utility.yul\":4157:4213   */\n    tag_189:\n        /* \"#utility.yul\":4231:4260   */\n      tag_191\n        /* \"#utility.yul\":4253:4259   */\n      dup3\n        /* \"#utility.yul\":4231:4260   */\n      tag_105\n      jump\t// in\n    tag_191:\n        /* \"#utility.yul\":4223:4260   */\n      swap1\n      pop\n        /* \"#utility.yul\":4315:4319   */\n      0x20\n        /* \"#utility.yul\":4309:4313   */\n      dup2\n        /* \"#utility.yul\":4305:4320   */\n      add\n        /* \"#utility.yul\":4297:4320   */\n      swap1\n      pop\n        /* \"#utility.yul\":4019:4327   */\n      swap2\n      swap1\n      pop\n      jump\t// out\n        /* \"#utility.yul\":4333:4481   */\n    tag_113:\n        /* \"#utility.yul\":4431:4437   */\n      dup3\n        /* \"#utility.yul\":4426:4429   */\n      dup2\n        /* \"#utility.yul\":4421:4424   */\n      dup4\n        /* \"#utility.yul\":4408:4438   */\n      calldatacopy\n        /* \"#utility.yul\":4472:4473   */\n      0x00\n        /* \"#utility.yul\":4463:4469   */\n      dup4\n        /* \"#utility.yul\":4458:4461   */\n      dup4\n        /* \"#utility.yul\":4454:4470   */\n      add\n        /* \"#utility.yul\":4447:4474   */\n      mstore\n        /* \"#utility.yul\":4333:4481   */\n      pop\n      pop\n      pop\n      jump\t// out\n        /* \"#utility.yul\":4487:4912   */\n    tag_114:\n        /* \"#utility.yul\":4565:4570   */\n      0x00\n        /* \"#utility.yul\":4590:4656   */\n      tag_194\n        /* \"#utility.yul\":4606:4655   */\n      tag_195\n        /* \"#utility.yul\":4648:4654   */\n      dup5\n        /* \"#utility.yul\":4606:4655   */\n      tag_112\n      jump\t// in\n    tag_195:\n        /* \"#utility.yul\":4590:4656   */\n      tag_111\n      jump\t// in\n    tag_194:\n        /* \"#utility.yul\":4581:4656   */\n      swap1\n      pop\n        /* \"#utility.yul\":4679:4685   */\n      dup3\n        /* \"#utility.yul\":4672:4677   */\n      dup2\n        /* \"#utility.yul\":4665:4686   */\n      mstore\n        /* \"#utility.yul\":4717:4721   */\n      0x20\n        /* \"#utility.yul\":4710:4715   */\n      dup2\n        /* \"#utility.yul\":4706:4722   */\n      add\n        /* \"#utility.yul\":4755:4758   */\n      dup5\n        /* \"#utility.yul\":4746:4752   */\n      dup5\n        /* \"#utility.yul\":4741:4744   */\n      dup5\n        /* \"#utility.yul\":4737:4753   */\n      add\n        /* \"#utility.yul\":4734:4759   */\n      gt\n        /* \"#utility.yul\":4731:4843   */\n      iszero\n      tag_196\n      jumpi\n        /* \"#utility.yul\":4762:4841   */\n      tag_197\n      tag_108\n      jump\t// in\n    tag_197:\n        /* \"#utility.yul\":4731:4843   */\n    tag_196:\n        /* \"#utility.yul\":4852:4906   */\n      tag_198\n        /* \"#utility.yul\":4899:4905   */\n      dup5\n        /* \"#utility.yul\":4894:4897   */\n      dup3\n        /* \"#utility.yul\":4889:4892   */\n      dup6\n        /* \"#utility.yul\":4852:4906   */\n      tag_113\n      jump\t// in\n    tag_198:\n        /* \"#utility.yul\":4571:4912   */\n      pop\n        /* \"#utility.yul\":4487:4912   */\n      swap4\n      swap3\n      pop\n      pop\n      pop\n      jump\t// out\n        /* \"#utility.yul\":4932:5272   */\n    tag_115:\n        /* \"#utility.yul\":4988:4993   */\n      0x00\n        /* \"#utility.yul\":5037:5040   */\n      dup3\n        /* \"#utility.yul\":5030:5034   */\n      0x1f\n        /* \"#utility.yul\":5022:5028   */\n      dup4\n        /* \"#utility.yul\":5018:5035   */\n      add\n        /* \"#utility.yul\":5014:5041   */\n      slt\n        /* \"#utility.yul\":5004:5126   */\n      tag_200\n      jumpi\n        /* \"#utility.yul\":5045:5124   */\n      tag_201\n      tag_107\n      jump\t// in\n    tag_201:\n        /* \"#utility.yul\":5004:5126   */\n    tag_200:\n        /* \"#utility.yul\":5162:5168   */\n      dup2\n        /* \"#utility.yul\":5149:5169   */\n      calldataload\n        /* \"#utility.yul\":5187:5266   */\n      tag_202\n        /* \"#utility.yul\":5262:5265   */\n      dup5\n        /* \"#utility.yul\":5254:5260   */\n      dup3\n        /* \"#utility.yul\":5247:5251   */\n      0x20\n        /* \"#utility.yul\":5239:5245   */\n      dup7\n        /* \"#utility.yul\":5235:5252   */\n      add\n        /* \"#utility.yul\":5187:5266   */\n      tag_114\n      jump\t// in\n    tag_202:\n        /* \"#utility.yul\":5178:5266   */\n      swap2\n      pop\n        /* \"#utility.yul\":4994:5272   */\n      pop\n        /* \"#utility.yul\":4932:5272   */\n      swap3\n      swap2\n      pop\n      pop\n      jump\t// out\n        /* \"#utility.yul\":5278:6369   */\n    tag_20:\n        /* \"#utility.yul\":5383:5389   */\n      0x00\n        /* \"#utility.yul\":5391:5397   */\n      dup1\n        /* \"#utility.yul\":5399:5405   */\n      0x00\n        /* \"#utility.yul\":5407:5413   */\n      dup1\n        /* \"#utility.yul\":5415:5421   */\n      0x00\n        /* \"#utility.yul\":5464:5467   */\n      0xa0\n        /* \"#utility.yul\":5452:5461   */\n      dup7\n        /* \"#utility.yul\":5443:5450   */\n      dup9\n        /* \"#utility.yul\":5439:5462   */\n      sub\n        /* \"#utility.yul\":5435:5468   */\n      slt\n        /* \"#utility.yul\":5432:5552   */\n      iszero\n      tag_204\n      jumpi\n        /* \"#utility.yul\":5471:5550   */\n      tag_205\n      tag_96\n      jump\t// in\n    tag_205:\n        /* \"#utility.yul\":5432:5552   */\n    tag_204:\n        /* \"#utility.yul\":5591:5592   */\n      0x00\n        /* \"#utility.yul\":5616:5669   */\n      tag_206\n        /* \"#utility.yul\":5661:5668   */\n      dup9\n        /* \"#utility.yul\":5652:5658   */\n      dup3\n        /* \"#utility.yul\":5641:5650   */\n      dup10\n        /* \"#utility.yul\":5637:5659   */\n      add\n        /* \"#utility.yul\":5616:5669   */\n      tag_100\n      jump\t// in\n    tag_206:\n        /* \"#utility.yul\":5606:5669   */\n      swap6\n      pop\n        /* \"#utility.yul\":5562:5679   */\n      pop\n        /* \"#utility.yul\":5746:5748   */\n      0x20\n        /* \"#utility.yul\":5735:5744   */\n      dup7\n        /* \"#utility.yul\":5731:5749   */\n      add\n        /* \"#utility.yul\":5718:5750   */\n      calldataload\n        /* \"#utility.yul\":5777:5795   */\n      0xffffffffffffffff\n        /* \"#utility.yul\":5769:5775   */\n      dup2\n        /* \"#utility.yul\":5766:5796   */\n      gt\n        /* \"#utility.yul\":5763:5880   */\n      iszero\n      tag_207\n      jumpi\n        /* \"#utility.yul\":5799:5878   */\n      tag_208\n      tag_97\n      jump\t// in\n    tag_208:\n        /* \"#utility.yul\":5763:5880   */\n    tag_207:\n        /* \"#utility.yul\":5904:5967   */\n      tag_209\n        /* \"#utility.yul\":5959:5966   */\n      dup9\n        /* \"#utility.yul\":5950:5956   */\n      dup3\n        /* \"#utility.yul\":5939:5948   */\n      dup10\n        /* \"#utility.yul\":5935:5957   */\n      add\n        /* \"#utility.yul\":5904:5967   */\n      tag_115\n      jump\t// in\n    tag_209:\n        /* \"#utility.yul\":5894:5967   */\n      swap5\n      pop\n        /* \"#utility.yul\":5689:5977   */\n      pop\n        /* \"#utility.yul\":6016:6018   */\n      0x40\n        /* \"#utility.yul\":6042:6095   */\n      tag_210\n        /* \"#utility.yul\":6087:6094   */\n      dup9\n        /* \"#utility.yul\":6078:6084   */\n      dup3\n        /* \"#utility.yul\":6067:6076   */\n      dup10\n        /* \"#utility.yul\":6063:6085   */\n      add\n        /* \"#utility.yul\":6042:6095   */\n      tag_100\n      jump\t// in\n    tag_210:\n        /* \"#utility.yul\":6032:6095   */\n      swap4\n      pop\n        /* \"#utility.yul\":5987:6105   */\n      pop\n        /* \"#utility.yul\":6144:6146   */\n      0x60\n        /* \"#utility.yul\":6170:6223   */\n      tag_211\n        /* \"#utility.yul\":6215:6222   */\n      dup9\n        /* \"#utility.yul\":6206:6212   */\n      dup3\n        /* \"#utility.yul\":6195:6204   */\n      dup10\n        /* \"#utility.yul\":6191:6213   */\n      add\n        /* \"#utility.yul\":6170:6223   */\n      tag_100\n      jump\t// in\n    tag_211:\n        /* \"#utility.yul\":6160:6223   */\n      swap3\n      pop\n        /* \"#utility.yul\":6115:6233   */\n      pop\n        /* \"#utility.yul\":6272:6275   */\n      0x80\n        /* \"#utility.yul\":6299:6352   */\n      tag_212\n        /* \"#utility.yul\":6344:6351   */\n      dup9\n        /* \"#utility.yul\":6335:6341   */\n      dup3\n        /* \"#utility.yul\":6324:6333   */\n      dup10\n        /* \"#utility.yul\":6320:6342   */\n      add\n        /* \"#utility.yul\":6299:6352   */\n      tag_100\n      jump\t// in\n    tag_212:\n        /* \"#utility.yul\":6289:6352   */\n      swap2\n      pop\n        /* \"#utility.yul\":6243:6362   */\n      pop\n        /* \"#utility.yul\":5278:6369   */\n      swap3\n      swap6\n      pop\n      swap3\n      swap6\n      swap1\n      swap4\n      pop\n      jump\t// out\n        /* \"#utility.yul\":6375:6512   */\n    tag_116:\n        /* \"#utility.yul\":6465:6471   */\n      0x00\n        /* \"#utility.yul\":6499:6504   */\n      dup2\n        /* \"#utility.yul\":6493:6505   */\n      mload\n        /* \"#utility.yul\":6483:6505   */\n      swap1\n      pop\n        /* \"#utility.yul\":6375:6512   */\n      swap2\n      swap1\n      pop\n      jump\t// out\n        /* \"#utility.yul\":6518:6725   */\n    tag_117:\n        /* \"#utility.yul\":6640:6651   */\n      0x00\n        /* \"#utility.yul\":6674:6680   */\n      dup3\n        /* \"#utility.yul\":6669:6672   */\n      dup3\n        /* \"#utility.yul\":6662:6681   */\n      mstore\n        /* \"#utility.yul\":6714:6718   */\n      0x20\n        /* \"#utility.yul\":6709:6712   */\n      dup3\n        /* \"#utility.yul\":6705:6719   */\n      add\n        /* \"#utility.yul\":6690:6719   */\n      swap1\n      pop\n        /* \"#utility.yul\":6518:6725   */\n      swap3\n      swap2\n      pop\n      pop\n      jump\t// out\n        /* \"#utility.yul\":6731:6886   */\n    tag_118:\n        /* \"#utility.yul\":6821:6825   */\n      0x00\n        /* \"#utility.yul\":6844:6847   */\n      dup2\n        /* \"#utility.yul\":6836:6847   */\n      swap1\n      pop\n        /* \"#utility.yul\":6874:6878   */\n      0x20\n        /* \"#utility.yul\":6869:6872   */\n      dup3\n        /* \"#utility.yul\":6865:6879   */\n      add\n        /* \"#utility.yul\":6857:6879   */\n      swap1\n      pop\n        /* \"#utility.yul\":6731:6886   */\n      swap2\n      swap1\n      pop\n      jump\t// out\n        /* \"#utility.yul\":6892:7000   */\n    tag_119:\n        /* \"#utility.yul\":6969:6993   */\n      tag_217\n        /* \"#utility.yul\":6987:6992   */\n      dup2\n        /* \"#utility.yul\":6969:6993   */\n      tag_98\n      jump\t// in\n    tag_217:\n        /* \"#utility.yul\":6964:6967   */\n      dup3\n        /* \"#utility.yul\":6957:6994   */\n      mstore\n        /* \"#utility.yul\":6892:7000   */\n      pop\n      pop\n      jump\t// out\n        /* \"#utility.yul\":7006:7165   */\n    tag_120:\n        /* \"#utility.yul\":7080:7091   */\n      0x00\n        /* \"#utility.yul\":7114:7120   */\n      dup3\n        /* \"#utility.yul\":7109:7112   */\n      dup3\n        /* \"#utility.yul\":7102:7121   */\n      mstore\n        /* \"#utility.yul\":7154:7158   */\n      0x20\n        /* \"#utility.yul\":7149:7152   */\n      dup3\n        /* \"#utility.yul\":7145:7159   */\n      add\n        /* \"#utility.yul\":7130:7159   */\n      swap1\n      pop\n        /* \"#utility.yul\":7006:7165   */\n      swap3\n      swap2\n      pop\n      pop\n      jump\t// out\n        /* \"#utility.yul\":7171:7528   */\n    tag_121:\n        /* \"#utility.yul\":7249:7252   */\n      0x00\n        /* \"#utility.yul\":7277:7316   */\n      tag_220\n        /* \"#utility.yul\":7310:7315   */\n      dup3\n        /* \"#utility.yul\":7277:7316   */\n      tag_102\n      jump\t// in\n    tag_220:\n        /* \"#utility.yul\":7332:7393   */\n      tag_221\n        /* \"#utility.yul\":7386:7392   */\n      dup2\n        /* \"#utility.yul\":7381:7384   */\n      dup6\n        /* \"#utility.yul\":7332:7393   */\n      tag_120\n      jump\t// in\n    tag_221:\n        /* \"#utility.yul\":7325:7393   */\n      swap4\n      pop\n        /* \"#utility.yul\":7402:7467   */\n      tag_222\n        /* \"#utility.yul\":7460:7466   */\n      dup2\n        /* \"#utility.yul\":7455:7458   */\n      dup6\n        /* \"#utility.yul\":7448:7452   */\n      0x20\n        /* \"#utility.yul\":7441:7446   */\n      dup7\n        /* \"#utility.yul\":7437:7453   */\n      add\n        /* \"#utility.yul\":7402:7467   */\n      tag_104\n      jump\t// in\n    tag_222:\n        /* \"#utility.yul\":7492:7521   */\n      tag_223\n        /* \"#utility.yul\":7514:7520   */\n      dup2\n        /* \"#utility.yul\":7492:7521   */\n      tag_105\n      jump\t// in\n    tag_223:\n        /* \"#utility.yul\":7487:7490   */\n      dup5\n        /* \"#utility.yul\":7483:7522   */\n      add\n        /* \"#utility.yul\":7476:7522   */\n      swap2\n      pop\n        /* \"#utility.yul\":7253:7528   */\n      pop\n        /* \"#utility.yul\":7171:7528   */\n      swap3\n      swap2\n      pop\n      pop\n      jump\t// out\n        /* \"#utility.yul\":7604:8934   */\n    tag_122:\n        /* \"#utility.yul\":7709:7712   */\n      0x00\n        /* \"#utility.yul\":7745:7749   */\n      0xc0\n        /* \"#utility.yul\":7740:7743   */\n      dup4\n        /* \"#utility.yul\":7736:7750   */\n      add\n        /* \"#utility.yul\":7832:7836   */\n      0x00\n        /* \"#utility.yul\":7825:7830   */\n      dup4\n        /* \"#utility.yul\":7821:7837   */\n      add\n        /* \"#utility.yul\":7815:7838   */\n      mload\n        /* \"#utility.yul\":7851:7914   */\n      tag_225\n        /* \"#utility.yul\":7908:7912   */\n      0x00\n        /* \"#utility.yul\":7903:7906   */\n      dup7\n        /* \"#utility.yul\":7899:7913   */\n      add\n        /* \"#utility.yul\":7885:7897   */\n      dup3\n        /* \"#utility.yul\":7851:7914   */\n      tag_119\n      jump\t// in\n    tag_225:\n        /* \"#utility.yul\":7760:7924   */\n      pop\n        /* \"#utility.yul\":8006:8010   */\n      0x20\n        /* \"#utility.yul\":7999:8004   */\n      dup4\n        /* \"#utility.yul\":7995:8011   */\n      add\n        /* \"#utility.yul\":7989:8012   */\n      mload\n        /* \"#utility.yul\":8059:8062   */\n      dup5\n        /* \"#utility.yul\":8053:8057   */\n      dup3\n        /* \"#utility.yul\":8049:8063   */\n      sub\n        /* \"#utility.yul\":8042:8046   */\n      0x20\n        /* \"#utility.yul\":8037:8040   */\n      dup7\n        /* \"#utility.yul\":8033:8047   */\n      add\n        /* \"#utility.yul\":8026:8064   */\n      mstore\n        /* \"#utility.yul\":8085:8158   */\n      tag_226\n        /* \"#utility.yul\":8153:8157   */\n      dup3\n        /* \"#utility.yul\":8139:8151   */\n      dup3\n        /* \"#utility.yul\":8085:8158   */\n      tag_121\n      jump\t// in\n    tag_226:\n        /* \"#utility.yul\":8077:8158   */\n      swap2\n      pop\n        /* \"#utility.yul\":7934:8169   */\n      pop\n        /* \"#utility.yul\":8261:8265   */\n      0x40\n        /* \"#utility.yul\":8254:8259   */\n      dup4\n        /* \"#utility.yul\":8250:8266   */\n      add\n        /* \"#utility.yul\":8244:8267   */\n      mload\n        /* \"#utility.yul\":8280:8343   */\n      tag_227\n        /* \"#utility.yul\":8337:8341   */\n      0x40\n        /* \"#utility.yul\":8332:8335   */\n      dup7\n        /* \"#utility.yul\":8328:8342   */\n      add\n        /* \"#utility.yul\":8314:8326   */\n      dup3\n        /* \"#utility.yul\":8280:8343   */\n      tag_119\n      jump\t// in\n    tag_227:\n        /* \"#utility.yul\":8179:8353   */\n      pop\n        /* \"#utility.yul\":8447:8451   */\n      0x60\n        /* \"#utility.yul\":8440:8445   */\n      dup4\n        /* \"#utility.yul\":8436:8452   */\n      add\n        /* \"#utility.yul\":8430:8453   */\n      mload\n        /* \"#utility.yul\":8466:8529   */\n      tag_228\n        /* \"#utility.yul\":8523:8527   */\n      0x60\n        /* \"#utility.yul\":8518:8521   */\n      dup7\n        /* \"#utility.yul\":8514:8528   */\n      add\n        /* \"#utility.yul\":8500:8512   */\n      dup3\n        /* \"#utility.yul\":8466:8529   */\n      tag_119\n      jump\t// in\n    tag_228:\n        /* \"#utility.yul\":8363:8539   */\n      pop\n        /* \"#utility.yul\":8635:8639   */\n      0x80\n        /* \"#utility.yul\":8628:8633   */\n      dup4\n        /* \"#utility.yul\":8624:8640   */\n      add\n        /* \"#utility.yul\":8618:8641   */\n      mload\n        /* \"#utility.yul\":8654:8717   */\n      tag_229\n        /* \"#utility.yul\":8711:8715   */\n      0x80\n        /* \"#utility.yul\":8706:8709   */\n      dup7\n        /* \"#utility.yul\":8702:8716   */\n      add\n        /* \"#utility.yul\":8688:8700   */\n      dup3\n        /* \"#utility.yul\":8654:8717   */\n      tag_119\n      jump\t// in\n    tag_229:\n        /* \"#utility.yul\":8549:8727   */\n      pop\n        /* \"#utility.yul\":8815:8819   */\n      0xa0\n        /* \"#utility.yul\":8808:8813   */\n      dup4\n        /* \"#utility.yul\":8804:8820   */\n      add\n        /* \"#utility.yul\":8798:8821   */\n      mload\n        /* \"#utility.yul\":8834:8897   */\n      tag_230\n        /* \"#utility.yul\":8891:8895   */\n      0xa0\n        /* \"#utility.yul\":8886:8889   */\n      dup7\n        /* \"#utility.yul\":8882:8896   */\n      add\n        /* \"#utility.yul\":8868:8880   */\n      dup3\n        /* \"#utility.yul\":8834:8897   */\n      tag_119\n      jump\t// in\n    tag_230:\n        /* \"#utility.yul\":8737:8907   */\n      pop\n        /* \"#utility.yul\":8924:8928   */\n      dup1\n        /* \"#utility.yul\":8917:8928   */\n      swap2\n      pop\n        /* \"#utility.yul\":7714:8934   */\n      pop\n        /* \"#utility.yul\":7604:8934   */\n      swap3\n      swap2\n      pop\n      pop\n      jump\t// out\n        /* \"#utility.yul\":8940:9188   */\n    tag_123:\n        /* \"#utility.yul\":9055:9065   */\n      0x00\n        /* \"#utility.yul\":9090:9182   */\n      tag_232\n        /* \"#utility.yul\":9178:9181   */\n      dup4\n        /* \"#utility.yul\":9170:9176   */\n      dup4\n        /* \"#utility.yul\":9090:9182   */\n      tag_122\n      jump\t// in\n    tag_232:\n        /* \"#utility.yul\":9076:9182   */\n      swap1\n      pop\n        /* \"#utility.yul\":8940:9188   */\n      swap3\n      swap2\n      pop\n      pop\n      jump\t// out\n        /* \"#utility.yul\":9194:9330   */\n    tag_124:\n        /* \"#utility.yul\":9287:9291   */\n      0x00\n        /* \"#utility.yul\":9319:9323   */\n      0x20\n        /* \"#utility.yul\":9314:9317   */\n      dup3\n        /* \"#utility.yul\":9310:9324   */\n      add\n        /* \"#utility.yul\":9302:9324   */\n      swap1\n      pop\n        /* \"#utility.yul\":9194:9330   */\n      swap2\n      swap1\n      pop\n      jump\t// out\n        /* \"#utility.yul\":9410:10505   */\n    tag_125:\n        /* \"#utility.yul\":9575:9578   */\n      0x00\n        /* \"#utility.yul\":9604:9681   */\n      tag_235\n        /* \"#utility.yul\":9675:9680   */\n      dup3\n        /* \"#utility.yul\":9604:9681   */\n      tag_116\n      jump\t// in\n    tag_235:\n        /* \"#utility.yul\":9697:9806   */\n      tag_236\n        /* \"#utility.yul\":9799:9805   */\n      dup2\n        /* \"#utility.yul\":9794:9797   */\n      dup6\n        /* \"#utility.yul\":9697:9806   */\n      tag_117\n      jump\t// in\n    tag_236:\n        /* \"#utility.yul\":9690:9806   */\n      swap4\n      pop\n        /* \"#utility.yul\":9832:9835   */\n      dup4\n        /* \"#utility.yul\":9877:9881   */\n      0x20\n        /* \"#utility.yul\":9869:9875   */\n      dup3\n        /* \"#utility.yul\":9865:9882   */\n      mul\n        /* \"#utility.yul\":9860:9863   */\n      dup6\n        /* \"#utility.yul\":9856:9883   */\n      add\n        /* \"#utility.yul\":9907:9986   */\n      tag_237\n        /* \"#utility.yul\":9980:9985   */\n      dup6\n        /* \"#utility.yul\":9907:9986   */\n      tag_118\n      jump\t// in\n    tag_237:\n        /* \"#utility.yul\":10009:10016   */\n      dup1\n        /* \"#utility.yul\":10040:10041   */\n      0x00\n        /* \"#utility.yul\":10025:10460   */\n    tag_238:\n        /* \"#utility.yul\":10050:10056   */\n      dup6\n        /* \"#utility.yul\":10047:10048   */\n      dup2\n        /* \"#utility.yul\":10044:10057   */\n      lt\n        /* \"#utility.yul\":10025:10460   */\n      iszero\n      tag_240\n      jumpi\n        /* \"#utility.yul\":10121:10130   */\n      dup5\n        /* \"#utility.yul\":10115:10119   */\n      dup5\n        /* \"#utility.yul\":10111:10131   */\n      sub\n        /* \"#utility.yul\":10106:10109   */\n      dup10\n        /* \"#utility.yul\":10099:10132   */\n      mstore\n        /* \"#utility.yul\":10172:10178   */\n      dup2\n        /* \"#utility.yul\":10166:10179   */\n      mload\n        /* \"#utility.yul\":10200:10310   */\n      tag_241\n        /* \"#utility.yul\":10305:10309   */\n      dup6\n        /* \"#utility.yul\":10290:10303   */\n      dup3\n        /* \"#utility.yul\":10200:10310   */\n      tag_123\n      jump\t// in\n    tag_241:\n        /* \"#utility.yul\":10192:10310   */\n      swap5\n      pop\n        /* \"#utility.yul\":10333:10416   */\n      tag_242\n        /* \"#utility.yul\":10409:10415   */\n      dup4\n        /* \"#utility.yul\":10333:10416   */\n      tag_124\n      jump\t// in\n    tag_242:\n        /* \"#utility.yul\":10323:10416   */\n      swap3\n      pop\n        /* \"#utility.yul\":10445:10449   */\n      0x20\n        /* \"#utility.yul\":10440:10443   */\n      dup11\n        /* \"#utility.yul\":10436:10450   */\n      add\n        /* \"#utility.yul\":10429:10450   */\n      swap10\n      pop\n        /* \"#utility.yul\":10085:10460   */\n      pop\n        /* \"#utility.yul\":10072:10073   */\n      0x01\n        /* \"#utility.yul\":10069:10070   */\n      dup2\n        /* \"#utility.yul\":10065:10074   */\n      add\n        /* \"#utility.yul\":10060:10074   */\n      swap1\n      pop\n        /* \"#utility.yul\":10025:10460   */\n      jump(tag_238)\n    tag_240:\n        /* \"#utility.yul\":10029:10043   */\n      pop\n        /* \"#utility.yul\":10476:10480   */\n      dup3\n        /* \"#utility.yul\":10469:10480   */\n      swap8\n      pop\n        /* \"#utility.yul\":10496:10499   */\n      dup8\n        /* \"#utility.yul\":10489:10499   */\n      swap6\n      pop\n        /* \"#utility.yul\":9580:10505   */\n      pop\n      pop\n      pop\n      pop\n      pop\n        /* \"#utility.yul\":9410:10505   */\n      swap3\n      swap2\n      pop\n      pop\n      jump\t// out\n        /* \"#utility.yul\":10511:10976   */\n    tag_27:\n        /* \"#utility.yul\":10700:10704   */\n      0x00\n        /* \"#utility.yul\":10738:10740   */\n      0x20\n        /* \"#utility.yul\":10727:10736   */\n      dup3\n        /* \"#utility.yul\":10723:10741   */\n      add\n        /* \"#utility.yul\":10715:10741   */\n      swap1\n      pop\n        /* \"#utility.yul\":10787:10796   */\n      dup2\n        /* \"#utility.yul\":10781:10785   */\n      dup2\n        /* \"#utility.yul\":10777:10797   */\n      sub\n        /* \"#utility.yul\":10773:10774   */\n      0x00\n        /* \"#utility.yul\":10762:10771   */\n      dup4\n        /* \"#utility.yul\":10758:10775   */\n      add\n        /* \"#utility.yul\":10751:10798   */\n      mstore\n        /* \"#utility.yul\":10815:10969   */\n      tag_244\n        /* \"#utility.yul\":10964:10968   */\n      dup2\n        /* \"#utility.yul\":10955:10961   */\n      dup5\n        /* \"#utility.yul\":10815:10969   */\n      tag_125\n      jump\t// in\n    tag_244:\n        /* \"#utility.yul\":10807:10969   */\n      swap1\n      pop\n        /* \"#utility.yul\":10511:10976   */\n      swap3\n      swap2\n      pop\n      pop\n      jump\t// out\n        /* \"#utility.yul\":10982:11162   */\n    tag_126:\n        /* \"#utility.yul\":11030:11107   */\n      0x4e487b7100000000000000000000000000000000000000000000000000000000\n        /* \"#utility.yul\":11027:11028   */\n      0x00\n        /* \"#utility.yul\":11020:11108   */\n      mstore\n        /* \"#utility.yul\":11127:11131   */\n      0x22\n        /* \"#utility.yul\":11124:11125   */\n      0x04\n        /* \"#utility.yul\":11117:11132   */\n      mstore\n        /* \"#utility.yul\":11151:11155   */\n      0x24\n        /* \"#utility.yul\":11148:11149   */\n      0x00\n        /* \"#utility.yul\":11141:11156   */\n      revert\n        /* \"#utility.yul\":11168:11488   */\n    tag_31:\n        /* \"#utility.yul\":11212:11218   */\n      0x00\n        /* \"#utility.yul\":11249:11250   */\n      0x02\n        /* \"#utility.yul\":11243:11247   */\n      dup3\n        /* \"#utility.yul\":11239:11251   */\n      div\n        /* \"#utility.yul\":11229:11251   */\n      swap1\n      pop\n        /* \"#utility.yul\":11296:11297   */\n      0x01\n        /* \"#utility.yul\":11290:11294   */\n      dup3\n        /* \"#utility.yul\":11286:11298   */\n      and\n        /* \"#utility.yul\":11317:11335   */\n      dup1\n        /* \"#utility.yul\":11307:11388   */\n      tag_247\n      jumpi\n        /* \"#utility.yul\":11373:11377   */\n      0x7f\n        /* \"#utility.yul\":11365:11371   */\n      dup3\n        /* \"#utility.yul\":11361:11378   */\n      and\n        /* \"#utility.yul\":11351:11378   */\n      swap2\n      pop\n        /* \"#utility.yul\":11307:11388   */\n    tag_247:\n        /* \"#utility.yul\":11435:11437   */\n      0x20\n        /* \"#utility.yul\":11427:11433   */\n      dup3\n        /* \"#utility.yul\":11424:11438   */\n      lt\n        /* \"#utility.yul\":11404:11422   */\n      dup2\n        /* \"#utility.yul\":11401:11439   */\n      sub\n        /* \"#utility.yul\":11398:11482   */\n      tag_248\n      jumpi\n        /* \"#utility.yul\":11454:11472   */\n      tag_249\n      tag_126\n      jump\t// in\n    tag_249:\n        /* \"#utility.yul\":11398:11482   */\n    tag_248:\n        /* \"#utility.yul\":11219:11488   */\n      pop\n        /* \"#utility.yul\":11168:11488   */\n      swap2\n      swap1\n      pop\n      jump\t// out\n        /* \"#utility.yul\":11494:11674   */\n    tag_127:\n        /* \"#utility.yul\":11542:11619   */\n      0x4e487b7100000000000000000000000000000000000000000000000000000000\n        /* \"#utility.yul\":11539:11540   */\n      0x00\n        /* \"#utility.yul\":11532:11620   */\n      mstore\n        /* \"#utility.yul\":11639:11643   */\n      0x11\n        /* \"#utility.yul\":11636:11637   */\n      0x04\n        /* \"#utility.yul\":11629:11644   */\n      mstore\n        /* \"#utility.yul\":11663:11667   */\n      0x24\n        /* \"#utility.yul\":11660:11661   */\n      0x00\n        /* \"#utility.yul\":11653:11668   */\n      revert\n        /* \"#utility.yul\":11680:11871   */\n    tag_39:\n        /* \"#utility.yul\":11720:11723   */\n      0x00\n        /* \"#utility.yul\":11739:11759   */\n      tag_252\n        /* \"#utility.yul\":11757:11758   */\n      dup3\n        /* \"#utility.yul\":11739:11759   */\n      tag_98\n      jump\t// in\n    tag_252:\n        /* \"#utility.yul\":11734:11759   */\n      swap2\n      pop\n        /* \"#utility.yul\":11773:11793   */\n      tag_253\n        /* \"#utility.yul\":11791:11792   */\n      dup4\n        /* \"#utility.yul\":11773:11793   */\n      tag_98\n      jump\t// in\n    tag_253:\n        /* \"#utility.yul\":11768:11793   */\n      swap3\n      pop\n        /* \"#utility.yul\":11816:11817   */\n      dup3\n        /* \"#utility.yul\":11813:11814   */\n      dup3\n        /* \"#utility.yul\":11809:11818   */\n      add\n        /* \"#utility.yul\":11802:11818   */\n      swap1\n      pop\n        /* \"#utility.yul\":11837:11840   */\n      dup1\n        /* \"#utility.yul\":11834:11835   */\n      dup3\n        /* \"#utility.yul\":11831:11841   */\n      gt\n        /* \"#utility.yul\":11828:11864   */\n      iszero\n      tag_254\n      jumpi\n        /* \"#utility.yul\":11844:11862   */\n      tag_255\n      tag_127\n      jump\t// in\n    tag_255:\n        /* \"#utility.yul\":11828:11864   */\n    tag_254:\n        /* \"#utility.yul\":11680:11871   */\n      swap3\n      swap2\n      pop\n      pop\n      jump\t// out\n        /* \"#utility.yul\":11877:12018   */\n    tag_128:\n        /* \"#utility.yul\":11926:11930   */\n      0x00\n        /* \"#utility.yul\":11949:11952   */\n      dup2\n        /* \"#utility.yul\":11941:11952   */\n      swap1\n      pop\n        /* \"#utility.yul\":11972:11975   */\n      dup2\n        /* \"#utility.yul\":11969:11970   */\n      0x00\n        /* \"#utility.yul\":11962:11976   */\n      mstore\n        /* \"#utility.yul\":12006:12010   */\n      0x20\n        /* \"#utility.yul\":12003:12004   */\n      0x00\n        /* \"#utility.yul\":11993:12011   */\n      keccak256\n        /* \"#utility.yul\":11985:12011   */\n      swap1\n      pop\n        /* \"#utility.yul\":11877:12018   */\n      swap2\n      swap1\n      pop\n      jump\t// out\n        /* \"#utility.yul\":12024:12117   */\n    tag_129:\n        /* \"#utility.yul\":12061:12067   */\n      0x00\n        /* \"#utility.yul\":12108:12110   */\n      0x20\n        /* \"#utility.yul\":12103:12105   */\n      0x1f\n        /* \"#utility.yul\":12096:12101   */\n      dup4\n        /* \"#utility.yul\":12092:12106   */\n      add\n        /* \"#utility.yul\":12088:12111   */\n      div\n        /* \"#utility.yul\":12078:12111   */\n      swap1\n      pop\n        /* \"#utility.yul\":12024:12117   */\n      swap2\n      swap1\n      pop\n      jump\t// out\n        /* \"#utility.yul\":12123:12230   */\n    tag_130:\n        /* \"#utility.yul\":12167:12175   */\n      0x00\n        /* \"#utility.yul\":12217:12222   */\n      dup3\n        /* \"#utility.yul\":12211:12215   */\n      dup3\n        /* \"#utility.yul\":12207:12223   */\n      shl\n        /* \"#utility.yul\":12186:12223   */\n      swap1\n      pop\n        /* \"#utility.yul\":12123:12230   */\n      swap3\n      swap2\n      pop\n      pop\n      jump\t// out\n        /* \"#utility.yul\":12236:12629   */\n    tag_131:\n        /* \"#utility.yul\":12305:12311   */\n      0x00\n        /* \"#utility.yul\":12355:12356   */\n      0x08\n        /* \"#utility.yul\":12343:12353   */\n      dup4\n        /* \"#utility.yul\":12339:12357   */\n      mul\n        /* \"#utility.yul\":12378:12475   */\n      tag_260\n        /* \"#utility.yul\":12408:12474   */\n      0xffffffffffffffffffffffffffffffffffffffffffffffffffffffffffffffff\n        /* \"#utility.yul\":12397:12406   */\n      dup3\n        /* \"#utility.yul\":12378:12475   */\n      tag_130\n      jump\t// in\n    tag_260:\n        /* \"#utility.yul\":12496:12535   */\n      tag_261\n        /* \"#utility.yul\":12526:12534   */\n      dup7\n        /* \"#utility.yul\":12515:12524   */\n      dup4\n        /* \"#utility.yul\":12496:12535   */\n      tag_130\n      jump\t// in\n    tag_261:\n        /* \"#utility.yul\":12484:12535   */\n      swap6\n      pop\n        /* \"#utility.yul\":12568:12572   */\n      dup1\n        /* \"#utility.yul\":12564:12573   */\n      not\n        /* \"#utility.yul\":12557:12562   */\n      dup5\n        /* \"#utility.yul\":12553:12574   */\n      and\n        /* \"#utility.yul\":12544:12574   */\n      swap4\n      pop\n        /* \"#utility.yul\":12617:12621   */\n      dup1\n        /* \"#utility.yul\":12607:12615   */\n      dup7\n        /* \"#utility.yul\":12603:12622   */\n      and\n        /* \"#utility.yul\":12596:12601   */\n      dup5\n        /* \"#utility.yul\":12593:12623   */\n      or\n        /* \"#utility.yul\":12583:12623   */\n      swap3\n      pop\n        /* \"#utility.yul\":12312:12629   */\n      pop\n      pop\n        /* \"#utility.yul\":12236:12629   */\n      swap4\n      swap3\n      pop\n      pop\n      pop\n      jump\t// out\n        /* \"#utility.yul\":12635:12695   */\n    tag_132:\n        /* \"#utility.yul\":12663:12666   */\n      0x00\n        /* \"#utility.yul\":12684:12689   */\n      dup2\n        /* \"#utility.yul\":12677:12689   */\n      swap1\n      pop\n        /* \"#utility.yul\":12635:12695   */\n      swap2\n      swap1\n      pop\n      jump\t// out\n        /* \"#utility.yul\":12701:12843   */\n    tag_133:\n        /* \"#utility.yul\":12751:12760   */\n      0x00\n        /* \"#utility.yul\":12784:12837   */\n      tag_264\n        /* \"#utility.yul\":12802:12836   */\n      tag_265\n        /* \"#utility.yul\":12811:12835   */\n      tag_266\n        /* \"#utility.yul\":12829:12834   */\n      dup5\n        /* \"#utility.yul\":12811:12835   */\n      tag_98\n      jump\t// in\n    tag_266:\n        /* \"#utility.yul\":12802:12836   */\n      tag_132\n      jump\t// in\n    tag_265:\n        /* \"#utility.yul\":12784:12837   */\n      tag_98\n      jump\t// in\n    tag_264:\n        /* \"#utility.yul\":12771:12837   */\n      swap1\n      pop\n        /* \"#utility.yul\":12701:12843   */\n      swap2\n      swap1\n      pop\n      jump\t// out\n        /* \"#utility.yul\":12849:12924   */\n    tag_134:\n        /* \"#utility.yul\":12892:12895   */\n      0x00\n        /* \"#utility.yul\":12913:12918   */\n      dup2\n        /* \"#utility.yul\":12906:12918   */\n      swap1\n      pop\n        /* \"#utility.yul\":12849:12924   */\n      swap2\n      swap1\n      pop\n      jump\t// out\n        /* \"#utility.yul\":12930:13199   */\n    tag_135:\n        /* \"#utility.yul\":13040:13079   */\n      tag_269\n        /* \"#utility.yul\":13071:13078   */\n      dup4\n        /* \"#utility.yul\":13040:13079   */\n      tag_133\n      jump\t// in\n    tag_269:\n        /* \"#utility.yul\":13101:13192   */\n      tag_270\n        /* \"#utility.yul\":13150:13191   */\n      tag_271\n        /* \"#utility.yul\":13174:13190   */\n      dup3\n        /* \"#utility.yul\":13150:13191   */\n      tag_134\n      jump\t// in\n    tag_271:\n        /* \"#utility.yul\":13142:13148   */\n      dup5\n        /* \"#utility.yul\":13135:13139   */\n      dup5\n        /* \"#utility.yul\":13129:13140   */\n      sload\n        /* \"#utility.yul\":13101:13192   */\n      tag_131\n      jump\t// in\n    tag_270:\n        /* \"#utility.yul\":13095:13099   */\n      dup3\n        /* \"#utility.yul\":13088:13193   */\n      sstore\n        /* \"#utility.yul\":13006:13199   */\n      pop\n        /* \"#utility.yul\":12930:13199   */\n      pop\n      pop\n      pop\n      jump\t// out\n        /* \"#utility.yul\":13205:13278   */\n    tag_136:\n        /* \"#utility.yul\":13250:13253   */\n      0x00\n        /* \"#utility.yul\":13205:13278   */\n      swap1\n      jump\t// out\n        /* \"#utility.yul\":13284:13473   */\n    tag_137:\n        /* \"#utility.yul\":13361:13393   */\n      tag_274\n      tag_136\n      jump\t// in\n    tag_274:\n        /* \"#utility.yul\":13402:13467   */\n      tag_275\n        /* \"#utility.yul\":13460:13466   */\n      dup2\n        /* \"#utility.yul\":13452:13458   */\n      dup5\n        /* \"#utility.yul\":13446:13450   */\n      dup5\n        /* \"#utility.yul\":13402:13467   */\n      tag_135\n      jump\t// in\n    tag_275:\n        /* \"#utility.yul\":13337:13473   */\n      pop\n        /* \"#utility.yul\":13284:13473   */\n      pop\n      pop\n      jump\t// out\n        /* \"#utility.yul\":13479:13665   */\n    tag_138:\n        /* \"#utility.yul\":13539:13659   */\n    tag_277:\n        /* \"#utility.yul\":13556:13559   */\n      dup2\n        /* \"#utility.yul\":13549:13554   */\n      dup2\n        /* \"#utility.yul\":13546:13560   */\n      lt\n        /* \"#utility.yul\":13539:13659   */\n      iszero\n      tag_279\n      jumpi\n        /* \"#utility.yul\":13610:13649   */\n      tag_280\n        /* \"#utility.yul\":13647:13648   */\n      0x00\n        /* \"#utility.yul\":13640:13645   */\n      dup3\n        /* \"#utility.yul\":13610:13649   */\n      tag_137\n      jump\t// in\n    tag_280:\n        /* \"#utility.yul\":13583:13584   */\n      0x01\n        /* \"#utility.yul\":13576:13581   */\n      dup2\n        /* \"#utility.yul\":13572:13585   */\n      add\n        /* \"#utility.yul\":13563:13585   */\n      swap1\n      pop\n        /* \"#utility.yul\":13539:13659   */\n      jump(tag_277)\n    tag_279:\n        /* \"#utility.yul\":13479:13665   */\n      pop\n      pop\n      jump\t// out\n        /* \"#utility.yul\":13671:14214   */\n    tag_139:\n        /* \"#utility.yul\":13772:13774   */\n      0x1f\n        /* \"#utility.yul\":13767:13770   */\n      dup3\n        /* \"#utility.yul\":13764:13775   */\n      gt\n        /* \"#utility.yul\":13761:14207   */\n      iszero\n      tag_282\n      jumpi\n        /* \"#utility.yul\":13806:13844   */\n      tag_283\n        /* \"#utility.yul\":13838:13843   */\n      dup2\n        /* \"#utility.yul\":13806:13844   */\n      tag_128\n      jump\t// in\n    tag_283:\n        /* \"#utility.yul\":13890:13919   */\n      tag_284\n        /* \"#utility.yul\":13908:13918   */\n      dup5\n        /* \"#utility.yul\":13890:13919   */\n      tag_129\n      jump\t// in\n    tag_284:\n        /* \"#utility.yul\":13880:13888   */\n      dup2\n        /* \"#utility.yul\":13876:13920   */\n      add\n        /* \"#utility.yul\":14073:14075   */\n      0x20\n        /* \"#utility.yul\":14061:14071   */\n      dup6\n        /* \"#utility.yul\":14058:14076   */\n      lt\n        /* \"#utility.yul\":14055:14104   */\n      iszero\n      tag_285\n      jumpi\n        /* \"#utility.yul\":14094:14102   */\n      dup2\n        /* \"#utility.yul\":14079:14102   */\n      swap1\n      pop\n        /* \"#utility.yul\":14055:14104   */\n    tag_285:\n        /* \"#utility.yul\":14117:14197   */\n      tag_286\n        /* \"#utility.yul\":14173:14195   */\n      tag_287\n        /* \"#utility.yul\":14191:14194   */\n      dup6\n        /* \"#utility.yul\":14173:14195   */\n      tag_129\n      jump\t// in\n    tag_287:\n        /* \"#utility.yul\":14163:14171   */\n      dup4\n        /* \"#utility.yul\":14159:14196   */\n      add\n        /* \"#utility.yul\":14146:14157   */\n      dup3\n        /* \"#utility.yul\":14117:14197   */\n      tag_138\n      jump\t// in\n    tag_286:\n        /* \"#utility.yul\":13776:14207   */\n      pop\n      pop\n        /* \"#utility.yul\":13761:14207   */\n    tag_282:\n        /* \"#utility.yul\":13671:14214   */\n      pop\n      pop\n      pop\n      jump\t// out\n        /* \"#utility.yul\":14220:14337   */\n    tag_140:\n        /* \"#utility.yul\":14274:14282   */\n      0x00\n        /* \"#utility.yul\":14324:14329   */\n      dup3\n        /* \"#utility.yul\":14318:14322   */\n      dup3\n        /* \"#utility.yul\":14314:14330   */\n      shr\n        /* \"#utility.yul\":14293:14330   */\n      swap1\n      pop\n        /* \"#utility.yul\":14220:14337   */\n      swap3\n      swap2\n      pop\n      pop\n      jump\t// out\n        /* \"#utility.yul\":14343:14512   */\n    tag_141:\n        /* \"#utility.yul\":14387:14393   */\n      0x00\n        /* \"#utility.yul\":14420:14471   */\n      tag_290\n        /* \"#utility.yul\":14468:14469   */\n      0x00\n        /* \"#utility.yul\":14464:14470   */\n      not\n        /* \"#utility.yul\":14456:14461   */\n      dup5\n        /* \"#utility.yul\":14453:14454   */\n      0x08\n        /* \"#utility.yul\":14449:14462   */\n      mul\n        /* \"#utility.yul\":14420:14471   */\n      tag_140\n      jump\t// in\n    tag_290:\n        /* \"#utility.yul\":14416:14472   */\n      not\n        /* \"#utility.yul\":14501:14505   */\n      dup1\n        /* \"#utility.yul\":14495:14499   */\n      dup4\n        /* \"#utility.yul\":14491:14506   */\n      and\n        /* \"#utility.yul\":14481:14506   */\n      swap2\n      pop\n        /* \"#utility.yul\":14394:14512   */\n      pop\n        /* \"#utility.yul\":14343:14512   */\n      swap3\n      swap2\n      pop\n      pop\n      jump\t// out\n        /* \"#utility.yul\":14517:14812   */\n    tag_142:\n        /* \"#utility.yul\":14593:14597   */\n      0x00\n        /* \"#utility.yul\":14739:14768   */\n      tag_292\n        /* \"#utility.yul\":14764:14767   */\n      dup4\n        /* \"#utility.yul\":14758:14762   */\n      dup4\n        /* \"#utility.yul\":14739:14768   */\n      tag_141\n      jump\t// in\n    tag_292:\n        /* \"#utility.yul\":14731:14768   */\n      swap2\n      pop\n        /* \"#utility.yul\":14801:14804   */\n      dup3\n        /* \"#utility.yul\":14798:14799   */\n      0x02\n        /* \"#utility.yul\":14794:14805   */\n      mul\n        /* \"#utility.yul\":14788:14792   */\n      dup3\n        /* \"#utility.yul\":14785:14806   */\n      or\n        /* \"#utility.yul\":14777:14806   */\n      swap1\n      pop\n        /* \"#utility.yul\":14517:14812   */\n      swap3\n      swap2\n      pop\n      pop\n      jump\t// out\n        /* \"#utility.yul\":14817:16212   */\n    tag_43:\n        /* \"#utility.yul\":14934:14971   */\n      tag_294\n        /* \"#utility.yul\":14967:14970   */\n      dup3\n        /* \"#utility.yul\":14934:14971   */\n      tag_102\n      jump\t// in\n    tag_294:\n        /* \"#utility.yul\":15036:15054   */\n      0xffffffffffffffff\n        /* \"#utility.yul\":15028:15034   */\n      dup2\n        /* \"#utility.yul\":15025:15055   */\n      gt\n        /* \"#utility.yul\":15022:15078   */\n      iszero\n      tag_295\n      jumpi\n        /* \"#utility.yul\":15058:15076   */\n      tag_296\n      tag_109\n      jump\t// in\n    tag_296:\n        /* \"#utility.yul\":15022:15078   */\n    tag_295:\n        /* \"#utility.yul\":15102:15140   */\n      tag_297\n        /* \"#utility.yul\":15134:15138   */\n      dup3\n        /* \"#utility.yul\":15128:15139   */\n      sload\n        /* \"#utility.yul\":15102:15140   */\n      tag_31\n      jump\t// in\n    tag_297:\n        /* \"#utility.yul\":15187:15254   */\n      tag_298\n        /* \"#utility.yul\":15247:15253   */\n      dup3\n        /* \"#utility.yul\":15239:15245   */\n      dup3\n        /* \"#utility.yul\":15233:15237   */\n      dup6\n        /* \"#utility.yul\":15187:15254   */\n      tag_139\n      jump\t// in\n    tag_298:\n        /* \"#utility.yul\":15281:15282   */\n      0x00\n        /* \"#utility.yul\":15305:15309   */\n      0x20\n        /* \"#utility.yul\":15292:15309   */\n      swap1\n      pop\n        /* \"#utility.yul\":15337:15339   */\n      0x1f\n        /* \"#utility.yul\":15329:15335   */\n      dup4\n        /* \"#utility.yul\":15326:15340   */\n      gt\n        /* \"#utility.yul\":15354:15355   */\n      0x01\n        /* \"#utility.yul\":15349:15967   */\n      dup2\n      eq\n      tag_300\n      jumpi\n        /* \"#utility.yul\":16011:16012   */\n      0x00\n        /* \"#utility.yul\":16028:16034   */\n      dup5\n        /* \"#utility.yul\":16025:16102   */\n      iszero\n      tag_301\n      jumpi\n        /* \"#utility.yul\":16077:16086   */\n      dup3\n        /* \"#utility.yul\":16072:16075   */\n      dup8\n        /* \"#utility.yul\":16068:16087   */\n      add\n        /* \"#utility.yul\":16062:16088   */\n      mload\n        /* \"#utility.yul\":16053:16088   */\n      swap1\n      pop\n        /* \"#utility.yul\":16025:16102   */\n    tag_301:\n        /* \"#utility.yul\":16128:16195   */\n      tag_302\n        /* \"#utility.yul\":16188:16194   */\n      dup6\n        /* \"#utility.yul\":16181:16186   */\n      dup3\n        /* \"#utility.yul\":16128:16195   */\n      tag_142\n      jump\t// in\n    tag_302:\n        /* \"#utility.yul\":16122:16126   */\n      dup7\n        /* \"#utility.yul\":16115:16196   */\n      sstore\n        /* \"#utility.yul\":15984:16206   */\n      pop\n        /* \"#utility.yul\":15319:16206   */\n      jump(tag_299)\n        /* \"#utility.yul\":15349:15967   */\n    tag_300:\n        /* \"#utility.yul\":15401:15405   */\n      0x1f\n        /* \"#utility.yul\":15397:15406   */\n      not\n        /* \"#utility.yul\":15389:15395   */\n      dup5\n        /* \"#utility.yul\":15385:15407   */\n      and\n        /* \"#utility.yul\":15435:15472   */\n      tag_303\n        /* \"#utility.yul\":15467:15471   */\n      dup7\n        /* \"#utility.yul\":15435:15472   */\n      tag_128\n      jump\t// in\n    tag_303:\n        /* \"#utility.yul\":15494:15495   */\n      0x00\n        /* \"#utility.yul\":15508:15716   */\n    tag_304:\n        /* \"#utility.yul\":15522:15529   */\n      dup3\n        /* \"#utility.yul\":15519:15520   */\n      dup2\n        /* \"#utility.yul\":15516:15530   */\n      lt\n        /* \"#utility.yul\":15508:15716   */\n      iszero\n      tag_306\n      jumpi\n        /* \"#utility.yul\":15601:15610   */\n      dup5\n        /* \"#utility.yul\":15596:15599   */\n      dup10\n        /* \"#utility.yul\":15592:15611   */\n      add\n        /* \"#utility.yul\":15586:15612   */\n      mload\n        /* \"#utility.yul\":15578:15584   */\n      dup3\n        /* \"#utility.yul\":15571:15613   */\n      sstore\n        /* \"#utility.yul\":15652:15653   */\n      0x01\n        /* \"#utility.yul\":15644:15650   */\n      dup3\n        /* \"#utility.yul\":15640:15654   */\n      add\n        /* \"#utility.yul\":15630:15654   */\n      swap2\n      pop\n        /* \"#utility.yul\":15699:15701   */\n      0x20\n        /* \"#utility.yul\":15688:15697   */\n      dup6\n        /* \"#utility.yul\":15684:15702   */\n      add\n        /* \"#utility.yul\":15671:15702   */\n      swap5\n      pop\n        /* \"#utility.yul\":15545:15549   */\n      0x20\n        /* \"#utility.yul\":15542:15543   */\n      dup2\n        /* \"#utility.yul\":15538:15550   */\n      add\n        /* \"#utility.yul\":15533:15550   */\n      swap1\n      pop\n        /* \"#utility.yul\":15508:15716   */\n      jump(tag_304)\n    tag_306:\n        /* \"#utility.yul\":15744:15750   */\n      dup7\n        /* \"#utility.yul\":15735:15742   */\n      dup4\n        /* \"#utility.yul\":15732:15751   */\n      lt\n        /* \"#utility.yul\":15729:15908   */\n      iszero\n      tag_307\n      jumpi\n        /* \"#utility.yul\":15802:15811   */\n      dup5\n        /* \"#utility.yul\":15797:15800   */\n      dup10\n        /* \"#utility.yul\":15793:15812   */\n      add\n        /* \"#utility.yul\":15787:15813   */\n      mload\n        /* \"#utility.yul\":15845:15893   */\n      tag_308\n        /* \"#utility.yul\":15887:15891   */\n      0x1f\n        /* \"#utility.yul\":15879:15885   */\n      dup10\n        /* \"#utility.yul\":15875:15892   */\n      and\n        /* \"#utility.yul\":15864:15873   */\n      dup3\n        /* \"#utility.yul\":15845:15893   */\n      tag_141\n      jump\t// in\n    tag_308:\n        /* \"#utility.yul\":15837:15843   */\n      dup4\n        /* \"#utility.yul\":15830:15894   */\n      sstore\n        /* \"#utility.yul\":15752:15908   */\n      pop\n        /* \"#utility.yul\":15729:15908   */\n    tag_307:\n        /* \"#utility.yul\":15954:15955   */\n      0x01\n        /* \"#utility.yul\":15950:15951   */\n      0x02\n        /* \"#utility.yul\":15942:15948   */\n      dup9\n        /* \"#utility.yul\":15938:15952   */\n      mul\n        /* \"#utility.yul\":15934:15956   */\n      add\n        /* \"#utility.yul\":15928:15932   */\n      dup9\n        /* \"#utility.yul\":15921:15957   */\n      sstore\n        /* \"#utility.yul\":15356:15967   */\n      pop\n      pop\n      pop\n        /* \"#utility.yul\":15319:16206   */\n    tag_299:\n      pop\n        /* \"#utility.yul\":14909:16212   */\n      pop\n      pop\n      pop\n        /* \"#utility.yul\":14817:16212   */\n      pop\n      pop\n      jump\t// out\n        /* \"#utility.yul\":16218:16412   */\n    tag_49:\n        /* \"#utility.yul\":16258:16262   */\n      0x00\n        /* \"#utility.yul\":16278:16298   */\n      tag_310\n        /* \"#utility.yul\":16296:16297   */\n      dup3\n        /* \"#utility.yul\":16278:16298   */\n      tag_98\n      jump\t// in\n    tag_310:\n        /* \"#utility.yul\":16273:16298   */\n      swap2\n      pop\n        /* \"#utility.yul\":16312:16332   */\n      tag_311\n        /* \"#utility.yul\":16330:16331   */\n      dup4\n        /* \"#utility.yul\":16312:16332   */\n      tag_98\n      jump\t// in\n    tag_311:\n        /* \"#utility.yul\":16307:16332   */\n      swap3\n      pop\n        /* \"#utility.yul\":16356:16357   */\n      dup3\n        /* \"#utility.yul\":16353:16354   */\n      dup3\n        /* \"#utility.yul\":16349:16358   */\n      sub\n        /* \"#utility.yul\":16341:16358   */\n      swap1\n      pop\n        /* \"#utility.yul\":16380:16381   */\n      dup2\n        /* \"#utility.yul\":16374:16378   */\n      dup2\n        /* \"#utility.yul\":16371:16382   */\n      gt\n        /* \"#utility.yul\":16368:16405   */\n      iszero\n      tag_312\n      jumpi\n        /* \"#utility.yul\":16385:16403   */\n      tag_313\n      tag_127\n      jump\t// in\n    tag_313:\n        /* \"#utility.yul\":16368:16405   */\n    tag_312:\n        /* \"#utility.yul\":16218:16412   */\n      swap3\n      swap2\n      pop\n      pop\n      jump\t// out\n        /* \"#utility.yul\":16418:16598   */\n    tag_58:\n        /* \"#utility.yul\":16466:16543   */\n      0x4e487b7100000000000000000000000000000000000000000000000000000000\n        /* \"#utility.yul\":16463:16464   */\n      0x00\n        /* \"#utility.yul\":16456:16544   */\n      mstore\n        /* \"#utility.yul\":16563:16567   */\n      0x32\n        /* \"#utility.yul\":16560:16561   */\n      0x04\n        /* \"#utility.yul\":16553:16568   */\n      mstore\n        /* \"#utility.yul\":16587:16591   */\n      0x24\n        /* \"#utility.yul\":16584:16585   */\n      0x00\n        /* \"#utility.yul\":16577:16592   */\n      revert\n        /* \"#utility.yul\":16604:16753   */\n    tag_143:\n        /* \"#utility.yul\":16653:16659   */\n      0x00\n        /* \"#utility.yul\":16687:16692   */\n      dup2\n        /* \"#utility.yul\":16681:16693   */\n      sload\n        /* \"#utility.yul\":16671:16693   */\n      swap1\n      pop\n        /* \"#utility.yul\":16713:16746   */\n      tag_316\n        /* \"#utility.yul\":16739:16745   */\n      dup2\n        /* \"#utility.yul\":16713:16746   */\n      tag_31\n      jump\t// in\n    tag_316:\n        /* \"#utility.yul\":16703:16746   */\n      swap1\n      pop\n        /* \"#utility.yul\":16604:16753   */\n      swap2\n      swap1\n      pop\n      jump\t// out\n        /* \"#utility.yul\":16759:18210   */\n    tag_80:\n        /* \"#utility.yul\":16870:16873   */\n      dup2\n        /* \"#utility.yul\":16864:16868   */\n      dup2\n        /* \"#utility.yul\":16861:16874   */\n      sub\n        /* \"#utility.yul\":16858:16884   */\n      tag_318\n      jumpi\n        /* \"#utility.yul\":16877:16882   */\n      pop\n      pop\n      jump(tag_317)\n        /* \"#utility.yul\":16858:16884   */\n    tag_318:\n        /* \"#utility.yul\":16908:16942   */\n      tag_319\n        /* \"#utility.yul\":16938:16941   */\n      dup3\n        /* \"#utility.yul\":16908:16942   */\n      tag_143\n      jump\t// in\n    tag_319:\n        /* \"#utility.yul\":17007:17025   */\n      0xffffffffffffffff\n        /* \"#utility.yul\":16999:17005   */\n      dup2\n        /* \"#utility.yul\":16996:17026   */\n      gt\n        /* \"#utility.yul\":16993:17049   */\n      iszero\n      tag_320\n      jumpi\n        /* \"#utility.yul\":17029:17047   */\n      tag_321\n      tag_109\n      jump\t// in\n    tag_321:\n        /* \"#utility.yul\":16993:17049   */\n    tag_320:\n        /* \"#utility.yul\":17073:17111   */\n      tag_322\n        /* \"#utility.yul\":17105:17109   */\n      dup3\n        /* \"#utility.yul\":17099:17110   */\n      sload\n        /* \"#utility.yul\":17073:17111   */\n      tag_31\n      jump\t// in\n    tag_322:\n        /* \"#utility.yul\":17158:17225   */\n      tag_323\n        /* \"#utility.yul\":17218:17224   */\n      dup3\n        /* \"#utility.yul\":17210:17216   */\n      dup3\n        /* \"#utility.yul\":17204:17208   */\n      dup6\n        /* \"#utility.yul\":17158:17225   */\n      tag_139\n      jump\t// in\n    tag_323:\n        /* \"#utility.yul\":17252:17253   */\n      0x00\n        /* \"#utility.yul\":17281:17283   */\n      0x1f\n        /* \"#utility.yul\":17273:17279   */\n      dup4\n        /* \"#utility.yul\":17270:17284   */\n      gt\n        /* \"#utility.yul\":17298:17299   */\n      0x01\n        /* \"#utility.yul\":17293:17965   */\n      dup2\n      eq\n      tag_325\n      jumpi\n        /* \"#utility.yul\":18009:18010   */\n      0x00\n        /* \"#utility.yul\":18026:18032   */\n      dup5\n        /* \"#utility.yul\":18023:18100   */\n      iszero\n      tag_326\n      jumpi\n        /* \"#utility.yul\":18075:18084   */\n      dup3\n        /* \"#utility.yul\":18070:18073   */\n      dup8\n        /* \"#utility.yul\":18066:18085   */\n      add\n        /* \"#utility.yul\":18060:18086   */\n      sload\n        /* \"#utility.yul\":18051:18086   */\n      swap1\n      pop\n        /* \"#utility.yul\":18023:18100   */\n    tag_326:\n        /* \"#utility.yul\":18126:18193   */\n      tag_327\n        /* \"#utility.yul\":18186:18192   */\n      dup6\n        /* \"#utility.yul\":18179:18184   */\n      dup3\n        /* \"#utility.yul\":18126:18193   */\n      tag_142\n      jump\t// in\n    tag_327:\n        /* \"#utility.yul\":18120:18124   */\n      dup7\n        /* \"#utility.yul\":18113:18194   */\n      sstore\n        /* \"#utility.yul\":17982:18204   */\n      pop\n        /* \"#utility.yul\":17263:18204   */\n      jump(tag_324)\n        /* \"#utility.yul\":17293:17965   */\n    tag_325:\n        /* \"#utility.yul\":17345:17349   */\n      0x1f\n        /* \"#utility.yul\":17341:17350   */\n      not\n        /* \"#utility.yul\":17333:17339   */\n      dup5\n        /* \"#utility.yul\":17329:17351   */\n      and\n        /* \"#utility.yul\":17371:17407   */\n      tag_328\n        /* \"#utility.yul\":17403:17406   */\n      dup8\n        /* \"#utility.yul\":17371:17407   */\n      tag_128\n      jump\t// in\n    tag_328:\n        /* \"#utility.yul\":17364:17407   */\n      swap7\n      pop\n        /* \"#utility.yul\":17434:17471   */\n      tag_329\n        /* \"#utility.yul\":17466:17470   */\n      dup7\n        /* \"#utility.yul\":17434:17471   */\n      tag_128\n      jump\t// in\n    tag_329:\n        /* \"#utility.yul\":17493:17494   */\n      0x00\n        /* \"#utility.yul\":17507:17714   */\n    tag_330:\n        /* \"#utility.yul\":17521:17528   */\n      dup3\n        /* \"#utility.yul\":17518:17519   */\n      dup2\n        /* \"#utility.yul\":17515:17529   */\n      lt\n        /* \"#utility.yul\":17507:17714   */\n      iszero\n      tag_332\n      jumpi\n        /* \"#utility.yul\":17600:17609   */\n      dup5\n        /* \"#utility.yul\":17595:17598   */\n      dup10\n        /* \"#utility.yul\":17591:17610   */\n      add\n        /* \"#utility.yul\":17585:17611   */\n      sload\n        /* \"#utility.yul\":17577:17583   */\n      dup3\n        /* \"#utility.yul\":17570:17612   */\n      sstore\n        /* \"#utility.yul\":17651:17652   */\n      0x01\n        /* \"#utility.yul\":17643:17649   */\n      dup3\n        /* \"#utility.yul\":17639:17653   */\n      add\n        /* \"#utility.yul\":17629:17653   */\n      swap2\n      pop\n        /* \"#utility.yul\":17698:17699   */\n      0x01\n        /* \"#utility.yul\":17687:17696   */\n      dup6\n        /* \"#utility.yul\":17683:17700   */\n      add\n        /* \"#utility.yul\":17670:17700   */\n      swap5\n      pop\n        /* \"#utility.yul\":17544:17548   */\n      0x20\n        /* \"#utility.yul\":17541:17542   */\n      dup2\n        /* \"#utility.yul\":17537:17549   */\n      add\n        /* \"#utility.yul\":17532:17549   */\n      swap1\n      pop\n        /* \"#utility.yul\":17507:17714   */\n      jump(tag_330)\n    tag_332:\n        /* \"#utility.yul\":17742:17748   */\n      dup7\n        /* \"#utility.yul\":17733:17740   */\n      dup4\n        /* \"#utility.yul\":17730:17749   */\n      lt\n        /* \"#utility.yul\":17727:17906   */\n      iszero\n      tag_333\n      jumpi\n        /* \"#utility.yul\":17800:17809   */\n      dup5\n        /* \"#utility.yul\":17795:17798   */\n      dup10\n        /* \"#utility.yul\":17791:17810   */\n      add\n        /* \"#utility.yul\":17785:17811   */\n      sload\n        /* \"#utility.yul\":17843:17891   */\n      tag_334\n        /* \"#utility.yul\":17885:17889   */\n      0x1f\n        /* \"#utility.yul\":17877:17883   */\n      dup10\n        /* \"#utility.yul\":17873:17890   */\n      and\n        /* \"#utility.yul\":17862:17871   */\n      dup3\n        /* \"#utility.yul\":17843:17891   */\n      tag_141\n      jump\t// in\n    tag_334:\n        /* \"#utility.yul\":17835:17841   */\n      dup4\n        /* \"#utility.yul\":17828:17892   */\n      sstore\n        /* \"#utility.yul\":17750:17906   */\n      pop\n        /* \"#utility.yul\":17727:17906   */\n    tag_333:\n        /* \"#utility.yul\":17952:17953   */\n      0x01\n        /* \"#utility.yul\":17948:17949   */\n      0x02\n        /* \"#utility.yul\":17940:17946   */\n      dup9\n        /* \"#utility.yul\":17936:17950   */\n      mul\n        /* \"#utility.yul\":17932:17954   */\n      add\n        /* \"#utility.yul\":17926:17930   */\n      dup9\n        /* \"#utility.yul\":17919:17955   */\n      sstore\n        /* \"#utility.yul\":17300:17965   */\n      pop\n      pop\n      pop\n        /* \"#utility.yul\":17263:18204   */\n    tag_324:\n      pop\n        /* \"#utility.yul\":16848:18210   */\n      pop\n      pop\n      pop\n        /* \"#utility.yul\":16759:18210   */\n      pop\n      pop\n    tag_317:\n      jump\t// out\n\n    auxdata: 0xa2646970667358221220cb589a222ac987537505892d739b27261e24c4035b20ea15a6cd0474c74080bf64736f6c634300081a0033\n}\n",
				"bytecode": {
					"linkReferences": {},
					"object": "6080604052348015600e575f80fd5b50610feb8061001c5f395ff3fe608060405234801561000f575f80fd5b5060043610610055575f3560e01c806306ead22e1461005957806341e0c4071461008e578063b9b112eb146100ac578063df93d8f0146100c8578063f1d064b3146100d2575b5f80fd5b610073600480360381019061006e9190610692565b6100f0565b6040516100859695949392919061073c565b60405180910390f35b6100966101bc565b6040516100a391906107a2565b60405180910390f35b6100c660048036038101906100c191906108e7565b6101c7565b005b6100d0610285565b005b6100da610532565b6040516100e79190610b12565b60405180910390f35b5f81815481106100fe575f80fd5b905f5260205f2090600602015f91509050805f01549080600101805461012390610b5f565b80601f016020809104026020016040519081016040528092919081815260200182805461014f90610b5f565b801561019a5780601f106101715761010080835404028352916020019161019a565b820191905f5260205f20905b81548152906001019060200180831161017d57829003601f168201915b5050505050908060020154908060030154908060040154908060050154905086565b5f8080549050905090565b5f8183856101d59190610bbc565b6101df9190610bbc565b90505f6040518060c0016040528088815260200187815260200186815260200185815260200184815260200183815250908060018154018082558091505060019003905f5260205f2090600602015f909190919091505f820151815f015560208201518160010190816102529190610d8c565b5060408201518160020155606082015181600301556080820151816004015560a082015181600501555050505050505050565b5f808054905090505f5b60018261029c9190610e5b565b81101561052e575f5b600182846102b39190610e5b565b6102bd9190610e5b565b811015610520575f6001826102d29190610bbc565b815481106102e3576102e2610e8e565b5b905f5260205f209060060201600501545f828154811061030657610305610e8e565b5b905f5260205f209060060201600501541015610513575f8082815481106103305761032f610e8e565b5b905f5260205f2090600602016040518060c00160405290815f820154815260200160018201805461036090610b5f565b80601f016020809104026020016040519081016040528092919081815260200182805461038c90610b5f565b80156103d75780601f106103ae576101008083540402835291602001916103d7565b820191905f5260205f20905b8154815290600101906020018083116103ba57829003601f168201915b5050505050815260200160028201548152602001600382015481526020016004820154815260200160058201548152505090505f6001836104189190610bbc565b8154811061042957610428610e8e565b5b905f5260205f2090600602015f838154811061044857610447610e8e565b5b905f5260205f2090600602015f820154815f0155600182018160010190816104709190610ed0565b5060028201548160020155600382015481600301556004820154816004015560058201548160050155905050805f6001846104ab9190610bbc565b815481106104bc576104bb610e8e565b5b905f5260205f2090600602015f820151815f015560208201518160010190816104e59190610d8c565b5060408201518160020155606082015181600301556080820151816004015560a08201518160050155905050505b80806001019150506102a5565b50808060010191505061028f565b5050565b60605f805480602002602001604051908101604052809291908181526020015f905b82821015610645578382905f5260205f2090600602016040518060c00160405290815f820154815260200160018201805461058e90610b5f565b80601f01602080910402602001604051908101604052809291908181526020018280546105ba90610b5f565b80156106055780601f106105dc57610100808354040283529160200191610605565b820191905f5260205f20905b8154815290600101906020018083116105e857829003601f168201915b5050505050815260200160028201548152602001600382015481526020016004820154815260200160058201548152505081526020019060010190610554565b50505050905090565b5f604051905090565b5f80fd5b5f80fd5b5f819050919050565b6106718161065f565b811461067b575f80fd5b50565b5f8135905061068c81610668565b92915050565b5f602082840312156106a7576106a6610657565b5b5f6106b48482850161067e565b91505092915050565b6106c68161065f565b82525050565b5f81519050919050565b5f82825260208201905092915050565b8281835e5f83830152505050565b5f601f19601f8301169050919050565b5f61070e826106cc565b61071881856106d6565b93506107288185602086016106e6565b610731816106f4565b840191505092915050565b5f60c08201905061074f5f8301896106bd565b81810360208301526107618188610704565b905061077060408301876106bd565b61077d60608301866106bd565b61078a60808301856106bd565b61079760a08301846106bd565b979650505050505050565b5f6020820190506107b55f8301846106bd565b92915050565b5f80fd5b5f80fd5b7f4e487b71000000000000000000000000000000000000000000000000000000005f52604160045260245ffd5b6107f9826106f4565b810181811067ffffffffffffffff82111715610818576108176107c3565b5b80604052505050565b5f61082a61064e565b905061083682826107f0565b919050565b5f67ffffffffffffffff821115610855576108546107c3565b5b61085e826106f4565b9050602081019050919050565b828183375f83830152505050565b5f61088b6108868461083b565b610821565b9050828152602081018484840111156108a7576108a66107bf565b5b6108b284828561086b565b509392505050565b5f82601f8301126108ce576108cd6107bb565b5b81356108de848260208601610879565b91505092915050565b5f805f805f60a08688031215610900576108ff610657565b5b5f61090d8882890161067e565b955050602086013567ffffffffffffffff81111561092e5761092d61065b565b5b61093a888289016108ba565b945050604061094b8882890161067e565b935050606061095c8882890161067e565b925050608061096d8882890161067e565b9150509295509295909350565b5f81519050919050565b5f82825260208201905092915050565b5f819050602082019050919050565b6109ac8161065f565b82525050565b5f82825260208201905092915050565b5f6109cc826106cc565b6109d681856109b2565b93506109e68185602086016106e6565b6109ef816106f4565b840191505092915050565b5f60c083015f830151610a0f5f8601826109a3565b5060208301518482036020860152610a2782826109c2565b9150506040830151610a3c60408601826109a3565b506060830151610a4f60608601826109a3565b506080830151610a6260808601826109a3565b5060a0830151610a7560a08601826109a3565b508091505092915050565b5f610a8b83836109fa565b905092915050565b5f602082019050919050565b5f610aa98261097a565b610ab38185610984565b935083602082028501610ac585610994565b805f5b85811015610b005784840389528151610ae18582610a80565b9450610aec83610a93565b925060208a01995050600181019050610ac8565b50829750879550505050505092915050565b5f6020820190508181035f830152610b2a8184610a9f565b905092915050565b7f4e487b71000000000000000000000000000000000000000000000000000000005f52602260045260245ffd5b5f6002820490506001821680610b7657607f821691505b602082108103610b8957610b88610b32565b5b50919050565b7f4e487b71000000000000000000000000000000000000000000000000000000005f52601160045260245ffd5b5f610bc68261065f565b9150610bd18361065f565b9250828201905080821115610be957610be8610b8f565b5b92915050565b5f819050815f5260205f209050919050565b5f6020601f8301049050919050565b5f82821b905092915050565b5f60088302610c4b7fffffffffffffffffffffffffffffffffffffffffffffffffffffffffffffffff82610c10565b610c558683610c10565b95508019841693508086168417925050509392505050565b5f819050919050565b5f610c90610c8b610c868461065f565b610c6d565b61065f565b9050919050565b5f819050919050565b610ca983610c76565b610cbd610cb582610c97565b848454610c1c565b825550505050565b5f90565b610cd1610cc5565b610cdc818484610ca0565b505050565b5b81811015610cff57610cf45f82610cc9565b600181019050610ce2565b5050565b601f821115610d4457610d1581610bef565b610d1e84610c01565b81016020851015610d2d578190505b610d41610d3985610c01565b830182610ce1565b50505b505050565b5f82821c905092915050565b5f610d645f1984600802610d49565b1980831691505092915050565b5f610d7c8383610d55565b9150826002028217905092915050565b610d95826106cc565b67ffffffffffffffff811115610dae57610dad6107c3565b5b610db88254610b5f565b610dc3828285610d03565b5f60209050601f831160018114610df4575f8415610de2578287015190505b610dec8582610d71565b865550610e53565b601f198416610e0286610bef565b5f5b82811015610e2957848901518255600182019150602085019450602081019050610e04565b86831015610e465784890151610e42601f891682610d55565b8355505b6001600288020188555050505b505050505050565b5f610e658261065f565b9150610e708361065f565b9250828203905081811115610e8857610e87610b8f565b5b92915050565b7f4e487b71000000000000000000000000000000000000000000000000000000005f52603260045260245ffd5b5f81549050610ec981610b5f565b9050919050565b818103610ede575050610fb3565b610ee782610ebb565b67ffffffffffffffff811115610f0057610eff6107c3565b5b610f0a8254610b5f565b610f15828285610d03565b5f601f831160018114610f42575f8415610f30578287015490505b610f3a8582610d71565b865550610fac565b601f198416610f5087610bef565b9650610f5b86610bef565b5f5b82811015610f8257848901548255600182019150600185019450602081019050610f5d565b86831015610f9f5784890154610f9b601f891682610d55565b8355505b6001600288020188555050505b5050505050505b56fea2646970667358221220cb589a222ac987537505892d739b27261e24c4035b20ea15a6cd0474c74080bf64736f6c634300081a0033",
					"opcodes": "PUSH1 0x80 PUSH1 0x40 MSTORE CALLVALUE DUP1 ISZERO PUSH1 0xE JUMPI PUSH0 DUP1 REVERT JUMPDEST POP PUSH2 0xFEB DUP1 PUSH2 0x1C PUSH0 CODECOPY PUSH0 RETURN INVALID PUSH1 0x80 PUSH1 0x40 MSTORE CALLVALUE DUP1 ISZERO PUSH2 0xF JUMPI PUSH0 DUP1 REVERT JUMPDEST POP PUSH1 0x4 CALLDATASIZE LT PUSH2 0x55 JUMPI PUSH0 CALLDATALOAD PUSH1 0xE0 SHR DUP1 PUSH4 0x6EAD22E EQ PUSH2 0x59 JUMPI DUP1 PUSH4 0x41E0C407 EQ PUSH2 0x8E JUMPI DUP1 PUSH4 0xB9B112EB EQ PUSH2 0xAC JUMPI DUP1 PUSH4 0xDF93D8F0 EQ PUSH2 0xC8 JUMPI DUP1 PUSH4 0xF1D064B3 EQ PUSH2 0xD2 JUMPI JUMPDEST PUSH0 DUP1 REVERT JUMPDEST PUSH2 0x73 PUSH1 0x4 DUP1 CALLDATASIZE SUB DUP2 ADD SWAP1 PUSH2 0x6E SWAP2 SWAP1 PUSH2 0x692 JUMP JUMPDEST PUSH2 0xF0 JUMP JUMPDEST PUSH1 0x40 MLOAD PUSH2 0x85 SWAP7 SWAP6 SWAP5 SWAP4 SWAP3 SWAP2 SWAP1 PUSH2 0x73C JUMP JUMPDEST PUSH1 0x40 MLOAD DUP1 SWAP2 SUB SWAP1 RETURN JUMPDEST PUSH2 0x96 PUSH2 0x1BC JUMP JUMPDEST PUSH1 0x40 MLOAD PUSH2 0xA3 SWAP2 SWAP1 PUSH2 0x7A2 JUMP JUMPDEST PUSH1 0x40 MLOAD DUP1 SWAP2 SUB SWAP1 RETURN JUMPDEST PUSH2 0xC6 PUSH1 0x4 DUP1 CALLDATASIZE SUB DUP2 ADD SWAP1 PUSH2 0xC1 SWAP2 SWAP1 PUSH2 0x8E7 JUMP JUMPDEST PUSH2 0x1C7 JUMP JUMPDEST STOP JUMPDEST PUSH2 0xD0 PUSH2 0x285 JUMP JUMPDEST STOP JUMPDEST PUSH2 0xDA PUSH2 0x532 JUMP JUMPDEST PUSH1 0x40 MLOAD PUSH2 0xE7 SWAP2 SWAP1 PUSH2 0xB12 JUMP JUMPDEST PUSH1 0x40 MLOAD DUP1 SWAP2 SUB SWAP1 RETURN JUMPDEST PUSH0 DUP2 DUP2 SLOAD DUP2 LT PUSH2 0xFE JUMPI PUSH0 DUP1 REVERT JUMPDEST SWAP1 PUSH0 MSTORE PUSH1 0x20 PUSH0 KECCAK256 SWAP1 PUSH1 0x6 MUL ADD PUSH0 SWAP2 POP SWAP1 POP DUP1 PUSH0 ADD SLOAD SWAP1 DUP1 PUSH1 0x1 ADD DUP1 SLOAD PUSH2 0x123 SWAP1 PUSH2 0xB5F JUMP JUMPDEST DUP1 PUSH1 0x1F ADD PUSH1 0x20 DUP1 SWAP2 DIV MUL PUSH1 0x20 ADD PUSH1 0x40 MLOAD SWAP1 DUP2 ADD PUSH1 0x40 MSTORE DUP1 SWAP3 SWAP2 SWAP1 DUP2 DUP2 MSTORE PUSH1 0x20 ADD DUP3 DUP1 SLOAD PUSH2 0x14F SWAP1 PUSH2 0xB5F JUMP JUMPDEST DUP1 ISZERO PUSH2 0x19A JUMPI DUP1 PUSH1 0x1F LT PUSH2 0x171 JUMPI PUSH2 0x100 DUP1 DUP4 SLOAD DIV MUL DUP4 MSTORE SWAP2 PUSH1 0x20 ADD SWAP2 PUSH2 0x19A JUMP JUMPDEST DUP3 ADD SWAP2 SWAP1 PUSH0 MSTORE PUSH1 0x20 PUSH0 KECCAK256 SWAP1 JUMPDEST DUP2 SLOAD DUP2 MSTORE SWAP1 PUSH1 0x1 ADD SWAP1 PUSH1 0x20 ADD DUP1 DUP4 GT PUSH2 0x17D JUMPI DUP3 SWAP1 SUB PUSH1 0x1F AND DUP3 ADD SWAP2 JUMPDEST POP POP POP POP POP SWAP1 DUP1 PUSH1 0x2 ADD SLOAD SWAP1 DUP1 PUSH1 0x3 ADD SLOAD SWAP1 DUP1 PUSH1 0x4 ADD SLOAD SWAP1 DUP1 PUSH1 0x5 ADD SLOAD SWAP1 POP DUP7 JUMP JUMPDEST PUSH0 DUP1 DUP1 SLOAD SWAP1 POP SWAP1 POP SWAP1 JUMP JUMPDEST PUSH0 DUP2 DUP4 DUP6 PUSH2 0x1D5 SWAP2 SWAP1 PUSH2 0xBBC JUMP JUMPDEST PUSH2 0x1DF SWAP2 SWAP1 PUSH2 0xBBC JUMP JUMPDEST SWAP1 POP PUSH0 PUSH1 0x40 MLOAD DUP1 PUSH1 0xC0 ADD PUSH1 0x40 MSTORE DUP1 DUP9 DUP2 MSTORE PUSH1 0x20 ADD DUP8 DUP2 MSTORE PUSH1 0x20 ADD DUP7 DUP2 MSTORE PUSH1 0x20 ADD DUP6 DUP2 MSTORE PUSH1 0x20 ADD DUP5 DUP2 MSTORE PUSH1 0x20 ADD DUP4 DUP2 MSTORE POP SWAP1 DUP1 PUSH1 0x1 DUP2 SLOAD ADD DUP1 DUP3 SSTORE DUP1 SWAP2 POP POP PUSH1 0x1 SWAP1 SUB SWAP1 PUSH0 MSTORE PUSH1 0x20 PUSH0 KECCAK256 SWAP1 PUSH1 0x6 MUL ADD PUSH0 SWAP1 SWAP2 SWAP1 SWAP2 SWAP1 SWAP2 POP PUSH0 DUP3 ADD MLOAD DUP2 PUSH0 ADD SSTORE PUSH1 0x20 DUP3 ADD MLOAD DUP2 PUSH1 0x1 ADD SWAP1 DUP2 PUSH2 0x252 SWAP2 SWAP1 PUSH2 0xD8C JUMP JUMPDEST POP PUSH1 0x40 DUP3 ADD MLOAD DUP2 PUSH1 0x2 ADD SSTORE PUSH1 0x60 DUP3 ADD MLOAD DUP2 PUSH1 0x3 ADD SSTORE PUSH1 0x80 DUP3 ADD MLOAD DUP2 PUSH1 0x4 ADD SSTORE PUSH1 0xA0 DUP3 ADD MLOAD DUP2 PUSH1 0x5 ADD SSTORE POP POP POP POP POP POP POP POP JUMP JUMPDEST PUSH0 DUP1 DUP1 SLOAD SWAP1 POP SWAP1 POP PUSH0 JUMPDEST PUSH1 0x1 DUP3 PUSH2 0x29C SWAP2 SWAP1 PUSH2 0xE5B JUMP JUMPDEST DUP2 LT ISZERO PUSH2 0x52E JUMPI PUSH0 JUMPDEST PUSH1 0x1 DUP3 DUP5 PUSH2 0x2B3 SWAP2 SWAP1 PUSH2 0xE5B JUMP JUMPDEST PUSH2 0x2BD SWAP2 SWAP1 PUSH2 0xE5B JUMP JUMPDEST DUP2 LT ISZERO PUSH2 0x520 JUMPI PUSH0 PUSH1 0x1 DUP3 PUSH2 0x2D2 SWAP2 SWAP1 PUSH2 0xBBC JUMP JUMPDEST DUP2 SLOAD DUP2 LT PUSH2 0x2E3 JUMPI PUSH2 0x2E2 PUSH2 0xE8E JUMP JUMPDEST JUMPDEST SWAP1 PUSH0 MSTORE PUSH1 0x20 PUSH0 KECCAK256 SWAP1 PUSH1 0x6 MUL ADD PUSH1 0x5 ADD SLOAD PUSH0 DUP3 DUP2 SLOAD DUP2 LT PUSH2 0x306 JUMPI PUSH2 0x305 PUSH2 0xE8E JUMP JUMPDEST JUMPDEST SWAP1 PUSH0 MSTORE PUSH1 0x20 PUSH0 KECCAK256 SWAP1 PUSH1 0x6 MUL ADD PUSH1 0x5 ADD SLOAD LT ISZERO PUSH2 0x513 JUMPI PUSH0 DUP1 DUP3 DUP2 SLOAD DUP2 LT PUSH2 0x330 JUMPI PUSH2 0x32F PUSH2 0xE8E JUMP JUMPDEST JUMPDEST SWAP1 PUSH0 MSTORE PUSH1 0x20 PUSH0 KECCAK256 SWAP1 PUSH1 0x6 MUL ADD PUSH1 0x40 MLOAD DUP1 PUSH1 0xC0 ADD PUSH1 0x40 MSTORE SWAP1 DUP2 PUSH0 DUP3 ADD SLOAD DUP2 MSTORE PUSH1 0x20 ADD PUSH1 0x1 DUP3 ADD DUP1 SLOAD PUSH2 0x360 SWAP1 PUSH2 0xB5F JUMP JUMPDEST DUP1 PUSH1 0x1F ADD PUSH1 0x20 DUP1 SWAP2 DIV MUL PUSH1 0x20 ADD PUSH1 0x40 MLOAD SWAP1 DUP2 ADD PUSH1 0x40 MSTORE DUP1 SWAP3 SWAP2 SWAP1 DUP2 DUP2 MSTORE PUSH1 0x20 ADD DUP3 DUP1 SLOAD PUSH2 0x38C SWAP1 PUSH2 0xB5F JUMP JUMPDEST DUP1 ISZERO PUSH2 0x3D7 JUMPI DUP1 PUSH1 0x1F LT PUSH2 0x3AE JUMPI PUSH2 0x100 DUP1 DUP4 SLOAD DIV MUL DUP4 MSTORE SWAP2 PUSH1 0x20 ADD SWAP2 PUSH2 0x3D7 JUMP JUMPDEST DUP3 ADD SWAP2 SWAP1 PUSH0 MSTORE PUSH1 0x20 PUSH0 KECCAK256 SWAP1 JUMPDEST DUP2 SLOAD DUP2 MSTORE SWAP1 PUSH1 0x1 ADD SWAP1 PUSH1 0x20 ADD DUP1 DUP4 GT PUSH2 0x3BA JUMPI DUP3 SWAP1 SUB PUSH1 0x1F AND DUP3 ADD SWAP2 JUMPDEST POP POP POP POP POP DUP2 MSTORE PUSH1 0x20 ADD PUSH1 0x2 DUP3 ADD SLOAD DUP2 MSTORE PUSH1 0x20 ADD PUSH1 0x3 DUP3 ADD SLOAD DUP2 MSTORE PUSH1 0x20 ADD PUSH1 0x4 DUP3 ADD SLOAD DUP2 MSTORE PUSH1 0x20 ADD PUSH1 0x5 DUP3 ADD SLOAD DUP2 MSTORE POP POP SWAP1 POP PUSH0 PUSH1 0x1 DUP4 PUSH2 0x418 SWAP2 SWAP1 PUSH2 0xBBC JUMP JUMPDEST DUP2 SLOAD DUP2 LT PUSH2 0x429 JUMPI PUSH2 0x428 PUSH2 0xE8E JUMP JUMPDEST JUMPDEST SWAP1 PUSH0 MSTORE PUSH1 0x20 PUSH0 KECCAK256 SWAP1 PUSH1 0x6 MUL ADD PUSH0 DUP4 DUP2 SLOAD DUP2 LT PUSH2 0x448 JUMPI PUSH2 0x447 PUSH2 0xE8E JUMP JUMPDEST JUMPDEST SWAP1 PUSH0 MSTORE PUSH1 0x20 PUSH0 KECCAK256 SWAP1 PUSH1 0x6 MUL ADD PUSH0 DUP3 ADD SLOAD DUP2 PUSH0 ADD SSTORE PUSH1 0x1 DUP3 ADD DUP2 PUSH1 0x1 ADD SWAP1 DUP2 PUSH2 0x470 SWAP2 SWAP1 PUSH2 0xED0 JUMP JUMPDEST POP PUSH1 0x2 DUP3 ADD SLOAD DUP2 PUSH1 0x2 ADD SSTORE PUSH1 0x3 DUP3 ADD SLOAD DUP2 PUSH1 0x3 ADD SSTORE PUSH1 0x4 DUP3 ADD SLOAD DUP2 PUSH1 0x4 ADD SSTORE PUSH1 0x5 DUP3 ADD SLOAD DUP2 PUSH1 0x5 ADD SSTORE SWAP1 POP POP DUP1 PUSH0 PUSH1 0x1 DUP5 PUSH2 0x4AB SWAP2 SWAP1 PUSH2 0xBBC JUMP JUMPDEST DUP2 SLOAD DUP2 LT PUSH2 0x4BC JUMPI PUSH2 0x4BB PUSH2 0xE8E JUMP JUMPDEST JUMPDEST SWAP1 PUSH0 MSTORE PUSH1 0x20 PUSH0 KECCAK256 SWAP1 PUSH1 0x6 MUL ADD PUSH0 DUP3 ADD MLOAD DUP2 PUSH0 ADD SSTORE PUSH1 0x20 DUP3 ADD MLOAD DUP2 PUSH1 0x1 ADD SWAP1 DUP2 PUSH2 0x4E5 SWAP2 SWAP1 PUSH2 0xD8C JUMP JUMPDEST POP PUSH1 0x40 DUP3 ADD MLOAD DUP2 PUSH1 0x2 ADD SSTORE PUSH1 0x60 DUP3 ADD MLOAD DUP2 PUSH1 0x3 ADD SSTORE PUSH1 0x80 DUP3 ADD MLOAD DUP2 PUSH1 0x4 ADD SSTORE PUSH1 0xA0 DUP3 ADD MLOAD DUP2 PUSH1 0x5 ADD SSTORE SWAP1 POP POP POP JUMPDEST DUP1 DUP1 PUSH1 0x1 ADD SWAP2 POP POP PUSH2 0x2A5 JUMP JUMPDEST POP DUP1 DUP1 PUSH1 0x1 ADD SWAP2 POP POP PUSH2 0x28F JUMP JUMPDEST POP POP JUMP JUMPDEST PUSH1 0x60 PUSH0 DUP1 SLOAD DUP1 PUSH1 0x20 MUL PUSH1 0x20 ADD PUSH1 0x40 MLOAD SWAP1 DUP2 ADD PUSH1 0x40 MSTORE DUP1 SWAP3 SWAP2 SWAP1 DUP2 DUP2 MSTORE PUSH1 0x20 ADD PUSH0 SWAP1 JUMPDEST DUP3 DUP3 LT ISZERO PUSH2 0x645 JUMPI DUP4 DUP3 SWAP1 PUSH0 MSTORE PUSH1 0x20 PUSH0 KECCAK256 SWAP1 PUSH1 0x6 MUL ADD PUSH1 0x40 MLOAD DUP1 PUSH1 0xC0 ADD PUSH1 0x40 MSTORE SWAP1 DUP2 PUSH0 DUP3 ADD SLOAD DUP2 MSTORE PUSH1 0x20 ADD PUSH1 0x1 DUP3 ADD DUP1 SLOAD PUSH2 0x58E SWAP1 PUSH2 0xB5F JUMP JUMPDEST DUP1 PUSH1 0x1F ADD PUSH1 0x20 DUP1 SWAP2 DIV MUL PUSH1 0x20 ADD PUSH1 0x40 MLOAD SWAP1 DUP2 ADD PUSH1 0x40 MSTORE DUP1 SWAP3 SWAP2 SWAP1 DUP2 DUP2 MSTORE PUSH1 0x20 ADD DUP3 DUP1 SLOAD PUSH2 0x5BA SWAP1 PUSH2 0xB5F JUMP JUMPDEST DUP1 ISZERO PUSH2 0x605 JUMPI DUP1 PUSH1 0x1F LT PUSH2 0x5DC JUMPI PUSH2 0x100 DUP1 DUP4 SLOAD DIV MUL DUP4 MSTORE SWAP2 PUSH1 0x20 ADD SWAP2 PUSH2 0x605 JUMP JUMPDEST DUP3 ADD SWAP2 SWAP1 PUSH0 MSTORE PUSH1 0x20 PUSH0 KECCAK256 SWAP1 JUMPDEST DUP2 SLOAD DUP2 MSTORE SWAP1 PUSH1 0x1 ADD SWAP1 PUSH1 0x20 ADD DUP1 DUP4 GT PUSH2 0x5E8 JUMPI DUP3 SWAP1 SUB PUSH1 0x1F AND DUP3 ADD SWAP2 JUMPDEST POP POP POP POP POP DUP2 MSTORE PUSH1 0x20 ADD PUSH1 0x2 DUP3 ADD SLOAD DUP2 MSTORE PUSH1 0x20 ADD PUSH1 0x3 DUP3 ADD SLOAD DUP2 MSTORE PUSH1 0x20 ADD PUSH1 0x4 DUP3 ADD SLOAD DUP2 MSTORE PUSH1 0x20 ADD PUSH1 0x5 DUP3 ADD SLOAD DUP2 MSTORE POP POP DUP2 MSTORE PUSH1 0x20 ADD SWAP1 PUSH1 0x1 ADD SWAP1 PUSH2 0x554 JUMP JUMPDEST POP POP POP POP SWAP1 POP SWAP1 JUMP JUMPDEST PUSH0 PUSH1 0x40 MLOAD SWAP1 POP SWAP1 JUMP JUMPDEST PUSH0 DUP1 REVERT JUMPDEST PUSH0 DUP1 REVERT JUMPDEST PUSH0 DUP2 SWAP1 POP SWAP2 SWAP1 POP JUMP JUMPDEST PUSH2 0x671 DUP2 PUSH2 0x65F JUMP JUMPDEST DUP2 EQ PUSH2 0x67B JUMPI PUSH0 DUP1 REVERT JUMPDEST POP JUMP JUMPDEST PUSH0 DUP2 CALLDATALOAD SWAP1 POP PUSH2 0x68C DUP2 PUSH2 0x668 JUMP JUMPDEST SWAP3 SWAP2 POP POP JUMP JUMPDEST PUSH0 PUSH1 0x20 DUP3 DUP5 SUB SLT ISZERO PUSH2 0x6A7 JUMPI PUSH2 0x6A6 PUSH2 0x657 JUMP JUMPDEST JUMPDEST PUSH0 PUSH2 0x6B4 DUP5 DUP3 DUP6 ADD PUSH2 0x67E JUMP JUMPDEST SWAP2 POP POP SWAP3 SWAP2 POP POP JUMP JUMPDEST PUSH2 0x6C6 DUP2 PUSH2 0x65F JUMP JUMPDEST DUP3 MSTORE POP POP JUMP JUMPDEST PUSH0 DUP2 MLOAD SWAP1 POP SWAP2 SWAP1 POP JUMP JUMPDEST PUSH0 DUP3 DUP3 MSTORE PUSH1 0x20 DUP3 ADD SWAP1 POP SWAP3 SWAP2 POP POP JUMP JUMPDEST DUP3 DUP2 DUP4 MCOPY PUSH0 DUP4 DUP4 ADD MSTORE POP POP POP JUMP JUMPDEST PUSH0 PUSH1 0x1F NOT PUSH1 0x1F DUP4 ADD AND SWAP1 POP SWAP2 SWAP1 POP JUMP JUMPDEST PUSH0 PUSH2 0x70E DUP3 PUSH2 0x6CC JUMP JUMPDEST PUSH2 0x718 DUP2 DUP6 PUSH2 0x6D6 JUMP JUMPDEST SWAP4 POP PUSH2 0x728 DUP2 DUP6 PUSH1 0x20 DUP7 ADD PUSH2 0x6E6 JUMP JUMPDEST PUSH2 0x731 DUP2 PUSH2 0x6F4 JUMP JUMPDEST DUP5 ADD SWAP2 POP POP SWAP3 SWAP2 POP POP JUMP JUMPDEST PUSH0 PUSH1 0xC0 DUP3 ADD SWAP1 POP PUSH2 0x74F PUSH0 DUP4 ADD DUP10 PUSH2 0x6BD JUMP JUMPDEST DUP2 DUP2 SUB PUSH1 0x20 DUP4 ADD MSTORE PUSH2 0x761 DUP2 DUP9 PUSH2 0x704 JUMP JUMPDEST SWAP1 POP PUSH2 0x770 PUSH1 0x40 DUP4 ADD DUP8 PUSH2 0x6BD JUMP JUMPDEST PUSH2 0x77D PUSH1 0x60 DUP4 ADD DUP7 PUSH2 0x6BD JUMP JUMPDEST PUSH2 0x78A PUSH1 0x80 DUP4 ADD DUP6 PUSH2 0x6BD JUMP JUMPDEST PUSH2 0x797 PUSH1 0xA0 DUP4 ADD DUP5 PUSH2 0x6BD JUMP JUMPDEST SWAP8 SWAP7 POP POP POP POP POP POP POP JUMP JUMPDEST PUSH0 PUSH1 0x20 DUP3 ADD SWAP1 POP PUSH2 0x7B5 PUSH0 DUP4 ADD DUP5 PUSH2 0x6BD JUMP JUMPDEST SWAP3 SWAP2 POP POP JUMP JUMPDEST PUSH0 DUP1 REVERT JUMPDEST PUSH0 DUP1 REVERT JUMPDEST PUSH32 0x4E487B7100000000000000000000000000000000000000000000000000000000 PUSH0 MSTORE PUSH1 0x41 PUSH1 0x4 MSTORE PUSH1 0x24 PUSH0 REVERT JUMPDEST PUSH2 0x7F9 DUP3 PUSH2 0x6F4 JUMP JUMPDEST DUP2 ADD DUP2 DUP2 LT PUSH8 0xFFFFFFFFFFFFFFFF DUP3 GT OR ISZERO PUSH2 0x818 JUMPI PUSH2 0x817 PUSH2 0x7C3 JUMP JUMPDEST JUMPDEST DUP1 PUSH1 0x40 MSTORE POP POP POP JUMP JUMPDEST PUSH0 PUSH2 0x82A PUSH2 0x64E JUMP JUMPDEST SWAP1 POP PUSH2 0x836 DUP3 DUP3 PUSH2 0x7F0 JUMP JUMPDEST SWAP2 SWAP1 POP JUMP JUMPDEST PUSH0 PUSH8 0xFFFFFFFFFFFFFFFF DUP3 GT ISZERO PUSH2 0x855 JUMPI PUSH2 0x854 PUSH2 0x7C3 JUMP JUMPDEST JUMPDEST PUSH2 0x85E DUP3 PUSH2 0x6F4 JUMP JUMPDEST SWAP1 POP PUSH1 0x20 DUP2 ADD SWAP1 POP SWAP2 SWAP1 POP JUMP JUMPDEST DUP3 DUP2 DUP4 CALLDATACOPY PUSH0 DUP4 DUP4 ADD MSTORE POP POP POP JUMP JUMPDEST PUSH0 PUSH2 0x88B PUSH2 0x886 DUP5 PUSH2 0x83B JUMP JUMPDEST PUSH2 0x821 JUMP JUMPDEST SWAP1 POP DUP3 DUP2 MSTORE PUSH1 0x20 DUP2 ADD DUP5 DUP5 DUP5 ADD GT ISZERO PUSH2 0x8A7 JUMPI PUSH2 0x8A6 PUSH2 0x7BF JUMP JUMPDEST JUMPDEST PUSH2 0x8B2 DUP5 DUP3 DUP6 PUSH2 0x86B JUMP JUMPDEST POP SWAP4 SWAP3 POP POP POP JUMP JUMPDEST PUSH0 DUP3 PUSH1 0x1F DUP4 ADD SLT PUSH2 0x8CE JUMPI PUSH2 0x8CD PUSH2 0x7BB JUMP JUMPDEST JUMPDEST DUP2 CALLDATALOAD PUSH2 0x8DE DUP5 DUP3 PUSH1 0x20 DUP7 ADD PUSH2 0x879 JUMP JUMPDEST SWAP2 POP POP SWAP3 SWAP2 POP POP JUMP JUMPDEST PUSH0 DUP1 PUSH0 DUP1 PUSH0 PUSH1 0xA0 DUP7 DUP9 SUB SLT ISZERO PUSH2 0x900 JUMPI PUSH2 0x8FF PUSH2 0x657 JUMP JUMPDEST JUMPDEST PUSH0 PUSH2 0x90D DUP9 DUP3 DUP10 ADD PUSH2 0x67E JUMP JUMPDEST SWAP6 POP POP PUSH1 0x20 DUP7 ADD CALLDATALOAD PUSH8 0xFFFFFFFFFFFFFFFF DUP2 GT ISZERO PUSH2 0x92E JUMPI PUSH2 0x92D PUSH2 0x65B JUMP JUMPDEST JUMPDEST PUSH2 0x93A DUP9 DUP3 DUP10 ADD PUSH2 0x8BA JUMP JUMPDEST SWAP5 POP POP PUSH1 0x40 PUSH2 0x94B DUP9 DUP3 DUP10 ADD PUSH2 0x67E JUMP JUMPDEST SWAP4 POP POP PUSH1 0x60 PUSH2 0x95C DUP9 DUP3 DUP10 ADD PUSH2 0x67E JUMP JUMPDEST SWAP3 POP POP PUSH1 0x80 PUSH2 0x96D DUP9 DUP3 DUP10 ADD PUSH2 0x67E JUMP JUMPDEST SWAP2 POP POP SWAP3 SWAP6 POP SWAP3 SWAP6 SWAP1 SWAP4 POP JUMP JUMPDEST PUSH0 DUP2 MLOAD SWAP1 POP SWAP2 SWAP1 POP JUMP JUMPDEST PUSH0 DUP3 DUP3 MSTORE PUSH1 0x20 DUP3 ADD SWAP1 POP SWAP3 SWAP2 POP POP JUMP JUMPDEST PUSH0 DUP2 SWAP1 POP PUSH1 0x20 DUP3 ADD SWAP1 POP SWAP2 SWAP1 POP JUMP JUMPDEST PUSH2 0x9AC DUP2 PUSH2 0x65F JUMP JUMPDEST DUP3 MSTORE POP POP JUMP JUMPDEST PUSH0 DUP3 DUP3 MSTORE PUSH1 0x20 DUP3 ADD SWAP1 POP SWAP3 SWAP2 POP POP JUMP JUMPDEST PUSH0 PUSH2 0x9CC DUP3 PUSH2 0x6CC JUMP JUMPDEST PUSH2 0x9D6 DUP2 DUP6 PUSH2 0x9B2 JUMP JUMPDEST SWAP4 POP PUSH2 0x9E6 DUP2 DUP6 PUSH1 0x20 DUP7 ADD PUSH2 0x6E6 JUMP JUMPDEST PUSH2 0x9EF DUP2 PUSH2 0x6F4 JUMP JUMPDEST DUP5 ADD SWAP2 POP POP SWAP3 SWAP2 POP POP JUMP JUMPDEST PUSH0 PUSH1 0xC0 DUP4 ADD PUSH0 DUP4 ADD MLOAD PUSH2 0xA0F PUSH0 DUP7 ADD DUP3 PUSH2 0x9A3 JUMP JUMPDEST POP PUSH1 0x20 DUP4 ADD MLOAD DUP5 DUP3 SUB PUSH1 0x20 DUP7 ADD MSTORE PUSH2 0xA27 DUP3 DUP3 PUSH2 0x9C2 JUMP JUMPDEST SWAP2 POP POP PUSH1 0x40 DUP4 ADD MLOAD PUSH2 0xA3C PUSH1 0x40 DUP7 ADD DUP3 PUSH2 0x9A3 JUMP JUMPDEST POP PUSH1 0x60 DUP4 ADD MLOAD PUSH2 0xA4F PUSH1 0x60 DUP7 ADD DUP3 PUSH2 0x9A3 JUMP JUMPDEST POP PUSH1 0x80 DUP4 ADD MLOAD PUSH2 0xA62 PUSH1 0x80 DUP7 ADD DUP3 PUSH2 0x9A3 JUMP JUMPDEST POP PUSH1 0xA0 DUP4 ADD MLOAD PUSH2 0xA75 PUSH1 0xA0 DUP7 ADD DUP3 PUSH2 0x9A3 JUMP JUMPDEST POP DUP1 SWAP2 POP POP SWAP3 SWAP2 POP POP JUMP JUMPDEST PUSH0 PUSH2 0xA8B DUP4 DUP4 PUSH2 0x9FA JUMP JUMPDEST SWAP1 POP SWAP3 SWAP2 POP POP JUMP JUMPDEST PUSH0 PUSH1 0x20 DUP3 ADD SWAP1 POP SWAP2 SWAP1 POP JUMP JUMPDEST PUSH0 PUSH2 0xAA9 DUP3 PUSH2 0x97A JUMP JUMPDEST PUSH2 0xAB3 DUP2 DUP6 PUSH2 0x984 JUMP JUMPDEST SWAP4 POP DUP4 PUSH1 0x20 DUP3 MUL DUP6 ADD PUSH2 0xAC5 DUP6 PUSH2 0x994 JUMP JUMPDEST DUP1 PUSH0 JUMPDEST DUP6 DUP2 LT ISZERO PUSH2 0xB00 JUMPI DUP5 DUP5 SUB DUP10 MSTORE DUP2 MLOAD PUSH2 0xAE1 DUP6 DUP3 PUSH2 0xA80 JUMP JUMPDEST SWAP5 POP PUSH2 0xAEC DUP4 PUSH2 0xA93 JUMP JUMPDEST SWAP3 POP PUSH1 0x20 DUP11 ADD SWAP10 POP POP PUSH1 0x1 DUP2 ADD SWAP1 POP PUSH2 0xAC8 JUMP JUMPDEST POP DUP3 SWAP8 POP DUP8 SWAP6 POP POP POP POP POP POP SWAP3 SWAP2 POP POP JUMP JUMPDEST PUSH0 PUSH1 0x20 DUP3 ADD SWAP1 POP DUP2 DUP2 SUB PUSH0 DUP4 ADD MSTORE PUSH2 0xB2A DUP2 DUP5 PUSH2 0xA9F JUMP JUMPDEST SWAP1 POP SWAP3 SWAP2 POP POP JUMP JUMPDEST PUSH32 0x4E487B7100000000000000000000000000000000000000000000000000000000 PUSH0 MSTORE PUSH1 0x22 PUSH1 0x4 MSTORE PUSH1 0x24 PUSH0 REVERT JUMPDEST PUSH0 PUSH1 0x2 DUP3 DIV SWAP1 POP PUSH1 0x1 DUP3 AND DUP1 PUSH2 0xB76 JUMPI PUSH1 0x7F DUP3 AND SWAP2 POP JUMPDEST PUSH1 0x20 DUP3 LT DUP2 SUB PUSH2 0xB89 JUMPI PUSH2 0xB88 PUSH2 0xB32 JUMP JUMPDEST JUMPDEST POP SWAP2 SWAP1 POP JUMP JUMPDEST PUSH32 0x4E487B7100000000000000000000000000000000000000000000000000000000 PUSH0 MSTORE PUSH1 0x11 PUSH1 0x4 MSTORE PUSH1 0x24 PUSH0 REVERT JUMPDEST PUSH0 PUSH2 0xBC6 DUP3 PUSH2 0x65F JUMP JUMPDEST SWAP2 POP PUSH2 0xBD1 DUP4 PUSH2 0x65F JUMP JUMPDEST SWAP3 POP DUP3 DUP3 ADD SWAP1 POP DUP1 DUP3 GT ISZERO PUSH2 0xBE9 JUMPI PUSH2 0xBE8 PUSH2 0xB8F JUMP JUMPDEST JUMPDEST SWAP3 SWAP2 POP POP JUMP JUMPDEST PUSH0 DUP2 SWAP1 POP DUP2 PUSH0 MSTORE PUSH1 0x20 PUSH0 KECCAK256 SWAP1 POP SWAP2 SWAP1 POP JUMP JUMPDEST PUSH0 PUSH1 0x20 PUSH1 0x1F DUP4 ADD DIV SWAP1 POP SWAP2 SWAP1 POP JUMP JUMPDEST PUSH0 DUP3 DUP3 SHL SWAP1 POP SWAP3 SWAP2 POP POP JUMP JUMPDEST PUSH0 PUSH1 0x8 DUP4 MUL PUSH2 0xC4B PUSH32 0xFFFFFFFFFFFFFFFFFFFFFFFFFFFFFFFFFFFFFFFFFFFFFFFFFFFFFFFFFFFFFFFF DUP3 PUSH2 0xC10 JUMP JUMPDEST PUSH2 0xC55 DUP7 DUP4 PUSH2 0xC10 JUMP JUMPDEST SWAP6 POP DUP1 NOT DUP5 AND SWAP4 POP DUP1 DUP7 AND DUP5 OR SWAP3 POP POP POP SWAP4 SWAP3 POP POP POP JUMP JUMPDEST PUSH0 DUP2 SWAP1 POP SWAP2 SWAP1 POP JUMP JUMPDEST PUSH0 PUSH2 0xC90 PUSH2 0xC8B PUSH2 0xC86 DUP5 PUSH2 0x65F JUMP JUMPDEST PUSH2 0xC6D JUMP JUMPDEST PUSH2 0x65F JUMP JUMPDEST SWAP1 POP SWAP2 SWAP1 POP JUMP JUMPDEST PUSH0 DUP2 SWAP1 POP SWAP2 SWAP1 POP JUMP JUMPDEST PUSH2 0xCA9 DUP4 PUSH2 0xC76 JUMP JUMPDEST PUSH2 0xCBD PUSH2 0xCB5 DUP3 PUSH2 0xC97 JUMP JUMPDEST DUP5 DUP5 SLOAD PUSH2 0xC1C JUMP JUMPDEST DUP3 SSTORE POP POP POP POP JUMP JUMPDEST PUSH0 SWAP1 JUMP JUMPDEST PUSH2 0xCD1 PUSH2 0xCC5 JUMP JUMPDEST PUSH2 0xCDC DUP2 DUP5 DUP5 PUSH2 0xCA0 JUMP JUMPDEST POP POP POP JUMP JUMPDEST JUMPDEST DUP2 DUP2 LT ISZERO PUSH2 0xCFF JUMPI PUSH2 0xCF4 PUSH0 DUP3 PUSH2 0xCC9 JUMP JUMPDEST PUSH1 0x1 DUP2 ADD SWAP1 POP PUSH2 0xCE2 JUMP JUMPDEST POP POP JUMP JUMPDEST PUSH1 0x1F DUP3 GT ISZERO PUSH2 0xD44 JUMPI PUSH2 0xD15 DUP2 PUSH2 0xBEF JUMP JUMPDEST PUSH2 0xD1E DUP5 PUSH2 0xC01 JUMP JUMPDEST DUP2 ADD PUSH1 0x20 DUP6 LT ISZERO PUSH2 0xD2D JUMPI DUP2 SWAP1 POP JUMPDEST PUSH2 0xD41 PUSH2 0xD39 DUP6 PUSH2 0xC01 JUMP JUMPDEST DUP4 ADD DUP3 PUSH2 0xCE1 JUMP JUMPDEST POP POP JUMPDEST POP POP POP JUMP JUMPDEST PUSH0 DUP3 DUP3 SHR SWAP1 POP SWAP3 SWAP2 POP POP JUMP JUMPDEST PUSH0 PUSH2 0xD64 PUSH0 NOT DUP5 PUSH1 0x8 MUL PUSH2 0xD49 JUMP JUMPDEST NOT DUP1 DUP4 AND SWAP2 POP POP SWAP3 SWAP2 POP POP JUMP JUMPDEST PUSH0 PUSH2 0xD7C DUP4 DUP4 PUSH2 0xD55 JUMP JUMPDEST SWAP2 POP DUP3 PUSH1 0x2 MUL DUP3 OR SWAP1 POP SWAP3 SWAP2 POP POP JUMP JUMPDEST PUSH2 0xD95 DUP3 PUSH2 0x6CC JUMP JUMPDEST PUSH8 0xFFFFFFFFFFFFFFFF DUP2 GT ISZERO PUSH2 0xDAE JUMPI PUSH2 0xDAD PUSH2 0x7C3 JUMP JUMPDEST JUMPDEST PUSH2 0xDB8 DUP3 SLOAD PUSH2 0xB5F JUMP JUMPDEST PUSH2 0xDC3 DUP3 DUP3 DUP6 PUSH2 0xD03 JUMP JUMPDEST PUSH0 PUSH1 0x20 SWAP1 POP PUSH1 0x1F DUP4 GT PUSH1 0x1 DUP2 EQ PUSH2 0xDF4 JUMPI PUSH0 DUP5 ISZERO PUSH2 0xDE2 JUMPI DUP3 DUP8 ADD MLOAD SWAP1 POP JUMPDEST PUSH2 0xDEC DUP6 DUP3 PUSH2 0xD71 JUMP JUMPDEST DUP7 SSTORE POP PUSH2 0xE53 JUMP JUMPDEST PUSH1 0x1F NOT DUP5 AND PUSH2 0xE02 DUP7 PUSH2 0xBEF JUMP JUMPDEST PUSH0 JUMPDEST DUP3 DUP2 LT ISZERO PUSH2 0xE29 JUMPI DUP5 DUP10 ADD MLOAD DUP3 SSTORE PUSH1 0x1 DUP3 ADD SWAP2 POP PUSH1 0x20 DUP6 ADD SWAP5 POP PUSH1 0x20 DUP2 ADD SWAP1 POP PUSH2 0xE04 JUMP JUMPDEST DUP7 DUP4 LT ISZERO PUSH2 0xE46 JUMPI DUP5 DUP10 ADD MLOAD PUSH2 0xE42 PUSH1 0x1F DUP10 AND DUP3 PUSH2 0xD55 JUMP JUMPDEST DUP4 SSTORE POP JUMPDEST PUSH1 0x1 PUSH1 0x2 DUP9 MUL ADD DUP9 SSTORE POP POP POP JUMPDEST POP POP POP POP POP POP JUMP JUMPDEST PUSH0 PUSH2 0xE65 DUP3 PUSH2 0x65F JUMP JUMPDEST SWAP2 POP PUSH2 0xE70 DUP4 PUSH2 0x65F JUMP JUMPDEST SWAP3 POP DUP3 DUP3 SUB SWAP1 POP DUP2 DUP2 GT ISZERO PUSH2 0xE88 JUMPI PUSH2 0xE87 PUSH2 0xB8F JUMP JUMPDEST JUMPDEST SWAP3 SWAP2 POP POP JUMP JUMPDEST PUSH32 0x4E487B7100000000000000000000000000000000000000000000000000000000 PUSH0 MSTORE PUSH1 0x32 PUSH1 0x4 MSTORE PUSH1 0x24 PUSH0 REVERT JUMPDEST PUSH0 DUP2 SLOAD SWAP1 POP PUSH2 0xEC9 DUP2 PUSH2 0xB5F JUMP JUMPDEST SWAP1 POP SWAP2 SWAP1 POP JUMP JUMPDEST DUP2 DUP2 SUB PUSH2 0xEDE JUMPI POP POP PUSH2 0xFB3 JUMP JUMPDEST PUSH2 0xEE7 DUP3 PUSH2 0xEBB JUMP JUMPDEST PUSH8 0xFFFFFFFFFFFFFFFF DUP2 GT ISZERO PUSH2 0xF00 JUMPI PUSH2 0xEFF PUSH2 0x7C3 JUMP JUMPDEST JUMPDEST PUSH2 0xF0A DUP3 SLOAD PUSH2 0xB5F JUMP JUMPDEST PUSH2 0xF15 DUP3 DUP3 DUP6 PUSH2 0xD03 JUMP JUMPDEST PUSH0 PUSH1 0x1F DUP4 GT PUSH1 0x1 DUP2 EQ PUSH2 0xF42 JUMPI PUSH0 DUP5 ISZERO PUSH2 0xF30 JUMPI DUP3 DUP8 ADD SLOAD SWAP1 POP JUMPDEST PUSH2 0xF3A DUP6 DUP3 PUSH2 0xD71 JUMP JUMPDEST DUP7 SSTORE POP PUSH2 0xFAC JUMP JUMPDEST PUSH1 0x1F NOT DUP5 AND PUSH2 0xF50 DUP8 PUSH2 0xBEF JUMP JUMPDEST SWAP7 POP PUSH2 0xF5B DUP7 PUSH2 0xBEF JUMP JUMPDEST PUSH0 JUMPDEST DUP3 DUP2 LT ISZERO PUSH2 0xF82 JUMPI DUP5 DUP10 ADD SLOAD DUP3 SSTORE PUSH1 0x1 DUP3 ADD SWAP2 POP PUSH1 0x1 DUP6 ADD SWAP5 POP PUSH1 0x20 DUP2 ADD SWAP1 POP PUSH2 0xF5D JUMP JUMPDEST DUP7 DUP4 LT ISZERO PUSH2 0xF9F JUMPI DUP5 DUP10 ADD SLOAD PUSH2 0xF9B PUSH1 0x1F DUP10 AND DUP3 PUSH2 0xD55 JUMP JUMPDEST DUP4 SSTORE POP JUMPDEST PUSH1 0x1 PUSH1 0x2 DUP9 MUL ADD DUP9 SSTORE POP POP POP JUMPDEST POP POP POP POP POP POP JUMPDEST JUMP INVALID LOG2 PUSH5 0x6970667358 0x22 SLT KECCAK256 0xCB PC SWAP11 0x22 0x2A 0xC9 DUP8 MSTORE8 PUSH22 0x5892D739B27261E24C4035B20EA15A6CD0474C74080 0xBF PUSH5 0x736F6C6343 STOP ADDMOD BYTE STOP CALLER "
				},
				"gasEstimates": {
					"creation": {
						"codeDepositCost": "815000",
						"executionCost": "849",
						"totalCost": "815849"
					},
					"external": {
						"addStudent(uint256,string,uint256,uint256,uint256)": "infinite",
						"getStudentCount()": "2440",
						"getStudents()": "infinite",
						"sortStudentsByMarks()": "infinite",
						"students(uint256)": "infinite"
					}
				},
				"methodIdentifiers": {
					"addStudent(uint256,string,uint256,uint256,uint256)": "b9b112eb",
					"getStudentCount()": "41e0c407",
					"getStudents()": "f1d064b3",
					"sortStudentsByMarks()": "df93d8f0",
					"students(uint256)": "06ead22e"
				}
			},
			"storageLayout": {
				"storage": [
					{
						"astId": 18,
						"contract": "ClassTest II/CTq3.sol:StudentRecords",
						"label": "students",
						"offset": 0,
						"slot": "0",
						"type": "t_array(t_struct(Student)14_storage)dyn_storage"
					}
				],
				"types": {
					"t_array(t_struct(Student)14_storage)dyn_storage": {
						"base": "t_struct(Student)14_storage",
						"encoding": "dynamic_array",
						"label": "struct StudentRecords.Student[]",
						"numberOfBytes": "32"
					},
					"t_string_storage": {
						"encoding": "bytes",
						"label": "string",
						"numberOfBytes": "32"
					},
					"t_struct(Student)14_storage": {
						"encoding": "inplace",
						"label": "struct StudentRecords.Student",
						"members": [
							{
								"astId": 3,
								"contract": "ClassTest II/CTq3.sol:StudentRecords",
								"label": "roll",
								"offset": 0,
								"slot": "0",
								"type": "t_uint256"
							},
							{
								"astId": 5,
								"contract": "ClassTest II/CTq3.sol:StudentRecords",
								"label": "name",
								"offset": 0,
								"slot": "1",
								"type": "t_string_storage"
							},
							{
								"astId": 7,
								"contract": "ClassTest II/CTq3.sol:StudentRecords",
								"label": "marksinPhysics",
								"offset": 0,
								"slot": "2",
								"type": "t_uint256"
							},
							{
								"astId": 9,
								"contract": "ClassTest II/CTq3.sol:StudentRecords",
								"label": "marksinChemistry",
								"offset": 0,
								"slot": "3",
								"type": "t_uint256"
							},
							{
								"astId": 11,
								"contract": "ClassTest II/CTq3.sol:StudentRecords",
								"label": "marksinMathematics",
								"offset": 0,
								"slot": "4",
								"type": "t_uint256"
							},
							{
								"astId": 13,
								"contract": "ClassTest II/CTq3.sol:StudentRecords",
								"label": "totalMarks",
								"offset": 0,
								"slot": "5",
								"type": "t_uint256"
							}
						],
						"numberOfBytes": "192"
					},
					"t_uint256": {
						"encoding": "inplace",
						"label": "uint256",
						"numberOfBytes": "32"
					}
				}
			},
			"userdoc": {
				"kind": "user",
				"methods": {},
				"version": 1
			}
		}
	}
}